ARM GAS  C:\Users\Moi\AppData\Local\Temp\ccMqWRbY.s 			page 1


   1              		.cpu cortex-m4
   2              		.eabi_attribute 27, 1
   3              		.eabi_attribute 28, 1
   4              		.eabi_attribute 20, 1
   5              		.eabi_attribute 21, 1
   6              		.eabi_attribute 23, 3
   7              		.eabi_attribute 24, 1
   8              		.eabi_attribute 25, 1
   9              		.eabi_attribute 26, 1
  10              		.eabi_attribute 30, 2
  11              		.eabi_attribute 34, 1
  12              		.eabi_attribute 18, 4
  13              		.file	"aseba_node.c"
  14              		.text
  15              	.Ltext0:
  16              		.cfi_sections	.debug_frame
  17              		.section	.text.aseba_vm_thd,"ax",%progbits
  18              		.align	1
  19              		.p2align 4,,15
  20              		.syntax unified
  21              		.thumb
  22              		.thumb_func
  23              		.fpu fpv4-sp-d16
  24              		.type	aseba_vm_thd, %function
  25              	aseba_vm_thd:
  26              	.LFB261:
  27              		.file 1 ".//src/aseba_vm/aseba_node.c"
  28              		.loc 1 43 0
  29              		.cfi_startproc
  30              		@ args = 0, pretend = 0, frame = 8
  31              		@ frame_needed = 0, uses_anonymous_args = 0
  32              	.LVL0:
  33 0000 2DE9F041 		push	{r4, r5, r6, r7, r8, lr}
  34              		.cfi_def_cfa_offset 24
  35              		.cfi_offset 4, -24
  36              		.cfi_offset 5, -20
  37              		.cfi_offset 6, -16
  38              		.cfi_offset 7, -12
  39              		.cfi_offset 8, -8
  40              		.cfi_offset 14, -4
  41              	.LBB9:
  42              	.LBB10:
  43              		.file 2 ".//ChibiOS//os/rt/include/chregistry.h"
  44              		.loc 2 135 0
  45 0004 1E4A     		ldr	r2, .L12
  46              	.LBE10:
  47              	.LBE9:
  48              		.loc 1 43 0
  49 0006 1F4B     		ldr	r3, .L12+4
  50              	.LBB12:
  51              	.LBB11:
  52              		.loc 2 135 0
  53 0008 9269     		ldr	r2, [r2, #24]
  54 000a 1F49     		ldr	r1, .L12+8
  55 000c 9161     		str	r1, [r2, #24]
  56              	.LBE11:
  57              	.LBE12:
ARM GAS  C:\Users\Moi\AppData\Local\Temp\ccMqWRbY.s 			page 2


  58              		.loc 1 43 0
  59 000e 82B0     		sub	sp, sp, #8
  60              		.cfi_def_cfa_offset 32
  61              		.loc 1 43 0
  62 0010 1B68     		ldr	r3, [r3]
  63              		.loc 1 48 0
  64 0012 1E48     		ldr	r0, .L12+12
  65              	.LVL1:
  66              		.loc 1 43 0
  67 0014 0193     		str	r3, [sp, #4]
  68              		.loc 1 48 0
  69 0016 4FF6FF71 		movw	r1, #65535
  70 001a 1C4D     		ldr	r5, .L12+12
  71 001c 1C4E     		ldr	r6, .L12+16
  72 001e DFF87480 		ldr	r8, .L12+20
  73 0022 FFF7FEFF 		bl	AsebaVMSetupEvent
  74              	.LVL2:
  75              	.LBB13:
  76              		.loc 1 55 0
  77 0026 2C46     		mov	r4, r5
  78              		.loc 1 79 0
  79 0028 0127     		movs	r7, #1
  80              	.L2:
  81              		.loc 1 52 0
  82 002a FFF7FEFF 		bl	chThdYield
  83              	.LVL3:
  84              		.loc 1 55 0
  85 002e 2046     		mov	r0, r4
  86 0030 FFF7FEFF 		bl	aseba_read_variables_from_system
  87              	.LVL4:
  88              		.loc 1 58 0
  89 0034 4FF47A71 		mov	r1, #1000
  90 0038 2046     		mov	r0, r4
  91 003a FFF7FEFF 		bl	AsebaVMRun
  92              	.LVL5:
  93              		.loc 1 59 0
  94 003e 2046     		mov	r0, r4
  95 0040 FFF7FEFF 		bl	AsebaProcessIncomingEvents
  96              	.LVL6:
  97              		.loc 1 62 0
  98 0044 2046     		mov	r0, r4
  99 0046 FFF7FEFF 		bl	aseba_write_variables_to_system
 100              	.LVL7:
 101              		.loc 1 70 0
 102 004a 2B8B     		ldrh	r3, [r5, #24]
 103 004c 9B07     		lsls	r3, r3, #30
 104 004e ECD1     		bne	.L2
 105              		.loc 1 74 0
 106 0050 3268     		ldr	r2, [r6]
 107 0052 92FAA2F3 		rbit	r3, r2
 108 0056 B3FA83F3 		clz	r3, r3
 109              		.loc 1 83 0
 110 005a C3F57F41 		rsb	r1, r3, #65280
 111 005e FE31     		adds	r1, r1, #254
 112              		.loc 1 79 0
 113 0060 07FA03F3 		lsl	r3, r7, r3
 114 0064 22EA0303 		bic	r3, r2, r3
ARM GAS  C:\Users\Moi\AppData\Local\Temp\ccMqWRbY.s 			page 3


 115              		.loc 1 83 0
 116 0068 89B2     		uxth	r1, r1
 117 006a 2046     		mov	r0, r4
 118              		.loc 1 74 0
 119 006c 002A     		cmp	r2, #0
 120 006e DCD0     		beq	.L2
 121              		.loc 1 81 0
 122 0070 2A88     		ldrh	r2, [r5]
 123              		.loc 1 79 0
 124 0072 3360     		str	r3, [r6]
 125              		.loc 1 81 0
 126 0074 A8F80220 		strh	r2, [r8, #2]	@ movhi
 127              		.loc 1 83 0
 128 0078 FFF7FEFF 		bl	AsebaVMSetupEvent
 129              	.LVL8:
 130 007c D5E7     		b	.L2
 131              	.L13:
 132 007e 00BF     		.align	2
 133              	.L12:
 134 0080 00000000 		.word	ch
 135 0084 00000000 		.word	__stack_chk_guard
 136 0088 00000000 		.word	.LC0
 137 008c 00000000 		.word	.LANCHOR0
 138 0090 00000000 		.word	.LANCHOR1
 139 0094 00000000 		.word	vmVariables
 140              	.LBE13:
 141              		.cfi_endproc
 142              	.LFE261:
 143              		.size	aseba_vm_thd, .-aseba_vm_thd
 144              		.section	.text.aseba_vm_init,"ax",%progbits
 145              		.align	1
 146              		.p2align 4,,15
 147              		.global	aseba_vm_init
 148              		.syntax unified
 149              		.thumb
 150              		.thumb_func
 151              		.fpu fpv4-sp-d16
 152              		.type	aseba_vm_init, %function
 153              	aseba_vm_init:
 154              	.LFB262:
 155              		.loc 1 89 0
 156              		.cfi_startproc
 157              		@ args = 0, pretend = 0, frame = 8
 158              		@ frame_needed = 0, uses_anonymous_args = 0
 159 0000 30B5     		push	{r4, r5, lr}
 160              		.cfi_def_cfa_offset 12
 161              		.cfi_offset 4, -12
 162              		.cfi_offset 5, -8
 163              		.cfi_offset 14, -4
 164 0002 114D     		ldr	r5, .L20
 165              		.loc 1 92 0
 166 0004 1148     		ldr	r0, .L20+4
 167              		.loc 1 89 0
 168 0006 2B68     		ldr	r3, [r5]
 169              		.loc 1 92 0
 170 0008 114C     		ldr	r4, .L20+8
 171              		.loc 1 89 0
ARM GAS  C:\Users\Moi\AppData\Local\Temp\ccMqWRbY.s 			page 4


 172 000a 83B0     		sub	sp, sp, #12
 173              		.cfi_def_cfa_offset 24
 174              		.loc 1 89 0
 175 000c 0193     		str	r3, [sp, #4]
 176              		.loc 1 92 0
 177 000e FFF7FEFF 		bl	parameter_integer_get
 178              	.LVL9:
 179 0012 2080     		strh	r0, [r4]	@ movhi
 180              		.loc 1 94 0
 181 0014 2046     		mov	r0, r4
 182 0016 FFF7FEFF 		bl	AsebaVMInit
 183              	.LVL10:
 184              		.loc 1 99 0
 185 001a 0E49     		ldr	r1, .L20+12
 186 001c 0A88     		ldrh	r2, [r1]	@ unaligned
 187              	.LVL11:
 188              		.loc 1 104 0
 189 001e 4FF6FF73 		movw	r3, #65535
 190 0022 9A42     		cmp	r2, r3
 191 0024 03D0     		beq	.L15
 192              		.loc 1 105 0
 193 0026 0231     		adds	r1, r1, #2
 194 0028 6068     		ldr	r0, [r4, #4]
 195 002a FFF7FEFF 		bl	memcpy
 196              	.LVL12:
 197              	.L15:
 198              		.loc 1 108 0
 199 002e 019A     		ldr	r2, [sp, #4]
 200 0030 2B68     		ldr	r3, [r5]
 201 0032 9A42     		cmp	r2, r3
 202 0034 06D1     		bne	.L19
 203 0036 4FF4FA70 		mov	r0, #500
 204              		.loc 1 109 0
 205 003a 03B0     		add	sp, sp, #12
 206              		.cfi_remember_state
 207              		.cfi_def_cfa_offset 12
 208              		@ sp needed
 209 003c BDE83040 		pop	{r4, r5, lr}
 210              		.cfi_restore 14
 211              		.cfi_restore 5
 212              		.cfi_restore 4
 213              		.cfi_def_cfa_offset 0
 214              		.loc 1 108 0
 215 0040 FFF7FEBF 		b	chThdSleep
 216              	.LVL13:
 217              	.L19:
 218              		.cfi_restore_state
 219 0044 FFF7FEFF 		bl	__stack_chk_fail
 220              	.LVL14:
 221              	.L21:
 222              		.align	2
 223              	.L20:
 224 0048 00000000 		.word	__stack_chk_guard
 225 004c 00000000 		.word	.LANCHOR2
 226 0050 00000000 		.word	.LANCHOR0
 227 0054 00000000 		.word	_aseba_bytecode_start
 228              		.cfi_endproc
ARM GAS  C:\Users\Moi\AppData\Local\Temp\ccMqWRbY.s 			page 5


 229              	.LFE262:
 230              		.size	aseba_vm_init, .-aseba_vm_init
 231              		.section	.text.aseba_declare_parameters,"ax",%progbits
 232              		.align	1
 233              		.p2align 4,,15
 234              		.global	aseba_declare_parameters
 235              		.syntax unified
 236              		.thumb
 237              		.thumb_func
 238              		.fpu fpv4-sp-d16
 239              		.type	aseba_declare_parameters, %function
 240              	aseba_declare_parameters:
 241              	.LFB263:
 242              		.loc 1 112 0
 243              		.cfi_startproc
 244              		@ args = 0, pretend = 0, frame = 8
 245              		@ frame_needed = 0, uses_anonymous_args = 0
 246              	.LVL15:
 247 0000 30B5     		push	{r4, r5, lr}
 248              		.cfi_def_cfa_offset 12
 249              		.cfi_offset 4, -12
 250              		.cfi_offset 5, -8
 251              		.cfi_offset 14, -4
 252 0002 0B4C     		ldr	r4, .L27
 253              		.loc 1 113 0
 254 0004 0B4A     		ldr	r2, .L27+4
 255              		.loc 1 112 0
 256 0006 2368     		ldr	r3, [r4]
 257 0008 83B0     		sub	sp, sp, #12
 258              		.cfi_def_cfa_offset 24
 259              		.loc 1 113 0
 260 000a 0146     		mov	r1, r0
 261              		.loc 1 112 0
 262 000c 0193     		str	r3, [sp, #4]
 263 000e 0546     		mov	r5, r0
 264              		.loc 1 113 0
 265 0010 2A23     		movs	r3, #42
 266 0012 0948     		ldr	r0, .L27+8
 267              	.LVL16:
 268 0014 FFF7FEFF 		bl	parameter_integer_declare_with_default
 269              	.LVL17:
 270              		.loc 1 115 0
 271 0018 019A     		ldr	r2, [sp, #4]
 272 001a 2368     		ldr	r3, [r4]
 273 001c 9A42     		cmp	r2, r3
 274 001e 05D1     		bne	.L26
 275 0020 2846     		mov	r0, r5
 276              		.loc 1 116 0
 277 0022 03B0     		add	sp, sp, #12
 278              		.cfi_remember_state
 279              		.cfi_def_cfa_offset 12
 280              		@ sp needed
 281 0024 BDE83040 		pop	{r4, r5, lr}
 282              		.cfi_restore 14
 283              		.cfi_restore 5
 284              		.cfi_restore 4
 285              		.cfi_def_cfa_offset 0
ARM GAS  C:\Users\Moi\AppData\Local\Temp\ccMqWRbY.s 			page 6


 286              	.LVL18:
 287              		.loc 1 115 0
 288 0028 FFF7FEBF 		b	aseba_variables_init
 289              	.LVL19:
 290              	.L26:
 291              		.cfi_restore_state
 292 002c FFF7FEFF 		bl	__stack_chk_fail
 293              	.LVL20:
 294              	.L28:
 295              		.align	2
 296              	.L27:
 297 0030 00000000 		.word	__stack_chk_guard
 298 0034 00000000 		.word	.LC1
 299 0038 00000000 		.word	.LANCHOR2
 300              		.cfi_endproc
 301              	.LFE263:
 302              		.size	aseba_declare_parameters, .-aseba_declare_parameters
 303              		.section	.text.aseba_vm_start,"ax",%progbits
 304              		.align	1
 305              		.p2align 4,,15
 306              		.global	aseba_vm_start
 307              		.syntax unified
 308              		.thumb
 309              		.thumb_func
 310              		.fpu fpv4-sp-d16
 311              		.type	aseba_vm_start, %function
 312              	aseba_vm_start:
 313              	.LFB264:
 314              		.loc 1 119 0
 315              		.cfi_startproc
 316              		@ args = 0, pretend = 0, frame = 8
 317              		@ frame_needed = 0, uses_anonymous_args = 0
 318 0000 10B5     		push	{r4, lr}
 319              		.cfi_def_cfa_offset 8
 320              		.cfi_offset 4, -8
 321              		.cfi_offset 14, -4
 322 0002 0A4C     		ldr	r4, .L33
 323              		.loc 1 121 0
 324 0004 0A4B     		ldr	r3, .L33+4
 325              		.loc 1 119 0
 326 0006 2268     		ldr	r2, [r4]
 327              		.loc 1 121 0
 328 0008 0A48     		ldr	r0, .L33+8
 329              		.loc 1 119 0
 330 000a 84B0     		sub	sp, sp, #16
 331              		.cfi_def_cfa_offset 24
 332              		.loc 1 121 0
 333 000c 4FF4AF61 		mov	r1, #1400
 334              		.loc 1 119 0
 335 0010 0392     		str	r2, [sp, #12]
 336              		.loc 1 121 0
 337 0012 0022     		movs	r2, #0
 338 0014 0092     		str	r2, [sp]
 339 0016 0222     		movs	r2, #2
 340 0018 FFF7FEFF 		bl	chThdCreateStatic
 341              	.LVL21:
 342              		.loc 1 122 0
ARM GAS  C:\Users\Moi\AppData\Local\Temp\ccMqWRbY.s 			page 7


 343 001c 039A     		ldr	r2, [sp, #12]
 344 001e 2368     		ldr	r3, [r4]
 345 0020 9A42     		cmp	r2, r3
 346 0022 01D1     		bne	.L32
 347 0024 04B0     		add	sp, sp, #16
 348              		.cfi_remember_state
 349              		.cfi_def_cfa_offset 8
 350              		@ sp needed
 351 0026 10BD     		pop	{r4, pc}
 352              	.L32:
 353              		.cfi_restore_state
 354 0028 FFF7FEFF 		bl	__stack_chk_fail
 355              	.LVL22:
 356              	.L34:
 357              		.align	2
 358              	.L33:
 359 002c 00000000 		.word	__stack_chk_guard
 360 0030 00000000 		.word	aseba_vm_thd
 361 0034 00000000 		.word	.LANCHOR3
 362              		.cfi_endproc
 363              	.LFE264:
 364              		.size	aseba_vm_start, .-aseba_vm_start
 365              		.section	.text.AsebaIdle,"ax",%progbits
 366              		.align	1
 367              		.p2align 4,,15
 368              		.global	AsebaIdle
 369              		.syntax unified
 370              		.thumb
 371              		.thumb_func
 372              		.fpu fpv4-sp-d16
 373              		.type	AsebaIdle, %function
 374              	AsebaIdle:
 375              	.LFB265:
 376              		.loc 1 125 0
 377              		.cfi_startproc
 378              		@ args = 0, pretend = 0, frame = 8
 379              		@ frame_needed = 0, uses_anonymous_args = 0
 380 0000 00B5     		push	{lr}
 381              		.cfi_def_cfa_offset 4
 382              		.cfi_offset 14, -4
 383 0002 074B     		ldr	r3, .L40
 384 0004 83B0     		sub	sp, sp, #12
 385              		.cfi_def_cfa_offset 16
 386              		.loc 1 125 0
 387 0006 1A68     		ldr	r2, [r3]
 388 0008 0192     		str	r2, [sp, #4]
 389              		.loc 1 126 0
 390 000a 019A     		ldr	r2, [sp, #4]
 391 000c 1B68     		ldr	r3, [r3]
 392 000e 9A42     		cmp	r2, r3
 393 0010 04D1     		bne	.L39
 394              		.loc 1 127 0
 395 0012 03B0     		add	sp, sp, #12
 396              		.cfi_remember_state
 397              		.cfi_def_cfa_offset 4
 398              		@ sp needed
 399 0014 5DF804EB 		ldr	lr, [sp], #4
ARM GAS  C:\Users\Moi\AppData\Local\Temp\ccMqWRbY.s 			page 8


 400              		.cfi_restore 14
 401              		.cfi_def_cfa_offset 0
 402              		.loc 1 126 0
 403 0018 FFF7FEBF 		b	chThdYield
 404              	.LVL23:
 405              	.L39:
 406              		.cfi_restore_state
 407 001c FFF7FEFF 		bl	__stack_chk_fail
 408              	.LVL24:
 409              	.L41:
 410              		.align	2
 411              	.L40:
 412 0020 00000000 		.word	__stack_chk_guard
 413              		.cfi_endproc
 414              	.LFE265:
 415              		.size	AsebaIdle, .-AsebaIdle
 416              		.section	.text.AsebaPutVmToSleep,"ax",%progbits
 417              		.align	1
 418              		.p2align 4,,15
 419              		.global	AsebaPutVmToSleep
 420              		.syntax unified
 421              		.thumb
 422              		.thumb_func
 423              		.fpu fpv4-sp-d16
 424              		.type	AsebaPutVmToSleep, %function
 425              	AsebaPutVmToSleep:
 426              	.LFB266:
 427              		.loc 1 130 0
 428              		.cfi_startproc
 429              		@ args = 0, pretend = 0, frame = 8
 430              		@ frame_needed = 0, uses_anonymous_args = 0
 431              	.LVL25:
 432 0000 00B5     		push	{lr}
 433              		.cfi_def_cfa_offset 4
 434              		.cfi_offset 14, -4
 435 0002 084B     		ldr	r3, .L47
 436 0004 83B0     		sub	sp, sp, #12
 437              		.cfi_def_cfa_offset 16
 438              		.loc 1 130 0
 439 0006 1A68     		ldr	r2, [r3]
 440 0008 0192     		str	r2, [sp, #4]
 441              		.loc 1 132 0
 442 000a 019A     		ldr	r2, [sp, #4]
 443 000c 1B68     		ldr	r3, [r3]
 444 000e 9A42     		cmp	r2, r3
 445 0010 06D1     		bne	.L46
 446 0012 4FF47A70 		mov	r0, #1000
 447              	.LVL26:
 448              		.loc 1 133 0
 449 0016 03B0     		add	sp, sp, #12
 450              		.cfi_remember_state
 451              		.cfi_def_cfa_offset 4
 452              		@ sp needed
 453 0018 5DF804EB 		ldr	lr, [sp], #4
 454              		.cfi_restore 14
 455              		.cfi_def_cfa_offset 0
 456              		.loc 1 132 0
ARM GAS  C:\Users\Moi\AppData\Local\Temp\ccMqWRbY.s 			page 9


 457 001c FFF7FEBF 		b	chThdSleep
 458              	.LVL27:
 459              	.L46:
 460              		.cfi_restore_state
 461 0020 FFF7FEFF 		bl	__stack_chk_fail
 462              	.LVL28:
 463              	.L48:
 464              		.align	2
 465              	.L47:
 466 0024 00000000 		.word	__stack_chk_guard
 467              		.cfi_endproc
 468              	.LFE266:
 469              		.size	AsebaPutVmToSleep, .-AsebaPutVmToSleep
 470              		.section	.text.AsebaResetIntoBootloader,"ax",%progbits
 471              		.align	1
 472              		.p2align 4,,15
 473              		.global	AsebaResetIntoBootloader
 474              		.syntax unified
 475              		.thumb
 476              		.thumb_func
 477              		.fpu fpv4-sp-d16
 478              		.type	AsebaResetIntoBootloader, %function
 479              	AsebaResetIntoBootloader:
 480              	.LFB267:
 481              		.loc 1 136 0
 482              		.cfi_startproc
 483              		@ Volatile: function does not return.
 484              		@ args = 0, pretend = 0, frame = 8
 485              		@ frame_needed = 0, uses_anonymous_args = 0
 486              		@ link register save eliminated.
 487              	.LVL29:
 488 0000 074B     		ldr	r3, .L53
 489 0002 82B0     		sub	sp, sp, #8
 490              		.cfi_def_cfa_offset 8
 491              		.loc 1 136 0
 492 0004 1B68     		ldr	r3, [r3]
 493 0006 0193     		str	r3, [sp, #4]
 494              	.LBB20:
 495              	.LBB21:
 496              	.LBB22:
 497              	.LBB23:
 498              		.file 3 ".//ChibiOS//os/ext/CMSIS/include/core_cmInstr.h"
 499              		.loc 3 382 0
 500              		.syntax unified
 501              	@ 382 ".//ChibiOS//os/ext/CMSIS/include/core_cmInstr.h" 1
 502 0008 BFF34F8F 		dsb
 503              	@ 0 "" 2
 504              		.thumb
 505              		.syntax unified
 506              	.LBE23:
 507              	.LBE22:
 508              		.file 4 ".//ChibiOS//os/ext/CMSIS/include/core_cm4.h"
 509              		.loc 4 1643 0
 510 000c 0549     		ldr	r1, .L53+4
 511 000e 064B     		ldr	r3, .L53+8
 512 0010 CA68     		ldr	r2, [r1, #12]
 513 0012 02F4E062 		and	r2, r2, #1792
ARM GAS  C:\Users\Moi\AppData\Local\Temp\ccMqWRbY.s 			page 10


 514 0016 1343     		orrs	r3, r3, r2
 515              		.loc 4 1642 0
 516 0018 CB60     		str	r3, [r1, #12]
 517              	.LBB24:
 518              	.LBB25:
 519              		.loc 3 382 0
 520              		.syntax unified
 521              	@ 382 ".//ChibiOS//os/ext/CMSIS/include/core_cmInstr.h" 1
 522 001a BFF34F8F 		dsb
 523              	@ 0 "" 2
 524              		.thumb
 525              		.syntax unified
 526              	.L50:
 527 001e FEE7     		b	.L50
 528              	.L54:
 529              		.align	2
 530              	.L53:
 531 0020 00000000 		.word	__stack_chk_guard
 532 0024 00ED00E0 		.word	-536810240
 533 0028 0400FA05 		.word	100270084
 534              	.LBE25:
 535              	.LBE24:
 536              	.LBE21:
 537              	.LBE20:
 538              		.cfi_endproc
 539              	.LFE267:
 540              		.size	AsebaResetIntoBootloader, .-AsebaResetIntoBootloader
 541              		.section	.text.AsebaNativeFunction,"ax",%progbits
 542              		.align	1
 543              		.p2align 4,,15
 544              		.global	AsebaNativeFunction
 545              		.syntax unified
 546              		.thumb
 547              		.thumb_func
 548              		.fpu fpv4-sp-d16
 549              		.type	AsebaNativeFunction, %function
 550              	AsebaNativeFunction:
 551              	.LFB268:
 552              		.loc 1 142 0
 553              		.cfi_startproc
 554              		@ args = 0, pretend = 0, frame = 8
 555              		@ frame_needed = 0, uses_anonymous_args = 0
 556              	.LVL30:
 557 0000 10B5     		push	{r4, lr}
 558              		.cfi_def_cfa_offset 8
 559              		.cfi_offset 4, -8
 560              		.cfi_offset 14, -4
 561              		.loc 1 143 0
 562 0002 0E4A     		ldr	r2, .L62
 563              		.loc 1 142 0
 564 0004 0E4B     		ldr	r3, .L62+4
 565              		.loc 1 143 0
 566 0006 1268     		ldr	r2, [r2]
 567              		.loc 1 142 0
 568 0008 1C68     		ldr	r4, [r3]
 569 000a 82B0     		sub	sp, sp, #8
 570              		.cfi_def_cfa_offset 16
ARM GAS  C:\Users\Moi\AppData\Local\Temp\ccMqWRbY.s 			page 11


 571              		.loc 1 143 0
 572 000c 9142     		cmp	r1, r2
 573              		.loc 1 142 0
 574 000e 0194     		str	r4, [sp, #4]
 575              		.loc 1 144 0
 576 0010 019A     		ldr	r2, [sp, #4]
 577 0012 1B68     		ldr	r3, [r3]
 578              		.loc 1 143 0
 579 0014 08DA     		bge	.L56
 580              		.loc 1 144 0
 581 0016 9A42     		cmp	r2, r3
 582 0018 0ED1     		bne	.L61
 583 001a 0A4B     		ldr	r3, .L62+8
 584 001c 53F82130 		ldr	r3, [r3, r1, lsl #2]
 585              		.loc 1 148 0
 586 0020 02B0     		add	sp, sp, #8
 587              		.cfi_remember_state
 588              		.cfi_def_cfa_offset 8
 589              		@ sp needed
 590 0022 BDE81040 		pop	{r4, lr}
 591              		.cfi_restore 14
 592              		.cfi_restore 4
 593              		.cfi_def_cfa_offset 0
 594              		.loc 1 144 0
 595 0026 1847     		bx	r3	@ indirect register sibling call
 596              	.LVL31:
 597              	.L56:
 598              		.cfi_restore_state
 599              		.loc 1 146 0
 600 0028 9A42     		cmp	r2, r3
 601 002a 05D1     		bne	.L61
 602 002c 0649     		ldr	r1, .L62+12
 603              	.LVL32:
 604              		.loc 1 148 0
 605 002e 02B0     		add	sp, sp, #8
 606              		.cfi_remember_state
 607              		.cfi_def_cfa_offset 8
 608              		@ sp needed
 609 0030 BDE81040 		pop	{r4, lr}
 610              		.cfi_restore 14
 611              		.cfi_restore 4
 612              		.cfi_def_cfa_offset 0
 613              		.loc 1 146 0
 614 0034 FFF7FEBF 		b	AsebaVMEmitNodeSpecificError
 615              	.LVL33:
 616              	.L61:
 617              		.cfi_restore_state
 618 0038 FFF7FEFF 		bl	__stack_chk_fail
 619              	.LVL34:
 620              	.L63:
 621              		.align	2
 622              	.L62:
 623 003c 00000000 		.word	nativeFunctions_length
 624 0040 00000000 		.word	__stack_chk_guard
 625 0044 00000000 		.word	nativeFunctions
 626 0048 00000000 		.word	.LC2
 627              		.cfi_endproc
ARM GAS  C:\Users\Moi\AppData\Local\Temp\ccMqWRbY.s 			page 12


 628              	.LFE268:
 629              		.size	AsebaNativeFunction, .-AsebaNativeFunction
 630              		.section	.text.AsebaGetNativeFunctionsDescriptions,"ax",%progbits
 631              		.align	1
 632              		.p2align 4,,15
 633              		.global	AsebaGetNativeFunctionsDescriptions
 634              		.syntax unified
 635              		.thumb
 636              		.thumb_func
 637              		.fpu fpv4-sp-d16
 638              		.type	AsebaGetNativeFunctionsDescriptions, %function
 639              	AsebaGetNativeFunctionsDescriptions:
 640              	.LFB269:
 641              		.loc 1 151 0
 642              		.cfi_startproc
 643              		@ args = 0, pretend = 0, frame = 8
 644              		@ frame_needed = 0, uses_anonymous_args = 0
 645              	.LVL35:
 646 0000 00B5     		push	{lr}
 647              		.cfi_def_cfa_offset 4
 648              		.cfi_offset 14, -4
 649 0002 074B     		ldr	r3, .L68
 650 0004 83B0     		sub	sp, sp, #12
 651              		.cfi_def_cfa_offset 16
 652              		.loc 1 151 0
 653 0006 1A68     		ldr	r2, [r3]
 654 0008 0192     		str	r2, [sp, #4]
 655              		.loc 1 154 0
 656 000a 019A     		ldr	r2, [sp, #4]
 657 000c 1B68     		ldr	r3, [r3]
 658 000e 9A42     		cmp	r2, r3
 659 0010 03D1     		bne	.L67
 660 0012 0448     		ldr	r0, .L68+4
 661              	.LVL36:
 662 0014 03B0     		add	sp, sp, #12
 663              		.cfi_remember_state
 664              		.cfi_def_cfa_offset 4
 665              		@ sp needed
 666 0016 5DF804FB 		ldr	pc, [sp], #4
 667              	.LVL37:
 668              	.L67:
 669              		.cfi_restore_state
 670 001a FFF7FEFF 		bl	__stack_chk_fail
 671              	.LVL38:
 672              	.L69:
 673 001e 00BF     		.align	2
 674              	.L68:
 675 0020 00000000 		.word	__stack_chk_guard
 676 0024 00000000 		.word	nativeFunctionsDescription
 677              		.cfi_endproc
 678              	.LFE269:
 679              		.size	AsebaGetNativeFunctionsDescriptions, .-AsebaGetNativeFunctionsDescriptions
 680              		.section	.text.AsebaGetVMDescription,"ax",%progbits
 681              		.align	1
 682              		.p2align 4,,15
 683              		.global	AsebaGetVMDescription
 684              		.syntax unified
ARM GAS  C:\Users\Moi\AppData\Local\Temp\ccMqWRbY.s 			page 13


 685              		.thumb
 686              		.thumb_func
 687              		.fpu fpv4-sp-d16
 688              		.type	AsebaGetVMDescription, %function
 689              	AsebaGetVMDescription:
 690              	.LFB270:
 691              		.loc 1 158 0
 692              		.cfi_startproc
 693              		@ args = 0, pretend = 0, frame = 8
 694              		@ frame_needed = 0, uses_anonymous_args = 0
 695              	.LVL39:
 696 0000 00B5     		push	{lr}
 697              		.cfi_def_cfa_offset 4
 698              		.cfi_offset 14, -4
 699 0002 074B     		ldr	r3, .L74
 700 0004 83B0     		sub	sp, sp, #12
 701              		.cfi_def_cfa_offset 16
 702              		.loc 1 158 0
 703 0006 1A68     		ldr	r2, [r3]
 704 0008 0192     		str	r2, [sp, #4]
 705              		.loc 1 161 0
 706 000a 019A     		ldr	r2, [sp, #4]
 707 000c 1B68     		ldr	r3, [r3]
 708 000e 9A42     		cmp	r2, r3
 709 0010 03D1     		bne	.L73
 710 0012 0448     		ldr	r0, .L74+4
 711              	.LVL40:
 712 0014 03B0     		add	sp, sp, #12
 713              		.cfi_remember_state
 714              		.cfi_def_cfa_offset 4
 715              		@ sp needed
 716 0016 5DF804FB 		ldr	pc, [sp], #4
 717              	.LVL41:
 718              	.L73:
 719              		.cfi_restore_state
 720 001a FFF7FEFF 		bl	__stack_chk_fail
 721              	.LVL42:
 722              	.L75:
 723 001e 00BF     		.align	2
 724              	.L74:
 725 0020 00000000 		.word	__stack_chk_guard
 726 0024 00000000 		.word	vmDescription
 727              		.cfi_endproc
 728              	.LFE270:
 729              		.size	AsebaGetVMDescription, .-AsebaGetVMDescription
 730              		.section	.text.AsebaGetLocalEventsDescriptions,"ax",%progbits
 731              		.align	1
 732              		.p2align 4,,15
 733              		.global	AsebaGetLocalEventsDescriptions
 734              		.syntax unified
 735              		.thumb
 736              		.thumb_func
 737              		.fpu fpv4-sp-d16
 738              		.type	AsebaGetLocalEventsDescriptions, %function
 739              	AsebaGetLocalEventsDescriptions:
 740              	.LFB271:
 741              		.loc 1 164 0
ARM GAS  C:\Users\Moi\AppData\Local\Temp\ccMqWRbY.s 			page 14


 742              		.cfi_startproc
 743              		@ args = 0, pretend = 0, frame = 8
 744              		@ frame_needed = 0, uses_anonymous_args = 0
 745              	.LVL43:
 746 0000 00B5     		push	{lr}
 747              		.cfi_def_cfa_offset 4
 748              		.cfi_offset 14, -4
 749 0002 074B     		ldr	r3, .L80
 750 0004 83B0     		sub	sp, sp, #12
 751              		.cfi_def_cfa_offset 16
 752              		.loc 1 164 0
 753 0006 1A68     		ldr	r2, [r3]
 754 0008 0192     		str	r2, [sp, #4]
 755              		.loc 1 167 0
 756 000a 019A     		ldr	r2, [sp, #4]
 757 000c 1B68     		ldr	r3, [r3]
 758 000e 9A42     		cmp	r2, r3
 759 0010 03D1     		bne	.L79
 760 0012 0448     		ldr	r0, .L80+4
 761              	.LVL44:
 762 0014 03B0     		add	sp, sp, #12
 763              		.cfi_remember_state
 764              		.cfi_def_cfa_offset 4
 765              		@ sp needed
 766 0016 5DF804FB 		ldr	pc, [sp], #4
 767              	.LVL45:
 768              	.L79:
 769              		.cfi_restore_state
 770 001a FFF7FEFF 		bl	__stack_chk_fail
 771              	.LVL46:
 772              	.L81:
 773 001e 00BF     		.align	2
 774              	.L80:
 775 0020 00000000 		.word	__stack_chk_guard
 776 0024 00000000 		.word	localEvents
 777              		.cfi_endproc
 778              	.LFE271:
 779              		.size	AsebaGetLocalEventsDescriptions, .-AsebaGetLocalEventsDescriptions
 780              		.section	.text.AsebaShouldDropPacket,"ax",%progbits
 781              		.align	1
 782              		.p2align 4,,15
 783              		.global	AsebaShouldDropPacket
 784              		.syntax unified
 785              		.thumb
 786              		.thumb_func
 787              		.fpu fpv4-sp-d16
 788              		.type	AsebaShouldDropPacket, %function
 789              	AsebaShouldDropPacket:
 790              	.LFB272:
 791              		.loc 1 171 0
 792              		.cfi_startproc
 793              		@ args = 0, pretend = 0, frame = 8
 794              		@ frame_needed = 0, uses_anonymous_args = 0
 795              	.LVL47:
 796 0000 70B5     		push	{r4, r5, r6, lr}
 797              		.cfi_def_cfa_offset 16
 798              		.cfi_offset 4, -16
ARM GAS  C:\Users\Moi\AppData\Local\Temp\ccMqWRbY.s 			page 15


 799              		.cfi_offset 5, -12
 800              		.cfi_offset 6, -8
 801              		.cfi_offset 14, -4
 802 0002 0E4C     		ldr	r4, .L89
 803 0004 82B0     		sub	sp, sp, #8
 804              		.cfi_def_cfa_offset 24
 805              		.loc 1 171 0
 806 0006 2368     		ldr	r3, [r4]
 807 0008 0193     		str	r3, [sp, #4]
 808 000a 0546     		mov	r5, r0
 809 000c 0E46     		mov	r6, r1
 810              		.loc 1 173 0
 811 000e FFF7FEFF 		bl	aseba_is_bridge
 812              	.LVL48:
 813              		.loc 1 178 0
 814 0012 019A     		ldr	r2, [sp, #4]
 815 0014 2368     		ldr	r3, [r4]
 816              		.loc 1 173 0
 817 0016 28B1     		cbz	r0, .L88
 818              		.loc 1 178 0
 819 0018 9A42     		cmp	r2, r3
 820 001a 4FF00000 		mov	r0, #0
 821 001e 0BD1     		bne	.L87
 822 0020 02B0     		add	sp, sp, #8
 823              		.cfi_remember_state
 824              		.cfi_def_cfa_offset 16
 825              		@ sp needed
 826 0022 70BD     		pop	{r4, r5, r6, pc}
 827              	.LVL49:
 828              	.L88:
 829              		.cfi_restore_state
 830              		.loc 1 177 0
 831 0024 9A42     		cmp	r2, r3
 832 0026 07D1     		bne	.L87
 833 0028 0548     		ldr	r0, .L89+4
 834 002a 3246     		mov	r2, r6
 835 002c 2946     		mov	r1, r5
 836              		.loc 1 178 0
 837 002e 02B0     		add	sp, sp, #8
 838              		.cfi_remember_state
 839              		.cfi_def_cfa_offset 16
 840              		@ sp needed
 841 0030 BDE87040 		pop	{r4, r5, r6, lr}
 842              		.cfi_restore 14
 843              		.cfi_restore 6
 844              		.cfi_restore 5
 845              		.cfi_restore 4
 846              		.cfi_def_cfa_offset 0
 847              	.LVL50:
 848              		.loc 1 177 0
 849 0034 FFF7FEBF 		b	AsebaVMShouldDropPacket
 850              	.LVL51:
 851              	.L87:
 852              		.cfi_restore_state
 853              		.loc 1 178 0
 854 0038 FFF7FEFF 		bl	__stack_chk_fail
 855              	.LVL52:
ARM GAS  C:\Users\Moi\AppData\Local\Temp\ccMqWRbY.s 			page 16


 856              	.L90:
 857              		.align	2
 858              	.L89:
 859 003c 00000000 		.word	__stack_chk_guard
 860 0040 00000000 		.word	.LANCHOR0
 861              		.cfi_endproc
 862              	.LFE272:
 863              		.size	AsebaShouldDropPacket, .-AsebaShouldDropPacket
 864              		.section	.text.AsebaWriteBytecode,"ax",%progbits
 865              		.align	1
 866              		.p2align 4,,15
 867              		.global	AsebaWriteBytecode
 868              		.syntax unified
 869              		.thumb
 870              		.thumb_func
 871              		.fpu fpv4-sp-d16
 872              		.type	AsebaWriteBytecode, %function
 873              	AsebaWriteBytecode:
 874              	.LFB273:
 875              		.loc 1 181 0
 876              		.cfi_startproc
 877              		@ args = 0, pretend = 0, frame = 8
 878              		@ frame_needed = 0, uses_anonymous_args = 0
 879              	.LVL53:
 880 0000 30B5     		push	{r4, r5, lr}
 881              		.cfi_def_cfa_offset 12
 882              		.cfi_offset 4, -12
 883              		.cfi_offset 5, -8
 884              		.cfi_offset 14, -4
 885 0002 0F4D     		ldr	r5, .L96
 886 0004 83B0     		sub	sp, sp, #12
 887              		.cfi_def_cfa_offset 24
 888              		.loc 1 181 0
 889 0006 2B68     		ldr	r3, [r5]
 890 0008 0193     		str	r3, [sp, #4]
 891 000a 0446     		mov	r4, r0
 892              		.loc 1 184 0
 893 000c FFF7FEFF 		bl	flash_unlock
 894              	.LVL54:
 895              		.loc 1 185 0
 896 0010 0C48     		ldr	r0, .L96+4
 897 0012 FFF7FEFF 		bl	flash_sector_erase
 898              	.LVL55:
 899              		.loc 1 186 0
 900 0016 A11C     		adds	r1, r4, #2
 901 0018 0222     		movs	r2, #2
 902 001a 0A48     		ldr	r0, .L96+4
 903 001c FFF7FEFF 		bl	flash_write
 904              	.LVL56:
 905              		.loc 1 187 0
 906 0020 6288     		ldrh	r2, [r4, #2]
 907 0022 6168     		ldr	r1, [r4, #4]
 908 0024 0848     		ldr	r0, .L96+8
 909 0026 FFF7FEFF 		bl	flash_write
 910              	.LVL57:
 911              		.loc 1 188 0
 912 002a 019A     		ldr	r2, [sp, #4]
ARM GAS  C:\Users\Moi\AppData\Local\Temp\ccMqWRbY.s 			page 17


 913 002c 2B68     		ldr	r3, [r5]
 914 002e 9A42     		cmp	r2, r3
 915 0030 04D1     		bne	.L95
 916              		.loc 1 189 0
 917 0032 03B0     		add	sp, sp, #12
 918              		.cfi_remember_state
 919              		.cfi_def_cfa_offset 12
 920              		@ sp needed
 921 0034 BDE83040 		pop	{r4, r5, lr}
 922              		.cfi_restore 14
 923              		.cfi_restore 5
 924              		.cfi_restore 4
 925              		.cfi_def_cfa_offset 0
 926              	.LVL58:
 927              		.loc 1 188 0
 928 0038 FFF7FEBF 		b	flash_lock
 929              	.LVL59:
 930              	.L95:
 931              		.cfi_restore_state
 932 003c FFF7FEFF 		bl	__stack_chk_fail
 933              	.LVL60:
 934              	.L97:
 935              		.align	2
 936              	.L96:
 937 0040 00000000 		.word	__stack_chk_guard
 938 0044 00000000 		.word	_aseba_bytecode_start
 939 0048 02000000 		.word	_aseba_bytecode_start+2
 940              		.cfi_endproc
 941              	.LFE273:
 942              		.size	AsebaWriteBytecode, .-AsebaWriteBytecode
 943              		.global	vmState
 944              		.global	events_flags
 945              		.section	.bss.aseba_vm_thd_wa.12171,"aw",%nobits
 946              		.align	3
 947              		.set	.LANCHOR3,. + 0
 948              		.type	aseba_vm_thd_wa.12171, %object
 949              		.size	aseba_vm_thd_wa.12171, 1400
 950              	aseba_vm_thd_wa.12171:
 951 0000 00000000 		.space	1400
 951      00000000 
 951      00000000 
 951      00000000 
 951      00000000 
 952              		.section	.bss.events_flags,"aw",%nobits
 953              		.align	2
 954              		.set	.LANCHOR1,. + 0
 955              		.type	events_flags, %object
 956              		.size	events_flags, 4
 957              	events_flags:
 958 0000 00000000 		.space	4
 959              		.section	.bss.nodeId_param,"aw",%nobits
 960              		.align	2
 961              		.set	.LANCHOR2,. + 0
 962              		.type	nodeId_param, %object
 963              		.size	nodeId_param, 24
 964              	nodeId_param:
 965 0000 00000000 		.space	24
ARM GAS  C:\Users\Moi\AppData\Local\Temp\ccMqWRbY.s 			page 18


 965      00000000 
 965      00000000 
 965      00000000 
 965      00000000 
 966              		.section	.bss.vmBytecode,"aw",%nobits
 967              		.align	2
 968              		.type	vmBytecode, %object
 969              		.size	vmBytecode, 3068
 970              	vmBytecode:
 971 0000 00000000 		.space	3068
 971      00000000 
 971      00000000 
 971      00000000 
 971      00000000 
 972              		.section	.bss.vmStack,"aw",%nobits
 973              		.align	2
 974              		.type	vmStack, %object
 975              		.size	vmStack, 256
 976              	vmStack:
 977 0000 00000000 		.space	256
 977      00000000 
 977      00000000 
 977      00000000 
 977      00000000 
 978              		.section	.data.vmState,"aw",%progbits
 979              		.align	2
 980              		.set	.LANCHOR0,. + 0
 981              		.type	vmState, %object
 982              		.size	vmState, 64
 983              	vmState:
 984 0000 0000     		.short	0
 985 0002 FE05     		.short	1534
 986 0004 00000000 		.word	vmBytecode
 987 0008 3B01     		.short	315
 988 000a 0000     		.space	2
 989 000c 00000000 		.word	vmVariables
 990 0010 8000     		.short	128
 991 0012 0000     		.space	2
 992 0014 00000000 		.word	vmStack
 993 0018 0000     		.short	0
 994 001a 0000     		.short	0
 995 001c 0000     		.short	0
 996 001e 0000     		.short	0
 997 0020 00000000 		.space	30
 997      00000000 
 997      00000000 
 997      00000000 
 997      00000000 
 998 003e 0000     		.short	0
 999              		.section	.rodata.AsebaNativeFunction.str1.4,"aMS",%progbits,1
 1000              		.align	2
 1001              	.LC2:
 1002 0000 496E7661 		.ascii	"Invalid native function.\000"
 1002      6C696420 
 1002      6E617469 
 1002      76652066 
 1002      756E6374 
ARM GAS  C:\Users\Moi\AppData\Local\Temp\ccMqWRbY.s 			page 19


 1003              		.section	.rodata.aseba_declare_parameters.str1.4,"aMS",%progbits,1
 1004              		.align	2
 1005              	.LC1:
 1006 0000 696400   		.ascii	"id\000"
 1007              		.section	.rodata.aseba_vm_thd.str1.4,"aMS",%progbits,1
 1008              		.align	2
 1009              	.LC0:
 1010 0000 61736562 		.ascii	"aseba\000"
 1010      6100
 1011              		.text
 1012              	.Letext0:
 1013              		.file 5 "c:\\users\\moi\\documents\\_microinfo\\epuck-eclipse\\tools\\gcc-arm-none-eabi-7-2017-q4-
 1014              		.file 6 "c:\\users\\moi\\documents\\_microinfo\\epuck-eclipse\\tools\\gcc-arm-none-eabi-7-2017-q4-
 1015              		.file 7 "c:\\users\\moi\\documents\\_microinfo\\epuck-eclipse\\tools\\gcc-arm-none-eabi-7-2017-q4-
 1016              		.file 8 ".//ChibiOS//os/rt/ports/ARMCMx/compilers/GCC/chtypes.h"
 1017              		.file 9 ".//ChibiOS//os/rt/include/chsystypes.h"
 1018              		.file 10 ".//ChibiOS//os/rt/include/chschd.h"
 1019              		.file 11 ".//ChibiOS//os/ext/CMSIS/ST/system_stm32f4xx.h"
 1020              		.file 12 ".//ChibiOS//os/ext/CMSIS/ST/stm32f407xx.h"
 1021              		.file 13 ".//ChibiOS//os/rt/ports/ARMCMx/chcore.h"
 1022              		.file 14 ".//ChibiOS//os/rt/ports/ARMCMx/chcore_v7m.h"
 1023              		.file 15 ".//ChibiOS//os/rt/include/chdebug.h"
 1024              		.file 16 ".//ChibiOS//os/rt/include/chtm.h"
 1025              		.file 17 ".//ChibiOS//os/rt/include/chstats.h"
 1026              		.file 18 ".//ChibiOS//os/rt/include/chsem.h"
 1027              		.file 19 ".//ChibiOS//os/rt/include/chmtx.h"
 1028              		.file 20 ".//ChibiOS//os/rt/include/chevents.h"
 1029              		.file 21 ".//ChibiOS//os/rt/include/chqueues.h"
 1030              		.file 22 ".//ChibiOS//os/hal/ports/STM32/STM32F4xx/stm32_dma.h"
 1031              		.file 23 ".//ChibiOS//os/hal/include/hal_ioblock.h"
 1032              		.file 24 ".//ChibiOS//os/hal/ports/STM32/LLD/GPIOv2/pal_lld.h"
 1033              		.file 25 ".//ChibiOS//os/hal/include/adc.h"
 1034              		.file 26 ".//ChibiOS//os/hal/ports/STM32/STM32F4xx/adc_lld.h"
 1035              		.file 27 ".//ChibiOS//os/hal/include/can.h"
 1036              		.file 28 ".//ChibiOS//os/hal/ports/STM32/LLD/can_lld.h"
 1037              		.file 29 ".//ChibiOS//os/hal/include/dac.h"
 1038              		.file 30 ".//ChibiOS//os/hal/ports/STM32/LLD/DACv1/dac_lld.h"
 1039              		.file 31 ".//ChibiOS//os/hal/include/ext.h"
 1040              		.file 32 ".//ChibiOS//os/hal/ports/STM32/LLD/ext_lld.h"
 1041              		.file 33 ".//ChibiOS//os/hal/include/gpt.h"
 1042              		.file 34 ".//ChibiOS//os/hal/ports/STM32/LLD/TIMv1/gpt_lld.h"
 1043              		.file 35 ".//ChibiOS//os/hal/ports/STM32/LLD/TIMv1/stm32_tim.h"
 1044              		.file 36 ".//ChibiOS//os/hal/include/i2c.h"
 1045              		.file 37 ".//ChibiOS//os/hal/ports/STM32/LLD/I2Cv1/i2c_lld.h"
 1046              		.file 38 ".//ChibiOS//os/hal/include/i2s.h"
 1047              		.file 39 ".//ChibiOS//os/hal/ports/STM32/LLD/SPIv1/i2s_lld.h"
 1048              		.file 40 ".//ChibiOS//os/hal/include/pwm.h"
 1049              		.file 41 ".//ChibiOS//os/hal/ports/STM32/LLD/TIMv1/pwm_lld.h"
 1050              		.file 42 ".//ChibiOS//os/hal/include/serial.h"
 1051              		.file 43 ".//ChibiOS//os/hal/ports/STM32/LLD/USARTv1/serial_lld.h"
 1052              		.file 44 ".//ChibiOS//os/hal/include/sdc.h"
 1053              		.file 45 ".//ChibiOS//os/hal/ports/STM32/LLD/sdc_lld.h"
 1054              		.file 46 ".//ChibiOS//os/hal/include/spi.h"
 1055              		.file 47 ".//ChibiOS//os/hal/ports/STM32/LLD/SPIv1/spi_lld.h"
 1056              		.file 48 ".//ChibiOS//os/hal/include/usb.h"
 1057              		.file 49 ".//ChibiOS//os/hal/ports/STM32/LLD/OTGv1/usb_lld.h"
 1058              		.file 50 ".//ChibiOS//os/hal/ports/STM32/LLD/OTGv1/stm32_otg.h"
ARM GAS  C:\Users\Moi\AppData\Local\Temp\ccMqWRbY.s 			page 20


 1059              		.file 51 ".//ChibiOS//os/hal/include/serial_usb.h"
 1060              		.file 52 ".//src/usbcfg.h"
 1061              		.file 53 "c:\\users\\moi\\documents\\_microinfo\\epuck-eclipse\\tools\\gcc-arm-none-eabi-7-2017-q4
 1062              		.file 54 "c:\\users\\moi\\documents\\_microinfo\\epuck-eclipse\\tools\\gcc-arm-none-eabi-7-2017-q4
 1063              		.file 55 "c:\\users\\moi\\documents\\_microinfo\\epuck-eclipse\\tools\\gcc-arm-none-eabi-7-2017-q4
 1064              		.file 56 "c:\\users\\moi\\documents\\_microinfo\\epuck-eclipse\\tools\\gcc-arm-none-eabi-7-2017-q4
 1065              		.file 57 ".//aseba/common/types.h"
 1066              		.file 58 ".//aseba/common/consts.h"
 1067              		.file 59 ".//aseba/transport/buffer/../../vm/vm.h"
 1068              		.file 60 ".//aseba/transport/buffer/../../vm/natives.h"
 1069              		.file 61 ".//src/parameter/parameter.h"
 1070              		.file 62 ".//src/sensors/mpu9250.h"
 1071              		.file 63 ".//src/leds.h"
 1072              		.file 64 ".//src/aseba_vm/skel_user.h"
 1073              		.file 65 ".//src/aseba_vm/aseba_node.h"
 1074              		.file 66 ".//src/flash/flash.h"
 1075              		.file 67 ".//src/aseba_vm/aseba_bridge.h"
 1076              		.file 68 ".//ChibiOS//os/rt/include/chthreads.h"
 1077              		.file 69 ".//aseba/transport/buffer/vm-buffer.h"
 1078              		.file 70 "<built-in>"
