ARM GAS  C:\Users\Moi\AppData\Local\Temp\ccmZvf6L.s 			page 1


   1              		.cpu cortex-m4
   2              		.eabi_attribute 27, 1
   3              		.eabi_attribute 28, 1
   4              		.eabi_attribute 20, 1
   5              		.eabi_attribute 21, 1
   6              		.eabi_attribute 23, 3
   7              		.eabi_attribute 24, 1
   8              		.eabi_attribute 25, 1
   9              		.eabi_attribute 26, 1
  10              		.eabi_attribute 30, 2
  11              		.eabi_attribute 34, 1
  12              		.eabi_attribute 18, 4
  13              		.file	"can.c"
  14              		.text
  15              	.Ltext0:
  16              		.cfi_sections	.debug_frame
  17              		.section	.text.canInit,"ax",%progbits
  18              		.align	1
  19              		.p2align 4,,15
  20              		.global	canInit
  21              		.syntax unified
  22              		.thumb
  23              		.thumb_func
  24              		.fpu fpv4-sp-d16
  25              		.type	canInit, %function
  26              	canInit:
  27              	.LFB256:
  28              		.file 1 ".//ChibiOS//os/hal/src/can.c"
  29              		.loc 1 56 0
  30              		.cfi_startproc
  31              		@ args = 0, pretend = 0, frame = 8
  32              		@ frame_needed = 0, uses_anonymous_args = 0
  33 0000 00B5     		push	{lr}
  34              		.cfi_def_cfa_offset 4
  35              		.cfi_offset 14, -4
  36 0002 074B     		ldr	r3, .L7
  37 0004 83B0     		sub	sp, sp, #12
  38              		.cfi_def_cfa_offset 16
  39              		.loc 1 56 0
  40 0006 1A68     		ldr	r2, [r3]
  41 0008 0192     		str	r2, [sp, #4]
  42              		.loc 1 58 0
  43 000a 019A     		ldr	r2, [sp, #4]
  44 000c 1B68     		ldr	r3, [r3]
  45 000e 9A42     		cmp	r2, r3
  46 0010 04D1     		bne	.L6
  47              		.loc 1 59 0
  48 0012 03B0     		add	sp, sp, #12
  49              		.cfi_remember_state
  50              		.cfi_def_cfa_offset 4
  51              		@ sp needed
  52 0014 5DF804EB 		ldr	lr, [sp], #4
  53              		.cfi_restore 14
  54              		.cfi_def_cfa_offset 0
  55              		.loc 1 58 0
  56 0018 FFF7FEBF 		b	can_lld_init
  57              	.LVL0:
ARM GAS  C:\Users\Moi\AppData\Local\Temp\ccmZvf6L.s 			page 2


  58              	.L6:
  59              		.cfi_restore_state
  60 001c FFF7FEFF 		bl	__stack_chk_fail
  61              	.LVL1:
  62              	.L8:
  63              		.align	2
  64              	.L7:
  65 0020 00000000 		.word	__stack_chk_guard
  66              		.cfi_endproc
  67              	.LFE256:
  68              		.size	canInit, .-canInit
  69              		.section	.text.canObjectInit,"ax",%progbits
  70              		.align	1
  71              		.p2align 4,,15
  72              		.global	canObjectInit
  73              		.syntax unified
  74              		.thumb
  75              		.thumb_func
  76              		.fpu fpv4-sp-d16
  77              		.type	canObjectInit, %function
  78              	canObjectInit:
  79              	.LFB257:
  80              		.loc 1 68 0
  81              		.cfi_startproc
  82              		@ args = 0, pretend = 0, frame = 8
  83              		@ frame_needed = 0, uses_anonymous_args = 0
  84              	.LVL2:
  85 0000 30B5     		push	{r4, r5, lr}
  86              		.cfi_def_cfa_offset 12
  87              		.cfi_offset 4, -12
  88              		.cfi_offset 5, -8
  89              		.cfi_offset 14, -4
  90 0002 134B     		ldr	r3, .L13
  91 0004 83B0     		sub	sp, sp, #12
  92              		.cfi_def_cfa_offset 24
  93              		.loc 1 68 0
  94 0006 1A68     		ldr	r2, [r3]
  95 0008 0192     		str	r2, [sp, #4]
  96              		.loc 1 70 0
  97 000a 0122     		movs	r2, #1
  98 000c 0270     		strb	r2, [r0]
  99              		.loc 1 81 0
 100 000e 019C     		ldr	r4, [sp, #4]
 101 0010 1968     		ldr	r1, [r3]
 102              		.loc 1 71 0
 103 0012 0022     		movs	r2, #0
 104              		.loc 1 74 0
 105 0014 00F11803 		add	r3, r0, #24
 106              		.loc 1 75 0
 107 0018 00F11C05 		add	r5, r0, #28
 108              		.loc 1 71 0
 109 001c 4260     		str	r2, [r0, #4]
 110              	.LBB135:
 111              	.LBB136:
 112              	.LBB137:
 113              		.file 2 ".//ChibiOS//os/rt/include/chevents.h"
 114              		.loc 2 172 0
ARM GAS  C:\Users\Moi\AppData\Local\Temp\ccmZvf6L.s 			page 3


 115 001e 8361     		str	r3, [r0, #24]
 116              	.LBE137:
 117              	.LBE136:
 118              	.LBE135:
 119              		.loc 1 76 0
 120 0020 00F12002 		add	r2, r0, #32
 121              		.loc 1 78 0
 122 0024 00F12403 		add	r3, r0, #36
 123              	.LBB138:
 124              	.LBB139:
 125              	.LBB140:
 126              		.loc 2 172 0
 127 0028 C561     		str	r5, [r0, #28]
 128              	.LBE140:
 129              	.LBE139:
 130              	.LBE138:
 131              	.LBB141:
 132              	.LBB142:
 133              	.LBB143:
 134 002a 0262     		str	r2, [r0, #32]
 135              	.LBE143:
 136              	.LBE142:
 137              	.LBE141:
 138              		.loc 1 79 0
 139 002c 00F12805 		add	r5, r0, #40
 140              		.loc 1 72 0
 141 0030 00F10802 		add	r2, r0, #8
 142              	.LVL3:
 143              	.LBB144:
 144              	.LBB145:
 145              	.LBB146:
 146              		.loc 2 172 0
 147 0034 4362     		str	r3, [r0, #36]
 148              	.LBE146:
 149              	.LBE145:
 150              	.LBE144:
 151              		.loc 1 81 0
 152 0036 8C42     		cmp	r4, r1
 153              		.loc 1 73 0
 154 0038 00F11003 		add	r3, r0, #16
 155              	.LBB147:
 156              	.LBB148:
 157              	.LBB149:
 158              		.loc 2 172 0
 159 003c 8562     		str	r5, [r0, #40]
 160              	.LBE149:
 161              	.LBE148:
 162              	.LBE147:
 163              	.LBB150:
 164              	.LBB151:
 165              	.LBB152:
 166              	.LBB153:
 167              		.file 3 ".//ChibiOS//os/rt/include/chschd.h"
 168              		.loc 3 605 0
 169 003e C0E90222 		strd	r2, r2, [r0, #8]
 170              	.LVL4:
 171              	.LBE153:
ARM GAS  C:\Users\Moi\AppData\Local\Temp\ccmZvf6L.s 			page 4


 172              	.LBE152:
 173              	.LBE151:
 174              	.LBE150:
 175              	.LBB154:
 176              	.LBB155:
 177              	.LBB156:
 178              	.LBB157:
 179 0042 C0E90433 		strd	r3, r3, [r0, #16]
 180              	.LVL5:
 181              	.LBE157:
 182              	.LBE156:
 183              	.LBE155:
 184              	.LBE154:
 185              		.loc 1 81 0
 186 0046 01D1     		bne	.L12
 187 0048 03B0     		add	sp, sp, #12
 188              		.cfi_remember_state
 189              		.cfi_def_cfa_offset 12
 190              		@ sp needed
 191 004a 30BD     		pop	{r4, r5, pc}
 192              	.L12:
 193              		.cfi_restore_state
 194 004c FFF7FEFF 		bl	__stack_chk_fail
 195              	.LVL6:
 196              	.L14:
 197              		.align	2
 198              	.L13:
 199 0050 00000000 		.word	__stack_chk_guard
 200              		.cfi_endproc
 201              	.LFE257:
 202              		.size	canObjectInit, .-canObjectInit
 203              		.section	.text.canStart,"ax",%progbits
 204              		.align	1
 205              		.p2align 4,,15
 206              		.global	canStart
 207              		.syntax unified
 208              		.thumb
 209              		.thumb_func
 210              		.fpu fpv4-sp-d16
 211              		.type	canStart, %function
 212              	canStart:
 213              	.LFB258:
 214              		.loc 1 95 0
 215              		.cfi_startproc
 216              		@ args = 0, pretend = 0, frame = 8
 217              		@ frame_needed = 0, uses_anonymous_args = 0
 218              	.LVL7:
 219 0000 70B5     		push	{r4, r5, r6, lr}
 220              		.cfi_def_cfa_offset 16
 221              		.cfi_offset 4, -16
 222              		.cfi_offset 5, -12
 223              		.cfi_offset 6, -8
 224              		.cfi_offset 14, -4
 225 0002 1E4D     		ldr	r5, .L27
 226 0004 82B0     		sub	sp, sp, #8
 227              		.cfi_def_cfa_offset 24
 228              		.loc 1 95 0
ARM GAS  C:\Users\Moi\AppData\Local\Temp\ccmZvf6L.s 			page 5


 229 0006 2B68     		ldr	r3, [r5]
 230 0008 0193     		str	r3, [sp, #4]
 231 000a 0E46     		mov	r6, r1
 232              		.loc 1 97 0
 233 000c 0446     		mov	r4, r0
 234 000e 70B3     		cbz	r0, .L24
 235              	.LVL8:
 236              	.L16:
 237              	.LBB171:
 238              	.LBB172:
 239              	.LBB173:
 240              	.LBB174:
 241              	.LBB175:
 242              	.LBB176:
 243              		.file 4 ".//ChibiOS//os/ext/CMSIS/include/core_cmFunc.h"
 244              		.loc 4 546 0
 245 0010 2023     		movs	r3, #32
 246              		.syntax unified
 247              	@ 546 ".//ChibiOS//os/ext/CMSIS/include/core_cmFunc.h" 1
 248 0012 83F31188 		MSR basepri, r3
 249              	@ 0 "" 2
 250              	.LVL9:
 251              		.thumb
 252              		.syntax unified
 253              	.LBE176:
 254              	.LBE175:
 255              	.LBE174:
 256              		.file 5 ".//ChibiOS//os/rt/include/chsys.h"
 257              		.loc 5 349 0
 258 0016 FFF7FEFF 		bl	_stats_start_measure_crit_thd
 259              	.LVL10:
 260              		.loc 5 350 0
 261 001a FFF7FEFF 		bl	_dbg_check_lock
 262              	.LVL11:
 263              	.LBE173:
 264              	.LBE172:
 265              	.LBE171:
 266              		.loc 1 100 0
 267 001e 2378     		ldrb	r3, [r4]	@ zero_extendqisi2
 268 0020 012B     		cmp	r3, #1
 269 0022 02D0     		beq	.L17
 270              		.loc 1 100 0 is_stmt 0 discriminator 2
 271 0024 1648     		ldr	r0, .L27+4
 272 0026 FFF7FEFF 		bl	chSysHalt
 273              	.LVL12:
 274              	.L17:
 275              		.loc 1 103 0 is_stmt 1
 276 002a 0223     		movs	r3, #2
 277              		.loc 1 108 0
 278 002c 2046     		mov	r0, r4
 279              		.loc 1 103 0
 280 002e 2370     		strb	r3, [r4]
 281              		.loc 1 104 0
 282 0030 6660     		str	r6, [r4, #4]
 283              		.loc 1 108 0
 284 0032 FFF7FEFF 		bl	can_lld_start
 285              	.LVL13:
ARM GAS  C:\Users\Moi\AppData\Local\Temp\ccmZvf6L.s 			page 6


 286              		.loc 1 111 0
 287 0036 0323     		movs	r3, #3
 288 0038 2370     		strb	r3, [r4]
 289              	.LBB177:
 290              	.LBB178:
 291              	.LBB179:
 292              		.loc 5 360 0
 293 003a FFF7FEFF 		bl	_dbg_check_unlock
 294              	.LVL14:
 295              		.loc 5 361 0
 296 003e FFF7FEFF 		bl	_stats_stop_measure_crit_thd
 297              	.LVL15:
 298              		.loc 5 367 0
 299 0042 104B     		ldr	r3, .L27+8
 300 0044 1A68     		ldr	r2, [r3]
 301 0046 9A42     		cmp	r2, r3
 302 0048 04D0     		beq	.L18
 303 004a 9969     		ldr	r1, [r3, #24]
 304 004c 9368     		ldr	r3, [r2, #8]
 305 004e 8A68     		ldr	r2, [r1, #8]
 306 0050 9A42     		cmp	r2, r3
 307 0052 08D3     		bcc	.L25
 308              	.L18:
 309              	.LVL16:
 310              	.LBB180:
 311              	.LBB181:
 312              	.LBB182:
 313              		.loc 4 546 0
 314 0054 0023     		movs	r3, #0
 315              		.syntax unified
 316              	@ 546 ".//ChibiOS//os/ext/CMSIS/include/core_cmFunc.h" 1
 317 0056 83F31188 		MSR basepri, r3
 318              	@ 0 "" 2
 319              	.LVL17:
 320              		.thumb
 321              		.syntax unified
 322              	.LBE182:
 323              	.LBE181:
 324              	.LBE180:
 325              	.LBE179:
 326              	.LBE178:
 327              	.LBE177:
 328              		.loc 1 113 0
 329 005a 019A     		ldr	r2, [sp, #4]
 330 005c 2B68     		ldr	r3, [r5]
 331 005e 9A42     		cmp	r2, r3
 332 0060 09D1     		bne	.L26
 333 0062 02B0     		add	sp, sp, #8
 334              		.cfi_remember_state
 335              		.cfi_def_cfa_offset 16
 336              		@ sp needed
 337 0064 70BD     		pop	{r4, r5, r6, pc}
 338              	.LVL18:
 339              	.L25:
 340              		.cfi_restore_state
 341              	.LBB185:
 342              	.LBB184:
ARM GAS  C:\Users\Moi\AppData\Local\Temp\ccmZvf6L.s 			page 7


 343              	.LBB183:
 344              		.loc 5 367 0
 345 0066 0848     		ldr	r0, .L27+12
 346 0068 FFF7FEFF 		bl	chSysHalt
 347              	.LVL19:
 348 006c F2E7     		b	.L18
 349              	.LVL20:
 350              	.L24:
 351              	.LBE183:
 352              	.LBE184:
 353              	.LBE185:
 354              		.loc 1 97 0 discriminator 2
 355 006e 0448     		ldr	r0, .L27+4
 356              	.LVL21:
 357 0070 FFF7FEFF 		bl	chSysHalt
 358              	.LVL22:
 359 0074 CCE7     		b	.L16
 360              	.L26:
 361              		.loc 1 113 0
 362 0076 FFF7FEFF 		bl	__stack_chk_fail
 363              	.LVL23:
 364              	.L28:
 365 007a 00BF     		.align	2
 366              	.L27:
 367 007c 00000000 		.word	__stack_chk_guard
 368 0080 00000000 		.word	.LANCHOR0
 369 0084 00000000 		.word	ch
 370 0088 00000000 		.word	.LANCHOR1
 371              		.cfi_endproc
 372              	.LFE258:
 373              		.size	canStart, .-canStart
 374              		.section	.text.canStop,"ax",%progbits
 375              		.align	1
 376              		.p2align 4,,15
 377              		.global	canStop
 378              		.syntax unified
 379              		.thumb
 380              		.thumb_func
 381              		.fpu fpv4-sp-d16
 382              		.type	canStop, %function
 383              	canStop:
 384              	.LFB259:
 385              		.loc 1 122 0
 386              		.cfi_startproc
 387              		@ args = 0, pretend = 0, frame = 8
 388              		@ frame_needed = 0, uses_anonymous_args = 0
 389              	.LVL24:
 390 0000 30B5     		push	{r4, r5, lr}
 391              		.cfi_def_cfa_offset 12
 392              		.cfi_offset 4, -12
 393              		.cfi_offset 5, -8
 394              		.cfi_offset 14, -4
 395 0002 244D     		ldr	r5, .L41
 396 0004 83B0     		sub	sp, sp, #12
 397              		.cfi_def_cfa_offset 24
 398              		.loc 1 122 0
 399 0006 2B68     		ldr	r3, [r5]
ARM GAS  C:\Users\Moi\AppData\Local\Temp\ccmZvf6L.s 			page 8


 400 0008 0193     		str	r3, [sp, #4]
 401              		.loc 1 124 0
 402 000a 0446     		mov	r4, r0
 403 000c 0028     		cmp	r0, #0
 404 000e 3BD0     		beq	.L38
 405              	.LVL25:
 406              	.L30:
 407              	.LBB205:
 408              	.LBB206:
 409              	.LBB207:
 410              	.LBB208:
 411              	.LBB209:
 412              	.LBB210:
 413              		.loc 4 546 0
 414 0010 2023     		movs	r3, #32
 415              		.syntax unified
 416              	@ 546 ".//ChibiOS//os/ext/CMSIS/include/core_cmFunc.h" 1
 417 0012 83F31188 		MSR basepri, r3
 418              	@ 0 "" 2
 419              	.LVL26:
 420              		.thumb
 421              		.syntax unified
 422              	.LBE210:
 423              	.LBE209:
 424              	.LBE208:
 425              		.loc 5 349 0
 426 0016 FFF7FEFF 		bl	_stats_start_measure_crit_thd
 427              	.LVL27:
 428              		.loc 5 350 0
 429 001a FFF7FEFF 		bl	_dbg_check_lock
 430              	.LVL28:
 431              	.LBE207:
 432              	.LBE206:
 433              	.LBE205:
 434              		.loc 1 127 0
 435 001e 2378     		ldrb	r3, [r4]	@ zero_extendqisi2
 436 0020 03F0FD03 		and	r3, r3, #253
 437 0024 012B     		cmp	r3, #1
 438 0026 02D0     		beq	.L31
 439              		.loc 1 127 0 is_stmt 0 discriminator 3
 440 0028 1B48     		ldr	r0, .L41+4
 441 002a FFF7FEFF 		bl	chSysHalt
 442              	.LVL29:
 443              	.L31:
 444              		.loc 1 131 0 is_stmt 1
 445 002e 2046     		mov	r0, r4
 446 0030 FFF7FEFF 		bl	can_lld_stop
 447              	.LVL30:
 448              		.loc 1 132 0
 449 0034 2046     		mov	r0, r4
 450 0036 0123     		movs	r3, #1
 451 0038 00F8103B 		strb	r3, [r0], #16
 452              	.LVL31:
 453              	.LBB211:
 454              	.LBB212:
 455              		.file 6 ".//ChibiOS//os/hal/osal/rt/osal.h"
 456              		.loc 6 764 0
ARM GAS  C:\Users\Moi\AppData\Local\Temp\ccmZvf6L.s 			page 9


 457 003c 6FF00101 		mvn	r1, #1
 458 0040 FFF7FEFF 		bl	chThdDequeueAllI
 459              	.LVL32:
 460              	.LBE212:
 461              	.LBE211:
 462              	.LBB213:
 463              	.LBB214:
 464 0044 04F10800 		add	r0, r4, #8
 465              	.LVL33:
 466 0048 6FF00101 		mvn	r1, #1
 467 004c FFF7FEFF 		bl	chThdDequeueAllI
 468              	.LVL34:
 469              	.LBE214:
 470              	.LBE213:
 471              	.LBB215:
 472              	.LBB216:
 473              		.loc 6 554 0
 474 0050 FFF7FEFF 		bl	chSchRescheduleS
 475              	.LVL35:
 476              	.LBE216:
 477              	.LBE215:
 478              	.LBB217:
 479              	.LBB218:
 480              	.LBB219:
 481              		.loc 5 360 0
 482 0054 FFF7FEFF 		bl	_dbg_check_unlock
 483              	.LVL36:
 484              		.loc 5 361 0
 485 0058 FFF7FEFF 		bl	_stats_stop_measure_crit_thd
 486              	.LVL37:
 487              		.loc 5 367 0
 488 005c 0F4B     		ldr	r3, .L41+8
 489 005e 1A68     		ldr	r2, [r3]
 490 0060 9A42     		cmp	r2, r3
 491 0062 04D0     		beq	.L32
 492 0064 9969     		ldr	r1, [r3, #24]
 493 0066 9368     		ldr	r3, [r2, #8]
 494 0068 8A68     		ldr	r2, [r1, #8]
 495 006a 9A42     		cmp	r2, r3
 496 006c 08D3     		bcc	.L39
 497              	.L32:
 498              	.LVL38:
 499              	.LBB220:
 500              	.LBB221:
 501              	.LBB222:
 502              		.loc 4 546 0
 503 006e 0023     		movs	r3, #0
 504              		.syntax unified
 505              	@ 546 ".//ChibiOS//os/ext/CMSIS/include/core_cmFunc.h" 1
 506 0070 83F31188 		MSR basepri, r3
 507              	@ 0 "" 2
 508              	.LVL39:
 509              		.thumb
 510              		.syntax unified
 511              	.LBE222:
 512              	.LBE221:
 513              	.LBE220:
ARM GAS  C:\Users\Moi\AppData\Local\Temp\ccmZvf6L.s 			page 10


 514              	.LBE219:
 515              	.LBE218:
 516              	.LBE217:
 517              		.loc 1 140 0
 518 0074 019A     		ldr	r2, [sp, #4]
 519 0076 2B68     		ldr	r3, [r5]
 520 0078 9A42     		cmp	r2, r3
 521 007a 09D1     		bne	.L40
 522 007c 03B0     		add	sp, sp, #12
 523              		.cfi_remember_state
 524              		.cfi_def_cfa_offset 12
 525              		@ sp needed
 526 007e 30BD     		pop	{r4, r5, pc}
 527              	.LVL40:
 528              	.L39:
 529              		.cfi_restore_state
 530              	.LBB225:
 531              	.LBB224:
 532              	.LBB223:
 533              		.loc 5 367 0
 534 0080 0748     		ldr	r0, .L41+12
 535 0082 FFF7FEFF 		bl	chSysHalt
 536              	.LVL41:
 537 0086 F2E7     		b	.L32
 538              	.LVL42:
 539              	.L38:
 540              	.LBE223:
 541              	.LBE224:
 542              	.LBE225:
 543              		.loc 1 124 0 discriminator 2
 544 0088 0348     		ldr	r0, .L41+4
 545              	.LVL43:
 546 008a FFF7FEFF 		bl	chSysHalt
 547              	.LVL44:
 548 008e BFE7     		b	.L30
 549              	.L40:
 550              		.loc 1 140 0
 551 0090 FFF7FEFF 		bl	__stack_chk_fail
 552              	.LVL45:
 553              	.L42:
 554              		.align	2
 555              	.L41:
 556 0094 00000000 		.word	__stack_chk_guard
 557 0098 00000000 		.word	.LANCHOR2
 558 009c 00000000 		.word	ch
 559 00a0 00000000 		.word	.LANCHOR1
 560              		.cfi_endproc
 561              	.LFE259:
 562              		.size	canStop, .-canStop
 563              		.section	.text.canTransmit,"ax",%progbits
 564              		.align	1
 565              		.p2align 4,,15
 566              		.global	canTransmit
 567              		.syntax unified
 568              		.thumb
 569              		.thumb_func
 570              		.fpu fpv4-sp-d16
ARM GAS  C:\Users\Moi\AppData\Local\Temp\ccmZvf6L.s 			page 11


 571              		.type	canTransmit, %function
 572              	canTransmit:
 573              	.LFB260:
 574              		.loc 1 166 0
 575              		.cfi_startproc
 576              		@ args = 0, pretend = 0, frame = 8
 577              		@ frame_needed = 0, uses_anonymous_args = 0
 578              	.LVL46:
 579 0000 2DE9F047 		push	{r4, r5, r6, r7, r8, r9, r10, lr}
 580              		.cfi_def_cfa_offset 32
 581              		.cfi_offset 4, -32
 582              		.cfi_offset 5, -28
 583              		.cfi_offset 6, -24
 584              		.cfi_offset 7, -20
 585              		.cfi_offset 8, -16
 586              		.cfi_offset 9, -12
 587              		.cfi_offset 10, -8
 588              		.cfi_offset 14, -4
 589 0004 DFF8EC90 		ldr	r9, .L72+12
 590 0008 82B0     		sub	sp, sp, #8
 591              		.cfi_def_cfa_offset 40
 592              		.loc 1 166 0
 593 000a D9F80040 		ldr	r4, [r9]
 594 000e 0194     		str	r4, [sp, #4]
 595 0010 8846     		mov	r8, r1
 596 0012 9246     		mov	r10, r2
 597 0014 1F46     		mov	r7, r3
 598              		.loc 1 168 0
 599 0016 0546     		mov	r5, r0
 600 0018 0028     		cmp	r0, #0
 601 001a 3DD0     		beq	.L44
 602              		.loc 1 168 0 is_stmt 0 discriminator 3
 603 001c 002A     		cmp	r2, #0
 604 001e 3BD0     		beq	.L44
 605              		.loc 1 168 0 discriminator 5
 606 0020 0329     		cmp	r1, #3
 607 0022 39D8     		bhi	.L44
 608              	.LVL47:
 609              	.L45:
 610              	.LBB249:
 611              	.LBB250:
 612              	.LBB251:
 613              	.LBB252:
 614              	.LBB253:
 615              	.LBB254:
 616              		.loc 4 546 0 is_stmt 1
 617 0024 2023     		movs	r3, #32
 618              		.syntax unified
 619              	@ 546 ".//ChibiOS//os/ext/CMSIS/include/core_cmFunc.h" 1
 620 0026 83F31188 		MSR basepri, r3
 621              	@ 0 "" 2
 622              	.LVL48:
 623              		.thumb
 624              		.syntax unified
 625              	.LBE254:
 626              	.LBE253:
 627              	.LBE252:
ARM GAS  C:\Users\Moi\AppData\Local\Temp\ccmZvf6L.s 			page 12


 628              		.loc 5 349 0
 629 002a FFF7FEFF 		bl	_stats_start_measure_crit_thd
 630              	.LVL49:
 631              		.loc 5 350 0
 632 002e FFF7FEFF 		bl	_dbg_check_lock
 633              	.LVL50:
 634              	.LBE251:
 635              	.LBE250:
 636              	.LBE249:
 637              		.loc 1 172 0
 638 0032 2B78     		ldrb	r3, [r5]	@ zero_extendqisi2
 639 0034 DA1E     		subs	r2, r3, #3
 640 0036 012A     		cmp	r2, #1
 641 0038 03D9     		bls	.L46
 642              		.loc 1 172 0 is_stmt 0 discriminator 2
 643 003a 2B48     		ldr	r0, .L72
 644 003c FFF7FEFF 		bl	chSysHalt
 645              	.LVL51:
 646 0040 2B78     		ldrb	r3, [r5]	@ zero_extendqisi2
 647              	.L46:
 648              	.LBB255:
 649              		.loc 1 177 0 is_stmt 1
 650 0042 05F10806 		add	r6, r5, #8
 651 0046 00E0     		b	.L48
 652              	.L68:
 653 0048 2B78     		ldrb	r3, [r5]	@ zero_extendqisi2
 654              	.L48:
 655              	.LBE255:
 656              		.loc 1 175 0
 657 004a 042B     		cmp	r3, #4
 658 004c 04D0     		beq	.L51
 659              		.loc 1 175 0 is_stmt 0 discriminator 1
 660 004e 4146     		mov	r1, r8
 661 0050 2846     		mov	r0, r5
 662 0052 FFF7FEFF 		bl	can_lld_is_tx_empty
 663              	.LVL52:
 664 0056 18BB     		cbnz	r0, .L67
 665              	.L51:
 666              	.LVL53:
 667              	.LBB267:
 668              	.LBB256:
 669              	.LBB257:
 670              		.loc 6 738 0 is_stmt 1
 671 0058 3946     		mov	r1, r7
 672 005a 3046     		mov	r0, r6
 673 005c FFF7FEFF 		bl	chThdEnqueueTimeoutS
 674              	.LVL54:
 675              	.LBE257:
 676              	.LBE256:
 677              		.loc 1 178 0
 678 0060 0446     		mov	r4, r0
 679 0062 0028     		cmp	r0, #0
 680 0064 F0D0     		beq	.L68
 681              	.LBB258:
 682              	.LBB259:
 683              	.LBB260:
 684              		.loc 5 360 0
ARM GAS  C:\Users\Moi\AppData\Local\Temp\ccmZvf6L.s 			page 13


 685 0066 FFF7FEFF 		bl	_dbg_check_unlock
 686              	.LVL55:
 687              		.loc 5 361 0
 688 006a FFF7FEFF 		bl	_stats_stop_measure_crit_thd
 689              	.LVL56:
 690              		.loc 5 367 0
 691 006e 1F4B     		ldr	r3, .L72+4
 692 0070 1A68     		ldr	r2, [r3]
 693 0072 9A42     		cmp	r2, r3
 694 0074 04D0     		beq	.L49
 695 0076 9969     		ldr	r1, [r3, #24]
 696 0078 9368     		ldr	r3, [r2, #8]
 697 007a 8A68     		ldr	r2, [r1, #8]
 698 007c 9A42     		cmp	r2, r3
 699 007e 25D3     		bcc	.L69
 700              	.L49:
 701              	.LVL57:
 702              	.LBB261:
 703              	.LBB262:
 704              	.LBB263:
 705              		.loc 4 546 0
 706 0080 0023     		movs	r3, #0
 707              		.syntax unified
 708              	@ 546 ".//ChibiOS//os/ext/CMSIS/include/core_cmFunc.h" 1
 709 0082 83F31188 		MSR basepri, r3
 710              	@ 0 "" 2
 711              	.LVL58:
 712              		.thumb
 713              		.syntax unified
 714              	.L43:
 715              	.LBE263:
 716              	.LBE262:
 717              	.LBE261:
 718              	.LBE260:
 719              	.LBE259:
 720              	.LBE258:
 721              	.LBE267:
 722              		.loc 1 186 0
 723 0086 019A     		ldr	r2, [sp, #4]
 724 0088 D9F80030 		ldr	r3, [r9]
 725 008c 9A42     		cmp	r2, r3
 726 008e 2046     		mov	r0, r4
 727 0090 27D1     		bne	.L70
 728 0092 02B0     		add	sp, sp, #8
 729              		.cfi_remember_state
 730              		.cfi_def_cfa_offset 32
 731              		@ sp needed
 732 0094 BDE8F087 		pop	{r4, r5, r6, r7, r8, r9, r10, pc}
 733              	.LVL59:
 734              	.L44:
 735              		.cfi_restore_state
 736              		.loc 1 168 0 discriminator 6
 737 0098 1348     		ldr	r0, .L72
 738              	.LVL60:
 739 009a FFF7FEFF 		bl	chSysHalt
 740              	.LVL61:
 741 009e C1E7     		b	.L45
ARM GAS  C:\Users\Moi\AppData\Local\Temp\ccmZvf6L.s 			page 14


 742              	.L67:
 743              		.loc 1 183 0
 744 00a0 5246     		mov	r2, r10
 745 00a2 4146     		mov	r1, r8
 746 00a4 2846     		mov	r0, r5
 747 00a6 FFF7FEFF 		bl	can_lld_transmit
 748              	.LVL62:
 749              	.LBB268:
 750              	.LBB269:
 751              	.LBB270:
 752              		.loc 5 360 0
 753 00aa FFF7FEFF 		bl	_dbg_check_unlock
 754              	.LVL63:
 755              		.loc 5 361 0
 756 00ae FFF7FEFF 		bl	_stats_stop_measure_crit_thd
 757              	.LVL64:
 758              		.loc 5 367 0
 759 00b2 0E4B     		ldr	r3, .L72+4
 760 00b4 1A68     		ldr	r2, [r3]
 761 00b6 9A42     		cmp	r2, r3
 762 00b8 04D0     		beq	.L52
 763 00ba 9969     		ldr	r1, [r3, #24]
 764 00bc 9368     		ldr	r3, [r2, #8]
 765 00be 8A68     		ldr	r2, [r1, #8]
 766 00c0 9A42     		cmp	r2, r3
 767 00c2 07D3     		bcc	.L71
 768              	.L52:
 769              	.LVL65:
 770              	.LBB271:
 771              	.LBB272:
 772              	.LBB273:
 773              		.loc 4 546 0
 774 00c4 0024     		movs	r4, #0
 775              		.syntax unified
 776              	@ 546 ".//ChibiOS//os/ext/CMSIS/include/core_cmFunc.h" 1
 777 00c6 84F31188 		MSR basepri, r4
 778              	@ 0 "" 2
 779              	.LVL66:
 780              		.thumb
 781              		.syntax unified
 782 00ca DCE7     		b	.L43
 783              	.L69:
 784              	.LBE273:
 785              	.LBE272:
 786              	.LBE271:
 787              	.LBE270:
 788              	.LBE269:
 789              	.LBE268:
 790              	.LBB279:
 791              	.LBB266:
 792              	.LBB265:
 793              	.LBB264:
 794              		.loc 5 367 0
 795 00cc 0848     		ldr	r0, .L72+8
 796 00ce FFF7FEFF 		bl	chSysHalt
 797              	.LVL67:
 798 00d2 D5E7     		b	.L49
ARM GAS  C:\Users\Moi\AppData\Local\Temp\ccmZvf6L.s 			page 15


 799              	.L71:
 800              	.LBE264:
 801              	.LBE265:
 802              	.LBE266:
 803              	.LBE279:
 804              	.LBB280:
 805              	.LBB278:
 806              	.LBB277:
 807 00d4 0648     		ldr	r0, .L72+8
 808 00d6 FFF7FEFF 		bl	chSysHalt
 809              	.LVL68:
 810              	.LBB276:
 811              	.LBB275:
 812              	.LBB274:
 813              		.loc 4 546 0
 814 00da 0024     		movs	r4, #0
 815              		.syntax unified
 816              	@ 546 ".//ChibiOS//os/ext/CMSIS/include/core_cmFunc.h" 1
 817 00dc 84F31188 		MSR basepri, r4
 818              	@ 0 "" 2
 819              	.LVL69:
 820              		.thumb
 821              		.syntax unified
 822 00e0 D1E7     		b	.L43
 823              	.L70:
 824              	.LBE274:
 825              	.LBE275:
 826              	.LBE276:
 827              	.LBE277:
 828              	.LBE278:
 829              	.LBE280:
 830              		.loc 1 186 0
 831 00e2 FFF7FEFF 		bl	__stack_chk_fail
 832              	.LVL70:
 833              	.L73:
 834 00e6 00BF     		.align	2
 835              	.L72:
 836 00e8 00000000 		.word	.LANCHOR3
 837 00ec 00000000 		.word	ch
 838 00f0 00000000 		.word	.LANCHOR1
 839 00f4 00000000 		.word	__stack_chk_guard
 840              		.cfi_endproc
 841              	.LFE260:
 842              		.size	canTransmit, .-canTransmit
 843              		.section	.text.canReceive,"ax",%progbits
 844              		.align	1
 845              		.p2align 4,,15
 846              		.global	canReceive
 847              		.syntax unified
 848              		.thumb
 849              		.thumb_func
 850              		.fpu fpv4-sp-d16
 851              		.type	canReceive, %function
 852              	canReceive:
 853              	.LFB261:
 854              		.loc 1 213 0
 855              		.cfi_startproc
ARM GAS  C:\Users\Moi\AppData\Local\Temp\ccmZvf6L.s 			page 16


 856              		@ args = 0, pretend = 0, frame = 8
 857              		@ frame_needed = 0, uses_anonymous_args = 0
 858              	.LVL71:
 859 0000 2DE9F047 		push	{r4, r5, r6, r7, r8, r9, r10, lr}
 860              		.cfi_def_cfa_offset 32
 861              		.cfi_offset 4, -32
 862              		.cfi_offset 5, -28
 863              		.cfi_offset 6, -24
 864              		.cfi_offset 7, -20
 865              		.cfi_offset 8, -16
 866              		.cfi_offset 9, -12
 867              		.cfi_offset 10, -8
 868              		.cfi_offset 14, -4
 869 0004 DFF8EC90 		ldr	r9, .L103+12
 870 0008 82B0     		sub	sp, sp, #8
 871              		.cfi_def_cfa_offset 40
 872              		.loc 1 213 0
 873 000a D9F80040 		ldr	r4, [r9]
 874 000e 0194     		str	r4, [sp, #4]
 875 0010 8846     		mov	r8, r1
 876 0012 9246     		mov	r10, r2
 877 0014 1F46     		mov	r7, r3
 878              		.loc 1 215 0
 879 0016 0546     		mov	r5, r0
 880 0018 0028     		cmp	r0, #0
 881 001a 3DD0     		beq	.L75
 882              		.loc 1 215 0 is_stmt 0 discriminator 3
 883 001c 002A     		cmp	r2, #0
 884 001e 3BD0     		beq	.L75
 885              		.loc 1 215 0 discriminator 5
 886 0020 0229     		cmp	r1, #2
 887 0022 39D8     		bhi	.L75
 888              	.LVL72:
 889              	.L76:
 890              	.LBB304:
 891              	.LBB305:
 892              	.LBB306:
 893              	.LBB307:
 894              	.LBB308:
 895              	.LBB309:
 896              		.loc 4 546 0 is_stmt 1
 897 0024 2023     		movs	r3, #32
 898              		.syntax unified
 899              	@ 546 ".//ChibiOS//os/ext/CMSIS/include/core_cmFunc.h" 1
 900 0026 83F31188 		MSR basepri, r3
 901              	@ 0 "" 2
 902              	.LVL73:
 903              		.thumb
 904              		.syntax unified
 905              	.LBE309:
 906              	.LBE308:
 907              	.LBE307:
 908              		.loc 5 349 0
 909 002a FFF7FEFF 		bl	_stats_start_measure_crit_thd
 910              	.LVL74:
 911              		.loc 5 350 0
 912 002e FFF7FEFF 		bl	_dbg_check_lock
ARM GAS  C:\Users\Moi\AppData\Local\Temp\ccmZvf6L.s 			page 17


 913              	.LVL75:
 914              	.LBE306:
 915              	.LBE305:
 916              	.LBE304:
 917              		.loc 1 219 0
 918 0032 2B78     		ldrb	r3, [r5]	@ zero_extendqisi2
 919 0034 DA1E     		subs	r2, r3, #3
 920 0036 012A     		cmp	r2, #1
 921 0038 03D9     		bls	.L77
 922              		.loc 1 219 0 is_stmt 0 discriminator 2
 923 003a 2B48     		ldr	r0, .L103
 924 003c FFF7FEFF 		bl	chSysHalt
 925              	.LVL76:
 926 0040 2B78     		ldrb	r3, [r5]	@ zero_extendqisi2
 927              	.L77:
 928              	.LBB310:
 929              		.loc 1 224 0 is_stmt 1
 930 0042 05F11006 		add	r6, r5, #16
 931 0046 00E0     		b	.L79
 932              	.L99:
 933 0048 2B78     		ldrb	r3, [r5]	@ zero_extendqisi2
 934              	.L79:
 935              	.LBE310:
 936              		.loc 1 222 0
 937 004a 042B     		cmp	r3, #4
 938 004c 04D0     		beq	.L82
 939              		.loc 1 222 0 is_stmt 0 discriminator 1
 940 004e 4146     		mov	r1, r8
 941 0050 2846     		mov	r0, r5
 942 0052 FFF7FEFF 		bl	can_lld_is_rx_nonempty
 943              	.LVL77:
 944 0056 18BB     		cbnz	r0, .L98
 945              	.L82:
 946              	.LVL78:
 947              	.LBB322:
 948              	.LBB311:
 949              	.LBB312:
 950              		.loc 6 738 0 is_stmt 1
 951 0058 3946     		mov	r1, r7
 952 005a 3046     		mov	r0, r6
 953 005c FFF7FEFF 		bl	chThdEnqueueTimeoutS
 954              	.LVL79:
 955              	.LBE312:
 956              	.LBE311:
 957              		.loc 1 225 0
 958 0060 0446     		mov	r4, r0
 959 0062 0028     		cmp	r0, #0
 960 0064 F0D0     		beq	.L99
 961              	.LBB313:
 962              	.LBB314:
 963              	.LBB315:
 964              		.loc 5 360 0
 965 0066 FFF7FEFF 		bl	_dbg_check_unlock
 966              	.LVL80:
 967              		.loc 5 361 0
 968 006a FFF7FEFF 		bl	_stats_stop_measure_crit_thd
 969              	.LVL81:
ARM GAS  C:\Users\Moi\AppData\Local\Temp\ccmZvf6L.s 			page 18


 970              		.loc 5 367 0
 971 006e 1F4B     		ldr	r3, .L103+4
 972 0070 1A68     		ldr	r2, [r3]
 973 0072 9A42     		cmp	r2, r3
 974 0074 04D0     		beq	.L80
 975 0076 9969     		ldr	r1, [r3, #24]
 976 0078 9368     		ldr	r3, [r2, #8]
 977 007a 8A68     		ldr	r2, [r1, #8]
 978 007c 9A42     		cmp	r2, r3
 979 007e 25D3     		bcc	.L100
 980              	.L80:
 981              	.LVL82:
 982              	.LBB316:
 983              	.LBB317:
 984              	.LBB318:
 985              		.loc 4 546 0
 986 0080 0023     		movs	r3, #0
 987              		.syntax unified
 988              	@ 546 ".//ChibiOS//os/ext/CMSIS/include/core_cmFunc.h" 1
 989 0082 83F31188 		MSR basepri, r3
 990              	@ 0 "" 2
 991              	.LVL83:
 992              		.thumb
 993              		.syntax unified
 994              	.L74:
 995              	.LBE318:
 996              	.LBE317:
 997              	.LBE316:
 998              	.LBE315:
 999              	.LBE314:
 1000              	.LBE313:
 1001              	.LBE322:
 1002              		.loc 1 233 0
 1003 0086 019A     		ldr	r2, [sp, #4]
 1004 0088 D9F80030 		ldr	r3, [r9]
 1005 008c 9A42     		cmp	r2, r3
 1006 008e 2046     		mov	r0, r4
 1007 0090 27D1     		bne	.L101
 1008 0092 02B0     		add	sp, sp, #8
 1009              		.cfi_remember_state
 1010              		.cfi_def_cfa_offset 32
 1011              		@ sp needed
 1012 0094 BDE8F087 		pop	{r4, r5, r6, r7, r8, r9, r10, pc}
 1013              	.LVL84:
 1014              	.L75:
 1015              		.cfi_restore_state
 1016              		.loc 1 215 0 discriminator 6
 1017 0098 1348     		ldr	r0, .L103
 1018              	.LVL85:
 1019 009a FFF7FEFF 		bl	chSysHalt
 1020              	.LVL86:
 1021 009e C1E7     		b	.L76
 1022              	.L98:
 1023              		.loc 1 230 0
 1024 00a0 5246     		mov	r2, r10
 1025 00a2 4146     		mov	r1, r8
 1026 00a4 2846     		mov	r0, r5
ARM GAS  C:\Users\Moi\AppData\Local\Temp\ccmZvf6L.s 			page 19


 1027 00a6 FFF7FEFF 		bl	can_lld_receive
 1028              	.LVL87:
 1029              	.LBB323:
 1030              	.LBB324:
 1031              	.LBB325:
 1032              		.loc 5 360 0
 1033 00aa FFF7FEFF 		bl	_dbg_check_unlock
 1034              	.LVL88:
 1035              		.loc 5 361 0
 1036 00ae FFF7FEFF 		bl	_stats_stop_measure_crit_thd
 1037              	.LVL89:
 1038              		.loc 5 367 0
 1039 00b2 0E4B     		ldr	r3, .L103+4
 1040 00b4 1A68     		ldr	r2, [r3]
 1041 00b6 9A42     		cmp	r2, r3
 1042 00b8 04D0     		beq	.L83
 1043 00ba 9969     		ldr	r1, [r3, #24]
 1044 00bc 9368     		ldr	r3, [r2, #8]
 1045 00be 8A68     		ldr	r2, [r1, #8]
 1046 00c0 9A42     		cmp	r2, r3
 1047 00c2 07D3     		bcc	.L102
 1048              	.L83:
 1049              	.LVL90:
 1050              	.LBB326:
 1051              	.LBB327:
 1052              	.LBB328:
 1053              		.loc 4 546 0
 1054 00c4 0024     		movs	r4, #0
 1055              		.syntax unified
 1056              	@ 546 ".//ChibiOS//os/ext/CMSIS/include/core_cmFunc.h" 1
 1057 00c6 84F31188 		MSR basepri, r4
 1058              	@ 0 "" 2
 1059              	.LVL91:
 1060              		.thumb
 1061              		.syntax unified
 1062 00ca DCE7     		b	.L74
 1063              	.L100:
 1064              	.LBE328:
 1065              	.LBE327:
 1066              	.LBE326:
 1067              	.LBE325:
 1068              	.LBE324:
 1069              	.LBE323:
 1070              	.LBB334:
 1071              	.LBB321:
 1072              	.LBB320:
 1073              	.LBB319:
 1074              		.loc 5 367 0
 1075 00cc 0848     		ldr	r0, .L103+8
 1076 00ce FFF7FEFF 		bl	chSysHalt
 1077              	.LVL92:
 1078 00d2 D5E7     		b	.L80
 1079              	.L102:
 1080              	.LBE319:
 1081              	.LBE320:
 1082              	.LBE321:
 1083              	.LBE334:
ARM GAS  C:\Users\Moi\AppData\Local\Temp\ccmZvf6L.s 			page 20


 1084              	.LBB335:
 1085              	.LBB333:
 1086              	.LBB332:
 1087 00d4 0648     		ldr	r0, .L103+8
 1088 00d6 FFF7FEFF 		bl	chSysHalt
 1089              	.LVL93:
 1090              	.LBB331:
 1091              	.LBB330:
 1092              	.LBB329:
 1093              		.loc 4 546 0
 1094 00da 0024     		movs	r4, #0
 1095              		.syntax unified
 1096              	@ 546 ".//ChibiOS//os/ext/CMSIS/include/core_cmFunc.h" 1
 1097 00dc 84F31188 		MSR basepri, r4
 1098              	@ 0 "" 2
 1099              	.LVL94:
 1100              		.thumb
 1101              		.syntax unified
 1102 00e0 D1E7     		b	.L74
 1103              	.L101:
 1104              	.LBE329:
 1105              	.LBE330:
 1106              	.LBE331:
 1107              	.LBE332:
 1108              	.LBE333:
 1109              	.LBE335:
 1110              		.loc 1 233 0
 1111 00e2 FFF7FEFF 		bl	__stack_chk_fail
 1112              	.LVL95:
 1113              	.L104:
 1114 00e6 00BF     		.align	2
 1115              	.L103:
 1116 00e8 00000000 		.word	.LANCHOR4
 1117 00ec 00000000 		.word	ch
 1118 00f0 00000000 		.word	.LANCHOR1
 1119 00f4 00000000 		.word	__stack_chk_guard
 1120              		.cfi_endproc
 1121              	.LFE261:
 1122              		.size	canReceive, .-canReceive
 1123              		.section	.text.canSleep,"ax",%progbits
 1124              		.align	1
 1125              		.p2align 4,,15
 1126              		.global	canSleep
 1127              		.syntax unified
 1128              		.thumb
 1129              		.thumb_func
 1130              		.fpu fpv4-sp-d16
 1131              		.type	canSleep, %function
 1132              	canSleep:
 1133              	.LFB262:
 1134              		.loc 1 248 0
 1135              		.cfi_startproc
 1136              		@ args = 0, pretend = 0, frame = 8
 1137              		@ frame_needed = 0, uses_anonymous_args = 0
 1138              	.LVL96:
 1139 0000 30B5     		push	{r4, r5, lr}
 1140              		.cfi_def_cfa_offset 12
ARM GAS  C:\Users\Moi\AppData\Local\Temp\ccmZvf6L.s 			page 21


 1141              		.cfi_offset 4, -12
 1142              		.cfi_offset 5, -8
 1143              		.cfi_offset 14, -4
 1144 0002 224D     		ldr	r5, .L116
 1145 0004 83B0     		sub	sp, sp, #12
 1146              		.cfi_def_cfa_offset 24
 1147              		.loc 1 248 0
 1148 0006 2B68     		ldr	r3, [r5]
 1149 0008 0193     		str	r3, [sp, #4]
 1150              		.loc 1 250 0
 1151 000a 0446     		mov	r4, r0
 1152 000c 0028     		cmp	r0, #0
 1153 000e 37D0     		beq	.L112
 1154              	.LVL97:
 1155              	.L106:
 1156              	.LBB353:
 1157              	.LBB354:
 1158              	.LBB355:
 1159              	.LBB356:
 1160              	.LBB357:
 1161              	.LBB358:
 1162              		.loc 4 546 0
 1163 0010 2023     		movs	r3, #32
 1164              		.syntax unified
 1165              	@ 546 ".//ChibiOS//os/ext/CMSIS/include/core_cmFunc.h" 1
 1166 0012 83F31188 		MSR basepri, r3
 1167              	@ 0 "" 2
 1168              	.LVL98:
 1169              		.thumb
 1170              		.syntax unified
 1171              	.LBE358:
 1172              	.LBE357:
 1173              	.LBE356:
 1174              		.loc 5 349 0
 1175 0016 FFF7FEFF 		bl	_stats_start_measure_crit_thd
 1176              	.LVL99:
 1177              		.loc 5 350 0
 1178 001a FFF7FEFF 		bl	_dbg_check_lock
 1179              	.LVL100:
 1180              	.LBE355:
 1181              	.LBE354:
 1182              	.LBE353:
 1183              		.loc 1 253 0
 1184 001e 2378     		ldrb	r3, [r4]	@ zero_extendqisi2
 1185 0020 DA1E     		subs	r2, r3, #3
 1186 0022 012A     		cmp	r2, #1
 1187 0024 03D9     		bls	.L107
 1188              		.loc 1 253 0 is_stmt 0 discriminator 2
 1189 0026 1A48     		ldr	r0, .L116+4
 1190 0028 FFF7FEFF 		bl	chSysHalt
 1191              	.LVL101:
 1192 002c 2378     		ldrb	r3, [r4]	@ zero_extendqisi2
 1193              	.L107:
 1194              		.loc 1 255 0 is_stmt 1
 1195 002e 032B     		cmp	r3, #3
 1196 0030 19D0     		beq	.L113
 1197              	.L108:
ARM GAS  C:\Users\Moi\AppData\Local\Temp\ccmZvf6L.s 			page 22


 1198              	.LBB359:
 1199              	.LBB360:
 1200              	.LBB361:
 1201              		.loc 5 360 0
 1202 0032 FFF7FEFF 		bl	_dbg_check_unlock
 1203              	.LVL102:
 1204              		.loc 5 361 0
 1205 0036 FFF7FEFF 		bl	_stats_stop_measure_crit_thd
 1206              	.LVL103:
 1207              		.loc 5 367 0
 1208 003a 164B     		ldr	r3, .L116+8
 1209 003c 1A68     		ldr	r2, [r3]
 1210 003e 9A42     		cmp	r2, r3
 1211 0040 04D0     		beq	.L109
 1212 0042 9969     		ldr	r1, [r3, #24]
 1213 0044 9368     		ldr	r3, [r2, #8]
 1214 0046 8A68     		ldr	r2, [r1, #8]
 1215 0048 9A42     		cmp	r2, r3
 1216 004a 08D3     		bcc	.L114
 1217              	.L109:
 1218              	.LVL104:
 1219              	.LBB362:
 1220              	.LBB363:
 1221              	.LBB364:
 1222              		.loc 4 546 0
 1223 004c 0023     		movs	r3, #0
 1224              		.syntax unified
 1225              	@ 546 ".//ChibiOS//os/ext/CMSIS/include/core_cmFunc.h" 1
 1226 004e 83F31188 		MSR basepri, r3
 1227              	@ 0 "" 2
 1228              	.LVL105:
 1229              		.thumb
 1230              		.syntax unified
 1231              	.LBE364:
 1232              	.LBE363:
 1233              	.LBE362:
 1234              	.LBE361:
 1235              	.LBE360:
 1236              	.LBE359:
 1237              		.loc 1 262 0
 1238 0052 019A     		ldr	r2, [sp, #4]
 1239 0054 2B68     		ldr	r3, [r5]
 1240 0056 9A42     		cmp	r2, r3
 1241 0058 16D1     		bne	.L115
 1242 005a 03B0     		add	sp, sp, #12
 1243              		.cfi_remember_state
 1244              		.cfi_def_cfa_offset 12
 1245              		@ sp needed
 1246 005c 30BD     		pop	{r4, r5, pc}
 1247              	.LVL106:
 1248              	.L114:
 1249              		.cfi_restore_state
 1250              	.LBB367:
 1251              	.LBB366:
 1252              	.LBB365:
 1253              		.loc 5 367 0
 1254 005e 0E48     		ldr	r0, .L116+12
ARM GAS  C:\Users\Moi\AppData\Local\Temp\ccmZvf6L.s 			page 23


 1255 0060 FFF7FEFF 		bl	chSysHalt
 1256              	.LVL107:
 1257 0064 F2E7     		b	.L109
 1258              	.L113:
 1259              	.LBE365:
 1260              	.LBE366:
 1261              	.LBE367:
 1262              		.loc 1 256 0
 1263 0066 2046     		mov	r0, r4
 1264 0068 FFF7FEFF 		bl	can_lld_sleep
 1265              	.LVL108:
 1266              		.loc 1 257 0
 1267 006c 2046     		mov	r0, r4
 1268 006e 0423     		movs	r3, #4
 1269 0070 00F8243B 		strb	r3, [r0], #36
 1270              	.LVL109:
 1271              	.LBB368:
 1272              	.LBB369:
 1273              		.loc 6 798 0
 1274 0074 0021     		movs	r1, #0
 1275 0076 FFF7FEFF 		bl	chEvtBroadcastFlagsI
 1276              	.LVL110:
 1277              	.LBE369:
 1278              	.LBE368:
 1279              	.LBB370:
 1280              	.LBB371:
 1281              		.loc 6 554 0
 1282 007a FFF7FEFF 		bl	chSchRescheduleS
 1283              	.LVL111:
 1284 007e D8E7     		b	.L108
 1285              	.LVL112:
 1286              	.L112:
 1287              	.LBE371:
 1288              	.LBE370:
 1289              		.loc 1 250 0 discriminator 2
 1290 0080 0348     		ldr	r0, .L116+4
 1291              	.LVL113:
 1292 0082 FFF7FEFF 		bl	chSysHalt
 1293              	.LVL114:
 1294 0086 C3E7     		b	.L106
 1295              	.L115:
 1296              		.loc 1 262 0
 1297 0088 FFF7FEFF 		bl	__stack_chk_fail
 1298              	.LVL115:
 1299              	.L117:
 1300              		.align	2
 1301              	.L116:
 1302 008c 00000000 		.word	__stack_chk_guard
 1303 0090 00000000 		.word	.LANCHOR5
 1304 0094 00000000 		.word	ch
 1305 0098 00000000 		.word	.LANCHOR1
 1306              		.cfi_endproc
 1307              	.LFE262:
 1308              		.size	canSleep, .-canSleep
 1309              		.section	.text.canWakeup,"ax",%progbits
 1310              		.align	1
 1311              		.p2align 4,,15
ARM GAS  C:\Users\Moi\AppData\Local\Temp\ccmZvf6L.s 			page 24


 1312              		.global	canWakeup
 1313              		.syntax unified
 1314              		.thumb
 1315              		.thumb_func
 1316              		.fpu fpv4-sp-d16
 1317              		.type	canWakeup, %function
 1318              	canWakeup:
 1319              	.LFB263:
 1320              		.loc 1 271 0
 1321              		.cfi_startproc
 1322              		@ args = 0, pretend = 0, frame = 8
 1323              		@ frame_needed = 0, uses_anonymous_args = 0
 1324              	.LVL116:
 1325 0000 30B5     		push	{r4, r5, lr}
 1326              		.cfi_def_cfa_offset 12
 1327              		.cfi_offset 4, -12
 1328              		.cfi_offset 5, -8
 1329              		.cfi_offset 14, -4
 1330 0002 224D     		ldr	r5, .L129
 1331 0004 83B0     		sub	sp, sp, #12
 1332              		.cfi_def_cfa_offset 24
 1333              		.loc 1 271 0
 1334 0006 2B68     		ldr	r3, [r5]
 1335 0008 0193     		str	r3, [sp, #4]
 1336              		.loc 1 273 0
 1337 000a 0446     		mov	r4, r0
 1338 000c 0028     		cmp	r0, #0
 1339 000e 37D0     		beq	.L125
 1340              	.LVL117:
 1341              	.L119:
 1342              	.LBB389:
 1343              	.LBB390:
 1344              	.LBB391:
 1345              	.LBB392:
 1346              	.LBB393:
 1347              	.LBB394:
 1348              		.loc 4 546 0
 1349 0010 2023     		movs	r3, #32
 1350              		.syntax unified
 1351              	@ 546 ".//ChibiOS//os/ext/CMSIS/include/core_cmFunc.h" 1
 1352 0012 83F31188 		MSR basepri, r3
 1353              	@ 0 "" 2
 1354              	.LVL118:
 1355              		.thumb
 1356              		.syntax unified
 1357              	.LBE394:
 1358              	.LBE393:
 1359              	.LBE392:
 1360              		.loc 5 349 0
 1361 0016 FFF7FEFF 		bl	_stats_start_measure_crit_thd
 1362              	.LVL119:
 1363              		.loc 5 350 0
 1364 001a FFF7FEFF 		bl	_dbg_check_lock
 1365              	.LVL120:
 1366              	.LBE391:
 1367              	.LBE390:
 1368              	.LBE389:
ARM GAS  C:\Users\Moi\AppData\Local\Temp\ccmZvf6L.s 			page 25


 1369              		.loc 1 276 0
 1370 001e 2378     		ldrb	r3, [r4]	@ zero_extendqisi2
 1371 0020 DA1E     		subs	r2, r3, #3
 1372 0022 012A     		cmp	r2, #1
 1373 0024 03D9     		bls	.L120
 1374              		.loc 1 276 0 is_stmt 0 discriminator 2
 1375 0026 1A48     		ldr	r0, .L129+4
 1376 0028 FFF7FEFF 		bl	chSysHalt
 1377              	.LVL121:
 1378 002c 2378     		ldrb	r3, [r4]	@ zero_extendqisi2
 1379              	.L120:
 1380              		.loc 1 278 0 is_stmt 1
 1381 002e 042B     		cmp	r3, #4
 1382 0030 19D0     		beq	.L126
 1383              	.L121:
 1384              	.LBB395:
 1385              	.LBB396:
 1386              	.LBB397:
 1387              		.loc 5 360 0
 1388 0032 FFF7FEFF 		bl	_dbg_check_unlock
 1389              	.LVL122:
 1390              		.loc 5 361 0
 1391 0036 FFF7FEFF 		bl	_stats_stop_measure_crit_thd
 1392              	.LVL123:
 1393              		.loc 5 367 0
 1394 003a 164B     		ldr	r3, .L129+8
 1395 003c 1A68     		ldr	r2, [r3]
 1396 003e 9A42     		cmp	r2, r3
 1397 0040 04D0     		beq	.L122
 1398 0042 9969     		ldr	r1, [r3, #24]
 1399 0044 9368     		ldr	r3, [r2, #8]
 1400 0046 8A68     		ldr	r2, [r1, #8]
 1401 0048 9A42     		cmp	r2, r3
 1402 004a 08D3     		bcc	.L127
 1403              	.L122:
 1404              	.LVL124:
 1405              	.LBB398:
 1406              	.LBB399:
 1407              	.LBB400:
 1408              		.loc 4 546 0
 1409 004c 0023     		movs	r3, #0
 1410              		.syntax unified
 1411              	@ 546 ".//ChibiOS//os/ext/CMSIS/include/core_cmFunc.h" 1
 1412 004e 83F31188 		MSR basepri, r3
 1413              	@ 0 "" 2
 1414              	.LVL125:
 1415              		.thumb
 1416              		.syntax unified
 1417              	.LBE400:
 1418              	.LBE399:
 1419              	.LBE398:
 1420              	.LBE397:
 1421              	.LBE396:
 1422              	.LBE395:
 1423              		.loc 1 285 0
 1424 0052 019A     		ldr	r2, [sp, #4]
 1425 0054 2B68     		ldr	r3, [r5]
ARM GAS  C:\Users\Moi\AppData\Local\Temp\ccmZvf6L.s 			page 26


 1426 0056 9A42     		cmp	r2, r3
 1427 0058 16D1     		bne	.L128
 1428 005a 03B0     		add	sp, sp, #12
 1429              		.cfi_remember_state
 1430              		.cfi_def_cfa_offset 12
 1431              		@ sp needed
 1432 005c 30BD     		pop	{r4, r5, pc}
 1433              	.LVL126:
 1434              	.L127:
 1435              		.cfi_restore_state
 1436              	.LBB403:
 1437              	.LBB402:
 1438              	.LBB401:
 1439              		.loc 5 367 0
 1440 005e 0E48     		ldr	r0, .L129+12
 1441 0060 FFF7FEFF 		bl	chSysHalt
 1442              	.LVL127:
 1443 0064 F2E7     		b	.L122
 1444              	.L126:
 1445              	.LBE401:
 1446              	.LBE402:
 1447              	.LBE403:
 1448              		.loc 1 279 0
 1449 0066 2046     		mov	r0, r4
 1450 0068 FFF7FEFF 		bl	can_lld_wakeup
 1451              	.LVL128:
 1452              		.loc 1 280 0
 1453 006c 2046     		mov	r0, r4
 1454 006e 0323     		movs	r3, #3
 1455 0070 00F8283B 		strb	r3, [r0], #40
 1456              	.LVL129:
 1457              	.LBB404:
 1458              	.LBB405:
 1459              		.loc 6 798 0
 1460 0074 0021     		movs	r1, #0
 1461 0076 FFF7FEFF 		bl	chEvtBroadcastFlagsI
 1462              	.LVL130:
 1463              	.LBE405:
 1464              	.LBE404:
 1465              	.LBB406:
 1466              	.LBB407:
 1467              		.loc 6 554 0
 1468 007a FFF7FEFF 		bl	chSchRescheduleS
 1469              	.LVL131:
 1470 007e D8E7     		b	.L121
 1471              	.LVL132:
 1472              	.L125:
 1473              	.LBE407:
 1474              	.LBE406:
 1475              		.loc 1 273 0 discriminator 2
 1476 0080 0348     		ldr	r0, .L129+4
 1477              	.LVL133:
 1478 0082 FFF7FEFF 		bl	chSysHalt
 1479              	.LVL134:
 1480 0086 C3E7     		b	.L119
 1481              	.L128:
 1482              		.loc 1 285 0
ARM GAS  C:\Users\Moi\AppData\Local\Temp\ccmZvf6L.s 			page 27


 1483 0088 FFF7FEFF 		bl	__stack_chk_fail
 1484              	.LVL135:
 1485              	.L130:
 1486              		.align	2
 1487              	.L129:
 1488 008c 00000000 		.word	__stack_chk_guard
 1489 0090 00000000 		.word	.LANCHOR6
 1490 0094 00000000 		.word	ch
 1491 0098 00000000 		.word	.LANCHOR1
 1492              		.cfi_endproc
 1493              	.LFE263:
 1494              		.size	canWakeup, .-canWakeup
 1495              		.section	.rodata.__func__.7153,"a",%progbits
 1496              		.align	2
 1497              		.set	.LANCHOR1,. + 0
 1498              		.type	__func__.7153, %object
 1499              		.size	__func__.7153, 12
 1500              	__func__.7153:
 1501 0000 63685379 		.ascii	"chSysUnlock\000"
 1501      73556E6C 
 1501      6F636B00 
 1502              		.section	.rodata.__func__.9848,"a",%progbits
 1503              		.align	2
 1504              		.set	.LANCHOR0,. + 0
 1505              		.type	__func__.9848, %object
 1506              		.size	__func__.9848, 9
 1507              	__func__.9848:
 1508 0000 63616E53 		.ascii	"canStart\000"
 1508      74617274 
 1508      00
 1509              		.section	.rodata.__func__.9852,"a",%progbits
 1510              		.align	2
 1511              		.set	.LANCHOR2,. + 0
 1512              		.type	__func__.9852, %object
 1513              		.size	__func__.9852, 8
 1514              	__func__.9852:
 1515 0000 63616E53 		.ascii	"canStop\000"
 1515      746F7000 
 1516              		.section	.rodata.__func__.9859,"a",%progbits
 1517              		.align	2
 1518              		.set	.LANCHOR3,. + 0
 1519              		.type	__func__.9859, %object
 1520              		.size	__func__.9859, 12
 1521              	__func__.9859:
 1522 0000 63616E54 		.ascii	"canTransmit\000"
 1522      72616E73 
 1522      6D697400 
 1523              		.section	.rodata.__func__.9870,"a",%progbits
 1524              		.align	2
 1525              		.set	.LANCHOR4,. + 0
 1526              		.type	__func__.9870, %object
 1527              		.size	__func__.9870, 11
 1528              	__func__.9870:
 1529 0000 63616E52 		.ascii	"canReceive\000"
 1529      65636569 
 1529      766500
 1530              		.section	.rodata.__func__.9878,"a",%progbits
ARM GAS  C:\Users\Moi\AppData\Local\Temp\ccmZvf6L.s 			page 28


 1531              		.align	2
 1532              		.set	.LANCHOR5,. + 0
 1533              		.type	__func__.9878, %object
 1534              		.size	__func__.9878, 9
 1535              	__func__.9878:
 1536 0000 63616E53 		.ascii	"canSleep\000"
 1536      6C656570 
 1536      00
 1537              		.section	.rodata.__func__.9882,"a",%progbits
 1538              		.align	2
 1539              		.set	.LANCHOR6,. + 0
 1540              		.type	__func__.9882, %object
 1541              		.size	__func__.9882, 10
 1542              	__func__.9882:
 1543 0000 63616E57 		.ascii	"canWakeup\000"
 1543      616B6575 
 1543      7000
 1544              		.text
 1545              	.Letext0:
 1546              		.file 7 "c:\\users\\moi\\documents\\_microinfo\\epuck-eclipse\\tools\\gcc-arm-none-eabi-7-2017-q4-
 1547              		.file 8 "c:\\users\\moi\\documents\\_microinfo\\epuck-eclipse\\tools\\gcc-arm-none-eabi-7-2017-q4-
 1548              		.file 9 "c:\\users\\moi\\documents\\_microinfo\\epuck-eclipse\\tools\\gcc-arm-none-eabi-7-2017-q4-
 1549              		.file 10 ".//ChibiOS//os/rt/ports/ARMCMx/compilers/GCC/chtypes.h"
 1550              		.file 11 ".//ChibiOS//os/rt/include/chsystypes.h"
 1551              		.file 12 ".//ChibiOS//os/ext/CMSIS/include/core_cm4.h"
 1552              		.file 13 ".//ChibiOS//os/ext/CMSIS/ST/system_stm32f4xx.h"
 1553              		.file 14 ".//ChibiOS//os/ext/CMSIS/ST/stm32f407xx.h"
 1554              		.file 15 ".//ChibiOS//os/rt/ports/ARMCMx/chcore.h"
 1555              		.file 16 ".//ChibiOS//os/rt/ports/ARMCMx/chcore_v7m.h"
 1556              		.file 17 ".//ChibiOS//os/rt/include/chdebug.h"
 1557              		.file 18 ".//ChibiOS//os/rt/include/chtm.h"
 1558              		.file 19 ".//ChibiOS//os/rt/include/chstats.h"
 1559              		.file 20 ".//ChibiOS//os/rt/include/chsem.h"
 1560              		.file 21 ".//ChibiOS//os/rt/include/chmtx.h"
 1561              		.file 22 ".//ChibiOS//os/rt/include/chregistry.h"
 1562              		.file 23 ".//ChibiOS//os/rt/include/chqueues.h"
 1563              		.file 24 ".//ChibiOS//os/hal/ports/STM32/STM32F4xx/stm32_dma.h"
 1564              		.file 25 ".//ChibiOS//os/hal/include/hal_ioblock.h"
 1565              		.file 26 ".//ChibiOS//os/hal/ports/STM32/LLD/GPIOv2/pal_lld.h"
 1566              		.file 27 ".//ChibiOS//os/hal/include/adc.h"
 1567              		.file 28 ".//ChibiOS//os/hal/ports/STM32/STM32F4xx/adc_lld.h"
 1568              		.file 29 ".//ChibiOS//os/hal/include/can.h"
 1569              		.file 30 ".//ChibiOS//os/hal/ports/STM32/LLD/can_lld.h"
 1570              		.file 31 ".//ChibiOS//os/hal/include/dac.h"
 1571              		.file 32 ".//ChibiOS//os/hal/ports/STM32/LLD/DACv1/dac_lld.h"
 1572              		.file 33 ".//ChibiOS//os/hal/include/ext.h"
 1573              		.file 34 ".//ChibiOS//os/hal/ports/STM32/LLD/ext_lld.h"
 1574              		.file 35 ".//ChibiOS//os/hal/include/gpt.h"
 1575              		.file 36 ".//ChibiOS//os/hal/ports/STM32/LLD/TIMv1/gpt_lld.h"
 1576              		.file 37 ".//ChibiOS//os/hal/ports/STM32/LLD/TIMv1/stm32_tim.h"
 1577              		.file 38 ".//ChibiOS//os/hal/include/i2c.h"
 1578              		.file 39 ".//ChibiOS//os/hal/ports/STM32/LLD/I2Cv1/i2c_lld.h"
 1579              		.file 40 ".//ChibiOS//os/hal/include/i2s.h"
 1580              		.file 41 ".//ChibiOS//os/hal/ports/STM32/LLD/SPIv1/i2s_lld.h"
 1581              		.file 42 ".//ChibiOS//os/hal/include/pwm.h"
 1582              		.file 43 ".//ChibiOS//os/hal/ports/STM32/LLD/TIMv1/pwm_lld.h"
 1583              		.file 44 ".//ChibiOS//os/hal/include/serial.h"
ARM GAS  C:\Users\Moi\AppData\Local\Temp\ccmZvf6L.s 			page 29


 1584              		.file 45 ".//ChibiOS//os/hal/ports/STM32/LLD/USARTv1/serial_lld.h"
 1585              		.file 46 ".//ChibiOS//os/hal/include/sdc.h"
 1586              		.file 47 ".//ChibiOS//os/hal/ports/STM32/LLD/sdc_lld.h"
 1587              		.file 48 ".//ChibiOS//os/hal/include/spi.h"
 1588              		.file 49 ".//ChibiOS//os/hal/ports/STM32/LLD/SPIv1/spi_lld.h"
 1589              		.file 50 ".//ChibiOS//os/hal/include/usb.h"
 1590              		.file 51 ".//ChibiOS//os/hal/ports/STM32/LLD/OTGv1/usb_lld.h"
 1591              		.file 52 ".//ChibiOS//os/hal/ports/STM32/LLD/OTGv1/stm32_otg.h"
 1592              		.file 53 ".//ChibiOS//os/rt/include/chthreads.h"
