ARM GAS  C:\Users\Moi\AppData\Local\Temp\ccilOSrR.s 			page 1


   1              		.cpu cortex-m4
   2              		.eabi_attribute 27, 1
   3              		.eabi_attribute 28, 1
   4              		.eabi_attribute 20, 1
   5              		.eabi_attribute 21, 1
   6              		.eabi_attribute 23, 3
   7              		.eabi_attribute 24, 1
   8              		.eabi_attribute 25, 1
   9              		.eabi_attribute 26, 1
  10              		.eabi_attribute 30, 2
  11              		.eabi_attribute 34, 1
  12              		.eabi_attribute 18, 4
  13              		.file	"e_agenda.c"
  14              		.text
  15              	.Ltext0:
  16              		.cfi_sections	.debug_frame
  17              		.section	.text.e_start_agendas_processing,"ax",%progbits
  18              		.align	1
  19              		.p2align 4,,15
  20              		.global	e_start_agendas_processing
  21              		.syntax unified
  22              		.thumb
  23              		.thumb_func
  24              		.fpu fpv4-sp-d16
  25              		.type	e_start_agendas_processing, %function
  26              	e_start_agendas_processing:
  27              	.LFB0:
  28              		.file 1 ".//src/epuck1x/motor_led/advance_one_timer/e_agenda.c"
  29              		.loc 1 49 0
  30              		.cfi_startproc
  31              		@ args = 0, pretend = 0, frame = 8
  32              		@ frame_needed = 0, uses_anonymous_args = 0
  33 0000 00B5     		push	{lr}
  34              		.cfi_def_cfa_offset 4
  35              		.cfi_offset 14, -4
  36 0002 064B     		ldr	r3, .L6
  37 0004 83B0     		sub	sp, sp, #12
  38              		.cfi_def_cfa_offset 16
  39              		.loc 1 49 0
  40 0006 1A68     		ldr	r2, [r3]
  41 0008 0192     		str	r2, [sp, #4]
  42              		.loc 1 57 0
  43 000a 019A     		ldr	r2, [sp, #4]
  44 000c 1B68     		ldr	r3, [r3]
  45 000e 9A42     		cmp	r2, r3
  46 0010 02D1     		bne	.L5
  47 0012 03B0     		add	sp, sp, #12
  48              		.cfi_remember_state
  49              		.cfi_def_cfa_offset 4
  50              		@ sp needed
  51 0014 5DF804FB 		ldr	pc, [sp], #4
  52              	.L5:
  53              		.cfi_restore_state
  54 0018 FFF7FEFF 		bl	__stack_chk_fail
  55              	.LVL0:
  56              	.L7:
  57              		.align	2
ARM GAS  C:\Users\Moi\AppData\Local\Temp\ccilOSrR.s 			page 2


  58              	.L6:
  59 001c 00000000 		.word	__stack_chk_guard
  60              		.cfi_endproc
  61              	.LFE0:
  62              		.size	e_start_agendas_processing, .-e_start_agendas_processing
  63              		.section	.text.e_end_agendas_processing,"ax",%progbits
  64              		.align	1
  65              		.p2align 4,,15
  66              		.global	e_end_agendas_processing
  67              		.syntax unified
  68              		.thumb
  69              		.thumb_func
  70              		.fpu fpv4-sp-d16
  71              		.type	e_end_agendas_processing, %function
  72              	e_end_agendas_processing:
  73              	.LFB9:
  74              		.cfi_startproc
  75              		@ args = 0, pretend = 0, frame = 8
  76              		@ frame_needed = 0, uses_anonymous_args = 0
  77 0000 00B5     		push	{lr}
  78              		.cfi_def_cfa_offset 4
  79              		.cfi_offset 14, -4
  80 0002 064B     		ldr	r3, .L12
  81 0004 83B0     		sub	sp, sp, #12
  82              		.cfi_def_cfa_offset 16
  83 0006 1A68     		ldr	r2, [r3]
  84 0008 0192     		str	r2, [sp, #4]
  85 000a 019A     		ldr	r2, [sp, #4]
  86 000c 1B68     		ldr	r3, [r3]
  87 000e 9A42     		cmp	r2, r3
  88 0010 02D1     		bne	.L11
  89 0012 03B0     		add	sp, sp, #12
  90              		.cfi_remember_state
  91              		.cfi_def_cfa_offset 4
  92              		@ sp needed
  93 0014 5DF804FB 		ldr	pc, [sp], #4
  94              	.L11:
  95              		.cfi_restore_state
  96 0018 FFF7FEFF 		bl	__stack_chk_fail
  97              	.L13:
  98              		.align	2
  99              	.L12:
 100 001c 00000000 		.word	__stack_chk_guard
 101              		.cfi_endproc
 102              	.LFE9:
 103              		.size	e_end_agendas_processing, .-e_end_agendas_processing
 104              		.section	.text.e_activate_agenda,"ax",%progbits
 105              		.align	1
 106              		.p2align 4,,15
 107              		.global	e_activate_agenda
 108              		.syntax unified
 109              		.thumb
 110              		.thumb_func
 111              		.fpu fpv4-sp-d16
 112              		.type	e_activate_agenda, %function
 113              	e_activate_agenda:
 114              	.LFB2:
ARM GAS  C:\Users\Moi\AppData\Local\Temp\ccilOSrR.s 			page 3


 115              		.loc 1 84 0
 116              		.cfi_startproc
 117              		@ args = 0, pretend = 0, frame = 8
 118              		@ frame_needed = 0, uses_anonymous_args = 0
 119              	.LVL1:
 120              		.loc 1 84 0
 121 0000 00B5     		push	{lr}
 122              		.cfi_def_cfa_offset 4
 123              		.cfi_offset 14, -4
 124 0002 074B     		ldr	r3, .L18
 125 0004 83B0     		sub	sp, sp, #12
 126              		.cfi_def_cfa_offset 16
 127              		.loc 1 84 0
 128 0006 1A68     		ldr	r2, [r3]
 129 0008 0192     		str	r2, [sp, #4]
 130              		.loc 1 109 0
 131 000a 019A     		ldr	r2, [sp, #4]
 132 000c 1B68     		ldr	r3, [r3]
 133 000e 9A42     		cmp	r2, r3
 134 0010 03D1     		bne	.L17
 135 0012 0020     		movs	r0, #0
 136              	.LVL2:
 137 0014 03B0     		add	sp, sp, #12
 138              		.cfi_remember_state
 139              		.cfi_def_cfa_offset 4
 140              		@ sp needed
 141 0016 5DF804FB 		ldr	pc, [sp], #4
 142              	.LVL3:
 143              	.L17:
 144              		.cfi_restore_state
 145 001a FFF7FEFF 		bl	__stack_chk_fail
 146              	.LVL4:
 147              	.L19:
 148 001e 00BF     		.align	2
 149              	.L18:
 150 0020 00000000 		.word	__stack_chk_guard
 151              		.cfi_endproc
 152              	.LFE2:
 153              		.size	e_activate_agenda, .-e_activate_agenda
 154              		.section	.text.e_destroy_agenda,"ax",%progbits
 155              		.align	1
 156              		.p2align 4,,15
 157              		.global	e_destroy_agenda
 158              		.syntax unified
 159              		.thumb
 160              		.thumb_func
 161              		.fpu fpv4-sp-d16
 162              		.type	e_destroy_agenda, %function
 163              	e_destroy_agenda:
 164              	.LFB3:
 165              		.loc 1 119 0
 166              		.cfi_startproc
 167              		@ args = 0, pretend = 0, frame = 8
 168              		@ frame_needed = 0, uses_anonymous_args = 0
 169              	.LVL5:
 170 0000 00B5     		push	{lr}
 171              		.cfi_def_cfa_offset 4
ARM GAS  C:\Users\Moi\AppData\Local\Temp\ccilOSrR.s 			page 4


 172              		.cfi_offset 14, -4
 173 0002 074B     		ldr	r3, .L24
 174 0004 83B0     		sub	sp, sp, #12
 175              		.cfi_def_cfa_offset 16
 176              		.loc 1 119 0
 177 0006 1A68     		ldr	r2, [r3]
 178 0008 0192     		str	r2, [sp, #4]
 179              		.loc 1 145 0
 180 000a 019A     		ldr	r2, [sp, #4]
 181 000c 1B68     		ldr	r3, [r3]
 182 000e 9A42     		cmp	r2, r3
 183 0010 03D1     		bne	.L23
 184 0012 0020     		movs	r0, #0
 185              	.LVL6:
 186 0014 03B0     		add	sp, sp, #12
 187              		.cfi_remember_state
 188              		.cfi_def_cfa_offset 4
 189              		@ sp needed
 190 0016 5DF804FB 		ldr	pc, [sp], #4
 191              	.LVL7:
 192              	.L23:
 193              		.cfi_restore_state
 194 001a FFF7FEFF 		bl	__stack_chk_fail
 195              	.LVL8:
 196              	.L25:
 197 001e 00BF     		.align	2
 198              	.L24:
 199 0020 00000000 		.word	__stack_chk_guard
 200              		.cfi_endproc
 201              	.LFE3:
 202              		.size	e_destroy_agenda, .-e_destroy_agenda
 203              		.section	.text.e_set_agenda_cycle,"ax",%progbits
 204              		.align	1
 205              		.p2align 4,,15
 206              		.global	e_set_agenda_cycle
 207              		.syntax unified
 208              		.thumb
 209              		.thumb_func
 210              		.fpu fpv4-sp-d16
 211              		.type	e_set_agenda_cycle, %function
 212              	e_set_agenda_cycle:
 213              	.LFB11:
 214              		.cfi_startproc
 215              		@ args = 0, pretend = 0, frame = 8
 216              		@ frame_needed = 0, uses_anonymous_args = 0
 217 0000 00B5     		push	{lr}
 218              		.cfi_def_cfa_offset 4
 219              		.cfi_offset 14, -4
 220 0002 074B     		ldr	r3, .L30
 221 0004 83B0     		sub	sp, sp, #12
 222              		.cfi_def_cfa_offset 16
 223 0006 1A68     		ldr	r2, [r3]
 224 0008 0192     		str	r2, [sp, #4]
 225 000a 019A     		ldr	r2, [sp, #4]
 226 000c 1B68     		ldr	r3, [r3]
 227 000e 9A42     		cmp	r2, r3
 228 0010 03D1     		bne	.L29
ARM GAS  C:\Users\Moi\AppData\Local\Temp\ccilOSrR.s 			page 5


 229 0012 0020     		movs	r0, #0
 230 0014 03B0     		add	sp, sp, #12
 231              		.cfi_remember_state
 232              		.cfi_def_cfa_offset 4
 233              		@ sp needed
 234 0016 5DF804FB 		ldr	pc, [sp], #4
 235              	.L29:
 236              		.cfi_restore_state
 237 001a FFF7FEFF 		bl	__stack_chk_fail
 238              	.L31:
 239 001e 00BF     		.align	2
 240              	.L30:
 241 0020 00000000 		.word	__stack_chk_guard
 242              		.cfi_endproc
 243              	.LFE11:
 244              		.size	e_set_agenda_cycle, .-e_set_agenda_cycle
 245              		.section	.text.e_reset_agenda,"ax",%progbits
 246              		.align	1
 247              		.p2align 4,,15
 248              		.global	e_reset_agenda
 249              		.syntax unified
 250              		.thumb
 251              		.thumb_func
 252              		.fpu fpv4-sp-d16
 253              		.type	e_reset_agenda, %function
 254              	e_reset_agenda:
 255              	.LFB13:
 256              		.cfi_startproc
 257              		@ args = 0, pretend = 0, frame = 8
 258              		@ frame_needed = 0, uses_anonymous_args = 0
 259 0000 00B5     		push	{lr}
 260              		.cfi_def_cfa_offset 4
 261              		.cfi_offset 14, -4
 262 0002 074B     		ldr	r3, .L36
 263 0004 83B0     		sub	sp, sp, #12
 264              		.cfi_def_cfa_offset 16
 265 0006 1A68     		ldr	r2, [r3]
 266 0008 0192     		str	r2, [sp, #4]
 267 000a 019A     		ldr	r2, [sp, #4]
 268 000c 1B68     		ldr	r3, [r3]
 269 000e 9A42     		cmp	r2, r3
 270 0010 03D1     		bne	.L35
 271 0012 0020     		movs	r0, #0
 272 0014 03B0     		add	sp, sp, #12
 273              		.cfi_remember_state
 274              		.cfi_def_cfa_offset 4
 275              		@ sp needed
 276 0016 5DF804FB 		ldr	pc, [sp], #4
 277              	.L35:
 278              		.cfi_restore_state
 279 001a FFF7FEFF 		bl	__stack_chk_fail
 280              	.L37:
 281 001e 00BF     		.align	2
 282              	.L36:
 283 0020 00000000 		.word	__stack_chk_guard
 284              		.cfi_endproc
 285              	.LFE13:
ARM GAS  C:\Users\Moi\AppData\Local\Temp\ccilOSrR.s 			page 6


 286              		.size	e_reset_agenda, .-e_reset_agenda
 287              		.section	.text.e_pause_agenda,"ax",%progbits
 288              		.align	1
 289              		.p2align 4,,15
 290              		.global	e_pause_agenda
 291              		.syntax unified
 292              		.thumb
 293              		.thumb_func
 294              		.fpu fpv4-sp-d16
 295              		.type	e_pause_agenda, %function
 296              	e_pause_agenda:
 297              	.LFB15:
 298              		.cfi_startproc
 299              		@ args = 0, pretend = 0, frame = 8
 300              		@ frame_needed = 0, uses_anonymous_args = 0
 301 0000 00B5     		push	{lr}
 302              		.cfi_def_cfa_offset 4
 303              		.cfi_offset 14, -4
 304 0002 074B     		ldr	r3, .L42
 305 0004 83B0     		sub	sp, sp, #12
 306              		.cfi_def_cfa_offset 16
 307 0006 1A68     		ldr	r2, [r3]
 308 0008 0192     		str	r2, [sp, #4]
 309 000a 019A     		ldr	r2, [sp, #4]
 310 000c 1B68     		ldr	r3, [r3]
 311 000e 9A42     		cmp	r2, r3
 312 0010 03D1     		bne	.L41
 313 0012 0020     		movs	r0, #0
 314 0014 03B0     		add	sp, sp, #12
 315              		.cfi_remember_state
 316              		.cfi_def_cfa_offset 4
 317              		@ sp needed
 318 0016 5DF804FB 		ldr	pc, [sp], #4
 319              	.L41:
 320              		.cfi_restore_state
 321 001a FFF7FEFF 		bl	__stack_chk_fail
 322              	.L43:
 323 001e 00BF     		.align	2
 324              	.L42:
 325 0020 00000000 		.word	__stack_chk_guard
 326              		.cfi_endproc
 327              	.LFE15:
 328              		.size	e_pause_agenda, .-e_pause_agenda
 329              		.section	.text.e_restart_agenda,"ax",%progbits
 330              		.align	1
 331              		.p2align 4,,15
 332              		.global	e_restart_agenda
 333              		.syntax unified
 334              		.thumb
 335              		.thumb_func
 336              		.fpu fpv4-sp-d16
 337              		.type	e_restart_agenda, %function
 338              	e_restart_agenda:
 339              	.LFB17:
 340              		.cfi_startproc
 341              		@ args = 0, pretend = 0, frame = 8
 342              		@ frame_needed = 0, uses_anonymous_args = 0
ARM GAS  C:\Users\Moi\AppData\Local\Temp\ccilOSrR.s 			page 7


 343 0000 00B5     		push	{lr}
 344              		.cfi_def_cfa_offset 4
 345              		.cfi_offset 14, -4
 346 0002 074B     		ldr	r3, .L48
 347 0004 83B0     		sub	sp, sp, #12
 348              		.cfi_def_cfa_offset 16
 349 0006 1A68     		ldr	r2, [r3]
 350 0008 0192     		str	r2, [sp, #4]
 351 000a 019A     		ldr	r2, [sp, #4]
 352 000c 1B68     		ldr	r3, [r3]
 353 000e 9A42     		cmp	r2, r3
 354 0010 03D1     		bne	.L47
 355 0012 0020     		movs	r0, #0
 356 0014 03B0     		add	sp, sp, #12
 357              		.cfi_remember_state
 358              		.cfi_def_cfa_offset 4
 359              		@ sp needed
 360 0016 5DF804FB 		ldr	pc, [sp], #4
 361              	.L47:
 362              		.cfi_restore_state
 363 001a FFF7FEFF 		bl	__stack_chk_fail
 364              	.L49:
 365 001e 00BF     		.align	2
 366              	.L48:
 367 0020 00000000 		.word	__stack_chk_guard
 368              		.cfi_endproc
 369              	.LFE17:
 370              		.size	e_restart_agenda, .-e_restart_agenda
 371              		.text
 372              	.Letext0:
 373              		.file 2 "c:\\users\\moi\\documents\\_microinfo\\epuck-eclipse\\tools\\gcc-arm-none-eabi-7-2017-q4-
 374              		.file 3 "c:\\users\\moi\\documents\\_microinfo\\epuck-eclipse\\tools\\gcc-arm-none-eabi-7-2017-q4-
 375              		.file 4 "c:\\users\\moi\\documents\\_microinfo\\epuck-eclipse\\tools\\gcc-arm-none-eabi-7-2017-q4-
 376              		.file 5 "c:\\users\\moi\\documents\\_microinfo\\epuck-eclipse\\tools\\gcc-arm-none-eabi-7-2017-q4-
 377              		.file 6 "c:\\users\\moi\\documents\\_microinfo\\epuck-eclipse\\tools\\gcc-arm-none-eabi-7-2017-q4-
