ARM GAS  C:\Users\Moi\AppData\Local\Temp\cczPCYWj.s 			page 1


   1              		.cpu cortex-m4
   2              		.eabi_attribute 27, 1
   3              		.eabi_attribute 28, 1
   4              		.eabi_attribute 20, 1
   5              		.eabi_attribute 21, 1
   6              		.eabi_attribute 23, 3
   7              		.eabi_attribute 24, 1
   8              		.eabi_attribute 25, 1
   9              		.eabi_attribute 26, 1
  10              		.eabi_attribute 30, 2
  11              		.eabi_attribute 34, 1
  12              		.eabi_attribute 18, 4
  13              		.file	"gpt_lld.c"
  14              		.text
  15              	.Ltext0:
  16              		.cfi_sections	.debug_frame
  17              		.section	.text.gpt_lld_serve_interrupt,"ax",%progbits
  18              		.align	1
  19              		.p2align 4,,15
  20              		.syntax unified
  21              		.thumb
  22              		.thumb_func
  23              		.fpu fpv4-sp-d16
  24              		.type	gpt_lld_serve_interrupt, %function
  25              	gpt_lld_serve_interrupt:
  26              	.LFB256:
  27              		.file 1 ".//ChibiOS//os/hal/ports/STM32/LLD/TIMv1/gpt_lld.c"
  28              		.loc 1 146 0
  29              		.cfi_startproc
  30              		@ args = 0, pretend = 0, frame = 8
  31              		@ frame_needed = 0, uses_anonymous_args = 0
  32              	.LVL0:
  33 0000 10B5     		push	{r4, lr}
  34              		.cfi_def_cfa_offset 8
  35              		.cfi_offset 4, -8
  36              		.cfi_offset 14, -4
  37 0002 104B     		ldr	r3, .L8
  38              		.loc 1 148 0
  39 0004 C168     		ldr	r1, [r0, #12]
  40              		.loc 1 146 0
  41 0006 1A68     		ldr	r2, [r3]
  42 0008 82B0     		sub	sp, sp, #8
  43              		.cfi_def_cfa_offset 16
  44              		.loc 1 146 0
  45 000a 0192     		str	r2, [sp, #4]
  46              		.loc 1 148 0
  47 000c 0022     		movs	r2, #0
  48 000e 0A61     		str	r2, [r1, #16]
  49              		.loc 1 149 0
  50 0010 0178     		ldrb	r1, [r0]	@ zero_extendqisi2
  51 0012 0429     		cmp	r1, #4
  52 0014 0AD1     		bne	.L2
  53              	.LBB4:
  54              	.LBB5:
  55              		.loc 1 733 0
  56 0016 C168     		ldr	r1, [r0, #12]
  57              	.LBE5:
ARM GAS  C:\Users\Moi\AppData\Local\Temp\cczPCYWj.s 			page 2


  58              	.LBE4:
  59              		.loc 1 150 0
  60 0018 0224     		movs	r4, #2
  61 001a 0470     		strb	r4, [r0]
  62              	.LVL1:
  63              	.LBB7:
  64              	.LBB6:
  65              		.loc 1 733 0
  66 001c 0A60     		str	r2, [r1]
  67              		.loc 1 734 0
  68 001e C168     		ldr	r1, [r0, #12]
  69 0020 0A61     		str	r2, [r1, #16]
  70              		.loc 1 737 0
  71 0022 C168     		ldr	r1, [r0, #12]
  72 0024 CA68     		ldr	r2, [r1, #12]
  73 0026 22F0FF02 		bic	r2, r2, #255
  74 002a CA60     		str	r2, [r1, #12]
  75              	.LVL2:
  76              	.L2:
  77              	.LBE6:
  78              	.LBE7:
  79              		.loc 1 153 0
  80 002c 019A     		ldr	r2, [sp, #4]
  81 002e 1B68     		ldr	r3, [r3]
  82 0030 9A42     		cmp	r2, r3
  83 0032 05D1     		bne	.L7
  84 0034 4368     		ldr	r3, [r0, #4]
  85 0036 5B68     		ldr	r3, [r3, #4]
  86              		.loc 1 154 0
  87 0038 02B0     		add	sp, sp, #8
  88              		.cfi_remember_state
  89              		.cfi_def_cfa_offset 8
  90              		@ sp needed
  91 003a BDE81040 		pop	{r4, lr}
  92              		.cfi_restore 14
  93              		.cfi_restore 4
  94              		.cfi_def_cfa_offset 0
  95              		.loc 1 153 0
  96 003e 1847     		bx	r3	@ indirect register sibling call
  97              	.LVL3:
  98              	.L7:
  99              		.cfi_restore_state
 100 0040 FFF7FEFF 		bl	__stack_chk_fail
 101              	.LVL4:
 102              	.L9:
 103              		.align	2
 104              	.L8:
 105 0044 00000000 		.word	__stack_chk_guard
 106              		.cfi_endproc
 107              	.LFE256:
 108              		.size	gpt_lld_serve_interrupt, .-gpt_lld_serve_interrupt
 109              		.section	.text.Vector118,"ax",%progbits
 110              		.align	1
 111              		.p2align 4,,15
 112              		.global	Vector118
 113              		.syntax unified
 114              		.thumb
ARM GAS  C:\Users\Moi\AppData\Local\Temp\cczPCYWj.s 			page 3


 115              		.thumb_func
 116              		.fpu fpv4-sp-d16
 117              		.type	Vector118, %function
 118              	Vector118:
 119              	.LFB257:
 120              		.loc 1 264 0
 121              		.cfi_startproc
 122              		@ args = 0, pretend = 0, frame = 8
 123              		@ frame_needed = 0, uses_anonymous_args = 0
 124 0000 10B5     		push	{r4, lr}
 125              		.cfi_def_cfa_offset 8
 126              		.cfi_offset 4, -8
 127              		.cfi_offset 14, -4
 128 0002 0C4C     		ldr	r4, .L15
 129 0004 82B0     		sub	sp, sp, #8
 130              		.cfi_def_cfa_offset 16
 131              		.loc 1 264 0
 132 0006 2368     		ldr	r3, [r4]
 133 0008 0193     		str	r3, [sp, #4]
 134              		.loc 1 266 0
 135 000a FFF7FEFF 		bl	_stats_increase_irq
 136              	.LVL5:
 137 000e FFF7FEFF 		bl	_dbg_check_enter_isr
 138              	.LVL6:
 139              		.loc 1 268 0
 140 0012 0948     		ldr	r0, .L15+4
 141 0014 FFF7FEFF 		bl	gpt_lld_serve_interrupt
 142              	.LVL7:
 143              		.loc 1 270 0
 144 0018 FFF7FEFF 		bl	_dbg_check_leave_isr
 145              	.LVL8:
 146 001c 019A     		ldr	r2, [sp, #4]
 147 001e 2368     		ldr	r3, [r4]
 148 0020 9A42     		cmp	r2, r3
 149 0022 04D1     		bne	.L14
 150              		.loc 1 271 0
 151 0024 02B0     		add	sp, sp, #8
 152              		.cfi_remember_state
 153              		.cfi_def_cfa_offset 8
 154              		@ sp needed
 155 0026 BDE81040 		pop	{r4, lr}
 156              		.cfi_restore 14
 157              		.cfi_restore 4
 158              		.cfi_def_cfa_offset 0
 159              		.loc 1 270 0
 160 002a FFF7FEBF 		b	_port_irq_epilogue
 161              	.LVL9:
 162              	.L14:
 163              		.cfi_restore_state
 164 002e FFF7FEFF 		bl	__stack_chk_fail
 165              	.LVL10:
 166              	.L16:
 167 0032 00BF     		.align	2
 168              	.L15:
 169 0034 00000000 		.word	__stack_chk_guard
 170 0038 00000000 		.word	.LANCHOR0
 171              		.cfi_endproc
ARM GAS  C:\Users\Moi\AppData\Local\Temp\cczPCYWj.s 			page 4


 172              	.LFE257:
 173              		.size	Vector118, .-Vector118
 174              		.section	.text.VectorA8,"ax",%progbits
 175              		.align	1
 176              		.p2align 4,,15
 177              		.global	VectorA8
 178              		.syntax unified
 179              		.thumb
 180              		.thumb_func
 181              		.fpu fpv4-sp-d16
 182              		.type	VectorA8, %function
 183              	VectorA8:
 184              	.LFB258:
 185              		.loc 1 340 0
 186              		.cfi_startproc
 187              		@ args = 0, pretend = 0, frame = 8
 188              		@ frame_needed = 0, uses_anonymous_args = 0
 189 0000 10B5     		push	{r4, lr}
 190              		.cfi_def_cfa_offset 8
 191              		.cfi_offset 4, -8
 192              		.cfi_offset 14, -4
 193 0002 0C4C     		ldr	r4, .L22
 194 0004 82B0     		sub	sp, sp, #8
 195              		.cfi_def_cfa_offset 16
 196              		.loc 1 340 0
 197 0006 2368     		ldr	r3, [r4]
 198 0008 0193     		str	r3, [sp, #4]
 199              		.loc 1 342 0
 200 000a FFF7FEFF 		bl	_stats_increase_irq
 201              	.LVL11:
 202 000e FFF7FEFF 		bl	_dbg_check_enter_isr
 203              	.LVL12:
 204              		.loc 1 344 0
 205 0012 0948     		ldr	r0, .L22+4
 206 0014 FFF7FEFF 		bl	gpt_lld_serve_interrupt
 207              	.LVL13:
 208              		.loc 1 346 0
 209 0018 FFF7FEFF 		bl	_dbg_check_leave_isr
 210              	.LVL14:
 211 001c 019A     		ldr	r2, [sp, #4]
 212 001e 2368     		ldr	r3, [r4]
 213 0020 9A42     		cmp	r2, r3
 214 0022 04D1     		bne	.L21
 215              		.loc 1 347 0
 216 0024 02B0     		add	sp, sp, #8
 217              		.cfi_remember_state
 218              		.cfi_def_cfa_offset 8
 219              		@ sp needed
 220 0026 BDE81040 		pop	{r4, lr}
 221              		.cfi_restore 14
 222              		.cfi_restore 4
 223              		.cfi_def_cfa_offset 0
 224              		.loc 1 346 0
 225 002a FFF7FEBF 		b	_port_irq_epilogue
 226              	.LVL15:
 227              	.L21:
 228              		.cfi_restore_state
ARM GAS  C:\Users\Moi\AppData\Local\Temp\cczPCYWj.s 			page 5


 229 002e FFF7FEFF 		bl	__stack_chk_fail
 230              	.LVL16:
 231              	.L23:
 232 0032 00BF     		.align	2
 233              	.L22:
 234 0034 00000000 		.word	__stack_chk_guard
 235 0038 00000000 		.word	.LANCHOR1
 236              		.cfi_endproc
 237              	.LFE258:
 238              		.size	VectorA8, .-VectorA8
 239              		.section	.text.gpt_lld_init,"ax",%progbits
 240              		.align	1
 241              		.p2align 4,,15
 242              		.global	gpt_lld_init
 243              		.syntax unified
 244              		.thumb
 245              		.thumb_func
 246              		.fpu fpv4-sp-d16
 247              		.type	gpt_lld_init, %function
 248              	gpt_lld_init:
 249              	.LFB259:
 250              		.loc 1 397 0
 251              		.cfi_startproc
 252              		@ args = 0, pretend = 0, frame = 8
 253              		@ frame_needed = 0, uses_anonymous_args = 0
 254 0000 10B5     		push	{r4, lr}
 255              		.cfi_def_cfa_offset 8
 256              		.cfi_offset 4, -8
 257              		.cfi_offset 14, -4
 258              		.loc 1 431 0
 259 0002 0C4B     		ldr	r3, .L29
 260              		.loc 1 397 0
 261 0004 0C4C     		ldr	r4, .L29+4
 262              		.loc 1 431 0
 263 0006 0D4A     		ldr	r2, .L29+8
 264              		.loc 1 397 0
 265 0008 2168     		ldr	r1, [r4]
 266              		.loc 1 431 0
 267 000a DA60     		str	r2, [r3, #12]
 268              		.loc 1 397 0
 269 000c 82B0     		sub	sp, sp, #8
 270              		.cfi_def_cfa_offset 16
 271              		.loc 1 432 0
 272 000e 1846     		mov	r0, r3
 273              		.loc 1 397 0
 274 0010 0191     		str	r1, [sp, #4]
 275              		.loc 1 432 0
 276 0012 FFF7FEFF 		bl	gptObjectInit
 277              	.LVL17:
 278              		.loc 1 456 0
 279 0016 019A     		ldr	r2, [sp, #4]
 280 0018 2368     		ldr	r3, [r4]
 281              		.loc 1 455 0
 282 001a 0948     		ldr	r0, .L29+12
 283 001c 0949     		ldr	r1, .L29+16
 284 001e C160     		str	r1, [r0, #12]
 285              		.loc 1 456 0
ARM GAS  C:\Users\Moi\AppData\Local\Temp\cczPCYWj.s 			page 6


 286 0020 9A42     		cmp	r2, r3
 287 0022 04D1     		bne	.L28
 288              		.loc 1 470 0
 289 0024 02B0     		add	sp, sp, #8
 290              		.cfi_remember_state
 291              		.cfi_def_cfa_offset 8
 292              		@ sp needed
 293 0026 BDE81040 		pop	{r4, lr}
 294              		.cfi_restore 14
 295              		.cfi_restore 4
 296              		.cfi_def_cfa_offset 0
 297              		.loc 1 456 0
 298 002a FFF7FEBF 		b	gptObjectInit
 299              	.LVL18:
 300              	.L28:
 301              		.cfi_restore_state
 302 002e FFF7FEFF 		bl	__stack_chk_fail
 303              	.LVL19:
 304              	.L30:
 305 0032 00BF     		.align	2
 306              	.L29:
 307 0034 00000000 		.word	.LANCHOR0
 308 0038 00000000 		.word	__stack_chk_guard
 309 003c 00100040 		.word	1073745920
 310 0040 00000000 		.word	.LANCHOR1
 311 0044 00480140 		.word	1073825792
 312              		.cfi_endproc
 313              	.LFE259:
 314              		.size	gpt_lld_init, .-gpt_lld_init
 315              		.section	.text.gpt_lld_start,"ax",%progbits
 316              		.align	1
 317              		.p2align 4,,15
 318              		.global	gpt_lld_start
 319              		.syntax unified
 320              		.thumb
 321              		.thumb_func
 322              		.fpu fpv4-sp-d16
 323              		.type	gpt_lld_start, %function
 324              	gpt_lld_start:
 325              	.LFB260:
 326              		.loc 1 479 0
 327              		.cfi_startproc
 328              		@ args = 0, pretend = 0, frame = 8
 329              		@ frame_needed = 0, uses_anonymous_args = 0
 330              	.LVL20:
 331 0000 70B5     		push	{r4, r5, r6, lr}
 332              		.cfi_def_cfa_offset 16
 333              		.cfi_offset 4, -16
 334              		.cfi_offset 5, -12
 335              		.cfi_offset 6, -8
 336              		.cfi_offset 14, -4
 337 0002 2C4E     		ldr	r6, .L40
 338              		.loc 1 482 0
 339 0004 0378     		ldrb	r3, [r0]	@ zero_extendqisi2
 340              		.loc 1 479 0
 341 0006 3268     		ldr	r2, [r6]
 342 0008 82B0     		sub	sp, sp, #8
ARM GAS  C:\Users\Moi\AppData\Local\Temp\cczPCYWj.s 			page 7


 343              		.cfi_def_cfa_offset 24
 344              		.loc 1 482 0
 345 000a 012B     		cmp	r3, #1
 346              		.loc 1 479 0
 347 000c 0446     		mov	r4, r0
 348 000e 0192     		str	r2, [sp, #4]
 349              		.loc 1 482 0
 350 0010 24D0     		beq	.L37
 351              	.LVL21:
 352              	.L32:
 353              		.loc 1 599 0
 354 0012 D4E90132 		ldrd	r3, r2, [r4, #4]
 355 0016 1B68     		ldr	r3, [r3]
 356 0018 B2FBF3F5 		udiv	r5, r2, r3
 357 001c 013D     		subs	r5, r5, #1
 358 001e ADB2     		uxth	r5, r5
 359              	.LVL22:
 360              		.loc 1 600 0
 361 0020 05FB0333 		mla	r3, r5, r3, r3
 362 0024 9A42     		cmp	r2, r3
 363 0026 02D0     		beq	.L34
 364              		.loc 1 600 0 is_stmt 0 discriminator 2
 365 0028 2348     		ldr	r0, .L40+4
 366 002a FFF7FEFF 		bl	chSysHalt
 367              	.LVL23:
 368              	.L34:
 369              		.loc 1 604 0 is_stmt 1
 370 002e E268     		ldr	r2, [r4, #12]
 371 0030 0023     		movs	r3, #0
 372 0032 1360     		str	r3, [r2]
 373              		.loc 1 605 0
 374 0034 6168     		ldr	r1, [r4, #4]
 375 0036 E268     		ldr	r2, [r4, #12]
 376 0038 8968     		ldr	r1, [r1, #8]
 377 003a 5160     		str	r1, [r2, #4]
 378              		.loc 1 606 0
 379 003c E268     		ldr	r2, [r4, #12]
 380 003e 9562     		str	r5, [r2, #40]
 381              		.loc 1 607 0
 382 0040 E268     		ldr	r2, [r4, #12]
 383 0042 1361     		str	r3, [r2, #16]
 384              		.loc 1 608 0
 385 0044 6368     		ldr	r3, [r4, #4]
 386 0046 E268     		ldr	r2, [r4, #12]
 387 0048 DB68     		ldr	r3, [r3, #12]
 388 004a 23F0FF03 		bic	r3, r3, #255
 389 004e D360     		str	r3, [r2, #12]
 390              		.loc 1 610 0
 391 0050 019A     		ldr	r2, [sp, #4]
 392 0052 3368     		ldr	r3, [r6]
 393 0054 9A42     		cmp	r2, r3
 394 0056 2BD1     		bne	.L38
 395 0058 02B0     		add	sp, sp, #8
 396              		.cfi_remember_state
 397              		.cfi_def_cfa_offset 16
 398              		@ sp needed
 399 005a 70BD     		pop	{r4, r5, r6, pc}
ARM GAS  C:\Users\Moi\AppData\Local\Temp\cczPCYWj.s 			page 8


 400              	.LVL24:
 401              	.L37:
 402              		.cfi_restore_state
 403              		.loc 1 531 0
 404 005c 174B     		ldr	r3, .L40+8
 405 005e 9842     		cmp	r0, r3
 406 0060 14D0     		beq	.L39
 407              		.loc 1 571 0
 408 0062 174B     		ldr	r3, .L40+12
 409 0064 9842     		cmp	r0, r3
 410 0066 D4D1     		bne	.L32
 411              		.loc 1 572 0
 412 0068 164B     		ldr	r3, .L40+16
 413 006a 5A6C     		ldr	r2, [r3, #68]
 414 006c 42F48022 		orr	r2, r2, #262144
 415 0070 5A64     		str	r2, [r3, #68]
 416              		.loc 1 573 0
 417 0072 5A6A     		ldr	r2, [r3, #36]
 418 0074 0020     		movs	r0, #0
 419              	.LVL25:
 420 0076 42F48022 		orr	r2, r2, #262144
 421 007a 5A62     		str	r2, [r3, #36]
 422              		.loc 1 574 0
 423 007c 0721     		movs	r1, #7
 424              		.loc 1 573 0
 425 007e 5862     		str	r0, [r3, #36]
 426              		.loc 1 574 0
 427 0080 1A20     		movs	r0, #26
 428 0082 FFF7FEFF 		bl	nvicEnableVector
 429              	.LVL26:
 430              		.loc 1 575 0
 431 0086 104B     		ldr	r3, .L40+20
 432 0088 A360     		str	r3, [r4, #8]
 433 008a C2E7     		b	.L32
 434              	.LVL27:
 435              	.L39:
 436              		.loc 1 532 0
 437 008c 0D4B     		ldr	r3, .L40+16
 438 008e 1A6C     		ldr	r2, [r3, #64]
 439 0090 42F01002 		orr	r2, r2, #16
 440 0094 1A64     		str	r2, [r3, #64]
 441              		.loc 1 533 0
 442 0096 1A6A     		ldr	r2, [r3, #32]
 443 0098 0020     		movs	r0, #0
 444              	.LVL28:
 445 009a 42F01002 		orr	r2, r2, #16
 446 009e 1A62     		str	r2, [r3, #32]
 447              		.loc 1 534 0
 448 00a0 0721     		movs	r1, #7
 449              		.loc 1 533 0
 450 00a2 1862     		str	r0, [r3, #32]
 451              		.loc 1 534 0
 452 00a4 3620     		movs	r0, #54
 453 00a6 FFF7FEFF 		bl	nvicEnableVector
 454              	.LVL29:
 455              		.loc 1 535 0
 456 00aa 084B     		ldr	r3, .L40+24
ARM GAS  C:\Users\Moi\AppData\Local\Temp\cczPCYWj.s 			page 9


 457 00ac A360     		str	r3, [r4, #8]
 458 00ae B0E7     		b	.L32
 459              	.LVL30:
 460              	.L38:
 461              		.loc 1 610 0
 462 00b0 FFF7FEFF 		bl	__stack_chk_fail
 463              	.LVL31:
 464              	.L41:
 465              		.align	2
 466              	.L40:
 467 00b4 00000000 		.word	__stack_chk_guard
 468 00b8 00000000 		.word	.LANCHOR2
 469 00bc 00000000 		.word	.LANCHOR0
 470 00c0 00000000 		.word	.LANCHOR1
 471 00c4 00380240 		.word	1073887232
 472 00c8 007A030A 		.word	168000000
 473 00cc 00BD0105 		.word	84000000
 474              		.cfi_endproc
 475              	.LFE260:
 476              		.size	gpt_lld_start, .-gpt_lld_start
 477              		.section	.text.gpt_lld_stop,"ax",%progbits
 478              		.align	1
 479              		.p2align 4,,15
 480              		.global	gpt_lld_stop
 481              		.syntax unified
 482              		.thumb
 483              		.thumb_func
 484              		.fpu fpv4-sp-d16
 485              		.type	gpt_lld_stop, %function
 486              	gpt_lld_stop:
 487              	.LFB261:
 488              		.loc 1 619 0
 489              		.cfi_startproc
 490              		@ args = 0, pretend = 0, frame = 8
 491              		@ frame_needed = 0, uses_anonymous_args = 0
 492              	.LVL32:
 493 0000 10B5     		push	{r4, lr}
 494              		.cfi_def_cfa_offset 8
 495              		.cfi_offset 4, -8
 496              		.cfi_offset 14, -4
 497 0002 174C     		ldr	r4, .L52
 498              		.loc 1 621 0
 499 0004 0378     		ldrb	r3, [r0]	@ zero_extendqisi2
 500              		.loc 1 619 0
 501 0006 2268     		ldr	r2, [r4]
 502 0008 82B0     		sub	sp, sp, #8
 503              		.cfi_def_cfa_offset 16
 504              		.loc 1 621 0
 505 000a 022B     		cmp	r3, #2
 506              		.loc 1 619 0
 507 000c 0192     		str	r2, [sp, #4]
 508              		.loc 1 621 0
 509 000e 05D0     		beq	.L49
 510              	.LVL33:
 511              	.L42:
 512              		.loc 1 699 0
 513 0010 019A     		ldr	r2, [sp, #4]
ARM GAS  C:\Users\Moi\AppData\Local\Temp\cczPCYWj.s 			page 10


 514 0012 2368     		ldr	r3, [r4]
 515 0014 9A42     		cmp	r2, r3
 516 0016 20D1     		bne	.L50
 517 0018 02B0     		add	sp, sp, #8
 518              		.cfi_remember_state
 519              		.cfi_def_cfa_offset 8
 520              		@ sp needed
 521 001a 10BD     		pop	{r4, pc}
 522              	.LVL34:
 523              	.L49:
 524              		.cfi_restore_state
 525              		.loc 1 622 0
 526 001c C168     		ldr	r1, [r0, #12]
 527              		.loc 1 657 0
 528 001e 114A     		ldr	r2, .L52+4
 529              		.loc 1 622 0
 530 0020 0023     		movs	r3, #0
 531 0022 0B60     		str	r3, [r1]
 532              		.loc 1 623 0
 533 0024 C168     		ldr	r1, [r0, #12]
 534 0026 CB60     		str	r3, [r1, #12]
 535              		.loc 1 624 0
 536 0028 C168     		ldr	r1, [r0, #12]
 537              		.loc 1 657 0
 538 002a 9042     		cmp	r0, r2
 539              		.loc 1 624 0
 540 002c 0B61     		str	r3, [r1, #16]
 541              		.loc 1 657 0
 542 002e 0BD0     		beq	.L51
 543              		.loc 1 681 0
 544 0030 0D4B     		ldr	r3, .L52+8
 545 0032 9842     		cmp	r0, r3
 546 0034 ECD1     		bne	.L42
 547              		.loc 1 682 0
 548 0036 1A20     		movs	r0, #26
 549              	.LVL35:
 550 0038 FFF7FEFF 		bl	nvicDisableVector
 551              	.LVL36:
 552              		.loc 1 683 0
 553 003c 0B4A     		ldr	r2, .L52+12
 554 003e 536C     		ldr	r3, [r2, #68]
 555 0040 23F48023 		bic	r3, r3, #262144
 556 0044 5364     		str	r3, [r2, #68]
 557              		.loc 1 699 0
 558 0046 E3E7     		b	.L42
 559              	.LVL37:
 560              	.L51:
 561              		.loc 1 658 0
 562 0048 3620     		movs	r0, #54
 563              	.LVL38:
 564 004a FFF7FEFF 		bl	nvicDisableVector
 565              	.LVL39:
 566              		.loc 1 659 0
 567 004e 074A     		ldr	r2, .L52+12
 568 0050 136C     		ldr	r3, [r2, #64]
 569 0052 23F01003 		bic	r3, r3, #16
 570 0056 1364     		str	r3, [r2, #64]
ARM GAS  C:\Users\Moi\AppData\Local\Temp\cczPCYWj.s 			page 11


 571 0058 DAE7     		b	.L42
 572              	.L50:
 573              		.loc 1 699 0
 574 005a FFF7FEFF 		bl	__stack_chk_fail
 575              	.LVL40:
 576              	.L53:
 577 005e 00BF     		.align	2
 578              	.L52:
 579 0060 00000000 		.word	__stack_chk_guard
 580 0064 00000000 		.word	.LANCHOR0
 581 0068 00000000 		.word	.LANCHOR1
 582 006c 00380240 		.word	1073887232
 583              		.cfi_endproc
 584              	.LFE261:
 585              		.size	gpt_lld_stop, .-gpt_lld_stop
 586              		.section	.text.gpt_lld_start_timer,"ax",%progbits
 587              		.align	1
 588              		.p2align 4,,15
 589              		.global	gpt_lld_start_timer
 590              		.syntax unified
 591              		.thumb
 592              		.thumb_func
 593              		.fpu fpv4-sp-d16
 594              		.type	gpt_lld_start_timer, %function
 595              	gpt_lld_start_timer:
 596              	.LFB262:
 597              		.loc 1 709 0
 598              		.cfi_startproc
 599              		@ args = 0, pretend = 0, frame = 8
 600              		@ frame_needed = 0, uses_anonymous_args = 0
 601              	.LVL41:
 602 0000 10B5     		push	{r4, lr}
 603              		.cfi_def_cfa_offset 8
 604              		.cfi_offset 4, -8
 605              		.cfi_offset 14, -4
 606 0002 114B     		ldr	r3, .L62
 607              		.loc 1 711 0
 608 0004 C268     		ldr	r2, [r0, #12]
 609              		.loc 1 709 0
 610 0006 1C68     		ldr	r4, [r3]
 611 0008 82B0     		sub	sp, sp, #8
 612              		.cfi_def_cfa_offset 16
 613              		.loc 1 711 0
 614 000a 0139     		subs	r1, r1, #1
 615              	.LVL42:
 616              		.loc 1 709 0
 617 000c 0194     		str	r4, [sp, #4]
 618              		.loc 1 711 0
 619 000e D162     		str	r1, [r2, #44]
 620              		.loc 1 712 0
 621 0010 C268     		ldr	r2, [r0, #12]
 622 0012 0121     		movs	r1, #1
 623              	.LVL43:
 624 0014 5161     		str	r1, [r2, #20]
 625              		.loc 1 713 0
 626 0016 C168     		ldr	r1, [r0, #12]
 627 0018 0022     		movs	r2, #0
ARM GAS  C:\Users\Moi\AppData\Local\Temp\cczPCYWj.s 			page 12


 628 001a 4A62     		str	r2, [r1, #36]
 629              		.loc 1 718 0
 630 001c C168     		ldr	r1, [r0, #12]
 631 001e 0A61     		str	r2, [r1, #16]
 632              		.loc 1 719 0
 633 0020 4268     		ldr	r2, [r0, #4]
 634 0022 5268     		ldr	r2, [r2, #4]
 635 0024 22B1     		cbz	r2, .L55
 636              		.loc 1 720 0
 637 0026 C168     		ldr	r1, [r0, #12]
 638 0028 CA68     		ldr	r2, [r1, #12]
 639 002a 42F00102 		orr	r2, r2, #1
 640 002e CA60     		str	r2, [r1, #12]
 641              	.L55:
 642              		.loc 1 721 0
 643 0030 C268     		ldr	r2, [r0, #12]
 644 0032 0521     		movs	r1, #5
 645 0034 1160     		str	r1, [r2]
 646              		.loc 1 722 0
 647 0036 019A     		ldr	r2, [sp, #4]
 648 0038 1B68     		ldr	r3, [r3]
 649 003a 9A42     		cmp	r2, r3
 650 003c 01D1     		bne	.L61
 651 003e 02B0     		add	sp, sp, #8
 652              		.cfi_remember_state
 653              		.cfi_def_cfa_offset 8
 654              		@ sp needed
 655 0040 10BD     		pop	{r4, pc}
 656              	.L61:
 657              		.cfi_restore_state
 658 0042 FFF7FEFF 		bl	__stack_chk_fail
 659              	.LVL44:
 660              	.L63:
 661 0046 00BF     		.align	2
 662              	.L62:
 663 0048 00000000 		.word	__stack_chk_guard
 664              		.cfi_endproc
 665              	.LFE262:
 666              		.size	gpt_lld_start_timer, .-gpt_lld_start_timer
 667              		.section	.text.gpt_lld_stop_timer,"ax",%progbits
 668              		.align	1
 669              		.p2align 4,,15
 670              		.global	gpt_lld_stop_timer
 671              		.syntax unified
 672              		.thumb
 673              		.thumb_func
 674              		.fpu fpv4-sp-d16
 675              		.type	gpt_lld_stop_timer, %function
 676              	gpt_lld_stop_timer:
 677              	.LFB263:
 678              		.loc 1 731 0
 679              		.cfi_startproc
 680              		@ args = 0, pretend = 0, frame = 8
 681              		@ frame_needed = 0, uses_anonymous_args = 0
 682              	.LVL45:
 683 0000 00B5     		push	{lr}
 684              		.cfi_def_cfa_offset 4
ARM GAS  C:\Users\Moi\AppData\Local\Temp\cczPCYWj.s 			page 13


 685              		.cfi_offset 14, -4
 686 0002 0B4A     		ldr	r2, .L68
 687              		.loc 1 733 0
 688 0004 C168     		ldr	r1, [r0, #12]
 689              		.loc 1 731 0
 690 0006 1368     		ldr	r3, [r2]
 691 0008 83B0     		sub	sp, sp, #12
 692              		.cfi_def_cfa_offset 16
 693              		.loc 1 731 0
 694 000a 0193     		str	r3, [sp, #4]
 695              		.loc 1 733 0
 696 000c 0023     		movs	r3, #0
 697 000e 0B60     		str	r3, [r1]
 698              		.loc 1 734 0
 699 0010 C168     		ldr	r1, [r0, #12]
 700 0012 0B61     		str	r3, [r1, #16]
 701              		.loc 1 737 0
 702 0014 C168     		ldr	r1, [r0, #12]
 703 0016 CB68     		ldr	r3, [r1, #12]
 704 0018 23F0FF03 		bic	r3, r3, #255
 705 001c CB60     		str	r3, [r1, #12]
 706              		.loc 1 738 0
 707 001e 0199     		ldr	r1, [sp, #4]
 708 0020 1368     		ldr	r3, [r2]
 709 0022 9942     		cmp	r1, r3
 710 0024 02D1     		bne	.L67
 711 0026 03B0     		add	sp, sp, #12
 712              		.cfi_remember_state
 713              		.cfi_def_cfa_offset 4
 714              		@ sp needed
 715 0028 5DF804FB 		ldr	pc, [sp], #4
 716              	.L67:
 717              		.cfi_restore_state
 718 002c FFF7FEFF 		bl	__stack_chk_fail
 719              	.LVL46:
 720              	.L69:
 721              		.align	2
 722              	.L68:
 723 0030 00000000 		.word	__stack_chk_guard
 724              		.cfi_endproc
 725              	.LFE263:
 726              		.size	gpt_lld_stop_timer, .-gpt_lld_stop_timer
 727              		.section	.text.gpt_lld_polled_delay,"ax",%progbits
 728              		.align	1
 729              		.p2align 4,,15
 730              		.global	gpt_lld_polled_delay
 731              		.syntax unified
 732              		.thumb
 733              		.thumb_func
 734              		.fpu fpv4-sp-d16
 735              		.type	gpt_lld_polled_delay, %function
 736              	gpt_lld_polled_delay:
 737              	.LFB264:
 738              		.loc 1 751 0
 739              		.cfi_startproc
 740              		@ args = 0, pretend = 0, frame = 8
 741              		@ frame_needed = 0, uses_anonymous_args = 0
ARM GAS  C:\Users\Moi\AppData\Local\Temp\cczPCYWj.s 			page 14


 742              	.LVL47:
 743 0000 10B5     		push	{r4, lr}
 744              		.cfi_def_cfa_offset 8
 745              		.cfi_offset 4, -8
 746              		.cfi_offset 14, -4
 747 0002 0D4C     		ldr	r4, .L77
 748              		.loc 1 753 0
 749 0004 C368     		ldr	r3, [r0, #12]
 750              		.loc 1 751 0
 751 0006 2268     		ldr	r2, [r4]
 752 0008 82B0     		sub	sp, sp, #8
 753              		.cfi_def_cfa_offset 16
 754              		.loc 1 753 0
 755 000a 0139     		subs	r1, r1, #1
 756              	.LVL48:
 757              		.loc 1 751 0
 758 000c 0192     		str	r2, [sp, #4]
 759              		.loc 1 753 0
 760 000e D962     		str	r1, [r3, #44]
 761              		.loc 1 754 0
 762 0010 C368     		ldr	r3, [r0, #12]
 763 0012 0122     		movs	r2, #1
 764 0014 5A61     		str	r2, [r3, #20]
 765              		.loc 1 755 0
 766 0016 C368     		ldr	r3, [r0, #12]
 767 0018 0D22     		movs	r2, #13
 768 001a 1A60     		str	r2, [r3]
 769              		.loc 1 756 0
 770 001c C268     		ldr	r2, [r0, #12]
 771              	.L71:
 772              		.loc 1 756 0 is_stmt 0 discriminator 1
 773 001e 1369     		ldr	r3, [r2, #16]
 774 0020 DB07     		lsls	r3, r3, #31
 775 0022 FCD5     		bpl	.L71
 776              		.loc 1 758 0 is_stmt 1
 777 0024 0023     		movs	r3, #0
 778 0026 1361     		str	r3, [r2, #16]
 779              		.loc 1 759 0
 780 0028 019A     		ldr	r2, [sp, #4]
 781 002a 2368     		ldr	r3, [r4]
 782 002c 9A42     		cmp	r2, r3
 783 002e 01D1     		bne	.L76
 784 0030 02B0     		add	sp, sp, #8
 785              		.cfi_remember_state
 786              		.cfi_def_cfa_offset 8
 787              		@ sp needed
 788 0032 10BD     		pop	{r4, pc}
 789              	.L76:
 790              		.cfi_restore_state
 791 0034 FFF7FEFF 		bl	__stack_chk_fail
 792              	.LVL49:
 793              	.L78:
 794              		.align	2
 795              	.L77:
 796 0038 00000000 		.word	__stack_chk_guard
 797              		.cfi_endproc
 798              	.LFE264:
ARM GAS  C:\Users\Moi\AppData\Local\Temp\cczPCYWj.s 			page 15


 799              		.size	gpt_lld_polled_delay, .-gpt_lld_polled_delay
 800              		.global	GPTD11
 801              		.global	GPTD6
 802              		.section	.bss.GPTD11,"aw",%nobits
 803              		.align	2
 804              		.set	.LANCHOR1,. + 0
 805              		.type	GPTD11, %object
 806              		.size	GPTD11, 16
 807              	GPTD11:
 808 0000 00000000 		.space	16
 808      00000000 
 808      00000000 
 808      00000000 
 809              		.section	.bss.GPTD6,"aw",%nobits
 810              		.align	2
 811              		.set	.LANCHOR0,. + 0
 812              		.type	GPTD6, %object
 813              		.size	GPTD6, 16
 814              	GPTD6:
 815 0000 00000000 		.space	16
 815      00000000 
 815      00000000 
 815      00000000 
 816              		.section	.rodata.__func__.9856,"a",%progbits
 817              		.align	2
 818              		.set	.LANCHOR2,. + 0
 819              		.type	__func__.9856, %object
 820              		.size	__func__.9856, 14
 821              	__func__.9856:
 822 0000 6770745F 		.ascii	"gpt_lld_start\000"
 822      6C6C645F 
 822      73746172 
 822      7400
 823              		.text
 824              	.Letext0:
 825              		.file 2 "c:\\users\\moi\\documents\\_microinfo\\epuck-eclipse\\tools\\gcc-arm-none-eabi-7-2017-q4-
 826              		.file 3 "c:\\users\\moi\\documents\\_microinfo\\epuck-eclipse\\tools\\gcc-arm-none-eabi-7-2017-q4-
 827              		.file 4 "c:\\users\\moi\\documents\\_microinfo\\epuck-eclipse\\tools\\gcc-arm-none-eabi-7-2017-q4-
 828              		.file 5 ".//ChibiOS//os/rt/ports/ARMCMx/compilers/GCC/chtypes.h"
 829              		.file 6 ".//ChibiOS//os/rt/include/chsystypes.h"
 830              		.file 7 ".//ChibiOS//os/rt/include/chschd.h"
 831              		.file 8 ".//ChibiOS//os/ext/CMSIS/include/core_cm4.h"
 832              		.file 9 ".//ChibiOS//os/ext/CMSIS/ST/system_stm32f4xx.h"
 833              		.file 10 ".//ChibiOS//os/ext/CMSIS/ST/stm32f407xx.h"
 834              		.file 11 ".//ChibiOS//os/rt/ports/ARMCMx/chcore.h"
 835              		.file 12 ".//ChibiOS//os/rt/ports/ARMCMx/chcore_v7m.h"
 836              		.file 13 ".//ChibiOS//os/rt/include/chdebug.h"
 837              		.file 14 ".//ChibiOS//os/rt/include/chtm.h"
 838              		.file 15 ".//ChibiOS//os/rt/include/chstats.h"
 839              		.file 16 ".//ChibiOS//os/rt/include/chsem.h"
 840              		.file 17 ".//ChibiOS//os/rt/include/chmtx.h"
 841              		.file 18 ".//ChibiOS//os/rt/include/chregistry.h"
 842              		.file 19 ".//ChibiOS//os/rt/include/chevents.h"
 843              		.file 20 ".//ChibiOS//os/rt/include/chqueues.h"
 844              		.file 21 ".//ChibiOS//os/hal/ports/STM32/STM32F4xx/stm32_dma.h"
 845              		.file 22 ".//ChibiOS//os/hal/include/hal_ioblock.h"
 846              		.file 23 ".//ChibiOS//os/hal/ports/STM32/LLD/GPIOv2/pal_lld.h"
ARM GAS  C:\Users\Moi\AppData\Local\Temp\cczPCYWj.s 			page 16


 847              		.file 24 ".//ChibiOS//os/hal/include/adc.h"
 848              		.file 25 ".//ChibiOS//os/hal/ports/STM32/STM32F4xx/adc_lld.h"
 849              		.file 26 ".//ChibiOS//os/hal/include/can.h"
 850              		.file 27 ".//ChibiOS//os/hal/ports/STM32/LLD/can_lld.h"
 851              		.file 28 ".//ChibiOS//os/hal/include/dac.h"
 852              		.file 29 ".//ChibiOS//os/hal/ports/STM32/LLD/DACv1/dac_lld.h"
 853              		.file 30 ".//ChibiOS//os/hal/include/ext.h"
 854              		.file 31 ".//ChibiOS//os/hal/ports/STM32/LLD/ext_lld.h"
 855              		.file 32 ".//ChibiOS//os/hal/include/gpt.h"
 856              		.file 33 ".//ChibiOS//os/hal/ports/STM32/LLD/TIMv1/gpt_lld.h"
 857              		.file 34 ".//ChibiOS//os/hal/ports/STM32/LLD/TIMv1/stm32_tim.h"
 858              		.file 35 ".//ChibiOS//os/hal/include/i2c.h"
 859              		.file 36 ".//ChibiOS//os/hal/ports/STM32/LLD/I2Cv1/i2c_lld.h"
 860              		.file 37 ".//ChibiOS//os/hal/include/i2s.h"
 861              		.file 38 ".//ChibiOS//os/hal/ports/STM32/LLD/SPIv1/i2s_lld.h"
 862              		.file 39 ".//ChibiOS//os/hal/include/pwm.h"
 863              		.file 40 ".//ChibiOS//os/hal/ports/STM32/LLD/TIMv1/pwm_lld.h"
 864              		.file 41 ".//ChibiOS//os/hal/include/serial.h"
 865              		.file 42 ".//ChibiOS//os/hal/ports/STM32/LLD/USARTv1/serial_lld.h"
 866              		.file 43 ".//ChibiOS//os/hal/include/sdc.h"
 867              		.file 44 ".//ChibiOS//os/hal/ports/STM32/LLD/sdc_lld.h"
 868              		.file 45 ".//ChibiOS//os/hal/include/spi.h"
 869              		.file 46 ".//ChibiOS//os/hal/ports/STM32/LLD/SPIv1/spi_lld.h"
 870              		.file 47 ".//ChibiOS//os/hal/include/usb.h"
 871              		.file 48 ".//ChibiOS//os/hal/ports/STM32/LLD/OTGv1/usb_lld.h"
 872              		.file 49 ".//ChibiOS//os/hal/ports/STM32/LLD/OTGv1/stm32_otg.h"
 873              		.file 50 ".//ChibiOS//os/hal/ports/common/ARMCMx/nvic.h"
 874              		.file 51 ".//ChibiOS//os/rt/include/chsys.h"
