ARM GAS  C:\Users\Moi\AppData\Local\Temp\ccvnmOEg.s 			page 1


   1              		.cpu cortex-m4
   2              		.eabi_attribute 27, 1
   3              		.eabi_attribute 28, 1
   4              		.eabi_attribute 20, 1
   5              		.eabi_attribute 21, 1
   6              		.eabi_attribute 23, 3
   7              		.eabi_attribute 24, 1
   8              		.eabi_attribute 25, 1
   9              		.eabi_attribute 26, 1
  10              		.eabi_attribute 30, 2
  11              		.eabi_attribute 34, 1
  12              		.eabi_attribute 18, 4
  13              		.file	"ir_remote.c"
  14              		.text
  15              	.Ltext0:
  16              		.cfi_sections	.debug_frame
  17              		.section	.text.remote_motion_thd,"ax",%progbits
  18              		.align	1
  19              		.p2align 4,,15
  20              		.syntax unified
  21              		.thumb
  22              		.thumb_func
  23              		.fpu fpv4-sp-d16
  24              		.type	remote_motion_thd, %function
  25              	remote_motion_thd:
  26              	.LFB263:
  27              		.file 1 ".//src/ir_remote.c"
  28              		.loc 1 248 0
  29              		.cfi_startproc
  30              		@ args = 0, pretend = 0, frame = 8
  31              		@ frame_needed = 0, uses_anonymous_args = 0
  32              	.LVL0:
  33 0000 2DE9F043 		push	{r4, r5, r6, r7, r8, r9, lr}
  34              		.cfi_def_cfa_offset 28
  35              		.cfi_offset 4, -28
  36              		.cfi_offset 5, -24
  37              		.cfi_offset 6, -20
  38              		.cfi_offset 7, -16
  39              		.cfi_offset 8, -12
  40              		.cfi_offset 9, -8
  41              		.cfi_offset 14, -4
  42              	.LBB62:
  43              	.LBB63:
  44              		.file 2 ".//ChibiOS//os/rt/include/chregistry.h"
  45              		.loc 2 135 0
  46 0004 484C     		ldr	r4, .L18
  47              	.LBE63:
  48              	.LBE62:
  49              		.loc 1 248 0
  50 0006 494B     		ldr	r3, .L18+4
  51              	.LBB65:
  52              	.LBB64:
  53              		.loc 2 135 0
  54 0008 A269     		ldr	r2, [r4, #24]
  55 000a 4949     		ldr	r1, .L18+8
  56 000c 9161     		str	r1, [r2, #24]
  57              	.LBE64:
ARM GAS  C:\Users\Moi\AppData\Local\Temp\ccvnmOEg.s 			page 2


  58              	.LBE65:
  59              		.loc 1 248 0
  60 000e 83B0     		sub	sp, sp, #12
  61              		.cfi_def_cfa_offset 40
  62              		.loc 1 248 0
  63 0010 1B68     		ldr	r3, [r3]
  64              		.loc 1 252 0
  65 0012 4849     		ldr	r1, .L18+12
  66 0014 4848     		ldr	r0, .L18+16
  67              	.LVL1:
  68              		.loc 1 248 0
  69 0016 0193     		str	r3, [sp, #4]
  70              		.loc 1 252 0
  71 0018 FFF7FEFF 		bl	messagebus_find_topic_blocking
  72              	.LVL2:
  73              	.LBB66:
  74              	.LBB67:
  75              	.LBB68:
  76              	.LBB69:
  77              		.file 3 ".//ChibiOS//os/rt/include/chsys.h"
  78              		.loc 3 367 0
  79 001c DFF81C91 		ldr	r9, .L18+20
  80              	.LBE69:
  81              	.LBE68:
  82              	.LBE67:
  83              	.LBE66:
  84              		.loc 1 311 0
  85 0020 DFF81C81 		ldr	r8, .L18+24
  86              		.loc 1 252 0
  87 0024 0746     		mov	r7, r0
  88              	.LVL3:
  89              	.LBB83:
  90              	.LBB82:
  91              	.LBB74:
  92              	.LBB75:
  93              	.LBB76:
  94              	.LBB77:
  95              	.LBB78:
  96              		.file 4 ".//ChibiOS//os/ext/CMSIS/include/core_cmFunc.h"
  97              		.loc 4 546 0
  98 0026 2026     		movs	r6, #32
  99              	.LVL4:
 100              	.L14:
 101              		.syntax unified
 102              	@ 546 ".//ChibiOS//os/ext/CMSIS/include/core_cmFunc.h" 1
 103 0028 86F31188 		MSR basepri, r6
 104              	@ 0 "" 2
 105              	.LVL5:
 106              		.thumb
 107              		.syntax unified
 108              	.LBE78:
 109              	.LBE77:
 110              	.LBE76:
 111              		.loc 3 349 0
 112 002c FFF7FEFF 		bl	_stats_start_measure_crit_thd
 113              	.LVL6:
 114              		.loc 3 350 0
ARM GAS  C:\Users\Moi\AppData\Local\Temp\ccvnmOEg.s 			page 3


 115 0030 FFF7FEFF 		bl	_dbg_check_lock
 116              	.LVL7:
 117              	.LBE75:
 118              	.LBE74:
 119              	.LBB79:
 120              	.LBB80:
 121              		.file 5 ".//ChibiOS//os/rt/include/chvt.h"
 122              		.loc 5 231 0
 123 0034 A56A     		ldr	r5, [r4, #40]
 124              	.LBE80:
 125              	.LBE79:
 126              	.LBB81:
 127              	.LBB73:
 128              		.loc 3 360 0
 129 0036 FFF7FEFF 		bl	_dbg_check_unlock
 130              	.LVL8:
 131              		.loc 3 361 0
 132 003a FFF7FEFF 		bl	_stats_stop_measure_crit_thd
 133              	.LVL9:
 134              		.loc 3 367 0
 135 003e 2368     		ldr	r3, [r4]
 136 0040 A342     		cmp	r3, r4
 137 0042 07D0     		beq	.L2
 138 0044 A269     		ldr	r2, [r4, #24]
 139 0046 9B68     		ldr	r3, [r3, #8]
 140 0048 9268     		ldr	r2, [r2, #8]
 141 004a 9A42     		cmp	r2, r3
 142 004c 02D2     		bcs	.L2
 143 004e 4846     		mov	r0, r9
 144 0050 FFF7FEFF 		bl	chSysHalt
 145              	.LVL10:
 146              	.L2:
 147              	.LBB70:
 148              	.LBB71:
 149              	.LBB72:
 150              		.loc 4 546 0
 151 0054 0023     		movs	r3, #0
 152              		.syntax unified
 153              	@ 546 ".//ChibiOS//os/ext/CMSIS/include/core_cmFunc.h" 1
 154 0056 83F31188 		MSR basepri, r3
 155              	@ 0 "" 2
 156              	.LVL11:
 157              		.thumb
 158              		.syntax unified
 159              	.LBE72:
 160              	.LBE71:
 161              	.LBE70:
 162              	.LBE73:
 163              	.LBE81:
 164              	.LBE82:
 165              	.LBE83:
 166              		.loc 1 259 0
 167 005a 0322     		movs	r2, #3
 168 005c 6946     		mov	r1, sp
 169 005e 3846     		mov	r0, r7
 170 0060 FFF7FEFF 		bl	messagebus_topic_wait
 171              	.LVL12:
ARM GAS  C:\Users\Moi\AppData\Local\Temp\ccvnmOEg.s 			page 4


 172              		.loc 1 261 0
 173 0064 9DF80230 		ldrb	r3, [sp, #2]	@ zero_extendqisi2
 174 0068 013B     		subs	r3, r3, #1
 175 006a 202B     		cmp	r3, #32
 176 006c 18D8     		bhi	.L3
 177 006e DFE803F0 		tbb	[pc, r3]
 178              	.L5:
 179 0072 4A       		.byte	(.L4-.L5)/2
 180 0073 52       		.byte	(.L6-.L5)/2
 181 0074 42       		.byte	(.L7-.L5)/2
 182 0075 3A       		.byte	(.L8-.L5)/2
 183 0076 33       		.byte	(.L9-.L5)/2
 184 0077 2B       		.byte	(.L10-.L5)/2
 185 0078 24       		.byte	(.L11-.L5)/2
 186 0079 1D       		.byte	(.L12-.L5)/2
 187 007a 11       		.byte	(.L13-.L5)/2
 188 007b 17       		.byte	(.L3-.L5)/2
 189 007c 17       		.byte	(.L3-.L5)/2
 190 007d 33       		.byte	(.L9-.L5)/2
 191 007e 17       		.byte	(.L3-.L5)/2
 192 007f 17       		.byte	(.L3-.L5)/2
 193 0080 17       		.byte	(.L3-.L5)/2
 194 0081 2B       		.byte	(.L10-.L5)/2
 195 0082 3A       		.byte	(.L8-.L5)/2
 196 0083 17       		.byte	(.L3-.L5)/2
 197 0084 17       		.byte	(.L3-.L5)/2
 198 0085 17       		.byte	(.L3-.L5)/2
 199 0086 17       		.byte	(.L3-.L5)/2
 200 0087 17       		.byte	(.L3-.L5)/2
 201 0088 17       		.byte	(.L3-.L5)/2
 202 0089 17       		.byte	(.L3-.L5)/2
 203 008a 17       		.byte	(.L3-.L5)/2
 204 008b 17       		.byte	(.L3-.L5)/2
 205 008c 17       		.byte	(.L3-.L5)/2
 206 008d 17       		.byte	(.L3-.L5)/2
 207 008e 17       		.byte	(.L3-.L5)/2
 208 008f 17       		.byte	(.L3-.L5)/2
 209 0090 17       		.byte	(.L3-.L5)/2
 210 0091 52       		.byte	(.L6-.L5)/2
 211 0092 1D       		.byte	(.L12-.L5)/2
 212 0093 00       		.p2align 1
 213              	.L13:
 214              		.loc 1 305 0
 215 0094 4046     		mov	r0, r8
 216 0096 FFF7FEFF 		bl	left_motor_set_speed
 217              	.LVL13:
 218              		.loc 1 306 0
 219 009a 0020     		movs	r0, #0
 220 009c FFF7FEFF 		bl	right_motor_set_speed
 221              	.LVL14:
 222              	.L3:
 223              		.loc 1 316 0
 224 00a0 05F1C801 		add	r1, r5, #200
 225 00a4 2846     		mov	r0, r5
 226 00a6 FFF7FEFF 		bl	chThdSleepUntilWindowed
 227              	.LVL15:
 228              		.loc 1 257 0
ARM GAS  C:\Users\Moi\AppData\Local\Temp\ccvnmOEg.s 			page 5


 229 00aa BDE7     		b	.L14
 230              	.L12:
 231              		.loc 1 278 0
 232 00ac 4046     		mov	r0, r8
 233 00ae FFF7FEFF 		bl	left_motor_set_speed
 234              	.LVL16:
 235              		.loc 1 279 0
 236 00b2 4046     		mov	r0, r8
 237 00b4 FFF7FEFF 		bl	right_motor_set_speed
 238              	.LVL17:
 239              		.loc 1 280 0
 240 00b8 F2E7     		b	.L3
 241              	.L11:
 242              		.loc 1 310 0
 243 00ba 0020     		movs	r0, #0
 244 00bc FFF7FEFF 		bl	left_motor_set_speed
 245              	.LVL18:
 246              		.loc 1 311 0
 247 00c0 4046     		mov	r0, r8
 248 00c2 FFF7FEFF 		bl	right_motor_set_speed
 249              	.LVL19:
 250              		.loc 1 312 0
 251 00c6 EBE7     		b	.L3
 252              	.L10:
 253              		.loc 1 284 0
 254 00c8 4FF41670 		mov	r0, #600
 255 00cc FFF7FEFF 		bl	left_motor_set_speed
 256              	.LVL20:
 257              		.loc 1 285 0
 258 00d0 4046     		mov	r0, r8
 259 00d2 FFF7FEFF 		bl	right_motor_set_speed
 260              	.LVL21:
 261              		.loc 1 286 0
 262 00d6 E3E7     		b	.L3
 263              	.L9:
 264              		.loc 1 266 0
 265 00d8 0020     		movs	r0, #0
 266 00da FFF7FEFF 		bl	left_motor_set_speed
 267              	.LVL22:
 268              		.loc 1 267 0
 269 00de 0020     		movs	r0, #0
 270 00e0 FFF7FEFF 		bl	right_motor_set_speed
 271              	.LVL23:
 272              		.loc 1 268 0
 273 00e4 DCE7     		b	.L3
 274              	.L8:
 275              		.loc 1 290 0
 276 00e6 4046     		mov	r0, r8
 277 00e8 FFF7FEFF 		bl	left_motor_set_speed
 278              	.LVL24:
 279              		.loc 1 291 0
 280 00ec 4FF41670 		mov	r0, #600
 281 00f0 FFF7FEFF 		bl	right_motor_set_speed
 282              	.LVL25:
 283              		.loc 1 292 0
 284 00f4 D4E7     		b	.L3
 285              	.L7:
ARM GAS  C:\Users\Moi\AppData\Local\Temp\ccvnmOEg.s 			page 6


 286              		.loc 1 295 0
 287 00f6 4FF41670 		mov	r0, #600
 288 00fa FFF7FEFF 		bl	left_motor_set_speed
 289              	.LVL26:
 290              		.loc 1 296 0
 291 00fe 0020     		movs	r0, #0
 292 0100 FFF7FEFF 		bl	right_motor_set_speed
 293              	.LVL27:
 294              		.loc 1 297 0
 295 0104 CCE7     		b	.L3
 296              	.L4:
 297              		.loc 1 300 0
 298 0106 0020     		movs	r0, #0
 299 0108 FFF7FEFF 		bl	left_motor_set_speed
 300              	.LVL28:
 301              		.loc 1 301 0
 302 010c 4FF41670 		mov	r0, #600
 303 0110 FFF7FEFF 		bl	right_motor_set_speed
 304              	.LVL29:
 305              		.loc 1 302 0
 306 0114 C4E7     		b	.L3
 307              	.L6:
 308              		.loc 1 272 0
 309 0116 4FF41670 		mov	r0, #600
 310 011a FFF7FEFF 		bl	left_motor_set_speed
 311              	.LVL30:
 312              		.loc 1 273 0
 313 011e 4FF41670 		mov	r0, #600
 314 0122 FFF7FEFF 		bl	right_motor_set_speed
 315              	.LVL31:
 316              		.loc 1 274 0
 317 0126 BBE7     		b	.L3
 318              	.L19:
 319              		.align	2
 320              	.L18:
 321 0128 00000000 		.word	ch
 322 012c 00000000 		.word	__stack_chk_guard
 323 0130 00000000 		.word	.LANCHOR0
 324 0134 00000000 		.word	.LC0
 325 0138 00000000 		.word	bus
 326 013c 00000000 		.word	.LANCHOR1
 327 0140 A8FDFFFF 		.word	-600
 328              		.cfi_endproc
 329              	.LFE263:
 330              		.size	remote_motion_thd, .-remote_motion_thd
 331              		.section	.text.RC5_decodeEvent,"ax",%progbits
 332              		.align	1
 333              		.p2align 4,,15
 334              		.syntax unified
 335              		.thumb
 336              		.thumb_func
 337              		.fpu fpv4-sp-d16
 338              		.type	RC5_decodeEvent, %function
 339              	RC5_decodeEvent:
 340              	.LFB259:
 341              		.loc 1 127 0
 342              		.cfi_startproc
ARM GAS  C:\Users\Moi\AppData\Local\Temp\ccvnmOEg.s 			page 7


 343              		@ args = 0, pretend = 0, frame = 8
 344              		@ frame_needed = 0, uses_anonymous_args = 0
 345              	.LVL32:
 346 0000 30B5     		push	{r4, r5, lr}
 347              		.cfi_def_cfa_offset 12
 348              		.cfi_offset 4, -12
 349              		.cfi_offset 5, -8
 350              		.cfi_offset 14, -4
 351              		.loc 1 129 0
 352 0002 174B     		ldr	r3, .L29
 353 0004 4478     		ldrb	r4, [r0, #1]	@ zero_extendqisi2
 354              		.loc 1 127 0
 355 0006 174A     		ldr	r2, .L29+4
 356              		.loc 1 129 0
 357 0008 1B5D     		ldrb	r3, [r3, r4]	@ zero_extendqisi2
 358              		.loc 1 127 0
 359 000a 1568     		ldr	r5, [r2]
 360              		.loc 1 129 0
 361 000c 43FA01F1 		asr	r1, r3, r1
 362              	.LVL33:
 363              		.loc 1 127 0
 364 0010 83B0     		sub	sp, sp, #12
 365              		.cfi_def_cfa_offset 24
 366              		.loc 1 129 0
 367 0012 01F00301 		and	r1, r1, #3
 368              	.LVL34:
 369              		.loc 1 130 0
 370 0016 8C42     		cmp	r4, r1
 371              		.loc 1 127 0
 372 0018 0195     		str	r5, [sp, #4]
 373              		.loc 1 130 0
 374 001a 18D0     		beq	.L26
 375              		.loc 1 135 0
 376 001c 0229     		cmp	r1, #2
 377              		.loc 1 134 0
 378 001e 4170     		strb	r1, [r0, #1]
 379              		.loc 1 135 0
 380 0020 09D0     		beq	.L27
 381              		.loc 1 139 0
 382 0022 0129     		cmp	r1, #1
 383 0024 0DD1     		bne	.L20
 384              	.LVL35:
 385              	.LBB90:
 386              	.LBB91:
 387              		.loc 1 142 0
 388 0026 D0E90313 		ldrd	r1, r3, [r0, #12]
 389              	.LVL36:
 390              		.loc 1 141 0
 391 002a 5B00     		lsls	r3, r3, #1
 392 002c 0133     		adds	r3, r3, #1
 393              		.loc 1 142 0
 394 002e 0131     		adds	r1, r1, #1
 395 0030 C0E90313 		strd	r1, r3, [r0, #12]
 396              	.LBE91:
 397              	.LBE90:
 398              		.loc 1 145 0
 399 0034 05E0     		b	.L20
ARM GAS  C:\Users\Moi\AppData\Local\Temp\ccvnmOEg.s 			page 8


 400              	.LVL37:
 401              	.L27:
 402              		.loc 1 138 0
 403 0036 D0E90331 		ldrd	r3, r1, [r0, #12]
 404              	.LVL38:
 405              		.loc 1 137 0
 406 003a 4900     		lsls	r1, r1, #1
 407              		.loc 1 138 0
 408 003c 0133     		adds	r3, r3, #1
 409 003e C0E90331 		strd	r3, r1, [r0, #12]
 410              	.LVL39:
 411              	.L20:
 412              		.loc 1 145 0
 413 0042 0199     		ldr	r1, [sp, #4]
 414 0044 1368     		ldr	r3, [r2]
 415 0046 9942     		cmp	r1, r3
 416 0048 08D1     		bne	.L28
 417 004a 03B0     		add	sp, sp, #12
 418              		.cfi_remember_state
 419              		.cfi_def_cfa_offset 12
 420              		@ sp needed
 421 004c 30BD     		pop	{r4, r5, pc}
 422              	.LVL40:
 423              	.L26:
 424              		.cfi_restore_state
 425              	.LBB92:
 426              	.LBB93:
 427              		.loc 1 113 0
 428 004e 0123     		movs	r3, #1
 429              		.loc 1 116 0
 430 0050 0021     		movs	r1, #0
 431              	.LVL41:
 432              		.loc 1 113 0
 433 0052 4370     		strb	r3, [r0, #1]
 434              		.loc 1 115 0
 435 0054 C0E90333 		strd	r3, r3, [r0, #12]
 436              		.loc 1 116 0
 437 0058 4160     		str	r1, [r0, #4]
 438 005a F2E7     		b	.L20
 439              	.LVL42:
 440              	.L28:
 441              	.LBE93:
 442              	.LBE92:
 443              		.loc 1 145 0
 444 005c FFF7FEFF 		bl	__stack_chk_fail
 445              	.LVL43:
 446              	.L30:
 447              		.align	2
 448              	.L29:
 449 0060 00000000 		.word	.LANCHOR2
 450 0064 00000000 		.word	__stack_chk_guard
 451              		.cfi_endproc
 452              	.LFE259:
 453              		.size	RC5_decodeEvent, .-RC5_decodeEvent
 454              		.section	.text.remote_cmd_recv_thd,"ax",%progbits
 455              		.align	1
 456              		.p2align 4,,15
ARM GAS  C:\Users\Moi\AppData\Local\Temp\ccvnmOEg.s 			page 9


 457              		.syntax unified
 458              		.thumb
 459              		.thumb_func
 460              		.fpu fpv4-sp-d16
 461              		.type	remote_cmd_recv_thd, %function
 462              	remote_cmd_recv_thd:
 463              	.LFB264:
 464              		.loc 1 327 0
 465              		.cfi_startproc
 466              		@ Volatile: function does not return.
 467              		@ args = 0, pretend = 0, frame = 168
 468              		@ frame_needed = 0, uses_anonymous_args = 0
 469              	.LVL44:
 470 0000 80B5     		push	{r7, lr}
 471              		.cfi_def_cfa_offset 8
 472              		.cfi_offset 7, -8
 473              		.cfi_offset 14, -4
 474              	.LBB110:
 475              	.LBB111:
 476              		.loc 2 135 0
 477 0002 414B     		ldr	r3, .L45
 478              	.LBE111:
 479              	.LBE110:
 480              		.loc 1 327 0
 481 0004 414A     		ldr	r2, .L45+4
 482              	.LBB113:
 483              	.LBB112:
 484              		.loc 2 135 0
 485 0006 9B69     		ldr	r3, [r3, #24]
 486 0008 4149     		ldr	r1, .L45+8
 487 000a 9961     		str	r1, [r3, #24]
 488              	.LBE112:
 489              	.LBE113:
 490              		.loc 1 327 0
 491 000c ACB0     		sub	sp, sp, #176
 492              		.cfi_def_cfa_offset 184
 493              		.loc 1 333 0
 494 000e 0223     		movs	r3, #2
 495              		.loc 1 327 0
 496 0010 1268     		ldr	r2, [r2]
 497              		.loc 1 333 0
 498 0012 4048     		ldr	r0, .L45+12
 499              	.LVL45:
 500              		.loc 1 327 0
 501 0014 2B92     		str	r2, [sp, #172]
 502              		.loc 1 333 0
 503 0016 05A9     		add	r1, sp, #20
 504 0018 1A46     		mov	r2, r3
 505 001a FFF7FEFF 		bl	chEvtRegisterMaskWithFlags
 506              	.LVL46:
 507              		.loc 1 343 0
 508 001e 03AD     		add	r5, sp, #12
 509              		.loc 1 342 0
 510 0020 0FAB     		add	r3, sp, #60
 511              		.loc 1 344 0
 512 0022 0324     		movs	r4, #3
 513              	.LBB114:
ARM GAS  C:\Users\Moi\AppData\Local\Temp\ccvnmOEg.s 			page 10


 514              	.LBB115:
 515              		.loc 1 116 0
 516 0024 0027     		movs	r7, #0
 517              	.LBE115:
 518              	.LBE114:
 519              		.loc 1 344 0
 520 0026 1946     		mov	r1, r3
 521 0028 2A46     		mov	r2, r5
 522 002a 14A8     		add	r0, sp, #80
 523 002c 0094     		str	r4, [sp]
 524              		.loc 1 342 0
 525 002e CDE90F33 		strd	r3, r3, [sp, #60]
 526              	.LBB119:
 527              	.LBB116:
 528              		.loc 1 113 0
 529 0032 0124     		movs	r4, #1
 530              	.LBE116:
 531              	.LBE119:
 532              		.loc 1 344 0
 533 0034 384B     		ldr	r3, .L45+16
 534              	.LBB120:
 535              	.LBB117:
 536              		.loc 1 113 0
 537 0036 8DF82940 		strb	r4, [sp, #41]
 538              	.LBE117:
 539              	.LBE120:
 540              		.loc 1 343 0
 541 003a CDE90355 		strd	r5, r5, [sp, #12]
 542              	.LBB121:
 543              	.LBB118:
 544              		.loc 1 115 0
 545 003e CDE90D44 		strd	r4, r4, [sp, #52]
 546              		.loc 1 116 0
 547 0042 0B97     		str	r7, [sp, #44]
 548              	.LVL47:
 549              	.LBE118:
 550              	.LBE121:
 551              		.loc 1 342 0
 552 0044 CDE91177 		strd	r7, r7, [sp, #68]
 553 0048 1397     		str	r7, [sp, #76]
 554              		.loc 1 344 0
 555 004a FFF7FEFF 		bl	messagebus_topic_init
 556              	.LVL48:
 557              		.loc 1 345 0
 558 004e 14A9     		add	r1, sp, #80
 559 0050 324A     		ldr	r2, .L45+20
 560 0052 3348     		ldr	r0, .L45+24
 561 0054 DFF8D080 		ldr	r8, .L45+32
 562 0058 2F4C     		ldr	r4, .L45+16
 563              	.LBB122:
 564              	.LBB123:
 565              	.LBB124:
 566              	.LBB125:
 567              		.loc 1 185 0
 568 005a 324E     		ldr	r6, .L45+28
 569              	.LBE125:
 570              	.LBE124:
ARM GAS  C:\Users\Moi\AppData\Local\Temp\ccvnmOEg.s 			page 11


 571              	.LBE123:
 572              	.LBE122:
 573              		.loc 1 345 0
 574 005c FFF7FEFF 		bl	messagebus_advertise_topic
 575              	.LVL49:
 576              	.LBB162:
 577              	.LBB157:
 578              	.LBB150:
 579              	.LBB144:
 580              	.LBB126:
 581              	.LBB127:
 582              	.LBB128:
 583              		.loc 1 102 0
 584 0060 3D46     		mov	r5, r7
 585              	.L32:
 586              	.LBE128:
 587              	.LBE127:
 588              	.LBE126:
 589              	.LBE144:
 590              	.LBE150:
 591              	.LBE157:
 592              	.LBE162:
 593              		.loc 1 349 0
 594 0062 0220     		movs	r0, #2
 595 0064 FFF7FEFF 		bl	chEvtWaitAny
 596              	.LVL50:
 597              		.loc 1 351 0
 598 0068 05A8     		add	r0, sp, #20
 599 006a FFF7FEFF 		bl	chEvtGetAndClearFlags
 600              	.LVL51:
 601              	.LBB163:
 602              	.LBB158:
 603              	.LBB151:
 604              	.LBB145:
 605              		.loc 1 185 0
 606 006e 3369     		ldr	r3, [r6, #16]
 607              		.loc 1 187 0
 608 0070 0C9A     		ldr	r2, [sp, #48]
 609              		.loc 1 185 0
 610 0072 C3F3C003 		ubfx	r3, r3, #3, #1
 611              	.LVL52:
 612              		.loc 1 187 0
 613 0076 9342     		cmp	r3, r2
 614              	.LBB141:
 615              	.LBB130:
 616              	.LBB131:
 617              		.loc 1 157 0
 618 0078 40F27930 		movw	r0, #889
 619              	.LBE131:
 620              	.LBE130:
 621              		.loc 1 193 0
 622 007c 5FFA83FC 		uxtb	ip, r3
 623              	.LBE141:
 624              		.loc 1 187 0
 625 0080 1CD0     		beq	.L33
 626              	.LBB142:
 627              		.loc 1 188 0
ARM GAS  C:\Users\Moi\AppData\Local\Temp\ccvnmOEg.s 			page 12


 628 0082 D8F80C10 		ldr	r1, [r8, #12]
 629              		.loc 1 191 0
 630 0086 0C93     		str	r3, [sp, #48]
 631              		.loc 1 188 0
 632 0088 4A6A     		ldr	r2, [r1, #36]
 633              	.LVL53:
 634              		.loc 1 189 0
 635 008a 0B9B     		ldr	r3, [sp, #44]
 636              	.LVL54:
 637              	.LBB138:
 638              	.LBB129:
 639              		.loc 1 102 0
 640 008c 4F62     		str	r7, [r1, #36]
 641              	.LBE129:
 642              	.LBE138:
 643              		.loc 1 189 0
 644 008e D31A     		subs	r3, r2, r3
 645              	.LVL55:
 646              	.LBB139:
 647              	.LBB136:
 648              		.loc 1 157 0
 649 0090 A3F5DE72 		sub	r2, r3, #444
 650              	.LVL56:
 651 0094 8242     		cmp	r2, r0
 652              		.loc 1 159 0
 653 0096 A3F23653 		subw	r3, r3, #1334
 654              	.LVL57:
 655              		.loc 1 158 0
 656 009a 4FEA4C01 		lsl	r1, ip, #1
 657 009e 0AA8     		add	r0, sp, #40
 658              	.LVL58:
 659              		.loc 1 157 0
 660 00a0 0AD9     		bls	.L44
 661              	.LVL59:
 662              		.loc 1 159 0
 663 00a2 B3F55E7F 		cmp	r3, #888
 664              		.loc 1 160 0
 665 00a6 0AA8     		add	r0, sp, #40
 666              	.LBB132:
 667              	.LBB133:
 668              		.loc 1 113 0
 669 00a8 4FF00103 		mov	r3, #1
 670              	.LVL60:
 671              	.LBE133:
 672              	.LBE132:
 673              		.loc 1 159 0
 674 00ac 26D8     		bhi	.L36
 675              		.loc 1 160 0
 676 00ae BCF1000F 		cmp	ip, #0
 677 00b2 14BF     		ite	ne
 678 00b4 0621     		movne	r1, #6
 679 00b6 0421     		moveq	r1, #4
 680              	.LVL61:
 681              	.L44:
 682 00b8 FFF7FEFF 		bl	RC5_decodeEvent
 683              	.LVL62:
 684              	.L33:
ARM GAS  C:\Users\Moi\AppData\Local\Temp\ccvnmOEg.s 			page 13


 685              	.LBE136:
 686              	.LBE139:
 687              	.LBE142:
 688              		.loc 1 196 0
 689 00bc 0D9B     		ldr	r3, [sp, #52]
 690              	.LBE145:
 691              	.LBE151:
 692              	.LBE158:
 693              	.LBE163:
 694              		.loc 1 356 0
 695 00be 1649     		ldr	r1, .L45+16
 696              	.LBB164:
 697              	.LBB159:
 698              	.LBB152:
 699              	.LBB146:
 700              		.loc 1 196 0
 701 00c0 0E2B     		cmp	r3, #14
 702              	.LBE146:
 703              	.LBE152:
 704              	.LBE159:
 705              	.LBE164:
 706              		.loc 1 356 0
 707 00c2 4FF00302 		mov	r2, #3
 708 00c6 14A8     		add	r0, sp, #80
 709              	.LBB165:
 710              	.LBB160:
 711              	.LBB153:
 712              	.LBB147:
 713              		.loc 1 196 0
 714 00c8 CBD1     		bne	.L32
 715              		.loc 1 197 0
 716 00ca DDF838C0 		ldr	ip, [sp, #56]
 717              	.LVL63:
 718              		.loc 1 199 0
 719 00ce 0D95     		str	r5, [sp, #52]
 720              	.LVL64:
 721              	.LBE147:
 722              	.LBE153:
 723              	.LBB154:
 724              		.loc 1 227 0
 725 00d0 6FEA0C03 		mvn	r3, ip
 726 00d4 5B09     		lsrs	r3, r3, #5
 727              		.loc 1 228 0
 728 00d6 0CF03F0E 		and	lr, ip, #63
 729              		.loc 1 227 0
 730 00da 23F07F03 		bic	r3, r3, #127
 731              		.loc 1 228 0
 732 00de 43EA0E03 		orr	r3, r3, lr
 733              		.loc 1 221 0
 734 00e2 CCF3C02E 		ubfx	lr, ip, #11, #1
 735              		.loc 1 222 0
 736 00e6 CCF3841C 		ubfx	ip, ip, #6, #5
 737              	.LVL65:
 738              		.loc 1 228 0
 739 00ea A370     		strb	r3, [r4, #2]
 740              		.loc 1 221 0
 741 00ec 84F800E0 		strb	lr, [r4]
ARM GAS  C:\Users\Moi\AppData\Local\Temp\ccvnmOEg.s 			page 14


 742              		.loc 1 222 0
 743 00f0 84F801C0 		strb	ip, [r4, #1]
 744              	.LVL66:
 745              	.LBE154:
 746              	.LBB155:
 747              	.LBB148:
 748              		.loc 1 198 0
 749 00f4 0E95     		str	r5, [sp, #56]
 750              	.LBE148:
 751              	.LBE155:
 752              	.LBE160:
 753              	.LBE165:
 754              		.loc 1 356 0
 755 00f6 FFF7FEFF 		bl	messagebus_topic_publish
 756              	.LVL67:
 757 00fa B2E7     		b	.L32
 758              	.LVL68:
 759              	.L36:
 760              	.LBB166:
 761              	.LBB161:
 762              	.LBB156:
 763              	.LBB149:
 764              	.LBB143:
 765              	.LBB140:
 766              	.LBB137:
 767              	.LBB135:
 768              	.LBB134:
 769              		.loc 1 113 0
 770 00fc 8DF82930 		strb	r3, [sp, #41]
 771              		.loc 1 115 0
 772 0100 CDE90D33 		strd	r3, r3, [sp, #52]
 773              		.loc 1 116 0
 774 0104 0B95     		str	r5, [sp, #44]
 775 0106 ACE7     		b	.L32
 776              	.L46:
 777              		.align	2
 778              	.L45:
 779 0108 00000000 		.word	ch
 780 010c 00000000 		.word	__stack_chk_guard
 781 0110 00000000 		.word	.LANCHOR3
 782 0114 00000000 		.word	exti_events
 783 0118 00000000 		.word	.LANCHOR4
 784 011c 00000000 		.word	.LC0
 785 0120 00000000 		.word	bus
 786 0124 000C0240 		.word	1073875968
 787 0128 00000000 		.word	GPTD11
 788              	.LBE134:
 789              	.LBE135:
 790              	.LBE137:
 791              	.LBE140:
 792              	.LBE143:
 793              	.LBE149:
 794              	.LBE156:
 795              	.LBE161:
 796              	.LBE166:
 797              		.cfi_endproc
 798              	.LFE264:
ARM GAS  C:\Users\Moi\AppData\Local\Temp\ccvnmOEg.s 			page 15


 799              		.size	remote_cmd_recv_thd, .-remote_cmd_recv_thd
 800              		.section	.text.ir_remote_start,"ax",%progbits
 801              		.align	1
 802              		.p2align 4,,15
 803              		.global	ir_remote_start
 804              		.syntax unified
 805              		.thumb
 806              		.thumb_func
 807              		.fpu fpv4-sp-d16
 808              		.type	ir_remote_start, %function
 809              	ir_remote_start:
 810              	.LFB265:
 811              		.loc 1 367 0
 812              		.cfi_startproc
 813              		@ args = 0, pretend = 0, frame = 8
 814              		@ frame_needed = 0, uses_anonymous_args = 0
 815 0000 30B5     		push	{r4, r5, lr}
 816              		.cfi_def_cfa_offset 12
 817              		.cfi_offset 4, -12
 818              		.cfi_offset 5, -8
 819              		.cfi_offset 14, -4
 820 0002 134C     		ldr	r4, .L51
 821              		.loc 1 368 0
 822 0004 1349     		ldr	r1, .L51+4
 823              		.loc 1 367 0
 824 0006 2368     		ldr	r3, [r4]
 825              		.loc 1 368 0
 826 0008 1348     		ldr	r0, .L51+8
 827              		.loc 1 367 0
 828 000a 85B0     		sub	sp, sp, #20
 829              		.cfi_def_cfa_offset 32
 830              		.loc 1 372 0
 831 000c 0025     		movs	r5, #0
 832              		.loc 1 367 0
 833 000e 0393     		str	r3, [sp, #12]
 834              		.loc 1 368 0
 835 0010 FFF7FEFF 		bl	gptStart
 836              	.LVL69:
 837              		.loc 1 369 0
 838 0014 4FF6FF71 		movw	r1, #65535
 839 0018 0F48     		ldr	r0, .L51+8
 840 001a FFF7FEFF 		bl	gptStartContinuous
 841              	.LVL70:
 842              		.loc 1 372 0
 843 001e 0F4B     		ldr	r3, .L51+12
 844 0020 0095     		str	r5, [sp]
 845 0022 4022     		movs	r2, #64
 846 0024 4FF4FC71 		mov	r1, #504
 847 0028 0D48     		ldr	r0, .L51+16
 848 002a FFF7FEFF 		bl	chThdCreateStatic
 849              	.LVL71:
 850              		.loc 1 375 0
 851 002e 0D4B     		ldr	r3, .L51+20
 852 0030 0095     		str	r5, [sp]
 853 0032 4022     		movs	r2, #64
 854 0034 0C48     		ldr	r0, .L51+24
 855 0036 4FF41E71 		mov	r1, #632
ARM GAS  C:\Users\Moi\AppData\Local\Temp\ccvnmOEg.s 			page 16


 856 003a FFF7FEFF 		bl	chThdCreateStatic
 857              	.LVL72:
 858              		.loc 1 376 0
 859 003e 039A     		ldr	r2, [sp, #12]
 860 0040 2368     		ldr	r3, [r4]
 861 0042 9A42     		cmp	r2, r3
 862 0044 01D1     		bne	.L50
 863 0046 05B0     		add	sp, sp, #20
 864              		.cfi_remember_state
 865              		.cfi_def_cfa_offset 12
 866              		@ sp needed
 867 0048 30BD     		pop	{r4, r5, pc}
 868              	.L50:
 869              		.cfi_restore_state
 870 004a FFF7FEFF 		bl	__stack_chk_fail
 871              	.LVL73:
 872              	.L52:
 873 004e 00BF     		.align	2
 874              	.L51:
 875 0050 00000000 		.word	__stack_chk_guard
 876 0054 00000000 		.word	.LANCHOR5
 877 0058 00000000 		.word	GPTD11
 878 005c 00000000 		.word	remote_motion_thd
 879 0060 00000000 		.word	.LANCHOR6
 880 0064 00000000 		.word	remote_cmd_recv_thd
 881 0068 00000000 		.word	.LANCHOR7
 882              		.cfi_endproc
 883              	.LFE265:
 884              		.size	ir_remote_start, .-ir_remote_start
 885              		.section	.text.ir_remote_get_toggle,"ax",%progbits
 886              		.align	1
 887              		.p2align 4,,15
 888              		.global	ir_remote_get_toggle
 889              		.syntax unified
 890              		.thumb
 891              		.thumb_func
 892              		.fpu fpv4-sp-d16
 893              		.type	ir_remote_get_toggle, %function
 894              	ir_remote_get_toggle:
 895              	.LFB266:
 896              		.loc 1 378 0
 897              		.cfi_startproc
 898              		@ args = 0, pretend = 0, frame = 8
 899              		@ frame_needed = 0, uses_anonymous_args = 0
 900 0000 00B5     		push	{lr}
 901              		.cfi_def_cfa_offset 4
 902              		.cfi_offset 14, -4
 903 0002 074B     		ldr	r3, .L57
 904              		.loc 1 379 0
 905 0004 0749     		ldr	r1, .L57+4
 906              		.loc 1 378 0
 907 0006 1A68     		ldr	r2, [r3]
 908              		.loc 1 380 0
 909 0008 0878     		ldrb	r0, [r1]	@ zero_extendqisi2
 910              		.loc 1 378 0
 911 000a 83B0     		sub	sp, sp, #12
 912              		.cfi_def_cfa_offset 16
ARM GAS  C:\Users\Moi\AppData\Local\Temp\ccvnmOEg.s 			page 17


 913              		.loc 1 378 0
 914 000c 0192     		str	r2, [sp, #4]
 915              		.loc 1 380 0
 916 000e 019A     		ldr	r2, [sp, #4]
 917 0010 1B68     		ldr	r3, [r3]
 918 0012 9A42     		cmp	r2, r3
 919 0014 02D1     		bne	.L56
 920 0016 03B0     		add	sp, sp, #12
 921              		.cfi_remember_state
 922              		.cfi_def_cfa_offset 4
 923              		@ sp needed
 924 0018 5DF804FB 		ldr	pc, [sp], #4
 925              	.L56:
 926              		.cfi_restore_state
 927 001c FFF7FEFF 		bl	__stack_chk_fail
 928              	.LVL74:
 929              	.L58:
 930              		.align	2
 931              	.L57:
 932 0020 00000000 		.word	__stack_chk_guard
 933 0024 00000000 		.word	.LANCHOR4
 934              		.cfi_endproc
 935              	.LFE266:
 936              		.size	ir_remote_get_toggle, .-ir_remote_get_toggle
 937              		.section	.text.ir_remote_get_address,"ax",%progbits
 938              		.align	1
 939              		.p2align 4,,15
 940              		.global	ir_remote_get_address
 941              		.syntax unified
 942              		.thumb
 943              		.thumb_func
 944              		.fpu fpv4-sp-d16
 945              		.type	ir_remote_get_address, %function
 946              	ir_remote_get_address:
 947              	.LFB267:
 948              		.loc 1 382 0
 949              		.cfi_startproc
 950              		@ args = 0, pretend = 0, frame = 8
 951              		@ frame_needed = 0, uses_anonymous_args = 0
 952 0000 00B5     		push	{lr}
 953              		.cfi_def_cfa_offset 4
 954              		.cfi_offset 14, -4
 955 0002 074B     		ldr	r3, .L63
 956              		.loc 1 383 0
 957 0004 0749     		ldr	r1, .L63+4
 958              		.loc 1 382 0
 959 0006 1A68     		ldr	r2, [r3]
 960              		.loc 1 384 0
 961 0008 4878     		ldrb	r0, [r1, #1]	@ zero_extendqisi2
 962              		.loc 1 382 0
 963 000a 83B0     		sub	sp, sp, #12
 964              		.cfi_def_cfa_offset 16
 965              		.loc 1 382 0
 966 000c 0192     		str	r2, [sp, #4]
 967              		.loc 1 384 0
 968 000e 019A     		ldr	r2, [sp, #4]
 969 0010 1B68     		ldr	r3, [r3]
ARM GAS  C:\Users\Moi\AppData\Local\Temp\ccvnmOEg.s 			page 18


 970 0012 9A42     		cmp	r2, r3
 971 0014 02D1     		bne	.L62
 972 0016 03B0     		add	sp, sp, #12
 973              		.cfi_remember_state
 974              		.cfi_def_cfa_offset 4
 975              		@ sp needed
 976 0018 5DF804FB 		ldr	pc, [sp], #4
 977              	.L62:
 978              		.cfi_restore_state
 979 001c FFF7FEFF 		bl	__stack_chk_fail
 980              	.LVL75:
 981              	.L64:
 982              		.align	2
 983              	.L63:
 984 0020 00000000 		.word	__stack_chk_guard
 985 0024 00000000 		.word	.LANCHOR4
 986              		.cfi_endproc
 987              	.LFE267:
 988              		.size	ir_remote_get_address, .-ir_remote_get_address
 989              		.section	.text.ir_remote_get_data,"ax",%progbits
 990              		.align	1
 991              		.p2align 4,,15
 992              		.global	ir_remote_get_data
 993              		.syntax unified
 994              		.thumb
 995              		.thumb_func
 996              		.fpu fpv4-sp-d16
 997              		.type	ir_remote_get_data, %function
 998              	ir_remote_get_data:
 999              	.LFB268:
 1000              		.loc 1 386 0
 1001              		.cfi_startproc
 1002              		@ args = 0, pretend = 0, frame = 8
 1003              		@ frame_needed = 0, uses_anonymous_args = 0
 1004 0000 00B5     		push	{lr}
 1005              		.cfi_def_cfa_offset 4
 1006              		.cfi_offset 14, -4
 1007 0002 074B     		ldr	r3, .L69
 1008              		.loc 1 387 0
 1009 0004 0749     		ldr	r1, .L69+4
 1010              		.loc 1 386 0
 1011 0006 1A68     		ldr	r2, [r3]
 1012              		.loc 1 388 0
 1013 0008 8878     		ldrb	r0, [r1, #2]	@ zero_extendqisi2
 1014              		.loc 1 386 0
 1015 000a 83B0     		sub	sp, sp, #12
 1016              		.cfi_def_cfa_offset 16
 1017              		.loc 1 386 0
 1018 000c 0192     		str	r2, [sp, #4]
 1019              		.loc 1 388 0
 1020 000e 019A     		ldr	r2, [sp, #4]
 1021 0010 1B68     		ldr	r3, [r3]
 1022 0012 9A42     		cmp	r2, r3
 1023 0014 02D1     		bne	.L68
 1024 0016 03B0     		add	sp, sp, #12
 1025              		.cfi_remember_state
 1026              		.cfi_def_cfa_offset 4
ARM GAS  C:\Users\Moi\AppData\Local\Temp\ccvnmOEg.s 			page 19


 1027              		@ sp needed
 1028 0018 5DF804FB 		ldr	pc, [sp], #4
 1029              	.L68:
 1030              		.cfi_restore_state
 1031 001c FFF7FEFF 		bl	__stack_chk_fail
 1032              	.LVL76:
 1033              	.L70:
 1034              		.align	2
 1035              	.L69:
 1036 0020 00000000 		.word	__stack_chk_guard
 1037 0024 00000000 		.word	.LANCHOR4
 1038              		.cfi_endproc
 1039              	.LFE268:
 1040              		.size	ir_remote_get_data, .-ir_remote_get_data
 1041              		.global	trans
 1042              		.section	.bss.ir_remote_values,"aw",%nobits
 1043              		.align	2
 1044              		.set	.LANCHOR4,. + 0
 1045              		.type	ir_remote_values, %object
 1046              		.size	ir_remote_values, 3
 1047              	ir_remote_values:
 1048 0000 000000   		.space	3
 1049              		.section	.bss.remote_cmd_recv_thd_wa.11459,"aw",%nobits
 1050              		.align	3
 1051              		.set	.LANCHOR7,. + 0
 1052              		.type	remote_cmd_recv_thd_wa.11459, %object
 1053              		.size	remote_cmd_recv_thd_wa.11459, 632
 1054              	remote_cmd_recv_thd_wa.11459:
 1055 0000 00000000 		.space	632
 1055      00000000 
 1055      00000000 
 1055      00000000 
 1055      00000000 
 1056              		.section	.bss.remote_motion_thd_wa.11458,"aw",%nobits
 1057              		.align	3
 1058              		.set	.LANCHOR6,. + 0
 1059              		.type	remote_motion_thd_wa.11458, %object
 1060              		.size	remote_motion_thd_wa.11458, 504
 1061              	remote_motion_thd_wa.11458:
 1062 0000 00000000 		.space	504
 1062      00000000 
 1062      00000000 
 1062      00000000 
 1062      00000000 
 1063              		.section	.rodata.__FUNCTION__.11425,"a",%progbits
 1064              		.align	2
 1065              		.set	.LANCHOR0,. + 0
 1066              		.type	__FUNCTION__.11425, %object
 1067              		.size	__FUNCTION__.11425, 18
 1068              	__FUNCTION__.11425:
 1069 0000 72656D6F 		.ascii	"remote_motion_thd\000"
 1069      74655F6D 
 1069      6F74696F 
 1069      6E5F7468 
 1069      6400
 1070              		.section	.rodata.__FUNCTION__.11448,"a",%progbits
 1071              		.align	2
ARM GAS  C:\Users\Moi\AppData\Local\Temp\ccvnmOEg.s 			page 20


 1072              		.set	.LANCHOR3,. + 0
 1073              		.type	__FUNCTION__.11448, %object
 1074              		.size	__FUNCTION__.11448, 20
 1075              	__FUNCTION__.11448:
 1076 0000 72656D6F 		.ascii	"remote_cmd_recv_thd\000"
 1076      74655F63 
 1076      6D645F72 
 1076      6563765F 
 1076      74686400 
 1077              		.section	.rodata.__func__.7153,"a",%progbits
 1078              		.align	2
 1079              		.set	.LANCHOR1,. + 0
 1080              		.type	__func__.7153, %object
 1081              		.size	__func__.7153, 12
 1082              	__func__.7153:
 1083 0000 63685379 		.ascii	"chSysUnlock\000"
 1083      73556E6C 
 1083      6F636B00 
 1084              		.section	.rodata.gpt11cfg,"a",%progbits
 1085              		.align	2
 1086              		.set	.LANCHOR5,. + 0
 1087              		.type	gpt11cfg, %object
 1088              		.size	gpt11cfg, 16
 1089              	gpt11cfg:
 1090 0000 40420F00 		.word	1000000
 1091 0004 00000000 		.word	0
 1092 0008 00000000 		.word	0
 1093 000c 00000000 		.word	0
 1094              		.section	.rodata.remote_motion_thd.str1.4,"aMS",%progbits,1
 1095              		.align	2
 1096              	.LC0:
 1097 0000 2F69725F 		.ascii	"/ir_remote\000"
 1097      72656D6F 
 1097      746500
 1098              		.section	.rodata.trans,"a",%progbits
 1099              		.align	2
 1100              		.set	.LANCHOR2,. + 0
 1101              		.type	trans, %object
 1102              		.size	trans, 4
 1103              	trans:
 1104 0000 01       		.byte	1
 1105 0001 91       		.byte	-111
 1106 0002 9B       		.byte	-101
 1107 0003 FB       		.byte	-5
 1108              		.text
 1109              	.Letext0:
 1110              		.file 6 "c:\\users\\moi\\documents\\_microinfo\\epuck-eclipse\\tools\\gcc-arm-none-eabi-7-2017-q4-
 1111              		.file 7 "c:\\users\\moi\\documents\\_microinfo\\epuck-eclipse\\tools\\gcc-arm-none-eabi-7-2017-q4-
 1112              		.file 8 "c:\\users\\moi\\documents\\_microinfo\\epuck-eclipse\\tools\\gcc-arm-none-eabi-7-2017-q4-
 1113              		.file 9 ".//ChibiOS//os/rt/ports/ARMCMx/compilers/GCC/chtypes.h"
 1114              		.file 10 ".//ChibiOS//os/rt/include/chsystypes.h"
 1115              		.file 11 ".//ChibiOS//os/rt/include/chschd.h"
 1116              		.file 12 ".//ChibiOS//os/ext/CMSIS/include/core_cm4.h"
 1117              		.file 13 ".//ChibiOS//os/ext/CMSIS/ST/system_stm32f4xx.h"
 1118              		.file 14 ".//ChibiOS//os/ext/CMSIS/ST/stm32f407xx.h"
 1119              		.file 15 ".//ChibiOS//os/rt/ports/ARMCMx/chcore.h"
 1120              		.file 16 ".//ChibiOS//os/rt/ports/ARMCMx/chcore_v7m.h"
ARM GAS  C:\Users\Moi\AppData\Local\Temp\ccvnmOEg.s 			page 21


 1121              		.file 17 ".//ChibiOS//os/rt/include/chdebug.h"
 1122              		.file 18 ".//ChibiOS//os/rt/include/chtm.h"
 1123              		.file 19 ".//ChibiOS//os/rt/include/chstats.h"
 1124              		.file 20 ".//ChibiOS//os/rt/include/chsem.h"
 1125              		.file 21 ".//ChibiOS//os/rt/include/chmtx.h"
 1126              		.file 22 ".//ChibiOS//os/rt/include/chcond.h"
 1127              		.file 23 ".//ChibiOS//os/rt/include/chevents.h"
 1128              		.file 24 ".//ChibiOS//os/rt/include/chqueues.h"
 1129              		.file 25 ".//ChibiOS//os/hal/ports/STM32/STM32F4xx/stm32_dma.h"
 1130              		.file 26 ".//ChibiOS//os/hal/include/hal_ioblock.h"
 1131              		.file 27 ".//ChibiOS//os/hal/ports/STM32/LLD/GPIOv2/pal_lld.h"
 1132              		.file 28 ".//ChibiOS//os/hal/include/adc.h"
 1133              		.file 29 ".//ChibiOS//os/hal/ports/STM32/STM32F4xx/adc_lld.h"
 1134              		.file 30 ".//ChibiOS//os/hal/include/can.h"
 1135              		.file 31 ".//ChibiOS//os/hal/ports/STM32/LLD/can_lld.h"
 1136              		.file 32 ".//ChibiOS//os/hal/include/dac.h"
 1137              		.file 33 ".//ChibiOS//os/hal/ports/STM32/LLD/DACv1/dac_lld.h"
 1138              		.file 34 ".//ChibiOS//os/hal/include/ext.h"
 1139              		.file 35 ".//ChibiOS//os/hal/ports/STM32/LLD/ext_lld.h"
 1140              		.file 36 ".//ChibiOS//os/hal/include/gpt.h"
 1141              		.file 37 ".//ChibiOS//os/hal/ports/STM32/LLD/TIMv1/gpt_lld.h"
 1142              		.file 38 ".//ChibiOS//os/hal/ports/STM32/LLD/TIMv1/stm32_tim.h"
 1143              		.file 39 ".//ChibiOS//os/hal/include/i2c.h"
 1144              		.file 40 ".//ChibiOS//os/hal/ports/STM32/LLD/I2Cv1/i2c_lld.h"
 1145              		.file 41 ".//ChibiOS//os/hal/include/i2s.h"
 1146              		.file 42 ".//ChibiOS//os/hal/ports/STM32/LLD/SPIv1/i2s_lld.h"
 1147              		.file 43 ".//ChibiOS//os/hal/include/pwm.h"
 1148              		.file 44 ".//ChibiOS//os/hal/ports/STM32/LLD/TIMv1/pwm_lld.h"
 1149              		.file 45 ".//ChibiOS//os/hal/include/serial.h"
 1150              		.file 46 ".//ChibiOS//os/hal/ports/STM32/LLD/USARTv1/serial_lld.h"
 1151              		.file 47 ".//ChibiOS//os/hal/include/sdc.h"
 1152              		.file 48 ".//ChibiOS//os/hal/ports/STM32/LLD/sdc_lld.h"
 1153              		.file 49 ".//ChibiOS//os/hal/include/spi.h"
 1154              		.file 50 ".//ChibiOS//os/hal/ports/STM32/LLD/SPIv1/spi_lld.h"
 1155              		.file 51 ".//ChibiOS//os/hal/include/usb.h"
 1156              		.file 52 ".//ChibiOS//os/hal/ports/STM32/LLD/OTGv1/usb_lld.h"
 1157              		.file 53 ".//ChibiOS//os/hal/ports/STM32/LLD/OTGv1/stm32_otg.h"
 1158              		.file 54 ".//ChibiOS//os/hal/include/serial_usb.h"
 1159              		.file 55 ".//src/ir_remote.h"
 1160              		.file 56 ".//src/exti.h"
 1161              		.file 57 ".//ChibiOS_ext/os/hal/include/../ports/STM32/STM32F4xx/dcmi_lld.h"
 1162              		.file 58 "c:\\users\\moi\\documents\\_microinfo\\epuck-eclipse\\tools\\gcc-arm-none-eabi-7-2017-q4
 1163              		.file 59 "c:\\users\\moi\\documents\\_microinfo\\epuck-eclipse\\tools\\gcc-arm-none-eabi-7-2017-q4
 1164              		.file 60 "c:\\users\\moi\\documents\\_microinfo\\epuck-eclipse\\tools\\gcc-arm-none-eabi-7-2017-q4
 1165              		.file 61 ".//src/msgbus/messagebus.h"
 1166              		.file 62 "c:\\users\\moi\\documents\\_microinfo\\epuck-eclipse\\tools\\gcc-arm-none-eabi-7-2017-q4
 1167              		.file 63 "c:\\users\\moi\\documents\\_microinfo\\epuck-eclipse\\tools\\gcc-arm-none-eabi-7-2017-q4
 1168              		.file 64 ".//src/parameter/parameter.h"
 1169              		.file 65 ".//src/main.h"
 1170              		.file 66 ".//ChibiOS//os/various/shell.h"
 1171              		.file 67 ".//src/usbcfg.h"
 1172              		.file 68 ".//ChibiOS//os/rt/include/chthreads.h"
 1173              		.file 69 ".//src/motors.h"
