ARM GAS  C:\Users\Moi\AppData\Local\Temp\cccpWUFo.s 			page 1


   1              		.cpu cortex-m4
   2              		.eabi_attribute 27, 1
   3              		.eabi_attribute 28, 1
   4              		.eabi_attribute 20, 1
   5              		.eabi_attribute 21, 1
   6              		.eabi_attribute 23, 3
   7              		.eabi_attribute 24, 1
   8              		.eabi_attribute 25, 1
   9              		.eabi_attribute 26, 1
  10              		.eabi_attribute 30, 2
  11              		.eabi_attribute 34, 1
  12              		.eabi_attribute 18, 4
  13              		.file	"pal_lld.c"
  14              		.text
  15              	.Ltext0:
  16              		.cfi_sections	.debug_frame
  17              		.section	.text._pal_lld_init,"ax",%progbits
  18              		.align	1
  19              		.p2align 4,,15
  20              		.global	_pal_lld_init
  21              		.syntax unified
  22              		.thumb
  23              		.thumb_func
  24              		.fpu fpv4-sp-d16
  25              		.type	_pal_lld_init, %function
  26              	_pal_lld_init:
  27              	.LFB257:
  28              		.file 1 ".//ChibiOS//os/hal/ports/STM32/LLD/GPIOv2/pal_lld.c"
  29              		.loc 1 92 0
  30              		.cfi_startproc
  31              		@ args = 0, pretend = 0, frame = 8
  32              		@ frame_needed = 0, uses_anonymous_args = 0
  33              	.LVL0:
  34 0000 70B5     		push	{r4, r5, r6, lr}
  35              		.cfi_def_cfa_offset 16
  36              		.cfi_offset 4, -16
  37              		.cfi_offset 5, -12
  38              		.cfi_offset 6, -8
  39              		.cfi_offset 14, -4
  40 0002 704C     		ldr	r4, .L6
  41              		.loc 1 105 0
  42 0004 704A     		ldr	r2, .L6+4
  43              		.loc 1 92 0
  44 0006 2368     		ldr	r3, [r4]
  45 0008 82B0     		sub	sp, sp, #8
  46              		.cfi_def_cfa_offset 24
  47              		.loc 1 105 0
  48 000a 40F2FF16 		movw	r6, #511
  49              		.loc 1 92 0
  50 000e 0193     		str	r3, [sp, #4]
  51              		.loc 1 105 0
  52 0010 156B     		ldr	r5, [r2, #48]
  53              	.LBB20:
  54              	.LBB21:
  55              		.loc 1 67 0
  56 0012 6E4B     		ldr	r3, .L6+8
  57              	.LBE21:
ARM GAS  C:\Users\Moi\AppData\Local\Temp\cccpWUFo.s 			page 2


  58              	.LBE20:
  59              		.loc 1 105 0
  60 0014 3543     		orrs	r5, r5, r6
  61 0016 1563     		str	r5, [r2, #48]
  62              		.loc 1 106 0
  63 0018 116D     		ldr	r1, [r2, #80]
  64 001a 3143     		orrs	r1, r1, r6
  65 001c 1165     		str	r1, [r2, #80]
  66              	.LVL1:
  67              	.LBB23:
  68              	.LBB22:
  69              		.loc 1 67 0
  70 001e 4268     		ldr	r2, [r0, #4]
  71 0020 5A60     		str	r2, [r3, #4]
  72              		.loc 1 68 0
  73 0022 8268     		ldr	r2, [r0, #8]
  74 0024 9A60     		str	r2, [r3, #8]
  75              		.loc 1 69 0
  76 0026 C268     		ldr	r2, [r0, #12]
  77 0028 DA60     		str	r2, [r3, #12]
  78              		.loc 1 70 0
  79 002a 0269     		ldr	r2, [r0, #16]
  80 002c 5A61     		str	r2, [r3, #20]
  81              		.loc 1 71 0
  82 002e 4269     		ldr	r2, [r0, #20]
  83 0030 1A62     		str	r2, [r3, #32]
  84              		.loc 1 72 0
  85 0032 8269     		ldr	r2, [r0, #24]
  86 0034 5A62     		str	r2, [r3, #36]
  87              		.loc 1 73 0
  88 0036 0268     		ldr	r2, [r0]
  89 0038 1A60     		str	r2, [r3]
  90              	.LVL2:
  91              	.LBE22:
  92              	.LBE23:
  93              	.LBB24:
  94              	.LBB25:
  95              		.loc 1 67 0
  96 003a 026A     		ldr	r2, [r0, #32]
  97 003c C3F80424 		str	r2, [r3, #1028]
  98              		.loc 1 68 0
  99 0040 426A     		ldr	r2, [r0, #36]
 100 0042 C3F80824 		str	r2, [r3, #1032]
 101              		.loc 1 69 0
 102 0046 826A     		ldr	r2, [r0, #40]
 103 0048 C3F80C24 		str	r2, [r3, #1036]
 104              		.loc 1 70 0
 105 004c C26A     		ldr	r2, [r0, #44]
 106 004e C3F81424 		str	r2, [r3, #1044]
 107              		.loc 1 71 0
 108 0052 026B     		ldr	r2, [r0, #48]
 109 0054 C3F82024 		str	r2, [r3, #1056]
 110              		.loc 1 72 0
 111 0058 426B     		ldr	r2, [r0, #52]
 112 005a C3F82424 		str	r2, [r3, #1060]
 113              		.loc 1 73 0
 114 005e C269     		ldr	r2, [r0, #28]
ARM GAS  C:\Users\Moi\AppData\Local\Temp\cccpWUFo.s 			page 3


 115 0060 C3F80024 		str	r2, [r3, #1024]
 116              	.LVL3:
 117              	.LBE25:
 118              	.LBE24:
 119              	.LBB26:
 120              	.LBB27:
 121              		.loc 1 67 0
 122 0064 C26B     		ldr	r2, [r0, #60]
 123 0066 C3F80428 		str	r2, [r3, #2052]
 124              		.loc 1 68 0
 125 006a 026C     		ldr	r2, [r0, #64]
 126 006c C3F80828 		str	r2, [r3, #2056]
 127              		.loc 1 69 0
 128 0070 426C     		ldr	r2, [r0, #68]
 129 0072 C3F80C28 		str	r2, [r3, #2060]
 130              		.loc 1 70 0
 131 0076 826C     		ldr	r2, [r0, #72]
 132 0078 C3F81428 		str	r2, [r3, #2068]
 133              		.loc 1 71 0
 134 007c C26C     		ldr	r2, [r0, #76]
 135 007e C3F82028 		str	r2, [r3, #2080]
 136              		.loc 1 72 0
 137 0082 026D     		ldr	r2, [r0, #80]
 138 0084 C3F82428 		str	r2, [r3, #2084]
 139              		.loc 1 73 0
 140 0088 826B     		ldr	r2, [r0, #56]
 141 008a C3F80028 		str	r2, [r3, #2048]
 142              	.LVL4:
 143              	.LBE27:
 144              	.LBE26:
 145              	.LBB28:
 146              	.LBB29:
 147              		.loc 1 67 0
 148 008e 03F54063 		add	r3, r3, #3072
 149 0092 826D     		ldr	r2, [r0, #88]
 150 0094 5A60     		str	r2, [r3, #4]
 151              		.loc 1 68 0
 152 0096 C26D     		ldr	r2, [r0, #92]
 153 0098 9A60     		str	r2, [r3, #8]
 154              		.loc 1 69 0
 155 009a 026E     		ldr	r2, [r0, #96]
 156 009c DA60     		str	r2, [r3, #12]
 157              		.loc 1 70 0
 158 009e 426E     		ldr	r2, [r0, #100]
 159 00a0 5A61     		str	r2, [r3, #20]
 160              		.loc 1 71 0
 161 00a2 826E     		ldr	r2, [r0, #104]
 162 00a4 1A62     		str	r2, [r3, #32]
 163              		.loc 1 72 0
 164 00a6 C26E     		ldr	r2, [r0, #108]
 165 00a8 5A62     		str	r2, [r3, #36]
 166              		.loc 1 73 0
 167 00aa 426D     		ldr	r2, [r0, #84]
 168 00ac 1A60     		str	r2, [r3]
 169              	.LVL5:
 170              	.LBE29:
 171              	.LBE28:
ARM GAS  C:\Users\Moi\AppData\Local\Temp\cccpWUFo.s 			page 4


 172              	.LBB30:
 173              	.LBB31:
 174              		.loc 1 67 0
 175 00ae 426F     		ldr	r2, [r0, #116]
 176 00b0 C3F80424 		str	r2, [r3, #1028]
 177              		.loc 1 68 0
 178 00b4 826F     		ldr	r2, [r0, #120]
 179 00b6 C3F80824 		str	r2, [r3, #1032]
 180              		.loc 1 69 0
 181 00ba C26F     		ldr	r2, [r0, #124]
 182 00bc C3F80C24 		str	r2, [r3, #1036]
 183              		.loc 1 70 0
 184 00c0 D0F88020 		ldr	r2, [r0, #128]
 185 00c4 C3F81424 		str	r2, [r3, #1044]
 186              		.loc 1 71 0
 187 00c8 D0F88420 		ldr	r2, [r0, #132]
 188 00cc C3F82024 		str	r2, [r3, #1056]
 189              		.loc 1 72 0
 190 00d0 D0F88820 		ldr	r2, [r0, #136]
 191 00d4 C3F82424 		str	r2, [r3, #1060]
 192              		.loc 1 73 0
 193 00d8 026F     		ldr	r2, [r0, #112]
 194 00da C3F80024 		str	r2, [r3, #1024]
 195              	.LVL6:
 196              	.LBE31:
 197              	.LBE30:
 198              	.LBB32:
 199              	.LBB33:
 200              		.loc 1 67 0
 201 00de D0F89020 		ldr	r2, [r0, #144]
 202 00e2 C3F80428 		str	r2, [r3, #2052]
 203              		.loc 1 68 0
 204 00e6 D0F89420 		ldr	r2, [r0, #148]
 205 00ea C3F80828 		str	r2, [r3, #2056]
 206              		.loc 1 69 0
 207 00ee D0F89820 		ldr	r2, [r0, #152]
 208 00f2 C3F80C28 		str	r2, [r3, #2060]
 209              		.loc 1 70 0
 210 00f6 D0F89C20 		ldr	r2, [r0, #156]
 211 00fa C3F81428 		str	r2, [r3, #2068]
 212              		.loc 1 71 0
 213 00fe D0F8A020 		ldr	r2, [r0, #160]
 214 0102 C3F82028 		str	r2, [r3, #2080]
 215              		.loc 1 72 0
 216 0106 D0F8A420 		ldr	r2, [r0, #164]
 217 010a C3F82428 		str	r2, [r3, #2084]
 218              		.loc 1 73 0
 219 010e D0F88C20 		ldr	r2, [r0, #140]
 220 0112 C3F80028 		str	r2, [r3, #2048]
 221              	.LVL7:
 222              	.LBE33:
 223              	.LBE32:
 224              	.LBB34:
 225              	.LBB35:
 226              		.loc 1 67 0
 227 0116 03F54063 		add	r3, r3, #3072
 228 011a D0F8AC20 		ldr	r2, [r0, #172]
ARM GAS  C:\Users\Moi\AppData\Local\Temp\cccpWUFo.s 			page 5


 229 011e 5A60     		str	r2, [r3, #4]
 230              		.loc 1 68 0
 231 0120 D0F8B020 		ldr	r2, [r0, #176]
 232 0124 9A60     		str	r2, [r3, #8]
 233              		.loc 1 69 0
 234 0126 D0F8B420 		ldr	r2, [r0, #180]
 235 012a DA60     		str	r2, [r3, #12]
 236              		.loc 1 70 0
 237 012c D0F8B820 		ldr	r2, [r0, #184]
 238 0130 5A61     		str	r2, [r3, #20]
 239              		.loc 1 71 0
 240 0132 D0F8BC20 		ldr	r2, [r0, #188]
 241 0136 1A62     		str	r2, [r3, #32]
 242              		.loc 1 72 0
 243 0138 D0F8C020 		ldr	r2, [r0, #192]
 244 013c 5A62     		str	r2, [r3, #36]
 245              		.loc 1 73 0
 246 013e D0F8A820 		ldr	r2, [r0, #168]
 247 0142 1A60     		str	r2, [r3]
 248              	.LVL8:
 249              	.LBE35:
 250              	.LBE34:
 251              	.LBB36:
 252              	.LBB37:
 253              		.loc 1 67 0
 254 0144 D0F8C820 		ldr	r2, [r0, #200]
 255 0148 C3F80424 		str	r2, [r3, #1028]
 256              		.loc 1 68 0
 257 014c D0F8CC20 		ldr	r2, [r0, #204]
 258 0150 C3F80824 		str	r2, [r3, #1032]
 259              		.loc 1 69 0
 260 0154 D0F8D020 		ldr	r2, [r0, #208]
 261 0158 C3F80C24 		str	r2, [r3, #1036]
 262              		.loc 1 70 0
 263 015c D0F8D420 		ldr	r2, [r0, #212]
 264 0160 C3F81424 		str	r2, [r3, #1044]
 265              		.loc 1 71 0
 266 0164 D0F8D820 		ldr	r2, [r0, #216]
 267 0168 C3F82024 		str	r2, [r3, #1056]
 268              		.loc 1 72 0
 269 016c D0F8DC20 		ldr	r2, [r0, #220]
 270 0170 C3F82424 		str	r2, [r3, #1060]
 271              		.loc 1 73 0
 272 0174 D0F8C420 		ldr	r2, [r0, #196]
 273 0178 C3F80024 		str	r2, [r3, #1024]
 274              	.LVL9:
 275              	.LBE37:
 276              	.LBE36:
 277              	.LBB38:
 278              	.LBB39:
 279              		.loc 1 67 0
 280 017c D0F8E420 		ldr	r2, [r0, #228]
 281 0180 C3F80428 		str	r2, [r3, #2052]
 282              		.loc 1 68 0
 283 0184 D0F8E820 		ldr	r2, [r0, #232]
 284 0188 C3F80828 		str	r2, [r3, #2056]
 285              		.loc 1 69 0
ARM GAS  C:\Users\Moi\AppData\Local\Temp\cccpWUFo.s 			page 6


 286 018c D0F8EC20 		ldr	r2, [r0, #236]
 287 0190 C3F80C28 		str	r2, [r3, #2060]
 288              		.loc 1 70 0
 289 0194 D0F8F020 		ldr	r2, [r0, #240]
 290 0198 C3F81428 		str	r2, [r3, #2068]
 291              		.loc 1 71 0
 292 019c D0F8F420 		ldr	r2, [r0, #244]
 293 01a0 C3F82028 		str	r2, [r3, #2080]
 294              		.loc 1 72 0
 295 01a4 D0F8F820 		ldr	r2, [r0, #248]
 296 01a8 C3F82428 		str	r2, [r3, #2084]
 297              		.loc 1 73 0
 298 01ac D0F8E020 		ldr	r2, [r0, #224]
 299 01b0 C3F80028 		str	r2, [r3, #2048]
 300              	.LVL10:
 301              	.LBE39:
 302              	.LBE38:
 303              		.loc 1 139 0
 304 01b4 019A     		ldr	r2, [sp, #4]
 305 01b6 2368     		ldr	r3, [r4]
 306 01b8 9A42     		cmp	r2, r3
 307 01ba 01D1     		bne	.L5
 308 01bc 02B0     		add	sp, sp, #8
 309              		.cfi_remember_state
 310              		.cfi_def_cfa_offset 16
 311              		@ sp needed
 312 01be 70BD     		pop	{r4, r5, r6, pc}
 313              	.L5:
 314              		.cfi_restore_state
 315 01c0 FFF7FEFF 		bl	__stack_chk_fail
 316              	.LVL11:
 317              	.L7:
 318              		.align	2
 319              	.L6:
 320 01c4 00000000 		.word	__stack_chk_guard
 321 01c8 00380240 		.word	1073887232
 322 01cc 00000240 		.word	1073872896
 323              		.cfi_endproc
 324              	.LFE257:
 325              		.size	_pal_lld_init, .-_pal_lld_init
 326              		.section	.text._pal_lld_setgroupmode,"ax",%progbits
 327              		.align	1
 328              		.p2align 4,,15
 329              		.global	_pal_lld_setgroupmode
 330              		.syntax unified
 331              		.thumb
 332              		.thumb_func
 333              		.fpu fpv4-sp-d16
 334              		.type	_pal_lld_setgroupmode, %function
 335              	_pal_lld_setgroupmode:
 336              	.LFB258:
 337              		.loc 1 157 0
 338              		.cfi_startproc
 339              		@ args = 0, pretend = 0, frame = 8
 340              		@ frame_needed = 0, uses_anonymous_args = 0
 341              	.LVL12:
 342 0000 2DE9F04F 		push	{r4, r5, r6, r7, r8, r9, r10, fp, lr}
ARM GAS  C:\Users\Moi\AppData\Local\Temp\cccpWUFo.s 			page 7


 343              		.cfi_def_cfa_offset 36
 344              		.cfi_offset 4, -36
 345              		.cfi_offset 5, -32
 346              		.cfi_offset 6, -28
 347              		.cfi_offset 7, -24
 348              		.cfi_offset 8, -20
 349              		.cfi_offset 9, -16
 350              		.cfi_offset 10, -12
 351              		.cfi_offset 11, -8
 352              		.cfi_offset 14, -4
 353 0004 2C4B     		ldr	r3, .L21
 354 0006 83B0     		sub	sp, sp, #12
 355              		.cfi_def_cfa_offset 48
 356              		.loc 1 157 0
 357 0008 1B68     		ldr	r3, [r3]
 358 000a 0193     		str	r3, [sp, #4]
 359              		.loc 1 159 0
 360 000c 02F00308 		and	r8, r2, #3
 361              	.LVL13:
 362              		.loc 1 160 0
 363 0010 C2F3800E 		ubfx	lr, r2, #2, #1
 364              	.LVL14:
 365              		.loc 1 161 0
 366 0014 C2F3C10C 		ubfx	ip, r2, #3, #2
 367              	.LVL15:
 368              		.loc 1 162 0
 369 0018 C2F34117 		ubfx	r7, r2, #5, #2
 370              	.LVL16:
 371              		.loc 1 164 0
 372 001c 0025     		movs	r5, #0
 373              		.loc 1 163 0
 374 001e C2F3C312 		ubfx	r2, r2, #7, #4
 375              	.LVL17:
 376              	.LBB40:
 377              		.loc 1 170 0
 378 0022 4FF00F0B 		mov	fp, #15
 379              		.loc 1 175 0
 380 0026 4FF0010A 		mov	r10, #1
 381              		.loc 1 177 0
 382 002a 4FF00309 		mov	r9, #3
 383 002e 27E0     		b	.L13
 384              	.LVL18:
 385              	.L19:
 386              		.loc 1 172 0
 387 0030 066A     		ldr	r6, [r0, #32]
 388 0032 3440     		ands	r4, r4, r6
 389 0034 2343     		orrs	r3, r3, r4
 390              	.LVL19:
 391 0036 0362     		str	r3, [r0, #32]
 392              	.LVL20:
 393              	.L11:
 394              		.loc 1 176 0
 395 0038 4368     		ldr	r3, [r0, #4]
 396              		.loc 1 175 0
 397 003a 0AFA05F4 		lsl	r4, r10, r5
 398              		.loc 1 176 0
 399 003e 23EA0403 		bic	r3, r3, r4
ARM GAS  C:\Users\Moi\AppData\Local\Temp\cccpWUFo.s 			page 8


 400 0042 43EA0E03 		orr	r3, r3, lr
 401 0046 4360     		str	r3, [r0, #4]
 402              	.LVL21:
 403              		.loc 1 177 0
 404 0048 6B00     		lsls	r3, r5, #1
 405              		.loc 1 178 0
 406 004a 8468     		ldr	r4, [r0, #8]
 407              		.loc 1 177 0
 408 004c 09FA03F3 		lsl	r3, r9, r3
 409              		.loc 1 178 0
 410 0050 DB43     		mvns	r3, r3
 411 0052 1C40     		ands	r4, r4, r3
 412 0054 44EA0C04 		orr	r4, r4, ip
 413 0058 8460     		str	r4, [r0, #8]
 414              		.loc 1 179 0
 415 005a C468     		ldr	r4, [r0, #12]
 416 005c 1C40     		ands	r4, r4, r3
 417 005e 3C43     		orrs	r4, r4, r7
 418 0060 C460     		str	r4, [r0, #12]
 419              		.loc 1 180 0
 420 0062 0468     		ldr	r4, [r0]
 421 0064 2340     		ands	r3, r3, r4
 422 0066 43EA0803 		orr	r3, r3, r8
 423 006a 0360     		str	r3, [r0]
 424              	.LVL22:
 425              	.L9:
 426              	.LBE40:
 427              		.loc 1 183 0
 428 006c 4908     		lsrs	r1, r1, #1
 429              	.LVL23:
 430 006e 19D0     		beq	.L8
 431              		.loc 1 185 0
 432 0070 4FEA4E0E 		lsl	lr, lr, #1
 433              	.LVL24:
 434              		.loc 1 186 0
 435 0074 4FEA8C0C 		lsl	ip, ip, #2
 436              	.LVL25:
 437              		.loc 1 187 0
 438 0078 BF00     		lsls	r7, r7, #2
 439              	.LVL26:
 440              		.loc 1 188 0
 441 007a 4FEA8808 		lsl	r8, r8, #2
 442              	.LVL27:
 443              		.loc 1 189 0
 444 007e 0135     		adds	r5, r5, #1
 445              	.LVL28:
 446              	.L13:
 447              		.loc 1 166 0
 448 0080 CB07     		lsls	r3, r1, #31
 449 0082 F3D5     		bpl	.L9
 450              	.LBB41:
 451              		.loc 1 169 0
 452 0084 05F00703 		and	r3, r5, #7
 453 0088 9B00     		lsls	r3, r3, #2
 454              		.loc 1 170 0
 455 008a 0BFA03F4 		lsl	r4, fp, r3
 456              		.loc 1 171 0
ARM GAS  C:\Users\Moi\AppData\Local\Temp\cccpWUFo.s 			page 9


 457 008e 072D     		cmp	r5, #7
 458 0090 6FEA0404 		mvn	r4, r4
 459              		.loc 1 169 0
 460 0094 02FA03F3 		lsl	r3, r2, r3
 461              	.LVL29:
 462              		.loc 1 171 0
 463 0098 CAD9     		bls	.L19
 464              		.loc 1 174 0
 465 009a 466A     		ldr	r6, [r0, #36]
 466 009c 3440     		ands	r4, r4, r6
 467 009e 2343     		orrs	r3, r3, r4
 468              	.LVL30:
 469 00a0 4362     		str	r3, [r0, #36]
 470 00a2 C9E7     		b	.L11
 471              	.LVL31:
 472              	.L8:
 473              	.LBE41:
 474              		.loc 1 191 0
 475 00a4 044B     		ldr	r3, .L21
 476 00a6 019A     		ldr	r2, [sp, #4]
 477              	.LVL32:
 478 00a8 1B68     		ldr	r3, [r3]
 479 00aa 9A42     		cmp	r2, r3
 480 00ac 02D1     		bne	.L20
 481 00ae 03B0     		add	sp, sp, #12
 482              		.cfi_remember_state
 483              		.cfi_def_cfa_offset 36
 484              		@ sp needed
 485 00b0 BDE8F08F 		pop	{r4, r5, r6, r7, r8, r9, r10, fp, pc}
 486              	.LVL33:
 487              	.L20:
 488              		.cfi_restore_state
 489 00b4 FFF7FEFF 		bl	__stack_chk_fail
 490              	.LVL34:
 491              	.L22:
 492              		.align	2
 493              	.L21:
 494 00b8 00000000 		.word	__stack_chk_guard
 495              		.cfi_endproc
 496              	.LFE258:
 497              		.size	_pal_lld_setgroupmode, .-_pal_lld_setgroupmode
 498              		.text
 499              	.Letext0:
 500              		.file 2 "c:\\users\\moi\\documents\\_microinfo\\epuck-eclipse\\tools\\gcc-arm-none-eabi-7-2017-q4-
 501              		.file 3 "c:\\users\\moi\\documents\\_microinfo\\epuck-eclipse\\tools\\gcc-arm-none-eabi-7-2017-q4-
 502              		.file 4 "c:\\users\\moi\\documents\\_microinfo\\epuck-eclipse\\tools\\gcc-arm-none-eabi-7-2017-q4-
 503              		.file 5 ".//ChibiOS//os/rt/ports/ARMCMx/compilers/GCC/chtypes.h"
 504              		.file 6 ".//ChibiOS//os/rt/include/chsystypes.h"
 505              		.file 7 ".//ChibiOS//os/rt/include/chschd.h"
 506              		.file 8 ".//ChibiOS//os/ext/CMSIS/include/core_cm4.h"
 507              		.file 9 ".//ChibiOS//os/ext/CMSIS/ST/system_stm32f4xx.h"
 508              		.file 10 ".//ChibiOS//os/ext/CMSIS/ST/stm32f407xx.h"
 509              		.file 11 ".//ChibiOS//os/rt/ports/ARMCMx/chcore.h"
 510              		.file 12 ".//ChibiOS//os/rt/ports/ARMCMx/chcore_v7m.h"
 511              		.file 13 ".//ChibiOS//os/rt/include/chdebug.h"
 512              		.file 14 ".//ChibiOS//os/rt/include/chtm.h"
 513              		.file 15 ".//ChibiOS//os/rt/include/chstats.h"
ARM GAS  C:\Users\Moi\AppData\Local\Temp\cccpWUFo.s 			page 10


 514              		.file 16 ".//ChibiOS//os/rt/include/chsem.h"
 515              		.file 17 ".//ChibiOS//os/rt/include/chmtx.h"
 516              		.file 18 ".//ChibiOS//os/rt/include/chregistry.h"
 517              		.file 19 ".//ChibiOS//os/rt/include/chevents.h"
 518              		.file 20 ".//ChibiOS//os/rt/include/chqueues.h"
 519              		.file 21 ".//ChibiOS//os/hal/ports/STM32/STM32F4xx/stm32_dma.h"
 520              		.file 22 ".//ChibiOS//os/hal/include/hal_ioblock.h"
 521              		.file 23 ".//ChibiOS//os/hal/ports/STM32/LLD/GPIOv2/pal_lld.h"
 522              		.file 24 ".//ChibiOS//os/hal/include/adc.h"
 523              		.file 25 ".//ChibiOS//os/hal/ports/STM32/STM32F4xx/adc_lld.h"
 524              		.file 26 ".//ChibiOS//os/hal/include/can.h"
 525              		.file 27 ".//ChibiOS//os/hal/ports/STM32/LLD/can_lld.h"
 526              		.file 28 ".//ChibiOS//os/hal/include/dac.h"
 527              		.file 29 ".//ChibiOS//os/hal/ports/STM32/LLD/DACv1/dac_lld.h"
 528              		.file 30 ".//ChibiOS//os/hal/include/ext.h"
 529              		.file 31 ".//ChibiOS//os/hal/ports/STM32/LLD/ext_lld.h"
 530              		.file 32 ".//ChibiOS//os/hal/include/gpt.h"
 531              		.file 33 ".//ChibiOS//os/hal/ports/STM32/LLD/TIMv1/gpt_lld.h"
 532              		.file 34 ".//ChibiOS//os/hal/ports/STM32/LLD/TIMv1/stm32_tim.h"
 533              		.file 35 ".//ChibiOS//os/hal/include/i2c.h"
 534              		.file 36 ".//ChibiOS//os/hal/ports/STM32/LLD/I2Cv1/i2c_lld.h"
 535              		.file 37 ".//ChibiOS//os/hal/include/i2s.h"
 536              		.file 38 ".//ChibiOS//os/hal/ports/STM32/LLD/SPIv1/i2s_lld.h"
 537              		.file 39 ".//ChibiOS//os/hal/include/pwm.h"
 538              		.file 40 ".//ChibiOS//os/hal/ports/STM32/LLD/TIMv1/pwm_lld.h"
 539              		.file 41 ".//ChibiOS//os/hal/include/serial.h"
 540              		.file 42 ".//ChibiOS//os/hal/ports/STM32/LLD/USARTv1/serial_lld.h"
 541              		.file 43 ".//ChibiOS//os/hal/include/sdc.h"
 542              		.file 44 ".//ChibiOS//os/hal/ports/STM32/LLD/sdc_lld.h"
 543              		.file 45 ".//ChibiOS//os/hal/include/spi.h"
 544              		.file 46 ".//ChibiOS//os/hal/ports/STM32/LLD/SPIv1/spi_lld.h"
 545              		.file 47 ".//ChibiOS//os/hal/include/usb.h"
 546              		.file 48 ".//ChibiOS//os/hal/ports/STM32/LLD/OTGv1/usb_lld.h"
 547              		.file 49 ".//ChibiOS//os/hal/ports/STM32/LLD/OTGv1/stm32_otg.h"
