ARM GAS  C:\Users\Moi\AppData\Local\Temp\ccshbzNF.s 			page 1


   1              		.cpu cortex-m4
   2              		.eabi_attribute 27, 1
   3              		.eabi_attribute 28, 1
   4              		.eabi_attribute 20, 1
   5              		.eabi_attribute 21, 1
   6              		.eabi_attribute 23, 3
   7              		.eabi_attribute 24, 1
   8              		.eabi_attribute 25, 1
   9              		.eabi_attribute 26, 1
  10              		.eabi_attribute 30, 2
  11              		.eabi_attribute 34, 1
  12              		.eabi_attribute 18, 4
  13              		.file	"po8030.c"
  14              		.text
  15              	.Ltext0:
  16              		.cfi_sections	.debug_frame
  17              		.section	.text.po8030_read_id,"ax",%progbits
  18              		.align	1
  19              		.p2align 4,,15
  20              		.global	po8030_read_id
  21              		.syntax unified
  22              		.thumb
  23              		.thumb_func
  24              		.fpu fpv4-sp-d16
  25              		.type	po8030_read_id, %function
  26              	po8030_read_id:
  27              	.LFB257:
  28              		.file 1 ".//src/camera/po8030.c"
  29              		.loc 1 93 0
  30              		.cfi_startproc
  31              		@ args = 0, pretend = 0, frame = 8
  32              		@ frame_needed = 0, uses_anonymous_args = 0
  33              	.LVL0:
  34 0000 30B5     		push	{r4, r5, lr}
  35              		.cfi_def_cfa_offset 12
  36              		.cfi_offset 4, -12
  37              		.cfi_offset 5, -8
  38              		.cfi_offset 14, -4
  39 0002 83B0     		sub	sp, sp, #12
  40              		.cfi_def_cfa_offset 24
  41              		.loc 1 94 0
  42 0004 02AA     		add	r2, sp, #8
  43              		.loc 1 93 0
  44 0006 114C     		ldr	r4, .L8
  45              		.loc 1 94 0
  46 0008 0021     		movs	r1, #0
  47              		.loc 1 93 0
  48 000a 0546     		mov	r5, r0
  49 000c 2368     		ldr	r3, [r4]
  50              		.loc 1 94 0
  51 000e 22F8081D 		strh	r1, [r2, #-8]!	@ movhi
  52              	.LVL1:
  53              		.loc 1 97 0
  54 0012 6E20     		movs	r0, #110
  55              	.LVL2:
  56              		.loc 1 93 0
  57 0014 0193     		str	r3, [sp, #4]
ARM GAS  C:\Users\Moi\AppData\Local\Temp\ccshbzNF.s 			page 2


  58              		.loc 1 97 0
  59 0016 FFF7FEFF 		bl	read_reg
  60              	.LVL3:
  61 001a 28B1     		cbz	r0, .L6
  62              	.L2:
  63              		.loc 1 106 0
  64 001c 019A     		ldr	r2, [sp, #4]
  65 001e 2368     		ldr	r3, [r4]
  66 0020 9A42     		cmp	r2, r3
  67 0022 10D1     		bne	.L7
  68 0024 03B0     		add	sp, sp, #12
  69              		.cfi_remember_state
  70              		.cfi_def_cfa_offset 12
  71              		@ sp needed
  72 0026 30BD     		pop	{r4, r5, pc}
  73              	.LVL4:
  74              	.L6:
  75              		.cfi_restore_state
  76              		.loc 1 100 0
  77 0028 0DF10102 		add	r2, sp, #1
  78 002c 0121     		movs	r1, #1
  79 002e 6E20     		movs	r0, #110
  80              	.LVL5:
  81 0030 FFF7FEFF 		bl	read_reg
  82              	.LVL6:
  83 0034 0028     		cmp	r0, #0
  84 0036 F1D1     		bne	.L2
  85              		.loc 1 103 0
  86 0038 9DF80030 		ldrb	r3, [sp]	@ zero_extendqisi2
  87 003c 9DF80120 		ldrb	r2, [sp, #1]	@ zero_extendqisi2
  88 0040 1343     		orrs	r3, r3, r2
  89 0042 2B80     		strh	r3, [r5]	@ movhi
  90              		.loc 1 105 0
  91 0044 EAE7     		b	.L2
  92              	.L7:
  93              		.loc 1 106 0
  94 0046 FFF7FEFF 		bl	__stack_chk_fail
  95              	.LVL7:
  96              	.L9:
  97 004a 00BF     		.align	2
  98              	.L8:
  99 004c 00000000 		.word	__stack_chk_guard
 100              		.cfi_endproc
 101              	.LFE257:
 102              		.size	po8030_read_id, .-po8030_read_id
 103              		.section	.text.po8030_set_bank,"ax",%progbits
 104              		.align	1
 105              		.p2align 4,,15
 106              		.global	po8030_set_bank
 107              		.syntax unified
 108              		.thumb
 109              		.thumb_func
 110              		.fpu fpv4-sp-d16
 111              		.type	po8030_set_bank, %function
 112              	po8030_set_bank:
 113              	.LFB258:
 114              		.loc 1 118 0
ARM GAS  C:\Users\Moi\AppData\Local\Temp\ccshbzNF.s 			page 3


 115              		.cfi_startproc
 116              		@ args = 0, pretend = 0, frame = 8
 117              		@ frame_needed = 0, uses_anonymous_args = 0
 118              	.LVL8:
 119 0000 00B5     		push	{lr}
 120              		.cfi_def_cfa_offset 4
 121              		.cfi_offset 14, -4
 122 0002 094B     		ldr	r3, .L15
 123 0004 83B0     		sub	sp, sp, #12
 124              		.cfi_def_cfa_offset 16
 125              		.loc 1 118 0
 126 0006 1A68     		ldr	r2, [r3]
 127 0008 0192     		str	r2, [sp, #4]
 128              		.loc 1 119 0
 129 000a 0199     		ldr	r1, [sp, #4]
 130 000c 1B68     		ldr	r3, [r3]
 131 000e 9942     		cmp	r1, r3
 132 0010 07D1     		bne	.L14
 133 0012 0246     		mov	r2, r0
 134 0014 0321     		movs	r1, #3
 135 0016 6E20     		movs	r0, #110
 136              	.LVL9:
 137              		.loc 1 120 0
 138 0018 03B0     		add	sp, sp, #12
 139              		.cfi_remember_state
 140              		.cfi_def_cfa_offset 4
 141              		@ sp needed
 142 001a 5DF804EB 		ldr	lr, [sp], #4
 143              		.cfi_restore 14
 144              		.cfi_def_cfa_offset 0
 145              		.loc 1 119 0
 146 001e FFF7FEBF 		b	write_reg
 147              	.LVL10:
 148              	.L14:
 149              		.cfi_restore_state
 150 0022 FFF7FEFF 		bl	__stack_chk_fail
 151              	.LVL11:
 152              	.L16:
 153 0026 00BF     		.align	2
 154              	.L15:
 155 0028 00000000 		.word	__stack_chk_guard
 156              		.cfi_endproc
 157              	.LFE258:
 158              		.size	po8030_set_bank, .-po8030_set_bank
 159              		.section	.text.po8030_set_format,"ax",%progbits
 160              		.align	1
 161              		.p2align 4,,15
 162              		.global	po8030_set_format
 163              		.syntax unified
 164              		.thumb
 165              		.thumb_func
 166              		.fpu fpv4-sp-d16
 167              		.type	po8030_set_format, %function
 168              	po8030_set_format:
 169              	.LFB259:
 170              		.loc 1 132 0
 171              		.cfi_startproc
ARM GAS  C:\Users\Moi\AppData\Local\Temp\ccshbzNF.s 			page 4


 172              		@ args = 0, pretend = 0, frame = 8
 173              		@ frame_needed = 0, uses_anonymous_args = 0
 174              	.LVL12:
 175 0000 70B5     		push	{r4, r5, r6, lr}
 176              		.cfi_def_cfa_offset 16
 177              		.cfi_offset 4, -16
 178              		.cfi_offset 5, -12
 179              		.cfi_offset 6, -8
 180              		.cfi_offset 14, -4
 181 0002 274D     		ldr	r5, .L36
 182 0004 82B0     		sub	sp, sp, #8
 183              		.cfi_def_cfa_offset 24
 184              		.loc 1 132 0
 185 0006 2B68     		ldr	r3, [r5]
 186 0008 0193     		str	r3, [sp, #4]
 187              	.LVL13:
 188 000a 0646     		mov	r6, r0
 189              	.LBB76:
 190              	.LBB77:
 191              		.loc 1 119 0
 192 000c 0122     		movs	r2, #1
 193 000e 0321     		movs	r1, #3
 194 0010 6E20     		movs	r0, #110
 195              	.LVL14:
 196 0012 FFF7FEFF 		bl	write_reg
 197              	.LVL15:
 198              	.LBE77:
 199              	.LBE76:
 200              		.loc 1 135 0
 201 0016 0446     		mov	r4, r0
 202 0018 30B1     		cbz	r0, .L32
 203              	.L18:
 204              		.loc 1 168 0
 205 001a 019A     		ldr	r2, [sp, #4]
 206 001c 2B68     		ldr	r3, [r5]
 207 001e 9A42     		cmp	r2, r3
 208 0020 2046     		mov	r0, r4
 209 0022 3AD1     		bne	.L33
 210 0024 02B0     		add	sp, sp, #8
 211              		.cfi_remember_state
 212              		.cfi_def_cfa_offset 16
 213              		@ sp needed
 214 0026 70BD     		pop	{r4, r5, r6, pc}
 215              	.L32:
 216              		.cfi_restore_state
 217              		.loc 1 139 0
 218 0028 3246     		mov	r2, r6
 219 002a 4E21     		movs	r1, #78
 220 002c 6E20     		movs	r0, #110
 221 002e FFF7FEFF 		bl	write_reg
 222              	.LVL16:
 223 0032 0446     		mov	r4, r0
 224 0034 0028     		cmp	r0, #0
 225 0036 F0D1     		bne	.L18
 226              	.LVL17:
 227              	.LBB78:
 228              	.LBB79:
ARM GAS  C:\Users\Moi\AppData\Local\Temp\ccshbzNF.s 			page 5


 229              		.loc 1 143 0
 230 0038 442E     		cmp	r6, #68
 231 003a 07D0     		beq	.L34
 232              		.loc 1 154 0
 233 003c 0246     		mov	r2, r0
 234 003e B721     		movs	r1, #183
 235 0040 6E20     		movs	r0, #110
 236              	.LVL18:
 237 0042 FFF7FEFF 		bl	write_reg
 238              	.LVL19:
 239 0046 B8B1     		cbz	r0, .L35
 240              	.LVL20:
 241              	.L26:
 242              		.loc 1 157 0
 243 0048 0446     		mov	r4, r0
 244 004a E6E7     		b	.L18
 245              	.LVL21:
 246              	.L34:
 247              		.loc 1 144 0
 248 004c 0122     		movs	r2, #1
 249 004e B721     		movs	r1, #183
 250 0050 6E20     		movs	r0, #110
 251              	.LVL22:
 252 0052 FFF7FEFF 		bl	write_reg
 253              	.LVL23:
 254 0056 0028     		cmp	r0, #0
 255 0058 F6D1     		bne	.L26
 256              	.LVL24:
 257              	.LBB80:
 258              	.LBB81:
 259              		.loc 1 119 0
 260 005a 2246     		mov	r2, r4
 261 005c 0321     		movs	r1, #3
 262 005e 6E20     		movs	r0, #110
 263              	.LVL25:
 264 0060 FFF7FEFF 		bl	write_reg
 265              	.LVL26:
 266              	.LBE81:
 267              	.LBE80:
 268              		.loc 1 147 0
 269 0064 0028     		cmp	r0, #0
 270 0066 EFD1     		bne	.L26
 271              		.loc 1 150 0
 272 0068 0322     		movs	r2, #3
 273 006a 1121     		movs	r1, #17
 274 006c 6E20     		movs	r0, #110
 275 006e FFF7FEFF 		bl	write_reg
 276              	.LVL27:
 277 0072 78B1     		cbz	r0, .L20
 278              		.loc 1 157 0
 279 0074 0446     		mov	r4, r0
 280 0076 D0E7     		b	.L18
 281              	.L35:
 282              	.LVL28:
 283              	.LBB82:
 284              	.LBB83:
 285              		.loc 1 119 0
ARM GAS  C:\Users\Moi\AppData\Local\Temp\ccshbzNF.s 			page 6


 286 0078 2246     		mov	r2, r4
 287 007a 0321     		movs	r1, #3
 288 007c 6E20     		movs	r0, #110
 289              	.LVL29:
 290 007e FFF7FEFF 		bl	write_reg
 291              	.LVL30:
 292              	.LBE83:
 293              	.LBE82:
 294              		.loc 1 157 0
 295 0082 0028     		cmp	r0, #0
 296 0084 E0D1     		bne	.L26
 297              		.loc 1 160 0
 298 0086 0A22     		movs	r2, #10
 299 0088 1121     		movs	r1, #17
 300 008a 6E20     		movs	r0, #110
 301 008c FFF7FEFF 		bl	write_reg
 302              	.LVL31:
 303 0090 0028     		cmp	r0, #0
 304 0092 D9D1     		bne	.L26
 305              	.L20:
 306              		.loc 1 165 0
 307 0094 034B     		ldr	r3, .L36+4
 308 0096 1E71     		strb	r6, [r3, #4]
 309 0098 BFE7     		b	.L18
 310              	.LVL32:
 311              	.L33:
 312              	.LBE79:
 313              	.LBE78:
 314              		.loc 1 168 0
 315 009a FFF7FEFF 		bl	__stack_chk_fail
 316              	.LVL33:
 317              	.L37:
 318 009e 00BF     		.align	2
 319              	.L36:
 320 00a0 00000000 		.word	__stack_chk_guard
 321 00a4 00000000 		.word	.LANCHOR0
 322              		.cfi_endproc
 323              	.LFE259:
 324              		.size	po8030_set_format, .-po8030_set_format
 325              		.section	.text.po8030_set_vga,"ax",%progbits
 326              		.align	1
 327              		.p2align 4,,15
 328              		.global	po8030_set_vga
 329              		.syntax unified
 330              		.thumb
 331              		.thumb_func
 332              		.fpu fpv4-sp-d16
 333              		.type	po8030_set_vga, %function
 334              	po8030_set_vga:
 335              	.LFB260:
 336              		.loc 1 178 0
 337              		.cfi_startproc
 338              		@ args = 0, pretend = 0, frame = 8
 339              		@ frame_needed = 0, uses_anonymous_args = 0
 340 0000 10B5     		push	{r4, lr}
 341              		.cfi_def_cfa_offset 8
 342              		.cfi_offset 4, -8
ARM GAS  C:\Users\Moi\AppData\Local\Temp\ccshbzNF.s 			page 7


 343              		.cfi_offset 14, -4
 344 0002 704C     		ldr	r4, .L44
 345 0004 82B0     		sub	sp, sp, #8
 346              		.cfi_def_cfa_offset 16
 347              		.loc 1 178 0
 348 0006 2368     		ldr	r3, [r4]
 349 0008 0193     		str	r3, [sp, #4]
 350              	.LVL34:
 351              	.LBB92:
 352              	.LBB93:
 353              		.loc 1 119 0
 354 000a 0022     		movs	r2, #0
 355 000c 0321     		movs	r1, #3
 356 000e 6E20     		movs	r0, #110
 357 0010 FFF7FEFF 		bl	write_reg
 358              	.LVL35:
 359              	.LBE93:
 360              	.LBE92:
 361              		.loc 1 181 0
 362 0014 30B1     		cbz	r0, .L42
 363              	.L39:
 364              		.loc 1 277 0
 365 0016 019A     		ldr	r2, [sp, #4]
 366 0018 2368     		ldr	r3, [r4]
 367 001a 9A42     		cmp	r2, r3
 368 001c 40F0D080 		bne	.L43
 369 0020 02B0     		add	sp, sp, #8
 370              		.cfi_remember_state
 371              		.cfi_def_cfa_offset 8
 372              		@ sp needed
 373 0022 10BD     		pop	{r4, pc}
 374              	.L42:
 375              		.cfi_restore_state
 376              		.loc 1 185 0
 377 0024 0246     		mov	r2, r0
 378 0026 0821     		movs	r1, #8
 379 0028 6E20     		movs	r0, #110
 380 002a FFF7FEFF 		bl	write_reg
 381              	.LVL36:
 382 002e 0028     		cmp	r0, #0
 383 0030 F1D1     		bne	.L39
 384              		.loc 1 188 0
 385 0032 0122     		movs	r2, #1
 386 0034 0921     		movs	r1, #9
 387 0036 6E20     		movs	r0, #110
 388              	.LVL37:
 389 0038 FFF7FEFF 		bl	write_reg
 390              	.LVL38:
 391 003c 0028     		cmp	r0, #0
 392 003e EAD1     		bne	.L39
 393              		.loc 1 191 0
 394 0040 0246     		mov	r2, r0
 395 0042 0A21     		movs	r1, #10
 396 0044 6E20     		movs	r0, #110
 397              	.LVL39:
 398 0046 FFF7FEFF 		bl	write_reg
 399              	.LVL40:
ARM GAS  C:\Users\Moi\AppData\Local\Temp\ccshbzNF.s 			page 8


 400 004a 0028     		cmp	r0, #0
 401 004c E3D1     		bne	.L39
 402              		.loc 1 194 0
 403 004e 0122     		movs	r2, #1
 404 0050 0B21     		movs	r1, #11
 405 0052 6E20     		movs	r0, #110
 406              	.LVL41:
 407 0054 FFF7FEFF 		bl	write_reg
 408              	.LVL42:
 409 0058 0028     		cmp	r0, #0
 410 005a DCD1     		bne	.L39
 411              	.LBB94:
 412              	.LBB95:
 413              		.loc 1 197 0
 414 005c 0222     		movs	r2, #2
 415 005e 0C21     		movs	r1, #12
 416 0060 6E20     		movs	r0, #110
 417              	.LVL43:
 418 0062 FFF7FEFF 		bl	write_reg
 419              	.LVL44:
 420 0066 0028     		cmp	r0, #0
 421 0068 D5D1     		bne	.L39
 422              		.loc 1 200 0
 423 006a 8022     		movs	r2, #128
 424 006c 0D21     		movs	r1, #13
 425 006e 6E20     		movs	r0, #110
 426              	.LVL45:
 427 0070 FFF7FEFF 		bl	write_reg
 428              	.LVL46:
 429 0074 0028     		cmp	r0, #0
 430 0076 CED1     		bne	.L39
 431              		.loc 1 203 0
 432 0078 0122     		movs	r2, #1
 433 007a 0E21     		movs	r1, #14
 434 007c 6E20     		movs	r0, #110
 435              	.LVL47:
 436 007e FFF7FEFF 		bl	write_reg
 437              	.LVL48:
 438 0082 0028     		cmp	r0, #0
 439 0084 C7D1     		bne	.L39
 440              		.loc 1 206 0
 441 0086 E022     		movs	r2, #224
 442 0088 0F21     		movs	r1, #15
 443 008a 6E20     		movs	r0, #110
 444              	.LVL49:
 445 008c FFF7FEFF 		bl	write_reg
 446              	.LVL50:
 447 0090 0028     		cmp	r0, #0
 448 0092 C0D1     		bne	.L39
 449              		.loc 1 210 0
 450 0094 0246     		mov	r2, r0
 451 0096 3521     		movs	r1, #53
 452 0098 6E20     		movs	r0, #110
 453              	.LVL51:
 454 009a FFF7FEFF 		bl	write_reg
 455              	.LVL52:
 456 009e 0028     		cmp	r0, #0
ARM GAS  C:\Users\Moi\AppData\Local\Temp\ccshbzNF.s 			page 9


 457 00a0 B9D1     		bne	.L39
 458              		.loc 1 213 0
 459 00a2 0122     		movs	r2, #1
 460 00a4 3621     		movs	r1, #54
 461 00a6 6E20     		movs	r0, #110
 462              	.LVL53:
 463 00a8 FFF7FEFF 		bl	write_reg
 464              	.LVL54:
 465 00ac 0028     		cmp	r0, #0
 466 00ae B2D1     		bne	.L39
 467              		.loc 1 216 0
 468 00b0 0222     		movs	r2, #2
 469 00b2 3721     		movs	r1, #55
 470 00b4 6E20     		movs	r0, #110
 471              	.LVL55:
 472 00b6 FFF7FEFF 		bl	write_reg
 473              	.LVL56:
 474 00ba 0028     		cmp	r0, #0
 475 00bc ABD1     		bne	.L39
 476              		.loc 1 219 0
 477 00be 8022     		movs	r2, #128
 478 00c0 3821     		movs	r1, #56
 479 00c2 6E20     		movs	r0, #110
 480              	.LVL57:
 481 00c4 FFF7FEFF 		bl	write_reg
 482              	.LVL58:
 483 00c8 0028     		cmp	r0, #0
 484 00ca A4D1     		bne	.L39
 485              		.loc 1 222 0
 486 00cc 0246     		mov	r2, r0
 487 00ce 3921     		movs	r1, #57
 488 00d0 6E20     		movs	r0, #110
 489              	.LVL59:
 490 00d2 FFF7FEFF 		bl	write_reg
 491              	.LVL60:
 492 00d6 0028     		cmp	r0, #0
 493 00d8 9DD1     		bne	.L39
 494              		.loc 1 225 0
 495 00da 0122     		movs	r2, #1
 496 00dc 3A21     		movs	r1, #58
 497 00de 6E20     		movs	r0, #110
 498              	.LVL61:
 499 00e0 FFF7FEFF 		bl	write_reg
 500              	.LVL62:
 501 00e4 0028     		cmp	r0, #0
 502 00e6 96D1     		bne	.L39
 503              		.loc 1 228 0
 504 00e8 0122     		movs	r2, #1
 505 00ea 3B21     		movs	r1, #59
 506 00ec 6E20     		movs	r0, #110
 507              	.LVL63:
 508 00ee FFF7FEFF 		bl	write_reg
 509              	.LVL64:
 510 00f2 0028     		cmp	r0, #0
 511 00f4 8FD1     		bne	.L39
 512              		.loc 1 231 0
 513 00f6 E022     		movs	r2, #224
ARM GAS  C:\Users\Moi\AppData\Local\Temp\ccshbzNF.s 			page 10


 514 00f8 3C21     		movs	r1, #60
 515 00fa 6E20     		movs	r0, #110
 516              	.LVL65:
 517 00fc FFF7FEFF 		bl	write_reg
 518              	.LVL66:
 519 0100 0028     		cmp	r0, #0
 520 0102 88D1     		bne	.L39
 521              		.loc 1 235 0
 522 0104 0246     		mov	r2, r0
 523 0106 3D21     		movs	r1, #61
 524 0108 6E20     		movs	r0, #110
 525              	.LVL67:
 526 010a FFF7FEFF 		bl	write_reg
 527              	.LVL68:
 528 010e 0028     		cmp	r0, #0
 529 0110 81D1     		bne	.L39
 530              		.loc 1 238 0
 531 0112 D622     		movs	r2, #214
 532 0114 3E21     		movs	r1, #62
 533 0116 6E20     		movs	r0, #110
 534              	.LVL69:
 535 0118 FFF7FEFF 		bl	write_reg
 536              	.LVL70:
 537 011c 0028     		cmp	r0, #0
 538 011e 7FF47AAF 		bne	.L39
 539              		.loc 1 241 0
 540 0122 0122     		movs	r2, #1
 541 0124 3F21     		movs	r1, #63
 542 0126 6E20     		movs	r0, #110
 543              	.LVL71:
 544 0128 FFF7FEFF 		bl	write_reg
 545              	.LVL72:
 546 012c 0028     		cmp	r0, #0
 547 012e 7FF472AF 		bne	.L39
 548              		.loc 1 244 0
 549 0132 AB22     		movs	r2, #171
 550 0134 4021     		movs	r1, #64
 551 0136 6E20     		movs	r0, #110
 552              	.LVL73:
 553 0138 FFF7FEFF 		bl	write_reg
 554              	.LVL74:
 555 013c 0028     		cmp	r0, #0
 556 013e 7FF46AAF 		bne	.L39
 557              		.loc 1 247 0
 558 0142 0246     		mov	r2, r0
 559 0144 4121     		movs	r1, #65
 560 0146 6E20     		movs	r0, #110
 561              	.LVL75:
 562 0148 FFF7FEFF 		bl	write_reg
 563              	.LVL76:
 564 014c 0028     		cmp	r0, #0
 565 014e 7FF462AF 		bne	.L39
 566              		.loc 1 250 0
 567 0152 A122     		movs	r2, #161
 568 0154 4221     		movs	r1, #66
 569 0156 6E20     		movs	r0, #110
 570              	.LVL77:
ARM GAS  C:\Users\Moi\AppData\Local\Temp\ccshbzNF.s 			page 11


 571 0158 FFF7FEFF 		bl	write_reg
 572              	.LVL78:
 573 015c 0028     		cmp	r0, #0
 574 015e 7FF45AAF 		bne	.L39
 575              		.loc 1 253 0
 576 0162 0122     		movs	r2, #1
 577 0164 4321     		movs	r1, #67
 578 0166 6E20     		movs	r0, #110
 579              	.LVL79:
 580 0168 FFF7FEFF 		bl	write_reg
 581              	.LVL80:
 582 016c 0028     		cmp	r0, #0
 583 016e 7FF452AF 		bne	.L39
 584              		.loc 1 256 0
 585 0172 4022     		movs	r2, #64
 586 0174 4421     		movs	r1, #68
 587 0176 6E20     		movs	r0, #110
 588              	.LVL81:
 589 0178 FFF7FEFF 		bl	write_reg
 590              	.LVL82:
 591 017c 0028     		cmp	r0, #0
 592 017e 7FF44AAF 		bne	.L39
 593              	.LVL83:
 594              	.LBB96:
 595              	.LBB97:
 596              		.loc 1 119 0
 597 0182 0122     		movs	r2, #1
 598 0184 0321     		movs	r1, #3
 599 0186 6E20     		movs	r0, #110
 600              	.LVL84:
 601 0188 FFF7FEFF 		bl	write_reg
 602              	.LVL85:
 603              	.LBE97:
 604              	.LBE96:
 605              		.loc 1 260 0
 606 018c 0028     		cmp	r0, #0
 607 018e 7FF442AF 		bne	.L39
 608              		.loc 1 264 0
 609 0192 2022     		movs	r2, #32
 610 0194 9321     		movs	r1, #147
 611 0196 6E20     		movs	r0, #110
 612 0198 FFF7FEFF 		bl	write_reg
 613              	.LVL86:
 614 019c 0028     		cmp	r0, #0
 615 019e 7FF43AAF 		bne	.L39
 616              		.loc 1 267 0
 617 01a2 2022     		movs	r2, #32
 618 01a4 9421     		movs	r1, #148
 619 01a6 6E20     		movs	r0, #110
 620              	.LVL87:
 621 01a8 FFF7FEFF 		bl	write_reg
 622              	.LVL88:
 623 01ac 0028     		cmp	r0, #0
 624 01ae 7FF432AF 		bne	.L39
 625              		.loc 1 271 0
 626 01b2 054B     		ldr	r3, .L44+4
 627 01b4 054A     		ldr	r2, .L44+8
ARM GAS  C:\Users\Moi\AppData\Local\Temp\ccshbzNF.s 			page 12


 628 01b6 1A60     		str	r2, [r3]
 629              		.loc 1 273 0
 630 01b8 2022     		movs	r2, #32
 631 01ba 5A71     		strb	r2, [r3, #5]
 632              		.loc 1 274 0
 633 01bc 9A71     		strb	r2, [r3, #6]
 634 01be 2AE7     		b	.L39
 635              	.LVL89:
 636              	.L43:
 637              	.LBE95:
 638              	.LBE94:
 639              		.loc 1 277 0
 640 01c0 FFF7FEFF 		bl	__stack_chk_fail
 641              	.LVL90:
 642              	.L45:
 643              		.align	2
 644              	.L44:
 645 01c4 00000000 		.word	__stack_chk_guard
 646 01c8 00000000 		.word	.LANCHOR0
 647 01cc 8002E001 		.word	31457920
 648              		.cfi_endproc
 649              	.LFE260:
 650              		.size	po8030_set_vga, .-po8030_set_vga
 651              		.section	.text.po8030_set_qvga,"ax",%progbits
 652              		.align	1
 653              		.p2align 4,,15
 654              		.global	po8030_set_qvga
 655              		.syntax unified
 656              		.thumb
 657              		.thumb_func
 658              		.fpu fpv4-sp-d16
 659              		.type	po8030_set_qvga, %function
 660              	po8030_set_qvga:
 661              	.LFB261:
 662              		.loc 1 287 0
 663              		.cfi_startproc
 664              		@ args = 0, pretend = 0, frame = 8
 665              		@ frame_needed = 0, uses_anonymous_args = 0
 666 0000 10B5     		push	{r4, lr}
 667              		.cfi_def_cfa_offset 8
 668              		.cfi_offset 4, -8
 669              		.cfi_offset 14, -4
 670 0002 704C     		ldr	r4, .L52
 671 0004 82B0     		sub	sp, sp, #8
 672              		.cfi_def_cfa_offset 16
 673              		.loc 1 287 0
 674 0006 2368     		ldr	r3, [r4]
 675 0008 0193     		str	r3, [sp, #4]
 676              	.LVL91:
 677              	.LBB106:
 678              	.LBB107:
 679              		.loc 1 119 0
 680 000a 0022     		movs	r2, #0
 681 000c 0321     		movs	r1, #3
 682 000e 6E20     		movs	r0, #110
 683 0010 FFF7FEFF 		bl	write_reg
 684              	.LVL92:
ARM GAS  C:\Users\Moi\AppData\Local\Temp\ccshbzNF.s 			page 13


 685              	.LBE107:
 686              	.LBE106:
 687              		.loc 1 290 0
 688 0014 30B1     		cbz	r0, .L50
 689              	.L47:
 690              		.loc 1 386 0
 691 0016 019A     		ldr	r2, [sp, #4]
 692 0018 2368     		ldr	r3, [r4]
 693 001a 9A42     		cmp	r2, r3
 694 001c 40F0D080 		bne	.L51
 695 0020 02B0     		add	sp, sp, #8
 696              		.cfi_remember_state
 697              		.cfi_def_cfa_offset 8
 698              		@ sp needed
 699 0022 10BD     		pop	{r4, pc}
 700              	.L50:
 701              		.cfi_restore_state
 702              		.loc 1 294 0
 703 0024 0246     		mov	r2, r0
 704 0026 0821     		movs	r1, #8
 705 0028 6E20     		movs	r0, #110
 706 002a FFF7FEFF 		bl	write_reg
 707              	.LVL93:
 708 002e 0028     		cmp	r0, #0
 709 0030 F1D1     		bne	.L47
 710              		.loc 1 297 0
 711 0032 0122     		movs	r2, #1
 712 0034 0921     		movs	r1, #9
 713 0036 6E20     		movs	r0, #110
 714              	.LVL94:
 715 0038 FFF7FEFF 		bl	write_reg
 716              	.LVL95:
 717 003c 0028     		cmp	r0, #0
 718 003e EAD1     		bne	.L47
 719              		.loc 1 300 0
 720 0040 0246     		mov	r2, r0
 721 0042 0A21     		movs	r1, #10
 722 0044 6E20     		movs	r0, #110
 723              	.LVL96:
 724 0046 FFF7FEFF 		bl	write_reg
 725              	.LVL97:
 726 004a 0028     		cmp	r0, #0
 727 004c E3D1     		bne	.L47
 728              		.loc 1 303 0
 729 004e 0122     		movs	r2, #1
 730 0050 0B21     		movs	r1, #11
 731 0052 6E20     		movs	r0, #110
 732              	.LVL98:
 733 0054 FFF7FEFF 		bl	write_reg
 734              	.LVL99:
 735 0058 0028     		cmp	r0, #0
 736 005a DCD1     		bne	.L47
 737              	.LBB108:
 738              	.LBB109:
 739              		.loc 1 306 0
 740 005c 0122     		movs	r2, #1
 741 005e 0C21     		movs	r1, #12
ARM GAS  C:\Users\Moi\AppData\Local\Temp\ccshbzNF.s 			page 14


 742 0060 6E20     		movs	r0, #110
 743              	.LVL100:
 744 0062 FFF7FEFF 		bl	write_reg
 745              	.LVL101:
 746 0066 0028     		cmp	r0, #0
 747 0068 D5D1     		bne	.L47
 748              		.loc 1 309 0
 749 006a 4022     		movs	r2, #64
 750 006c 0D21     		movs	r1, #13
 751 006e 6E20     		movs	r0, #110
 752              	.LVL102:
 753 0070 FFF7FEFF 		bl	write_reg
 754              	.LVL103:
 755 0074 0028     		cmp	r0, #0
 756 0076 CED1     		bne	.L47
 757              		.loc 1 312 0
 758 0078 0246     		mov	r2, r0
 759 007a 0E21     		movs	r1, #14
 760 007c 6E20     		movs	r0, #110
 761              	.LVL104:
 762 007e FFF7FEFF 		bl	write_reg
 763              	.LVL105:
 764 0082 0028     		cmp	r0, #0
 765 0084 C7D1     		bne	.L47
 766              		.loc 1 315 0
 767 0086 F022     		movs	r2, #240
 768 0088 0F21     		movs	r1, #15
 769 008a 6E20     		movs	r0, #110
 770              	.LVL106:
 771 008c FFF7FEFF 		bl	write_reg
 772              	.LVL107:
 773 0090 0028     		cmp	r0, #0
 774 0092 C0D1     		bne	.L47
 775              		.loc 1 319 0
 776 0094 0246     		mov	r2, r0
 777 0096 3521     		movs	r1, #53
 778 0098 6E20     		movs	r0, #110
 779              	.LVL108:
 780 009a FFF7FEFF 		bl	write_reg
 781              	.LVL109:
 782 009e 0028     		cmp	r0, #0
 783 00a0 B9D1     		bne	.L47
 784              		.loc 1 322 0
 785 00a2 0122     		movs	r2, #1
 786 00a4 3621     		movs	r1, #54
 787 00a6 6E20     		movs	r0, #110
 788              	.LVL110:
 789 00a8 FFF7FEFF 		bl	write_reg
 790              	.LVL111:
 791 00ac 0028     		cmp	r0, #0
 792 00ae B2D1     		bne	.L47
 793              		.loc 1 325 0
 794 00b0 0122     		movs	r2, #1
 795 00b2 3721     		movs	r1, #55
 796 00b4 6E20     		movs	r0, #110
 797              	.LVL112:
 798 00b6 FFF7FEFF 		bl	write_reg
ARM GAS  C:\Users\Moi\AppData\Local\Temp\ccshbzNF.s 			page 15


 799              	.LVL113:
 800 00ba 0028     		cmp	r0, #0
 801 00bc ABD1     		bne	.L47
 802              		.loc 1 328 0
 803 00be 4022     		movs	r2, #64
 804 00c0 3821     		movs	r1, #56
 805 00c2 6E20     		movs	r0, #110
 806              	.LVL114:
 807 00c4 FFF7FEFF 		bl	write_reg
 808              	.LVL115:
 809 00c8 0028     		cmp	r0, #0
 810 00ca A4D1     		bne	.L47
 811              		.loc 1 331 0
 812 00cc 0246     		mov	r2, r0
 813 00ce 3921     		movs	r1, #57
 814 00d0 6E20     		movs	r0, #110
 815              	.LVL116:
 816 00d2 FFF7FEFF 		bl	write_reg
 817              	.LVL117:
 818 00d6 0028     		cmp	r0, #0
 819 00d8 9DD1     		bne	.L47
 820              		.loc 1 334 0
 821 00da 0122     		movs	r2, #1
 822 00dc 3A21     		movs	r1, #58
 823 00de 6E20     		movs	r0, #110
 824              	.LVL118:
 825 00e0 FFF7FEFF 		bl	write_reg
 826              	.LVL119:
 827 00e4 0028     		cmp	r0, #0
 828 00e6 96D1     		bne	.L47
 829              		.loc 1 337 0
 830 00e8 0246     		mov	r2, r0
 831 00ea 3B21     		movs	r1, #59
 832 00ec 6E20     		movs	r0, #110
 833              	.LVL120:
 834 00ee FFF7FEFF 		bl	write_reg
 835              	.LVL121:
 836 00f2 0028     		cmp	r0, #0
 837 00f4 8FD1     		bne	.L47
 838              		.loc 1 340 0
 839 00f6 F022     		movs	r2, #240
 840 00f8 3C21     		movs	r1, #60
 841 00fa 6E20     		movs	r0, #110
 842              	.LVL122:
 843 00fc FFF7FEFF 		bl	write_reg
 844              	.LVL123:
 845 0100 0028     		cmp	r0, #0
 846 0102 88D1     		bne	.L47
 847              		.loc 1 344 0
 848 0104 0246     		mov	r2, r0
 849 0106 3D21     		movs	r1, #61
 850 0108 6E20     		movs	r0, #110
 851              	.LVL124:
 852 010a FFF7FEFF 		bl	write_reg
 853              	.LVL125:
 854 010e 0028     		cmp	r0, #0
 855 0110 81D1     		bne	.L47
ARM GAS  C:\Users\Moi\AppData\Local\Temp\ccshbzNF.s 			page 16


 856              		.loc 1 347 0
 857 0112 6B22     		movs	r2, #107
 858 0114 3E21     		movs	r1, #62
 859 0116 6E20     		movs	r0, #110
 860              	.LVL126:
 861 0118 FFF7FEFF 		bl	write_reg
 862              	.LVL127:
 863 011c 0028     		cmp	r0, #0
 864 011e 7FF47AAF 		bne	.L47
 865              		.loc 1 350 0
 866 0122 0246     		mov	r2, r0
 867 0124 3F21     		movs	r1, #63
 868 0126 6E20     		movs	r0, #110
 869              	.LVL128:
 870 0128 FFF7FEFF 		bl	write_reg
 871              	.LVL129:
 872 012c 0028     		cmp	r0, #0
 873 012e 7FF472AF 		bne	.L47
 874              		.loc 1 353 0
 875 0132 D622     		movs	r2, #214
 876 0134 4021     		movs	r1, #64
 877 0136 6E20     		movs	r0, #110
 878              	.LVL130:
 879 0138 FFF7FEFF 		bl	write_reg
 880              	.LVL131:
 881 013c 0028     		cmp	r0, #0
 882 013e 7FF46AAF 		bne	.L47
 883              		.loc 1 356 0
 884 0142 0246     		mov	r2, r0
 885 0144 4121     		movs	r1, #65
 886 0146 6E20     		movs	r0, #110
 887              	.LVL132:
 888 0148 FFF7FEFF 		bl	write_reg
 889              	.LVL133:
 890 014c 0028     		cmp	r0, #0
 891 014e 7FF462AF 		bne	.L47
 892              		.loc 1 359 0
 893 0152 5022     		movs	r2, #80
 894 0154 4221     		movs	r1, #66
 895 0156 6E20     		movs	r0, #110
 896              	.LVL134:
 897 0158 FFF7FEFF 		bl	write_reg
 898              	.LVL135:
 899 015c 0028     		cmp	r0, #0
 900 015e 7FF45AAF 		bne	.L47
 901              		.loc 1 362 0
 902 0162 0246     		mov	r2, r0
 903 0164 4321     		movs	r1, #67
 904 0166 6E20     		movs	r0, #110
 905              	.LVL136:
 906 0168 FFF7FEFF 		bl	write_reg
 907              	.LVL137:
 908 016c 0028     		cmp	r0, #0
 909 016e 7FF452AF 		bne	.L47
 910              		.loc 1 365 0
 911 0172 A022     		movs	r2, #160
 912 0174 4421     		movs	r1, #68
ARM GAS  C:\Users\Moi\AppData\Local\Temp\ccshbzNF.s 			page 17


 913 0176 6E20     		movs	r0, #110
 914              	.LVL138:
 915 0178 FFF7FEFF 		bl	write_reg
 916              	.LVL139:
 917 017c 0028     		cmp	r0, #0
 918 017e 7FF44AAF 		bne	.L47
 919              	.LVL140:
 920              	.LBB110:
 921              	.LBB111:
 922              		.loc 1 119 0
 923 0182 0122     		movs	r2, #1
 924 0184 0321     		movs	r1, #3
 925 0186 6E20     		movs	r0, #110
 926              	.LVL141:
 927 0188 FFF7FEFF 		bl	write_reg
 928              	.LVL142:
 929              	.LBE111:
 930              	.LBE110:
 931              		.loc 1 369 0
 932 018c 0028     		cmp	r0, #0
 933 018e 7FF442AF 		bne	.L47
 934              		.loc 1 373 0
 935 0192 4022     		movs	r2, #64
 936 0194 9321     		movs	r1, #147
 937 0196 6E20     		movs	r0, #110
 938 0198 FFF7FEFF 		bl	write_reg
 939              	.LVL143:
 940 019c 0028     		cmp	r0, #0
 941 019e 7FF43AAF 		bne	.L47
 942              		.loc 1 376 0
 943 01a2 4022     		movs	r2, #64
 944 01a4 9421     		movs	r1, #148
 945 01a6 6E20     		movs	r0, #110
 946              	.LVL144:
 947 01a8 FFF7FEFF 		bl	write_reg
 948              	.LVL145:
 949 01ac 0028     		cmp	r0, #0
 950 01ae 7FF432AF 		bne	.L47
 951              		.loc 1 380 0
 952 01b2 054B     		ldr	r3, .L52+4
 953 01b4 054A     		ldr	r2, .L52+8
 954 01b6 1A60     		str	r2, [r3]
 955              		.loc 1 382 0
 956 01b8 2022     		movs	r2, #32
 957 01ba 5A71     		strb	r2, [r3, #5]
 958              		.loc 1 383 0
 959 01bc 9A71     		strb	r2, [r3, #6]
 960 01be 2AE7     		b	.L47
 961              	.LVL146:
 962              	.L51:
 963              	.LBE109:
 964              	.LBE108:
 965              		.loc 1 386 0
 966 01c0 FFF7FEFF 		bl	__stack_chk_fail
 967              	.LVL147:
 968              	.L53:
 969              		.align	2
ARM GAS  C:\Users\Moi\AppData\Local\Temp\ccshbzNF.s 			page 18


 970              	.L52:
 971 01c4 00000000 		.word	__stack_chk_guard
 972 01c8 00000000 		.word	.LANCHOR0
 973 01cc 4001F000 		.word	15728960
 974              		.cfi_endproc
 975              	.LFE261:
 976              		.size	po8030_set_qvga, .-po8030_set_qvga
 977              		.section	.text.po8030_set_qqvga,"ax",%progbits
 978              		.align	1
 979              		.p2align 4,,15
 980              		.global	po8030_set_qqvga
 981              		.syntax unified
 982              		.thumb
 983              		.thumb_func
 984              		.fpu fpv4-sp-d16
 985              		.type	po8030_set_qqvga, %function
 986              	po8030_set_qqvga:
 987              	.LFB262:
 988              		.loc 1 396 0
 989              		.cfi_startproc
 990              		@ args = 0, pretend = 0, frame = 8
 991              		@ frame_needed = 0, uses_anonymous_args = 0
 992 0000 10B5     		push	{r4, lr}
 993              		.cfi_def_cfa_offset 8
 994              		.cfi_offset 4, -8
 995              		.cfi_offset 14, -4
 996 0002 704C     		ldr	r4, .L60
 997 0004 82B0     		sub	sp, sp, #8
 998              		.cfi_def_cfa_offset 16
 999              		.loc 1 396 0
 1000 0006 2368     		ldr	r3, [r4]
 1001 0008 0193     		str	r3, [sp, #4]
 1002              	.LVL148:
 1003              	.LBB120:
 1004              	.LBB121:
 1005              		.loc 1 119 0
 1006 000a 0022     		movs	r2, #0
 1007 000c 0321     		movs	r1, #3
 1008 000e 6E20     		movs	r0, #110
 1009 0010 FFF7FEFF 		bl	write_reg
 1010              	.LVL149:
 1011              	.LBE121:
 1012              	.LBE120:
 1013              		.loc 1 399 0
 1014 0014 30B1     		cbz	r0, .L58
 1015              	.L55:
 1016              		.loc 1 495 0
 1017 0016 019A     		ldr	r2, [sp, #4]
 1018 0018 2368     		ldr	r3, [r4]
 1019 001a 9A42     		cmp	r2, r3
 1020 001c 40F0D080 		bne	.L59
 1021 0020 02B0     		add	sp, sp, #8
 1022              		.cfi_remember_state
 1023              		.cfi_def_cfa_offset 8
 1024              		@ sp needed
 1025 0022 10BD     		pop	{r4, pc}
 1026              	.L58:
ARM GAS  C:\Users\Moi\AppData\Local\Temp\ccshbzNF.s 			page 19


 1027              		.cfi_restore_state
 1028              		.loc 1 403 0
 1029 0024 0246     		mov	r2, r0
 1030 0026 0821     		movs	r1, #8
 1031 0028 6E20     		movs	r0, #110
 1032 002a FFF7FEFF 		bl	write_reg
 1033              	.LVL150:
 1034 002e 0028     		cmp	r0, #0
 1035 0030 F1D1     		bne	.L55
 1036              		.loc 1 406 0
 1037 0032 0122     		movs	r2, #1
 1038 0034 0921     		movs	r1, #9
 1039 0036 6E20     		movs	r0, #110
 1040              	.LVL151:
 1041 0038 FFF7FEFF 		bl	write_reg
 1042              	.LVL152:
 1043 003c 0028     		cmp	r0, #0
 1044 003e EAD1     		bne	.L55
 1045              		.loc 1 409 0
 1046 0040 0246     		mov	r2, r0
 1047 0042 0A21     		movs	r1, #10
 1048 0044 6E20     		movs	r0, #110
 1049              	.LVL153:
 1050 0046 FFF7FEFF 		bl	write_reg
 1051              	.LVL154:
 1052 004a 0028     		cmp	r0, #0
 1053 004c E3D1     		bne	.L55
 1054              		.loc 1 412 0
 1055 004e 0122     		movs	r2, #1
 1056 0050 0B21     		movs	r1, #11
 1057 0052 6E20     		movs	r0, #110
 1058              	.LVL155:
 1059 0054 FFF7FEFF 		bl	write_reg
 1060              	.LVL156:
 1061 0058 0028     		cmp	r0, #0
 1062 005a DCD1     		bne	.L55
 1063              	.LBB122:
 1064              	.LBB123:
 1065              		.loc 1 415 0
 1066 005c 0246     		mov	r2, r0
 1067 005e 0C21     		movs	r1, #12
 1068 0060 6E20     		movs	r0, #110
 1069              	.LVL157:
 1070 0062 FFF7FEFF 		bl	write_reg
 1071              	.LVL158:
 1072 0066 0028     		cmp	r0, #0
 1073 0068 D5D1     		bne	.L55
 1074              		.loc 1 418 0
 1075 006a A022     		movs	r2, #160
 1076 006c 0D21     		movs	r1, #13
 1077 006e 6E20     		movs	r0, #110
 1078              	.LVL159:
 1079 0070 FFF7FEFF 		bl	write_reg
 1080              	.LVL160:
 1081 0074 0028     		cmp	r0, #0
 1082 0076 CED1     		bne	.L55
 1083              		.loc 1 421 0
ARM GAS  C:\Users\Moi\AppData\Local\Temp\ccshbzNF.s 			page 20


 1084 0078 0246     		mov	r2, r0
 1085 007a 0E21     		movs	r1, #14
 1086 007c 6E20     		movs	r0, #110
 1087              	.LVL161:
 1088 007e FFF7FEFF 		bl	write_reg
 1089              	.LVL162:
 1090 0082 0028     		cmp	r0, #0
 1091 0084 C7D1     		bne	.L55
 1092              		.loc 1 424 0
 1093 0086 7822     		movs	r2, #120
 1094 0088 0F21     		movs	r1, #15
 1095 008a 6E20     		movs	r0, #110
 1096              	.LVL163:
 1097 008c FFF7FEFF 		bl	write_reg
 1098              	.LVL164:
 1099 0090 0028     		cmp	r0, #0
 1100 0092 C0D1     		bne	.L55
 1101              		.loc 1 428 0
 1102 0094 0246     		mov	r2, r0
 1103 0096 3521     		movs	r1, #53
 1104 0098 6E20     		movs	r0, #110
 1105              	.LVL165:
 1106 009a FFF7FEFF 		bl	write_reg
 1107              	.LVL166:
 1108 009e 0028     		cmp	r0, #0
 1109 00a0 B9D1     		bne	.L55
 1110              		.loc 1 431 0
 1111 00a2 0122     		movs	r2, #1
 1112 00a4 3621     		movs	r1, #54
 1113 00a6 6E20     		movs	r0, #110
 1114              	.LVL167:
 1115 00a8 FFF7FEFF 		bl	write_reg
 1116              	.LVL168:
 1117 00ac 0028     		cmp	r0, #0
 1118 00ae B2D1     		bne	.L55
 1119              		.loc 1 434 0
 1120 00b0 0246     		mov	r2, r0
 1121 00b2 3721     		movs	r1, #55
 1122 00b4 6E20     		movs	r0, #110
 1123              	.LVL169:
 1124 00b6 FFF7FEFF 		bl	write_reg
 1125              	.LVL170:
 1126 00ba 0028     		cmp	r0, #0
 1127 00bc ABD1     		bne	.L55
 1128              		.loc 1 437 0
 1129 00be A022     		movs	r2, #160
 1130 00c0 3821     		movs	r1, #56
 1131 00c2 6E20     		movs	r0, #110
 1132              	.LVL171:
 1133 00c4 FFF7FEFF 		bl	write_reg
 1134              	.LVL172:
 1135 00c8 0028     		cmp	r0, #0
 1136 00ca A4D1     		bne	.L55
 1137              		.loc 1 440 0
 1138 00cc 0246     		mov	r2, r0
 1139 00ce 3921     		movs	r1, #57
 1140 00d0 6E20     		movs	r0, #110
ARM GAS  C:\Users\Moi\AppData\Local\Temp\ccshbzNF.s 			page 21


 1141              	.LVL173:
 1142 00d2 FFF7FEFF 		bl	write_reg
 1143              	.LVL174:
 1144 00d6 0028     		cmp	r0, #0
 1145 00d8 9DD1     		bne	.L55
 1146              		.loc 1 443 0
 1147 00da 0122     		movs	r2, #1
 1148 00dc 3A21     		movs	r1, #58
 1149 00de 6E20     		movs	r0, #110
 1150              	.LVL175:
 1151 00e0 FFF7FEFF 		bl	write_reg
 1152              	.LVL176:
 1153 00e4 0028     		cmp	r0, #0
 1154 00e6 96D1     		bne	.L55
 1155              		.loc 1 446 0
 1156 00e8 0246     		mov	r2, r0
 1157 00ea 3B21     		movs	r1, #59
 1158 00ec 6E20     		movs	r0, #110
 1159              	.LVL177:
 1160 00ee FFF7FEFF 		bl	write_reg
 1161              	.LVL178:
 1162 00f2 0028     		cmp	r0, #0
 1163 00f4 8FD1     		bne	.L55
 1164              		.loc 1 449 0
 1165 00f6 7822     		movs	r2, #120
 1166 00f8 3C21     		movs	r1, #60
 1167 00fa 6E20     		movs	r0, #110
 1168              	.LVL179:
 1169 00fc FFF7FEFF 		bl	write_reg
 1170              	.LVL180:
 1171 0100 0028     		cmp	r0, #0
 1172 0102 88D1     		bne	.L55
 1173              		.loc 1 453 0
 1174 0104 0246     		mov	r2, r0
 1175 0106 3D21     		movs	r1, #61
 1176 0108 6E20     		movs	r0, #110
 1177              	.LVL181:
 1178 010a FFF7FEFF 		bl	write_reg
 1179              	.LVL182:
 1180 010e 0028     		cmp	r0, #0
 1181 0110 81D1     		bne	.L55
 1182              		.loc 1 456 0
 1183 0112 3622     		movs	r2, #54
 1184 0114 3E21     		movs	r1, #62
 1185 0116 6E20     		movs	r0, #110
 1186              	.LVL183:
 1187 0118 FFF7FEFF 		bl	write_reg
 1188              	.LVL184:
 1189 011c 0028     		cmp	r0, #0
 1190 011e 7FF47AAF 		bne	.L55
 1191              		.loc 1 459 0
 1192 0122 0246     		mov	r2, r0
 1193 0124 3F21     		movs	r1, #63
 1194 0126 6E20     		movs	r0, #110
 1195              	.LVL185:
 1196 0128 FFF7FEFF 		bl	write_reg
 1197              	.LVL186:
ARM GAS  C:\Users\Moi\AppData\Local\Temp\ccshbzNF.s 			page 22


 1198 012c 0028     		cmp	r0, #0
 1199 012e 7FF472AF 		bne	.L55
 1200              		.loc 1 462 0
 1201 0132 6B22     		movs	r2, #107
 1202 0134 4021     		movs	r1, #64
 1203 0136 6E20     		movs	r0, #110
 1204              	.LVL187:
 1205 0138 FFF7FEFF 		bl	write_reg
 1206              	.LVL188:
 1207 013c 0028     		cmp	r0, #0
 1208 013e 7FF46AAF 		bne	.L55
 1209              		.loc 1 465 0
 1210 0142 0246     		mov	r2, r0
 1211 0144 4121     		movs	r1, #65
 1212 0146 6E20     		movs	r0, #110
 1213              	.LVL189:
 1214 0148 FFF7FEFF 		bl	write_reg
 1215              	.LVL190:
 1216 014c 0028     		cmp	r0, #0
 1217 014e 7FF462AF 		bne	.L55
 1218              		.loc 1 468 0
 1219 0152 2922     		movs	r2, #41
 1220 0154 4221     		movs	r1, #66
 1221 0156 6E20     		movs	r0, #110
 1222              	.LVL191:
 1223 0158 FFF7FEFF 		bl	write_reg
 1224              	.LVL192:
 1225 015c 0028     		cmp	r0, #0
 1226 015e 7FF45AAF 		bne	.L55
 1227              		.loc 1 471 0
 1228 0162 0246     		mov	r2, r0
 1229 0164 4321     		movs	r1, #67
 1230 0166 6E20     		movs	r0, #110
 1231              	.LVL193:
 1232 0168 FFF7FEFF 		bl	write_reg
 1233              	.LVL194:
 1234 016c 0028     		cmp	r0, #0
 1235 016e 7FF452AF 		bne	.L55
 1236              		.loc 1 474 0
 1237 0172 5022     		movs	r2, #80
 1238 0174 4421     		movs	r1, #68
 1239 0176 6E20     		movs	r0, #110
 1240              	.LVL195:
 1241 0178 FFF7FEFF 		bl	write_reg
 1242              	.LVL196:
 1243 017c 0028     		cmp	r0, #0
 1244 017e 7FF44AAF 		bne	.L55
 1245              	.LVL197:
 1246              	.LBB124:
 1247              	.LBB125:
 1248              		.loc 1 119 0
 1249 0182 0122     		movs	r2, #1
 1250 0184 0321     		movs	r1, #3
 1251 0186 6E20     		movs	r0, #110
 1252              	.LVL198:
 1253 0188 FFF7FEFF 		bl	write_reg
 1254              	.LVL199:
ARM GAS  C:\Users\Moi\AppData\Local\Temp\ccshbzNF.s 			page 23


 1255              	.LBE125:
 1256              	.LBE124:
 1257              		.loc 1 478 0
 1258 018c 0028     		cmp	r0, #0
 1259 018e 7FF442AF 		bne	.L55
 1260              		.loc 1 482 0
 1261 0192 8022     		movs	r2, #128
 1262 0194 9321     		movs	r1, #147
 1263 0196 6E20     		movs	r0, #110
 1264 0198 FFF7FEFF 		bl	write_reg
 1265              	.LVL200:
 1266 019c 0028     		cmp	r0, #0
 1267 019e 7FF43AAF 		bne	.L55
 1268              		.loc 1 485 0
 1269 01a2 8022     		movs	r2, #128
 1270 01a4 9421     		movs	r1, #148
 1271 01a6 6E20     		movs	r0, #110
 1272              	.LVL201:
 1273 01a8 FFF7FEFF 		bl	write_reg
 1274              	.LVL202:
 1275 01ac 0028     		cmp	r0, #0
 1276 01ae 7FF432AF 		bne	.L55
 1277              		.loc 1 489 0
 1278 01b2 054B     		ldr	r3, .L60+4
 1279 01b4 054A     		ldr	r2, .L60+8
 1280 01b6 1A60     		str	r2, [r3]
 1281              		.loc 1 491 0
 1282 01b8 2022     		movs	r2, #32
 1283 01ba 5A71     		strb	r2, [r3, #5]
 1284              		.loc 1 492 0
 1285 01bc 9A71     		strb	r2, [r3, #6]
 1286 01be 2AE7     		b	.L55
 1287              	.LVL203:
 1288              	.L59:
 1289              	.LBE123:
 1290              	.LBE122:
 1291              		.loc 1 495 0
 1292 01c0 FFF7FEFF 		bl	__stack_chk_fail
 1293              	.LVL204:
 1294              	.L61:
 1295              		.align	2
 1296              	.L60:
 1297 01c4 00000000 		.word	__stack_chk_guard
 1298 01c8 00000000 		.word	.LANCHOR0
 1299 01cc A0007800 		.word	7864480
 1300              		.cfi_endproc
 1301              	.LFE262:
 1302              		.size	po8030_set_qqvga, .-po8030_set_qqvga
 1303              		.section	.text.po8030_set_size,"ax",%progbits
 1304              		.align	1
 1305              		.p2align 4,,15
 1306              		.global	po8030_set_size
 1307              		.syntax unified
 1308              		.thumb
 1309              		.thumb_func
 1310              		.fpu fpv4-sp-d16
 1311              		.type	po8030_set_size, %function
ARM GAS  C:\Users\Moi\AppData\Local\Temp\ccshbzNF.s 			page 24


 1312              	po8030_set_size:
 1313              	.LFB263:
 1314              		.loc 1 507 0
 1315              		.cfi_startproc
 1316              		@ args = 0, pretend = 0, frame = 8
 1317              		@ frame_needed = 0, uses_anonymous_args = 0
 1318              	.LVL205:
 1319 0000 00B5     		push	{lr}
 1320              		.cfi_def_cfa_offset 4
 1321              		.cfi_offset 14, -4
 1322 0002 144B     		ldr	r3, .L75
 1323 0004 83B0     		sub	sp, sp, #12
 1324              		.cfi_def_cfa_offset 16
 1325              		.loc 1 507 0
 1326 0006 1A68     		ldr	r2, [r3]
 1327 0008 0192     		str	r2, [sp, #4]
 1328              		.loc 1 509 0
 1329 000a 019A     		ldr	r2, [sp, #4]
 1330 000c 1B68     		ldr	r3, [r3]
 1331              		.loc 1 508 0
 1332 000e 50B1     		cbz	r0, .L73
 1333              		.loc 1 510 0
 1334 0010 0128     		cmp	r0, #1
 1335 0012 0FD0     		beq	.L74
 1336              	.LVL206:
 1337              	.LBB128:
 1338              	.LBB129:
 1339              		.loc 1 512 0
 1340 0014 0228     		cmp	r0, #2
 1341 0016 14D1     		bne	.L67
 1342              		.loc 1 513 0
 1343 0018 9A42     		cmp	r2, r3
 1344 001a 19D1     		bne	.L72
 1345              	.LBE129:
 1346              	.LBE128:
 1347              		.loc 1 517 0
 1348 001c 03B0     		add	sp, sp, #12
 1349              		.cfi_remember_state
 1350              		.cfi_def_cfa_offset 4
 1351              		@ sp needed
 1352 001e 5DF804EB 		ldr	lr, [sp], #4
 1353              		.cfi_restore 14
 1354              		.cfi_def_cfa_offset 0
 1355              	.LBB131:
 1356              	.LBB130:
 1357              		.loc 1 513 0
 1358 0022 FFF7FEBF 		b	po8030_set_qqvga
 1359              	.LVL207:
 1360              	.L73:
 1361              		.cfi_restore_state
 1362              	.LBE130:
 1363              	.LBE131:
 1364              		.loc 1 509 0
 1365 0026 9A42     		cmp	r2, r3
 1366 0028 12D1     		bne	.L72
 1367              		.loc 1 517 0
 1368 002a 03B0     		add	sp, sp, #12
ARM GAS  C:\Users\Moi\AppData\Local\Temp\ccshbzNF.s 			page 25


 1369              		.cfi_remember_state
 1370              		.cfi_def_cfa_offset 4
 1371              		@ sp needed
 1372 002c 5DF804EB 		ldr	lr, [sp], #4
 1373              		.cfi_restore 14
 1374              		.cfi_def_cfa_offset 0
 1375              		.loc 1 509 0
 1376 0030 FFF7FEBF 		b	po8030_set_vga
 1377              	.LVL208:
 1378              	.L74:
 1379              		.cfi_restore_state
 1380              		.loc 1 511 0
 1381 0034 9A42     		cmp	r2, r3
 1382 0036 0BD1     		bne	.L72
 1383              		.loc 1 517 0
 1384 0038 03B0     		add	sp, sp, #12
 1385              		.cfi_remember_state
 1386              		.cfi_def_cfa_offset 4
 1387              		@ sp needed
 1388 003a 5DF804EB 		ldr	lr, [sp], #4
 1389              		.cfi_restore 14
 1390              		.cfi_def_cfa_offset 0
 1391              		.loc 1 511 0
 1392 003e FFF7FEBF 		b	po8030_set_qvga
 1393              	.LVL209:
 1394              	.L67:
 1395              		.cfi_restore_state
 1396              		.loc 1 517 0
 1397 0042 9A42     		cmp	r2, r3
 1398 0044 4FF0FF30 		mov	r0, #-1
 1399              	.LVL210:
 1400 0048 02D1     		bne	.L72
 1401 004a 03B0     		add	sp, sp, #12
 1402              		.cfi_remember_state
 1403              		.cfi_def_cfa_offset 4
 1404              		@ sp needed
 1405 004c 5DF804FB 		ldr	pc, [sp], #4
 1406              	.LVL211:
 1407              	.L72:
 1408              		.cfi_restore_state
 1409 0050 FFF7FEFF 		bl	__stack_chk_fail
 1410              	.LVL212:
 1411              	.L76:
 1412              		.align	2
 1413              	.L75:
 1414 0054 00000000 		.word	__stack_chk_guard
 1415              		.cfi_endproc
 1416              	.LFE263:
 1417              		.size	po8030_set_size, .-po8030_set_size
 1418              		.section	.text.po8030_set_scale_buffer_size,"ax",%progbits
 1419              		.align	1
 1420              		.p2align 4,,15
 1421              		.global	po8030_set_scale_buffer_size
 1422              		.syntax unified
 1423              		.thumb
 1424              		.thumb_func
 1425              		.fpu fpv4-sp-d16
ARM GAS  C:\Users\Moi\AppData\Local\Temp\ccshbzNF.s 			page 26


 1426              		.type	po8030_set_scale_buffer_size, %function
 1427              	po8030_set_scale_buffer_size:
 1428              	.LFB264:
 1429              		.loc 1 530 0
 1430              		.cfi_startproc
 1431              		@ args = 0, pretend = 0, frame = 8
 1432              		@ frame_needed = 0, uses_anonymous_args = 0
 1433              	.LVL213:
 1434 0000 70B5     		push	{r4, r5, r6, lr}
 1435              		.cfi_def_cfa_offset 16
 1436              		.cfi_offset 4, -16
 1437              		.cfi_offset 5, -12
 1438              		.cfi_offset 6, -8
 1439              		.cfi_offset 14, -4
 1440 0002 3C4C     		ldr	r4, .L98
 1441 0004 82B0     		sub	sp, sp, #8
 1442              		.cfi_def_cfa_offset 24
 1443              		.loc 1 530 0
 1444 0006 0646     		mov	r6, r0
 1445 0008 0D46     		mov	r5, r1
 1446 000a 2368     		ldr	r3, [r4]
 1447 000c 0193     		str	r3, [sp, #4]
 1448              	.LVL214:
 1449              	.LBB138:
 1450              	.LBB139:
 1451              		.loc 1 119 0
 1452 000e 0122     		movs	r2, #1
 1453 0010 0321     		movs	r1, #3
 1454              	.LVL215:
 1455 0012 6E20     		movs	r0, #110
 1456              	.LVL216:
 1457 0014 FFF7FEFF 		bl	write_reg
 1458              	.LVL217:
 1459              	.LBE139:
 1460              	.LBE138:
 1461              		.loc 1 533 0
 1462 0018 68B9     		cbnz	r0, .L78
 1463              	.LVL218:
 1464              	.LBB140:
 1465              	.LBB141:
 1466              		.loc 1 537 0
 1467 001a 442E     		cmp	r6, #68
 1468 001c 11D0     		beq	.L96
 1469              		.loc 1 567 0
 1470 001e 012D     		cmp	r5, #1
 1471 0020 36D0     		beq	.L86
 1472 0022 27D3     		bcc	.L87
 1473 0024 022D     		cmp	r5, #2
 1474 0026 06D1     		bne	.L78
 1475              		.loc 1 587 0
 1476 0028 0246     		mov	r2, r0
 1477 002a 9521     		movs	r1, #149
 1478 002c 6E20     		movs	r0, #110
 1479 002e FFF7FEFF 		bl	write_reg
 1480              	.LVL219:
 1481 0032 0028     		cmp	r0, #0
 1482 0034 3BD0     		beq	.L97
ARM GAS  C:\Users\Moi\AppData\Local\Temp\ccshbzNF.s 			page 27


 1483              	.LVL220:
 1484              	.L78:
 1485              	.LBE141:
 1486              	.LBE140:
 1487              		.loc 1 598 0
 1488 0036 019A     		ldr	r2, [sp, #4]
 1489 0038 2368     		ldr	r3, [r4]
 1490 003a 9A42     		cmp	r2, r3
 1491 003c 35D1     		bne	.L95
 1492 003e 02B0     		add	sp, sp, #8
 1493              		.cfi_remember_state
 1494              		.cfi_def_cfa_offset 16
 1495              		@ sp needed
 1496 0040 70BD     		pop	{r4, r5, r6, pc}
 1497              	.LVL221:
 1498              	.L96:
 1499              		.cfi_restore_state
 1500              	.LBB145:
 1501              	.LBB142:
 1502              		.loc 1 538 0
 1503 0042 012D     		cmp	r5, #1
 1504 0044 48D0     		beq	.L80
 1505 0046 39D3     		bcc	.L81
 1506 0048 022D     		cmp	r5, #2
 1507 004a F4D1     		bne	.L78
 1508              		.loc 1 558 0
 1509 004c 0246     		mov	r2, r0
 1510 004e 9521     		movs	r1, #149
 1511 0050 6E20     		movs	r0, #110
 1512 0052 FFF7FEFF 		bl	write_reg
 1513              	.LVL222:
 1514 0056 0028     		cmp	r0, #0
 1515 0058 EDD1     		bne	.L78
 1516              		.loc 1 561 0
 1517 005a 019A     		ldr	r2, [sp, #4]
 1518 005c 2368     		ldr	r3, [r4]
 1519 005e 9A42     		cmp	r2, r3
 1520 0060 08BF     		it	eq
 1521 0062 7C22     		moveq	r2, #124
 1522 0064 21D1     		bne	.L95
 1523              	.L94:
 1524              		.loc 1 590 0
 1525 0066 9621     		movs	r1, #150
 1526 0068 6E20     		movs	r0, #110
 1527              	.LVL223:
 1528              	.LBE142:
 1529              	.LBE145:
 1530              		.loc 1 598 0
 1531 006a 02B0     		add	sp, sp, #8
 1532              		.cfi_remember_state
 1533              		.cfi_def_cfa_offset 16
 1534              		@ sp needed
 1535 006c BDE87040 		pop	{r4, r5, r6, lr}
 1536              		.cfi_restore 14
 1537              		.cfi_restore 6
 1538              		.cfi_restore 5
 1539              		.cfi_restore 4
ARM GAS  C:\Users\Moi\AppData\Local\Temp\ccshbzNF.s 			page 28


 1540              		.cfi_def_cfa_offset 0
 1541              	.LVL224:
 1542              	.LBB146:
 1543              	.LBB143:
 1544              		.loc 1 590 0
 1545 0070 FFF7FEBF 		b	write_reg
 1546              	.LVL225:
 1547              	.L87:
 1548              		.cfi_restore_state
 1549              		.loc 1 569 0
 1550 0074 0246     		mov	r2, r0
 1551 0076 9521     		movs	r1, #149
 1552 0078 6E20     		movs	r0, #110
 1553 007a FFF7FEFF 		bl	write_reg
 1554              	.LVL226:
 1555 007e 0028     		cmp	r0, #0
 1556 0080 D9D1     		bne	.L78
 1557              		.loc 1 572 0
 1558 0082 019A     		ldr	r2, [sp, #4]
 1559 0084 2368     		ldr	r3, [r4]
 1560 0086 9A42     		cmp	r2, r3
 1561 0088 08BF     		it	eq
 1562 008a 0A22     		moveq	r2, #10
 1563 008c EBD0     		beq	.L94
 1564 008e 0CE0     		b	.L95
 1565              	.LVL227:
 1566              	.L86:
 1567              		.loc 1 578 0
 1568 0090 2A46     		mov	r2, r5
 1569 0092 9521     		movs	r1, #149
 1570 0094 6E20     		movs	r0, #110
 1571 0096 FFF7FEFF 		bl	write_reg
 1572              	.LVL228:
 1573 009a 0028     		cmp	r0, #0
 1574 009c CBD1     		bne	.L78
 1575              		.loc 1 581 0
 1576 009e 019A     		ldr	r2, [sp, #4]
 1577 00a0 2368     		ldr	r3, [r4]
 1578 00a2 9A42     		cmp	r2, r3
 1579 00a4 08BF     		it	eq
 1580 00a6 4622     		moveq	r2, #70
 1581 00a8 DDD0     		beq	.L94
 1582              	.LVL229:
 1583              	.L95:
 1584              	.LBE143:
 1585              	.LBE146:
 1586              		.loc 1 598 0
 1587 00aa FFF7FEFF 		bl	__stack_chk_fail
 1588              	.LVL230:
 1589              	.L97:
 1590              	.LBB147:
 1591              	.LBB144:
 1592              		.loc 1 590 0
 1593 00ae 019A     		ldr	r2, [sp, #4]
 1594 00b0 2368     		ldr	r3, [r4]
 1595 00b2 9A42     		cmp	r2, r3
 1596 00b4 08BF     		it	eq
ARM GAS  C:\Users\Moi\AppData\Local\Temp\ccshbzNF.s 			page 29


 1597 00b6 F522     		moveq	r2, #245
 1598 00b8 D5D0     		beq	.L94
 1599 00ba F6E7     		b	.L95
 1600              	.LVL231:
 1601              	.L81:
 1602              		.loc 1 540 0
 1603 00bc 0246     		mov	r2, r0
 1604 00be 9521     		movs	r1, #149
 1605 00c0 6E20     		movs	r0, #110
 1606 00c2 FFF7FEFF 		bl	write_reg
 1607              	.LVL232:
 1608 00c6 0028     		cmp	r0, #0
 1609 00c8 B5D1     		bne	.L78
 1610              		.loc 1 543 0
 1611 00ca 019A     		ldr	r2, [sp, #4]
 1612 00cc 2368     		ldr	r3, [r4]
 1613 00ce 9A42     		cmp	r2, r3
 1614 00d0 08BF     		it	eq
 1615 00d2 0822     		moveq	r2, #8
 1616 00d4 C7D0     		beq	.L94
 1617 00d6 E8E7     		b	.L95
 1618              	.LVL233:
 1619              	.L80:
 1620              		.loc 1 549 0
 1621 00d8 0246     		mov	r2, r0
 1622 00da 9521     		movs	r1, #149
 1623 00dc 6E20     		movs	r0, #110
 1624 00de FFF7FEFF 		bl	write_reg
 1625              	.LVL234:
 1626 00e2 0028     		cmp	r0, #0
 1627 00e4 A7D1     		bne	.L78
 1628              		.loc 1 552 0
 1629 00e6 019A     		ldr	r2, [sp, #4]
 1630 00e8 2368     		ldr	r3, [r4]
 1631 00ea 9A42     		cmp	r2, r3
 1632 00ec 08BF     		it	eq
 1633 00ee A422     		moveq	r2, #164
 1634 00f0 B9D0     		beq	.L94
 1635 00f2 DAE7     		b	.L95
 1636              	.L99:
 1637              		.align	2
 1638              	.L98:
 1639 00f4 00000000 		.word	__stack_chk_guard
 1640              	.LBE144:
 1641              	.LBE147:
 1642              		.cfi_endproc
 1643              	.LFE264:
 1644              		.size	po8030_set_scale_buffer_size, .-po8030_set_scale_buffer_size
 1645              		.section	.text.po8030_config,"ax",%progbits
 1646              		.align	1
 1647              		.p2align 4,,15
 1648              		.global	po8030_config
 1649              		.syntax unified
 1650              		.thumb
 1651              		.thumb_func
 1652              		.fpu fpv4-sp-d16
 1653              		.type	po8030_config, %function
ARM GAS  C:\Users\Moi\AppData\Local\Temp\ccshbzNF.s 			page 30


 1654              	po8030_config:
 1655              	.LFB266:
 1656              		.loc 1 631 0
 1657              		.cfi_startproc
 1658              		@ args = 0, pretend = 0, frame = 8
 1659              		@ frame_needed = 0, uses_anonymous_args = 0
 1660              	.LVL235:
 1661 0000 70B5     		push	{r4, r5, r6, lr}
 1662              		.cfi_def_cfa_offset 16
 1663              		.cfi_offset 4, -16
 1664              		.cfi_offset 5, -12
 1665              		.cfi_offset 6, -8
 1666              		.cfi_offset 14, -4
 1667 0002 184C     		ldr	r4, .L107
 1668 0004 82B0     		sub	sp, sp, #8
 1669              		.cfi_def_cfa_offset 24
 1670              		.loc 1 631 0
 1671 0006 0546     		mov	r5, r0
 1672 0008 0E46     		mov	r6, r1
 1673 000a 2368     		ldr	r3, [r4]
 1674 000c 0193     		str	r3, [sp, #4]
 1675              	.LVL236:
 1676              	.LBB148:
 1677              	.LBB149:
 1678              		.loc 1 119 0
 1679 000e 0022     		movs	r2, #0
 1680 0010 0321     		movs	r1, #3
 1681              	.LVL237:
 1682 0012 6E20     		movs	r0, #110
 1683              	.LVL238:
 1684 0014 FFF7FEFF 		bl	write_reg
 1685              	.LVL239:
 1686              	.LBE149:
 1687              	.LBE148:
 1688              		.loc 1 635 0
 1689 0018 28B1     		cbz	r0, .L106
 1690              	.L101:
 1691              		.loc 1 655 0
 1692 001a 019A     		ldr	r2, [sp, #4]
 1693 001c 2368     		ldr	r3, [r4]
 1694 001e 9A42     		cmp	r2, r3
 1695 0020 1DD1     		bne	.L105
 1696 0022 02B0     		add	sp, sp, #8
 1697              		.cfi_remember_state
 1698              		.cfi_def_cfa_offset 16
 1699              		@ sp needed
 1700 0024 70BD     		pop	{r4, r5, r6, pc}
 1701              	.L106:
 1702              		.cfi_restore_state
 1703              		.loc 1 638 0
 1704 0026 0246     		mov	r2, r0
 1705 0028 5B21     		movs	r1, #91
 1706 002a 6E20     		movs	r0, #110
 1707 002c FFF7FEFF 		bl	write_reg
 1708              	.LVL240:
 1709 0030 0028     		cmp	r0, #0
 1710 0032 F2D1     		bne	.L101
ARM GAS  C:\Users\Moi\AppData\Local\Temp\ccshbzNF.s 			page 31


 1711              		.loc 1 642 0
 1712 0034 2846     		mov	r0, r5
 1713              	.LVL241:
 1714 0036 FFF7FEFF 		bl	po8030_set_format
 1715              	.LVL242:
 1716 003a 0028     		cmp	r0, #0
 1717 003c EDD1     		bne	.L101
 1718              		.loc 1 646 0
 1719 003e 3046     		mov	r0, r6
 1720              	.LVL243:
 1721 0040 FFF7FEFF 		bl	po8030_set_size
 1722              	.LVL244:
 1723 0044 0028     		cmp	r0, #0
 1724 0046 E8D1     		bne	.L101
 1725              		.loc 1 650 0
 1726 0048 019A     		ldr	r2, [sp, #4]
 1727 004a 2368     		ldr	r3, [r4]
 1728 004c 9A42     		cmp	r2, r3
 1729 004e 06D1     		bne	.L105
 1730 0050 3146     		mov	r1, r6
 1731 0052 2846     		mov	r0, r5
 1732              	.LVL245:
 1733              		.loc 1 655 0
 1734 0054 02B0     		add	sp, sp, #8
 1735              		.cfi_remember_state
 1736              		.cfi_def_cfa_offset 16
 1737              		@ sp needed
 1738 0056 BDE87040 		pop	{r4, r5, r6, lr}
 1739              		.cfi_restore 14
 1740              		.cfi_restore 6
 1741              		.cfi_restore 5
 1742              		.cfi_restore 4
 1743              		.cfi_def_cfa_offset 0
 1744              		.loc 1 650 0
 1745 005a FFF7FEBF 		b	po8030_set_scale_buffer_size
 1746              	.LVL246:
 1747              	.L105:
 1748              		.cfi_restore_state
 1749              		.loc 1 655 0
 1750 005e FFF7FEFF 		bl	__stack_chk_fail
 1751              	.LVL247:
 1752              	.L108:
 1753 0062 00BF     		.align	2
 1754              	.L107:
 1755 0064 00000000 		.word	__stack_chk_guard
 1756              		.cfi_endproc
 1757              	.LFE266:
 1758              		.size	po8030_config, .-po8030_config
 1759              		.section	.text.po8030_advanced_config,"ax",%progbits
 1760              		.align	1
 1761              		.p2align 4,,15
 1762              		.global	po8030_advanced_config
 1763              		.syntax unified
 1764              		.thumb
 1765              		.thumb_func
 1766              		.fpu fpv4-sp-d16
 1767              		.type	po8030_advanced_config, %function
ARM GAS  C:\Users\Moi\AppData\Local\Temp\ccshbzNF.s 			page 32


 1768              	po8030_advanced_config:
 1769              	.LFB267:
 1770              		.loc 1 659 0
 1771              		.cfi_startproc
 1772              		@ args = 12, pretend = 0, frame = 56
 1773              		@ frame_needed = 0, uses_anonymous_args = 0
 1774              	.LVL248:
 1775 0000 2DE9F04F 		push	{r4, r5, r6, r7, r8, r9, r10, fp, lr}
 1776              		.cfi_def_cfa_offset 36
 1777              		.cfi_offset 4, -36
 1778              		.cfi_offset 5, -32
 1779              		.cfi_offset 6, -28
 1780              		.cfi_offset 7, -24
 1781              		.cfi_offset 8, -20
 1782              		.cfi_offset 9, -16
 1783              		.cfi_offset 10, -12
 1784              		.cfi_offset 11, -8
 1785              		.cfi_offset 14, -4
 1786 0004 8FB0     		sub	sp, sp, #60
 1787              		.cfi_def_cfa_offset 96
 1788              		.loc 1 659 0
 1789 0006 DFF80084 		ldr	r8, .L145+16
 1790 000a DDF860C0 		ldr	ip, [sp, #96]
 1791 000e D8F80040 		ldr	r4, [r8]
 1792 0012 0D94     		str	r4, [sp, #52]
 1793              	.LVL249:
 1794              		.loc 1 662 0
 1795 0014 0CF1FF35 		add	r5, ip, #-1
 1796              		.loc 1 661 0
 1797 0018 5C1E     		subs	r4, r3, #1
 1798              		.loc 1 668 0
 1799 001a B3F5207F 		cmp	r3, #640
 1800              		.loc 1 659 0
 1801 001e 9DF86490 		ldrb	r9, [sp, #100]	@ zero_extendqisi2
 1802 0022 9DF868B0 		ldrb	fp, [sp, #104]	@ zero_extendqisi2
 1803              		.loc 1 661 0
 1804 0026 0C44     		add	r4, r4, r1
 1805              	.LVL250:
 1806              		.loc 1 662 0
 1807 0028 1544     		add	r5, r5, r2
 1808              	.LVL251:
 1809              		.loc 1 668 0
 1810 002a 00F21282 		bhi	.L123
 1811              		.loc 1 668 0 is_stmt 0 discriminator 1
 1812 002e BCF5F07F 		cmp	ip, #480
 1813 0032 00F20E82 		bhi	.L123
 1814              		.loc 1 672 0 is_stmt 1
 1815 0036 B1F5207F 		cmp	r1, #640
 1816 003a 0E46     		mov	r6, r1
 1817 003c 00F21282 		bhi	.L124
 1818              		.loc 1 676 0
 1819 0040 B2F5F07F 		cmp	r2, #480
 1820 0044 1746     		mov	r7, r2
 1821 0046 00F21082 		bhi	.L125
 1822              		.loc 1 680 0
 1823 004a A142     		cmp	r1, r4
 1824 004c 80F00482 		bcs	.L127
ARM GAS  C:\Users\Moi\AppData\Local\Temp\ccshbzNF.s 			page 33


 1825              		.loc 1 680 0 is_stmt 0 discriminator 1
 1826 0050 B4F5207F 		cmp	r4, #640
 1827 0054 00F20082 		bhi	.L127
 1828              		.loc 1 684 0 is_stmt 1
 1829 0058 AA42     		cmp	r2, r5
 1830 005a 80F00082 		bcs	.L129
 1831              		.loc 1 684 0 is_stmt 0 discriminator 1
 1832 005e B5F5F07F 		cmp	r5, #480
 1833 0062 00F2FC81 		bhi	.L129
 1834              		.loc 1 688 0 is_stmt 1
 1835 0066 B9F1400F 		cmp	r9, #64
 1836 006a 8246     		mov	r10, r0
 1837 006c 00F0B081 		beq	.L112
 1838 0070 B9F1800F 		cmp	r9, #128
 1839 0074 23D0     		beq	.L113
 1840 0076 B9F1200F 		cmp	r9, #32
 1841 007a 00F09C81 		beq	.L139
 1842              		.loc 1 663 0
 1843 007e 0023     		movs	r3, #0
 1844              	.LVL252:
 1845 0080 CDE90033 		strd	r3, r3, [sp]
 1846              	.LVL253:
 1847              	.L111:
 1848              		.loc 1 719 0
 1849 0084 BBF1400F 		cmp	fp, #64
 1850 0088 2FD0     		beq	.L116
 1851              	.L143:
 1852 008a BBF1800F 		cmp	fp, #128
 1853 008e 00F0CB81 		beq	.L117
 1854 0092 BBF1200F 		cmp	fp, #32
 1855 0096 00F0B981 		beq	.L140
 1856              		.loc 1 664 0
 1857 009a 0023     		movs	r3, #0
 1858 009c CDE90233 		strd	r3, r3, [sp, #8]
 1859              	.LVL254:
 1860              	.L115:
 1861              	.LBB150:
 1862              	.LBB151:
 1863              		.loc 1 119 0
 1864 00a0 0022     		movs	r2, #0
 1865 00a2 0321     		movs	r1, #3
 1866 00a4 6E20     		movs	r0, #110
 1867 00a6 FFF7FEFF 		bl	write_reg
 1868              	.LVL255:
 1869              	.LBE151:
 1870              	.LBE150:
 1871              		.loc 1 750 0
 1872 00aa A0B3     		cbz	r0, .L141
 1873              	.LVL256:
 1874              	.L110:
 1875              		.loc 1 882 0
 1876 00ac 0D9A     		ldr	r2, [sp, #52]
 1877 00ae D8F80030 		ldr	r3, [r8]
 1878 00b2 9A42     		cmp	r2, r3
 1879 00b4 40F0E281 		bne	.L142
 1880 00b8 0FB0     		add	sp, sp, #60
 1881              		.cfi_remember_state
ARM GAS  C:\Users\Moi\AppData\Local\Temp\ccshbzNF.s 			page 34


 1882              		.cfi_def_cfa_offset 36
 1883              		@ sp needed
 1884 00ba BDE8F08F 		pop	{r4, r5, r6, r7, r8, r9, r10, fp, pc}
 1885              	.LVL257:
 1886              	.L113:
 1887              		.cfi_restore_state
 1888              		.loc 1 708 0
 1889 00be 9A07     		lsls	r2, r3, #30
 1890              	.LVL258:
 1891 00c0 40F0D681 		bne	.L132
 1892              		.loc 1 713 0
 1893 00c4 CC4A     		ldr	r2, .L145
 1894              		.loc 1 711 0
 1895 00c6 8C08     		lsrs	r4, r1, #2
 1896              	.LVL259:
 1897              		.loc 1 714 0
 1898 00c8 5900     		lsls	r1, r3, #1
 1899              	.LVL260:
 1900              		.loc 1 712 0
 1901 00ca 661C     		adds	r6, r4, #1
 1902              	.LVL261:
 1903              		.loc 1 714 0
 1904 00cc A2FB0101 		umull	r0, r1, r2, r1
 1905              	.LVL262:
 1906              		.loc 1 713 0
 1907 00d0 A2FB0302 		umull	r0, r2, r2, r3
 1908              		.loc 1 712 0
 1909 00d4 04EB9304 		add	r4, r4, r3, lsr #2
 1910              	.LVL263:
 1911              		.loc 1 713 0
 1912 00d8 06EBD203 		add	r3, r6, r2, lsr #3
 1913              	.LVL264:
 1914 00dc 0093     		str	r3, [sp]
 1915              	.LVL265:
 1916              		.loc 1 719 0
 1917 00de BBF1400F 		cmp	fp, #64
 1918              		.loc 1 714 0
 1919 00e2 06EBD103 		add	r3, r6, r1, lsr #3
 1920              	.LVL266:
 1921 00e6 0193     		str	r3, [sp, #4]
 1922              	.LVL267:
 1923              		.loc 1 719 0
 1924 00e8 CFD1     		bne	.L143
 1925              	.LVL268:
 1926              	.L116:
 1927              		.loc 1 727 0
 1928 00ea 1CF0010F 		tst	ip, #1
 1929 00ee 40F0C281 		bne	.L135
 1930              		.loc 1 732 0
 1931 00f2 C14B     		ldr	r3, .L145
 1932              		.loc 1 730 0
 1933 00f4 7D08     		lsrs	r5, r7, #1
 1934              	.LVL269:
 1935              		.loc 1 733 0
 1936 00f6 4FEA4C02 		lsl	r2, ip, #1
 1937              		.loc 1 731 0
 1938 00fa 6F1C     		adds	r7, r5, #1
ARM GAS  C:\Users\Moi\AppData\Local\Temp\ccshbzNF.s 			page 35


 1939              	.LVL270:
 1940              		.loc 1 733 0
 1941 00fc A3FB0212 		umull	r1, r2, r3, r2
 1942              		.loc 1 732 0
 1943 0100 A3FB0C13 		umull	r1, r3, r3, ip
 1944 0104 07EB9303 		add	r3, r7, r3, lsr #2
 1945 0108 0293     		str	r3, [sp, #8]
 1946              		.loc 1 733 0
 1947 010a 07EB9203 		add	r3, r7, r2, lsr #2
 1948              		.loc 1 731 0
 1949 010e 05EB5C05 		add	r5, r5, ip, lsr #1
 1950              	.LVL271:
 1951              		.loc 1 733 0
 1952 0112 0393     		str	r3, [sp, #12]
 1953              	.LVL272:
 1954              		.loc 1 735 0
 1955 0114 C4E7     		b	.L115
 1956              	.LVL273:
 1957              	.L141:
 1958              		.loc 1 753 0
 1959 0116 0246     		mov	r2, r0
 1960 0118 5B21     		movs	r1, #91
 1961 011a 6E20     		movs	r0, #110
 1962 011c FFF7FEFF 		bl	write_reg
 1963              	.LVL274:
 1964 0120 0028     		cmp	r0, #0
 1965 0122 C3D1     		bne	.L110
 1966              		.loc 1 757 0
 1967 0124 5046     		mov	r0, r10
 1968              	.LVL275:
 1969 0126 FFF7FEFF 		bl	po8030_set_format
 1970              	.LVL276:
 1971 012a 0028     		cmp	r0, #0
 1972 012c BED1     		bne	.L110
 1973              	.LVL277:
 1974              	.LBB152:
 1975              	.LBB153:
 1976              		.loc 1 119 0
 1977 012e 0246     		mov	r2, r0
 1978 0130 0321     		movs	r1, #3
 1979 0132 6E20     		movs	r0, #110
 1980              	.LVL278:
 1981 0134 FFF7FEFF 		bl	write_reg
 1982              	.LVL279:
 1983              	.LBE153:
 1984              	.LBE152:
 1985              		.loc 1 761 0
 1986 0138 0028     		cmp	r0, #0
 1987 013a B7D1     		bne	.L110
 1988              		.loc 1 765 0
 1989 013c C6F30723 		ubfx	r3, r6, #8, #8
 1990 0140 1A46     		mov	r2, r3
 1991 0142 0821     		movs	r1, #8
 1992 0144 6E20     		movs	r0, #110
 1993 0146 0493     		str	r3, [sp, #16]
 1994 0148 FFF7FEFF 		bl	write_reg
 1995              	.LVL280:
ARM GAS  C:\Users\Moi\AppData\Local\Temp\ccshbzNF.s 			page 36


 1996 014c 0028     		cmp	r0, #0
 1997 014e ADD1     		bne	.L110
 1998              		.loc 1 768 0
 1999 0150 F3B2     		uxtb	r3, r6
 2000 0152 1A46     		mov	r2, r3
 2001 0154 0921     		movs	r1, #9
 2002 0156 6E20     		movs	r0, #110
 2003              	.LVL281:
 2004 0158 0593     		str	r3, [sp, #20]
 2005 015a FFF7FEFF 		bl	write_reg
 2006              	.LVL282:
 2007 015e 0028     		cmp	r0, #0
 2008 0160 A4D1     		bne	.L110
 2009              		.loc 1 771 0
 2010 0162 C7F30723 		ubfx	r3, r7, #8, #8
 2011 0166 1A46     		mov	r2, r3
 2012 0168 0A21     		movs	r1, #10
 2013 016a 6E20     		movs	r0, #110
 2014              	.LVL283:
 2015 016c 0693     		str	r3, [sp, #24]
 2016 016e FFF7FEFF 		bl	write_reg
 2017              	.LVL284:
 2018 0172 0028     		cmp	r0, #0
 2019 0174 9AD1     		bne	.L110
 2020              		.loc 1 774 0
 2021 0176 FBB2     		uxtb	r3, r7
 2022 0178 1A46     		mov	r2, r3
 2023 017a 0B21     		movs	r1, #11
 2024 017c 6E20     		movs	r0, #110
 2025              	.LVL285:
 2026 017e 0793     		str	r3, [sp, #28]
 2027 0180 FFF7FEFF 		bl	write_reg
 2028              	.LVL286:
 2029 0184 0028     		cmp	r0, #0
 2030 0186 91D1     		bne	.L110
 2031              		.loc 1 777 0
 2032 0188 C4F30723 		ubfx	r3, r4, #8, #8
 2033 018c 1A46     		mov	r2, r3
 2034 018e 0C21     		movs	r1, #12
 2035 0190 6E20     		movs	r0, #110
 2036              	.LVL287:
 2037 0192 0893     		str	r3, [sp, #32]
 2038 0194 FFF7FEFF 		bl	write_reg
 2039              	.LVL288:
 2040 0198 0028     		cmp	r0, #0
 2041 019a 87D1     		bne	.L110
 2042              		.loc 1 780 0
 2043 019c E3B2     		uxtb	r3, r4
 2044 019e 1A46     		mov	r2, r3
 2045 01a0 0D21     		movs	r1, #13
 2046 01a2 6E20     		movs	r0, #110
 2047              	.LVL289:
 2048 01a4 0993     		str	r3, [sp, #36]
 2049 01a6 FFF7FEFF 		bl	write_reg
 2050              	.LVL290:
 2051 01aa 0028     		cmp	r0, #0
 2052 01ac 7FF47EAF 		bne	.L110
ARM GAS  C:\Users\Moi\AppData\Local\Temp\ccshbzNF.s 			page 37


 2053              		.loc 1 783 0
 2054 01b0 C5F30723 		ubfx	r3, r5, #8, #8
 2055 01b4 1A46     		mov	r2, r3
 2056 01b6 0E21     		movs	r1, #14
 2057 01b8 6E20     		movs	r0, #110
 2058              	.LVL291:
 2059 01ba 0A93     		str	r3, [sp, #40]
 2060 01bc FFF7FEFF 		bl	write_reg
 2061              	.LVL292:
 2062 01c0 0028     		cmp	r0, #0
 2063 01c2 7FF473AF 		bne	.L110
 2064              		.loc 1 786 0
 2065 01c6 EBB2     		uxtb	r3, r5
 2066 01c8 1A46     		mov	r2, r3
 2067 01ca 0F21     		movs	r1, #15
 2068 01cc 6E20     		movs	r0, #110
 2069              	.LVL293:
 2070 01ce 0B93     		str	r3, [sp, #44]
 2071 01d0 FFF7FEFF 		bl	write_reg
 2072              	.LVL294:
 2073 01d4 0028     		cmp	r0, #0
 2074 01d6 7FF469AF 		bne	.L110
 2075              		.loc 1 790 0
 2076 01da 049A     		ldr	r2, [sp, #16]
 2077 01dc 3521     		movs	r1, #53
 2078 01de 6E20     		movs	r0, #110
 2079              	.LVL295:
 2080 01e0 FFF7FEFF 		bl	write_reg
 2081              	.LVL296:
 2082 01e4 0028     		cmp	r0, #0
 2083 01e6 7FF461AF 		bne	.L110
 2084              		.loc 1 793 0
 2085 01ea 059A     		ldr	r2, [sp, #20]
 2086 01ec 3621     		movs	r1, #54
 2087 01ee 6E20     		movs	r0, #110
 2088              	.LVL297:
 2089 01f0 FFF7FEFF 		bl	write_reg
 2090              	.LVL298:
 2091 01f4 0028     		cmp	r0, #0
 2092 01f6 7FF459AF 		bne	.L110
 2093              		.loc 1 796 0
 2094 01fa 089A     		ldr	r2, [sp, #32]
 2095 01fc 3721     		movs	r1, #55
 2096 01fe 6E20     		movs	r0, #110
 2097              	.LVL299:
 2098 0200 FFF7FEFF 		bl	write_reg
 2099              	.LVL300:
 2100 0204 0028     		cmp	r0, #0
 2101 0206 7FF451AF 		bne	.L110
 2102              		.loc 1 799 0
 2103 020a 099A     		ldr	r2, [sp, #36]
 2104 020c 3821     		movs	r1, #56
 2105 020e 6E20     		movs	r0, #110
 2106              	.LVL301:
 2107 0210 FFF7FEFF 		bl	write_reg
 2108              	.LVL302:
 2109 0214 0028     		cmp	r0, #0
ARM GAS  C:\Users\Moi\AppData\Local\Temp\ccshbzNF.s 			page 38


 2110 0216 7FF449AF 		bne	.L110
 2111              		.loc 1 802 0
 2112 021a 069A     		ldr	r2, [sp, #24]
 2113 021c 3921     		movs	r1, #57
 2114 021e 6E20     		movs	r0, #110
 2115              	.LVL303:
 2116 0220 FFF7FEFF 		bl	write_reg
 2117              	.LVL304:
 2118 0224 0028     		cmp	r0, #0
 2119 0226 7FF441AF 		bne	.L110
 2120              		.loc 1 805 0
 2121 022a 079A     		ldr	r2, [sp, #28]
 2122 022c 3A21     		movs	r1, #58
 2123 022e 6E20     		movs	r0, #110
 2124              	.LVL305:
 2125 0230 FFF7FEFF 		bl	write_reg
 2126              	.LVL306:
 2127 0234 0028     		cmp	r0, #0
 2128 0236 7FF439AF 		bne	.L110
 2129              		.loc 1 808 0
 2130 023a 0A9A     		ldr	r2, [sp, #40]
 2131 023c 3B21     		movs	r1, #59
 2132 023e 6E20     		movs	r0, #110
 2133              	.LVL307:
 2134 0240 FFF7FEFF 		bl	write_reg
 2135              	.LVL308:
 2136 0244 0028     		cmp	r0, #0
 2137 0246 7FF431AF 		bne	.L110
 2138              		.loc 1 811 0
 2139 024a 0B9A     		ldr	r2, [sp, #44]
 2140 024c 3C21     		movs	r1, #60
 2141 024e 6E20     		movs	r0, #110
 2142              	.LVL309:
 2143 0250 FFF7FEFF 		bl	write_reg
 2144              	.LVL310:
 2145 0254 0028     		cmp	r0, #0
 2146 0256 7FF429AF 		bne	.L110
 2147              		.loc 1 815 0
 2148 025a 009B     		ldr	r3, [sp]
 2149 025c 3D21     		movs	r1, #61
 2150 025e C3F30722 		ubfx	r2, r3, #8, #8
 2151 0262 6E20     		movs	r0, #110
 2152              	.LVL311:
 2153 0264 FFF7FEFF 		bl	write_reg
 2154              	.LVL312:
 2155 0268 0028     		cmp	r0, #0
 2156 026a 7FF41FAF 		bne	.L110
 2157              		.loc 1 818 0
 2158 026e 9DF80020 		ldrb	r2, [sp]	@ zero_extendqisi2
 2159 0272 3E21     		movs	r1, #62
 2160 0274 6E20     		movs	r0, #110
 2161              	.LVL313:
 2162 0276 FFF7FEFF 		bl	write_reg
 2163              	.LVL314:
 2164 027a 0028     		cmp	r0, #0
 2165 027c 7FF416AF 		bne	.L110
 2166              		.loc 1 821 0
ARM GAS  C:\Users\Moi\AppData\Local\Temp\ccshbzNF.s 			page 39


 2167 0280 019B     		ldr	r3, [sp, #4]
 2168 0282 3F21     		movs	r1, #63
 2169 0284 C3F30722 		ubfx	r2, r3, #8, #8
 2170 0288 6E20     		movs	r0, #110
 2171              	.LVL315:
 2172 028a FFF7FEFF 		bl	write_reg
 2173              	.LVL316:
 2174 028e 0028     		cmp	r0, #0
 2175 0290 7FF40CAF 		bne	.L110
 2176              		.loc 1 824 0
 2177 0294 9DF80420 		ldrb	r2, [sp, #4]	@ zero_extendqisi2
 2178 0298 4021     		movs	r1, #64
 2179 029a 6E20     		movs	r0, #110
 2180              	.LVL317:
 2181 029c FFF7FEFF 		bl	write_reg
 2182              	.LVL318:
 2183 02a0 0028     		cmp	r0, #0
 2184 02a2 7FF403AF 		bne	.L110
 2185              		.loc 1 827 0
 2186 02a6 029B     		ldr	r3, [sp, #8]
 2187 02a8 4121     		movs	r1, #65
 2188 02aa C3F30722 		ubfx	r2, r3, #8, #8
 2189 02ae 6E20     		movs	r0, #110
 2190              	.LVL319:
 2191 02b0 FFF7FEFF 		bl	write_reg
 2192              	.LVL320:
 2193 02b4 0028     		cmp	r0, #0
 2194 02b6 7FF4F9AE 		bne	.L110
 2195              		.loc 1 830 0
 2196 02ba 9DF80820 		ldrb	r2, [sp, #8]	@ zero_extendqisi2
 2197 02be 4221     		movs	r1, #66
 2198 02c0 6E20     		movs	r0, #110
 2199              	.LVL321:
 2200 02c2 FFF7FEFF 		bl	write_reg
 2201              	.LVL322:
 2202 02c6 0028     		cmp	r0, #0
 2203 02c8 7FF4F0AE 		bne	.L110
 2204              		.loc 1 833 0
 2205 02cc 039B     		ldr	r3, [sp, #12]
 2206 02ce 4321     		movs	r1, #67
 2207 02d0 C3F30722 		ubfx	r2, r3, #8, #8
 2208 02d4 6E20     		movs	r0, #110
 2209              	.LVL323:
 2210 02d6 FFF7FEFF 		bl	write_reg
 2211              	.LVL324:
 2212 02da 0028     		cmp	r0, #0
 2213 02dc 7FF4E6AE 		bne	.L110
 2214              		.loc 1 836 0
 2215 02e0 9DF80C20 		ldrb	r2, [sp, #12]	@ zero_extendqisi2
 2216 02e4 4421     		movs	r1, #68
 2217 02e6 6E20     		movs	r0, #110
 2218              	.LVL325:
 2219 02e8 FFF7FEFF 		bl	write_reg
 2220              	.LVL326:
 2221 02ec 0028     		cmp	r0, #0
 2222 02ee 7FF4DDAE 		bne	.L110
 2223              	.LVL327:
ARM GAS  C:\Users\Moi\AppData\Local\Temp\ccshbzNF.s 			page 40


 2224              	.LBB154:
 2225              	.LBB155:
 2226              		.loc 1 119 0
 2227 02f2 0122     		movs	r2, #1
 2228 02f4 0321     		movs	r1, #3
 2229 02f6 6E20     		movs	r0, #110
 2230              	.LVL328:
 2231 02f8 FFF7FEFF 		bl	write_reg
 2232              	.LVL329:
 2233              	.LBE155:
 2234              	.LBE154:
 2235              		.loc 1 840 0
 2236 02fc 0028     		cmp	r0, #0
 2237 02fe 7FF4D5AE 		bne	.L110
 2238              		.loc 1 844 0
 2239 0302 4A46     		mov	r2, r9
 2240 0304 9321     		movs	r1, #147
 2241 0306 6E20     		movs	r0, #110
 2242 0308 FFF7FEFF 		bl	write_reg
 2243              	.LVL330:
 2244 030c 0028     		cmp	r0, #0
 2245 030e 7FF4CDAE 		bne	.L110
 2246              		.loc 1 847 0
 2247 0312 5A46     		mov	r2, fp
 2248 0314 9421     		movs	r1, #148
 2249 0316 6E20     		movs	r0, #110
 2250              	.LVL331:
 2251 0318 FFF7FEFF 		bl	write_reg
 2252              	.LVL332:
 2253 031c 0028     		cmp	r0, #0
 2254 031e 7FF4C5AE 		bne	.L110
 2255              	.LVL333:
 2256              	.LBB156:
 2257              	.LBB157:
 2258              		.loc 1 119 0
 2259 0322 0122     		movs	r2, #1
 2260 0324 0321     		movs	r1, #3
 2261 0326 6E20     		movs	r0, #110
 2262              	.LVL334:
 2263 0328 FFF7FEFF 		bl	write_reg
 2264              	.LVL335:
 2265              	.LBE157:
 2266              	.LBE156:
 2267              		.loc 1 852 0
 2268 032c 0028     		cmp	r0, #0
 2269 032e 7FF4BDAE 		bne	.L110
 2270 0332 0134     		adds	r4, r4, #1
 2271              	.LVL336:
 2272 0334 A31B     		subs	r3, r4, r6
 2273 0336 07EE103A 		vmov	s14, r3	@ int
 2274 033a DFED307A 		vldr.32	s15, .L145+4
 2275 033e B8EE477A 		vcvt.f32.u32	s14, s14
 2276              		.loc 1 856 0
 2277 0342 BAF1440F 		cmp	r10, #68
 2278 0346 77EEC77A 		vsub.f32	s15, s15, s14
 2279 034a 00F09980 		beq	.L144
 2280              	.LVL337:
ARM GAS  C:\Users\Moi\AppData\Local\Temp\ccshbzNF.s 			page 41


 2281              		.loc 1 860 0
 2282 034e B0EE006A 		vmov.f32	s12, #2.0e+0
 2283 0352 F2EE006A 		vmov.f32	s13, #8.0e+0
 2284 0356 E7EE066A 		vfma.f32	s13, s14, s12
 2285 035a 77EEA77A 		vadd.f32	s15, s15, s15
 2286              	.LVL338:
 2287 035e B0EE667A 		vmov.f32	s14, s13
 2288              	.LVL339:
 2289 0362 67EE877A 		vmul.f32	s15, s15, s14
 2290 0366 DFED266A 		vldr.32	s13, .L145+8
 2291 036a 87EEA67A 		vdiv.f32	s14, s15, s13
 2292              	.LVL340:
 2293              		.loc 1 861 0
 2294 036e FCEEC77A 		vcvt.u32.f32	s15, s14
 2295 0372 CDED007A 		vstr.32	s15, [sp]	@ int
 2296              	.LVL341:
 2297              	.L120:
 2298              		.loc 1 864 0
 2299 0376 009B     		ldr	r3, [sp]
 2300 0378 9521     		movs	r1, #149
 2301 037a C3F30722 		ubfx	r2, r3, #8, #8
 2302 037e 6E20     		movs	r0, #110
 2303 0380 FFF7FEFF 		bl	write_reg
 2304              	.LVL342:
 2305 0384 0028     		cmp	r0, #0
 2306 0386 7FF491AE 		bne	.L110
 2307              		.loc 1 867 0
 2308 038a 9DF80020 		ldrb	r2, [sp]	@ zero_extendqisi2
 2309 038e 9621     		movs	r1, #150
 2310 0390 6E20     		movs	r0, #110
 2311              	.LVL343:
 2312 0392 FFF7FEFF 		bl	write_reg
 2313              	.LVL344:
 2314 0396 0028     		cmp	r0, #0
 2315 0398 7FF488AE 		bne	.L110
 2316              		.loc 1 871 0
 2317 039c 194B     		ldr	r3, .L145+12
 2318              		.loc 1 872 0
 2319 039e 0135     		adds	r5, r5, #1
 2320              	.LVL345:
 2321 03a0 EF1B     		subs	r7, r5, r7
 2322              	.LVL346:
 2323              		.loc 1 871 0
 2324 03a2 A41B     		subs	r4, r4, r6
 2325              	.LVL347:
 2326              		.loc 1 872 0
 2327 03a4 5F80     		strh	r7, [r3, #2]	@ movhi
 2328              		.loc 1 871 0
 2329 03a6 1C80     		strh	r4, [r3]	@ movhi
 2330              		.loc 1 873 0
 2331 03a8 83F804A0 		strb	r10, [r3, #4]
 2332              		.loc 1 874 0
 2333 03ac 83F80590 		strb	r9, [r3, #5]
 2334              		.loc 1 875 0
 2335 03b0 83F806B0 		strb	fp, [r3, #6]
 2336              		.loc 1 881 0
 2337 03b4 7AE6     		b	.L110
ARM GAS  C:\Users\Moi\AppData\Local\Temp\ccshbzNF.s 			page 42


 2338              	.LVL348:
 2339              	.L139:
 2340              		.loc 1 690 0
 2341 03b6 1049     		ldr	r1, .L145
 2342              	.LVL349:
 2343              		.loc 1 691 0
 2344 03b8 5A00     		lsls	r2, r3, #1
 2345              	.LVL350:
 2346              		.loc 1 690 0
 2347 03ba A1FB0303 		umull	r0, r3, r1, r3
 2348              	.LVL351:
 2349 03be 06EB5303 		add	r3, r6, r3, lsr #1
 2350              		.loc 1 691 0
 2351 03c2 A1FB0212 		umull	r1, r2, r1, r2
 2352              		.loc 1 690 0
 2353 03c6 0093     		str	r3, [sp]
 2354              	.LVL352:
 2355              		.loc 1 691 0
 2356 03c8 06EB5203 		add	r3, r6, r2, lsr #1
 2357              	.LVL353:
 2358 03cc 0193     		str	r3, [sp, #4]
 2359              	.LVL354:
 2360              		.loc 1 692 0
 2361 03ce 59E6     		b	.L111
 2362              	.LVL355:
 2363              	.L112:
 2364              		.loc 1 696 0
 2365 03d0 D907     		lsls	r1, r3, #31
 2366              	.LVL356:
 2367 03d2 4DD4     		bmi	.L132
 2368              		.loc 1 701 0
 2369 03d4 084A     		ldr	r2, .L145
 2370              	.LVL357:
 2371              		.loc 1 699 0
 2372 03d6 7408     		lsrs	r4, r6, #1
 2373              	.LVL358:
 2374              		.loc 1 702 0
 2375 03d8 5900     		lsls	r1, r3, #1
 2376              		.loc 1 700 0
 2377 03da 661C     		adds	r6, r4, #1
 2378              	.LVL359:
 2379              		.loc 1 702 0
 2380 03dc A2FB0101 		umull	r0, r1, r2, r1
 2381              	.LVL360:
 2382              		.loc 1 701 0
 2383 03e0 A2FB0302 		umull	r0, r2, r2, r3
 2384              		.loc 1 700 0
 2385 03e4 04EB5304 		add	r4, r4, r3, lsr #1
 2386              	.LVL361:
 2387              		.loc 1 701 0
 2388 03e8 06EB9203 		add	r3, r6, r2, lsr #2
 2389              	.LVL362:
 2390 03ec 0093     		str	r3, [sp]
 2391              	.LVL363:
 2392              		.loc 1 702 0
 2393 03ee 06EB9103 		add	r3, r6, r1, lsr #2
 2394              	.LVL364:
ARM GAS  C:\Users\Moi\AppData\Local\Temp\ccshbzNF.s 			page 43


 2395 03f2 0193     		str	r3, [sp, #4]
 2396              	.LVL365:
 2397              		.loc 1 704 0
 2398 03f4 46E6     		b	.L111
 2399              	.L146:
 2400 03f6 00BF     		.align	2
 2401              	.L145:
 2402 03f8 ABAAAAAA 		.word	-1431655765
 2403 03fc 00002244 		.word	1143078912
 2404 0400 0000A344 		.word	1151533056
 2405 0404 00000000 		.word	.LANCHOR0
 2406 0408 00000000 		.word	__stack_chk_guard
 2407              	.LVL366:
 2408              	.L140:
 2409              		.loc 1 721 0
 2410 040c 244A     		ldr	r2, .L147
 2411              		.loc 1 722 0
 2412 040e 4FEA4C03 		lsl	r3, ip, #1
 2413              		.loc 1 721 0
 2414 0412 A2FB0C1C 		umull	r1, ip, r2, ip
 2415              		.loc 1 722 0
 2416 0416 A2FB0323 		umull	r2, r3, r2, r3
 2417 041a 07EB5303 		add	r3, r7, r3, lsr #1
 2418              		.loc 1 721 0
 2419 041e 07EB5C02 		add	r2, r7, ip, lsr #1
 2420 0422 0292     		str	r2, [sp, #8]
 2421              	.LVL367:
 2422              		.loc 1 722 0
 2423 0424 0393     		str	r3, [sp, #12]
 2424              	.LVL368:
 2425              		.loc 1 723 0
 2426 0426 3BE6     		b	.L115
 2427              	.LVL369:
 2428              	.L117:
 2429              		.loc 1 739 0
 2430 0428 1CF0030F 		tst	ip, #3
 2431 042c 23D1     		bne	.L135
 2432              		.loc 1 744 0
 2433 042e 1C4B     		ldr	r3, .L147
 2434              		.loc 1 742 0
 2435 0430 BD08     		lsrs	r5, r7, #2
 2436              	.LVL370:
 2437              		.loc 1 745 0
 2438 0432 4FEA4C02 		lsl	r2, ip, #1
 2439              		.loc 1 743 0
 2440 0436 6F1C     		adds	r7, r5, #1
 2441              	.LVL371:
 2442              		.loc 1 745 0
 2443 0438 A3FB0212 		umull	r1, r2, r3, r2
 2444              		.loc 1 744 0
 2445 043c A3FB0C13 		umull	r1, r3, r3, ip
 2446 0440 07EBD303 		add	r3, r7, r3, lsr #3
 2447 0444 0293     		str	r3, [sp, #8]
 2448              		.loc 1 745 0
 2449 0446 07EBD203 		add	r3, r7, r2, lsr #3
 2450              		.loc 1 743 0
 2451 044a 05EB9C05 		add	r5, r5, ip, lsr #2
ARM GAS  C:\Users\Moi\AppData\Local\Temp\ccshbzNF.s 			page 44


 2452              	.LVL372:
 2453              		.loc 1 745 0
 2454 044e 0393     		str	r3, [sp, #12]
 2455              	.LVL373:
 2456              		.loc 1 747 0
 2457 0450 26E6     		b	.L115
 2458              	.LVL374:
 2459              	.L123:
 2460              		.loc 1 669 0
 2461 0452 6FF00700 		mvn	r0, #7
 2462              	.LVL375:
 2463 0456 29E6     		b	.L110
 2464              	.LVL376:
 2465              	.L127:
 2466              		.loc 1 681 0
 2467 0458 6FF00300 		mvn	r0, #3
 2468              	.LVL377:
 2469 045c 26E6     		b	.L110
 2470              	.LVL378:
 2471              	.L129:
 2472              		.loc 1 685 0
 2473 045e 6FF00400 		mvn	r0, #4
 2474              	.LVL379:
 2475 0462 23E6     		b	.L110
 2476              	.LVL380:
 2477              	.L124:
 2478              		.loc 1 673 0
 2479 0464 6FF00100 		mvn	r0, #1
 2480              	.LVL381:
 2481 0468 20E6     		b	.L110
 2482              	.LVL382:
 2483              	.L125:
 2484              		.loc 1 677 0
 2485 046a 6FF00200 		mvn	r0, #2
 2486              	.LVL383:
 2487 046e 1DE6     		b	.L110
 2488              	.LVL384:
 2489              	.L132:
 2490              		.loc 1 697 0
 2491 0470 6FF00500 		mvn	r0, #5
 2492              	.LVL385:
 2493 0474 1AE6     		b	.L110
 2494              	.LVL386:
 2495              	.L135:
 2496              		.loc 1 728 0
 2497 0476 6FF00600 		mvn	r0, #6
 2498 047a 17E6     		b	.L110
 2499              	.LVL387:
 2500              	.L142:
 2501              		.loc 1 882 0
 2502 047c FFF7FEFF 		bl	__stack_chk_fail
 2503              	.LVL388:
 2504              	.L144:
 2505              		.loc 1 857 0
 2506 0480 F2EE006A 		vmov.f32	s13, #8.0e+0
 2507 0484 37EE267A 		vadd.f32	s14, s14, s13
 2508              	.LVL389:
ARM GAS  C:\Users\Moi\AppData\Local\Temp\ccshbzNF.s 			page 45


 2509 0488 DFED066A 		vldr.32	s13, .L147+4
 2510 048c 67EE277A 		vmul.f32	s15, s14, s15
 2511              	.LVL390:
 2512 0490 87EEA67A 		vdiv.f32	s14, s15, s13
 2513              	.LVL391:
 2514              		.loc 1 858 0
 2515 0494 FCEEC77A 		vcvt.u32.f32	s15, s14
 2516 0498 CDED007A 		vstr.32	s15, [sp]	@ int
 2517              	.LVL392:
 2518 049c 6BE7     		b	.L120
 2519              	.L148:
 2520 049e 00BF     		.align	2
 2521              	.L147:
 2522 04a0 ABAAAAAA 		.word	-1431655765
 2523 04a4 00002444 		.word	1143209984
 2524              		.cfi_endproc
 2525              	.LFE267:
 2526              		.size	po8030_advanced_config, .-po8030_advanced_config
 2527              		.section	.text.po8030_start,"ax",%progbits
 2528              		.align	1
 2529              		.p2align 4,,15
 2530              		.global	po8030_start
 2531              		.syntax unified
 2532              		.thumb
 2533              		.thumb_func
 2534              		.fpu fpv4-sp-d16
 2535              		.type	po8030_start, %function
 2536              	po8030_start:
 2537              	.LFB265:
 2538              		.loc 1 605 0
 2539              		.cfi_startproc
 2540              		@ args = 0, pretend = 0, frame = 8
 2541              		@ frame_needed = 0, uses_anonymous_args = 0
 2542 0000 10B5     		push	{r4, lr}
 2543              		.cfi_def_cfa_offset 8
 2544              		.cfi_offset 4, -8
 2545              		.cfi_offset 14, -4
 2546 0002 114C     		ldr	r4, .L153
 2547 0004 86B0     		sub	sp, sp, #24
 2548              		.cfi_def_cfa_offset 32
 2549              		.loc 1 605 0
 2550 0006 2368     		ldr	r3, [r4]
 2551 0008 0593     		str	r3, [sp, #20]
 2552              		.loc 1 607 0
 2553 000a FFF7FEFF 		bl	i2c_start
 2554              	.LVL393:
 2555              		.loc 1 623 0
 2556 000e 0F49     		ldr	r1, .L153+4
 2557 0010 0F48     		ldr	r0, .L153+8
 2558 0012 FFF7FEFF 		bl	pwmStart
 2559              	.LVL394:
 2560              		.loc 1 625 0
 2561 0016 0122     		movs	r2, #1
 2562 0018 0021     		movs	r1, #0
 2563 001a 0D48     		ldr	r0, .L153+8
 2564 001c FFF7FEFF 		bl	pwmEnableChannel
 2565              	.LVL395:
ARM GAS  C:\Users\Moi\AppData\Local\Temp\ccshbzNF.s 			page 46


 2566              		.loc 1 628 0
 2567 0020 2023     		movs	r3, #32
 2568 0022 7822     		movs	r2, #120
 2569 0024 CDE90133 		strd	r3, r3, [sp, #4]
 2570 0028 0092     		str	r2, [sp]
 2571 002a A023     		movs	r3, #160
 2572 002c B422     		movs	r2, #180
 2573 002e F021     		movs	r1, #240
 2574 0030 0220     		movs	r0, #2
 2575 0032 FFF7FEFF 		bl	po8030_advanced_config
 2576              	.LVL396:
 2577              		.loc 1 629 0
 2578 0036 059A     		ldr	r2, [sp, #20]
 2579 0038 2368     		ldr	r3, [r4]
 2580 003a 9A42     		cmp	r2, r3
 2581 003c 01D1     		bne	.L152
 2582 003e 06B0     		add	sp, sp, #24
 2583              		.cfi_remember_state
 2584              		.cfi_def_cfa_offset 8
 2585              		@ sp needed
 2586 0040 10BD     		pop	{r4, pc}
 2587              	.L152:
 2588              		.cfi_restore_state
 2589 0042 FFF7FEFF 		bl	__stack_chk_fail
 2590              	.LVL397:
 2591              	.L154:
 2592 0046 00BF     		.align	2
 2593              	.L153:
 2594 0048 00000000 		.word	__stack_chk_guard
 2595 004c 00000000 		.word	.LANCHOR1
 2596 0050 00000000 		.word	PWMD5
 2597              		.cfi_endproc
 2598              	.LFE265:
 2599              		.size	po8030_start, .-po8030_start
 2600              		.section	.text.po8030_set_brightness,"ax",%progbits
 2601              		.align	1
 2602              		.p2align 4,,15
 2603              		.global	po8030_set_brightness
 2604              		.syntax unified
 2605              		.thumb
 2606              		.thumb_func
 2607              		.fpu fpv4-sp-d16
 2608              		.type	po8030_set_brightness, %function
 2609              	po8030_set_brightness:
 2610              	.LFB268:
 2611              		.loc 1 887 0
 2612              		.cfi_startproc
 2613              		@ args = 0, pretend = 0, frame = 8
 2614              		@ frame_needed = 0, uses_anonymous_args = 0
 2615              	.LVL398:
 2616 0000 30B5     		push	{r4, r5, lr}
 2617              		.cfi_def_cfa_offset 12
 2618              		.cfi_offset 4, -12
 2619              		.cfi_offset 5, -8
 2620              		.cfi_offset 14, -4
 2621 0002 0E4C     		ldr	r4, .L162
 2622 0004 83B0     		sub	sp, sp, #12
ARM GAS  C:\Users\Moi\AppData\Local\Temp\ccshbzNF.s 			page 47


 2623              		.cfi_def_cfa_offset 24
 2624              		.loc 1 887 0
 2625 0006 2368     		ldr	r3, [r4]
 2626 0008 0193     		str	r3, [sp, #4]
 2627              	.LVL399:
 2628              	.LBB158:
 2629              	.LBB159:
 2630              		.loc 1 119 0
 2631 000a 0122     		movs	r2, #1
 2632              	.LBE159:
 2633              	.LBE158:
 2634              		.loc 1 887 0
 2635 000c 0546     		mov	r5, r0
 2636              	.LBB161:
 2637              	.LBB160:
 2638              		.loc 1 119 0
 2639 000e 0321     		movs	r1, #3
 2640 0010 6E20     		movs	r0, #110
 2641              	.LVL400:
 2642 0012 FFF7FEFF 		bl	write_reg
 2643              	.LVL401:
 2644              	.LBE160:
 2645              	.LBE161:
 2646              		.loc 1 893 0
 2647 0016 019A     		ldr	r2, [sp, #4]
 2648 0018 2368     		ldr	r3, [r4]
 2649              		.loc 1 889 0
 2650 001a 18B1     		cbz	r0, .L161
 2651              		.loc 1 893 0
 2652 001c 9A42     		cmp	r2, r3
 2653 001e 0BD1     		bne	.L160
 2654 0020 03B0     		add	sp, sp, #12
 2655              		.cfi_remember_state
 2656              		.cfi_def_cfa_offset 12
 2657              		@ sp needed
 2658 0022 30BD     		pop	{r4, r5, pc}
 2659              	.L161:
 2660              		.cfi_restore_state
 2661              		.loc 1 892 0
 2662 0024 9A42     		cmp	r2, r3
 2663 0026 07D1     		bne	.L160
 2664 0028 2A46     		mov	r2, r5
 2665 002a 9E21     		movs	r1, #158
 2666 002c 6E20     		movs	r0, #110
 2667              		.loc 1 893 0
 2668 002e 03B0     		add	sp, sp, #12
 2669              		.cfi_remember_state
 2670              		.cfi_def_cfa_offset 12
 2671              		@ sp needed
 2672 0030 BDE83040 		pop	{r4, r5, lr}
 2673              		.cfi_restore 14
 2674              		.cfi_restore 5
 2675              		.cfi_restore 4
 2676              		.cfi_def_cfa_offset 0
 2677              		.loc 1 892 0
 2678 0034 FFF7FEBF 		b	write_reg
 2679              	.LVL402:
ARM GAS  C:\Users\Moi\AppData\Local\Temp\ccshbzNF.s 			page 48


 2680              	.L160:
 2681              		.cfi_restore_state
 2682              		.loc 1 893 0
 2683 0038 FFF7FEFF 		bl	__stack_chk_fail
 2684              	.LVL403:
 2685              	.L163:
 2686              		.align	2
 2687              	.L162:
 2688 003c 00000000 		.word	__stack_chk_guard
 2689              		.cfi_endproc
 2690              	.LFE268:
 2691              		.size	po8030_set_brightness, .-po8030_set_brightness
 2692              		.section	.text.po8030_set_contrast,"ax",%progbits
 2693              		.align	1
 2694              		.p2align 4,,15
 2695              		.global	po8030_set_contrast
 2696              		.syntax unified
 2697              		.thumb
 2698              		.thumb_func
 2699              		.fpu fpv4-sp-d16
 2700              		.type	po8030_set_contrast, %function
 2701              	po8030_set_contrast:
 2702              	.LFB269:
 2703              		.loc 1 898 0
 2704              		.cfi_startproc
 2705              		@ args = 0, pretend = 0, frame = 8
 2706              		@ frame_needed = 0, uses_anonymous_args = 0
 2707              	.LVL404:
 2708 0000 30B5     		push	{r4, r5, lr}
 2709              		.cfi_def_cfa_offset 12
 2710              		.cfi_offset 4, -12
 2711              		.cfi_offset 5, -8
 2712              		.cfi_offset 14, -4
 2713 0002 0E4C     		ldr	r4, .L171
 2714 0004 83B0     		sub	sp, sp, #12
 2715              		.cfi_def_cfa_offset 24
 2716              		.loc 1 898 0
 2717 0006 2368     		ldr	r3, [r4]
 2718 0008 0193     		str	r3, [sp, #4]
 2719              	.LVL405:
 2720              	.LBB162:
 2721              	.LBB163:
 2722              		.loc 1 119 0
 2723 000a 0122     		movs	r2, #1
 2724              	.LBE163:
 2725              	.LBE162:
 2726              		.loc 1 898 0
 2727 000c 0546     		mov	r5, r0
 2728              	.LBB165:
 2729              	.LBB164:
 2730              		.loc 1 119 0
 2731 000e 0321     		movs	r1, #3
 2732 0010 6E20     		movs	r0, #110
 2733              	.LVL406:
 2734 0012 FFF7FEFF 		bl	write_reg
 2735              	.LVL407:
 2736              	.LBE164:
ARM GAS  C:\Users\Moi\AppData\Local\Temp\ccshbzNF.s 			page 49


 2737              	.LBE165:
 2738              		.loc 1 904 0
 2739 0016 019A     		ldr	r2, [sp, #4]
 2740 0018 2368     		ldr	r3, [r4]
 2741              		.loc 1 900 0
 2742 001a 18B1     		cbz	r0, .L170
 2743              		.loc 1 904 0
 2744 001c 9A42     		cmp	r2, r3
 2745 001e 0BD1     		bne	.L169
 2746 0020 03B0     		add	sp, sp, #12
 2747              		.cfi_remember_state
 2748              		.cfi_def_cfa_offset 12
 2749              		@ sp needed
 2750 0022 30BD     		pop	{r4, r5, pc}
 2751              	.L170:
 2752              		.cfi_restore_state
 2753              		.loc 1 903 0
 2754 0024 9A42     		cmp	r2, r3
 2755 0026 07D1     		bne	.L169
 2756 0028 2A46     		mov	r2, r5
 2757 002a 9D21     		movs	r1, #157
 2758 002c 6E20     		movs	r0, #110
 2759              		.loc 1 904 0
 2760 002e 03B0     		add	sp, sp, #12
 2761              		.cfi_remember_state
 2762              		.cfi_def_cfa_offset 12
 2763              		@ sp needed
 2764 0030 BDE83040 		pop	{r4, r5, lr}
 2765              		.cfi_restore 14
 2766              		.cfi_restore 5
 2767              		.cfi_restore 4
 2768              		.cfi_def_cfa_offset 0
 2769              		.loc 1 903 0
 2770 0034 FFF7FEBF 		b	write_reg
 2771              	.LVL408:
 2772              	.L169:
 2773              		.cfi_restore_state
 2774              		.loc 1 904 0
 2775 0038 FFF7FEFF 		bl	__stack_chk_fail
 2776              	.LVL409:
 2777              	.L172:
 2778              		.align	2
 2779              	.L171:
 2780 003c 00000000 		.word	__stack_chk_guard
 2781              		.cfi_endproc
 2782              	.LFE269:
 2783              		.size	po8030_set_contrast, .-po8030_set_contrast
 2784              		.section	.text.po8030_set_mirror,"ax",%progbits
 2785              		.align	1
 2786              		.p2align 4,,15
 2787              		.global	po8030_set_mirror
 2788              		.syntax unified
 2789              		.thumb
 2790              		.thumb_func
 2791              		.fpu fpv4-sp-d16
 2792              		.type	po8030_set_mirror, %function
 2793              	po8030_set_mirror:
ARM GAS  C:\Users\Moi\AppData\Local\Temp\ccshbzNF.s 			page 50


 2794              	.LFB270:
 2795              		.loc 1 910 0
 2796              		.cfi_startproc
 2797              		@ args = 0, pretend = 0, frame = 8
 2798              		@ frame_needed = 0, uses_anonymous_args = 0
 2799              	.LVL410:
 2800 0000 70B5     		push	{r4, r5, r6, lr}
 2801              		.cfi_def_cfa_offset 16
 2802              		.cfi_offset 4, -16
 2803              		.cfi_offset 5, -12
 2804              		.cfi_offset 6, -8
 2805              		.cfi_offset 14, -4
 2806 0002 134C     		ldr	r4, .L182
 2807 0004 82B0     		sub	sp, sp, #8
 2808              		.cfi_def_cfa_offset 24
 2809              		.loc 1 910 0
 2810 0006 0646     		mov	r6, r0
 2811 0008 0D46     		mov	r5, r1
 2812 000a 2368     		ldr	r3, [r4]
 2813 000c 0193     		str	r3, [sp, #4]
 2814              	.LVL411:
 2815              	.LBB166:
 2816              	.LBB167:
 2817              		.loc 1 119 0
 2818 000e 0022     		movs	r2, #0
 2819 0010 0321     		movs	r1, #3
 2820              	.LVL412:
 2821 0012 6E20     		movs	r0, #110
 2822              	.LVL413:
 2823 0014 FFF7FEFF 		bl	write_reg
 2824              	.LVL414:
 2825              	.LBE167:
 2826              	.LBE166:
 2827              		.loc 1 914 0
 2828 0018 90B9     		cbnz	r0, .L174
 2829              		.loc 1 918 0
 2830 001a 012E     		cmp	r6, #1
 2831              		.loc 1 925 0
 2832 001c 0199     		ldr	r1, [sp, #4]
 2833 001e 2368     		ldr	r3, [r4]
 2834              		.loc 1 919 0
 2835 0020 0CBF     		ite	eq
 2836 0022 8022     		moveq	r2, #128
 2837 0024 0022     		movne	r2, #0
 2838              	.LVL415:
 2839              		.loc 1 921 0
 2840 0026 012D     		cmp	r5, #1
 2841              		.loc 1 922 0
 2842 0028 08BF     		it	eq
 2843 002a 42F04002 		orreq	r2, r2, #64
 2844              	.LVL416:
 2845              		.loc 1 925 0
 2846 002e 9942     		cmp	r1, r3
 2847 0030 0CD1     		bne	.L181
 2848 0032 6C21     		movs	r1, #108
 2849 0034 6E20     		movs	r0, #110
 2850              		.loc 1 926 0
ARM GAS  C:\Users\Moi\AppData\Local\Temp\ccshbzNF.s 			page 51


 2851 0036 02B0     		add	sp, sp, #8
 2852              		.cfi_remember_state
 2853              		.cfi_def_cfa_offset 16
 2854              		@ sp needed
 2855 0038 BDE87040 		pop	{r4, r5, r6, lr}
 2856              		.cfi_restore 14
 2857              		.cfi_restore 6
 2858              		.cfi_restore 5
 2859              		.cfi_restore 4
 2860              		.cfi_def_cfa_offset 0
 2861              		.loc 1 925 0
 2862 003c FFF7FEBF 		b	write_reg
 2863              	.LVL417:
 2864              	.L174:
 2865              		.cfi_restore_state
 2866              		.loc 1 926 0
 2867 0040 019A     		ldr	r2, [sp, #4]
 2868 0042 2368     		ldr	r3, [r4]
 2869 0044 9A42     		cmp	r2, r3
 2870 0046 01D1     		bne	.L181
 2871 0048 02B0     		add	sp, sp, #8
 2872              		.cfi_remember_state
 2873              		.cfi_def_cfa_offset 16
 2874              		@ sp needed
 2875 004a 70BD     		pop	{r4, r5, r6, pc}
 2876              	.LVL418:
 2877              	.L181:
 2878              		.cfi_restore_state
 2879 004c FFF7FEFF 		bl	__stack_chk_fail
 2880              	.LVL419:
 2881              	.L183:
 2882              		.align	2
 2883              	.L182:
 2884 0050 00000000 		.word	__stack_chk_guard
 2885              		.cfi_endproc
 2886              	.LFE270:
 2887              		.size	po8030_set_mirror, .-po8030_set_mirror
 2888              		.section	.text.po8030_set_awb,"ax",%progbits
 2889              		.align	1
 2890              		.p2align 4,,15
 2891              		.global	po8030_set_awb
 2892              		.syntax unified
 2893              		.thumb
 2894              		.thumb_func
 2895              		.fpu fpv4-sp-d16
 2896              		.type	po8030_set_awb, %function
 2897              	po8030_set_awb:
 2898              	.LFB271:
 2899              		.loc 1 931 0
 2900              		.cfi_startproc
 2901              		@ args = 0, pretend = 0, frame = 8
 2902              		@ frame_needed = 0, uses_anonymous_args = 0
 2903              	.LVL420:
 2904 0000 30B5     		push	{r4, r5, lr}
 2905              		.cfi_def_cfa_offset 12
 2906              		.cfi_offset 4, -12
 2907              		.cfi_offset 5, -8
ARM GAS  C:\Users\Moi\AppData\Local\Temp\ccshbzNF.s 			page 52


 2908              		.cfi_offset 14, -4
 2909 0002 164C     		ldr	r4, .L192
 2910 0004 83B0     		sub	sp, sp, #12
 2911              		.cfi_def_cfa_offset 24
 2912              		.loc 1 931 0
 2913 0006 2368     		ldr	r3, [r4]
 2914 0008 0193     		str	r3, [sp, #4]
 2915              	.LVL421:
 2916 000a 0546     		mov	r5, r0
 2917              		.loc 1 933 0
 2918 000c 0023     		movs	r3, #0
 2919              	.LBB168:
 2920              	.LBB169:
 2921              		.loc 1 119 0
 2922 000e 0222     		movs	r2, #2
 2923 0010 0321     		movs	r1, #3
 2924 0012 6E20     		movs	r0, #110
 2925              	.LVL422:
 2926              	.LBE169:
 2927              	.LBE168:
 2928              		.loc 1 933 0
 2929 0014 8DF80330 		strb	r3, [sp, #3]
 2930              	.LVL423:
 2931              	.LBB171:
 2932              	.LBB170:
 2933              		.loc 1 119 0
 2934 0018 FFF7FEFF 		bl	write_reg
 2935              	.LVL424:
 2936              	.LBE170:
 2937              	.LBE171:
 2938              		.loc 1 935 0
 2939 001c 28B1     		cbz	r0, .L190
 2940              	.L185:
 2941              		.loc 1 950 0
 2942 001e 019A     		ldr	r2, [sp, #4]
 2943 0020 2368     		ldr	r3, [r4]
 2944 0022 9A42     		cmp	r2, r3
 2945 0024 18D1     		bne	.L191
 2946 0026 03B0     		add	sp, sp, #12
 2947              		.cfi_remember_state
 2948              		.cfi_def_cfa_offset 12
 2949              		@ sp needed
 2950 0028 30BD     		pop	{r4, r5, pc}
 2951              	.L190:
 2952              		.cfi_restore_state
 2953              		.loc 1 939 0
 2954 002a 0DF10302 		add	r2, sp, #3
 2955 002e 0421     		movs	r1, #4
 2956 0030 6E20     		movs	r0, #110
 2957 0032 FFF7FEFF 		bl	read_reg
 2958              	.LVL425:
 2959 0036 0028     		cmp	r0, #0
 2960 0038 F1D1     		bne	.L185
 2961 003a 9DF80320 		ldrb	r2, [sp, #3]	@ zero_extendqisi2
 2962              		.loc 1 943 0
 2963 003e 012D     		cmp	r5, #1
 2964              		.loc 1 944 0
ARM GAS  C:\Users\Moi\AppData\Local\Temp\ccshbzNF.s 			page 53


 2965 0040 0CBF     		ite	eq
 2966 0042 02F0FB02 		andeq	r2, r2, #251
 2967              		.loc 1 946 0
 2968 0046 42F00402 		orrne	r2, r2, #4
 2969              		.loc 1 949 0
 2970 004a 0421     		movs	r1, #4
 2971 004c 6E20     		movs	r0, #110
 2972              	.LVL426:
 2973              		.loc 1 946 0
 2974 004e 8DF80320 		strb	r2, [sp, #3]
 2975              		.loc 1 949 0
 2976 0052 FFF7FEFF 		bl	write_reg
 2977              	.LVL427:
 2978 0056 E2E7     		b	.L185
 2979              	.L191:
 2980              		.loc 1 950 0
 2981 0058 FFF7FEFF 		bl	__stack_chk_fail
 2982              	.LVL428:
 2983              	.L193:
 2984              		.align	2
 2985              	.L192:
 2986 005c 00000000 		.word	__stack_chk_guard
 2987              		.cfi_endproc
 2988              	.LFE271:
 2989              		.size	po8030_set_awb, .-po8030_set_awb
 2990              		.section	.text.po8030_set_rgb_gain,"ax",%progbits
 2991              		.align	1
 2992              		.p2align 4,,15
 2993              		.global	po8030_set_rgb_gain
 2994              		.syntax unified
 2995              		.thumb
 2996              		.thumb_func
 2997              		.fpu fpv4-sp-d16
 2998              		.type	po8030_set_rgb_gain, %function
 2999              	po8030_set_rgb_gain:
 3000              	.LFB272:
 3001              		.loc 1 958 0
 3002              		.cfi_startproc
 3003              		@ args = 0, pretend = 0, frame = 8
 3004              		@ frame_needed = 0, uses_anonymous_args = 0
 3005              	.LVL429:
 3006 0000 F0B5     		push	{r4, r5, r6, r7, lr}
 3007              		.cfi_def_cfa_offset 20
 3008              		.cfi_offset 4, -20
 3009              		.cfi_offset 5, -16
 3010              		.cfi_offset 6, -12
 3011              		.cfi_offset 7, -8
 3012              		.cfi_offset 14, -4
 3013 0002 1A4C     		ldr	r4, .L201
 3014 0004 83B0     		sub	sp, sp, #12
 3015              		.cfi_def_cfa_offset 32
 3016              		.loc 1 958 0
 3017 0006 0546     		mov	r5, r0
 3018 0008 2368     		ldr	r3, [r4]
 3019 000a 0193     		str	r3, [sp, #4]
 3020              	.LVL430:
 3021              		.loc 1 961 0
ARM GAS  C:\Users\Moi\AppData\Local\Temp\ccshbzNF.s 			page 54


 3022 000c 0020     		movs	r0, #0
 3023              	.LVL431:
 3024              		.loc 1 958 0
 3025 000e 0E46     		mov	r6, r1
 3026 0010 1746     		mov	r7, r2
 3027              		.loc 1 961 0
 3028 0012 FFF7FEFF 		bl	po8030_set_awb
 3029              	.LVL432:
 3030 0016 28B1     		cbz	r0, .L200
 3031              	.LVL433:
 3032              	.L195:
 3033              		.loc 1 980 0
 3034 0018 019A     		ldr	r2, [sp, #4]
 3035 001a 2368     		ldr	r3, [r4]
 3036 001c 9A42     		cmp	r2, r3
 3037 001e 22D1     		bne	.L199
 3038 0020 03B0     		add	sp, sp, #12
 3039              		.cfi_remember_state
 3040              		.cfi_def_cfa_offset 20
 3041              		@ sp needed
 3042 0022 F0BD     		pop	{r4, r5, r6, r7, pc}
 3043              	.LVL434:
 3044              	.L200:
 3045              		.cfi_restore_state
 3046              	.LBB172:
 3047              	.LBB173:
 3048              		.loc 1 119 0
 3049 0024 0246     		mov	r2, r0
 3050 0026 0321     		movs	r1, #3
 3051 0028 6E20     		movs	r0, #110
 3052              	.LVL435:
 3053 002a FFF7FEFF 		bl	write_reg
 3054              	.LVL436:
 3055              	.LBE173:
 3056              	.LBE172:
 3057              		.loc 1 965 0
 3058 002e 0028     		cmp	r0, #0
 3059 0030 F2D1     		bne	.L195
 3060              		.loc 1 969 0
 3061 0032 2A46     		mov	r2, r5
 3062 0034 2321     		movs	r1, #35
 3063 0036 6E20     		movs	r0, #110
 3064 0038 FFF7FEFF 		bl	write_reg
 3065              	.LVL437:
 3066 003c 0028     		cmp	r0, #0
 3067 003e EBD1     		bne	.L195
 3068              		.loc 1 972 0
 3069 0040 3246     		mov	r2, r6
 3070 0042 2421     		movs	r1, #36
 3071 0044 6E20     		movs	r0, #110
 3072              	.LVL438:
 3073 0046 FFF7FEFF 		bl	write_reg
 3074              	.LVL439:
 3075 004a 0028     		cmp	r0, #0
 3076 004c E4D1     		bne	.L195
 3077              		.loc 1 975 0
 3078 004e 019A     		ldr	r2, [sp, #4]
ARM GAS  C:\Users\Moi\AppData\Local\Temp\ccshbzNF.s 			page 55


 3079 0050 2368     		ldr	r3, [r4]
 3080 0052 9A42     		cmp	r2, r3
 3081 0054 07D1     		bne	.L199
 3082 0056 3A46     		mov	r2, r7
 3083 0058 2521     		movs	r1, #37
 3084 005a 6E20     		movs	r0, #110
 3085              	.LVL440:
 3086              		.loc 1 980 0
 3087 005c 03B0     		add	sp, sp, #12
 3088              		.cfi_remember_state
 3089              		.cfi_def_cfa_offset 20
 3090              		@ sp needed
 3091 005e BDE8F040 		pop	{r4, r5, r6, r7, lr}
 3092              		.cfi_restore 14
 3093              		.cfi_restore 7
 3094              		.cfi_restore 6
 3095              		.cfi_restore 5
 3096              		.cfi_restore 4
 3097              		.cfi_def_cfa_offset 0
 3098              		.loc 1 975 0
 3099 0062 FFF7FEBF 		b	write_reg
 3100              	.LVL441:
 3101              	.L199:
 3102              		.cfi_restore_state
 3103              		.loc 1 980 0
 3104 0066 FFF7FEFF 		bl	__stack_chk_fail
 3105              	.LVL442:
 3106              	.L202:
 3107 006a 00BF     		.align	2
 3108              	.L201:
 3109 006c 00000000 		.word	__stack_chk_guard
 3110              		.cfi_endproc
 3111              	.LFE272:
 3112              		.size	po8030_set_rgb_gain, .-po8030_set_rgb_gain
 3113              		.section	.text.po8030_set_ae,"ax",%progbits
 3114              		.align	1
 3115              		.p2align 4,,15
 3116              		.global	po8030_set_ae
 3117              		.syntax unified
 3118              		.thumb
 3119              		.thumb_func
 3120              		.fpu fpv4-sp-d16
 3121              		.type	po8030_set_ae, %function
 3122              	po8030_set_ae:
 3123              	.LFB273:
 3124              		.loc 1 985 0
 3125              		.cfi_startproc
 3126              		@ args = 0, pretend = 0, frame = 8
 3127              		@ frame_needed = 0, uses_anonymous_args = 0
 3128              	.LVL443:
 3129 0000 30B5     		push	{r4, r5, lr}
 3130              		.cfi_def_cfa_offset 12
 3131              		.cfi_offset 4, -12
 3132              		.cfi_offset 5, -8
 3133              		.cfi_offset 14, -4
 3134 0002 164C     		ldr	r4, .L211
 3135 0004 83B0     		sub	sp, sp, #12
ARM GAS  C:\Users\Moi\AppData\Local\Temp\ccshbzNF.s 			page 56


 3136              		.cfi_def_cfa_offset 24
 3137              		.loc 1 985 0
 3138 0006 2368     		ldr	r3, [r4]
 3139 0008 0193     		str	r3, [sp, #4]
 3140              	.LVL444:
 3141 000a 0546     		mov	r5, r0
 3142              		.loc 1 987 0
 3143 000c 0023     		movs	r3, #0
 3144              	.LBB174:
 3145              	.LBB175:
 3146              		.loc 1 119 0
 3147 000e 0222     		movs	r2, #2
 3148 0010 0321     		movs	r1, #3
 3149 0012 6E20     		movs	r0, #110
 3150              	.LVL445:
 3151              	.LBE175:
 3152              	.LBE174:
 3153              		.loc 1 987 0
 3154 0014 8DF80330 		strb	r3, [sp, #3]
 3155              	.LVL446:
 3156              	.LBB177:
 3157              	.LBB176:
 3158              		.loc 1 119 0
 3159 0018 FFF7FEFF 		bl	write_reg
 3160              	.LVL447:
 3161              	.LBE176:
 3162              	.LBE177:
 3163              		.loc 1 989 0
 3164 001c 28B1     		cbz	r0, .L209
 3165              	.L204:
 3166              		.loc 1 1004 0
 3167 001e 019A     		ldr	r2, [sp, #4]
 3168 0020 2368     		ldr	r3, [r4]
 3169 0022 9A42     		cmp	r2, r3
 3170 0024 18D1     		bne	.L210
 3171 0026 03B0     		add	sp, sp, #12
 3172              		.cfi_remember_state
 3173              		.cfi_def_cfa_offset 12
 3174              		@ sp needed
 3175 0028 30BD     		pop	{r4, r5, pc}
 3176              	.L209:
 3177              		.cfi_restore_state
 3178              		.loc 1 993 0
 3179 002a 0DF10302 		add	r2, sp, #3
 3180 002e 0421     		movs	r1, #4
 3181 0030 6E20     		movs	r0, #110
 3182 0032 FFF7FEFF 		bl	read_reg
 3183              	.LVL448:
 3184 0036 0028     		cmp	r0, #0
 3185 0038 F1D1     		bne	.L204
 3186 003a 9DF80320 		ldrb	r2, [sp, #3]	@ zero_extendqisi2
 3187              		.loc 1 997 0
 3188 003e 012D     		cmp	r5, #1
 3189              		.loc 1 998 0
 3190 0040 0CBF     		ite	eq
 3191 0042 02F0FC02 		andeq	r2, r2, #252
 3192              		.loc 1 1000 0
ARM GAS  C:\Users\Moi\AppData\Local\Temp\ccshbzNF.s 			page 57


 3193 0046 42F00302 		orrne	r2, r2, #3
 3194              		.loc 1 1003 0
 3195 004a 0421     		movs	r1, #4
 3196 004c 6E20     		movs	r0, #110
 3197              	.LVL449:
 3198              		.loc 1 1000 0
 3199 004e 8DF80320 		strb	r2, [sp, #3]
 3200              		.loc 1 1003 0
 3201 0052 FFF7FEFF 		bl	write_reg
 3202              	.LVL450:
 3203 0056 E2E7     		b	.L204
 3204              	.L210:
 3205              		.loc 1 1004 0
 3206 0058 FFF7FEFF 		bl	__stack_chk_fail
 3207              	.LVL451:
 3208              	.L212:
 3209              		.align	2
 3210              	.L211:
 3211 005c 00000000 		.word	__stack_chk_guard
 3212              		.cfi_endproc
 3213              	.LFE273:
 3214              		.size	po8030_set_ae, .-po8030_set_ae
 3215              		.section	.text.po8030_set_exposure,"ax",%progbits
 3216              		.align	1
 3217              		.p2align 4,,15
 3218              		.global	po8030_set_exposure
 3219              		.syntax unified
 3220              		.thumb
 3221              		.thumb_func
 3222              		.fpu fpv4-sp-d16
 3223              		.type	po8030_set_exposure, %function
 3224              	po8030_set_exposure:
 3225              	.LFB274:
 3226              		.loc 1 1011 0
 3227              		.cfi_startproc
 3228              		@ args = 0, pretend = 0, frame = 8
 3229              		@ frame_needed = 0, uses_anonymous_args = 0
 3230              	.LVL452:
 3231 0000 70B5     		push	{r4, r5, r6, lr}
 3232              		.cfi_def_cfa_offset 16
 3233              		.cfi_offset 4, -16
 3234              		.cfi_offset 5, -12
 3235              		.cfi_offset 6, -8
 3236              		.cfi_offset 14, -4
 3237 0002 194C     		ldr	r4, .L220
 3238 0004 82B0     		sub	sp, sp, #8
 3239              		.cfi_def_cfa_offset 24
 3240              		.loc 1 1011 0
 3241 0006 0546     		mov	r5, r0
 3242 0008 2368     		ldr	r3, [r4]
 3243 000a 0193     		str	r3, [sp, #4]
 3244              	.LVL453:
 3245              		.loc 1 1014 0
 3246 000c 0020     		movs	r0, #0
 3247              	.LVL454:
 3248              		.loc 1 1011 0
 3249 000e 0E46     		mov	r6, r1
ARM GAS  C:\Users\Moi\AppData\Local\Temp\ccshbzNF.s 			page 58


 3250              		.loc 1 1014 0
 3251 0010 FFF7FEFF 		bl	po8030_set_ae
 3252              	.LVL455:
 3253 0014 28B1     		cbz	r0, .L219
 3254              	.LVL456:
 3255              	.L214:
 3256              		.loc 1 1033 0
 3257 0016 019A     		ldr	r2, [sp, #4]
 3258 0018 2368     		ldr	r3, [r4]
 3259 001a 9A42     		cmp	r2, r3
 3260 001c 22D1     		bne	.L218
 3261 001e 02B0     		add	sp, sp, #8
 3262              		.cfi_remember_state
 3263              		.cfi_def_cfa_offset 16
 3264              		@ sp needed
 3265 0020 70BD     		pop	{r4, r5, r6, pc}
 3266              	.LVL457:
 3267              	.L219:
 3268              		.cfi_restore_state
 3269              	.LBB178:
 3270              	.LBB179:
 3271              		.loc 1 119 0
 3272 0022 0246     		mov	r2, r0
 3273 0024 0321     		movs	r1, #3
 3274 0026 6E20     		movs	r0, #110
 3275              	.LVL458:
 3276 0028 FFF7FEFF 		bl	write_reg
 3277              	.LVL459:
 3278              	.LBE179:
 3279              	.LBE178:
 3280              		.loc 1 1018 0
 3281 002c 0028     		cmp	r0, #0
 3282 002e F2D1     		bne	.L214
 3283              		.loc 1 1022 0
 3284 0030 2A0A     		lsrs	r2, r5, #8
 3285 0032 1721     		movs	r1, #23
 3286 0034 6E20     		movs	r0, #110
 3287 0036 FFF7FEFF 		bl	write_reg
 3288              	.LVL460:
 3289 003a 0028     		cmp	r0, #0
 3290 003c EBD1     		bne	.L214
 3291              		.loc 1 1025 0
 3292 003e EAB2     		uxtb	r2, r5
 3293 0040 1821     		movs	r1, #24
 3294 0042 6E20     		movs	r0, #110
 3295              	.LVL461:
 3296 0044 FFF7FEFF 		bl	write_reg
 3297              	.LVL462:
 3298 0048 0028     		cmp	r0, #0
 3299 004a E4D1     		bne	.L214
 3300              		.loc 1 1028 0
 3301 004c 019A     		ldr	r2, [sp, #4]
 3302 004e 2368     		ldr	r3, [r4]
 3303 0050 9A42     		cmp	r2, r3
 3304 0052 07D1     		bne	.L218
 3305 0054 3246     		mov	r2, r6
 3306 0056 1921     		movs	r1, #25
ARM GAS  C:\Users\Moi\AppData\Local\Temp\ccshbzNF.s 			page 59


 3307 0058 6E20     		movs	r0, #110
 3308              	.LVL463:
 3309              		.loc 1 1033 0
 3310 005a 02B0     		add	sp, sp, #8
 3311              		.cfi_remember_state
 3312              		.cfi_def_cfa_offset 16
 3313              		@ sp needed
 3314 005c BDE87040 		pop	{r4, r5, r6, lr}
 3315              		.cfi_restore 14
 3316              		.cfi_restore 6
 3317              		.cfi_restore 5
 3318              		.cfi_restore 4
 3319              		.cfi_def_cfa_offset 0
 3320              		.loc 1 1028 0
 3321 0060 FFF7FEBF 		b	write_reg
 3322              	.LVL464:
 3323              	.L218:
 3324              		.cfi_restore_state
 3325              		.loc 1 1033 0
 3326 0064 FFF7FEFF 		bl	__stack_chk_fail
 3327              	.LVL465:
 3328              	.L221:
 3329              		.align	2
 3330              	.L220:
 3331 0068 00000000 		.word	__stack_chk_guard
 3332              		.cfi_endproc
 3333              	.LFE274:
 3334              		.size	po8030_set_exposure, .-po8030_set_exposure
 3335              		.section	.text.po8030_get_image_size,"ax",%progbits
 3336              		.align	1
 3337              		.p2align 4,,15
 3338              		.global	po8030_get_image_size
 3339              		.syntax unified
 3340              		.thumb
 3341              		.thumb_func
 3342              		.fpu fpv4-sp-d16
 3343              		.type	po8030_get_image_size, %function
 3344              	po8030_get_image_size:
 3345              	.LFB275:
 3346              		.loc 1 1037 0
 3347              		.cfi_startproc
 3348              		@ args = 0, pretend = 0, frame = 8
 3349              		@ frame_needed = 0, uses_anonymous_args = 0
 3350 0000 10B5     		push	{r4, lr}
 3351              		.cfi_def_cfa_offset 8
 3352              		.cfi_offset 4, -8
 3353              		.cfi_offset 14, -4
 3354 0002 0A4B     		ldr	r3, .L230
 3355 0004 0A4A     		ldr	r2, .L230+4
 3356 0006 1988     		ldrh	r1, [r3]
 3357 0008 1468     		ldr	r4, [r2]
 3358 000a 5888     		ldrh	r0, [r3, #2]
 3359              		.loc 1 1038 0
 3360 000c 1B79     		ldrb	r3, [r3, #4]	@ zero_extendqisi2
 3361              		.loc 1 1037 0
 3362 000e 82B0     		sub	sp, sp, #8
 3363              		.cfi_def_cfa_offset 16
ARM GAS  C:\Users\Moi\AppData\Local\Temp\ccshbzNF.s 			page 60


 3364              		.loc 1 1038 0
 3365 0010 442B     		cmp	r3, #68
 3366              		.loc 1 1037 0
 3367 0012 0194     		str	r4, [sp, #4]
 3368 0014 00FB01F0 		mul	r0, r0, r1
 3369              		.loc 1 1043 0
 3370 0018 0199     		ldr	r1, [sp, #4]
 3371 001a 1368     		ldr	r3, [r2]
 3372              		.loc 1 1041 0
 3373 001c 18BF     		it	ne
 3374 001e 4000     		lslne	r0, r0, #1
 3375              		.loc 1 1043 0
 3376 0020 9942     		cmp	r1, r3
 3377 0022 01D1     		bne	.L229
 3378 0024 02B0     		add	sp, sp, #8
 3379              		.cfi_remember_state
 3380              		.cfi_def_cfa_offset 8
 3381              		@ sp needed
 3382 0026 10BD     		pop	{r4, pc}
 3383              	.L229:
 3384              		.cfi_restore_state
 3385 0028 FFF7FEFF 		bl	__stack_chk_fail
 3386              	.LVL466:
 3387              	.L231:
 3388              		.align	2
 3389              	.L230:
 3390 002c 00000000 		.word	.LANCHOR0
 3391 0030 00000000 		.word	__stack_chk_guard
 3392              		.cfi_endproc
 3393              	.LFE275:
 3394              		.size	po8030_get_image_size, .-po8030_get_image_size
 3395              		.section	.bss.po8030_conf,"aw",%nobits
 3396              		.align	2
 3397              		.set	.LANCHOR0,. + 0
 3398              		.type	po8030_conf, %object
 3399              		.size	po8030_conf, 8
 3400              	po8030_conf:
 3401 0000 00000000 		.space	8
 3401      00000000 
 3402              		.section	.rodata.pwmcfg_cam.9992,"a",%progbits
 3403              		.align	2
 3404              		.set	.LANCHOR1,. + 0
 3405              		.type	pwmcfg_cam.9992, %object
 3406              		.size	pwmcfg_cam.9992, 52
 3407              	pwmcfg_cam.9992:
 3408 0000 80DE8002 		.word	42000000
 3409 0004 02000000 		.word	2
 3410 0008 00000000 		.word	0
 3411 000c 01000000 		.word	1
 3412 0010 00000000 		.word	0
 3413 0014 00000000 		.word	0
 3414 0018 00000000 		.word	0
 3415 001c 00000000 		.word	0
 3416 0020 00000000 		.word	0
 3417 0024 00000000 		.word	0
 3418 0028 00000000 		.word	0
 3419 002c 00000000 		.word	0
ARM GAS  C:\Users\Moi\AppData\Local\Temp\ccshbzNF.s 			page 61


 3420 0030 00000000 		.space	4
 3421              		.text
 3422              	.Letext0:
 3423              		.file 2 "c:\\users\\moi\\documents\\_microinfo\\epuck-eclipse\\tools\\gcc-arm-none-eabi-7-2017-q4-
 3424              		.file 3 "c:\\users\\moi\\documents\\_microinfo\\epuck-eclipse\\tools\\gcc-arm-none-eabi-7-2017-q4-
 3425              		.file 4 "c:\\users\\moi\\documents\\_microinfo\\epuck-eclipse\\tools\\gcc-arm-none-eabi-7-2017-q4-
 3426              		.file 5 ".//ChibiOS//os/rt/ports/ARMCMx/compilers/GCC/chtypes.h"
 3427              		.file 6 ".//ChibiOS//os/rt/include/chsystypes.h"
 3428              		.file 7 ".//ChibiOS//os/rt/include/chschd.h"
 3429              		.file 8 ".//ChibiOS//os/ext/CMSIS/include/core_cm4.h"
 3430              		.file 9 ".//ChibiOS//os/ext/CMSIS/ST/system_stm32f4xx.h"
 3431              		.file 10 ".//ChibiOS//os/ext/CMSIS/ST/stm32f407xx.h"
 3432              		.file 11 ".//ChibiOS//os/rt/ports/ARMCMx/chcore.h"
 3433              		.file 12 ".//ChibiOS//os/rt/ports/ARMCMx/chcore_v7m.h"
 3434              		.file 13 ".//ChibiOS//os/rt/include/chdebug.h"
 3435              		.file 14 ".//ChibiOS//os/rt/include/chtm.h"
 3436              		.file 15 ".//ChibiOS//os/rt/include/chstats.h"
 3437              		.file 16 ".//ChibiOS//os/rt/include/chsem.h"
 3438              		.file 17 ".//ChibiOS//os/rt/include/chmtx.h"
 3439              		.file 18 ".//ChibiOS//os/rt/include/chregistry.h"
 3440              		.file 19 ".//ChibiOS//os/rt/include/chevents.h"
 3441              		.file 20 ".//ChibiOS//os/rt/include/chqueues.h"
 3442              		.file 21 ".//ChibiOS//os/hal/ports/STM32/STM32F4xx/stm32_dma.h"
 3443              		.file 22 ".//ChibiOS//os/hal/include/hal_ioblock.h"
 3444              		.file 23 ".//ChibiOS//os/hal/ports/STM32/LLD/GPIOv2/pal_lld.h"
 3445              		.file 24 ".//ChibiOS//os/hal/include/adc.h"
 3446              		.file 25 ".//ChibiOS//os/hal/ports/STM32/STM32F4xx/adc_lld.h"
 3447              		.file 26 ".//ChibiOS//os/hal/include/can.h"
 3448              		.file 27 ".//ChibiOS//os/hal/ports/STM32/LLD/can_lld.h"
 3449              		.file 28 ".//ChibiOS//os/hal/include/dac.h"
 3450              		.file 29 ".//ChibiOS//os/hal/ports/STM32/LLD/DACv1/dac_lld.h"
 3451              		.file 30 ".//ChibiOS//os/hal/include/ext.h"
 3452              		.file 31 ".//ChibiOS//os/hal/ports/STM32/LLD/ext_lld.h"
 3453              		.file 32 ".//ChibiOS//os/hal/include/gpt.h"
 3454              		.file 33 ".//ChibiOS//os/hal/ports/STM32/LLD/TIMv1/gpt_lld.h"
 3455              		.file 34 ".//ChibiOS//os/hal/ports/STM32/LLD/TIMv1/stm32_tim.h"
 3456              		.file 35 ".//ChibiOS//os/hal/include/i2c.h"
 3457              		.file 36 ".//ChibiOS//os/hal/ports/STM32/LLD/I2Cv1/i2c_lld.h"
 3458              		.file 37 ".//ChibiOS//os/hal/include/i2s.h"
 3459              		.file 38 ".//ChibiOS//os/hal/ports/STM32/LLD/SPIv1/i2s_lld.h"
 3460              		.file 39 ".//ChibiOS//os/hal/include/pwm.h"
 3461              		.file 40 ".//ChibiOS//os/hal/ports/STM32/LLD/TIMv1/pwm_lld.h"
 3462              		.file 41 ".//ChibiOS//os/hal/include/serial.h"
 3463              		.file 42 ".//ChibiOS//os/hal/ports/STM32/LLD/USARTv1/serial_lld.h"
 3464              		.file 43 ".//ChibiOS//os/hal/include/sdc.h"
 3465              		.file 44 ".//ChibiOS//os/hal/ports/STM32/LLD/sdc_lld.h"
 3466              		.file 45 ".//ChibiOS//os/hal/include/spi.h"
 3467              		.file 46 ".//ChibiOS//os/hal/ports/STM32/LLD/SPIv1/spi_lld.h"
 3468              		.file 47 ".//ChibiOS//os/hal/include/usb.h"
 3469              		.file 48 ".//ChibiOS//os/hal/ports/STM32/LLD/OTGv1/usb_lld.h"
 3470              		.file 49 ".//ChibiOS//os/hal/ports/STM32/LLD/OTGv1/stm32_otg.h"
 3471              		.file 50 ".//ChibiOS//os/hal/include/serial_usb.h"
 3472              		.file 51 ".//src/camera/po8030.h"
 3473              		.file 52 ".//src/usbcfg.h"
 3474              		.file 53 ".//src/camera/../i2c_bus.h"
