ARM GAS  C:\Users\Moi\AppData\Local\Temp\ccrRN6Lz.s 			page 1


   1              		.cpu cortex-m4
   2              		.eabi_attribute 27, 1
   3              		.eabi_attribute 28, 1
   4              		.eabi_attribute 20, 1
   5              		.eabi_attribute 21, 1
   6              		.eabi_attribute 23, 3
   7              		.eabi_attribute 24, 1
   8              		.eabi_attribute 25, 1
   9              		.eabi_attribute 26, 1
  10              		.eabi_attribute 30, 2
  11              		.eabi_attribute 34, 1
  12              		.eabi_attribute 18, 4
  13              		.file	"spi_comm.c"
  14              		.text
  15              	.Ltext0:
  16              		.cfi_sections	.debug_frame
  17              		.section	.text.spi_thread,"ax",%progbits
  18              		.align	1
  19              		.p2align 4,,15
  20              		.syntax unified
  21              		.thumb
  22              		.thumb_func
  23              		.fpu fpv4-sp-d16
  24              		.type	spi_thread, %function
  25              	spi_thread:
  26              	.LFB256:
  27              		.file 1 ".//src/spi_comm.c"
  28              		.loc 1 23 0
  29              		.cfi_startproc
  30              		@ Volatile: function does not return.
  31              		@ args = 0, pretend = 0, frame = 8
  32              		@ frame_needed = 0, uses_anonymous_args = 0
  33              	.LVL0:
  34 0000 80B5     		push	{r7, lr}
  35              		.cfi_def_cfa_offset 8
  36              		.cfi_offset 7, -8
  37              		.cfi_offset 14, -4
  38              	.LBB4:
  39              	.LBB5:
  40              		.file 2 ".//ChibiOS//os/rt/include/chregistry.h"
  41              		.loc 2 135 0
  42 0002 164A     		ldr	r2, .L9
  43              	.LBE5:
  44              	.LBE4:
  45              		.loc 1 23 0
  46 0004 164B     		ldr	r3, .L9+4
  47              	.LBB8:
  48              	.LBB6:
  49              		.loc 2 135 0
  50 0006 9269     		ldr	r2, [r2, #24]
  51 0008 164E     		ldr	r6, .L9+8
  52 000a 1749     		ldr	r1, .L9+12
  53              	.LBE6:
  54              	.LBE8:
  55              		.loc 1 23 0
  56 000c 1B68     		ldr	r3, [r3]
  57 000e DFF86480 		ldr	r8, .L9+24
ARM GAS  C:\Users\Moi\AppData\Local\Temp\ccrRN6Lz.s 			page 2


  58              		.loc 1 74 0
  59 0012 164D     		ldr	r5, .L9+16
  60              		.loc 1 81 0
  61 0014 164C     		ldr	r4, .L9+20
  62              	.LBB9:
  63              	.LBB7:
  64              		.loc 2 135 0
  65 0016 9161     		str	r1, [r2, #24]
  66              	.LBE7:
  67              	.LBE9:
  68              		.loc 1 23 0
  69 0018 82B0     		sub	sp, sp, #8
  70              		.cfi_def_cfa_offset 16
  71              		.loc 1 85 0
  72 001a 3746     		mov	r7, r6
  73              		.loc 1 23 0
  74 001c 0193     		str	r3, [sp, #4]
  75              	.LVL1:
  76              	.L2:
  77              		.loc 1 74 0
  78 001e 2846     		mov	r0, r5
  79 0020 FFF7FEFF 		bl	get_all_rgb_state
  80              	.LVL2:
  81              		.loc 1 81 0
  82 0024 2046     		mov	r0, r4
  83 0026 FFF7FEFF 		bl	spiSelect
  84              	.LVL3:
  85              		.loc 1 85 0
  86 002a 3B46     		mov	r3, r7
  87 002c 2A46     		mov	r2, r5
  88 002e 0C21     		movs	r1, #12
  89 0030 2046     		mov	r0, r4
  90 0032 FFF7FEFF 		bl	spiExchange
  91              	.LVL4:
  92              		.loc 1 89 0
  93 0036 2046     		mov	r0, r4
  94 0038 FFF7FEFF 		bl	spiUnselect
  95              	.LVL5:
  96              		.loc 1 97 0
  97 003c 3078     		ldrb	r0, [r6]	@ zero_extendqisi2
  98 003e FFF7FEFF 		bl	button_set_state
  99              	.LVL6:
 100              		.loc 1 102 0
 101 0042 98F80030 		ldrb	r3, [r8]	@ zero_extendqisi2
 102 0046 033B     		subs	r3, r3, #3
 103 0048 012B     		cmp	r3, #1
 104              		.loc 1 108 0
 105 004a 4FF01400 		mov	r0, #20
 106              		.loc 1 102 0
 107 004e 02D9     		bls	.L8
 108              		.loc 1 108 0
 109 0050 FFF7FEFF 		bl	chThdSleep
 110              	.LVL7:
 111 0054 E3E7     		b	.L2
 112              	.L8:
 113              		.loc 1 104 0
 114 0056 FFF7FEFF 		bl	wait_image_ready
ARM GAS  C:\Users\Moi\AppData\Local\Temp\ccrRN6Lz.s 			page 3


 115              	.LVL8:
 116 005a E0E7     		b	.L2
 117              	.L10:
 118              		.align	2
 119              	.L9:
 120 005c 00000000 		.word	ch
 121 0060 00000000 		.word	__stack_chk_guard
 122 0064 00000000 		.word	.LANCHOR1
 123 0068 00000000 		.word	.LC0
 124 006c 00000000 		.word	.LANCHOR0
 125 0070 00000000 		.word	SPID1
 126 0074 00000000 		.word	DCMID
 127              		.cfi_endproc
 128              	.LFE256:
 129              		.size	spi_thread, .-spi_thread
 130              		.section	.text.spi_comm_start,"ax",%progbits
 131              		.align	1
 132              		.p2align 4,,15
 133              		.global	spi_comm_start
 134              		.syntax unified
 135              		.thumb
 136              		.thumb_func
 137              		.fpu fpv4-sp-d16
 138              		.type	spi_comm_start, %function
 139              	spi_comm_start:
 140              	.LFB257:
 141              		.loc 1 268 0
 142              		.cfi_startproc
 143              		@ args = 0, pretend = 0, frame = 8
 144              		@ frame_needed = 0, uses_anonymous_args = 0
 145 0000 10B5     		push	{r4, lr}
 146              		.cfi_def_cfa_offset 8
 147              		.cfi_offset 4, -8
 148              		.cfi_offset 14, -4
 149 0002 0C4C     		ldr	r4, .L15
 150              		.loc 1 280 0
 151 0004 0C49     		ldr	r1, .L15+4
 152              		.loc 1 268 0
 153 0006 2368     		ldr	r3, [r4]
 154              		.loc 1 280 0
 155 0008 0C48     		ldr	r0, .L15+8
 156              		.loc 1 268 0
 157 000a 84B0     		sub	sp, sp, #16
 158              		.cfi_def_cfa_offset 24
 159              		.loc 1 268 0
 160 000c 0393     		str	r3, [sp, #12]
 161              		.loc 1 280 0
 162 000e FFF7FEFF 		bl	spiStart
 163              	.LVL9:
 164              		.loc 1 281 0
 165 0012 0023     		movs	r3, #0
 166 0014 0093     		str	r3, [sp]
 167 0016 4122     		movs	r2, #65
 168 0018 094B     		ldr	r3, .L15+12
 169 001a 0A48     		ldr	r0, .L15+16
 170 001c 4FF4AF61 		mov	r1, #1400
 171 0020 FFF7FEFF 		bl	chThdCreateStatic
ARM GAS  C:\Users\Moi\AppData\Local\Temp\ccrRN6Lz.s 			page 4


 172              	.LVL10:
 173              		.loc 1 283 0
 174 0024 039A     		ldr	r2, [sp, #12]
 175 0026 2368     		ldr	r3, [r4]
 176 0028 9A42     		cmp	r2, r3
 177 002a 01D1     		bne	.L14
 178 002c 04B0     		add	sp, sp, #16
 179              		.cfi_remember_state
 180              		.cfi_def_cfa_offset 8
 181              		@ sp needed
 182 002e 10BD     		pop	{r4, pc}
 183              	.L14:
 184              		.cfi_restore_state
 185 0030 FFF7FEFF 		bl	__stack_chk_fail
 186              	.LVL11:
 187              	.L16:
 188              		.align	2
 189              	.L15:
 190 0034 00000000 		.word	__stack_chk_guard
 191 0038 00000000 		.word	.LANCHOR2
 192 003c 00000000 		.word	SPID1
 193 0040 00000000 		.word	spi_thread
 194 0044 00000000 		.word	.LANCHOR3
 195              		.cfi_endproc
 196              	.LFE257:
 197              		.size	spi_comm_start, .-spi_comm_start
 198              		.global	ss_event
 199              		.global	spi_tx_buff
 200              		.global	spi_rx_buff
 201              		.section	.bss.spi_rx_buff,"aw",%nobits
 202              		.align	2
 203              		.set	.LANCHOR1,. + 0
 204              		.type	spi_rx_buff, %object
 205              		.size	spi_rx_buff, 4092
 206              	spi_rx_buff:
 207 0000 00000000 		.space	4092
 207      00000000 
 207      00000000 
 207      00000000 
 207      00000000 
 208              		.section	.bss.spi_thread_wa,"aw",%nobits
 209              		.align	3
 210              		.set	.LANCHOR3,. + 0
 211              		.type	spi_thread_wa, %object
 212              		.size	spi_thread_wa, 1400
 213              	spi_thread_wa:
 214 0000 00000000 		.space	1400
 214      00000000 
 214      00000000 
 214      00000000 
 214      00000000 
 215              		.section	.bss.spi_tx_buff,"aw",%nobits
 216              		.align	2
 217              		.set	.LANCHOR0,. + 0
 218              		.type	spi_tx_buff, %object
 219              		.size	spi_tx_buff, 4092
 220              	spi_tx_buff:
ARM GAS  C:\Users\Moi\AppData\Local\Temp\ccrRN6Lz.s 			page 5


 221 0000 00000000 		.space	4092
 221      00000000 
 221      00000000 
 221      00000000 
 221      00000000 
 222              		.section	.bss.ss_event,"aw",%nobits
 223              		.align	2
 224              		.type	ss_event, %object
 225              		.size	ss_event, 4
 226              	ss_event:
 227 0000 00000000 		.space	4
 228              		.section	.rodata.hs_spicfg.10879,"a",%progbits
 229              		.align	2
 230              		.set	.LANCHOR2,. + 0
 231              		.type	hs_spicfg.10879, %object
 232              		.size	hs_spicfg.10879, 12
 233              	hs_spicfg.10879:
 234 0000 00000000 		.word	0
 235 0004 00000240 		.word	1073872896
 236 0008 0F00     		.short	15
 237 000a 1000     		.short	16
 238              		.section	.rodata.spi_thread.str1.4,"aMS",%progbits,1
 239              		.align	2
 240              	.LC0:
 241 0000 53504920 		.ascii	"SPI thread\000"
 241      74687265 
 241      616400
 242              		.text
 243              	.Letext0:
 244              		.file 3 "c:\\users\\moi\\documents\\_microinfo\\epuck-eclipse\\tools\\gcc-arm-none-eabi-7-2017-q4-
 245              		.file 4 "c:\\users\\moi\\documents\\_microinfo\\epuck-eclipse\\tools\\gcc-arm-none-eabi-7-2017-q4-
 246              		.file 5 "c:\\users\\moi\\documents\\_microinfo\\epuck-eclipse\\tools\\gcc-arm-none-eabi-7-2017-q4-
 247              		.file 6 "c:\\users\\moi\\documents\\_microinfo\\epuck-eclipse\\tools\\gcc-arm-none-eabi-7-2017-q4-
 248              		.file 7 "c:\\users\\moi\\documents\\_microinfo\\epuck-eclipse\\tools\\gcc-arm-none-eabi-7-2017-q4-
 249              		.file 8 "c:\\users\\moi\\documents\\_microinfo\\epuck-eclipse\\tools\\gcc-arm-none-eabi-7-2017-q4-
 250              		.file 9 "c:\\users\\moi\\documents\\_microinfo\\epuck-eclipse\\tools\\gcc-arm-none-eabi-7-2017-q4-
 251              		.file 10 ".//ChibiOS//os/rt/ports/ARMCMx/compilers/GCC/chtypes.h"
 252              		.file 11 ".//ChibiOS//os/rt/include/chsystypes.h"
 253              		.file 12 ".//ChibiOS//os/rt/include/chschd.h"
 254              		.file 13 ".//ChibiOS//os/ext/CMSIS/include/core_cm4.h"
 255              		.file 14 ".//ChibiOS//os/ext/CMSIS/ST/system_stm32f4xx.h"
 256              		.file 15 ".//ChibiOS//os/ext/CMSIS/ST/stm32f407xx.h"
 257              		.file 16 ".//ChibiOS//os/rt/ports/ARMCMx/chcore.h"
 258              		.file 17 ".//ChibiOS//os/rt/ports/ARMCMx/chcore_v7m.h"
 259              		.file 18 ".//ChibiOS//os/rt/include/chdebug.h"
 260              		.file 19 ".//ChibiOS//os/rt/include/chtm.h"
 261              		.file 20 ".//ChibiOS//os/rt/include/chstats.h"
 262              		.file 21 ".//ChibiOS//os/rt/include/chsem.h"
 263              		.file 22 ".//ChibiOS//os/rt/include/chmtx.h"
 264              		.file 23 ".//ChibiOS//os/rt/include/chevents.h"
 265              		.file 24 ".//ChibiOS//os/rt/include/chqueues.h"
 266              		.file 25 ".//ChibiOS//os/hal/ports/STM32/STM32F4xx/stm32_dma.h"
 267              		.file 26 ".//ChibiOS//os/hal/include/hal_ioblock.h"
 268              		.file 27 ".//ChibiOS//os/hal/ports/STM32/LLD/GPIOv2/pal_lld.h"
 269              		.file 28 ".//ChibiOS//os/hal/include/adc.h"
 270              		.file 29 ".//ChibiOS//os/hal/ports/STM32/STM32F4xx/adc_lld.h"
 271              		.file 30 ".//ChibiOS//os/hal/include/can.h"
ARM GAS  C:\Users\Moi\AppData\Local\Temp\ccrRN6Lz.s 			page 6


 272              		.file 31 ".//ChibiOS//os/hal/ports/STM32/LLD/can_lld.h"
 273              		.file 32 ".//ChibiOS//os/hal/include/dac.h"
 274              		.file 33 ".//ChibiOS//os/hal/ports/STM32/LLD/DACv1/dac_lld.h"
 275              		.file 34 ".//ChibiOS//os/hal/include/ext.h"
 276              		.file 35 ".//ChibiOS//os/hal/ports/STM32/LLD/ext_lld.h"
 277              		.file 36 ".//ChibiOS//os/hal/include/gpt.h"
 278              		.file 37 ".//ChibiOS//os/hal/ports/STM32/LLD/TIMv1/gpt_lld.h"
 279              		.file 38 ".//ChibiOS//os/hal/ports/STM32/LLD/TIMv1/stm32_tim.h"
 280              		.file 39 ".//ChibiOS//os/hal/include/i2c.h"
 281              		.file 40 ".//ChibiOS//os/hal/ports/STM32/LLD/I2Cv1/i2c_lld.h"
 282              		.file 41 ".//ChibiOS//os/hal/include/i2s.h"
 283              		.file 42 ".//ChibiOS//os/hal/ports/STM32/LLD/SPIv1/i2s_lld.h"
 284              		.file 43 ".//ChibiOS//os/hal/include/pwm.h"
 285              		.file 44 ".//ChibiOS//os/hal/ports/STM32/LLD/TIMv1/pwm_lld.h"
 286              		.file 45 ".//ChibiOS//os/hal/include/serial.h"
 287              		.file 46 ".//ChibiOS//os/hal/ports/STM32/LLD/USARTv1/serial_lld.h"
 288              		.file 47 ".//ChibiOS//os/hal/include/sdc.h"
 289              		.file 48 ".//ChibiOS//os/hal/ports/STM32/LLD/sdc_lld.h"
 290              		.file 49 ".//ChibiOS//os/hal/include/spi.h"
 291              		.file 50 ".//ChibiOS//os/hal/ports/STM32/LLD/SPIv1/spi_lld.h"
 292              		.file 51 ".//ChibiOS//os/hal/include/usb.h"
 293              		.file 52 ".//ChibiOS//os/hal/ports/STM32/LLD/OTGv1/usb_lld.h"
 294              		.file 53 ".//ChibiOS//os/hal/ports/STM32/LLD/OTGv1/stm32_otg.h"
 295              		.file 54 ".//ChibiOS_ext/os/hal/include/../ports/STM32/STM32F4xx/dcmi_lld.h"
 296              		.file 55 ".//ChibiOS//os/rt/include/chthreads.h"
 297              		.file 56 ".//src/leds.h"
 298              		.file 57 ".//src/button.h"
 299              		.file 58 ".//src/camera/dcmi_camera.h"
