ARM GAS  C:\Users\Moi\AppData\Local\Temp\ccFTZZQE.s 			page 1


   1              		.cpu cortex-m4
   2              		.eabi_attribute 27, 1
   3              		.eabi_attribute 28, 1
   4              		.eabi_attribute 20, 1
   5              		.eabi_attribute 21, 1
   6              		.eabi_attribute 23, 3
   7              		.eabi_attribute 24, 1
   8              		.eabi_attribute 25, 1
   9              		.eabi_attribute 26, 1
  10              		.eabi_attribute 30, 2
  11              		.eabi_attribute 34, 1
  12              		.eabi_attribute 18, 4
  13              		.file	"usb_lld.c"
  14              		.text
  15              	.Ltext0:
  16              		.cfi_sections	.debug_frame
  17              		.section	.text.otg_disable_ep.isra.0,"ax",%progbits
  18              		.align	1
  19              		.p2align 4,,15
  20              		.syntax unified
  21              		.thumb
  22              		.thumb_func
  23              		.fpu fpv4-sp-d16
  24              		.type	otg_disable_ep.isra.0, %function
  25              	otg_disable_ep.isra.0:
  26              	.LFB293:
  27              		.file 1 ".//ChibiOS//os/hal/ports/STM32/LLD/OTGv1/usb_lld.c"
  28              		.loc 1 132 0
  29              		.cfi_startproc
  30              		@ args = 0, pretend = 0, frame = 8
  31              		@ frame_needed = 0, uses_anonymous_args = 0
  32 0000 2DE9F041 		push	{r4, r5, r6, r7, r8, lr}
  33              		.cfi_def_cfa_offset 24
  34              		.cfi_offset 4, -24
  35              		.cfi_offset 5, -20
  36              		.cfi_offset 6, -16
  37              		.cfi_offset 7, -12
  38              		.cfi_offset 8, -8
  39              		.cfi_offset 14, -4
  40 0004 DFF88CC0 		ldr	ip, .L20
  41 0008 82B0     		sub	sp, sp, #8
  42              		.cfi_def_cfa_offset 32
  43              		.loc 1 136 0
  44 000a 0025     		movs	r5, #0
  45              		.loc 1 132 0
  46 000c DCF80030 		ldr	r3, [ip]
  47 0010 0193     		str	r3, [sp, #4]
  48              	.LVL0:
  49              		.loc 1 147 0
  50 0012 2E46     		mov	r6, r5
  51              		.loc 1 141 0
  52 0014 4FF0804E 		mov	lr, #1073741824
  53              		.loc 1 149 0
  54 0018 4FF0FF37 		mov	r7, #-1
  55 001c 17E0     		b	.L8
  56              	.LVL1:
  57              	.L2:
ARM GAS  C:\Users\Moi\AppData\Local\Temp\ccFTZZQE.s 			page 2


  58              		.loc 1 147 0
  59 001e C2F80069 		str	r6, [r2, #2304]
  60              	.L4:
  61              		.loc 1 148 0
  62 0022 C418     		adds	r4, r0, r3
  63 0024 C4F81069 		str	r6, [r4, #2320]
  64              		.loc 1 149 0
  65 0028 C4F80879 		str	r7, [r4, #2312]
  66              		.loc 1 155 0
  67 002c D2F8008B 		ldr	r8, [r2, #2816]
  68 0030 B8F1000F 		cmp	r8, #0
  69 0034 19DB     		blt	.L17
  70              		.loc 1 162 0
  71 0036 C2F8006B 		str	r6, [r2, #2816]
  72              	.L7:
  73              		.loc 1 163 0
  74 003a 0344     		add	r3, r3, r0
  75              		.loc 1 136 0
  76 003c 0135     		adds	r5, r5, #1
  77              	.LVL2:
  78              		.loc 1 163 0
  79 003e C3F8106B 		str	r6, [r3, #2832]
  80              		.loc 1 164 0
  81 0042 C3F8087B 		str	r7, [r3, #2824]
  82              		.loc 1 136 0
  83 0046 0B68     		ldr	r3, [r1]
  84 0048 9B68     		ldr	r3, [r3, #8]
  85 004a 9D42     		cmp	r5, r3
  86 004c 14D8     		bhi	.L18
  87              	.LVL3:
  88              	.L8:
  89 004e 6B01     		lsls	r3, r5, #5
  90 0050 C218     		adds	r2, r0, r3
  91              		.loc 1 140 0
  92 0052 D2F80049 		ldr	r4, [r2, #2304]
  93 0056 002C     		cmp	r4, #0
  94 0058 E1DA     		bge	.L2
  95              		.loc 1 141 0
  96 005a C2F800E9 		str	lr, [r2, #2304]
  97              		.loc 1 143 0
  98 005e 9046     		mov	r8, r2
  99              	.L3:
 100 0060 D8F80849 		ldr	r4, [r8, #2312]
 101 0064 A407     		lsls	r4, r4, #30
 102 0066 FBD5     		bpl	.L3
 103 0068 DBE7     		b	.L4
 104              	.L17:
 105              		.loc 1 156 0
 106 006a C2F800EB 		str	lr, [r2, #2816]
 107              	.L6:
 108              		.loc 1 158 0
 109 006e D4F8082B 		ldr	r2, [r4, #2824]
 110 0072 D206     		lsls	r2, r2, #27
 111 0074 FBD5     		bpl	.L6
 112 0076 E0E7     		b	.L7
 113              	.L18:
 114              		.loc 1 166 0
ARM GAS  C:\Users\Moi\AppData\Local\Temp\ccFTZZQE.s 			page 3


 115 0078 4FF00113 		mov	r3, #65537
 116 007c C0F81C38 		str	r3, [r0, #2076]
 117              		.loc 1 167 0
 118 0080 019A     		ldr	r2, [sp, #4]
 119 0082 DCF80030 		ldr	r3, [ip]
 120 0086 9A42     		cmp	r2, r3
 121 0088 02D1     		bne	.L19
 122 008a 02B0     		add	sp, sp, #8
 123              		.cfi_remember_state
 124              		.cfi_def_cfa_offset 24
 125              		@ sp needed
 126 008c BDE8F081 		pop	{r4, r5, r6, r7, r8, pc}
 127              	.LVL4:
 128              	.L19:
 129              		.cfi_restore_state
 130 0090 FFF7FEFF 		bl	__stack_chk_fail
 131              	.LVL5:
 132              	.L21:
 133              		.align	2
 134              	.L20:
 135 0094 00000000 		.word	__stack_chk_guard
 136              		.cfi_endproc
 137              	.LFE293:
 138              		.size	otg_disable_ep.isra.0, .-otg_disable_ep.isra.0
 139              		.section	.text.usb_lld_pump,"ax",%progbits
 140              		.align	1
 141              		.p2align 4,,15
 142              		.global	usb_lld_pump
 143              		.syntax unified
 144              		.thumb
 145              		.thumb_func
 146              		.fpu fpv4-sp-d16
 147              		.type	usb_lld_pump, %function
 148              	usb_lld_pump:
 149              	.LFB292:
 150              		.loc 1 1294 0
 151              		.cfi_startproc
 152              		@ args = 0, pretend = 0, frame = 32
 153              		@ frame_needed = 0, uses_anonymous_args = 0
 154              	.LVL6:
 155 0000 2DE9F04F 		push	{r4, r5, r6, r7, r8, r9, r10, fp, lr}
 156              		.cfi_def_cfa_offset 36
 157              		.cfi_offset 4, -36
 158              		.cfi_offset 5, -32
 159              		.cfi_offset 6, -28
 160              		.cfi_offset 7, -24
 161              		.cfi_offset 8, -20
 162              		.cfi_offset 9, -16
 163              		.cfi_offset 10, -12
 164              		.cfi_offset 11, -8
 165              		.cfi_offset 14, -4
 166              	.LBB421:
 167              	.LBB422:
 168              		.file 2 ".//ChibiOS//os/rt/include/chregistry.h"
 169              		.loc 2 135 0
 170 0004 8C4E     		ldr	r6, .L139
 171              	.LBE422:
ARM GAS  C:\Users\Moi\AppData\Local\Temp\ccFTZZQE.s 			page 4


 172              	.LBE421:
 173              		.loc 1 1294 0
 174 0006 8D4B     		ldr	r3, .L139+4
 175              	.LBB426:
 176              	.LBB423:
 177              		.loc 2 135 0
 178 0008 B269     		ldr	r2, [r6, #24]
 179              	.LBE423:
 180              	.LBE426:
 181              		.loc 1 1294 0
 182 000a 1B68     		ldr	r3, [r3]
 183              	.LBB427:
 184              	.LBB424:
 185              		.loc 2 135 0
 186 000c 8C49     		ldr	r1, .L139+8
 187              	.LBE424:
 188              	.LBE427:
 189              		.loc 1 1296 0
 190 000e D0F85080 		ldr	r8, [r0, #80]
 191              	.LBB428:
 192              	.LBB425:
 193              		.loc 2 135 0
 194 0012 9161     		str	r1, [r2, #24]
 195              	.LBE425:
 196              	.LBE428:
 197              		.loc 1 1294 0
 198 0014 89B0     		sub	sp, sp, #36
 199              		.cfi_def_cfa_offset 72
 200              		.loc 1 1294 0
 201 0016 8246     		mov	r10, r0
 202              	.LVL7:
 203 0018 0793     		str	r3, [sp, #28]
 204              	.LBB429:
 205              	.LBB430:
 206              	.LBB431:
 207              	.LBB432:
 208              	.LBB433:
 209              	.LBB434:
 210              		.file 3 ".//ChibiOS//os/ext/CMSIS/include/core_cmFunc.h"
 211              		.loc 3 546 0
 212 001a 2023     		movs	r3, #32
 213              		.syntax unified
 214              	@ 546 ".//ChibiOS//os/ext/CMSIS/include/core_cmFunc.h" 1
 215 001c 83F31188 		MSR basepri, r3
 216              	@ 0 "" 2
 217              	.LVL8:
 218              		.thumb
 219              		.syntax unified
 220              	.LBE434:
 221              	.LBE433:
 222              	.LBE432:
 223              		.file 4 ".//ChibiOS//os/rt/include/chsys.h"
 224              		.loc 4 349 0
 225 0020 FFF7FEFF 		bl	_stats_start_measure_crit_thd
 226              	.LVL9:
 227              		.loc 4 350 0
 228 0024 FFF7FEFF 		bl	_dbg_check_lock
ARM GAS  C:\Users\Moi\AppData\Local\Temp\ccFTZZQE.s 			page 5


 229              	.LVL10:
 230 0028 0AF16003 		add	r3, r10, #96
 231              	.LBE431:
 232              	.LBE430:
 233              	.LBE429:
 234              	.LBB435:
 235              	.LBB436:
 236              	.LBB437:
 237              	.LBB438:
 238              	.LBB439:
 239              	.LBB440:
 240              	.LBB441:
 241              		.loc 3 546 0
 242 002c 5746     		mov	r7, r10
 243 002e 0593     		str	r3, [sp, #20]
 244 0030 C246     		mov	r10, r8
 245              	.LVL11:
 246              	.L78:
 247              	.LBE441:
 248              	.LBE440:
 249              	.LBE439:
 250              	.LBE438:
 251              	.LBE437:
 252              	.LBE436:
 253              		.loc 1 1307 0
 254 0032 3B78     		ldrb	r3, [r7]	@ zero_extendqisi2
 255 0034 012B     		cmp	r3, #1
 256 0036 05D0     		beq	.L23
 257              		.loc 1 1307 0 is_stmt 0 discriminator 1
 258 0038 FB6D     		ldr	r3, [r7, #92]
 259 003a 63B9     		cbnz	r3, .L24
 260              		.loc 1 1308 0 is_stmt 1
 261 003c DAF81430 		ldr	r3, [r10, #20]
 262 0040 DA06     		lsls	r2, r3, #27
 263 0042 08D4     		bmi	.L24
 264              	.L23:
 265              		.loc 1 1309 0
 266 0044 DAF81830 		ldr	r3, [r10, #24]
 267              	.LBB447:
 268              	.LBB448:
 269              		.file 5 ".//ChibiOS//os/hal/osal/rt/osal.h"
 270              		.loc 5 642 0
 271 0048 0598     		ldr	r0, [sp, #20]
 272              	.LBE448:
 273              	.LBE447:
 274              		.loc 1 1309 0
 275 004a 43F01003 		orr	r3, r3, #16
 276 004e CAF81830 		str	r3, [r10, #24]
 277              	.LBB450:
 278              	.LBB449:
 279              		.loc 5 642 0
 280 0052 FFF7FEFF 		bl	chThdSuspendS
 281              	.LVL12:
 282              	.L24:
 283              	.LBE449:
 284              	.LBE450:
 285              	.LBB451:
ARM GAS  C:\Users\Moi\AppData\Local\Temp\ccFTZZQE.s 			page 6


 286              	.LBB446:
 287              	.LBB445:
 288              		.loc 4 360 0
 289 0056 FFF7FEFF 		bl	_dbg_check_unlock
 290              	.LVL13:
 291              		.loc 4 361 0
 292 005a FFF7FEFF 		bl	_stats_stop_measure_crit_thd
 293              	.LVL14:
 294              		.loc 4 367 0
 295 005e 3368     		ldr	r3, [r6]
 296 0060 B342     		cmp	r3, r6
 297 0062 07D0     		beq	.L25
 298 0064 B269     		ldr	r2, [r6, #24]
 299 0066 9B68     		ldr	r3, [r3, #8]
 300 0068 9268     		ldr	r2, [r2, #8]
 301 006a 9A42     		cmp	r2, r3
 302 006c 02D2     		bcs	.L25
 303 006e 7548     		ldr	r0, .L139+12
 304 0070 FFF7FEFF 		bl	chSysHalt
 305              	.LVL15:
 306              	.L25:
 307              	.LBB444:
 308              	.LBB443:
 309              	.LBB442:
 310              		.loc 3 546 0
 311 0074 0023     		movs	r3, #0
 312              		.syntax unified
 313              	@ 546 ".//ChibiOS//os/ext/CMSIS/include/core_cmFunc.h" 1
 314 0076 83F31188 		MSR basepri, r3
 315              	@ 0 "" 2
 316              	.LVL16:
 317              		.thumb
 318              		.syntax unified
 319              	.LBE442:
 320              	.LBE443:
 321              	.LBE444:
 322              	.LBE445:
 323              	.LBE446:
 324              	.LBE451:
 325              		.loc 1 1315 0
 326 007a 9B46     		mov	fp, r3
 327              	.LVL17:
 328              	.L27:
 329              		.loc 1 1318 0
 330 007c DAF81430 		ldr	r3, [r10, #20]
 331 0080 DB06     		lsls	r3, r3, #27
 332 0082 62D5     		bpl	.L132
 333              	.L49:
 334              	.LVL18:
 335              	.LBB452:
 336              	.LBB453:
 337              		.loc 1 437 0
 338 0084 396D     		ldr	r1, [r7, #80]
 339 0086 0B6A     		ldr	r3, [r1, #32]
 340              	.LVL19:
 341              		.loc 1 438 0
 342 0088 03F4F012 		and	r2, r3, #1966080
ARM GAS  C:\Users\Moi\AppData\Local\Temp\ccFTZZQE.s 			page 7


 343 008c B2F5802F 		cmp	r2, #262144
 344 0090 24D0     		beq	.L28
 345 0092 B2F5402F 		cmp	r2, #786432
 346 0096 F1D1     		bne	.L27
 347              	.LVL20:
 348              		.loc 1 443 0
 349 0098 03F00F02 		and	r2, r3, #15
 350              	.LVL21:
 351              		.loc 1 444 0
 352 009c 07EB8202 		add	r2, r7, r2, lsl #2
 353              	.LVL22:
 354              		.loc 1 442 0
 355 00a0 C3F30A13 		ubfx	r3, r3, #4, #11
 356              	.LVL23:
 357              		.loc 1 444 0
 358 00a4 D268     		ldr	r2, [r2, #12]
 359              	.LBB454:
 360              	.LBB455:
 361              		.loc 1 356 0
 362 00a6 0333     		adds	r3, r3, #3
 363              		.loc 1 358 0
 364 00a8 9B08     		lsrs	r3, r3, #2
 365              	.LBE455:
 366              	.LBE454:
 367              		.loc 1 444 0
 368 00aa 146A     		ldr	r4, [r2, #32]
 369              	.LVL24:
 370              	.LBB460:
 371              	.LBB459:
 372              		.loc 1 358 0
 373 00ac E6D0     		beq	.L27
 374 00ae 01F58051 		add	r1, r1, #4096
 375              	.LVL25:
 376              		.loc 1 357 0
 377 00b2 0222     		movs	r2, #2
 378              	.LVL26:
 379              	.LBB456:
 380              		.loc 1 359 0
 381 00b4 0D68     		ldr	r5, [r1]
 382              	.LVL27:
 383 00b6 581E     		subs	r0, r3, #1
 384              		.loc 1 360 0
 385 00b8 4AB1     		cbz	r2, .L133
 386              	.L32:
 387              		.loc 1 365 0
 388 00ba 0346     		mov	r3, r0
 389              		.loc 1 363 0
 390 00bc 44F8045B 		str	r5, [r4], #4
 391              	.LVL28:
 392              		.loc 1 365 0
 393 00c0 013A     		subs	r2, r2, #1
 394              	.LVL29:
 395              	.LBE456:
 396              		.loc 1 358 0
 397 00c2 002B     		cmp	r3, #0
 398 00c4 DAD0     		beq	.L27
 399              	.LVL30:
ARM GAS  C:\Users\Moi\AppData\Local\Temp\ccFTZZQE.s 			page 8


 400              	.L131:
 401              	.LBB457:
 402              		.loc 1 359 0
 403 00c6 0D68     		ldr	r5, [r1]
 404              	.LVL31:
 405 00c8 581E     		subs	r0, r3, #1
 406              		.loc 1 360 0
 407 00ca 002A     		cmp	r2, #0
 408 00cc F5D1     		bne	.L32
 409              	.L133:
 410              	.LVL32:
 411              	.LBE457:
 412              		.loc 1 358 0
 413 00ce 0028     		cmp	r0, #0
 414 00d0 D4D0     		beq	.L27
 415 00d2 023B     		subs	r3, r3, #2
 416              	.LBB458:
 417              		.loc 1 359 0
 418 00d4 0868     		ldr	r0, [r1]
 419              	.LVL33:
 420              	.LBE458:
 421              		.loc 1 358 0
 422 00d6 002B     		cmp	r3, #0
 423 00d8 F5D1     		bne	.L131
 424 00da CFE7     		b	.L27
 425              	.LVL34:
 426              	.L28:
 427              	.LBE459:
 428              	.LBE460:
 429              		.loc 1 449 0
 430 00dc 03F00F05 		and	r5, r3, #15
 431 00e0 07EB8505 		add	r5, r7, r5, lsl #2
 432              		.loc 1 448 0
 433 00e4 C3F30A14 		ubfx	r4, r3, #4, #11
 434              	.LVL35:
 435              		.loc 1 450 0
 436 00e8 EB68     		ldr	r3, [r5, #12]
 437              	.LVL36:
 438 00ea D3F818C0 		ldr	ip, [r3, #24]
 439 00ee 9CF80030 		ldrb	r3, [ip]	@ zero_extendqisi2
 440 00f2 DCF80C80 		ldr	r8, [ip, #12]
 441 00f6 002B     		cmp	r3, #0
 442 00f8 48D1     		bne	.L134
 443              	.LVL37:
 444              	.LBB461:
 445              	.LBB462:
 446              		.loc 1 357 0
 447 00fa DCE90132 		ldrd	r3, r2, [ip, #4]
 448 00fe 0333     		adds	r3, r3, #3
 449 0100 9A1A     		subs	r2, r3, r2
 450              		.loc 1 356 0
 451 0102 E31C     		adds	r3, r4, #3
 452              	.LVL38:
 453              		.loc 1 358 0
 454 0104 9B08     		lsrs	r3, r3, #2
 455              		.loc 1 357 0
 456 0106 4FEA9202 		lsr	r2, r2, #2
ARM GAS  C:\Users\Moi\AppData\Local\Temp\ccFTZZQE.s 			page 9


 457              	.LVL39:
 458              		.loc 1 358 0
 459 010a 11D0     		beq	.L44
 460 010c 01F58051 		add	r1, r1, #4096
 461              	.LVL40:
 462 0110 8C46     		mov	ip, r1
 463              	.LVL41:
 464              	.L48:
 465              	.LBB463:
 466              		.loc 1 359 0
 467 0112 DCF80010 		ldr	r1, [ip]
 468              	.LVL42:
 469 0116 581E     		subs	r0, r3, #1
 470              		.loc 1 360 0
 471 0118 82B3     		cbz	r2, .L135
 472              		.loc 1 365 0
 473 011a 0346     		mov	r3, r0
 474              	.LVL43:
 475              		.loc 1 363 0
 476 011c 48F8041B 		str	r1, [r8], #4
 477              	.LVL44:
 478              		.loc 1 365 0
 479 0120 013A     		subs	r2, r2, #1
 480              	.LVL45:
 481              	.LBE463:
 482              		.loc 1 358 0
 483 0122 002B     		cmp	r3, #0
 484 0124 F5D1     		bne	.L48
 485              	.LVL46:
 486              	.L130:
 487 0126 EB68     		ldr	r3, [r5, #12]
 488 0128 D3F818C0 		ldr	ip, [r3, #24]
 489              	.LVL47:
 490 012c DCF80C80 		ldr	r8, [ip, #12]
 491              	.LVL48:
 492              	.L44:
 493              	.LBE462:
 494              	.LBE461:
 495              		.loc 1 462 0
 496 0130 08EB0400 		add	r0, r8, r4
 497 0134 CCF80C00 		str	r0, [ip, #12]
 498              	.L43:
 499              		.loc 1 464 0
 500 0138 EB68     		ldr	r3, [r5, #12]
 501 013a 9A69     		ldr	r2, [r3, #24]
 502 013c 9368     		ldr	r3, [r2, #8]
 503 013e 2344     		add	r3, r3, r4
 504 0140 9360     		str	r3, [r2, #8]
 505              	.LBE453:
 506              	.LBE452:
 507              		.loc 1 1318 0
 508 0142 DAF81430 		ldr	r3, [r10, #20]
 509 0146 DB06     		lsls	r3, r3, #27
 510 0148 9CD4     		bmi	.L49
 511              	.LVL49:
 512              	.L132:
 513              		.loc 1 1322 0
ARM GAS  C:\Users\Moi\AppData\Local\Temp\ccFTZZQE.s 			page 10


 514 014a 4FF00108 		mov	r8, #1
 515              		.loc 1 1323 0
 516 014e FB6D     		ldr	r3, [r7, #92]
 517              		.loc 1 1322 0
 518 0150 08FA0BF8 		lsl	r8, r8, fp
 519              	.LVL50:
 520              		.loc 1 1323 0
 521 0154 18EA030F 		tst	r8, r3
 522 0158 76D1     		bne	.L125
 523 015a 0BF10103 		add	r3, fp, #1
 524 015e 0193     		str	r3, [sp, #4]
 525              	.LVL51:
 526              	.L50:
 527              		.loc 1 1315 0 discriminator 2
 528 0160 7B6D     		ldr	r3, [r7, #84]
 529 0162 9DF804B0 		ldrb	fp, [sp, #4]	@ zero_extendqisi2
 530              	.LVL52:
 531 0166 9B68     		ldr	r3, [r3, #8]
 532 0168 9B45     		cmp	fp, r3
 533 016a 87D9     		bls	.L27
 534              	.LVL53:
 535              	.LBB488:
 536              	.LBB489:
 537              	.LBB490:
 538              	.LBB491:
 539              	.LBB492:
 540              	.LBB493:
 541              		.loc 3 546 0
 542 016c 2023     		movs	r3, #32
 543              		.syntax unified
 544              	@ 546 ".//ChibiOS//os/ext/CMSIS/include/core_cmFunc.h" 1
 545 016e 83F31188 		MSR basepri, r3
 546              	@ 0 "" 2
 547              	.LVL54:
 548              		.thumb
 549              		.syntax unified
 550              	.LBE493:
 551              	.LBE492:
 552              	.LBE491:
 553              		.loc 4 349 0
 554 0172 FFF7FEFF 		bl	_stats_start_measure_crit_thd
 555              	.LVL55:
 556              		.loc 4 350 0
 557 0176 FFF7FEFF 		bl	_dbg_check_lock
 558              	.LVL56:
 559 017a 5AE7     		b	.L78
 560              	.LVL57:
 561              	.L135:
 562              	.LBE490:
 563              	.LBE489:
 564              	.LBE488:
 565              	.LBB494:
 566              	.LBB487:
 567              	.LBB466:
 568              	.LBB465:
 569              		.loc 1 358 0
 570 017c 0028     		cmp	r0, #0
ARM GAS  C:\Users\Moi\AppData\Local\Temp\ccFTZZQE.s 			page 11


 571 017e D2D0     		beq	.L130
 572 0180 023B     		subs	r3, r3, #2
 573              	.LVL58:
 574              	.LBB464:
 575              		.loc 1 359 0
 576 0182 DCF80010 		ldr	r1, [ip]
 577              	.LVL59:
 578              	.LBE464:
 579              		.loc 1 358 0
 580 0186 002B     		cmp	r3, #0
 581 0188 C3D1     		bne	.L48
 582 018a CCE7     		b	.L130
 583              	.LVL60:
 584              	.L134:
 585              	.LBE465:
 586              	.LBE466:
 587              	.LBB467:
 588              	.LBB468:
 589              		.loc 1 386 0
 590 018c 74B3     		cbz	r4, .L36
 591 018e D8F81420 		ldr	r2, [r8, #20]
 592 0192 01F58051 		add	r1, r1, #4096
 593              	.LVL61:
 594 0196 A446     		mov	ip, r4
 595              	.LVL62:
 596              	.L37:
 597              	.LBB469:
 598              		.loc 1 390 0
 599 0198 BCF1030F 		cmp	ip, #3
 600 019c 0AD9     		bls	.L38
 601              	.LVL63:
 602              	.L136:
 603              	.LBB470:
 604              		.loc 1 396 0
 605 019e D8F81030 		ldr	r3, [r8, #16]
 606 01a2 9342     		cmp	r3, r2
 607 01a4 06D8     		bhi	.L38
 608              		.loc 1 397 0
 609 01a6 D8F80C20 		ldr	r2, [r8, #12]
 610 01aa C8F81420 		str	r2, [r8, #20]
 611              	.LVL64:
 612              	.LBE470:
 613              		.loc 1 390 0
 614 01ae BCF1030F 		cmp	ip, #3
 615 01b2 F4D8     		bhi	.L136
 616              	.LVL65:
 617              	.L38:
 618              		.loc 1 408 0
 619 01b4 D1F800E0 		ldr	lr, [r1]
 620              	.LVL66:
 621 01b8 0023     		movs	r3, #0
 622              	.LVL67:
 623              	.L41:
 624              		.loc 1 411 0
 625 01ba 2EFA03F0 		lsr	r0, lr, r3
 626 01be 02F10109 		add	r9, r2, #1
 627 01c2 C8F81490 		str	r9, [r8, #20]
ARM GAS  C:\Users\Moi\AppData\Local\Temp\ccFTZZQE.s 			page 12


 628 01c6 1070     		strb	r0, [r2]
 629              		.loc 1 412 0
 630 01c8 D8E90420 		ldrd	r2, r0, [r8, #16]
 631 01cc 9042     		cmp	r0, r2
 632              		.loc 1 413 0
 633 01ce 24BF     		itt	cs
 634 01d0 D8F80C20 		ldrcs	r2, [r8, #12]
 635 01d4 C8F81420 		strcs	r2, [r8, #20]
 636              		.loc 1 410 0
 637 01d8 BCF1010C 		subs	ip, ip, #1
 638              	.LVL68:
 639 01dc 03F10803 		add	r3, r3, #8
 640 01e0 04D0     		beq	.L36
 641 01e2 202B     		cmp	r3, #32
 642 01e4 D8F81420 		ldr	r2, [r8, #20]
 643 01e8 E7D1     		bne	.L41
 644 01ea D5E7     		b	.L37
 645              	.LVL69:
 646              	.L36:
 647              	.LBE469:
 648              	.LBB471:
 649              	.LBB472:
 650              	.LBB473:
 651              	.LBB474:
 652              	.LBB475:
 653              	.LBB476:
 654              		.loc 3 546 0
 655 01ec 2023     		movs	r3, #32
 656              		.syntax unified
 657              	@ 546 ".//ChibiOS//os/ext/CMSIS/include/core_cmFunc.h" 1
 658 01ee 83F31188 		MSR basepri, r3
 659              	@ 0 "" 2
 660              	.LVL70:
 661              		.thumb
 662              		.syntax unified
 663              	.LBE476:
 664              	.LBE475:
 665              	.LBE474:
 666              		.loc 4 349 0
 667 01f2 FFF7FEFF 		bl	_stats_start_measure_crit_thd
 668              	.LVL71:
 669              		.loc 4 350 0
 670 01f6 FFF7FEFF 		bl	_dbg_check_lock
 671              	.LVL72:
 672              	.LBE473:
 673              	.LBE472:
 674              	.LBE471:
 675              		.loc 1 421 0
 676 01fa D8F80830 		ldr	r3, [r8, #8]
 677 01fe 2344     		add	r3, r3, r4
 678 0200 C8F80830 		str	r3, [r8, #8]
 679              	.LVL73:
 680              	.LBB477:
 681              	.LBB478:
 682              		.loc 5 764 0
 683 0204 4046     		mov	r0, r8
 684 0206 0021     		movs	r1, #0
ARM GAS  C:\Users\Moi\AppData\Local\Temp\ccFTZZQE.s 			page 13


 685 0208 FFF7FEFF 		bl	chThdDequeueAllI
 686              	.LVL74:
 687              	.LBE478:
 688              	.LBE477:
 689              	.LBB479:
 690              	.LBB480:
 691              		.loc 5 554 0
 692 020c FFF7FEFF 		bl	chSchRescheduleS
 693              	.LVL75:
 694              	.LBE480:
 695              	.LBE479:
 696              	.LBB481:
 697              	.LBB482:
 698              	.LBB483:
 699              		.loc 4 360 0
 700 0210 FFF7FEFF 		bl	_dbg_check_unlock
 701              	.LVL76:
 702              		.loc 4 361 0
 703 0214 FFF7FEFF 		bl	_stats_stop_measure_crit_thd
 704              	.LVL77:
 705              		.loc 4 367 0
 706 0218 3368     		ldr	r3, [r6]
 707 021a B342     		cmp	r3, r6
 708 021c 07D0     		beq	.L42
 709 021e B269     		ldr	r2, [r6, #24]
 710 0220 9B68     		ldr	r3, [r3, #8]
 711 0222 9268     		ldr	r2, [r2, #8]
 712 0224 9A42     		cmp	r2, r3
 713 0226 02D2     		bcs	.L42
 714 0228 0648     		ldr	r0, .L139+12
 715 022a FFF7FEFF 		bl	chSysHalt
 716              	.LVL78:
 717              	.L42:
 718              	.LBB484:
 719              	.LBB485:
 720              	.LBB486:
 721              		.loc 3 546 0
 722 022e 0023     		movs	r3, #0
 723              		.syntax unified
 724              	@ 546 ".//ChibiOS//os/ext/CMSIS/include/core_cmFunc.h" 1
 725 0230 83F31188 		MSR basepri, r3
 726              	@ 0 "" 2
 727              	.LVL79:
 728              		.thumb
 729              		.syntax unified
 730 0234 80E7     		b	.L43
 731              	.L140:
 732 0236 00BF     		.align	2
 733              	.L139:
 734 0238 00000000 		.word	ch
 735 023c 00000000 		.word	__stack_chk_guard
 736 0240 00000000 		.word	.LC0
 737 0244 00000000 		.word	.LANCHOR0
 738              	.LVL80:
 739              	.L125:
 740              	.LBE486:
 741              	.LBE485:
ARM GAS  C:\Users\Moi\AppData\Local\Temp\ccFTZZQE.s 			page 14


 742              	.LBE484:
 743              	.LBE483:
 744              	.LBE482:
 745              	.LBE481:
 746              	.LBE468:
 747              	.LBE467:
 748              	.LBE487:
 749              	.LBE494:
 750              	.LBB495:
 751              	.LBB496:
 752              	.LBB497:
 753              	.LBB498:
 754              	.LBB499:
 755              	.LBB500:
 756              	.LBB501:
 757 0248 2023     		movs	r3, #32
 758              		.syntax unified
 759              	@ 546 ".//ChibiOS//os/ext/CMSIS/include/core_cmFunc.h" 1
 760 024a 83F31188 		MSR basepri, r3
 761              	@ 0 "" 2
 762              	.LVL81:
 763              		.thumb
 764              		.syntax unified
 765              	.LBE501:
 766              	.LBE500:
 767              	.LBE499:
 768              		.loc 4 349 0
 769 024e FFF7FEFF 		bl	_stats_start_measure_crit_thd
 770              	.LVL82:
 771              		.loc 4 350 0
 772 0252 FFF7FEFF 		bl	_dbg_check_lock
 773              	.LVL83:
 774              	.LBE498:
 775              	.LBE497:
 776              	.LBE496:
 777              		.loc 1 1334 0
 778 0256 DAF80830 		ldr	r3, [r10, #8]
 779 025a 23F00103 		bic	r3, r3, #1
 780 025e CAF80830 		str	r3, [r10, #8]
 781              		.loc 1 1335 0
 782 0262 FB6D     		ldr	r3, [r7, #92]
 783 0264 23EA0803 		bic	r3, r3, r8
 784 0268 FB65     		str	r3, [r7, #92]
 785              	.LBB502:
 786              	.LBB503:
 787              	.LBB504:
 788              		.loc 4 360 0
 789 026a FFF7FEFF 		bl	_dbg_check_unlock
 790              	.LVL84:
 791              		.loc 4 361 0
 792 026e FFF7FEFF 		bl	_stats_stop_measure_crit_thd
 793              	.LVL85:
 794              		.loc 4 367 0
 795 0272 3368     		ldr	r3, [r6]
 796 0274 B342     		cmp	r3, r6
 797 0276 07D0     		beq	.L51
 798 0278 B269     		ldr	r2, [r6, #24]
ARM GAS  C:\Users\Moi\AppData\Local\Temp\ccFTZZQE.s 			page 15


 799 027a 9B68     		ldr	r3, [r3, #8]
 800 027c 9268     		ldr	r2, [r2, #8]
 801 027e 9A42     		cmp	r2, r3
 802 0280 02D2     		bcs	.L51
 803 0282 8C48     		ldr	r0, .L141
 804 0284 FFF7FEFF 		bl	chSysHalt
 805              	.LVL86:
 806              	.L51:
 807              	.LBB505:
 808              	.LBB506:
 809              	.LBB507:
 810              		.loc 3 546 0
 811 0288 0023     		movs	r3, #0
 812              		.syntax unified
 813              	@ 546 ".//ChibiOS//os/ext/CMSIS/include/core_cmFunc.h" 1
 814 028a 83F31188 		MSR basepri, r3
 815              	@ 0 "" 2
 816              	.LVL87:
 817              		.thumb
 818              		.syntax unified
 819 028e 07EB8B09 		add	r9, r7, fp, lsl #2
 820              	.LBE507:
 821              	.LBE506:
 822              	.LBE505:
 823              	.LBE504:
 824              	.LBE503:
 825              	.LBE502:
 826              	.LBB508:
 827              	.LBB509:
 828              		.loc 1 488 0
 829 0292 D9F80C10 		ldr	r1, [r9, #12]
 830 0296 4C69     		ldr	r4, [r1, #20]
 831 0298 D4E9013C 		ldrd	r3, ip, [r4, #4]
 832 029c 9C45     		cmp	ip, r3
 833 029e 80F0E780 		bcs	.L137
 834              		.loc 1 498 0
 835 02a2 386D     		ldr	r0, [r7, #80]
 836              		.loc 1 493 0
 837 02a4 0D8A     		ldrh	r5, [r1, #16]
 838              		.loc 1 498 0
 839 02a6 4FEA4B12 		lsl	r2, fp, #5
 840 02aa 0292     		str	r2, [sp, #8]
 841 02ac 8218     		adds	r2, r0, r2
 842              		.loc 1 492 0
 843 02ae A3EB0C03 		sub	r3, r3, ip
 844              	.LVL88:
 845              		.loc 1 498 0
 846 02b2 D2F81829 		ldr	r2, [r2, #2328]
 847 02b6 9D42     		cmp	r5, r3
 848 02b8 28BF     		it	cs
 849 02ba 1D46     		movcs	r5, r3
 850              	.LVL89:
 851 02bc 93B2     		uxth	r3, r2
 852 02be B5EB830F 		cmp	r5, r3, lsl #2
 853 02c2 00F2E680 		bhi	.L54
 854 02c6 0BF10103 		add	r3, fp, #1
 855 02ca CDE903A8 		strd	r10, r8, [sp, #12]
ARM GAS  C:\Users\Moi\AppData\Local\Temp\ccFTZZQE.s 			page 16


 856 02ce 0193     		str	r3, [sp, #4]
 857 02d0 DDF808A0 		ldr	r10, [sp, #8]
 858 02d4 1B03     		lsls	r3, r3, #12
 859 02d6 9846     		mov	r8, r3
 860              	.LVL90:
 861              	.L55:
 862              		.loc 1 505 0
 863 02d8 2378     		ldrb	r3, [r4]	@ zero_extendqisi2
 864 02da E468     		ldr	r4, [r4, #12]
 865 02dc 00EB080C 		add	ip, r0, r8
 866 02e0 002B     		cmp	r3, #0
 867 02e2 00F0AD80 		beq	.L58
 868              	.LVL91:
 869              	.LBB510:
 870              	.LBB511:
 871              		.loc 1 274 0
 872 02e6 35B3     		cbz	r5, .L59
 873 02e8 2A46     		mov	r2, r5
 874 02ea 0295     		str	r5, [sp, #8]
 875              	.LVL92:
 876              	.L69:
 877              	.LBB512:
 878              		.loc 1 278 0
 879 02ec 5FEA920B 		lsrs	fp, r2, #2
 880              	.LVL93:
 881 02f0 D4F810E0 		ldr	lr, [r4, #16]
 882 02f4 A369     		ldr	r3, [r4, #24]
 883 02f6 00F08980 		beq	.L60
 884              	.LVL94:
 885              	.LBB513:
 886              		.loc 1 280 0
 887 02fa BEEB0301 		subs	r1, lr, r3
 888 02fe 48BF     		it	mi
 889 0300 0331     		addmi	r1, r1, #3
 890 0302 8810     		asrs	r0, r1, #2
 891              		.loc 1 282 0
 892 0304 5845     		cmp	r0, fp
 893 0306 28BF     		it	cs
 894 0308 5846     		movcs	r0, fp
 895              	.LVL95:
 896 030a 8100     		lsls	r1, r0, #2
 897 030c 521A     		subs	r2, r2, r1
 898              	.LVL96:
 899              	.LBB514:
 900              	.LBB515:
 901              		.loc 1 233 0
 902 030e 0028     		cmp	r0, #0
 903 0310 00F0A880 		beq	.L82
 904 0314 1944     		add	r1, r1, r3
 905              	.LVL97:
 906              	.L63:
 907              		.loc 1 236 0
 908 0316 53F8040B 		ldr	r0, [r3], #4
 909              	.LVL98:
 910 031a CCF80000 		str	r0, [ip]
 911              	.LVL99:
 912              		.loc 1 233 0
ARM GAS  C:\Users\Moi\AppData\Local\Temp\ccFTZZQE.s 			page 17


 913 031e 8B42     		cmp	r3, r1
 914 0320 F9D1     		bne	.L63
 915 0322 D4F810E0 		ldr	lr, [r4, #16]
 916              	.LVL100:
 917              	.L62:
 918              	.LBE515:
 919              	.LBE514:
 920              		.loc 1 283 0
 921 0326 A161     		str	r1, [r4, #24]
 922              		.loc 1 284 0
 923 0328 7145     		cmp	r1, lr
 924 032a 6CD3     		bcc	.L64
 925              		.loc 1 285 0
 926 032c E368     		ldr	r3, [r4, #12]
 927 032e A361     		str	r3, [r4, #24]
 928              	.LBE513:
 929              	.LBE512:
 930              		.loc 1 274 0
 931 0330 002A     		cmp	r2, #0
 932 0332 DBD1     		bne	.L69
 933              	.L128:
 934 0334 029D     		ldr	r5, [sp, #8]
 935              	.LVL101:
 936              	.L59:
 937              	.LBB519:
 938              	.LBB520:
 939              	.LBB521:
 940              	.LBB522:
 941              	.LBB523:
 942              	.LBB524:
 943              		.loc 3 546 0
 944 0336 2023     		movs	r3, #32
 945              		.syntax unified
 946              	@ 546 ".//ChibiOS//os/ext/CMSIS/include/core_cmFunc.h" 1
 947 0338 83F31188 		MSR basepri, r3
 948              	@ 0 "" 2
 949              	.LVL102:
 950              		.thumb
 951              		.syntax unified
 952              	.LBE524:
 953              	.LBE523:
 954              	.LBE522:
 955              		.loc 4 349 0
 956 033c FFF7FEFF 		bl	_stats_start_measure_crit_thd
 957              	.LVL103:
 958              		.loc 4 350 0
 959 0340 FFF7FEFF 		bl	_dbg_check_lock
 960              	.LVL104:
 961              	.LBE521:
 962              	.LBE520:
 963              	.LBE519:
 964              		.loc 1 310 0
 965 0344 A368     		ldr	r3, [r4, #8]
 966 0346 2B44     		add	r3, r3, r5
 967 0348 A360     		str	r3, [r4, #8]
 968              	.LVL105:
 969              	.LBB525:
ARM GAS  C:\Users\Moi\AppData\Local\Temp\ccFTZZQE.s 			page 18


 970              	.LBB526:
 971              		.loc 5 764 0
 972 034a 2046     		mov	r0, r4
 973 034c 0021     		movs	r1, #0
 974 034e FFF7FEFF 		bl	chThdDequeueAllI
 975              	.LVL106:
 976              	.LBE526:
 977              	.LBE525:
 978              	.LBB527:
 979              	.LBB528:
 980              		.loc 5 554 0
 981 0352 FFF7FEFF 		bl	chSchRescheduleS
 982              	.LVL107:
 983              	.LBE528:
 984              	.LBE527:
 985              	.LBB529:
 986              	.LBB530:
 987              	.LBB531:
 988              		.loc 4 360 0
 989 0356 FFF7FEFF 		bl	_dbg_check_unlock
 990              	.LVL108:
 991              		.loc 4 361 0
 992 035a FFF7FEFF 		bl	_stats_stop_measure_crit_thd
 993              	.LVL109:
 994              		.loc 4 367 0
 995 035e 3368     		ldr	r3, [r6]
 996 0360 B342     		cmp	r3, r6
 997 0362 07D0     		beq	.L70
 998 0364 B269     		ldr	r2, [r6, #24]
 999 0366 9B68     		ldr	r3, [r3, #8]
 1000 0368 9268     		ldr	r2, [r2, #8]
 1001 036a 9A42     		cmp	r2, r3
 1002 036c 02D2     		bcs	.L70
 1003 036e 5148     		ldr	r0, .L141
 1004 0370 FFF7FEFF 		bl	chSysHalt
 1005              	.LVL110:
 1006              	.L70:
 1007              	.LBB532:
 1008              	.LBB533:
 1009              	.LBB534:
 1010              		.loc 3 546 0
 1011 0374 0023     		movs	r3, #0
 1012              		.syntax unified
 1013              	@ 546 ".//ChibiOS//os/ext/CMSIS/include/core_cmFunc.h" 1
 1014 0376 83F31188 		MSR basepri, r3
 1015              	@ 0 "" 2
 1016              	.LVL111:
 1017              		.thumb
 1018              		.syntax unified
 1019              	.L71:
 1020              	.LBE534:
 1021              	.LBE533:
 1022              	.LBE532:
 1023              	.LBE531:
 1024              	.LBE530:
 1025              	.LBE529:
 1026              	.LBE511:
ARM GAS  C:\Users\Moi\AppData\Local\Temp\ccFTZZQE.s 			page 19


 1027              	.LBE510:
 1028              		.loc 1 521 0
 1029 037a D9F80C30 		ldr	r3, [r9, #12]
 1030 037e 5A69     		ldr	r2, [r3, #20]
 1031 0380 9368     		ldr	r3, [r2, #8]
 1032 0382 1D44     		add	r5, r5, r3
 1033 0384 9560     		str	r5, [r2, #8]
 1034              		.loc 1 488 0
 1035 0386 D9F80C10 		ldr	r1, [r9, #12]
 1036 038a 4C69     		ldr	r4, [r1, #20]
 1037 038c D4E9013C 		ldrd	r3, ip, [r4, #4]
 1038 0390 9C45     		cmp	ip, r3
 1039 0392 69D2     		bcs	.L138
 1040              		.loc 1 498 0
 1041 0394 386D     		ldr	r0, [r7, #80]
 1042              		.loc 1 493 0
 1043 0396 0D8A     		ldrh	r5, [r1, #16]
 1044              		.loc 1 498 0
 1045 0398 00EB0A02 		add	r2, r0, r10
 1046              		.loc 1 492 0
 1047 039c A3EB0C03 		sub	r3, r3, ip
 1048              	.LVL112:
 1049              		.loc 1 498 0
 1050 03a0 D2F81829 		ldr	r2, [r2, #2328]
 1051 03a4 9D42     		cmp	r5, r3
 1052 03a6 28BF     		it	cs
 1053 03a8 1D46     		movcs	r5, r3
 1054              	.LVL113:
 1055 03aa 93B2     		uxth	r3, r2
 1056 03ac B5EB830F 		cmp	r5, r3, lsl #2
 1057 03b0 92D9     		bls	.L55
 1058 03b2 DDE903A8 		ldrd	r10, r8, [sp, #12]
 1059              		.loc 1 499 0
 1060 03b6 0024     		movs	r4, #0
 1061              	.LVL114:
 1062              	.L57:
 1063              	.LBE509:
 1064              	.LBE508:
 1065              	.LBB546:
 1066              	.LBB547:
 1067              	.LBB548:
 1068              	.LBB549:
 1069              	.LBB550:
 1070              	.LBB551:
 1071              		.loc 3 546 0
 1072 03b8 2023     		movs	r3, #32
 1073              		.syntax unified
 1074              	@ 546 ".//ChibiOS//os/ext/CMSIS/include/core_cmFunc.h" 1
 1075 03ba 83F31188 		MSR basepri, r3
 1076              	@ 0 "" 2
 1077              	.LVL115:
 1078              		.thumb
 1079              		.syntax unified
 1080              	.LBE551:
 1081              	.LBE550:
 1082              	.LBE549:
 1083              		.loc 4 349 0
ARM GAS  C:\Users\Moi\AppData\Local\Temp\ccFTZZQE.s 			page 20


 1084 03be FFF7FEFF 		bl	_stats_start_measure_crit_thd
 1085              	.LVL116:
 1086              		.loc 4 350 0
 1087 03c2 FFF7FEFF 		bl	_dbg_check_lock
 1088              	.LVL117:
 1089              	.LBE548:
 1090              	.LBE547:
 1091              	.LBE546:
 1092              		.loc 1 1341 0
 1093 03c6 DAF80830 		ldr	r3, [r10, #8]
 1094 03ca 43F00103 		orr	r3, r3, #1
 1095 03ce CAF80830 		str	r3, [r10, #8]
 1096              		.loc 1 1342 0
 1097 03d2 2CB9     		cbnz	r4, .L53
 1098              	.LVL118:
 1099              	.L56:
 1100              		.loc 1 1343 0
 1101 03d4 DAF83438 		ldr	r3, [r10, #2100]
 1102 03d8 43EA0803 		orr	r3, r3, r8
 1103 03dc CAF83438 		str	r3, [r10, #2100]
 1104              	.L53:
 1105              	.LBB562:
 1106              	.LBB563:
 1107              	.LBB564:
 1108              		.loc 4 360 0
 1109 03e0 FFF7FEFF 		bl	_dbg_check_unlock
 1110              	.LVL119:
 1111              		.loc 4 361 0
 1112 03e4 FFF7FEFF 		bl	_stats_stop_measure_crit_thd
 1113              	.LVL120:
 1114              		.loc 4 367 0
 1115 03e8 3368     		ldr	r3, [r6]
 1116 03ea B342     		cmp	r3, r6
 1117 03ec 07D0     		beq	.L75
 1118 03ee B269     		ldr	r2, [r6, #24]
 1119 03f0 9B68     		ldr	r3, [r3, #8]
 1120 03f2 9268     		ldr	r2, [r2, #8]
 1121 03f4 9A42     		cmp	r2, r3
 1122 03f6 02D2     		bcs	.L75
 1123 03f8 2E48     		ldr	r0, .L141
 1124 03fa FFF7FEFF 		bl	chSysHalt
 1125              	.LVL121:
 1126              	.L75:
 1127              	.LBB565:
 1128              	.LBB566:
 1129              	.LBB567:
 1130              		.loc 3 546 0
 1131 03fe 0023     		movs	r3, #0
 1132              		.syntax unified
 1133              	@ 546 ".//ChibiOS//os/ext/CMSIS/include/core_cmFunc.h" 1
 1134 0400 83F31188 		MSR basepri, r3
 1135              	@ 0 "" 2
 1136              	.LVL122:
 1137              		.thumb
 1138              		.syntax unified
 1139 0404 ACE6     		b	.L50
 1140              	.LVL123:
ARM GAS  C:\Users\Moi\AppData\Local\Temp\ccFTZZQE.s 			page 21


 1141              	.L64:
 1142              	.LBE567:
 1143              	.LBE566:
 1144              	.LBE565:
 1145              	.LBE564:
 1146              	.LBE563:
 1147              	.LBE562:
 1148              	.LBB568:
 1149              	.LBB545:
 1150              	.LBB539:
 1151              	.LBB537:
 1152              	.LBB535:
 1153              		.loc 1 292 0
 1154 0406 002A     		cmp	r2, #0
 1155 0408 94D0     		beq	.L128
 1156 040a 0B46     		mov	r3, r1
 1157              	.L60:
 1158 040c 0021     		movs	r1, #0
 1159 040e 0846     		mov	r0, r1
 1160              	.L68:
 1161              	.LVL124:
 1162              		.loc 1 299 0
 1163 0410 5D1C     		adds	r5, r3, #1
 1164 0412 A561     		str	r5, [r4, #24]
 1165 0414 1B78     		ldrb	r3, [r3]	@ zero_extendqisi2
 1166              		.loc 1 300 0
 1167 0416 7545     		cmp	r5, lr
 1168              		.loc 1 299 0
 1169 0418 03FA01F3 		lsl	r3, r3, r1
 1170 041c 40EA0300 		orr	r0, r0, r3
 1171              	.LVL125:
 1172              		.loc 1 301 0
 1173 0420 24BF     		itt	cs
 1174 0422 E368     		ldrcs	r3, [r4, #12]
 1175 0424 A361     		strcs	r3, [r4, #24]
 1176              		.loc 1 298 0
 1177 0426 013A     		subs	r2, r2, #1
 1178              	.LVL126:
 1179 0428 04D0     		beq	.L67
 1180 042a 1829     		cmp	r1, #24
 1181 042c 02D0     		beq	.L67
 1182 042e 0831     		adds	r1, r1, #8
 1183 0430 A369     		ldr	r3, [r4, #24]
 1184 0432 EDE7     		b	.L68
 1185              	.L67:
 1186              		.loc 1 305 0
 1187 0434 CCF80000 		str	r0, [ip]
 1188              	.LBE535:
 1189              		.loc 1 274 0
 1190 0438 002A     		cmp	r2, #0
 1191 043a 7FF457AF 		bne	.L69
 1192 043e 79E7     		b	.L128
 1193              	.LVL127:
 1194              	.L58:
 1195              	.LBE537:
 1196              	.LBE539:
 1197              	.LBB540:
ARM GAS  C:\Users\Moi\AppData\Local\Temp\ccFTZZQE.s 			page 22


 1198              	.LBB541:
 1199              		.loc 1 256 0
 1200 0440 EB1C     		adds	r3, r5, #3
 1201              	.LVL128:
 1202              	.LBB542:
 1203              	.LBB543:
 1204              		.loc 1 233 0
 1205 0442 9B08     		lsrs	r3, r3, #2
 1206              	.LVL129:
 1207 0444 09D0     		beq	.L72
 1208 0446 04EB8303 		add	r3, r4, r3, lsl #2
 1209              	.LVL130:
 1210              	.L73:
 1211              		.loc 1 236 0
 1212 044a 54F8042B 		ldr	r2, [r4], #4
 1213              	.LVL131:
 1214 044e CCF80020 		str	r2, [ip]
 1215              	.LVL132:
 1216              		.loc 1 233 0
 1217 0452 9C42     		cmp	r4, r3
 1218 0454 F9D1     		bne	.L73
 1219 0456 D9F80C10 		ldr	r1, [r9, #12]
 1220              	.LVL133:
 1221              	.L72:
 1222              	.LBE543:
 1223              	.LBE542:
 1224              	.LBE541:
 1225              	.LBE540:
 1226              		.loc 1 516 0
 1227 045a 4A69     		ldr	r2, [r1, #20]
 1228 045c D368     		ldr	r3, [r2, #12]
 1229 045e 2B44     		add	r3, r3, r5
 1230 0460 D360     		str	r3, [r2, #12]
 1231 0462 8AE7     		b	.L71
 1232              	.LVL134:
 1233              	.L82:
 1234              	.LBB544:
 1235              	.LBB538:
 1236              	.LBB536:
 1237              	.LBB518:
 1238              	.LBB517:
 1239              	.LBB516:
 1240              		.loc 1 233 0
 1241 0464 1946     		mov	r1, r3
 1242 0466 5EE7     		b	.L62
 1243              	.LVL135:
 1244              	.L138:
 1245 0468 DDE903A8 		ldrd	r10, r8, [sp, #12]
 1246              	.LBE516:
 1247              	.LBE517:
 1248              	.LBE518:
 1249              	.LBE536:
 1250              	.LBE538:
 1251              	.LBE544:
 1252              		.loc 1 489 0
 1253 046c 0124     		movs	r4, #1
 1254 046e A3E7     		b	.L57
ARM GAS  C:\Users\Moi\AppData\Local\Temp\ccFTZZQE.s 			page 23


 1255              	.LVL136:
 1256              	.L137:
 1257              	.LBE545:
 1258              	.LBE568:
 1259              	.LBB569:
 1260              	.LBB560:
 1261              	.LBB558:
 1262              	.LBB556:
 1263              	.LBB554:
 1264              	.LBB552:
 1265              		.loc 3 546 0
 1266 0470 2023     		movs	r3, #32
 1267              		.syntax unified
 1268              	@ 546 ".//ChibiOS//os/ext/CMSIS/include/core_cmFunc.h" 1
 1269 0472 83F31188 		MSR basepri, r3
 1270              	@ 0 "" 2
 1271              	.LVL137:
 1272              		.thumb
 1273              		.syntax unified
 1274              	.LBE552:
 1275              	.LBE554:
 1276              	.LBE556:
 1277              		.loc 4 349 0
 1278 0476 FFF7FEFF 		bl	_stats_start_measure_crit_thd
 1279              	.LVL138:
 1280              		.loc 4 350 0
 1281 047a FFF7FEFF 		bl	_dbg_check_lock
 1282              	.LVL139:
 1283              	.LBE558:
 1284              	.LBE560:
 1285              	.LBE569:
 1286              		.loc 1 1341 0
 1287 047e DAF80830 		ldr	r3, [r10, #8]
 1288 0482 0BF10102 		add	r2, fp, #1
 1289 0486 43F00103 		orr	r3, r3, #1
 1290 048a 0192     		str	r2, [sp, #4]
 1291 048c CAF80830 		str	r3, [r10, #8]
 1292 0490 A6E7     		b	.L53
 1293              	.LVL140:
 1294              	.L54:
 1295              	.LBB570:
 1296              	.LBB561:
 1297              	.LBB559:
 1298              	.LBB557:
 1299              	.LBB555:
 1300              	.LBB553:
 1301              		.loc 3 546 0
 1302 0492 2023     		movs	r3, #32
 1303              		.syntax unified
 1304              	@ 546 ".//ChibiOS//os/ext/CMSIS/include/core_cmFunc.h" 1
 1305 0494 83F31188 		MSR basepri, r3
 1306              	@ 0 "" 2
 1307              	.LVL141:
 1308              		.thumb
 1309              		.syntax unified
 1310              	.LBE553:
 1311              	.LBE555:
ARM GAS  C:\Users\Moi\AppData\Local\Temp\ccFTZZQE.s 			page 24


 1312              	.LBE557:
 1313              		.loc 4 349 0
 1314 0498 FFF7FEFF 		bl	_stats_start_measure_crit_thd
 1315              	.LVL142:
 1316              		.loc 4 350 0
 1317 049c FFF7FEFF 		bl	_dbg_check_lock
 1318              	.LVL143:
 1319              	.LBE559:
 1320              	.LBE561:
 1321              	.LBE570:
 1322              		.loc 1 1341 0
 1323 04a0 DAF80830 		ldr	r3, [r10, #8]
 1324 04a4 0BF10102 		add	r2, fp, #1
 1325 04a8 43F00103 		orr	r3, r3, #1
 1326 04ac 0192     		str	r2, [sp, #4]
 1327 04ae CAF80830 		str	r3, [r10, #8]
 1328 04b2 8FE7     		b	.L56
 1329              	.L142:
 1330              		.align	2
 1331              	.L141:
 1332 04b4 00000000 		.word	.LANCHOR0
 1333              	.LBE495:
 1334              	.LBE435:
 1335              		.cfi_endproc
 1336              	.LFE292:
 1337              		.size	usb_lld_pump, .-usb_lld_pump
 1338              		.section	.text.usb_lld_init,"ax",%progbits
 1339              		.align	1
 1340              		.p2align 4,,15
 1341              		.global	usb_lld_init
 1342              		.syntax unified
 1343              		.thumb
 1344              		.thumb_func
 1345              		.fpu fpv4-sp-d16
 1346              		.type	usb_lld_init, %function
 1347              	usb_lld_init:
 1348              	.LFB274:
 1349              		.loc 1 744 0
 1350              		.cfi_startproc
 1351              		@ args = 0, pretend = 0, frame = 8
 1352              		@ frame_needed = 0, uses_anonymous_args = 0
 1353 0000 30B5     		push	{r4, r5, lr}
 1354              		.cfi_def_cfa_offset 12
 1355              		.cfi_offset 4, -12
 1356              		.cfi_offset 5, -8
 1357              		.cfi_offset 14, -4
 1358              		.loc 1 748 0
 1359 0002 134C     		ldr	r4, .L148
 1360              		.loc 1 744 0
 1361 0004 134D     		ldr	r5, .L148+4
 1362 0006 83B0     		sub	sp, sp, #12
 1363              		.cfi_def_cfa_offset 24
 1364              		.loc 1 744 0
 1365 0008 2B68     		ldr	r3, [r5]
 1366 000a 0193     		str	r3, [sp, #4]
 1367              		.loc 1 748 0
 1368 000c 2046     		mov	r0, r4
ARM GAS  C:\Users\Moi\AppData\Local\Temp\ccFTZZQE.s 			page 25


 1369 000e FFF7FEFF 		bl	usbObjectInit
 1370              	.LVL144:
 1371              		.loc 1 750 0
 1372 0012 4FF0A043 		mov	r3, #1342177280
 1373              		.loc 1 751 0
 1374 0016 104A     		ldr	r2, .L148+8
 1375              		.loc 1 750 0
 1376 0018 2365     		str	r3, [r4, #80]
 1377              		.loc 1 751 0
 1378 001a 6265     		str	r2, [r4, #84]
 1379              		.loc 1 749 0
 1380 001c 0023     		movs	r3, #0
 1381              	.LBB571:
 1382              		.loc 1 760 0
 1383 001e FF22     		movs	r2, #255
 1384 0020 04F1D001 		add	r1, r4, #208
 1385 0024 04F16800 		add	r0, r4, #104
 1386              	.LBE571:
 1387              		.loc 1 754 0
 1388 0028 C4E91833 		strd	r3, r3, [r4, #96]
 1389              	.LVL145:
 1390              	.LBB572:
 1391              		.loc 1 760 0
 1392 002c FFF7FEFF 		bl	_thread_memfill
 1393              	.LVL146:
 1394              		.loc 1 763 0
 1395 0030 019A     		ldr	r2, [sp, #4]
 1396 0032 2B68     		ldr	r3, [r5]
 1397 0034 9A42     		cmp	r2, r3
 1398 0036 09D1     		bne	.L147
 1399 0038 5522     		movs	r2, #85
 1400 003a 04F51871 		add	r1, r4, #608
 1401 003e 04F1D000 		add	r0, r4, #208
 1402              	.LBE572:
 1403              		.loc 1 794 0
 1404 0042 03B0     		add	sp, sp, #12
 1405              		.cfi_remember_state
 1406              		.cfi_def_cfa_offset 12
 1407              		@ sp needed
 1408 0044 BDE83040 		pop	{r4, r5, lr}
 1409              		.cfi_restore 14
 1410              		.cfi_restore 5
 1411              		.cfi_restore 4
 1412              		.cfi_def_cfa_offset 0
 1413              	.LBB573:
 1414              		.loc 1 763 0
 1415 0048 FFF7FEBF 		b	_thread_memfill
 1416              	.LVL147:
 1417              	.L147:
 1418              		.cfi_restore_state
 1419 004c FFF7FEFF 		bl	__stack_chk_fail
 1420              	.LVL148:
 1421              	.L149:
 1422              		.align	2
 1423              	.L148:
 1424 0050 00000000 		.word	.LANCHOR1
 1425 0054 00000000 		.word	__stack_chk_guard
ARM GAS  C:\Users\Moi\AppData\Local\Temp\ccFTZZQE.s 			page 26


 1426 0058 00000000 		.word	.LANCHOR2
 1427              	.LBE573:
 1428              		.cfi_endproc
 1429              	.LFE274:
 1430              		.size	usb_lld_init, .-usb_lld_init
 1431              		.section	.text.usb_lld_start,"ax",%progbits
 1432              		.align	1
 1433              		.p2align 4,,15
 1434              		.global	usb_lld_start
 1435              		.syntax unified
 1436              		.thumb
 1437              		.thumb_func
 1438              		.fpu fpv4-sp-d16
 1439              		.type	usb_lld_start, %function
 1440              	usb_lld_start:
 1441              	.LFB275:
 1442              		.loc 1 806 0
 1443              		.cfi_startproc
 1444              		@ args = 0, pretend = 0, frame = 8
 1445              		@ frame_needed = 0, uses_anonymous_args = 0
 1446              	.LVL149:
 1447 0000 F0B5     		push	{r4, r5, r6, r7, lr}
 1448              		.cfi_def_cfa_offset 20
 1449              		.cfi_offset 4, -20
 1450              		.cfi_offset 5, -16
 1451              		.cfi_offset 6, -12
 1452              		.cfi_offset 7, -8
 1453              		.cfi_offset 14, -4
 1454 0002 3C4F     		ldr	r7, .L171
 1455              		.loc 1 809 0
 1456 0004 0378     		ldrb	r3, [r0]	@ zero_extendqisi2
 1457              		.loc 1 806 0
 1458 0006 3A68     		ldr	r2, [r7]
 1459 0008 85B0     		sub	sp, sp, #20
 1460              		.cfi_def_cfa_offset 40
 1461              		.loc 1 809 0
 1462 000a 012B     		cmp	r3, #1
 1463              		.loc 1 806 0
 1464 000c 0392     		str	r2, [sp, #12]
 1465              	.LVL150:
 1466              		.loc 1 809 0
 1467 000e 05D0     		beq	.L166
 1468              	.LVL151:
 1469              	.L150:
 1470              		.loc 1 893 0
 1471 0010 039A     		ldr	r2, [sp, #12]
 1472 0012 3B68     		ldr	r3, [r7]
 1473 0014 9A42     		cmp	r2, r3
 1474 0016 6AD1     		bne	.L167
 1475 0018 05B0     		add	sp, sp, #20
 1476              		.cfi_remember_state
 1477              		.cfi_def_cfa_offset 20
 1478              		@ sp needed
 1479 001a F0BD     		pop	{r4, r5, r6, r7, pc}
 1480              	.LVL152:
 1481              	.L166:
 1482              		.cfi_restore_state
ARM GAS  C:\Users\Moi\AppData\Local\Temp\ccFTZZQE.s 			page 27


 1483              		.loc 1 812 0
 1484 001c 364B     		ldr	r3, .L171+4
 1485              		.loc 1 807 0
 1486 001e 066D     		ldr	r6, [r0, #80]
 1487              		.loc 1 812 0
 1488 0020 9842     		cmp	r0, r3
 1489 0022 0546     		mov	r5, r0
 1490 0024 3BD0     		beq	.L168
 1491              	.LVL153:
 1492              	.L152:
 1493              		.loc 1 836 0
 1494 0026 0023     		movs	r3, #0
 1495              		.loc 1 841 0
 1496 0028 344A     		ldr	r2, .L171+8
 1497              		.loc 1 836 0
 1498 002a EB65     		str	r3, [r5, #92]
 1499              		.loc 1 844 0
 1500 002c 3449     		ldr	r1, .L171+12
 1501              		.loc 1 841 0
 1502 002e F260     		str	r2, [r6, #12]
 1503              		.loc 1 854 0
 1504 0030 4FF45022 		mov	r2, #851968
 1505              		.loc 1 844 0
 1506 0034 C6F80018 		str	r1, [r6, #2048]
 1507              		.loc 1 847 0
 1508 0038 C6F8003E 		str	r3, [r6, #3584]
 1509              		.loc 1 854 0
 1510 003c B263     		str	r2, [r6, #56]
 1511 003e 2C6D     		ldr	r4, [r5, #80]
 1512              	.LVL154:
 1513              	.LBB582:
 1514              	.LBB583:
 1515              	.LBB584:
 1516              	.LBB585:
 1517              		.loc 5 527 0
 1518 0040 2020     		movs	r0, #32
 1519 0042 FFF7FEFF 		bl	chSysPolledDelayX
 1520              	.LVL155:
 1521              	.LBE585:
 1522              	.LBE584:
 1523              		.loc 1 121 0
 1524 0046 0123     		movs	r3, #1
 1525 0048 2361     		str	r3, [r4, #16]
 1526              	.L153:
 1527              		.loc 1 122 0
 1528 004a 2369     		ldr	r3, [r4, #16]
 1529 004c DB07     		lsls	r3, r3, #31
 1530 004e FCD4     		bmi	.L153
 1531              	.LVL156:
 1532              	.LBB586:
 1533              	.LBB587:
 1534              		.loc 5 527 0
 1535 0050 0C20     		movs	r0, #12
 1536 0052 FFF7FEFF 		bl	chSysPolledDelayX
 1537              	.LVL157:
 1538              	.L154:
 1539              	.LBE587:
ARM GAS  C:\Users\Moi\AppData\Local\Temp\ccFTZZQE.s 			page 28


 1540              	.LBE586:
 1541              		.loc 1 128 0
 1542 0056 2369     		ldr	r3, [r4, #16]
 1543 0058 002B     		cmp	r3, #0
 1544 005a FCDA     		bge	.L154
 1545              	.LVL158:
 1546              	.LBE583:
 1547              	.LBE582:
 1548              		.loc 1 861 0
 1549 005c 0024     		movs	r4, #0
 1550 005e B460     		str	r4, [r6, #8]
 1551              		.loc 1 864 0
 1552 0060 286D     		ldr	r0, [r5, #80]
 1553 0062 05F15401 		add	r1, r5, #84
 1554 0066 FFF7FEFF 		bl	otg_disable_ep.isra.0
 1555              	.LVL159:
 1556              		.loc 1 868 0
 1557 006a C6F81048 		str	r4, [r6, #2064]
 1558              		.loc 1 869 0
 1559 006e C6F81448 		str	r4, [r6, #2068]
 1560              		.loc 1 870 0
 1561 0072 C6F81C48 		str	r4, [r6, #2076]
 1562              		.loc 1 871 0
 1563 0076 6B68     		ldr	r3, [r5, #4]
 1564 0078 DB68     		ldr	r3, [r3, #12]
 1565 007a 63B1     		cbz	r3, .L169
 1566              		.loc 1 875 0
 1567 007c 43F20803 		movw	r3, #12296
 1568 0080 B361     		str	r3, [r6, #24]
 1569              	.L156:
 1570              		.loc 1 877 0
 1571 0082 4FF0FF33 		mov	r3, #-1
 1572 0086 7361     		str	r3, [r6, #20]
 1573              		.loc 1 881 0
 1574 0088 6B6E     		ldr	r3, [r5, #100]
 1575 008a C3B1     		cbz	r3, .L170
 1576              	.L157:
 1577              		.loc 1 891 0
 1578 008c B368     		ldr	r3, [r6, #8]
 1579 008e 43F00103 		orr	r3, r3, #1
 1580 0092 B360     		str	r3, [r6, #8]
 1581              		.loc 1 893 0
 1582 0094 BCE7     		b	.L150
 1583              	.L169:
 1584              		.loc 1 872 0
 1585 0096 4FF44053 		mov	r3, #12288
 1586 009a B361     		str	r3, [r6, #24]
 1587 009c F1E7     		b	.L156
 1588              	.LVL160:
 1589              	.L168:
 1590              		.loc 1 814 0
 1591 009e 194B     		ldr	r3, .L171+16
 1592 00a0 5A6B     		ldr	r2, [r3, #52]
 1593 00a2 42F08002 		orr	r2, r2, #128
 1594 00a6 5A63     		str	r2, [r3, #52]
 1595              	.LVL161:
 1596              		.loc 1 815 0
ARM GAS  C:\Users\Moi\AppData\Local\Temp\ccFTZZQE.s 			page 29


 1597 00a8 5A69     		ldr	r2, [r3, #20]
 1598 00aa 0021     		movs	r1, #0
 1599 00ac 42F08002 		orr	r2, r2, #128
 1600 00b0 5A61     		str	r2, [r3, #20]
 1601              		.loc 1 818 0
 1602 00b2 4320     		movs	r0, #67
 1603              	.LVL162:
 1604              		.loc 1 815 0
 1605 00b4 5961     		str	r1, [r3, #20]
 1606              		.loc 1 818 0
 1607 00b6 0E21     		movs	r1, #14
 1608 00b8 FFF7FEFF 		bl	nvicEnableVector
 1609              	.LVL163:
 1610 00bc B3E7     		b	.L152
 1611              	.LVL164:
 1612              	.L170:
 1613              		.loc 1 882 0
 1614 00be 124B     		ldr	r3, .L171+20
 1615 00c0 0095     		str	r5, [sp]
 1616 00c2 4A22     		movs	r2, #74
 1617 00c4 4FF4FC71 		mov	r1, #504
 1618 00c8 05F16800 		add	r0, r5, #104
 1619 00cc FFF7FEFF 		bl	chThdCreateI
 1620              	.LVL165:
 1621 00d0 6866     		str	r0, [r5, #100]
 1622              	.LVL166:
 1623              	.LBB588:
 1624              	.LBB589:
 1625              		.file 6 ".//ChibiOS//os/rt/include/chthreads.h"
 1626              		.loc 6 247 0
 1627 00d2 90F82030 		ldrb	r3, [r0, #32]	@ zero_extendqisi2
 1628 00d6 022B     		cmp	r3, #2
 1629              	.LBE589:
 1630              	.LBE588:
 1631              		.loc 1 882 0
 1632 00d8 0446     		mov	r4, r0
 1633              	.LBB591:
 1634              	.LBB590:
 1635              		.loc 6 247 0
 1636 00da 02D0     		beq	.L158
 1637 00dc 0B48     		ldr	r0, .L171+24
 1638              	.LVL167:
 1639 00de FFF7FEFF 		bl	chSysHalt
 1640              	.LVL168:
 1641              	.L158:
 1642              		.loc 6 249 0
 1643 00e2 2046     		mov	r0, r4
 1644 00e4 FFF7FEFF 		bl	chSchReadyI
 1645              	.LVL169:
 1646              	.LBE590:
 1647              	.LBE591:
 1648              		.loc 1 886 0
 1649 00e8 FFF7FEFF 		bl	chSchRescheduleS
 1650              	.LVL170:
 1651 00ec CEE7     		b	.L157
 1652              	.LVL171:
 1653              	.L167:
ARM GAS  C:\Users\Moi\AppData\Local\Temp\ccFTZZQE.s 			page 30


 1654              		.loc 1 893 0
 1655 00ee FFF7FEFF 		bl	__stack_chk_fail
 1656              	.LVL172:
 1657              	.L172:
 1658 00f2 00BF     		.align	2
 1659              	.L171:
 1660 00f4 00000000 		.word	__stack_chk_guard
 1661 00f8 00000000 		.word	.LANCHOR1
 1662 00fc 40140040 		.word	1073747008
 1663 0100 03002002 		.word	35651587
 1664 0104 00380240 		.word	1073887232
 1665 0108 00000000 		.word	usb_lld_pump
 1666 010c 00000000 		.word	.LANCHOR3
 1667              		.cfi_endproc
 1668              	.LFE275:
 1669              		.size	usb_lld_start, .-usb_lld_start
 1670              		.section	.text.usb_lld_stop,"ax",%progbits
 1671              		.align	1
 1672              		.p2align 4,,15
 1673              		.global	usb_lld_stop
 1674              		.syntax unified
 1675              		.thumb
 1676              		.thumb_func
 1677              		.fpu fpv4-sp-d16
 1678              		.type	usb_lld_stop, %function
 1679              	usb_lld_stop:
 1680              	.LFB276:
 1681              		.loc 1 902 0
 1682              		.cfi_startproc
 1683              		@ args = 0, pretend = 0, frame = 8
 1684              		@ frame_needed = 0, uses_anonymous_args = 0
 1685              	.LVL173:
 1686 0000 70B5     		push	{r4, r5, r6, lr}
 1687              		.cfi_def_cfa_offset 16
 1688              		.cfi_offset 4, -16
 1689              		.cfi_offset 5, -12
 1690              		.cfi_offset 6, -8
 1691              		.cfi_offset 14, -4
 1692 0002 144D     		ldr	r5, .L181
 1693              		.loc 1 906 0
 1694 0004 0378     		ldrb	r3, [r0]	@ zero_extendqisi2
 1695              		.loc 1 902 0
 1696 0006 2A68     		ldr	r2, [r5]
 1697 0008 82B0     		sub	sp, sp, #8
 1698              		.cfi_def_cfa_offset 24
 1699              		.loc 1 906 0
 1700 000a 012B     		cmp	r3, #1
 1701              		.loc 1 902 0
 1702 000c 0192     		str	r2, [sp, #4]
 1703              	.LVL174:
 1704              		.loc 1 906 0
 1705 000e 0FD0     		beq	.L173
 1706              		.loc 1 903 0
 1707 0010 066D     		ldr	r6, [r0, #80]
 1708 0012 0446     		mov	r4, r0
 1709              		.loc 1 910 0
 1710 0014 00F15401 		add	r1, r0, #84
ARM GAS  C:\Users\Moi\AppData\Local\Temp\ccFTZZQE.s 			page 31


 1711 0018 3046     		mov	r0, r6
 1712              	.LVL175:
 1713 001a FFF7FEFF 		bl	otg_disable_ep.isra.0
 1714              	.LVL176:
 1715              		.loc 1 919 0
 1716 001e 0E4A     		ldr	r2, .L181+4
 1717              		.loc 1 912 0
 1718 0020 0023     		movs	r3, #0
 1719              		.loc 1 919 0
 1720 0022 9442     		cmp	r4, r2
 1721              		.loc 1 912 0
 1722 0024 E365     		str	r3, [r4, #92]
 1723              		.loc 1 914 0
 1724 0026 C6F81C38 		str	r3, [r6, #2076]
 1725              		.loc 1 915 0
 1726 002a B360     		str	r3, [r6, #8]
 1727              		.loc 1 916 0
 1728 002c B363     		str	r3, [r6, #56]
 1729              		.loc 1 919 0
 1730 002e 05D0     		beq	.L179
 1731              	.LVL177:
 1732              	.L173:
 1733              		.loc 1 932 0
 1734 0030 019A     		ldr	r2, [sp, #4]
 1735 0032 2B68     		ldr	r3, [r5]
 1736 0034 9A42     		cmp	r2, r3
 1737 0036 0AD1     		bne	.L180
 1738 0038 02B0     		add	sp, sp, #8
 1739              		.cfi_remember_state
 1740              		.cfi_def_cfa_offset 16
 1741              		@ sp needed
 1742 003a 70BD     		pop	{r4, r5, r6, pc}
 1743              	.LVL178:
 1744              	.L179:
 1745              		.cfi_restore_state
 1746              		.loc 1 920 0
 1747 003c 4320     		movs	r0, #67
 1748 003e FFF7FEFF 		bl	nvicDisableVector
 1749              	.LVL179:
 1750              		.loc 1 921 0
 1751 0042 064A     		ldr	r2, .L181+8
 1752 0044 536B     		ldr	r3, [r2, #52]
 1753 0046 23F08003 		bic	r3, r3, #128
 1754 004a 5363     		str	r3, [r2, #52]
 1755              		.loc 1 932 0
 1756 004c F0E7     		b	.L173
 1757              	.LVL180:
 1758              	.L180:
 1759 004e FFF7FEFF 		bl	__stack_chk_fail
 1760              	.LVL181:
 1761              	.L182:
 1762 0052 00BF     		.align	2
 1763              	.L181:
 1764 0054 00000000 		.word	__stack_chk_guard
 1765 0058 00000000 		.word	.LANCHOR1
 1766 005c 00380240 		.word	1073887232
 1767              		.cfi_endproc
ARM GAS  C:\Users\Moi\AppData\Local\Temp\ccFTZZQE.s 			page 32


 1768              	.LFE276:
 1769              		.size	usb_lld_stop, .-usb_lld_stop
 1770              		.section	.text.usb_lld_reset,"ax",%progbits
 1771              		.align	1
 1772              		.p2align 4,,15
 1773              		.global	usb_lld_reset
 1774              		.syntax unified
 1775              		.thumb
 1776              		.thumb_func
 1777              		.fpu fpv4-sp-d16
 1778              		.type	usb_lld_reset, %function
 1779              	usb_lld_reset:
 1780              	.LFB277:
 1781              		.loc 1 941 0
 1782              		.cfi_startproc
 1783              		@ args = 0, pretend = 0, frame = 8
 1784              		@ frame_needed = 0, uses_anonymous_args = 0
 1785              	.LVL182:
 1786 0000 F0B5     		push	{r4, r5, r6, r7, lr}
 1787              		.cfi_def_cfa_offset 20
 1788              		.cfi_offset 4, -20
 1789              		.cfi_offset 5, -16
 1790              		.cfi_offset 6, -12
 1791              		.cfi_offset 7, -8
 1792              		.cfi_offset 14, -4
 1793 0002 354E     		ldr	r6, .L194
 1794              		.loc 1 943 0
 1795 0004 056D     		ldr	r5, [r0, #80]
 1796              	.LVL183:
 1797              		.loc 1 941 0
 1798 0006 3368     		ldr	r3, [r6]
 1799 0008 83B0     		sub	sp, sp, #12
 1800              		.cfi_def_cfa_offset 32
 1801              		.loc 1 941 0
 1802 000a 0746     		mov	r7, r0
 1803              	.LVL184:
 1804 000c 0193     		str	r3, [sp, #4]
 1805              	.LBB592:
 1806              	.LBB593:
 1807              		.loc 1 182 0
 1808 000e 2023     		movs	r3, #32
 1809 0010 2B61     		str	r3, [r5, #16]
 1810              	.L184:
 1811              		.loc 1 183 0
 1812 0012 2C69     		ldr	r4, [r5, #16]
 1813 0014 14F02004 		ands	r4, r4, #32
 1814 0018 FBD1     		bne	.L184
 1815              	.LVL185:
 1816              	.LBB594:
 1817              	.LBB595:
 1818              		.loc 5 527 0
 1819 001a 0C20     		movs	r0, #12
 1820              	.LVL186:
 1821 001c FFF7FEFF 		bl	chSysPolledDelayX
 1822              	.LVL187:
 1823              	.LBE595:
 1824              	.LBE594:
ARM GAS  C:\Users\Moi\AppData\Local\Temp\ccFTZZQE.s 			page 33


 1825              	.LBE593:
 1826              	.LBE592:
 1827              		.loc 1 949 0
 1828 0020 2346     		mov	r3, r4
 1829              		.loc 1 950 0
 1830 0022 4FF00060 		mov	r0, #134217728
 1831              		.loc 1 952 0
 1832 0026 FF21     		movs	r1, #255
 1833              	.LVL188:
 1834              	.L185:
 1835 0028 05EB4312 		add	r2, r5, r3, lsl #5
 1836              		.loc 1 949 0 discriminator 3
 1837 002c 0133     		adds	r3, r3, #1
 1838              	.LVL189:
 1839              		.loc 1 950 0 discriminator 3
 1840 002e C2F80009 		str	r0, [r2, #2304]
 1841              		.loc 1 951 0 discriminator 3
 1842 0032 C2F8000B 		str	r0, [r2, #2816]
 1843              		.loc 1 952 0 discriminator 3
 1844 0036 C2F80819 		str	r1, [r2, #2312]
 1845              		.loc 1 953 0 discriminator 3
 1846 003a C2F8081B 		str	r1, [r2, #2824]
 1847              		.loc 1 949 0 discriminator 3
 1848 003e 7A6D     		ldr	r2, [r7, #84]
 1849 0040 9268     		ldr	r2, [r2, #8]
 1850 0042 9A42     		cmp	r2, r3
 1851 0044 F0D2     		bcs	.L185
 1852              		.loc 1 957 0
 1853 0046 4FF0FF32 		mov	r2, #-1
 1854              		.loc 1 958 0
 1855 004a 4FF00113 		mov	r3, #65537
 1856              	.LVL190:
 1857              		.loc 1 957 0
 1858 004e C5F81828 		str	r2, [r5, #2072]
 1859              		.loc 1 958 0
 1860 0052 C5F81C38 		str	r3, [r5, #2076]
 1861 0056 7B6D     		ldr	r3, [r7, #84]
 1862              	.LVL191:
 1863              	.LBB596:
 1864              	.LBB597:
 1865              		.loc 1 198 0
 1866 0058 1A68     		ldr	r2, [r3]
 1867 005a BA65     		str	r2, [r7, #88]
 1868              	.LBE597:
 1869              	.LBE596:
 1870              		.loc 1 964 0
 1871 005c 1B68     		ldr	r3, [r3]
 1872 005e 6B62     		str	r3, [r5, #36]
 1873 0060 3A6D     		ldr	r2, [r7, #80]
 1874              	.LVL192:
 1875              	.LBB598:
 1876              	.LBB599:
 1877              		.loc 1 172 0
 1878 0062 1023     		movs	r3, #16
 1879 0064 1361     		str	r3, [r2, #16]
 1880              	.L186:
 1881              		.loc 1 173 0
ARM GAS  C:\Users\Moi\AppData\Local\Temp\ccFTZZQE.s 			page 34


 1882 0066 1469     		ldr	r4, [r2, #16]
 1883 0068 14F01004 		ands	r4, r4, #16
 1884 006c FBD1     		bne	.L186
 1885              	.LVL193:
 1886              	.LBB600:
 1887              	.LBB601:
 1888              		.loc 5 527 0
 1889 006e 0C20     		movs	r0, #12
 1890 0070 FFF7FEFF 		bl	chSysPolledDelayX
 1891              	.LVL194:
 1892              	.LBE601:
 1893              	.LBE600:
 1894              	.LBE599:
 1895              	.LBE598:
 1896              		.loc 1 968 0
 1897 0074 D5F80038 		ldr	r3, [r5, #2048]
 1898              		.loc 1 976 0
 1899 0078 184A     		ldr	r2, .L194+4
 1900              		.loc 1 968 0
 1901 007a 23F4FE63 		bic	r3, r3, #2032
 1902 007e C5F80038 		str	r3, [r5, #2048]
 1903              		.loc 1 971 0
 1904 0082 AB69     		ldr	r3, [r5, #24]
 1905 0084 43F44023 		orr	r3, r3, #786432
 1906 0088 43F01003 		orr	r3, r3, #16
 1907 008c AB61     		str	r3, [r5, #24]
 1908              		.loc 1 972 0
 1909 008e 0923     		movs	r3, #9
 1910 0090 C5F81038 		str	r3, [r5, #2064]
 1911              		.loc 1 973 0
 1912 0094 C5F81438 		str	r3, [r5, #2068]
 1913              		.loc 1 978 0
 1914 0098 114B     		ldr	r3, .L194+8
 1915              		.loc 1 976 0
 1916 009a FA60     		str	r2, [r7, #12]
 1917              		.loc 1 977 0
 1918 009c C5F8104B 		str	r4, [r5, #2832]
 1919              		.loc 1 978 0
 1920 00a0 C5F8003B 		str	r3, [r5, #2816]
 1921              		.loc 1 980 0
 1922 00a4 C5F81049 		str	r4, [r5, #2320]
 1923              		.loc 1 981 0
 1924 00a8 C5F80039 		str	r3, [r5, #2304]
 1925 00ac D7E91524 		ldrd	r2, r4, [r7, #84]
 1926              	.LVL195:
 1927              	.LBB602:
 1928              	.LBB603:
 1929              		.loc 1 213 0
 1930 00b0 04F11003 		add	r3, r4, #16
 1931 00b4 BB65     		str	r3, [r7, #88]
 1932              		.loc 1 214 0
 1933 00b6 5268     		ldr	r2, [r2, #4]
 1934 00b8 9342     		cmp	r3, r2
 1935 00ba 02D9     		bls	.L187
 1936 00bc 0948     		ldr	r0, .L194+12
 1937 00be FFF7FEFF 		bl	chSysHalt
 1938              	.LVL196:
ARM GAS  C:\Users\Moi\AppData\Local\Temp\ccFTZZQE.s 			page 35


 1939              	.L187:
 1940              	.LBE603:
 1941              	.LBE602:
 1942              		.loc 1 983 0
 1943 00c2 44F48014 		orr	r4, r4, #1048576
 1944 00c6 AC62     		str	r4, [r5, #40]
 1945              		.loc 1 986 0
 1946 00c8 019A     		ldr	r2, [sp, #4]
 1947 00ca 3368     		ldr	r3, [r6]
 1948 00cc 9A42     		cmp	r2, r3
 1949 00ce 01D1     		bne	.L193
 1950 00d0 03B0     		add	sp, sp, #12
 1951              		.cfi_remember_state
 1952              		.cfi_def_cfa_offset 20
 1953              		@ sp needed
 1954 00d2 F0BD     		pop	{r4, r5, r6, r7, pc}
 1955              	.LVL197:
 1956              	.L193:
 1957              		.cfi_restore_state
 1958 00d4 FFF7FEFF 		bl	__stack_chk_fail
 1959              	.LVL198:
 1960              	.L195:
 1961              		.align	2
 1962              	.L194:
 1963 00d8 00000000 		.word	__stack_chk_guard
 1964 00dc 00000000 		.word	.LANCHOR4
 1965 00e0 40800010 		.word	268468288
 1966 00e4 00000000 		.word	.LANCHOR5
 1967              		.cfi_endproc
 1968              	.LFE277:
 1969              		.size	usb_lld_reset, .-usb_lld_reset
 1970              		.section	.text.usb_lld_set_address,"ax",%progbits
 1971              		.align	1
 1972              		.p2align 4,,15
 1973              		.global	usb_lld_set_address
 1974              		.syntax unified
 1975              		.thumb
 1976              		.thumb_func
 1977              		.fpu fpv4-sp-d16
 1978              		.type	usb_lld_set_address, %function
 1979              	usb_lld_set_address:
 1980              	.LFB278:
 1981              		.loc 1 995 0
 1982              		.cfi_startproc
 1983              		@ args = 0, pretend = 0, frame = 8
 1984              		@ frame_needed = 0, uses_anonymous_args = 0
 1985              	.LVL199:
 1986 0000 00B5     		push	{lr}
 1987              		.cfi_def_cfa_offset 4
 1988              		.cfi_offset 14, -4
 1989 0002 0C4A     		ldr	r2, .L200
 1990              		.loc 1 996 0
 1991 0004 016D     		ldr	r1, [r0, #80]
 1992              	.LVL200:
 1993              		.loc 1 995 0
 1994 0006 1368     		ldr	r3, [r2]
 1995              		.loc 1 998 0
ARM GAS  C:\Users\Moi\AppData\Local\Temp\ccFTZZQE.s 			page 36


 1996 0008 90F84E00 		ldrb	r0, [r0, #78]	@ zero_extendqisi2
 1997              	.LVL201:
 1998              		.loc 1 995 0
 1999 000c 83B0     		sub	sp, sp, #12
 2000              		.cfi_def_cfa_offset 16
 2001              		.loc 1 995 0
 2002 000e 0193     		str	r3, [sp, #4]
 2003              		.loc 1 998 0
 2004 0010 D1F80038 		ldr	r3, [r1, #2048]
 2005 0014 23F4FE63 		bic	r3, r3, #2032
 2006 0018 43EA0013 		orr	r3, r3, r0, lsl #4
 2007 001c C1F80038 		str	r3, [r1, #2048]
 2008              		.loc 1 999 0
 2009 0020 0199     		ldr	r1, [sp, #4]
 2010              	.LVL202:
 2011 0022 1368     		ldr	r3, [r2]
 2012 0024 9942     		cmp	r1, r3
 2013 0026 02D1     		bne	.L199
 2014 0028 03B0     		add	sp, sp, #12
 2015              		.cfi_remember_state
 2016              		.cfi_def_cfa_offset 4
 2017              		@ sp needed
 2018 002a 5DF804FB 		ldr	pc, [sp], #4
 2019              	.L199:
 2020              		.cfi_restore_state
 2021 002e FFF7FEFF 		bl	__stack_chk_fail
 2022              	.LVL203:
 2023              	.L201:
 2024 0032 00BF     		.align	2
 2025              	.L200:
 2026 0034 00000000 		.word	__stack_chk_guard
 2027              		.cfi_endproc
 2028              	.LFE278:
 2029              		.size	usb_lld_set_address, .-usb_lld_set_address
 2030              		.section	.text.usb_lld_init_endpoint,"ax",%progbits
 2031              		.align	1
 2032              		.p2align 4,,15
 2033              		.global	usb_lld_init_endpoint
 2034              		.syntax unified
 2035              		.thumb
 2036              		.thumb_func
 2037              		.fpu fpv4-sp-d16
 2038              		.type	usb_lld_init_endpoint, %function
 2039              	usb_lld_init_endpoint:
 2040              	.LFB279:
 2041              		.loc 1 1009 0
 2042              		.cfi_startproc
 2043              		@ args = 0, pretend = 0, frame = 16
 2044              		@ frame_needed = 0, uses_anonymous_args = 0
 2045              	.LVL204:
 2046 0000 2DE9F04F 		push	{r4, r5, r6, r7, r8, r9, r10, fp, lr}
 2047              		.cfi_def_cfa_offset 36
 2048              		.cfi_offset 4, -36
 2049              		.cfi_offset 5, -32
 2050              		.cfi_offset 6, -28
 2051              		.cfi_offset 7, -24
 2052              		.cfi_offset 8, -20
ARM GAS  C:\Users\Moi\AppData\Local\Temp\ccFTZZQE.s 			page 37


 2053              		.cfi_offset 9, -16
 2054              		.cfi_offset 10, -12
 2055              		.cfi_offset 11, -8
 2056              		.cfi_offset 14, -4
 2057 0004 0EB2     		sxth	r6, r1
 2058 0006 00EB8608 		add	r8, r0, r6, lsl #2
 2059 000a DFF88891 		ldr	r9, .L222+16
 2060              		.loc 1 1014 0
 2061 000e D8F80C30 		ldr	r3, [r8, #12]
 2062              		.loc 1 1009 0
 2063 0012 D9F80020 		ldr	r2, [r9]
 2064              		.loc 1 1014 0
 2065 0016 1B68     		ldr	r3, [r3]
 2066              		.loc 1 1009 0
 2067 0018 85B0     		sub	sp, sp, #20
 2068              		.cfi_def_cfa_offset 56
 2069              		.loc 1 1014 0
 2070 001a 03F00303 		and	r3, r3, #3
 2071 001e 022B     		cmp	r3, #2
 2072              		.loc 1 1009 0
 2073 0020 0D46     		mov	r5, r1
 2074 0022 0746     		mov	r7, r0
 2075 0024 0392     		str	r2, [sp, #12]
 2076              	.LVL205:
 2077              		.loc 1 1014 0
 2078 0026 00F0A080 		beq	.L204
 2079 002a 032B     		cmp	r3, #3
 2080 002c 00F09A80 		beq	.L205
 2081              		.loc 1 1016 0
 2082 0030 5449     		ldr	r1, .L222
 2083              	.LVL206:
 2084 0032 554A     		ldr	r2, .L222+4
 2085 0034 012B     		cmp	r3, #1
 2086 0036 0CBF     		ite	eq
 2087 0038 8A46     		moveq	r10, r1
 2088 003a 9246     		movne	r10, r2
 2089              	.L206:
 2090              		.loc 1 1011 0
 2091 003c 3C6D     		ldr	r4, [r7, #80]
 2092              	.LVL207:
 2093              		.loc 1 1032 0
 2094 003e 6A01     		lsls	r2, r5, #5
 2095 0040 A318     		adds	r3, r4, r2
 2096 0042 0021     		movs	r1, #0
 2097 0044 C3F8101B 		str	r1, [r3, #2832]
 2098              	.LVL208:
 2099              		.loc 1 1033 0
 2100 0048 D8F80C00 		ldr	r0, [r8, #12]
 2101              	.LVL209:
 2102 004c C368     		ldr	r3, [r0, #12]
 2103 004e 05F11001 		add	r1, r5, #16
 2104 0052 4FF0010C 		mov	ip, #1
 2105 0056 0CFA01F1 		lsl	r1, ip, r1
 2106 005a 002B     		cmp	r3, #0
 2107 005c 73D0     		beq	.L207
 2108              		.loc 1 1034 0
 2109 005e 408A     		ldrh	r0, [r0, #18]
ARM GAS  C:\Users\Moi\AppData\Local\Temp\ccFTZZQE.s 			page 38


 2110 0060 05F15803 		add	r3, r5, #88
 2111 0064 5B01     		lsls	r3, r3, #5
 2112 0066 40EA0A00 		orr	r0, r0, r10
 2113 006a E050     		str	r0, [r4, r3]
 2114              		.loc 1 1035 0
 2115 006c D4F81C38 		ldr	r3, [r4, #2076]
 2116 0070 1943     		orrs	r1, r1, r3
 2117 0072 C4F81C18 		str	r1, [r4, #2076]
 2118              	.L208:
 2119              		.loc 1 1043 0
 2120 0076 2244     		add	r2, r2, r4
 2121 0078 0023     		movs	r3, #0
 2122 007a C2F81039 		str	r3, [r2, #2320]
 2123              		.loc 1 1044 0
 2124 007e D8F80C10 		ldr	r1, [r8, #12]
 2125 0082 8A68     		ldr	r2, [r1, #8]
 2126 0084 AB01     		lsls	r3, r5, #6
 2127 0086 43F02003 		orr	r3, r3, #32
 2128 008a 05F1FF3B 		add	fp, r5, #-1
 2129 008e 002A     		cmp	r2, #0
 2130 0090 39D0     		beq	.L209
 2131              		.loc 1 1047 0
 2132 0092 8A8B     		ldrh	r2, [r1, #28]
 2133              		.loc 1 1046 0
 2134 0094 0E8A     		ldrh	r6, [r1, #16]
 2135              		.loc 1 1047 0
 2136 0096 012A     		cmp	r2, #1
 2137              		.loc 1 1046 0
 2138 0098 4FEA9606 		lsr	r6, r6, #2
 2139              	.LVL210:
 2140              		.loc 1 1048 0
 2141 009c 88BF     		it	hi
 2142 009e 5643     		mulhi	r6, r2, r6
 2143              	.LVL211:
 2144 00a0 D7E91512 		ldrd	r1, r2, [r7, #84]
 2145              	.LVL212:
 2146              	.LBB604:
 2147              	.LBB605:
 2148              		.loc 1 213 0
 2149 00a4 B018     		adds	r0, r6, r2
 2150 00a6 B865     		str	r0, [r7, #88]
 2151              		.loc 1 214 0
 2152 00a8 4968     		ldr	r1, [r1, #4]
 2153 00aa 8842     		cmp	r0, r1
 2154              	.LBE605:
 2155              	.LBE604:
 2156              		.loc 1 1049 0
 2157 00ac 4FEA0646 		lsl	r6, r6, #16
 2158              	.LVL213:
 2159              	.LBB608:
 2160              	.LBB606:
 2161              		.loc 1 214 0
 2162 00b0 5ED8     		bhi	.L220
 2163              	.LVL214:
 2164              	.L211:
 2165              	.LBE606:
 2166              	.LBE608:
ARM GAS  C:\Users\Moi\AppData\Local\Temp\ccFTZZQE.s 			page 39


 2167              		.loc 1 1049 0
 2168 00b2 0BF1400B 		add	fp, fp, #64
 2169 00b6 04EB8B0B 		add	fp, r4, fp, lsl #2
 2170 00ba 1643     		orrs	r6, r6, r2
 2171 00bc CBF80460 		str	r6, [fp, #4]
 2172 00c0 3A6D     		ldr	r2, [r7, #80]
 2173              	.LVL215:
 2174              	.LBB609:
 2175              	.LBB610:
 2176              		.loc 1 182 0
 2177 00c2 1361     		str	r3, [r2, #16]
 2178              	.L212:
 2179              		.loc 1 183 0
 2180 00c4 1369     		ldr	r3, [r2, #16]
 2181 00c6 9906     		lsls	r1, r3, #26
 2182 00c8 FCD4     		bmi	.L212
 2183              	.LVL216:
 2184              	.LBB611:
 2185              	.LBB612:
 2186              		.loc 5 527 0
 2187 00ca 0C20     		movs	r0, #12
 2188 00cc FFF7FEFF 		bl	chSysPolledDelayX
 2189              	.LVL217:
 2190              	.LBE612:
 2191              	.LBE611:
 2192              	.LBE610:
 2193              	.LBE609:
 2194              		.loc 1 1055 0
 2195 00d0 D8F80C30 		ldr	r3, [r8, #12]
 2196 00d4 1B8A     		ldrh	r3, [r3, #16]
 2197              		.loc 1 1053 0
 2198 00d6 05F14802 		add	r2, r5, #72
 2199              		.loc 1 1054 0
 2200 00da 43EA8553 		orr	r3, r3, r5, lsl #22
 2201              		.loc 1 1053 0
 2202 00de 5201     		lsls	r2, r2, #5
 2203              		.loc 1 1054 0
 2204 00e0 43EA0A03 		orr	r3, r3, r10
 2205              		.loc 1 1053 0
 2206 00e4 A350     		str	r3, [r4, r2]
 2207              		.loc 1 1056 0
 2208 00e6 0121     		movs	r1, #1
 2209 00e8 D4F81C38 		ldr	r3, [r4, #2076]
 2210 00ec 01FA05F5 		lsl	r5, r1, r5
 2211 00f0 1D43     		orrs	r5, r5, r3
 2212 00f2 C4F81C58 		str	r5, [r4, #2076]
 2213              	.LVL218:
 2214              	.L202:
 2215              		.loc 1 1064 0
 2216 00f6 039A     		ldr	r2, [sp, #12]
 2217 00f8 D9F80030 		ldr	r3, [r9]
 2218 00fc 9A42     		cmp	r2, r3
 2219 00fe 3FD1     		bne	.L221
 2220 0100 05B0     		add	sp, sp, #20
 2221              		.cfi_remember_state
 2222              		.cfi_def_cfa_offset 36
 2223              		@ sp needed
ARM GAS  C:\Users\Moi\AppData\Local\Temp\ccFTZZQE.s 			page 40


 2224 0102 BDE8F08F 		pop	{r4, r5, r6, r7, r8, r9, r10, fp, pc}
 2225              	.LVL219:
 2226              	.L209:
 2227              		.cfi_restore_state
 2228              		.loc 1 1059 0
 2229 0106 05F13F02 		add	r2, r5, #63
 2230 010a 04EB8202 		add	r2, r4, r2, lsl #2
 2231 010e 1F49     		ldr	r1, .L222+8
 2232 0110 5160     		str	r1, [r2, #4]
 2233 0112 3A6D     		ldr	r2, [r7, #80]
 2234              	.LVL220:
 2235              	.LBB613:
 2236              	.LBB614:
 2237              		.loc 1 182 0
 2238 0114 1361     		str	r3, [r2, #16]
 2239              	.L214:
 2240              		.loc 1 183 0
 2241 0116 1369     		ldr	r3, [r2, #16]
 2242 0118 9B06     		lsls	r3, r3, #26
 2243 011a FCD4     		bmi	.L214
 2244              	.LVL221:
 2245 011c 04EB4616 		add	r6, r4, r6, lsl #5
 2246              	.LBB615:
 2247              	.LBB616:
 2248              		.loc 5 527 0
 2249 0120 0C20     		movs	r0, #12
 2250 0122 FFF7FEFF 		bl	chSysPolledDelayX
 2251              	.LVL222:
 2252              	.LBE616:
 2253              	.LBE615:
 2254              	.LBE614:
 2255              	.LBE613:
 2256              		.loc 1 1061 0
 2257 0126 D6F80039 		ldr	r3, [r6, #2304]
 2258 012a 23F40043 		bic	r3, r3, #32768
 2259 012e C6F80039 		str	r3, [r6, #2304]
 2260              		.loc 1 1062 0
 2261 0132 D4F81C38 		ldr	r3, [r4, #2076]
 2262 0136 0121     		movs	r1, #1
 2263 0138 01FA05F5 		lsl	r5, r1, r5
 2264 013c 23EA0505 		bic	r5, r3, r5
 2265 0140 C4F81C58 		str	r5, [r4, #2076]
 2266 0144 D7E7     		b	.L202
 2267              	.LVL223:
 2268              	.L207:
 2269 0146 04EB4610 		add	r0, r4, r6, lsl #5
 2270              		.loc 1 1038 0
 2271 014a D0F8003B 		ldr	r3, [r0, #2816]
 2272 014e 23F40043 		bic	r3, r3, #32768
 2273 0152 C0F8003B 		str	r3, [r0, #2816]
 2274              		.loc 1 1039 0
 2275 0156 D4F81C38 		ldr	r3, [r4, #2076]
 2276 015a 23EA0101 		bic	r1, r3, r1
 2277 015e C4F81C18 		str	r1, [r4, #2076]
 2278 0162 88E7     		b	.L208
 2279              	.LVL224:
 2280              	.L205:
ARM GAS  C:\Users\Moi\AppData\Local\Temp\ccFTZZQE.s 			page 41


 2281              		.loc 1 1025 0
 2282 0164 DFF830A0 		ldr	r10, .L222+20
 2283              		.loc 1 1026 0
 2284 0168 68E7     		b	.L206
 2285              	.LVL225:
 2286              	.L204:
 2287              		.loc 1 1022 0
 2288 016a DFF830A0 		ldr	r10, .L222+24
 2289              		.loc 1 1023 0
 2290 016e 65E7     		b	.L206
 2291              	.LVL226:
 2292              	.L220:
 2293              	.LBB617:
 2294              	.LBB607:
 2295              		.loc 1 214 0
 2296 0170 0748     		ldr	r0, .L222+12
 2297 0172 CDE90023 		strd	r2, r3, [sp]
 2298 0176 FFF7FEFF 		bl	chSysHalt
 2299              	.LVL227:
 2300 017a DDE90023 		ldrd	r2, r3, [sp]
 2301 017e 98E7     		b	.L211
 2302              	.LVL228:
 2303              	.L221:
 2304              	.LBE607:
 2305              	.LBE617:
 2306              		.loc 1 1064 0
 2307 0180 FFF7FEFF 		bl	__stack_chk_fail
 2308              	.LVL229:
 2309              	.L223:
 2310              		.align	2
 2311              	.L222:
 2312 0184 00800410 		.word	268730368
 2313 0188 00800010 		.word	268468224
 2314 018c 00040002 		.word	33555456
 2315 0190 00000000 		.word	.LANCHOR5
 2316 0194 00000000 		.word	__stack_chk_guard
 2317 0198 00800C10 		.word	269254656
 2318 019c 00800810 		.word	268992512
 2319              		.cfi_endproc
 2320              	.LFE279:
 2321              		.size	usb_lld_init_endpoint, .-usb_lld_init_endpoint
 2322              		.section	.text.usb_lld_disable_endpoints,"ax",%progbits
 2323              		.align	1
 2324              		.p2align 4,,15
 2325              		.global	usb_lld_disable_endpoints
 2326              		.syntax unified
 2327              		.thumb
 2328              		.thumb_func
 2329              		.fpu fpv4-sp-d16
 2330              		.type	usb_lld_disable_endpoints, %function
 2331              	usb_lld_disable_endpoints:
 2332              	.LFB280:
 2333              		.loc 1 1073 0
 2334              		.cfi_startproc
 2335              		@ args = 0, pretend = 0, frame = 8
 2336              		@ frame_needed = 0, uses_anonymous_args = 0
 2337              	.LVL230:
ARM GAS  C:\Users\Moi\AppData\Local\Temp\ccFTZZQE.s 			page 42


 2338 0000 00B5     		push	{lr}
 2339              		.cfi_def_cfa_offset 4
 2340              		.cfi_offset 14, -4
 2341 0002 0A4B     		ldr	r3, .L229
 2342              	.LBB618:
 2343              	.LBB619:
 2344              		.loc 1 198 0
 2345 0004 416D     		ldr	r1, [r0, #84]
 2346              	.LBE619:
 2347              	.LBE618:
 2348              		.loc 1 1073 0
 2349 0006 1A68     		ldr	r2, [r3]
 2350              	.LBB621:
 2351              	.LBB620:
 2352              		.loc 1 198 0
 2353 0008 0968     		ldr	r1, [r1]
 2354 000a 8165     		str	r1, [r0, #88]
 2355              	.LBE620:
 2356              	.LBE621:
 2357              		.loc 1 1073 0
 2358 000c 83B0     		sub	sp, sp, #12
 2359              		.cfi_def_cfa_offset 16
 2360              		.loc 1 1073 0
 2361 000e 0192     		str	r2, [sp, #4]
 2362              	.LVL231:
 2363              		.loc 1 1079 0
 2364 0010 019A     		ldr	r2, [sp, #4]
 2365 0012 1B68     		ldr	r3, [r3]
 2366 0014 9A42     		cmp	r2, r3
 2367 0016 07D1     		bne	.L228
 2368 0018 00F15401 		add	r1, r0, #84
 2369 001c 006D     		ldr	r0, [r0, #80]
 2370              	.LVL232:
 2371              		.loc 1 1080 0
 2372 001e 03B0     		add	sp, sp, #12
 2373              		.cfi_remember_state
 2374              		.cfi_def_cfa_offset 4
 2375              		@ sp needed
 2376 0020 5DF804EB 		ldr	lr, [sp], #4
 2377              		.cfi_restore 14
 2378              		.cfi_def_cfa_offset 0
 2379              		.loc 1 1079 0
 2380 0024 FFF7FEBF 		b	otg_disable_ep.isra.0
 2381              	.LVL233:
 2382              	.L228:
 2383              		.cfi_restore_state
 2384 0028 FFF7FEFF 		bl	__stack_chk_fail
 2385              	.LVL234:
 2386              	.L230:
 2387              		.align	2
 2388              	.L229:
 2389 002c 00000000 		.word	__stack_chk_guard
 2390              		.cfi_endproc
 2391              	.LFE280:
 2392              		.size	usb_lld_disable_endpoints, .-usb_lld_disable_endpoints
 2393              		.section	.text.usb_lld_get_status_out,"ax",%progbits
 2394              		.align	1
ARM GAS  C:\Users\Moi\AppData\Local\Temp\ccFTZZQE.s 			page 43


 2395              		.p2align 4,,15
 2396              		.global	usb_lld_get_status_out
 2397              		.syntax unified
 2398              		.thumb
 2399              		.thumb_func
 2400              		.fpu fpv4-sp-d16
 2401              		.type	usb_lld_get_status_out, %function
 2402              	usb_lld_get_status_out:
 2403              	.LFB281:
 2404              		.loc 1 1094 0
 2405              		.cfi_startproc
 2406              		@ args = 0, pretend = 0, frame = 8
 2407              		@ frame_needed = 0, uses_anonymous_args = 0
 2408              	.LVL235:
 2409 0000 00B5     		push	{lr}
 2410              		.cfi_def_cfa_offset 4
 2411              		.cfi_offset 14, -4
 2412 0002 0C4A     		ldr	r2, .L238
 2413              		.loc 1 1099 0
 2414 0004 036D     		ldr	r3, [r0, #80]
 2415              		.loc 1 1094 0
 2416 0006 1068     		ldr	r0, [r2]
 2417              	.LVL236:
 2418 0008 83B0     		sub	sp, sp, #12
 2419              		.cfi_def_cfa_offset 16
 2420              		.loc 1 1099 0
 2421 000a 5831     		adds	r1, r1, #88
 2422              	.LVL237:
 2423 000c 4901     		lsls	r1, r1, #5
 2424              		.loc 1 1094 0
 2425 000e 0190     		str	r0, [sp, #4]
 2426              		.loc 1 1099 0
 2427 0010 5B58     		ldr	r3, [r3, r1]
 2428              	.LVL238:
 2429              		.loc 1 1100 0
 2430 0012 13F40040 		ands	r0, r3, #32768
 2431 0016 04D0     		beq	.L232
 2432              		.loc 1 1102 0
 2433 0018 13F4001F 		tst	r3, #2097152
 2434              		.loc 1 1104 0
 2435 001c 14BF     		ite	ne
 2436 001e 0120     		movne	r0, #1
 2437 0020 0220     		moveq	r0, #2
 2438              	.L232:
 2439              		.loc 1 1105 0
 2440 0022 0199     		ldr	r1, [sp, #4]
 2441 0024 1368     		ldr	r3, [r2]
 2442              	.LVL239:
 2443 0026 9942     		cmp	r1, r3
 2444 0028 02D1     		bne	.L237
 2445 002a 03B0     		add	sp, sp, #12
 2446              		.cfi_remember_state
 2447              		.cfi_def_cfa_offset 4
 2448              		@ sp needed
 2449 002c 5DF804FB 		ldr	pc, [sp], #4
 2450              	.L237:
 2451              		.cfi_restore_state
ARM GAS  C:\Users\Moi\AppData\Local\Temp\ccFTZZQE.s 			page 44


 2452 0030 FFF7FEFF 		bl	__stack_chk_fail
 2453              	.LVL240:
 2454              	.L239:
 2455              		.align	2
 2456              	.L238:
 2457 0034 00000000 		.word	__stack_chk_guard
 2458              		.cfi_endproc
 2459              	.LFE281:
 2460              		.size	usb_lld_get_status_out, .-usb_lld_get_status_out
 2461              		.section	.text.usb_lld_get_status_in,"ax",%progbits
 2462              		.align	1
 2463              		.p2align 4,,15
 2464              		.global	usb_lld_get_status_in
 2465              		.syntax unified
 2466              		.thumb
 2467              		.thumb_func
 2468              		.fpu fpv4-sp-d16
 2469              		.type	usb_lld_get_status_in, %function
 2470              	usb_lld_get_status_in:
 2471              	.LFB282:
 2472              		.loc 1 1119 0
 2473              		.cfi_startproc
 2474              		@ args = 0, pretend = 0, frame = 8
 2475              		@ frame_needed = 0, uses_anonymous_args = 0
 2476              	.LVL241:
 2477 0000 00B5     		push	{lr}
 2478              		.cfi_def_cfa_offset 4
 2479              		.cfi_offset 14, -4
 2480 0002 0C4A     		ldr	r2, .L247
 2481              		.loc 1 1124 0
 2482 0004 036D     		ldr	r3, [r0, #80]
 2483              		.loc 1 1119 0
 2484 0006 1068     		ldr	r0, [r2]
 2485              	.LVL242:
 2486 0008 83B0     		sub	sp, sp, #12
 2487              		.cfi_def_cfa_offset 16
 2488              		.loc 1 1124 0
 2489 000a 4831     		adds	r1, r1, #72
 2490              	.LVL243:
 2491 000c 4901     		lsls	r1, r1, #5
 2492              		.loc 1 1119 0
 2493 000e 0190     		str	r0, [sp, #4]
 2494              		.loc 1 1124 0
 2495 0010 5B58     		ldr	r3, [r3, r1]
 2496              	.LVL244:
 2497              		.loc 1 1125 0
 2498 0012 13F40040 		ands	r0, r3, #32768
 2499 0016 04D0     		beq	.L241
 2500              		.loc 1 1127 0
 2501 0018 13F4001F 		tst	r3, #2097152
 2502              		.loc 1 1129 0
 2503 001c 14BF     		ite	ne
 2504 001e 0120     		movne	r0, #1
 2505 0020 0220     		moveq	r0, #2
 2506              	.L241:
 2507              		.loc 1 1130 0
 2508 0022 0199     		ldr	r1, [sp, #4]
ARM GAS  C:\Users\Moi\AppData\Local\Temp\ccFTZZQE.s 			page 45


 2509 0024 1368     		ldr	r3, [r2]
 2510              	.LVL245:
 2511 0026 9942     		cmp	r1, r3
 2512 0028 02D1     		bne	.L246
 2513 002a 03B0     		add	sp, sp, #12
 2514              		.cfi_remember_state
 2515              		.cfi_def_cfa_offset 4
 2516              		@ sp needed
 2517 002c 5DF804FB 		ldr	pc, [sp], #4
 2518              	.L246:
 2519              		.cfi_restore_state
 2520 0030 FFF7FEFF 		bl	__stack_chk_fail
 2521              	.LVL246:
 2522              	.L248:
 2523              		.align	2
 2524              	.L247:
 2525 0034 00000000 		.word	__stack_chk_guard
 2526              		.cfi_endproc
 2527              	.LFE282:
 2528              		.size	usb_lld_get_status_in, .-usb_lld_get_status_in
 2529              		.section	.text.usb_lld_read_setup,"ax",%progbits
 2530              		.align	1
 2531              		.p2align 4,,15
 2532              		.global	usb_lld_read_setup
 2533              		.syntax unified
 2534              		.thumb
 2535              		.thumb_func
 2536              		.fpu fpv4-sp-d16
 2537              		.type	usb_lld_read_setup, %function
 2538              	usb_lld_read_setup:
 2539              	.LFB283:
 2540              		.loc 1 1146 0
 2541              		.cfi_startproc
 2542              		@ args = 0, pretend = 0, frame = 8
 2543              		@ frame_needed = 0, uses_anonymous_args = 0
 2544              	.LVL247:
 2545 0000 10B5     		push	{r4, lr}
 2546              		.cfi_def_cfa_offset 8
 2547              		.cfi_offset 4, -8
 2548              		.cfi_offset 14, -4
 2549              		.loc 1 1148 0
 2550 0002 00EB8101 		add	r1, r0, r1, lsl #2
 2551              	.LVL248:
 2552              		.loc 1 1146 0
 2553 0006 094B     		ldr	r3, .L253
 2554              		.loc 1 1148 0
 2555 0008 C968     		ldr	r1, [r1, #12]
 2556              		.loc 1 1146 0
 2557 000a 1868     		ldr	r0, [r3]
 2558              	.LVL249:
 2559              		.loc 1 1148 0
 2560 000c 096A     		ldr	r1, [r1, #32]
 2561              		.loc 1 1146 0
 2562 000e 82B0     		sub	sp, sp, #8
 2563              		.cfi_def_cfa_offset 16
 2564              		.loc 1 1148 0
 2565 0010 0C68     		ldr	r4, [r1]	@ unaligned
ARM GAS  C:\Users\Moi\AppData\Local\Temp\ccFTZZQE.s 			page 46


 2566              		.loc 1 1146 0
 2567 0012 0190     		str	r0, [sp, #4]
 2568              		.loc 1 1148 0
 2569 0014 4868     		ldr	r0, [r1, #4]	@ unaligned
 2570 0016 1460     		str	r4, [r2]	@ unaligned
 2571              		.loc 1 1149 0
 2572 0018 0199     		ldr	r1, [sp, #4]
 2573 001a 1B68     		ldr	r3, [r3]
 2574              		.loc 1 1148 0
 2575 001c 5060     		str	r0, [r2, #4]	@ unaligned
 2576              		.loc 1 1149 0
 2577 001e 9942     		cmp	r1, r3
 2578 0020 01D1     		bne	.L252
 2579 0022 02B0     		add	sp, sp, #8
 2580              		.cfi_remember_state
 2581              		.cfi_def_cfa_offset 8
 2582              		@ sp needed
 2583 0024 10BD     		pop	{r4, pc}
 2584              	.L252:
 2585              		.cfi_restore_state
 2586 0026 FFF7FEFF 		bl	__stack_chk_fail
 2587              	.LVL250:
 2588              	.L254:
 2589 002a 00BF     		.align	2
 2590              	.L253:
 2591 002c 00000000 		.word	__stack_chk_guard
 2592              		.cfi_endproc
 2593              	.LFE283:
 2594              		.size	usb_lld_read_setup, .-usb_lld_read_setup
 2595              		.section	.text.usb_lld_prepare_receive,"ax",%progbits
 2596              		.align	1
 2597              		.p2align 4,,15
 2598              		.global	usb_lld_prepare_receive
 2599              		.syntax unified
 2600              		.thumb
 2601              		.thumb_func
 2602              		.fpu fpv4-sp-d16
 2603              		.type	usb_lld_prepare_receive, %function
 2604              	usb_lld_prepare_receive:
 2605              	.LFB284:
 2606              		.loc 1 1159 0
 2607              		.cfi_startproc
 2608              		@ args = 0, pretend = 0, frame = 8
 2609              		@ frame_needed = 0, uses_anonymous_args = 0
 2610              	.LVL251:
 2611 0000 F0B5     		push	{r4, r5, r6, r7, lr}
 2612              		.cfi_def_cfa_offset 20
 2613              		.cfi_offset 4, -20
 2614              		.cfi_offset 5, -16
 2615              		.cfi_offset 6, -12
 2616              		.cfi_offset 7, -8
 2617              		.cfi_offset 14, -4
 2618 0002 00EB8107 		add	r7, r0, r1, lsl #2
 2619 0006 134E     		ldr	r6, .L263
 2620              		.loc 1 1161 0
 2621 0008 FA68     		ldr	r2, [r7, #12]
 2622              		.loc 1 1159 0
ARM GAS  C:\Users\Moi\AppData\Local\Temp\ccFTZZQE.s 			page 47


 2623 000a 3368     		ldr	r3, [r6]
 2624              		.loc 1 1161 0
 2625 000c 9569     		ldr	r5, [r2, #24]
 2626              	.LVL252:
 2627              		.loc 1 1159 0
 2628 000e 83B0     		sub	sp, sp, #12
 2629              		.cfi_def_cfa_offset 32
 2630              		.loc 1 1164 0
 2631 0010 6A68     		ldr	r2, [r5, #4]
 2632              		.loc 1 1159 0
 2633 0012 0193     		str	r3, [sp, #4]
 2634              		.loc 1 1164 0
 2635 0014 2A61     		str	r2, [r5, #16]
 2636              		.loc 1 1165 0
 2637 0016 29B9     		cbnz	r1, .L261
 2638              		.loc 1 1165 0 is_stmt 0 discriminator 1
 2639 0018 402A     		cmp	r2, #64
 2640 001a 03D9     		bls	.L261
 2641              		.loc 1 1166 0 is_stmt 1
 2642 001c 4022     		movs	r2, #64
 2643 001e 0E4C     		ldr	r4, .L263+4
 2644 0020 6A60     		str	r2, [r5, #4]
 2645 0022 01E0     		b	.L257
 2646              	.L261:
 2647 0024 42F0C044 		orr	r4, r2, #1610612736
 2648              	.L257:
 2649              		.loc 1 1168 0
 2650 0028 FB68     		ldr	r3, [r7, #12]
 2651              		.loc 1 1170 0
 2652 002a 006D     		ldr	r0, [r0, #80]
 2653              	.LVL253:
 2654              		.loc 1 1168 0
 2655 002c 5D8A     		ldrh	r5, [r3, #18]
 2656              	.LVL254:
 2657              		.loc 1 1170 0
 2658 002e 00EB4111 		add	r1, r0, r1, lsl #5
 2659              	.LVL255:
 2660              		.loc 1 1168 0
 2661 0032 6B1E     		subs	r3, r5, #1
 2662 0034 1344     		add	r3, r3, r2
 2663 0036 B3FBF5F3 		udiv	r3, r3, r5
 2664              		.loc 1 1170 0
 2665 003a 44EAC343 		orr	r3, r4, r3, lsl #19
 2666 003e C1F8103B 		str	r3, [r1, #2832]
 2667              		.loc 1 1173 0
 2668 0042 019A     		ldr	r2, [sp, #4]
 2669              	.LVL256:
 2670 0044 3368     		ldr	r3, [r6]
 2671 0046 9A42     		cmp	r2, r3
 2672 0048 01D1     		bne	.L262
 2673 004a 03B0     		add	sp, sp, #12
 2674              		.cfi_remember_state
 2675              		.cfi_def_cfa_offset 20
 2676              		@ sp needed
 2677 004c F0BD     		pop	{r4, r5, r6, r7, pc}
 2678              	.L262:
 2679              		.cfi_restore_state
ARM GAS  C:\Users\Moi\AppData\Local\Temp\ccFTZZQE.s 			page 48


 2680 004e FFF7FEFF 		bl	__stack_chk_fail
 2681              	.LVL257:
 2682              	.L264:
 2683 0052 00BF     		.align	2
 2684              	.L263:
 2685 0054 00000000 		.word	__stack_chk_guard
 2686 0058 40000060 		.word	1610612800
 2687              		.cfi_endproc
 2688              	.LFE284:
 2689              		.size	usb_lld_prepare_receive, .-usb_lld_prepare_receive
 2690              		.section	.text.otg_epout_handler.constprop.7,"ax",%progbits
 2691              		.align	1
 2692              		.p2align 4,,15
 2693              		.syntax unified
 2694              		.thumb
 2695              		.thumb_func
 2696              		.fpu fpv4-sp-d16
 2697              		.type	otg_epout_handler.constprop.7, %function
 2698              	otg_epout_handler.constprop.7:
 2699              	.LFB300:
 2700              		.loc 1 581 0
 2701              		.cfi_startproc
 2702              		@ args = 0, pretend = 0, frame = 8
 2703              		@ frame_needed = 0, uses_anonymous_args = 0
 2704              	.LVL258:
 2705 0000 2DE9F041 		push	{r4, r5, r6, r7, r8, lr}
 2706              		.cfi_def_cfa_offset 24
 2707              		.cfi_offset 4, -24
 2708              		.cfi_offset 5, -20
 2709              		.cfi_offset 6, -16
 2710              		.cfi_offset 7, -12
 2711              		.cfi_offset 8, -8
 2712              		.cfi_offset 14, -4
 2713              		.loc 1 582 0
 2714 0004 314E     		ldr	r6, .L286
 2715              		.loc 1 581 0
 2716 0006 DFF8C880 		ldr	r8, .L286+4
 2717              		.loc 1 582 0
 2718 000a 376D     		ldr	r7, [r6, #80]
 2719              		.loc 1 581 0
 2720 000c D8F80030 		ldr	r3, [r8]
 2721 0010 82B0     		sub	sp, sp, #8
 2722              		.cfi_def_cfa_offset 32
 2723              		.loc 1 581 0
 2724 0012 0546     		mov	r5, r0
 2725 0014 0193     		str	r3, [sp, #4]
 2726              	.LVL259:
 2727              		.loc 1 583 0
 2728 0016 07EB4013 		add	r3, r7, r0, lsl #5
 2729 001a D3F8084B 		ldr	r4, [r3, #2824]
 2730              	.LVL260:
 2731              		.loc 1 586 0
 2732 001e C3F8084B 		str	r4, [r3, #2824]
 2733              		.loc 1 588 0
 2734 0022 2007     		lsls	r0, r4, #28
 2735              	.LVL261:
 2736 0024 0AD5     		bpl	.L266
ARM GAS  C:\Users\Moi\AppData\Local\Temp\ccFTZZQE.s 			page 49


 2737 0026 D7F81438 		ldr	r3, [r7, #2068]
 2738 002a 1907     		lsls	r1, r3, #28
 2739 002c 06D5     		bpl	.L266
 2740              		.loc 1 591 0
 2741 002e 06EB8503 		add	r3, r6, r5, lsl #2
 2742 0032 2946     		mov	r1, r5
 2743 0034 DB68     		ldr	r3, [r3, #12]
 2744 0036 3046     		mov	r0, r6
 2745 0038 5B68     		ldr	r3, [r3, #4]
 2746 003a 9847     		blx	r3
 2747              	.LVL262:
 2748              	.L266:
 2749              		.loc 1 594 0
 2750 003c E207     		lsls	r2, r4, #31
 2751 003e 3BD5     		bpl	.L265
 2752 0040 D7F81438 		ldr	r3, [r7, #2068]
 2753 0044 DB07     		lsls	r3, r3, #31
 2754 0046 37D5     		bpl	.L265
 2755              	.LBB622:
 2756              		.loc 1 596 0
 2757 0048 06EB8503 		add	r3, r6, r5, lsl #2
 2758 004c D968     		ldr	r1, [r3, #12]
 2759 004e 8B69     		ldr	r3, [r1, #24]
 2760              	.LVL263:
 2761              		.loc 1 598 0
 2762 0050 5868     		ldr	r0, [r3, #4]
 2763 0052 1A69     		ldr	r2, [r3, #16]
 2764 0054 9042     		cmp	r0, r2
 2765 0056 11D3     		bcc	.L285
 2766              		.loc 1 611 0
 2767 0058 7389     		ldrh	r3, [r6, #10]
 2768              	.LVL264:
 2769 005a 019C     		ldr	r4, [sp, #4]
 2770              	.LVL265:
 2771 005c D8F80000 		ldr	r0, [r8]
 2772 0060 0122     		movs	r2, #1
 2773 0062 AA40     		lsls	r2, r2, r5
 2774 0064 23EA0203 		bic	r3, r3, r2
 2775 0068 8442     		cmp	r4, r0
 2776 006a 7381     		strh	r3, [r6, #10]	@ movhi
 2777 006c 2CD1     		bne	.L284
 2778 006e CB68     		ldr	r3, [r1, #12]
 2779 0070 1648     		ldr	r0, .L286
 2780 0072 2946     		mov	r1, r5
 2781              	.LVL266:
 2782              	.LBE622:
 2783              		.loc 1 614 0
 2784 0074 02B0     		add	sp, sp, #8
 2785              		.cfi_remember_state
 2786              		.cfi_def_cfa_offset 24
 2787              		@ sp needed
 2788 0076 BDE8F041 		pop	{r4, r5, r6, r7, r8, lr}
 2789              		.cfi_restore 14
 2790              		.cfi_restore 8
 2791              		.cfi_restore 7
 2792              		.cfi_restore 6
 2793              		.cfi_restore 5
ARM GAS  C:\Users\Moi\AppData\Local\Temp\ccFTZZQE.s 			page 50


 2794              		.cfi_restore 4
 2795              		.cfi_def_cfa_offset 0
 2796              	.LVL267:
 2797              	.LBB637:
 2798              		.loc 1 611 0
 2799 007a 1847     		bx	r3	@ indirect register sibling call
 2800              	.LVL268:
 2801              	.L285:
 2802              		.cfi_restore_state
 2803              		.loc 1 602 0
 2804 007c 121A     		subs	r2, r2, r0
 2805              		.loc 1 603 0
 2806 007e 0024     		movs	r4, #0
 2807              	.LVL269:
 2808 0080 C3E90124 		strd	r2, r4, [r3, #4]
 2809              		.loc 1 604 0
 2810 0084 2946     		mov	r1, r5
 2811 0086 1148     		ldr	r0, .L286
 2812 0088 FFF7FEFF 		bl	usb_lld_prepare_receive
 2813              	.LVL270:
 2814              	.LBB623:
 2815              	.LBB624:
 2816              	.LBB625:
 2817              	.LBB626:
 2818              	.LBB627:
 2819              	.LBB628:
 2820              		.loc 3 546 0
 2821 008c 2023     		movs	r3, #32
 2822              		.syntax unified
 2823              	@ 546 ".//ChibiOS//os/ext/CMSIS/include/core_cmFunc.h" 1
 2824 008e 83F31188 		MSR basepri, r3
 2825              	@ 0 "" 2
 2826              	.LVL271:
 2827              		.thumb
 2828              		.syntax unified
 2829              	.LBE628:
 2830              	.LBE627:
 2831              	.LBE626:
 2832              	.LBE625:
 2833              		.loc 4 389 0
 2834 0092 FFF7FEFF 		bl	_stats_start_measure_crit_isr
 2835              	.LVL272:
 2836              		.loc 4 390 0
 2837 0096 FFF7FEFF 		bl	_dbg_check_lock_from_isr
 2838              	.LVL273:
 2839 009a 336D     		ldr	r3, [r6, #80]
 2840 009c 03EB4515 		add	r5, r3, r5, lsl #5
 2841              	.LVL274:
 2842              	.LBE624:
 2843              	.LBE623:
 2844              	.LBB629:
 2845              	.LBB630:
 2846              		.loc 1 1214 0
 2847 00a0 D5F8003B 		ldr	r3, [r5, #2816]
 2848 00a4 43F08063 		orr	r3, r3, #67108864
 2849 00a8 C5F8003B 		str	r3, [r5, #2816]
 2850              	.LVL275:
ARM GAS  C:\Users\Moi\AppData\Local\Temp\ccFTZZQE.s 			page 51


 2851              	.LBE630:
 2852              	.LBE629:
 2853              	.LBB631:
 2854              	.LBB632:
 2855              		.loc 4 408 0
 2856 00ac FFF7FEFF 		bl	_dbg_check_unlock_from_isr
 2857              	.LVL276:
 2858              		.loc 4 409 0
 2859 00b0 FFF7FEFF 		bl	_stats_stop_measure_crit_isr
 2860              	.LVL277:
 2861              	.LBB633:
 2862              	.LBB634:
 2863              	.LBB635:
 2864              	.LBB636:
 2865              		.loc 3 546 0
 2866              		.syntax unified
 2867              	@ 546 ".//ChibiOS//os/ext/CMSIS/include/core_cmFunc.h" 1
 2868 00b4 84F31188 		MSR basepri, r4
 2869              	@ 0 "" 2
 2870              	.LVL278:
 2871              		.thumb
 2872              		.syntax unified
 2873              	.L265:
 2874              	.LBE636:
 2875              	.LBE635:
 2876              	.LBE634:
 2877              	.LBE633:
 2878              	.LBE632:
 2879              	.LBE631:
 2880              	.LBE637:
 2881              		.loc 1 614 0
 2882 00b8 019A     		ldr	r2, [sp, #4]
 2883 00ba D8F80030 		ldr	r3, [r8]
 2884 00be 9A42     		cmp	r2, r3
 2885 00c0 02D1     		bne	.L284
 2886 00c2 02B0     		add	sp, sp, #8
 2887              		.cfi_remember_state
 2888              		.cfi_def_cfa_offset 24
 2889              		@ sp needed
 2890 00c4 BDE8F081 		pop	{r4, r5, r6, r7, r8, pc}
 2891              	.LVL279:
 2892              	.L284:
 2893              		.cfi_restore_state
 2894 00c8 FFF7FEFF 		bl	__stack_chk_fail
 2895              	.LVL280:
 2896              	.L287:
 2897              		.align	2
 2898              	.L286:
 2899 00cc 00000000 		.word	.LANCHOR1
 2900 00d0 00000000 		.word	__stack_chk_guard
 2901              		.cfi_endproc
 2902              	.LFE300:
 2903              		.size	otg_epout_handler.constprop.7, .-otg_epout_handler.constprop.7
 2904              		.section	.text.usb_lld_prepare_transmit,"ax",%progbits
 2905              		.align	1
 2906              		.p2align 4,,15
 2907              		.global	usb_lld_prepare_transmit
ARM GAS  C:\Users\Moi\AppData\Local\Temp\ccFTZZQE.s 			page 52


 2908              		.syntax unified
 2909              		.thumb
 2910              		.thumb_func
 2911              		.fpu fpv4-sp-d16
 2912              		.type	usb_lld_prepare_transmit, %function
 2913              	usb_lld_prepare_transmit:
 2914              	.LFB285:
 2915              		.loc 1 1183 0
 2916              		.cfi_startproc
 2917              		@ args = 0, pretend = 0, frame = 8
 2918              		@ frame_needed = 0, uses_anonymous_args = 0
 2919              	.LVL281:
 2920 0000 30B5     		push	{r4, r5, lr}
 2921              		.cfi_def_cfa_offset 12
 2922              		.cfi_offset 4, -12
 2923              		.cfi_offset 5, -8
 2924              		.cfi_offset 14, -4
 2925 0002 00EB8105 		add	r5, r0, r1, lsl #2
 2926 0006 164C     		ldr	r4, .L297
 2927              		.loc 1 1184 0
 2928 0008 EA68     		ldr	r2, [r5, #12]
 2929              		.loc 1 1183 0
 2930 000a 2368     		ldr	r3, [r4]
 2931              		.loc 1 1184 0
 2932 000c 5269     		ldr	r2, [r2, #20]
 2933              	.LVL282:
 2934              		.loc 1 1183 0
 2935 000e 83B0     		sub	sp, sp, #12
 2936              		.cfi_def_cfa_offset 24
 2937              		.loc 1 1183 0
 2938 0010 0193     		str	r3, [sp, #4]
 2939              		.loc 1 1187 0
 2940 0012 5368     		ldr	r3, [r2, #4]
 2941 0014 1361     		str	r3, [r2, #16]
 2942              		.loc 1 1188 0
 2943 0016 C3B1     		cbz	r3, .L294
 2944              	.LBB638:
 2945              		.loc 1 1193 0
 2946 0018 91B1     		cbz	r1, .L295
 2947              	.L291:
 2948              		.loc 1 1197 0
 2949 001a EA68     		ldr	r2, [r5, #12]
 2950              	.LVL283:
 2951              		.loc 1 1199 0
 2952 001c 006D     		ldr	r0, [r0, #80]
 2953              	.LVL284:
 2954              		.loc 1 1197 0
 2955 001e 158A     		ldrh	r5, [r2, #16]
 2956              	.LVL285:
 2957              		.loc 1 1199 0
 2958 0020 00EB4111 		add	r1, r0, r1, lsl #5
 2959              	.LVL286:
 2960              		.loc 1 1197 0
 2961 0024 6A1E     		subs	r2, r5, #1
 2962 0026 1A44     		add	r2, r2, r3
 2963 0028 B2FBF5F2 		udiv	r2, r2, r5
 2964              		.loc 1 1199 0
ARM GAS  C:\Users\Moi\AppData\Local\Temp\ccFTZZQE.s 			page 53


 2965 002c 43EAC243 		orr	r3, r3, r2, lsl #19
 2966              	.LVL287:
 2967 0030 C1F81039 		str	r3, [r1, #2320]
 2968              	.L288:
 2969              	.LBE638:
 2970              		.loc 1 1202 0
 2971 0034 019A     		ldr	r2, [sp, #4]
 2972 0036 2368     		ldr	r3, [r4]
 2973 0038 9A42     		cmp	r2, r3
 2974 003a 0ED1     		bne	.L296
 2975 003c 03B0     		add	sp, sp, #12
 2976              		.cfi_remember_state
 2977              		.cfi_def_cfa_offset 12
 2978              		@ sp needed
 2979 003e 30BD     		pop	{r4, r5, pc}
 2980              	.LVL288:
 2981              	.L295:
 2982              		.cfi_restore_state
 2983              	.LBB639:
 2984              		.loc 1 1193 0 discriminator 1
 2985 0040 402B     		cmp	r3, #64
 2986              		.loc 1 1194 0 discriminator 1
 2987 0042 84BF     		itt	hi
 2988 0044 4023     		movhi	r3, #64
 2989 0046 5360     		strhi	r3, [r2, #4]
 2990 0048 E7E7     		b	.L291
 2991              	.L294:
 2992              	.LBE639:
 2993              		.loc 1 1190 0
 2994 004a 036D     		ldr	r3, [r0, #80]
 2995 004c 03EB4111 		add	r1, r3, r1, lsl #5
 2996              	.LVL289:
 2997 0050 4FF40023 		mov	r3, #524288
 2998 0054 C1F81039 		str	r3, [r1, #2320]
 2999 0058 ECE7     		b	.L288
 3000              	.LVL290:
 3001              	.L296:
 3002              		.loc 1 1202 0
 3003 005a FFF7FEFF 		bl	__stack_chk_fail
 3004              	.LVL291:
 3005              	.L298:
 3006 005e 00BF     		.align	2
 3007              	.L297:
 3008 0060 00000000 		.word	__stack_chk_guard
 3009              		.cfi_endproc
 3010              	.LFE285:
 3011              		.size	usb_lld_prepare_transmit, .-usb_lld_prepare_transmit
 3012              		.section	.text.otg_epin_handler.constprop.8,"ax",%progbits
 3013              		.align	1
 3014              		.p2align 4,,15
 3015              		.syntax unified
 3016              		.thumb
 3017              		.thumb_func
 3018              		.fpu fpv4-sp-d16
 3019              		.type	otg_epin_handler.constprop.8, %function
 3020              	otg_epin_handler.constprop.8:
 3021              	.LFB299:
ARM GAS  C:\Users\Moi\AppData\Local\Temp\ccFTZZQE.s 			page 54


 3022              		.loc 1 533 0
 3023              		.cfi_startproc
 3024              		@ args = 0, pretend = 0, frame = 8
 3025              		@ frame_needed = 0, uses_anonymous_args = 0
 3026              	.LVL292:
 3027 0000 2DE9F043 		push	{r4, r5, r6, r7, r8, r9, lr}
 3028              		.cfi_def_cfa_offset 28
 3029              		.cfi_offset 4, -28
 3030              		.cfi_offset 5, -24
 3031              		.cfi_offset 6, -20
 3032              		.cfi_offset 7, -16
 3033              		.cfi_offset 8, -12
 3034              		.cfi_offset 9, -8
 3035              		.cfi_offset 14, -4
 3036              		.loc 1 534 0
 3037 0004 3E4E     		ldr	r6, .L320
 3038              		.loc 1 533 0
 3039 0006 DFF80081 		ldr	r8, .L320+8
 3040              		.loc 1 534 0
 3041 000a 356D     		ldr	r5, [r6, #80]
 3042              		.loc 1 533 0
 3043 000c D8F80030 		ldr	r3, [r8]
 3044 0010 83B0     		sub	sp, sp, #12
 3045              		.cfi_def_cfa_offset 40
 3046              		.loc 1 533 0
 3047 0012 0746     		mov	r7, r0
 3048 0014 0193     		str	r3, [sp, #4]
 3049              	.LVL293:
 3050              		.loc 1 535 0
 3051 0016 05EB4013 		add	r3, r5, r0, lsl #5
 3052 001a D3F80849 		ldr	r4, [r3, #2312]
 3053              	.LVL294:
 3054              		.loc 1 537 0
 3055 001e C3F80849 		str	r4, [r3, #2312]
 3056              		.loc 1 542 0
 3057 0022 E107     		lsls	r1, r4, #31
 3058 0024 15D5     		bpl	.L300
 3059 0026 D5F81038 		ldr	r3, [r5, #2064]
 3060 002a DA07     		lsls	r2, r3, #31
 3061 002c 11D5     		bpl	.L300
 3062              	.LBB640:
 3063              		.loc 1 544 0
 3064 002e 06EB8003 		add	r3, r6, r0, lsl #2
 3065 0032 D968     		ldr	r1, [r3, #12]
 3066 0034 4B69     		ldr	r3, [r1, #20]
 3067              	.LVL295:
 3068              		.loc 1 546 0
 3069 0036 5868     		ldr	r0, [r3, #4]
 3070              	.LVL296:
 3071 0038 1A69     		ldr	r2, [r3, #16]
 3072 003a 9042     		cmp	r0, r2
 3073 003c 36D3     		bcc	.L317
 3074              		.loc 1 559 0
 3075 003e 3389     		ldrh	r3, [r6, #8]
 3076              	.LVL297:
 3077 0040 0122     		movs	r2, #1
 3078 0042 BA40     		lsls	r2, r2, r7
ARM GAS  C:\Users\Moi\AppData\Local\Temp\ccFTZZQE.s 			page 55


 3079 0044 23EA0203 		bic	r3, r3, r2
 3080 0048 3381     		strh	r3, [r6, #8]	@ movhi
 3081 004a 8B68     		ldr	r3, [r1, #8]
 3082 004c 3046     		mov	r0, r6
 3083 004e 3946     		mov	r1, r7
 3084              	.LVL298:
 3085 0050 9847     		blx	r3
 3086              	.LVL299:
 3087              	.L300:
 3088              	.LBE640:
 3089              		.loc 1 562 0
 3090 0052 2306     		lsls	r3, r4, #24
 3091 0054 06D5     		bpl	.L299
 3092              		.loc 1 563 0
 3093 0056 0123     		movs	r3, #1
 3094 0058 D5F83428 		ldr	r2, [r5, #2100]
 3095 005c 03FA07F7 		lsl	r7, r3, r7
 3096              		.loc 1 562 0
 3097 0060 1742     		tst	r7, r2
 3098 0062 07D1     		bne	.L318
 3099              	.L299:
 3100              		.loc 1 571 0
 3101 0064 019A     		ldr	r2, [sp, #4]
 3102 0066 D8F80030 		ldr	r3, [r8]
 3103 006a 9A42     		cmp	r2, r3
 3104 006c 45D1     		bne	.L319
 3105 006e 03B0     		add	sp, sp, #12
 3106              		.cfi_remember_state
 3107              		.cfi_def_cfa_offset 28
 3108              		@ sp needed
 3109 0070 BDE8F083 		pop	{r4, r5, r6, r7, r8, r9, pc}
 3110              	.LVL300:
 3111              	.L318:
 3112              		.cfi_restore_state
 3113              	.LBB657:
 3114              	.LBB658:
 3115              	.LBB659:
 3116              	.LBB660:
 3117              	.LBB661:
 3118              	.LBB662:
 3119              	.LBB663:
 3120              		.loc 3 546 0
 3121 0074 2023     		movs	r3, #32
 3122              		.syntax unified
 3123              	@ 546 ".//ChibiOS//os/ext/CMSIS/include/core_cmFunc.h" 1
 3124 0076 83F31188 		MSR basepri, r3
 3125              	@ 0 "" 2
 3126              	.LVL301:
 3127              		.thumb
 3128              		.syntax unified
 3129              	.LBE663:
 3130              	.LBE662:
 3131              	.LBE661:
 3132              	.LBE660:
 3133              		.loc 4 389 0
 3134 007a FFF7FEFF 		bl	_stats_start_measure_crit_isr
 3135              	.LVL302:
ARM GAS  C:\Users\Moi\AppData\Local\Temp\ccFTZZQE.s 			page 56


 3136              		.loc 4 390 0
 3137 007e FFF7FEFF 		bl	_dbg_check_lock_from_isr
 3138              	.LVL303:
 3139              	.LBE659:
 3140              	.LBE658:
 3141              	.LBE657:
 3142              		.loc 1 567 0
 3143 0082 D5F83428 		ldr	r2, [r5, #2100]
 3144              		.loc 1 566 0
 3145 0086 F36D     		ldr	r3, [r6, #92]
 3146              	.LBB664:
 3147              	.LBB665:
 3148              		.loc 5 682 0
 3149 0088 1E48     		ldr	r0, .L320+4
 3150              	.LBE665:
 3151              	.LBE664:
 3152              		.loc 1 567 0
 3153 008a 22EA0702 		bic	r2, r2, r7
 3154 008e C5F83428 		str	r2, [r5, #2100]
 3155              	.LVL304:
 3156              		.loc 1 566 0
 3157 0092 1F43     		orrs	r7, r7, r3
 3158              	.LBB668:
 3159              	.LBB666:
 3160              		.loc 5 682 0
 3161 0094 0021     		movs	r1, #0
 3162              	.LBE666:
 3163              	.LBE668:
 3164              		.loc 1 566 0
 3165 0096 F765     		str	r7, [r6, #92]
 3166              	.LBB669:
 3167              	.LBB667:
 3168              		.loc 5 682 0
 3169 0098 FFF7FEFF 		bl	chThdResumeI
 3170              	.LVL305:
 3171              	.LBE667:
 3172              	.LBE669:
 3173              	.LBB670:
 3174              	.LBB671:
 3175              	.LBB672:
 3176              		.loc 4 408 0
 3177 009c FFF7FEFF 		bl	_dbg_check_unlock_from_isr
 3178              	.LVL306:
 3179              		.loc 4 409 0
 3180 00a0 FFF7FEFF 		bl	_stats_stop_measure_crit_isr
 3181              	.LVL307:
 3182              	.LBB673:
 3183              	.LBB674:
 3184              	.LBB675:
 3185              	.LBB676:
 3186              		.loc 3 546 0
 3187 00a4 0023     		movs	r3, #0
 3188              		.syntax unified
 3189              	@ 546 ".//ChibiOS//os/ext/CMSIS/include/core_cmFunc.h" 1
 3190 00a6 83F31188 		MSR basepri, r3
 3191              	@ 0 "" 2
 3192              	.LVL308:
ARM GAS  C:\Users\Moi\AppData\Local\Temp\ccFTZZQE.s 			page 57


 3193              		.thumb
 3194              		.syntax unified
 3195 00aa DBE7     		b	.L299
 3196              	.LVL309:
 3197              	.L317:
 3198              	.LBE676:
 3199              	.LBE675:
 3200              	.LBE674:
 3201              	.LBE673:
 3202              	.LBE672:
 3203              	.LBE671:
 3204              	.LBE670:
 3205              	.LBB677:
 3206              		.loc 1 550 0
 3207 00ac 121A     		subs	r2, r2, r0
 3208              		.loc 1 551 0
 3209 00ae 4FF00009 		mov	r9, #0
 3210 00b2 C3E90129 		strd	r2, r9, [r3, #4]
 3211              		.loc 1 552 0
 3212 00b6 3946     		mov	r1, r7
 3213 00b8 3046     		mov	r0, r6
 3214 00ba FFF7FEFF 		bl	usb_lld_prepare_transmit
 3215              	.LVL310:
 3216              	.LBB641:
 3217              	.LBB642:
 3218              	.LBB643:
 3219              	.LBB644:
 3220              	.LBB645:
 3221              	.LBB646:
 3222              	.LBB647:
 3223              		.loc 3 546 0
 3224 00be 2023     		movs	r3, #32
 3225              		.syntax unified
 3226              	@ 546 ".//ChibiOS//os/ext/CMSIS/include/core_cmFunc.h" 1
 3227 00c0 83F31188 		MSR basepri, r3
 3228              	@ 0 "" 2
 3229              	.LVL311:
 3230              		.thumb
 3231              		.syntax unified
 3232              	.LBE647:
 3233              	.LBE646:
 3234              	.LBE645:
 3235              	.LBE644:
 3236              		.loc 4 389 0
 3237 00c4 FFF7FEFF 		bl	_stats_start_measure_crit_isr
 3238              	.LVL312:
 3239              		.loc 4 390 0
 3240 00c8 FFF7FEFF 		bl	_dbg_check_lock_from_isr
 3241              	.LVL313:
 3242              	.LBE643:
 3243              	.LBE642:
 3244              	.LBE641:
 3245              	.LBB648:
 3246              	.LBB649:
 3247              		.loc 1 1227 0
 3248 00cc 326D     		ldr	r2, [r6, #80]
 3249 00ce 02EB4710 		add	r0, r2, r7, lsl #5
ARM GAS  C:\Users\Moi\AppData\Local\Temp\ccFTZZQE.s 			page 58


 3250              		.loc 1 1228 0
 3251 00d2 0123     		movs	r3, #1
 3252              		.loc 1 1227 0
 3253 00d4 D0F80019 		ldr	r1, [r0, #2304]
 3254 00d8 41F00441 		orr	r1, r1, #-2080374784
 3255 00dc C0F80019 		str	r1, [r0, #2304]
 3256              		.loc 1 1228 0
 3257 00e0 D2F83418 		ldr	r1, [r2, #2100]
 3258 00e4 BB40     		lsls	r3, r3, r7
 3259 00e6 0B43     		orrs	r3, r3, r1
 3260 00e8 C2F83438 		str	r3, [r2, #2100]
 3261              	.LVL314:
 3262              	.LBE649:
 3263              	.LBE648:
 3264              	.LBB650:
 3265              	.LBB651:
 3266              	.LBB652:
 3267              		.loc 4 408 0
 3268 00ec FFF7FEFF 		bl	_dbg_check_unlock_from_isr
 3269              	.LVL315:
 3270              		.loc 4 409 0
 3271 00f0 FFF7FEFF 		bl	_stats_stop_measure_crit_isr
 3272              	.LVL316:
 3273              	.LBB653:
 3274              	.LBB654:
 3275              	.LBB655:
 3276              	.LBB656:
 3277              		.loc 3 546 0
 3278              		.syntax unified
 3279              	@ 546 ".//ChibiOS//os/ext/CMSIS/include/core_cmFunc.h" 1
 3280 00f4 89F31188 		MSR basepri, r9
 3281              	@ 0 "" 2
 3282              	.LVL317:
 3283              		.thumb
 3284              		.syntax unified
 3285 00f8 ABE7     		b	.L300
 3286              	.L319:
 3287              	.LBE656:
 3288              	.LBE655:
 3289              	.LBE654:
 3290              	.LBE653:
 3291              	.LBE652:
 3292              	.LBE651:
 3293              	.LBE650:
 3294              	.LBE677:
 3295              		.loc 1 571 0
 3296 00fa FFF7FEFF 		bl	__stack_chk_fail
 3297              	.LVL318:
 3298              	.L321:
 3299 00fe 00BF     		.align	2
 3300              	.L320:
 3301 0100 00000000 		.word	.LANCHOR1
 3302 0104 60000000 		.word	.LANCHOR1+96
 3303 0108 00000000 		.word	__stack_chk_guard
 3304              		.cfi_endproc
 3305              	.LFE299:
 3306              		.size	otg_epin_handler.constprop.8, .-otg_epin_handler.constprop.8
ARM GAS  C:\Users\Moi\AppData\Local\Temp\ccFTZZQE.s 			page 59


 3307              		.section	.text.Vector14C,"ax",%progbits
 3308              		.align	1
 3309              		.p2align 4,,15
 3310              		.global	Vector14C
 3311              		.syntax unified
 3312              		.thumb
 3313              		.thumb_func
 3314              		.fpu fpv4-sp-d16
 3315              		.type	Vector14C, %function
 3316              	Vector14C:
 3317              	.LFB273:
 3318              		.loc 1 706 0
 3319              		.cfi_startproc
 3320              		@ args = 0, pretend = 0, frame = 8
 3321              		@ frame_needed = 0, uses_anonymous_args = 0
 3322 0000 F0B5     		push	{r4, r5, r6, r7, lr}
 3323              		.cfi_def_cfa_offset 20
 3324              		.cfi_offset 4, -20
 3325              		.cfi_offset 5, -16
 3326              		.cfi_offset 6, -12
 3327              		.cfi_offset 7, -8
 3328              		.cfi_offset 14, -4
 3329 0002 454F     		ldr	r7, .L394
 3330              	.LBB696:
 3331              	.LBB697:
 3332              		.loc 1 624 0
 3333 0004 454D     		ldr	r5, .L394+4
 3334              	.LBE697:
 3335              	.LBE696:
 3336              		.loc 1 706 0
 3337 0006 3B68     		ldr	r3, [r7]
 3338 0008 83B0     		sub	sp, sp, #12
 3339              		.cfi_def_cfa_offset 32
 3340              		.loc 1 706 0
 3341 000a 0193     		str	r3, [sp, #4]
 3342              		.loc 1 708 0
 3343 000c FFF7FEFF 		bl	_stats_increase_irq
 3344              	.LVL319:
 3345 0010 FFF7FEFF 		bl	_dbg_check_enter_isr
 3346              	.LVL320:
 3347              	.LBB718:
 3348              	.LBB716:
 3349              		.loc 1 624 0
 3350 0014 2E6D     		ldr	r6, [r5, #80]
 3351              	.LVL321:
 3352              		.loc 1 627 0
 3353 0016 7469     		ldr	r4, [r6, #20]
 3354              	.LVL322:
 3355              		.loc 1 628 0
 3356 0018 B369     		ldr	r3, [r6, #24]
 3357 001a 1C40     		ands	r4, r4, r3
 3358              	.LVL323:
 3359              		.loc 1 632 0
 3360 001c E104     		lsls	r1, r4, #19
 3361              		.loc 1 629 0
 3362 001e 7461     		str	r4, [r6, #20]
 3363              		.loc 1 632 0
ARM GAS  C:\Users\Moi\AppData\Local\Temp\ccFTZZQE.s 			page 60


 3364 0020 44D4     		bmi	.L383
 3365              	.L324:
 3366              		.loc 1 638 0
 3367 0022 A204     		lsls	r2, r4, #18
 3368              		.loc 1 639 0
 3369 0024 48BF     		it	mi
 3370 0026 D6F80838 		ldrmi	r3, [r6, #2056]
 3371              		.loc 1 643 0
 3372 002a 2307     		lsls	r3, r4, #28
 3373 002c 04D5     		bpl	.L327
 3374              		.loc 1 644 0
 3375 002e 6B68     		ldr	r3, [r5, #4]
 3376 0030 DB68     		ldr	r3, [r3, #12]
 3377 0032 0BB1     		cbz	r3, .L327
 3378 0034 3948     		ldr	r0, .L394+4
 3379 0036 9847     		blx	r3
 3380              	.LVL324:
 3381              	.L327:
 3382              		.loc 1 648 0
 3383 0038 E506     		lsls	r5, r4, #27
 3384 003a 20D4     		bmi	.L384
 3385              	.L328:
 3386              		.loc 1 659 0
 3387 003c 6003     		lsls	r0, r4, #13
 3388              		.loc 1 658 0
 3389 003e D6F81858 		ldr	r5, [r6, #2072]
 3390              	.LVL325:
 3391              		.loc 1 659 0
 3392 0042 07D5     		bpl	.L330
 3393              		.loc 1 660 0
 3394 0044 E907     		lsls	r1, r5, #31
 3395 0046 54D4     		bmi	.L385
 3396              		.loc 1 662 0
 3397 0048 AA07     		lsls	r2, r5, #30
 3398 004a 57D4     		bmi	.L386
 3399              	.L332:
 3400              		.loc 1 664 0
 3401 004c 6B07     		lsls	r3, r5, #29
 3402 004e 5AD4     		bmi	.L387
 3403              	.L333:
 3404              		.loc 1 666 0
 3405 0050 2E07     		lsls	r6, r5, #28
 3406              	.LVL326:
 3407 0052 4AD4     		bmi	.L388
 3408              	.L330:
 3409              		.loc 1 675 0
 3410 0054 2403     		lsls	r4, r4, #12
 3411              	.LVL327:
 3412 0056 07D5     		bpl	.L336
 3413              		.loc 1 676 0
 3414 0058 E803     		lsls	r0, r5, #15
 3415 005a 36D4     		bmi	.L389
 3416              		.loc 1 678 0
 3417 005c A903     		lsls	r1, r5, #14
 3418 005e 39D4     		bmi	.L390
 3419              	.L338:
 3420              		.loc 1 680 0
ARM GAS  C:\Users\Moi\AppData\Local\Temp\ccFTZZQE.s 			page 61


 3421 0060 6A03     		lsls	r2, r5, #13
 3422 0062 3CD4     		bmi	.L391
 3423              	.L339:
 3424              		.loc 1 682 0
 3425 0064 2B03     		lsls	r3, r5, #12
 3426 0066 2CD4     		bmi	.L392
 3427              	.L336:
 3428              	.LVL328:
 3429              	.LBE716:
 3430              	.LBE718:
 3431              		.loc 1 712 0
 3432 0068 FFF7FEFF 		bl	_dbg_check_leave_isr
 3433              	.LVL329:
 3434 006c 019A     		ldr	r2, [sp, #4]
 3435 006e 3B68     		ldr	r3, [r7]
 3436 0070 9A42     		cmp	r2, r3
 3437 0072 4ED1     		bne	.L393
 3438              		.loc 1 713 0
 3439 0074 03B0     		add	sp, sp, #12
 3440              		.cfi_remember_state
 3441              		.cfi_def_cfa_offset 20
 3442              		@ sp needed
 3443 0076 BDE8F040 		pop	{r4, r5, r6, r7, lr}
 3444              		.cfi_restore 14
 3445              		.cfi_restore 7
 3446              		.cfi_restore 6
 3447              		.cfi_restore 5
 3448              		.cfi_restore 4
 3449              		.cfi_def_cfa_offset 0
 3450              		.loc 1 712 0
 3451 007a FFF7FEBF 		b	_port_irq_epilogue
 3452              	.LVL330:
 3453              	.L384:
 3454              		.cfi_restore_state
 3455              	.LBB719:
 3456              	.LBB717:
 3457              	.LBB698:
 3458              	.LBB699:
 3459              	.LBB700:
 3460              	.LBB701:
 3461              	.LBB702:
 3462              	.LBB703:
 3463              	.LBB704:
 3464              		.loc 3 546 0
 3465 007e 2023     		movs	r3, #32
 3466              		.syntax unified
 3467              	@ 546 ".//ChibiOS//os/ext/CMSIS/include/core_cmFunc.h" 1
 3468 0080 83F31188 		MSR basepri, r3
 3469              	@ 0 "" 2
 3470              	.LVL331:
 3471              		.thumb
 3472              		.syntax unified
 3473              	.LBE704:
 3474              	.LBE703:
 3475              	.LBE702:
 3476              	.LBE701:
 3477              		.loc 4 389 0
ARM GAS  C:\Users\Moi\AppData\Local\Temp\ccFTZZQE.s 			page 62


 3478 0084 FFF7FEFF 		bl	_stats_start_measure_crit_isr
 3479              	.LVL332:
 3480              		.loc 4 390 0
 3481 0088 FFF7FEFF 		bl	_dbg_check_lock_from_isr
 3482              	.LVL333:
 3483              	.LBE700:
 3484              	.LBE699:
 3485              	.LBE698:
 3486              		.loc 1 652 0
 3487 008c B369     		ldr	r3, [r6, #24]
 3488              	.LBB705:
 3489              	.LBB706:
 3490              		.loc 5 682 0
 3491 008e 2448     		ldr	r0, .L394+8
 3492              	.LBE706:
 3493              	.LBE705:
 3494              		.loc 1 652 0
 3495 0090 23F01003 		bic	r3, r3, #16
 3496 0094 B361     		str	r3, [r6, #24]
 3497              	.LVL334:
 3498              	.LBB708:
 3499              	.LBB707:
 3500              		.loc 5 682 0
 3501 0096 0021     		movs	r1, #0
 3502 0098 FFF7FEFF 		bl	chThdResumeI
 3503              	.LVL335:
 3504              	.LBE707:
 3505              	.LBE708:
 3506              	.LBB709:
 3507              	.LBB710:
 3508              	.LBB711:
 3509              		.loc 4 408 0
 3510 009c FFF7FEFF 		bl	_dbg_check_unlock_from_isr
 3511              	.LVL336:
 3512              		.loc 4 409 0
 3513 00a0 FFF7FEFF 		bl	_stats_stop_measure_crit_isr
 3514              	.LVL337:
 3515              	.LBB712:
 3516              	.LBB713:
 3517              	.LBB714:
 3518              	.LBB715:
 3519              		.loc 3 546 0
 3520 00a4 0023     		movs	r3, #0
 3521              		.syntax unified
 3522              	@ 546 ".//ChibiOS//os/ext/CMSIS/include/core_cmFunc.h" 1
 3523 00a6 83F31188 		MSR basepri, r3
 3524              	@ 0 "" 2
 3525              	.LVL338:
 3526              		.thumb
 3527              		.syntax unified
 3528 00aa C7E7     		b	.L328
 3529              	.L383:
 3530              	.LBE715:
 3531              	.LBE714:
 3532              	.LBE713:
 3533              	.LBE712:
 3534              	.LBE711:
ARM GAS  C:\Users\Moi\AppData\Local\Temp\ccFTZZQE.s 			page 63


 3535              	.LBE710:
 3536              	.LBE709:
 3537              		.loc 1 633 0
 3538 00ac 2846     		mov	r0, r5
 3539 00ae FFF7FEFF 		bl	_usb_reset
 3540              	.LVL339:
 3541              		.loc 1 634 0
 3542 00b2 6B68     		ldr	r3, [r5, #4]
 3543 00b4 1B68     		ldr	r3, [r3]
 3544 00b6 002B     		cmp	r3, #0
 3545 00b8 B3D0     		beq	.L324
 3546 00ba 0021     		movs	r1, #0
 3547 00bc 2846     		mov	r0, r5
 3548 00be 9847     		blx	r3
 3549              	.LVL340:
 3550 00c0 AFE7     		b	.L324
 3551              	.LVL341:
 3552              	.L392:
 3553              		.loc 1 683 0
 3554 00c2 0320     		movs	r0, #3
 3555 00c4 FFF7FEFF 		bl	otg_epout_handler.constprop.7
 3556              	.LVL342:
 3557 00c8 CEE7     		b	.L336
 3558              	.L389:
 3559              		.loc 1 677 0
 3560 00ca 0020     		movs	r0, #0
 3561 00cc FFF7FEFF 		bl	otg_epout_handler.constprop.7
 3562              	.LVL343:
 3563              		.loc 1 678 0
 3564 00d0 A903     		lsls	r1, r5, #14
 3565 00d2 C5D5     		bpl	.L338
 3566              	.L390:
 3567              		.loc 1 679 0
 3568 00d4 0120     		movs	r0, #1
 3569 00d6 FFF7FEFF 		bl	otg_epout_handler.constprop.7
 3570              	.LVL344:
 3571              		.loc 1 680 0
 3572 00da 6A03     		lsls	r2, r5, #13
 3573 00dc C2D5     		bpl	.L339
 3574              	.L391:
 3575              		.loc 1 681 0
 3576 00de 0220     		movs	r0, #2
 3577 00e0 FFF7FEFF 		bl	otg_epout_handler.constprop.7
 3578              	.LVL345:
 3579              		.loc 1 682 0
 3580 00e4 2B03     		lsls	r3, r5, #12
 3581 00e6 BFD5     		bpl	.L336
 3582 00e8 EBE7     		b	.L392
 3583              	.LVL346:
 3584              	.L388:
 3585              		.loc 1 667 0
 3586 00ea 0320     		movs	r0, #3
 3587 00ec FFF7FEFF 		bl	otg_epin_handler.constprop.8
 3588              	.LVL347:
 3589 00f0 B0E7     		b	.L330
 3590              	.LVL348:
 3591              	.L385:
ARM GAS  C:\Users\Moi\AppData\Local\Temp\ccFTZZQE.s 			page 64


 3592              		.loc 1 661 0
 3593 00f2 0020     		movs	r0, #0
 3594 00f4 FFF7FEFF 		bl	otg_epin_handler.constprop.8
 3595              	.LVL349:
 3596              		.loc 1 662 0
 3597 00f8 AA07     		lsls	r2, r5, #30
 3598 00fa A7D5     		bpl	.L332
 3599              	.L386:
 3600              		.loc 1 663 0
 3601 00fc 0120     		movs	r0, #1
 3602 00fe FFF7FEFF 		bl	otg_epin_handler.constprop.8
 3603              	.LVL350:
 3604              		.loc 1 664 0
 3605 0102 6B07     		lsls	r3, r5, #29
 3606 0104 A4D5     		bpl	.L333
 3607              	.L387:
 3608              		.loc 1 665 0
 3609 0106 0220     		movs	r0, #2
 3610 0108 FFF7FEFF 		bl	otg_epin_handler.constprop.8
 3611              	.LVL351:
 3612              		.loc 1 666 0
 3613 010c 2E07     		lsls	r6, r5, #28
 3614              	.LVL352:
 3615 010e A1D5     		bpl	.L330
 3616 0110 EBE7     		b	.L388
 3617              	.LVL353:
 3618              	.L393:
 3619              	.LBE717:
 3620              	.LBE719:
 3621              		.loc 1 712 0
 3622 0112 FFF7FEFF 		bl	__stack_chk_fail
 3623              	.LVL354:
 3624              	.L395:
 3625 0116 00BF     		.align	2
 3626              	.L394:
 3627 0118 00000000 		.word	__stack_chk_guard
 3628 011c 00000000 		.word	.LANCHOR1
 3629 0120 60000000 		.word	.LANCHOR1+96
 3630              		.cfi_endproc
 3631              	.LFE273:
 3632              		.size	Vector14C, .-Vector14C
 3633              		.section	.text.usb_lld_start_out,"ax",%progbits
 3634              		.align	1
 3635              		.p2align 4,,15
 3636              		.global	usb_lld_start_out
 3637              		.syntax unified
 3638              		.thumb
 3639              		.thumb_func
 3640              		.fpu fpv4-sp-d16
 3641              		.type	usb_lld_start_out, %function
 3642              	usb_lld_start_out:
 3643              	.LFB286:
 3644              		.loc 1 1212 0
 3645              		.cfi_startproc
 3646              		@ args = 0, pretend = 0, frame = 8
 3647              		@ frame_needed = 0, uses_anonymous_args = 0
 3648              	.LVL355:
ARM GAS  C:\Users\Moi\AppData\Local\Temp\ccFTZZQE.s 			page 65


 3649 0000 00B5     		push	{lr}
 3650              		.cfi_def_cfa_offset 4
 3651              		.cfi_offset 14, -4
 3652 0002 0B4A     		ldr	r2, .L400
 3653 0004 036D     		ldr	r3, [r0, #80]
 3654 0006 83B0     		sub	sp, sp, #12
 3655              		.cfi_def_cfa_offset 16
 3656 0008 03EB4111 		add	r1, r3, r1, lsl #5
 3657              	.LVL356:
 3658              		.loc 1 1212 0
 3659 000c 1368     		ldr	r3, [r2]
 3660 000e 0193     		str	r3, [sp, #4]
 3661              		.loc 1 1214 0
 3662 0010 D1F8003B 		ldr	r3, [r1, #2816]
 3663 0014 43F08063 		orr	r3, r3, #67108864
 3664 0018 C1F8003B 		str	r3, [r1, #2816]
 3665              		.loc 1 1215 0
 3666 001c 0199     		ldr	r1, [sp, #4]
 3667 001e 1368     		ldr	r3, [r2]
 3668 0020 9942     		cmp	r1, r3
 3669 0022 02D1     		bne	.L399
 3670 0024 03B0     		add	sp, sp, #12
 3671              		.cfi_remember_state
 3672              		.cfi_def_cfa_offset 4
 3673              		@ sp needed
 3674 0026 5DF804FB 		ldr	pc, [sp], #4
 3675              	.L399:
 3676              		.cfi_restore_state
 3677 002a FFF7FEFF 		bl	__stack_chk_fail
 3678              	.LVL357:
 3679              	.L401:
 3680 002e 00BF     		.align	2
 3681              	.L400:
 3682 0030 00000000 		.word	__stack_chk_guard
 3683              		.cfi_endproc
 3684              	.LFE286:
 3685              		.size	usb_lld_start_out, .-usb_lld_start_out
 3686              		.section	.text.usb_lld_start_in,"ax",%progbits
 3687              		.align	1
 3688              		.p2align 4,,15
 3689              		.global	usb_lld_start_in
 3690              		.syntax unified
 3691              		.thumb
 3692              		.thumb_func
 3693              		.fpu fpv4-sp-d16
 3694              		.type	usb_lld_start_in, %function
 3695              	usb_lld_start_in:
 3696              	.LFB287:
 3697              		.loc 1 1225 0
 3698              		.cfi_startproc
 3699              		@ args = 0, pretend = 0, frame = 8
 3700              		@ frame_needed = 0, uses_anonymous_args = 0
 3701              	.LVL358:
 3702 0000 30B5     		push	{r4, r5, lr}
 3703              		.cfi_def_cfa_offset 12
 3704              		.cfi_offset 4, -12
 3705              		.cfi_offset 5, -8
ARM GAS  C:\Users\Moi\AppData\Local\Temp\ccFTZZQE.s 			page 66


 3706              		.cfi_offset 14, -4
 3707 0002 0F4D     		ldr	r5, .L406
 3708 0004 026D     		ldr	r2, [r0, #80]
 3709 0006 2B68     		ldr	r3, [r5]
 3710 0008 83B0     		sub	sp, sp, #12
 3711              		.cfi_def_cfa_offset 24
 3712 000a 02EB4112 		add	r2, r2, r1, lsl #5
 3713              		.loc 1 1225 0
 3714 000e 0193     		str	r3, [sp, #4]
 3715              		.loc 1 1227 0
 3716 0010 D2F80049 		ldr	r4, [r2, #2304]
 3717 0014 44F00444 		orr	r4, r4, #-2080374784
 3718 0018 C2F80049 		str	r4, [r2, #2304]
 3719              		.loc 1 1228 0
 3720 001c 026D     		ldr	r2, [r0, #80]
 3721 001e 0123     		movs	r3, #1
 3722 0020 D2F83408 		ldr	r0, [r2, #2100]
 3723              	.LVL359:
 3724 0024 03FA01F1 		lsl	r1, r3, r1
 3725              	.LVL360:
 3726 0028 0143     		orrs	r1, r1, r0
 3727 002a C2F83418 		str	r1, [r2, #2100]
 3728              		.loc 1 1229 0
 3729 002e 019A     		ldr	r2, [sp, #4]
 3730 0030 2B68     		ldr	r3, [r5]
 3731 0032 9A42     		cmp	r2, r3
 3732 0034 01D1     		bne	.L405
 3733 0036 03B0     		add	sp, sp, #12
 3734              		.cfi_remember_state
 3735              		.cfi_def_cfa_offset 12
 3736              		@ sp needed
 3737 0038 30BD     		pop	{r4, r5, pc}
 3738              	.L405:
 3739              		.cfi_restore_state
 3740 003a FFF7FEFF 		bl	__stack_chk_fail
 3741              	.LVL361:
 3742              	.L407:
 3743 003e 00BF     		.align	2
 3744              	.L406:
 3745 0040 00000000 		.word	__stack_chk_guard
 3746              		.cfi_endproc
 3747              	.LFE287:
 3748              		.size	usb_lld_start_in, .-usb_lld_start_in
 3749              		.section	.text.usb_lld_stall_out,"ax",%progbits
 3750              		.align	1
 3751              		.p2align 4,,15
 3752              		.global	usb_lld_stall_out
 3753              		.syntax unified
 3754              		.thumb
 3755              		.thumb_func
 3756              		.fpu fpv4-sp-d16
 3757              		.type	usb_lld_stall_out, %function
 3758              	usb_lld_stall_out:
 3759              	.LFB288:
 3760              		.loc 1 1239 0
 3761              		.cfi_startproc
 3762              		@ args = 0, pretend = 0, frame = 8
ARM GAS  C:\Users\Moi\AppData\Local\Temp\ccFTZZQE.s 			page 67


 3763              		@ frame_needed = 0, uses_anonymous_args = 0
 3764              	.LVL362:
 3765 0000 00B5     		push	{lr}
 3766              		.cfi_def_cfa_offset 4
 3767              		.cfi_offset 14, -4
 3768 0002 0B4A     		ldr	r2, .L412
 3769 0004 036D     		ldr	r3, [r0, #80]
 3770 0006 83B0     		sub	sp, sp, #12
 3771              		.cfi_def_cfa_offset 16
 3772 0008 03EB4111 		add	r1, r3, r1, lsl #5
 3773              	.LVL363:
 3774              		.loc 1 1239 0
 3775 000c 1368     		ldr	r3, [r2]
 3776 000e 0193     		str	r3, [sp, #4]
 3777              		.loc 1 1241 0
 3778 0010 D1F8003B 		ldr	r3, [r1, #2816]
 3779 0014 43F40013 		orr	r3, r3, #2097152
 3780 0018 C1F8003B 		str	r3, [r1, #2816]
 3781              		.loc 1 1242 0
 3782 001c 0199     		ldr	r1, [sp, #4]
 3783 001e 1368     		ldr	r3, [r2]
 3784 0020 9942     		cmp	r1, r3
 3785 0022 02D1     		bne	.L411
 3786 0024 03B0     		add	sp, sp, #12
 3787              		.cfi_remember_state
 3788              		.cfi_def_cfa_offset 4
 3789              		@ sp needed
 3790 0026 5DF804FB 		ldr	pc, [sp], #4
 3791              	.L411:
 3792              		.cfi_restore_state
 3793 002a FFF7FEFF 		bl	__stack_chk_fail
 3794              	.LVL364:
 3795              	.L413:
 3796 002e 00BF     		.align	2
 3797              	.L412:
 3798 0030 00000000 		.word	__stack_chk_guard
 3799              		.cfi_endproc
 3800              	.LFE288:
 3801              		.size	usb_lld_stall_out, .-usb_lld_stall_out
 3802              		.section	.text.usb_lld_stall_in,"ax",%progbits
 3803              		.align	1
 3804              		.p2align 4,,15
 3805              		.global	usb_lld_stall_in
 3806              		.syntax unified
 3807              		.thumb
 3808              		.thumb_func
 3809              		.fpu fpv4-sp-d16
 3810              		.type	usb_lld_stall_in, %function
 3811              	usb_lld_stall_in:
 3812              	.LFB289:
 3813              		.loc 1 1252 0
 3814              		.cfi_startproc
 3815              		@ args = 0, pretend = 0, frame = 8
 3816              		@ frame_needed = 0, uses_anonymous_args = 0
 3817              	.LVL365:
 3818 0000 00B5     		push	{lr}
 3819              		.cfi_def_cfa_offset 4
ARM GAS  C:\Users\Moi\AppData\Local\Temp\ccFTZZQE.s 			page 68


 3820              		.cfi_offset 14, -4
 3821 0002 0B4A     		ldr	r2, .L418
 3822 0004 036D     		ldr	r3, [r0, #80]
 3823 0006 83B0     		sub	sp, sp, #12
 3824              		.cfi_def_cfa_offset 16
 3825 0008 03EB4111 		add	r1, r3, r1, lsl #5
 3826              	.LVL366:
 3827              		.loc 1 1252 0
 3828 000c 1368     		ldr	r3, [r2]
 3829 000e 0193     		str	r3, [sp, #4]
 3830              		.loc 1 1254 0
 3831 0010 D1F80039 		ldr	r3, [r1, #2304]
 3832 0014 43F40013 		orr	r3, r3, #2097152
 3833 0018 C1F80039 		str	r3, [r1, #2304]
 3834              		.loc 1 1255 0
 3835 001c 0199     		ldr	r1, [sp, #4]
 3836 001e 1368     		ldr	r3, [r2]
 3837 0020 9942     		cmp	r1, r3
 3838 0022 02D1     		bne	.L417
 3839 0024 03B0     		add	sp, sp, #12
 3840              		.cfi_remember_state
 3841              		.cfi_def_cfa_offset 4
 3842              		@ sp needed
 3843 0026 5DF804FB 		ldr	pc, [sp], #4
 3844              	.L417:
 3845              		.cfi_restore_state
 3846 002a FFF7FEFF 		bl	__stack_chk_fail
 3847              	.LVL367:
 3848              	.L419:
 3849 002e 00BF     		.align	2
 3850              	.L418:
 3851 0030 00000000 		.word	__stack_chk_guard
 3852              		.cfi_endproc
 3853              	.LFE289:
 3854              		.size	usb_lld_stall_in, .-usb_lld_stall_in
 3855              		.section	.text.usb_lld_clear_out,"ax",%progbits
 3856              		.align	1
 3857              		.p2align 4,,15
 3858              		.global	usb_lld_clear_out
 3859              		.syntax unified
 3860              		.thumb
 3861              		.thumb_func
 3862              		.fpu fpv4-sp-d16
 3863              		.type	usb_lld_clear_out, %function
 3864              	usb_lld_clear_out:
 3865              	.LFB290:
 3866              		.loc 1 1265 0
 3867              		.cfi_startproc
 3868              		@ args = 0, pretend = 0, frame = 8
 3869              		@ frame_needed = 0, uses_anonymous_args = 0
 3870              	.LVL368:
 3871 0000 00B5     		push	{lr}
 3872              		.cfi_def_cfa_offset 4
 3873              		.cfi_offset 14, -4
 3874 0002 0B4A     		ldr	r2, .L424
 3875 0004 036D     		ldr	r3, [r0, #80]
 3876 0006 83B0     		sub	sp, sp, #12
ARM GAS  C:\Users\Moi\AppData\Local\Temp\ccFTZZQE.s 			page 69


 3877              		.cfi_def_cfa_offset 16
 3878 0008 03EB4111 		add	r1, r3, r1, lsl #5
 3879              	.LVL369:
 3880              		.loc 1 1265 0
 3881 000c 1368     		ldr	r3, [r2]
 3882 000e 0193     		str	r3, [sp, #4]
 3883              		.loc 1 1267 0
 3884 0010 D1F8003B 		ldr	r3, [r1, #2816]
 3885 0014 23F40013 		bic	r3, r3, #2097152
 3886 0018 C1F8003B 		str	r3, [r1, #2816]
 3887              		.loc 1 1268 0
 3888 001c 0199     		ldr	r1, [sp, #4]
 3889 001e 1368     		ldr	r3, [r2]
 3890 0020 9942     		cmp	r1, r3
 3891 0022 02D1     		bne	.L423
 3892 0024 03B0     		add	sp, sp, #12
 3893              		.cfi_remember_state
 3894              		.cfi_def_cfa_offset 4
 3895              		@ sp needed
 3896 0026 5DF804FB 		ldr	pc, [sp], #4
 3897              	.L423:
 3898              		.cfi_restore_state
 3899 002a FFF7FEFF 		bl	__stack_chk_fail
 3900              	.LVL370:
 3901              	.L425:
 3902 002e 00BF     		.align	2
 3903              	.L424:
 3904 0030 00000000 		.word	__stack_chk_guard
 3905              		.cfi_endproc
 3906              	.LFE290:
 3907              		.size	usb_lld_clear_out, .-usb_lld_clear_out
 3908              		.section	.text.usb_lld_clear_in,"ax",%progbits
 3909              		.align	1
 3910              		.p2align 4,,15
 3911              		.global	usb_lld_clear_in
 3912              		.syntax unified
 3913              		.thumb
 3914              		.thumb_func
 3915              		.fpu fpv4-sp-d16
 3916              		.type	usb_lld_clear_in, %function
 3917              	usb_lld_clear_in:
 3918              	.LFB291:
 3919              		.loc 1 1278 0
 3920              		.cfi_startproc
 3921              		@ args = 0, pretend = 0, frame = 8
 3922              		@ frame_needed = 0, uses_anonymous_args = 0
 3923              	.LVL371:
 3924 0000 00B5     		push	{lr}
 3925              		.cfi_def_cfa_offset 4
 3926              		.cfi_offset 14, -4
 3927 0002 0B4A     		ldr	r2, .L430
 3928 0004 036D     		ldr	r3, [r0, #80]
 3929 0006 83B0     		sub	sp, sp, #12
 3930              		.cfi_def_cfa_offset 16
 3931 0008 03EB4111 		add	r1, r3, r1, lsl #5
 3932              	.LVL372:
 3933              		.loc 1 1278 0
ARM GAS  C:\Users\Moi\AppData\Local\Temp\ccFTZZQE.s 			page 70


 3934 000c 1368     		ldr	r3, [r2]
 3935 000e 0193     		str	r3, [sp, #4]
 3936              		.loc 1 1280 0
 3937 0010 D1F80039 		ldr	r3, [r1, #2304]
 3938 0014 23F40013 		bic	r3, r3, #2097152
 3939 0018 C1F80039 		str	r3, [r1, #2304]
 3940              		.loc 1 1281 0
 3941 001c 0199     		ldr	r1, [sp, #4]
 3942 001e 1368     		ldr	r3, [r2]
 3943 0020 9942     		cmp	r1, r3
 3944 0022 02D1     		bne	.L429
 3945 0024 03B0     		add	sp, sp, #12
 3946              		.cfi_remember_state
 3947              		.cfi_def_cfa_offset 4
 3948              		@ sp needed
 3949 0026 5DF804FB 		ldr	pc, [sp], #4
 3950              	.L429:
 3951              		.cfi_restore_state
 3952 002a FFF7FEFF 		bl	__stack_chk_fail
 3953              	.LVL373:
 3954              	.L431:
 3955 002e 00BF     		.align	2
 3956              	.L430:
 3957 0030 00000000 		.word	__stack_chk_guard
 3958              		.cfi_endproc
 3959              	.LFE291:
 3960              		.size	usb_lld_clear_in, .-usb_lld_clear_in
 3961              		.global	USBD1
 3962              		.section	.bss.USBD1,"aw",%nobits
 3963              		.align	3
 3964              		.set	.LANCHOR1,. + 0
 3965              		.type	USBD1, %object
 3966              		.size	USBD1, 608
 3967              	USBD1:
 3968 0000 00000000 		.space	608
 3968      00000000 
 3968      00000000 
 3968      00000000 
 3968      00000000 
 3969              		.section	.bss.ep0_state,"aw",%nobits
 3970              		.align	2
 3971              		.type	ep0_state, %object
 3972              		.size	ep0_state, 20
 3973              	ep0_state:
 3974 0000 00000000 		.space	20
 3974      00000000 
 3974      00000000 
 3974      00000000 
 3974      00000000 
 3975              		.section	.bss.ep0setup_buffer,"aw",%nobits
 3976              		.align	2
 3977              		.type	ep0setup_buffer, %object
 3978              		.size	ep0setup_buffer, 8
 3979              	ep0setup_buffer:
 3980 0000 00000000 		.space	8
 3980      00000000 
 3981              		.section	.rodata.__func__.10294,"a",%progbits
ARM GAS  C:\Users\Moi\AppData\Local\Temp\ccFTZZQE.s 			page 71


 3982              		.align	2
 3983              		.set	.LANCHOR5,. + 0
 3984              		.type	__func__.10294, %object
 3985              		.size	__func__.10294, 14
 3986              	__func__.10294:
 3987 0000 6F74675F 		.ascii	"otg_ram_alloc\000"
 3987      72616D5F 
 3987      616C6C6F 
 3987      6300
 3988              		.section	.rodata.__func__.7554,"a",%progbits
 3989              		.align	2
 3990              		.set	.LANCHOR0,. + 0
 3991              		.type	__func__.7554, %object
 3992              		.size	__func__.7554, 12
 3993              	__func__.7554:
 3994 0000 63685379 		.ascii	"chSysUnlock\000"
 3994      73556E6C 
 3994      6F636B00 
 3995              		.section	.rodata.__func__.7721,"a",%progbits
 3996              		.align	2
 3997              		.set	.LANCHOR3,. + 0
 3998              		.type	__func__.7721, %object
 3999              		.size	__func__.7721, 12
 4000              	__func__.7721:
 4001 0000 63685468 		.ascii	"chThdStartI\000"
 4001      64537461 
 4001      72744900 
 4002              		.section	.rodata.ep0config,"a",%progbits
 4003              		.align	2
 4004              		.set	.LANCHOR4,. + 0
 4005              		.type	ep0config, %object
 4006              		.size	ep0config, 36
 4007              	ep0config:
 4008 0000 00000000 		.word	0
 4009 0004 00000000 		.word	_usb_ep0setup
 4010 0008 00000000 		.word	_usb_ep0in
 4011 000c 00000000 		.word	_usb_ep0out
 4012 0010 4000     		.short	64
 4013 0012 4000     		.short	64
 4014 0014 00000000 		.word	ep0_state
 4015 0018 00000000 		.word	ep0_state
 4016 001c 0100     		.short	1
 4017 001e 0000     		.space	2
 4018 0020 00000000 		.word	ep0setup_buffer
 4019              		.section	.rodata.fsparams,"a",%progbits
 4020              		.align	2
 4021              		.set	.LANCHOR2,. + 0
 4022              		.type	fsparams, %object
 4023              		.size	fsparams, 12
 4024              	fsparams:
 4025 0000 80000000 		.word	128
 4026 0004 40010000 		.word	320
 4027 0008 03000000 		.word	3
 4028              		.section	.rodata.usb_lld_pump.str1.4,"aMS",%progbits,1
 4029              		.align	2
 4030              	.LC0:
 4031 0000 7573625F 		.ascii	"usb_lld_pump\000"
ARM GAS  C:\Users\Moi\AppData\Local\Temp\ccFTZZQE.s 			page 72


 4031      6C6C645F 
 4031      70756D70 
 4031      00
 4032              		.text
 4033              	.Letext0:
 4034              		.file 7 "c:\\users\\moi\\documents\\_microinfo\\epuck-eclipse\\tools\\gcc-arm-none-eabi-7-2017-q4-
 4035              		.file 8 "c:\\users\\moi\\documents\\_microinfo\\epuck-eclipse\\tools\\gcc-arm-none-eabi-7-2017-q4-
 4036              		.file 9 "c:\\users\\moi\\documents\\_microinfo\\epuck-eclipse\\tools\\gcc-arm-none-eabi-7-2017-q4-
 4037              		.file 10 "c:\\users\\moi\\documents\\_microinfo\\epuck-eclipse\\tools\\gcc-arm-none-eabi-7-2017-q4
 4038              		.file 11 "c:\\users\\moi\\documents\\_microinfo\\epuck-eclipse\\tools\\gcc-arm-none-eabi-7-2017-q4
 4039              		.file 12 "c:\\users\\moi\\documents\\_microinfo\\epuck-eclipse\\tools\\gcc-arm-none-eabi-7-2017-q4
 4040              		.file 13 ".//ChibiOS//os/rt/ports/ARMCMx/compilers/GCC/chtypes.h"
 4041              		.file 14 ".//ChibiOS//os/rt/include/chsystypes.h"
 4042              		.file 15 ".//ChibiOS//os/rt/include/chschd.h"
 4043              		.file 16 ".//ChibiOS//os/ext/CMSIS/include/core_cm4.h"
 4044              		.file 17 ".//ChibiOS//os/ext/CMSIS/ST/system_stm32f4xx.h"
 4045              		.file 18 ".//ChibiOS//os/ext/CMSIS/ST/stm32f407xx.h"
 4046              		.file 19 ".//ChibiOS//os/rt/ports/ARMCMx/chcore.h"
 4047              		.file 20 ".//ChibiOS//os/rt/ports/ARMCMx/chcore_v7m.h"
 4048              		.file 21 ".//ChibiOS//os/rt/include/chdebug.h"
 4049              		.file 22 ".//ChibiOS//os/rt/include/chtm.h"
 4050              		.file 23 ".//ChibiOS//os/rt/include/chstats.h"
 4051              		.file 24 ".//ChibiOS//os/rt/include/chsem.h"
 4052              		.file 25 ".//ChibiOS//os/rt/include/chmtx.h"
 4053              		.file 26 ".//ChibiOS//os/rt/include/chevents.h"
 4054              		.file 27 ".//ChibiOS//os/rt/include/chqueues.h"
 4055              		.file 28 ".//ChibiOS//os/hal/ports/STM32/STM32F4xx/stm32_dma.h"
 4056              		.file 29 ".//ChibiOS//os/hal/include/hal_ioblock.h"
 4057              		.file 30 ".//ChibiOS//os/hal/ports/STM32/LLD/GPIOv2/pal_lld.h"
 4058              		.file 31 ".//ChibiOS//os/hal/include/adc.h"
 4059              		.file 32 ".//ChibiOS//os/hal/ports/STM32/STM32F4xx/adc_lld.h"
 4060              		.file 33 ".//ChibiOS//os/hal/include/can.h"
 4061              		.file 34 ".//ChibiOS//os/hal/ports/STM32/LLD/can_lld.h"
 4062              		.file 35 ".//ChibiOS//os/hal/include/dac.h"
 4063              		.file 36 ".//ChibiOS//os/hal/ports/STM32/LLD/DACv1/dac_lld.h"
 4064              		.file 37 ".//ChibiOS//os/hal/include/ext.h"
 4065              		.file 38 ".//ChibiOS//os/hal/ports/STM32/LLD/ext_lld.h"
 4066              		.file 39 ".//ChibiOS//os/hal/include/gpt.h"
 4067              		.file 40 ".//ChibiOS//os/hal/ports/STM32/LLD/TIMv1/gpt_lld.h"
 4068              		.file 41 ".//ChibiOS//os/hal/ports/STM32/LLD/TIMv1/stm32_tim.h"
 4069              		.file 42 ".//ChibiOS//os/hal/include/i2c.h"
 4070              		.file 43 ".//ChibiOS//os/hal/ports/STM32/LLD/I2Cv1/i2c_lld.h"
 4071              		.file 44 ".//ChibiOS//os/hal/include/i2s.h"
 4072              		.file 45 ".//ChibiOS//os/hal/ports/STM32/LLD/SPIv1/i2s_lld.h"
 4073              		.file 46 ".//ChibiOS//os/hal/include/pwm.h"
 4074              		.file 47 ".//ChibiOS//os/hal/ports/STM32/LLD/TIMv1/pwm_lld.h"
 4075              		.file 48 ".//ChibiOS//os/hal/include/serial.h"
 4076              		.file 49 ".//ChibiOS//os/hal/ports/STM32/LLD/USARTv1/serial_lld.h"
 4077              		.file 50 ".//ChibiOS//os/hal/include/sdc.h"
 4078              		.file 51 ".//ChibiOS//os/hal/ports/STM32/LLD/sdc_lld.h"
 4079              		.file 52 ".//ChibiOS//os/hal/include/spi.h"
 4080              		.file 53 ".//ChibiOS//os/hal/ports/STM32/LLD/SPIv1/spi_lld.h"
 4081              		.file 54 ".//ChibiOS//os/hal/include/usb.h"
 4082              		.file 55 ".//ChibiOS//os/hal/ports/STM32/LLD/OTGv1/usb_lld.h"
 4083              		.file 56 ".//ChibiOS//os/hal/ports/STM32/LLD/OTGv1/stm32_otg.h"
 4084              		.file 57 ".//ChibiOS//os/hal/ports/common/ARMCMx/nvic.h"
