ARM GAS  C:\Users\Moi\AppData\Local\Temp\ccD2ByPF.s 			page 1


   1              		.cpu cortex-m4
   2              		.eabi_attribute 27, 1
   3              		.eabi_attribute 28, 1
   4              		.eabi_attribute 20, 1
   5              		.eabi_attribute 21, 1
   6              		.eabi_attribute 23, 3
   7              		.eabi_attribute 24, 1
   8              		.eabi_attribute 25, 1
   9              		.eabi_attribute 26, 1
  10              		.eabi_attribute 30, 2
  11              		.eabi_attribute 34, 1
  12              		.eabi_attribute 18, 4
  13              		.file	"vectors.c"
  14              		.text
  15              	.Ltext0:
  16              		.cfi_sections	.debug_frame
  17              		.section	.text._unhandled_exception,"ax",%progbits
  18              		.align	1
  19              		.p2align 4,,15
  20              		.global	_unhandled_exception
  21              		.syntax unified
  22              		.thumb
  23              		.thumb_func
  24              		.fpu fpv4-sp-d16
  25              		.type	_unhandled_exception, %function
  26              	_unhandled_exception:
  27              	.LFB112:
  28              		.file 1 ".//ChibiOS//os/common/ports/ARMCMx/compilers/GCC/vectors.c"
  29              		.loc 1 79 0
  30              		.cfi_startproc
  31              		@ Volatile: function does not return.
  32              		@ args = 0, pretend = 0, frame = 8
  33              		@ frame_needed = 0, uses_anonymous_args = 0
  34 0000 00B5     		push	{lr}
  35              		.cfi_def_cfa_offset 4
  36              		.cfi_offset 14, -4
  37 0002 044B     		ldr	r3, .L6
  38              		.loc 1 82 0
  39 0004 0448     		ldr	r0, .L6+4
  40              		.loc 1 79 0
  41 0006 1B68     		ldr	r3, [r3]
  42 0008 83B0     		sub	sp, sp, #12
  43              		.cfi_def_cfa_offset 16
  44              		.loc 1 79 0
  45 000a 0193     		str	r3, [sp, #4]
  46              		.loc 1 82 0
  47 000c FFF7FEFF 		bl	chSysHalt
  48              	.LVL0:
  49              	.L2:
  50 0010 FEE7     		b	.L2
  51              	.L7:
  52 0012 00BF     		.align	2
  53              	.L6:
  54 0014 00000000 		.word	__stack_chk_guard
  55 0018 00000000 		.word	.LC0
  56              		.cfi_endproc
  57              	.LFE112:
ARM GAS  C:\Users\Moi\AppData\Local\Temp\ccD2ByPF.s 			page 2


  58              		.size	_unhandled_exception, .-_unhandled_exception
  59              		.weak	Vector1BC
  60              		.thumb_set Vector1BC,_unhandled_exception
  61              		.weak	Vector1B8
  62              		.thumb_set Vector1B8,_unhandled_exception
  63              		.weak	Vector1B4
  64              		.thumb_set Vector1B4,_unhandled_exception
  65              		.weak	Vector1B0
  66              		.thumb_set Vector1B0,_unhandled_exception
  67              		.weak	Vector1AC
  68              		.thumb_set Vector1AC,_unhandled_exception
  69              		.weak	Vector1A8
  70              		.thumb_set Vector1A8,_unhandled_exception
  71              		.weak	Vector1A4
  72              		.thumb_set Vector1A4,_unhandled_exception
  73              		.weak	Vector1A0
  74              		.thumb_set Vector1A0,_unhandled_exception
  75              		.weak	Vector19C
  76              		.thumb_set Vector19C,_unhandled_exception
  77              		.weak	Vector198
  78              		.thumb_set Vector198,_unhandled_exception
  79              		.weak	Vector194
  80              		.thumb_set Vector194,_unhandled_exception
  81              		.weak	Vector190
  82              		.thumb_set Vector190,_unhandled_exception
  83              		.weak	Vector18C
  84              		.thumb_set Vector18C,_unhandled_exception
  85              		.weak	Vector188
  86              		.thumb_set Vector188,_unhandled_exception
  87              		.weak	Vector184
  88              		.thumb_set Vector184,_unhandled_exception
  89              		.weak	Vector180
  90              		.thumb_set Vector180,_unhandled_exception
  91              		.weak	Vector17C
  92              		.thumb_set Vector17C,_unhandled_exception
  93              		.weak	Vector178
  94              		.thumb_set Vector178,_unhandled_exception
  95              		.weak	Vector174
  96              		.thumb_set Vector174,_unhandled_exception
  97              		.weak	Vector170
  98              		.thumb_set Vector170,_unhandled_exception
  99              		.weak	Vector16C
 100              		.thumb_set Vector16C,_unhandled_exception
 101              		.weak	Vector168
 102              		.thumb_set Vector168,_unhandled_exception
 103              		.weak	Vector164
 104              		.thumb_set Vector164,_unhandled_exception
 105              		.weak	Vector160
 106              		.thumb_set Vector160,_unhandled_exception
 107              		.weak	Vector15C
 108              		.thumb_set Vector15C,_unhandled_exception
 109              		.weak	Vector158
 110              		.thumb_set Vector158,_unhandled_exception
 111              		.weak	Vector154
 112              		.thumb_set Vector154,_unhandled_exception
 113              		.weak	Vector150
 114              		.thumb_set Vector150,_unhandled_exception
ARM GAS  C:\Users\Moi\AppData\Local\Temp\ccD2ByPF.s 			page 3


 115              		.weak	Vector14C
 116              		.thumb_set Vector14C,_unhandled_exception
 117              		.weak	Vector148
 118              		.thumb_set Vector148,_unhandled_exception
 119              		.weak	Vector144
 120              		.thumb_set Vector144,_unhandled_exception
 121              		.weak	Vector140
 122              		.thumb_set Vector140,_unhandled_exception
 123              		.weak	Vector13C
 124              		.thumb_set Vector13C,_unhandled_exception
 125              		.weak	Vector138
 126              		.thumb_set Vector138,_unhandled_exception
 127              		.weak	Vector134
 128              		.thumb_set Vector134,_unhandled_exception
 129              		.weak	Vector130
 130              		.thumb_set Vector130,_unhandled_exception
 131              		.weak	Vector12C
 132              		.thumb_set Vector12C,_unhandled_exception
 133              		.weak	Vector128
 134              		.thumb_set Vector128,_unhandled_exception
 135              		.weak	Vector124
 136              		.thumb_set Vector124,_unhandled_exception
 137              		.weak	Vector120
 138              		.thumb_set Vector120,_unhandled_exception
 139              		.weak	Vector11C
 140              		.thumb_set Vector11C,_unhandled_exception
 141              		.weak	Vector118
 142              		.thumb_set Vector118,_unhandled_exception
 143              		.weak	Vector114
 144              		.thumb_set Vector114,_unhandled_exception
 145              		.weak	Vector110
 146              		.thumb_set Vector110,_unhandled_exception
 147              		.weak	Vector10C
 148              		.thumb_set Vector10C,_unhandled_exception
 149              		.weak	Vector108
 150              		.thumb_set Vector108,_unhandled_exception
 151              		.weak	Vector104
 152              		.thumb_set Vector104,_unhandled_exception
 153              		.weak	Vector100
 154              		.thumb_set Vector100,_unhandled_exception
 155              		.weak	VectorFC
 156              		.thumb_set VectorFC,_unhandled_exception
 157              		.weak	VectorF8
 158              		.thumb_set VectorF8,_unhandled_exception
 159              		.weak	VectorF4
 160              		.thumb_set VectorF4,_unhandled_exception
 161              		.weak	VectorF0
 162              		.thumb_set VectorF0,_unhandled_exception
 163              		.weak	VectorEC
 164              		.thumb_set VectorEC,_unhandled_exception
 165              		.weak	VectorE8
 166              		.thumb_set VectorE8,_unhandled_exception
 167              		.weak	VectorE4
 168              		.thumb_set VectorE4,_unhandled_exception
 169              		.weak	VectorE0
 170              		.thumb_set VectorE0,_unhandled_exception
 171              		.weak	VectorDC
ARM GAS  C:\Users\Moi\AppData\Local\Temp\ccD2ByPF.s 			page 4


 172              		.thumb_set VectorDC,_unhandled_exception
 173              		.weak	VectorD8
 174              		.thumb_set VectorD8,_unhandled_exception
 175              		.weak	VectorD4
 176              		.thumb_set VectorD4,_unhandled_exception
 177              		.weak	VectorD0
 178              		.thumb_set VectorD0,_unhandled_exception
 179              		.weak	VectorCC
 180              		.thumb_set VectorCC,_unhandled_exception
 181              		.weak	VectorC8
 182              		.thumb_set VectorC8,_unhandled_exception
 183              		.weak	VectorC4
 184              		.thumb_set VectorC4,_unhandled_exception
 185              		.weak	VectorC0
 186              		.thumb_set VectorC0,_unhandled_exception
 187              		.weak	VectorBC
 188              		.thumb_set VectorBC,_unhandled_exception
 189              		.weak	VectorB8
 190              		.thumb_set VectorB8,_unhandled_exception
 191              		.weak	VectorB4
 192              		.thumb_set VectorB4,_unhandled_exception
 193              		.weak	VectorB0
 194              		.thumb_set VectorB0,_unhandled_exception
 195              		.weak	VectorAC
 196              		.thumb_set VectorAC,_unhandled_exception
 197              		.weak	VectorA8
 198              		.thumb_set VectorA8,_unhandled_exception
 199              		.weak	VectorA4
 200              		.thumb_set VectorA4,_unhandled_exception
 201              		.weak	VectorA0
 202              		.thumb_set VectorA0,_unhandled_exception
 203              		.weak	Vector9C
 204              		.thumb_set Vector9C,_unhandled_exception
 205              		.weak	Vector98
 206              		.thumb_set Vector98,_unhandled_exception
 207              		.weak	Vector94
 208              		.thumb_set Vector94,_unhandled_exception
 209              		.weak	Vector90
 210              		.thumb_set Vector90,_unhandled_exception
 211              		.weak	Vector8C
 212              		.thumb_set Vector8C,_unhandled_exception
 213              		.weak	Vector88
 214              		.thumb_set Vector88,_unhandled_exception
 215              		.weak	Vector84
 216              		.thumb_set Vector84,_unhandled_exception
 217              		.weak	Vector80
 218              		.thumb_set Vector80,_unhandled_exception
 219              		.weak	Vector7C
 220              		.thumb_set Vector7C,_unhandled_exception
 221              		.weak	Vector78
 222              		.thumb_set Vector78,_unhandled_exception
 223              		.weak	Vector74
 224              		.thumb_set Vector74,_unhandled_exception
 225              		.weak	Vector70
 226              		.thumb_set Vector70,_unhandled_exception
 227              		.weak	Vector6C
 228              		.thumb_set Vector6C,_unhandled_exception
ARM GAS  C:\Users\Moi\AppData\Local\Temp\ccD2ByPF.s 			page 5


 229              		.weak	Vector68
 230              		.thumb_set Vector68,_unhandled_exception
 231              		.weak	Vector64
 232              		.thumb_set Vector64,_unhandled_exception
 233              		.weak	Vector60
 234              		.thumb_set Vector60,_unhandled_exception
 235              		.weak	Vector5C
 236              		.thumb_set Vector5C,_unhandled_exception
 237              		.weak	Vector58
 238              		.thumb_set Vector58,_unhandled_exception
 239              		.weak	Vector54
 240              		.thumb_set Vector54,_unhandled_exception
 241              		.weak	Vector50
 242              		.thumb_set Vector50,_unhandled_exception
 243              		.weak	Vector4C
 244              		.thumb_set Vector4C,_unhandled_exception
 245              		.weak	Vector48
 246              		.thumb_set Vector48,_unhandled_exception
 247              		.weak	Vector44
 248              		.thumb_set Vector44,_unhandled_exception
 249              		.weak	Vector40
 250              		.thumb_set Vector40,_unhandled_exception
 251              		.weak	SysTick_Handler
 252              		.thumb_set SysTick_Handler,_unhandled_exception
 253              		.weak	PendSV_Handler
 254              		.thumb_set PendSV_Handler,_unhandled_exception
 255              		.weak	Vector34
 256              		.thumb_set Vector34,_unhandled_exception
 257              		.weak	DebugMon_Handler
 258              		.thumb_set DebugMon_Handler,_unhandled_exception
 259              		.weak	SVC_Handler
 260              		.thumb_set SVC_Handler,_unhandled_exception
 261              		.weak	Vector28
 262              		.thumb_set Vector28,_unhandled_exception
 263              		.weak	Vector24
 264              		.thumb_set Vector24,_unhandled_exception
 265              		.weak	Vector20
 266              		.thumb_set Vector20,_unhandled_exception
 267              		.weak	Vector1C
 268              		.thumb_set Vector1C,_unhandled_exception
 269              		.weak	UsageFault_Handler
 270              		.thumb_set UsageFault_Handler,_unhandled_exception
 271              		.weak	BusFault_Handler
 272              		.thumb_set BusFault_Handler,_unhandled_exception
 273              		.weak	MemManage_Handler
 274              		.thumb_set MemManage_Handler,_unhandled_exception
 275              		.weak	HardFault_Handler
 276              		.thumb_set HardFault_Handler,_unhandled_exception
 277              		.weak	NMI_Handler
 278              		.thumb_set NMI_Handler,_unhandled_exception
 279              		.weak	Reset_Handler
 280              		.thumb_set Reset_Handler,_unhandled_exception
 281              		.global	_vectors
 282              		.section	.rodata._unhandled_exception.str1.4,"aMS",%progbits,1
 283              		.align	2
 284              	.LC0:
 285 0000 756E6861 		.ascii	"unhandled exception\000"
ARM GAS  C:\Users\Moi\AppData\Local\Temp\ccD2ByPF.s 			page 6


 285      6E646C65 
 285      64206578 
 285      63657074 
 285      696F6E00 
 286              		.section	.vectors,"aw",%progbits
 287              		.align	2
 288              		.type	_vectors, %object
 289              		.size	_vectors, 448
 290              	_vectors:
 291 0000 00000000 		.word	__main_stack_end__
 292 0004 00000000 		.word	Reset_Handler
 293 0008 00000000 		.word	NMI_Handler
 294 000c 00000000 		.word	HardFault_Handler
 295 0010 00000000 		.word	MemManage_Handler
 296 0014 00000000 		.word	BusFault_Handler
 297 0018 00000000 		.word	UsageFault_Handler
 298 001c 00000000 		.word	Vector1C
 299 0020 00000000 		.word	Vector20
 300 0024 00000000 		.word	Vector24
 301 0028 00000000 		.word	Vector28
 302 002c 00000000 		.word	SVC_Handler
 303 0030 00000000 		.word	DebugMon_Handler
 304 0034 00000000 		.word	Vector34
 305 0038 00000000 		.word	PendSV_Handler
 306 003c 00000000 		.word	SysTick_Handler
 307 0040 00000000 		.word	Vector40
 308 0044 00000000 		.word	Vector44
 309 0048 00000000 		.word	Vector48
 310 004c 00000000 		.word	Vector4C
 311 0050 00000000 		.word	Vector50
 312 0054 00000000 		.word	Vector54
 313 0058 00000000 		.word	Vector58
 314 005c 00000000 		.word	Vector5C
 315 0060 00000000 		.word	Vector60
 316 0064 00000000 		.word	Vector64
 317 0068 00000000 		.word	Vector68
 318 006c 00000000 		.word	Vector6C
 319 0070 00000000 		.word	Vector70
 320 0074 00000000 		.word	Vector74
 321 0078 00000000 		.word	Vector78
 322 007c 00000000 		.word	Vector7C
 323 0080 00000000 		.word	Vector80
 324 0084 00000000 		.word	Vector84
 325 0088 00000000 		.word	Vector88
 326 008c 00000000 		.word	Vector8C
 327 0090 00000000 		.word	Vector90
 328 0094 00000000 		.word	Vector94
 329 0098 00000000 		.word	Vector98
 330 009c 00000000 		.word	Vector9C
 331 00a0 00000000 		.word	VectorA0
 332 00a4 00000000 		.word	VectorA4
 333 00a8 00000000 		.word	VectorA8
 334 00ac 00000000 		.word	VectorAC
 335 00b0 00000000 		.word	VectorB0
 336 00b4 00000000 		.word	VectorB4
 337 00b8 00000000 		.word	VectorB8
 338 00bc 00000000 		.word	VectorBC
ARM GAS  C:\Users\Moi\AppData\Local\Temp\ccD2ByPF.s 			page 7


 339 00c0 00000000 		.word	VectorC0
 340 00c4 00000000 		.word	VectorC4
 341 00c8 00000000 		.word	VectorC8
 342 00cc 00000000 		.word	VectorCC
 343 00d0 00000000 		.word	VectorD0
 344 00d4 00000000 		.word	VectorD4
 345 00d8 00000000 		.word	VectorD8
 346 00dc 00000000 		.word	VectorDC
 347 00e0 00000000 		.word	VectorE0
 348 00e4 00000000 		.word	VectorE4
 349 00e8 00000000 		.word	VectorE8
 350 00ec 00000000 		.word	VectorEC
 351 00f0 00000000 		.word	VectorF0
 352 00f4 00000000 		.word	VectorF4
 353 00f8 00000000 		.word	VectorF8
 354 00fc 00000000 		.word	VectorFC
 355 0100 00000000 		.word	Vector100
 356 0104 00000000 		.word	Vector104
 357 0108 00000000 		.word	Vector108
 358 010c 00000000 		.word	Vector10C
 359 0110 00000000 		.word	Vector110
 360 0114 00000000 		.word	Vector114
 361 0118 00000000 		.word	Vector118
 362 011c 00000000 		.word	Vector11C
 363 0120 00000000 		.word	Vector120
 364 0124 00000000 		.word	Vector124
 365 0128 00000000 		.word	Vector128
 366 012c 00000000 		.word	Vector12C
 367 0130 00000000 		.word	Vector130
 368 0134 00000000 		.word	Vector134
 369 0138 00000000 		.word	Vector138
 370 013c 00000000 		.word	Vector13C
 371 0140 00000000 		.word	Vector140
 372 0144 00000000 		.word	Vector144
 373 0148 00000000 		.word	Vector148
 374 014c 00000000 		.word	Vector14C
 375 0150 00000000 		.word	Vector150
 376 0154 00000000 		.word	Vector154
 377 0158 00000000 		.word	Vector158
 378 015c 00000000 		.word	Vector15C
 379 0160 00000000 		.word	Vector160
 380 0164 00000000 		.word	Vector164
 381 0168 00000000 		.word	Vector168
 382 016c 00000000 		.word	Vector16C
 383 0170 00000000 		.word	Vector170
 384 0174 00000000 		.word	Vector174
 385 0178 00000000 		.word	Vector178
 386 017c 00000000 		.word	Vector17C
 387 0180 00000000 		.word	Vector180
 388 0184 00000000 		.word	Vector184
 389 0188 00000000 		.word	Vector188
 390 018c 00000000 		.word	Vector18C
 391 0190 00000000 		.word	Vector190
 392 0194 00000000 		.word	Vector194
 393 0198 00000000 		.word	Vector198
 394 019c 00000000 		.word	Vector19C
 395 01a0 00000000 		.word	Vector1A0
ARM GAS  C:\Users\Moi\AppData\Local\Temp\ccD2ByPF.s 			page 8


 396 01a4 00000000 		.word	Vector1A4
 397 01a8 00000000 		.word	Vector1A8
 398 01ac 00000000 		.word	Vector1AC
 399 01b0 00000000 		.word	Vector1B0
 400 01b4 00000000 		.word	Vector1B4
 401 01b8 00000000 		.word	Vector1B8
 402 01bc 00000000 		.word	Vector1BC
 403              		.text
 404              	.Letext0:
 405              		.file 2 "c:\\users\\moi\\documents\\_microinfo\\epuck-eclipse\\tools\\gcc-arm-none-eabi-7-2017-q4-
 406              		.file 3 "c:\\users\\moi\\documents\\_microinfo\\epuck-eclipse\\tools\\gcc-arm-none-eabi-7-2017-q4-
 407              		.file 4 ".//ChibiOS//os/ext/CMSIS/include/core_cm4.h"
 408              		.file 5 ".//ChibiOS//os/ext/CMSIS/ST/system_stm32f4xx.h"
