ARM GAS  C:\Users\pierr\AppData\Local\Temp\ccnyMJNV.s 			page 1


   1              		.cpu cortex-m4
   2              		.eabi_attribute 27, 1
   3              		.eabi_attribute 28, 1
   4              		.eabi_attribute 20, 1
   5              		.eabi_attribute 21, 1
   6              		.eabi_attribute 23, 3
   7              		.eabi_attribute 24, 1
   8              		.eabi_attribute 25, 1
   9              		.eabi_attribute 26, 1
  10              		.eabi_attribute 30, 2
  11              		.eabi_attribute 34, 1
  12              		.eabi_attribute 18, 4
  13              		.file	"communication.c"
  14              		.text
  15              	.Ltext0:
  16              		.cfi_sections	.debug_frame
  17              		.section	.text._stream_values_sndfn,"ax",%progbits
  18              		.align	1
  19              		.p2align 4,,15
  20              		.syntax unified
  21              		.thumb
  22              		.thumb_func
  23              		.fpu fpv4-sp-d16
  24              		.type	_stream_values_sndfn, %function
  25              	_stream_values_sndfn:
  26              	.LFB259:
  27              		.file 1 "../../lib/e-puck2_main-processor/src/communication.c"
  28              		.loc 1 67 0
  29              		.cfi_startproc
  30              		@ args = 0, pretend = 0, frame = 8
  31              		@ frame_needed = 0, uses_anonymous_args = 0
  32              	.LVL0:
  33 0000 30B5     		push	{r4, r5, lr}
  34              		.cfi_def_cfa_offset 12
  35              		.cfi_offset 4, -12
  36              		.cfi_offset 5, -8
  37              		.cfi_offset 14, -4
  38 0002 0B4B     		ldr	r3, .L8
  39 0004 83B0     		sub	sp, sp, #12
  40              		.cfi_def_cfa_offset 24
  41              		.loc 1 67 0
  42 0006 1C68     		ldr	r4, [r3]
  43 0008 0194     		str	r4, [sp, #4]
  44              		.loc 1 68 0
  45 000a 4AB1     		cbz	r2, .L1
  46              		.loc 1 69 0
  47 000c 019D     		ldr	r5, [sp, #4]
  48 000e 1B68     		ldr	r3, [r3]
  49 0010 9D42     		cmp	r5, r3
  50 0012 0BD1     		bne	.L6
  51 0014 0368     		ldr	r3, [r0]
  52 0016 1B68     		ldr	r3, [r3]
  53              		.loc 1 71 0
  54 0018 03B0     		add	sp, sp, #12
  55              		.cfi_remember_state
  56              		.cfi_def_cfa_offset 12
  57              		@ sp needed
ARM GAS  C:\Users\pierr\AppData\Local\Temp\ccnyMJNV.s 			page 2


  58 001a BDE83040 		pop	{r4, r5, lr}
  59              		.cfi_restore 14
  60              		.cfi_restore 5
  61              		.cfi_restore 4
  62              		.cfi_def_cfa_offset 0
  63              		.loc 1 69 0
  64 001e 1847     		bx	r3
  65              	.LVL1:
  66              	.L1:
  67              		.cfi_restore_state
  68              		.loc 1 71 0
  69 0020 019A     		ldr	r2, [sp, #4]
  70              	.LVL2:
  71 0022 1B68     		ldr	r3, [r3]
  72 0024 9A42     		cmp	r2, r3
  73 0026 01D1     		bne	.L6
  74 0028 03B0     		add	sp, sp, #12
  75              		.cfi_remember_state
  76              		.cfi_def_cfa_offset 12
  77              		@ sp needed
  78 002a 30BD     		pop	{r4, r5, pc}
  79              	.L6:
  80              		.cfi_restore_state
  81 002c FFF7FEFF 		bl	__stack_chk_fail
  82              	.LVL3:
  83              	.L9:
  84              		.align	2
  85              	.L8:
  86 0030 00000000 		.word	__stack_chk_guard
  87              		.cfi_endproc
  88              	.LFE259:
  89              		.size	_stream_values_sndfn, .-_stream_values_sndfn
  90              		.section	.text.ping_cb,"ax",%progbits
  91              		.align	1
  92              		.p2align 4,,15
  93              		.global	ping_cb
  94              		.syntax unified
  95              		.thumb
  96              		.thumb_func
  97              		.fpu fpv4-sp-d16
  98              		.type	ping_cb, %function
  99              	ping_cb:
 100              	.LFB264:
 101              		.loc 1 183 0
 102              		.cfi_startproc
 103              		@ args = 0, pretend = 0, frame = 112
 104              		@ frame_needed = 0, uses_anonymous_args = 0
 105              	.LVL4:
 106 0000 70B5     		push	{r4, r5, r6, lr}
 107              		.cfi_def_cfa_offset 16
 108              		.cfi_offset 4, -16
 109              		.cfi_offset 5, -12
 110              		.cfi_offset 6, -8
 111              		.cfi_offset 14, -4
 112 0002 9CB0     		sub	sp, sp, #112
 113              		.cfi_def_cfa_offset 128
 114              		.loc 1 187 0
ARM GAS  C:\Users\pierr\AppData\Local\Temp\ccnyMJNV.s 			page 3


 115 0004 1CAA     		add	r2, sp, #112
 116              		.loc 1 183 0
 117 0006 214C     		ldr	r4, .L24
 118              		.loc 1 187 0
 119 0008 6425     		movs	r5, #100
 120              		.loc 1 183 0
 121 000a 0E46     		mov	r6, r1
 122 000c 2368     		ldr	r3, [r4]
 123              		.loc 1 187 0
 124 000e 42F86C5D 		str	r5, [r2, #-108]!
 125              		.loc 1 191 0
 126 0012 02A9     		add	r1, sp, #8
 127              	.LVL5:
 128              		.loc 1 183 0
 129 0014 1B93     		str	r3, [sp, #108]
 130              	.LVL6:
 131              		.loc 1 191 0
 132 0016 FFF7FEFF 		bl	cmp_read_str
 133              	.LVL7:
 134 001a 38B9     		cbnz	r0, .L22
 135              	.LVL8:
 136              	.L12:
 137              		.loc 1 208 0
 138 001c 1B9A     		ldr	r2, [sp, #108]
 139 001e 2368     		ldr	r3, [r4]
 140 0020 9A42     		cmp	r2, r3
 141 0022 4FF00000 		mov	r0, #0
 142 0026 2ED1     		bne	.L23
 143 0028 1CB0     		add	sp, sp, #112
 144              		.cfi_remember_state
 145              		.cfi_def_cfa_offset 16
 146              		@ sp needed
 147 002a 70BD     		pop	{r4, r5, r6, pc}
 148              	.LVL9:
 149              	.L22:
 150              		.cfi_restore_state
 151              	.LBB9:
 152              		.loc 1 192 0
 153 002c 1849     		ldr	r1, .L24+4
 154 002e 1948     		ldr	r0, .L24+8
 155 0030 194A     		ldr	r2, .L24+12
 156 0032 2B46     		mov	r3, r5
 157 0034 FFF7FEFF 		bl	cmp_mem_access_init
 158              	.LVL10:
 159              		.loc 1 195 0
 160 0038 0121     		movs	r1, #1
 161 003a 1648     		ldr	r0, .L24+8
 162 003c FFF7FEFF 		bl	cmp_write_map
 163              	.LVL11:
 164 0040 0028     		cmp	r0, #0
 165 0042 EBD0     		beq	.L12
 166              		.loc 1 196 0
 167 0044 0422     		movs	r2, #4
 168 0046 1549     		ldr	r1, .L24+16
 169 0048 1248     		ldr	r0, .L24+8
 170 004a FFF7FEFF 		bl	cmp_write_str
 171              	.LVL12:
ARM GAS  C:\Users\pierr\AppData\Local\Temp\ccnyMJNV.s 			page 4


 172 004e 0028     		cmp	r0, #0
 173 0050 E4D0     		beq	.L12
 174              	.LVL13:
 175              		.loc 1 197 0 discriminator 2
 176 0052 02A8     		add	r0, sp, #8
 177              	.LVL14:
 178 0054 FFF7FEFF 		bl	strlen
 179              	.LVL15:
 180 0058 02A9     		add	r1, sp, #8
 181              	.LVL16:
 182 005a 0246     		mov	r2, r0
 183 005c 0D48     		ldr	r0, .L24+8
 184 005e FFF7FEFF 		bl	cmp_write_str
 185              	.LVL17:
 186 0062 0028     		cmp	r0, #0
 187 0064 DAD0     		beq	.L12
 188              		.loc 1 200 0
 189 0066 0E48     		ldr	r0, .L24+20
 190 0068 FFF7FEFF 		bl	chMtxLock
 191              	.LVL18:
 192              		.loc 1 201 0
 193 006c 0848     		ldr	r0, .L24+4
 194 006e FFF7FEFF 		bl	cmp_mem_access_get_pos
 195              	.LVL19:
 196 0072 3346     		mov	r3, r6
 197 0074 0146     		mov	r1, r0
 198 0076 0B4A     		ldr	r2, .L24+24
 199 0078 0748     		ldr	r0, .L24+12
 200 007a FFF7FEFF 		bl	serial_datagram_send
 201              	.LVL20:
 202              		.loc 1 202 0
 203 007e 0848     		ldr	r0, .L24+20
 204 0080 FFF7FEFF 		bl	chMtxUnlock
 205              	.LVL21:
 206 0084 CAE7     		b	.L12
 207              	.LVL22:
 208              	.L23:
 209              	.LBE9:
 210              		.loc 1 208 0
 211 0086 FFF7FEFF 		bl	__stack_chk_fail
 212              	.LVL23:
 213              	.L25:
 214 008a 00BF     		.align	2
 215              	.L24:
 216 008c 00000000 		.word	__stack_chk_guard
 217 0090 00000000 		.word	.LANCHOR1
 218 0094 00000000 		.word	.LANCHOR2
 219 0098 00000000 		.word	.LANCHOR0
 220 009c 00000000 		.word	.LC0
 221 00a0 00000000 		.word	.LANCHOR3
 222 00a4 00000000 		.word	_stream_values_sndfn
 223              		.cfi_endproc
 224              	.LFE264:
 225              		.size	ping_cb, .-ping_cb
 226              		.section	.text.datagram_dispatcher_cb,"ax",%progbits
 227              		.align	1
 228              		.p2align 4,,15
ARM GAS  C:\Users\pierr\AppData\Local\Temp\ccnyMJNV.s 			page 5


 229              		.global	datagram_dispatcher_cb
 230              		.syntax unified
 231              		.thumb
 232              		.thumb_func
 233              		.fpu fpv4-sp-d16
 234              		.type	datagram_dispatcher_cb, %function
 235              	datagram_dispatcher_cb:
 236              	.LFB267:
 237              		.loc 1 252 0
 238              		.cfi_startproc
 239              		@ args = 0, pretend = 0, frame = 40
 240              		@ frame_needed = 0, uses_anonymous_args = 0
 241              	.LVL24:
 242 0000 2DE9F041 		push	{r4, r5, r6, r7, r8, lr}
 243              		.cfi_def_cfa_offset 24
 244              		.cfi_offset 4, -24
 245              		.cfi_offset 5, -20
 246              		.cfi_offset 6, -16
 247              		.cfi_offset 7, -12
 248              		.cfi_offset 8, -8
 249              		.cfi_offset 14, -4
 250 0004 DFF88C80 		ldr	r8, .L47
 251 0008 8AB0     		sub	sp, sp, #40
 252              		.cfi_def_cfa_offset 64
 253              		.loc 1 256 0
 254 000a 0B46     		mov	r3, r1
 255              		.loc 1 252 0
 256 000c D8F80010 		ldr	r1, [r8]
 257              	.LVL25:
 258 0010 0991     		str	r1, [sp, #36]
 259 0012 1446     		mov	r4, r2
 260              	.LVL26:
 261              		.loc 1 256 0
 262 0014 02A9     		add	r1, sp, #8
 263 0016 0246     		mov	r2, r0
 264              	.LVL27:
 265 0018 05A8     		add	r0, sp, #20
 266              	.LVL28:
 267 001a FFF7FEFF 		bl	cmp_mem_access_ro_init
 268              	.LVL29:
 269              		.loc 1 258 0
 270 001e 05A8     		add	r0, sp, #20
 271 0020 6946     		mov	r1, sp
 272 0022 FFF7FEFF 		bl	cmp_read_map
 273              	.LVL30:
 274 0026 58B3     		cbz	r0, .L26
 275              	.LVL31:
 276              		.loc 1 262 0
 277 0028 009B     		ldr	r3, [sp]
 278 002a 0027     		movs	r7, #0
 279 002c 43B3     		cbz	r3, .L26
 280              	.LVL32:
 281              	.L33:
 282              	.LBB10:
 283              		.loc 1 264 0
 284 002e 01A9     		add	r1, sp, #4
 285 0030 05A8     		add	r0, sp, #20
ARM GAS  C:\Users\pierr\AppData\Local\Temp\ccnyMJNV.s 			page 6


 286 0032 FFF7FEFF 		bl	cmp_read_str_size
 287              	.LVL33:
 288 0036 18B3     		cbz	r0, .L26
 289              		.loc 1 267 0
 290 0038 02A8     		add	r0, sp, #8
 291 003a FFF7FEFF 		bl	cmp_mem_access_get_pos
 292              	.LVL34:
 293              		.loc 1 268 0
 294 003e 0199     		ldr	r1, [sp, #4]
 295              		.loc 1 267 0
 296 0040 0546     		mov	r5, r0
 297              	.LVL35:
 298              		.loc 1 268 0
 299 0042 2944     		add	r1, r1, r5
 300 0044 02A8     		add	r0, sp, #8
 301              	.LVL36:
 302 0046 FFF7FEFF 		bl	cmp_mem_access_set_pos
 303              	.LVL37:
 304              		.loc 1 269 0
 305 004a 2946     		mov	r1, r5
 306 004c 02A8     		add	r0, sp, #8
 307 004e FFF7FEFF 		bl	cmp_mem_access_get_ptr_at_pos
 308              	.LVL38:
 309 0052 0546     		mov	r5, r0
 310              	.LVL39:
 311              		.loc 1 270 0
 312 0054 2068     		ldr	r0, [r4]
 313              	.LVL40:
 314 0056 78B1     		cbz	r0, .L30
 315              		.loc 1 271 0
 316 0058 019E     		ldr	r6, [sp, #4]
 317 005a 02E0     		b	.L32
 318              	.L31:
 319              		.loc 1 270 0
 320 005c 54F80C0F 		ldr	r0, [r4, #12]!
 321              	.LVL41:
 322 0060 50B1     		cbz	r0, .L30
 323              	.LVL42:
 324              	.L32:
 325              		.loc 1 271 0
 326 0062 3246     		mov	r2, r6
 327 0064 2946     		mov	r1, r5
 328 0066 FFF7FEFF 		bl	strncmp
 329              	.LVL43:
 330 006a 0028     		cmp	r0, #0
 331 006c F6D1     		bne	.L31
 332              		.loc 1 272 0
 333 006e D4E90131 		ldrd	r3, r1, [r4, #4]
 334 0072 05A8     		add	r0, sp, #20
 335 0074 9847     		blx	r3
 336              	.LVL44:
 337 0076 18B9     		cbnz	r0, .L26
 338              	.LVL45:
 339              	.L30:
 340              	.LBE10:
 341              		.loc 1 262 0 discriminator 1
 342 0078 009B     		ldr	r3, [sp]
ARM GAS  C:\Users\pierr\AppData\Local\Temp\ccnyMJNV.s 			page 7


 343 007a 0137     		adds	r7, r7, #1
 344              	.LVL46:
 345 007c BB42     		cmp	r3, r7
 346 007e D6D8     		bhi	.L33
 347              	.LVL47:
 348              	.L26:
 349              		.loc 1 280 0
 350 0080 099A     		ldr	r2, [sp, #36]
 351 0082 D8F80030 		ldr	r3, [r8]
 352 0086 9A42     		cmp	r2, r3
 353 0088 02D1     		bne	.L46
 354 008a 0AB0     		add	sp, sp, #40
 355              		.cfi_remember_state
 356              		.cfi_def_cfa_offset 24
 357              		@ sp needed
 358 008c BDE8F081 		pop	{r4, r5, r6, r7, r8, pc}
 359              	.LVL48:
 360              	.L46:
 361              		.cfi_restore_state
 362 0090 FFF7FEFF 		bl	__stack_chk_fail
 363              	.LVL49:
 364              	.L48:
 365              		.align	2
 366              	.L47:
 367 0094 00000000 		.word	__stack_chk_guard
 368              		.cfi_endproc
 369              	.LFE267:
 370              		.size	datagram_dispatcher_cb, .-datagram_dispatcher_cb
 371              		.section	.text.comm_rx,"ax",%progbits
 372              		.align	1
 373              		.p2align 4,,15
 374              		.syntax unified
 375              		.thumb
 376              		.thumb_func
 377              		.fpu fpv4-sp-d16
 378              		.type	comm_rx, %function
 379              	comm_rx:
 380              	.LFB268:
 381              		.loc 1 287 0
 382              		.cfi_startproc
 383              		@ args = 0, pretend = 0, frame = 56
 384              		@ frame_needed = 0, uses_anonymous_args = 0
 385              	.LVL50:
 386 0000 70B5     		push	{r4, r5, r6, lr}
 387              		.cfi_def_cfa_offset 16
 388              		.cfi_offset 4, -16
 389              		.cfi_offset 5, -12
 390              		.cfi_offset 6, -8
 391              		.cfi_offset 14, -4
 392              	.LBB11:
 393              	.LBB12:
 394              		.file 2 "../../lib/e-puck2_main-processor/ChibiOS//os/rt/include/chregistry.h"
 395              		.loc 2 135 0
 396 0002 194B     		ldr	r3, .L53
 397              	.LBE12:
 398              	.LBE11:
 399              		.loc 1 291 0
ARM GAS  C:\Users\pierr\AppData\Local\Temp\ccnyMJNV.s 			page 8


 400 0004 1949     		ldr	r1, .L53+4
 401              	.LBB16:
 402              	.LBB13:
 403              		.loc 2 135 0
 404 0006 9A69     		ldr	r2, [r3, #24]
 405              	.LBE13:
 406              	.LBE16:
 407              		.loc 1 287 0
 408 0008 194E     		ldr	r6, .L53+8
 409              		.loc 1 291 0
 410 000a 1A4B     		ldr	r3, .L53+12
 411              	.LBB17:
 412              	.LBB14:
 413              		.loc 2 135 0
 414 000c 1A4D     		ldr	r5, .L53+16
 415              	.LBE14:
 416              	.LBE17:
 417              		.loc 1 287 0
 418 000e 90B0     		sub	sp, sp, #64
 419              		.cfi_def_cfa_offset 80
 420              		.loc 1 291 0
 421 0010 CDE90A10 		strd	r1, r0, [sp, #40]
 422 0014 0993     		str	r3, [sp, #36]
 423              		.loc 1 303 0
 424 0016 03A9     		add	r1, sp, #12
 425              		.loc 1 291 0
 426 0018 0023     		movs	r3, #0
 427              		.loc 1 287 0
 428 001a 0446     		mov	r4, r0
 429              		.loc 1 291 0
 430 001c CDE90C33 		strd	r3, r3, [sp, #48]
 431 0020 0E93     		str	r3, [sp, #56]
 432              	.LVL51:
 433 0022 1648     		ldr	r0, .L53+20
 434              	.LVL52:
 435              	.LBB18:
 436              	.LBB15:
 437              		.loc 2 135 0
 438 0024 9561     		str	r5, [r2, #24]
 439              	.LVL53:
 440              	.LBE15:
 441              	.LBE18:
 442              		.loc 1 287 0
 443 0026 3368     		ldr	r3, [r6]
 444              		.loc 1 291 0
 445 0028 154A     		ldr	r2, .L53+24
 446              		.loc 1 303 0
 447 002a 0091     		str	r1, [sp]
 448              		.loc 1 291 0
 449 002c 1549     		ldr	r1, .L53+28
 450 002e 164D     		ldr	r5, .L53+32
 451              		.loc 1 287 0
 452 0030 0F93     		str	r3, [sp, #60]
 453              		.loc 1 291 0
 454 0032 0392     		str	r2, [sp, #12]
 455 0034 0491     		str	r1, [sp, #16]
 456 0036 0690     		str	r0, [sp, #24]
ARM GAS  C:\Users\pierr\AppData\Local\Temp\ccnyMJNV.s 			page 9


 457              		.loc 1 303 0
 458 0038 144B     		ldr	r3, .L53+36
 459 003a 1549     		ldr	r1, .L53+40
 460 003c 1548     		ldr	r0, .L53+44
 461              		.loc 1 291 0
 462 003e 0795     		str	r5, [sp, #28]
 463              		.loc 1 303 0
 464 0040 4FF4FA62 		mov	r2, #2000
 465              		.loc 1 291 0
 466 0044 0594     		str	r4, [sp, #20]
 467 0046 0894     		str	r4, [sp, #32]
 468              		.loc 1 303 0
 469 0048 FFF7FEFF 		bl	serial_datagram_rcv_handler_init
 470              	.LVL54:
 471              	.LBB19:
 472              		.loc 1 310 0
 473 004c 114D     		ldr	r5, .L53+44
 474              	.L50:
 475              		.loc 1 309 0 discriminator 1
 476 004e 2368     		ldr	r3, [r4]
 477 0050 2046     		mov	r0, r4
 478 0052 DB68     		ldr	r3, [r3, #12]
 479 0054 9847     		blx	r3
 480              	.LVL55:
 481              		.loc 1 310 0 discriminator 1
 482 0056 0122     		movs	r2, #1
 483              		.loc 1 309 0 discriminator 1
 484 0058 8DF80B00 		strb	r0, [sp, #11]
 485              		.loc 1 310 0 discriminator 1
 486 005c 0DF10B01 		add	r1, sp, #11
 487 0060 2846     		mov	r0, r5
 488 0062 FFF7FEFF 		bl	serial_datagram_receive
 489              	.LVL56:
 490 0066 F2E7     		b	.L50
 491              	.L54:
 492              		.align	2
 493              	.L53:
 494 0068 00000000 		.word	ch
 495 006c 00000000 		.word	set_rgb_led_cb
 496 0070 00000000 		.word	__stack_chk_guard
 497 0074 08000000 		.word	.LC2
 498 0078 14000000 		.word	.LC3
 499 007c 00000000 		.word	.LC1
 500 0080 00000000 		.word	.LC0
 501 0084 00000000 		.word	ping_cb
 502 0088 00000000 		.word	set_led_cb
 503 008c 00000000 		.word	datagram_dispatcher_cb
 504 0090 00000000 		.word	.LANCHOR4
 505 0094 00000000 		.word	.LANCHOR5
 506              	.LBE19:
 507              		.cfi_endproc
 508              	.LFE268:
 509              		.size	comm_rx, .-comm_rx
 510              		.section	.text.set_led_cb,"ax",%progbits
 511              		.align	1
 512              		.p2align 4,,15
 513              		.global	set_led_cb
ARM GAS  C:\Users\pierr\AppData\Local\Temp\ccnyMJNV.s 			page 10


 514              		.syntax unified
 515              		.thumb
 516              		.thumb_func
 517              		.fpu fpv4-sp-d16
 518              		.type	set_led_cb, %function
 519              	set_led_cb:
 520              	.LFB265:
 521              		.loc 1 214 0
 522              		.cfi_startproc
 523              		@ args = 0, pretend = 0, frame = 16
 524              		@ frame_needed = 0, uses_anonymous_args = 0
 525              	.LVL57:
 526 0000 30B5     		push	{r4, r5, lr}
 527              		.cfi_def_cfa_offset 12
 528              		.cfi_offset 4, -12
 529              		.cfi_offset 5, -8
 530              		.cfi_offset 14, -4
 531 0002 154C     		ldr	r4, .L69
 532 0004 85B0     		sub	sp, sp, #20
 533              		.cfi_def_cfa_offset 32
 534              		.loc 1 214 0
 535 0006 2368     		ldr	r3, [r4]
 536 0008 0393     		str	r3, [sp, #12]
 537              		.loc 1 220 0
 538 000a 02A9     		add	r1, sp, #8
 539              	.LVL58:
 540              		.loc 1 214 0
 541 000c 0546     		mov	r5, r0
 542              		.loc 1 220 0
 543 000e FFF7FEFF 		bl	cmp_read_array
 544              	.LVL59:
 545 0012 10B1     		cbz	r0, .L57
 546              		.loc 1 220 0 is_stmt 0 discriminator 1
 547 0014 029B     		ldr	r3, [sp, #8]
 548 0016 022B     		cmp	r3, #2
 549 0018 07D0     		beq	.L67
 550              	.L57:
 551              		.loc 1 224 0 is_stmt 1
 552 001a 039A     		ldr	r2, [sp, #12]
 553 001c 2368     		ldr	r3, [r4]
 554 001e 9A42     		cmp	r2, r3
 555 0020 4FF00000 		mov	r0, #0
 556 0024 16D1     		bne	.L68
 557 0026 05B0     		add	sp, sp, #20
 558              		.cfi_remember_state
 559              		.cfi_def_cfa_offset 12
 560              		@ sp needed
 561 0028 30BD     		pop	{r4, r5, pc}
 562              	.LVL60:
 563              	.L67:
 564              		.cfi_restore_state
 565              	.LBB22:
 566              	.LBB23:
 567              		.loc 1 220 0
 568 002a 0DF10601 		add	r1, sp, #6
 569 002e 2846     		mov	r0, r5
 570 0030 FFF7FEFF 		bl	cmp_read_uchar
ARM GAS  C:\Users\pierr\AppData\Local\Temp\ccnyMJNV.s 			page 11


 571              	.LVL61:
 572 0034 0028     		cmp	r0, #0
 573 0036 F0D0     		beq	.L57
 574 0038 2846     		mov	r0, r5
 575 003a 0DF10701 		add	r1, sp, #7
 576 003e FFF7FEFF 		bl	cmp_read_uchar
 577              	.LVL62:
 578 0042 0028     		cmp	r0, #0
 579 0044 E9D0     		beq	.L57
 580              		.loc 1 221 0
 581 0046 9DF80710 		ldrb	r1, [sp, #7]	@ zero_extendqisi2
 582 004a 9DF80600 		ldrb	r0, [sp, #6]	@ zero_extendqisi2
 583 004e FFF7FEFF 		bl	set_led
 584              	.LVL63:
 585 0052 E2E7     		b	.L57
 586              	.LVL64:
 587              	.L68:
 588              	.LBE23:
 589              	.LBE22:
 590              		.loc 1 224 0
 591 0054 FFF7FEFF 		bl	__stack_chk_fail
 592              	.LVL65:
 593              	.L70:
 594              		.align	2
 595              	.L69:
 596 0058 00000000 		.word	__stack_chk_guard
 597              		.cfi_endproc
 598              	.LFE265:
 599              		.size	set_led_cb, .-set_led_cb
 600              		.section	.text.set_rgb_led_cb,"ax",%progbits
 601              		.align	1
 602              		.p2align 4,,15
 603              		.global	set_rgb_led_cb
 604              		.syntax unified
 605              		.thumb
 606              		.thumb_func
 607              		.fpu fpv4-sp-d16
 608              		.type	set_rgb_led_cb, %function
 609              	set_rgb_led_cb:
 610              	.LFB266:
 611              		.loc 1 230 0
 612              		.cfi_startproc
 613              		@ args = 0, pretend = 0, frame = 16
 614              		@ frame_needed = 0, uses_anonymous_args = 0
 615              	.LVL66:
 616 0000 30B5     		push	{r4, r5, lr}
 617              		.cfi_def_cfa_offset 12
 618              		.cfi_offset 4, -12
 619              		.cfi_offset 5, -8
 620              		.cfi_offset 14, -4
 621 0002 1E4C     		ldr	r4, .L91
 622 0004 85B0     		sub	sp, sp, #20
 623              		.cfi_def_cfa_offset 32
 624              		.loc 1 230 0
 625 0006 2368     		ldr	r3, [r4]
 626 0008 0393     		str	r3, [sp, #12]
 627              		.loc 1 238 0
ARM GAS  C:\Users\pierr\AppData\Local\Temp\ccnyMJNV.s 			page 12


 628 000a 02A9     		add	r1, sp, #8
 629              	.LVL67:
 630              		.loc 1 230 0
 631 000c 0546     		mov	r5, r0
 632              		.loc 1 238 0
 633 000e FFF7FEFF 		bl	cmp_read_array
 634              	.LVL68:
 635 0012 10B1     		cbz	r0, .L73
 636              		.loc 1 238 0 is_stmt 0 discriminator 1
 637 0014 029B     		ldr	r3, [sp, #8]
 638 0016 042B     		cmp	r3, #4
 639 0018 07D0     		beq	.L89
 640              	.L73:
 641              		.loc 1 244 0 is_stmt 1
 642 001a 039A     		ldr	r2, [sp, #12]
 643 001c 2368     		ldr	r3, [r4]
 644 001e 9A42     		cmp	r2, r3
 645 0020 4FF00000 		mov	r0, #0
 646 0024 27D1     		bne	.L90
 647 0026 05B0     		add	sp, sp, #20
 648              		.cfi_remember_state
 649              		.cfi_def_cfa_offset 12
 650              		@ sp needed
 651 0028 30BD     		pop	{r4, r5, pc}
 652              	.LVL69:
 653              	.L89:
 654              		.cfi_restore_state
 655              	.LBB26:
 656              	.LBB27:
 657              		.loc 1 238 0
 658 002a 01A9     		add	r1, sp, #4
 659 002c 2846     		mov	r0, r5
 660 002e FFF7FEFF 		bl	cmp_read_uchar
 661              	.LVL70:
 662 0032 0028     		cmp	r0, #0
 663 0034 F1D0     		beq	.L73
 664              		.loc 1 239 0
 665 0036 0DF10501 		add	r1, sp, #5
 666 003a 2846     		mov	r0, r5
 667 003c FFF7FEFF 		bl	cmp_read_uchar
 668              	.LVL71:
 669 0040 0028     		cmp	r0, #0
 670 0042 EAD0     		beq	.L73
 671 0044 0DF10601 		add	r1, sp, #6
 672 0048 2846     		mov	r0, r5
 673 004a FFF7FEFF 		bl	cmp_read_uchar
 674              	.LVL72:
 675 004e 0028     		cmp	r0, #0
 676 0050 E3D0     		beq	.L73
 677 0052 2846     		mov	r0, r5
 678 0054 0DF10701 		add	r1, sp, #7
 679 0058 FFF7FEFF 		bl	cmp_read_uchar
 680              	.LVL73:
 681 005c 0028     		cmp	r0, #0
 682 005e DCD0     		beq	.L73
 683              		.loc 1 241 0
 684 0060 9DF80730 		ldrb	r3, [sp, #7]	@ zero_extendqisi2
ARM GAS  C:\Users\pierr\AppData\Local\Temp\ccnyMJNV.s 			page 13


 685 0064 9DF80620 		ldrb	r2, [sp, #6]	@ zero_extendqisi2
 686 0068 9DF80510 		ldrb	r1, [sp, #5]	@ zero_extendqisi2
 687 006c 9DF80400 		ldrb	r0, [sp, #4]	@ zero_extendqisi2
 688 0070 FFF7FEFF 		bl	set_rgb_led
 689              	.LVL74:
 690 0074 D1E7     		b	.L73
 691              	.LVL75:
 692              	.L90:
 693              	.LBE27:
 694              	.LBE26:
 695              		.loc 1 244 0
 696 0076 FFF7FEFF 		bl	__stack_chk_fail
 697              	.LVL76:
 698              	.L92:
 699 007a 00BF     		.align	2
 700              	.L91:
 701 007c 00000000 		.word	__stack_chk_guard
 702              		.cfi_endproc
 703              	.LFE266:
 704              		.size	set_rgb_led_cb, .-set_rgb_led_cb
 705              		.section	.text.comm_tx_stream,"ax",%progbits
 706              		.align	1
 707              		.p2align 4,,15
 708              		.syntax unified
 709              		.thumb
 710              		.thumb_func
 711              		.fpu fpv4-sp-d16
 712              		.type	comm_tx_stream, %function
 713              	comm_tx_stream:
 714              	.LFB263:
 715              		.loc 1 139 0
 716              		.cfi_startproc
 717              		@ args = 0, pretend = 0, frame = 88
 718              		@ frame_needed = 0, uses_anonymous_args = 0
 719              	.LVL77:
 720 0000 2DE9F04F 		push	{r4, r5, r6, r7, r8, r9, r10, fp, lr}
 721              		.cfi_def_cfa_offset 36
 722              		.cfi_offset 4, -36
 723              		.cfi_offset 5, -32
 724              		.cfi_offset 6, -28
 725              		.cfi_offset 7, -24
 726              		.cfi_offset 8, -20
 727              		.cfi_offset 9, -16
 728              		.cfi_offset 10, -12
 729              		.cfi_offset 11, -8
 730              		.cfi_offset 14, -4
 731 0004 2DED028B 		vpush.64	{d8}
 732              		.cfi_def_cfa_offset 44
 733              		.cfi_offset 80, -44
 734              		.cfi_offset 81, -40
 735 0008 6A4B     		ldr	r3, .L148
 736              		.loc 1 142 0
 737 000a 6B49     		ldr	r1, .L148+4
 738              		.loc 1 139 0
 739 000c 1B68     		ldr	r3, [r3]
 740 000e DFF8D891 		ldr	r9, .L148+52
 741              		.loc 1 152 0
ARM GAS  C:\Users\pierr\AppData\Local\Temp\ccnyMJNV.s 			page 14


 742 0012 6A4E     		ldr	r6, .L148+8
 743 0014 6A4D     		ldr	r5, .L148+12
 744 0016 6B4C     		ldr	r4, .L148+16
 745              	.LBB36:
 746              	.LBB37:
 747              		.loc 1 117 0
 748 0018 DFF8D0B1 		ldr	fp, .L148+56
 749              		.loc 1 109 0
 750 001c 9FED6A8A 		vldr.32	s16, .L148+20
 751              	.LBE37:
 752              	.LBE36:
 753              		.loc 1 139 0
 754 0020 97B0     		sub	sp, sp, #92
 755              		.cfi_def_cfa_offset 136
 756              		.loc 1 139 0
 757 0022 8246     		mov	r10, r0
 758              	.LVL78:
 759              		.loc 1 142 0
 760 0024 6948     		ldr	r0, .L148+24
 761              	.LVL79:
 762              		.loc 1 139 0
 763 0026 1593     		str	r3, [sp, #84]
 764              		.loc 1 142 0
 765 0028 FFF7FEFF 		bl	messagebus_find_topic_blocking
 766              	.LVL80:
 767 002c 8046     		mov	r8, r0
 768              	.LVL81:
 769              	.L103:
 770              		.loc 1 150 0
 771 002e 5022     		movs	r2, #80
 772 0030 01A9     		add	r1, sp, #4
 773 0032 4046     		mov	r0, r8
 774 0034 FFF7FEFF 		bl	messagebus_topic_wait
 775              	.LVL82:
 776              		.loc 1 152 0
 777 0038 2946     		mov	r1, r5
 778 003a 2046     		mov	r0, r4
 779 003c 6423     		movs	r3, #100
 780 003e 3246     		mov	r2, r6
 781 0040 FFF7FEFF 		bl	cmp_mem_access_init
 782              	.LVL83:
 783              	.LBB41:
 784              	.LBB40:
 785              		.loc 1 115 0
 786 0044 0321     		movs	r1, #3
 787 0046 2046     		mov	r0, r4
 788              	.LBB38:
 789              	.LBB39:
 790              		.file 3 "../../lib/e-puck2_main-processor/ChibiOS//os/rt/include/chvt.h"
 791              		.loc 3 231 0
 792 0048 D9F82870 		ldr	r7, [r9, #40]
 793              	.LVL84:
 794              	.LBE39:
 795              	.LBE38:
 796              		.loc 1 115 0
 797 004c FFF7FEFF 		bl	cmp_write_map
 798              	.LVL85:
ARM GAS  C:\Users\pierr\AppData\Local\Temp\ccnyMJNV.s 			page 15


 799 0050 0028     		cmp	r0, #0
 800 0052 5DD0     		beq	.L95
 801              	.LVL86:
 802              		.loc 1 117 0
 803 0054 0422     		movs	r2, #4
 804 0056 5946     		mov	r1, fp
 805 0058 2046     		mov	r0, r4
 806 005a FFF7FEFF 		bl	cmp_write_str
 807              	.LVL87:
 808 005e 0028     		cmp	r0, #0
 809 0060 56D0     		beq	.L95
 810              	.LVL88:
 811              		.loc 1 118 0
 812 0062 0321     		movs	r1, #3
 813 0064 2046     		mov	r0, r4
 814 0066 FFF7FEFF 		bl	cmp_write_array
 815              	.LVL89:
 816 006a 0028     		cmp	r0, #0
 817 006c 50D0     		beq	.L95
 818              		.loc 1 119 0
 819 006e 9DED040A 		vldr.32	s0, [sp, #16]
 820 0072 2046     		mov	r0, r4
 821 0074 FFF7FEFF 		bl	cmp_write_float
 822              	.LVL90:
 823 0078 0028     		cmp	r0, #0
 824 007a 49D0     		beq	.L95
 825              		.loc 1 120 0
 826 007c 9DED050A 		vldr.32	s0, [sp, #20]
 827 0080 2046     		mov	r0, r4
 828 0082 FFF7FEFF 		bl	cmp_write_float
 829              	.LVL91:
 830 0086 0028     		cmp	r0, #0
 831 0088 42D0     		beq	.L95
 832              		.loc 1 121 0
 833 008a 9DED060A 		vldr.32	s0, [sp, #24]
 834 008e 2046     		mov	r0, r4
 835 0090 FFF7FEFF 		bl	cmp_write_float
 836              	.LVL92:
 837 0094 0028     		cmp	r0, #0
 838 0096 3BD0     		beq	.L95
 839              	.LVL93:
 840              		.loc 1 123 0
 841 0098 0322     		movs	r2, #3
 842 009a 4D49     		ldr	r1, .L148+28
 843 009c 2046     		mov	r0, r4
 844 009e FFF7FEFF 		bl	cmp_write_str
 845              	.LVL94:
 846 00a2 A8B3     		cbz	r0, .L95
 847              		.loc 1 124 0
 848 00a4 0321     		movs	r1, #3
 849 00a6 2046     		mov	r0, r4
 850 00a8 FFF7FEFF 		bl	cmp_write_array
 851              	.LVL95:
 852 00ac 80B3     		cbz	r0, .L95
 853              		.loc 1 125 0
 854 00ae 9DED010A 		vldr.32	s0, [sp, #4]
 855 00b2 2046     		mov	r0, r4
ARM GAS  C:\Users\pierr\AppData\Local\Temp\ccnyMJNV.s 			page 16


 856 00b4 FFF7FEFF 		bl	cmp_write_float
 857              	.LVL96:
 858 00b8 50B3     		cbz	r0, .L95
 859              		.loc 1 126 0
 860 00ba 9DED020A 		vldr.32	s0, [sp, #8]
 861 00be 2046     		mov	r0, r4
 862 00c0 FFF7FEFF 		bl	cmp_write_float
 863              	.LVL97:
 864 00c4 20B3     		cbz	r0, .L95
 865              		.loc 1 127 0
 866 00c6 9DED030A 		vldr.32	s0, [sp, #12]
 867 00ca 2046     		mov	r0, r4
 868 00cc FFF7FEFF 		bl	cmp_write_float
 869              	.LVL98:
 870 00d0 F0B1     		cbz	r0, .L95
 871              	.LVL99:
 872              		.loc 1 129 0
 873 00d2 0422     		movs	r2, #4
 874 00d4 3F49     		ldr	r1, .L148+32
 875 00d6 2046     		mov	r0, r4
 876 00d8 FFF7FEFF 		bl	cmp_write_str
 877              	.LVL100:
 878 00dc C0B1     		cbz	r0, .L95
 879              		.loc 1 109 0
 880 00de 07EE907A 		vmov	s15, r7	@ int
 881 00e2 B8EE670A 		vcvt.f32.u32	s0, s15
 882              	.LVL101:
 883              		.loc 1 130 0
 884 00e6 2046     		mov	r0, r4
 885 00e8 80EE080A 		vdiv.f32	s0, s0, s16
 886              	.LVL102:
 887 00ec FFF7FEFF 		bl	cmp_write_float
 888              	.LVL103:
 889 00f0 70B1     		cbz	r0, .L95
 890              	.LVL104:
 891              	.LBE40:
 892              	.LBE41:
 893              		.loc 1 154 0
 894 00f2 3948     		ldr	r0, .L148+36
 895 00f4 FFF7FEFF 		bl	chMtxLock
 896              	.LVL105:
 897              		.loc 1 155 0
 898 00f8 2846     		mov	r0, r5
 899 00fa FFF7FEFF 		bl	cmp_mem_access_get_pos
 900              	.LVL106:
 901 00fe 5346     		mov	r3, r10
 902 0100 0146     		mov	r1, r0
 903 0102 364A     		ldr	r2, .L148+40
 904 0104 3046     		mov	r0, r6
 905 0106 FFF7FEFF 		bl	serial_datagram_send
 906              	.LVL107:
 907              		.loc 1 156 0
 908 010a 3348     		ldr	r0, .L148+36
 909 010c FFF7FEFF 		bl	chMtxUnlock
 910              	.LVL108:
 911              	.L95:
 912              		.loc 1 158 0
ARM GAS  C:\Users\pierr\AppData\Local\Temp\ccnyMJNV.s 			page 17


 913 0110 2946     		mov	r1, r5
 914 0112 2046     		mov	r0, r4
 915 0114 6423     		movs	r3, #100
 916 0116 3246     		mov	r2, r6
 917 0118 FFF7FEFF 		bl	cmp_mem_access_init
 918              	.LVL109:
 919              	.LBB42:
 920              	.LBB43:
 921              		.loc 1 96 0
 922 011c 0121     		movs	r1, #1
 923 011e 2046     		mov	r0, r4
 924 0120 FFF7FEFF 		bl	cmp_write_map
 925              	.LVL110:
 926 0124 D0B1     		cbz	r0, .L98
 927              	.LVL111:
 928              		.loc 1 98 0
 929 0126 0422     		movs	r2, #4
 930 0128 2D49     		ldr	r1, .L148+44
 931 012a 2046     		mov	r0, r4
 932 012c FFF7FEFF 		bl	cmp_write_str
 933              	.LVL112:
 934 0130 A0B1     		cbz	r0, .L98
 935              	.LVL113:
 936              		.loc 1 99 0
 937 0132 FFF7FEFF 		bl	get_battery_voltage
 938              	.LVL114:
 939 0136 2046     		mov	r0, r4
 940 0138 FFF7FEFF 		bl	cmp_write_float
 941              	.LVL115:
 942 013c 70B1     		cbz	r0, .L98
 943              	.LVL116:
 944              	.LBE43:
 945              	.LBE42:
 946              		.loc 1 160 0
 947 013e 2648     		ldr	r0, .L148+36
 948 0140 FFF7FEFF 		bl	chMtxLock
 949              	.LVL117:
 950              		.loc 1 161 0
 951 0144 2846     		mov	r0, r5
 952 0146 FFF7FEFF 		bl	cmp_mem_access_get_pos
 953              	.LVL118:
 954 014a 5346     		mov	r3, r10
 955 014c 0146     		mov	r1, r0
 956 014e 234A     		ldr	r2, .L148+40
 957 0150 3046     		mov	r0, r6
 958 0152 FFF7FEFF 		bl	serial_datagram_send
 959              	.LVL119:
 960              		.loc 1 162 0
 961 0156 2048     		ldr	r0, .L148+36
 962 0158 FFF7FEFF 		bl	chMtxUnlock
 963              	.LVL120:
 964              	.L98:
 965              		.loc 1 164 0
 966 015c 2946     		mov	r1, r5
 967 015e 2046     		mov	r0, r4
 968 0160 6423     		movs	r3, #100
 969 0162 3246     		mov	r2, r6
ARM GAS  C:\Users\pierr\AppData\Local\Temp\ccnyMJNV.s 			page 18


 970 0164 FFF7FEFF 		bl	cmp_mem_access_init
 971              	.LVL121:
 972              	.LBB44:
 973              	.LBB45:
 974              		.loc 1 81 0
 975 0168 0121     		movs	r1, #1
 976 016a 2046     		mov	r0, r4
 977 016c FFF7FEFF 		bl	cmp_write_map
 978              	.LVL122:
 979 0170 D8B1     		cbz	r0, .L101
 980              	.LVL123:
 981              		.loc 1 83 0
 982 0172 0422     		movs	r2, #4
 983 0174 1B49     		ldr	r1, .L148+48
 984 0176 2046     		mov	r0, r4
 985 0178 FFF7FEFF 		bl	cmp_write_str
 986              	.LVL124:
 987 017c A8B1     		cbz	r0, .L101
 988              	.LVL125:
 989              		.loc 1 84 0
 990 017e FFF7FEFF 		bl	VL53L0X_get_dist_mm
 991              	.LVL126:
 992 0182 0146     		mov	r1, r0
 993 0184 2046     		mov	r0, r4
 994 0186 FFF7FEFF 		bl	cmp_write_u16
 995              	.LVL127:
 996 018a 70B1     		cbz	r0, .L101
 997              	.LVL128:
 998              	.LBE45:
 999              	.LBE44:
 1000              		.loc 1 166 0
 1001 018c 1248     		ldr	r0, .L148+36
 1002 018e FFF7FEFF 		bl	chMtxLock
 1003              	.LVL129:
 1004              		.loc 1 167 0
 1005 0192 2846     		mov	r0, r5
 1006 0194 FFF7FEFF 		bl	cmp_mem_access_get_pos
 1007              	.LVL130:
 1008 0198 5346     		mov	r3, r10
 1009 019a 0146     		mov	r1, r0
 1010 019c 0F4A     		ldr	r2, .L148+40
 1011 019e 3046     		mov	r0, r6
 1012 01a0 FFF7FEFF 		bl	serial_datagram_send
 1013              	.LVL131:
 1014              		.loc 1 168 0
 1015 01a4 0C48     		ldr	r0, .L148+36
 1016 01a6 FFF7FEFF 		bl	chMtxUnlock
 1017              	.LVL132:
 1018              	.L101:
 1019              		.loc 1 171 0
 1020 01aa 4FF4FA70 		mov	r0, #500
 1021 01ae FFF7FEFF 		bl	chThdSleep
 1022              	.LVL133:
 1023              		.loc 1 150 0
 1024 01b2 3CE7     		b	.L103
 1025              	.L149:
 1026              		.align	2
ARM GAS  C:\Users\pierr\AppData\Local\Temp\ccnyMJNV.s 			page 19


 1027              	.L148:
 1028 01b4 00000000 		.word	__stack_chk_guard
 1029 01b8 00000000 		.word	.LC4
 1030 01bc 00000000 		.word	.LANCHOR6
 1031 01c0 00000000 		.word	.LANCHOR7
 1032 01c4 00000000 		.word	.LANCHOR8
 1033 01c8 00007A44 		.word	1148846080
 1034 01cc 00000000 		.word	bus
 1035 01d0 08000000 		.word	.LC5
 1036 01d4 0C000000 		.word	.LC6
 1037 01d8 00000000 		.word	.LANCHOR3
 1038 01dc 00000000 		.word	_stream_values_sndfn
 1039 01e0 1C000000 		.word	.LC8
 1040 01e4 24000000 		.word	.LC9
 1041 01e8 00000000 		.word	ch
 1042 01ec 14000000 		.word	.LC7
 1043              		.cfi_endproc
 1044              	.LFE263:
 1045              		.size	comm_tx_stream, .-comm_tx_stream
 1046              		.section	.text.communication_start,"ax",%progbits
 1047              		.align	1
 1048              		.p2align 4,,15
 1049              		.global	communication_start
 1050              		.syntax unified
 1051              		.thumb
 1052              		.thumb_func
 1053              		.fpu fpv4-sp-d16
 1054              		.type	communication_start, %function
 1055              	communication_start:
 1056              	.LFB269:
 1057              		.loc 1 316 0
 1058              		.cfi_startproc
 1059              		@ args = 0, pretend = 0, frame = 8
 1060              		@ frame_needed = 0, uses_anonymous_args = 0
 1061              	.LVL134:
 1062 0000 30B5     		push	{r4, r5, lr}
 1063              		.cfi_def_cfa_offset 12
 1064              		.cfi_offset 4, -12
 1065              		.cfi_offset 5, -8
 1066              		.cfi_offset 14, -4
 1067 0002 104C     		ldr	r4, .L154
 1068 0004 85B0     		sub	sp, sp, #20
 1069              		.cfi_def_cfa_offset 32
 1070              		.loc 1 316 0
 1071 0006 0546     		mov	r5, r0
 1072 0008 2368     		ldr	r3, [r4]
 1073              		.loc 1 317 0
 1074 000a 0F48     		ldr	r0, .L154+4
 1075              	.LVL135:
 1076              		.loc 1 316 0
 1077 000c 0393     		str	r3, [sp, #12]
 1078              		.loc 1 317 0
 1079 000e FFF7FEFF 		bl	chMtxObjectInit
 1080              	.LVL136:
 1081              		.loc 1 318 0
 1082 0012 0E4B     		ldr	r3, .L154+8
 1083 0014 0095     		str	r5, [sp]
ARM GAS  C:\Users\pierr\AppData\Local\Temp\ccnyMJNV.s 			page 20


 1084 0016 0222     		movs	r2, #2
 1085 0018 4FF4AF61 		mov	r1, #1400
 1086 001c 0C48     		ldr	r0, .L154+12
 1087 001e FFF7FEFF 		bl	chThdCreateStatic
 1088              	.LVL137:
 1089              		.loc 1 319 0
 1090 0022 0C4B     		ldr	r3, .L154+16
 1091 0024 0095     		str	r5, [sp]
 1092 0026 0222     		movs	r2, #2
 1093 0028 0B48     		ldr	r0, .L154+20
 1094 002a 4FF4AF61 		mov	r1, #1400
 1095 002e FFF7FEFF 		bl	chThdCreateStatic
 1096              	.LVL138:
 1097              		.loc 1 320 0
 1098 0032 039A     		ldr	r2, [sp, #12]
 1099 0034 2368     		ldr	r3, [r4]
 1100 0036 9A42     		cmp	r2, r3
 1101 0038 01D1     		bne	.L153
 1102 003a 05B0     		add	sp, sp, #20
 1103              		.cfi_remember_state
 1104              		.cfi_def_cfa_offset 12
 1105              		@ sp needed
 1106 003c 30BD     		pop	{r4, r5, pc}
 1107              	.LVL139:
 1108              	.L153:
 1109              		.cfi_restore_state
 1110 003e FFF7FEFF 		bl	__stack_chk_fail
 1111              	.LVL140:
 1112              	.L155:
 1113 0042 00BF     		.align	2
 1114              	.L154:
 1115 0044 00000000 		.word	__stack_chk_guard
 1116 0048 00000000 		.word	.LANCHOR3
 1117 004c 00000000 		.word	comm_tx_stream
 1118 0050 00000000 		.word	.LANCHOR9
 1119 0054 00000000 		.word	comm_rx
 1120 0058 00000000 		.word	.LANCHOR10
 1121              		.cfi_endproc
 1122              	.LFE269:
 1123              		.size	communication_start, .-communication_start
 1124              		.global	messagebus
 1125              		.section	.bss.cmp.13624,"aw",%nobits
 1126              		.align	2
 1127              		.set	.LANCHOR8,. + 0
 1128              		.type	cmp.13624, %object
 1129              		.size	cmp.13624, 16
 1130              	cmp.13624:
 1131 0000 00000000 		.space	16
 1131      00000000 
 1131      00000000 
 1131      00000000 
 1132              		.section	.bss.comm_rx_wa,"aw",%nobits
 1133              		.align	3
 1134              		.set	.LANCHOR10,. + 0
 1135              		.type	comm_rx_wa, %object
 1136              		.size	comm_rx_wa, 1400
 1137              	comm_rx_wa:
ARM GAS  C:\Users\pierr\AppData\Local\Temp\ccnyMJNV.s 			page 21


 1138 0000 00000000 		.space	1400
 1138      00000000 
 1138      00000000 
 1138      00000000 
 1138      00000000 
 1139              		.section	.bss.comm_tx_stream_wa,"aw",%nobits
 1140              		.align	3
 1141              		.set	.LANCHOR9,. + 0
 1142              		.type	comm_tx_stream_wa, %object
 1143              		.size	comm_tx_stream_wa, 1400
 1144              	comm_tx_stream_wa:
 1145 0000 00000000 		.space	1400
 1145      00000000 
 1145      00000000 
 1145      00000000 
 1145      00000000 
 1146              		.section	.bss.dtgrm.13622,"aw",%nobits
 1147              		.align	2
 1148              		.set	.LANCHOR6,. + 0
 1149              		.type	dtgrm.13622, %object
 1150              		.size	dtgrm.13622, 100
 1151              	dtgrm.13622:
 1152 0000 00000000 		.space	100
 1152      00000000 
 1152      00000000 
 1152      00000000 
 1152      00000000 
 1153              		.section	.bss.mem.13623,"aw",%nobits
 1154              		.align	2
 1155              		.set	.LANCHOR7,. + 0
 1156              		.type	mem.13623, %object
 1157              		.size	mem.13623, 12
 1158              	mem.13623:
 1159 0000 00000000 		.space	12
 1159      00000000 
 1159      00000000 
 1160              		.section	.bss.messagebus,"aw",%nobits
 1161              		.align	2
 1162              		.type	messagebus, %object
 1163              		.size	messagebus, 12
 1164              	messagebus:
 1165 0000 00000000 		.space	12
 1165      00000000 
 1165      00000000 
 1166              		.section	.bss.rcv_buffer.13679,"aw",%nobits
 1167              		.align	2
 1168              		.set	.LANCHOR4,. + 0
 1169              		.type	rcv_buffer.13679, %object
 1170              		.size	rcv_buffer.13679, 2000
 1171              	rcv_buffer.13679:
 1172 0000 00000000 		.space	2000
 1172      00000000 
 1172      00000000 
 1172      00000000 
 1172      00000000 
 1173              		.section	.bss.rcv_handler.13678,"aw",%nobits
 1174              		.align	2
ARM GAS  C:\Users\pierr\AppData\Local\Temp\ccnyMJNV.s 			page 22


 1175              		.set	.LANCHOR5,. + 0
 1176              		.type	rcv_handler.13678, %object
 1177              		.size	rcv_handler.13678, 24
 1178              	rcv_handler.13678:
 1179 0000 00000000 		.space	24
 1179      00000000 
 1179      00000000 
 1179      00000000 
 1179      00000000 
 1180              		.section	.bss.reply_buf,"aw",%nobits
 1181              		.align	2
 1182              		.set	.LANCHOR0,. + 0
 1183              		.type	reply_buf, %object
 1184              		.size	reply_buf, 100
 1185              	reply_buf:
 1186 0000 00000000 		.space	100
 1186      00000000 
 1186      00000000 
 1186      00000000 
 1186      00000000 
 1187              		.section	.bss.reply_cmp,"aw",%nobits
 1188              		.align	2
 1189              		.set	.LANCHOR2,. + 0
 1190              		.type	reply_cmp, %object
 1191              		.size	reply_cmp, 16
 1192              	reply_cmp:
 1193 0000 00000000 		.space	16
 1193      00000000 
 1193      00000000 
 1193      00000000 
 1194              		.section	.bss.reply_mem,"aw",%nobits
 1195              		.align	2
 1196              		.set	.LANCHOR1,. + 0
 1197              		.type	reply_mem, %object
 1198              		.size	reply_mem, 12
 1199              	reply_mem:
 1200 0000 00000000 		.space	12
 1200      00000000 
 1200      00000000 
 1201              		.section	.bss.send_lock,"aw",%nobits
 1202              		.align	2
 1203              		.set	.LANCHOR3,. + 0
 1204              		.type	send_lock, %object
 1205              		.size	send_lock, 20
 1206              	send_lock:
 1207 0000 00000000 		.space	20
 1207      00000000 
 1207      00000000 
 1207      00000000 
 1207      00000000 
 1208              		.section	.rodata.comm_rx.str1.4,"aMS",%progbits,1
 1209              		.align	2
 1210              	.LC1:
 1211 0000 7365745F 		.ascii	"set_led\000"
 1211      6C656400 
 1212              	.LC2:
 1213 0008 7365745F 		.ascii	"set_rgb_led\000"
ARM GAS  C:\Users\pierr\AppData\Local\Temp\ccnyMJNV.s 			page 23


 1213      7267625F 
 1213      6C656400 
 1214              	.LC3:
 1215 0014 636F6D6D 		.ascii	"comm rx\000"
 1215      20727800 
 1216              		.section	.rodata.comm_tx_stream.str1.4,"aMS",%progbits,1
 1217              		.align	2
 1218              	.LC4:
 1219 0000 2F696D75 		.ascii	"/imu\000"
 1219      00
 1220 0005 000000   		.space	3
 1221              	.LC5:
 1222 0008 61636300 		.ascii	"acc\000"
 1223              	.LC6:
 1224 000c 74696D65 		.ascii	"time\000"
 1224      00
 1225 0011 000000   		.space	3
 1226              	.LC7:
 1227 0014 6779726F 		.ascii	"gyro\000"
 1227      00
 1228 0019 000000   		.space	3
 1229              	.LC8:
 1230 001c 62617474 		.ascii	"batt\000"
 1230      00
 1231 0021 000000   		.space	3
 1232              	.LC9:
 1233 0024 64697374 		.ascii	"dist\000"
 1233      00
 1234              		.section	.rodata.ping_cb.str1.4,"aMS",%progbits,1
 1235              		.align	2
 1236              	.LC0:
 1237 0000 70696E67 		.ascii	"ping\000"
 1237      00
 1238              		.text
 1239              	.Letext0:
 1240              		.file 4 "d:\\eclipse_e-puck2_win32_29_jan_2020\\eclipse_e-puck2\\tools\\gcc-arm-none-eabi-7-2017-q
 1241              		.file 5 "d:\\eclipse_e-puck2_win32_29_jan_2020\\eclipse_e-puck2\\tools\\gcc-arm-none-eabi-7-2017-q
 1242              		.file 6 "d:\\eclipse_e-puck2_win32_29_jan_2020\\eclipse_e-puck2\\tools\\gcc-arm-none-eabi-7-2017-q
 1243              		.file 7 "../../lib/e-puck2_main-processor/ChibiOS//os/rt/ports/ARMCMx/compilers/GCC/chtypes.h"
 1244              		.file 8 "../../lib/e-puck2_main-processor/ChibiOS//os/rt/include/chsystypes.h"
 1245              		.file 9 "../../lib/e-puck2_main-processor/ChibiOS//os/rt/include/chschd.h"
 1246              		.file 10 "../../lib/e-puck2_main-processor/ChibiOS//os/ext/CMSIS/include/core_cm4.h"
 1247              		.file 11 "../../lib/e-puck2_main-processor/ChibiOS//os/ext/CMSIS/ST/system_stm32f4xx.h"
 1248              		.file 12 "../../lib/e-puck2_main-processor/ChibiOS//os/ext/CMSIS/ST/stm32f407xx.h"
 1249              		.file 13 "../../lib/e-puck2_main-processor/ChibiOS//os/rt/ports/ARMCMx/chcore.h"
 1250              		.file 14 "../../lib/e-puck2_main-processor/ChibiOS//os/rt/ports/ARMCMx/chcore_v7m.h"
 1251              		.file 15 "../../lib/e-puck2_main-processor/ChibiOS//os/rt/include/chdebug.h"
 1252              		.file 16 "../../lib/e-puck2_main-processor/ChibiOS//os/rt/include/chtm.h"
 1253              		.file 17 "../../lib/e-puck2_main-processor/ChibiOS//os/rt/include/chstats.h"
 1254              		.file 18 "../../lib/e-puck2_main-processor/ChibiOS//os/rt/include/chsem.h"
 1255              		.file 19 "../../lib/e-puck2_main-processor/ChibiOS//os/rt/include/chmtx.h"
 1256              		.file 20 "../../lib/e-puck2_main-processor/ChibiOS//os/rt/include/chevents.h"
 1257              		.file 21 "../../lib/e-puck2_main-processor/ChibiOS//os/rt/include/chqueues.h"
 1258              		.file 22 "../../lib/e-puck2_main-processor/ChibiOS//os/rt/include/chstreams.h"
 1259              		.file 23 "../../lib/e-puck2_main-processor/ChibiOS//os/hal/ports/STM32/STM32F4xx/stm32_dma.h"
 1260              		.file 24 "../../lib/e-puck2_main-processor/ChibiOS//os/hal/include/hal_ioblock.h"
 1261              		.file 25 "../../lib/e-puck2_main-processor/ChibiOS//os/hal/ports/STM32/LLD/GPIOv2/pal_lld.h"
ARM GAS  C:\Users\pierr\AppData\Local\Temp\ccnyMJNV.s 			page 24


 1262              		.file 26 "../../lib/e-puck2_main-processor/ChibiOS//os/hal/include/adc.h"
 1263              		.file 27 "../../lib/e-puck2_main-processor/ChibiOS//os/hal/ports/STM32/STM32F4xx/adc_lld.h"
 1264              		.file 28 "../../lib/e-puck2_main-processor/ChibiOS//os/hal/include/can.h"
 1265              		.file 29 "../../lib/e-puck2_main-processor/ChibiOS//os/hal/ports/STM32/LLD/can_lld.h"
 1266              		.file 30 "../../lib/e-puck2_main-processor/ChibiOS//os/hal/include/dac.h"
 1267              		.file 31 "../../lib/e-puck2_main-processor/ChibiOS//os/hal/ports/STM32/LLD/DACv1/dac_lld.h"
 1268              		.file 32 "../../lib/e-puck2_main-processor/ChibiOS//os/hal/include/ext.h"
 1269              		.file 33 "../../lib/e-puck2_main-processor/ChibiOS//os/hal/ports/STM32/LLD/ext_lld.h"
 1270              		.file 34 "../../lib/e-puck2_main-processor/ChibiOS//os/hal/include/gpt.h"
 1271              		.file 35 "../../lib/e-puck2_main-processor/ChibiOS//os/hal/ports/STM32/LLD/TIMv1/gpt_lld.h"
 1272              		.file 36 "../../lib/e-puck2_main-processor/ChibiOS//os/hal/ports/STM32/LLD/TIMv1/stm32_tim.h"
 1273              		.file 37 "../../lib/e-puck2_main-processor/ChibiOS//os/hal/include/i2c.h"
 1274              		.file 38 "../../lib/e-puck2_main-processor/ChibiOS//os/hal/ports/STM32/LLD/I2Cv1/i2c_lld.h"
 1275              		.file 39 "../../lib/e-puck2_main-processor/ChibiOS//os/hal/include/i2s.h"
 1276              		.file 40 "../../lib/e-puck2_main-processor/ChibiOS//os/hal/ports/STM32/LLD/SPIv1/i2s_lld.h"
 1277              		.file 41 "../../lib/e-puck2_main-processor/ChibiOS//os/hal/include/pwm.h"
 1278              		.file 42 "../../lib/e-puck2_main-processor/ChibiOS//os/hal/ports/STM32/LLD/TIMv1/pwm_lld.h"
 1279              		.file 43 "../../lib/e-puck2_main-processor/ChibiOS//os/hal/include/serial.h"
 1280              		.file 44 "../../lib/e-puck2_main-processor/ChibiOS//os/hal/ports/STM32/LLD/USARTv1/serial_lld.h"
 1281              		.file 45 "../../lib/e-puck2_main-processor/ChibiOS//os/hal/include/sdc.h"
 1282              		.file 46 "../../lib/e-puck2_main-processor/ChibiOS//os/hal/ports/STM32/LLD/sdc_lld.h"
 1283              		.file 47 "../../lib/e-puck2_main-processor/ChibiOS//os/hal/include/spi.h"
 1284              		.file 48 "../../lib/e-puck2_main-processor/ChibiOS//os/hal/ports/STM32/LLD/SPIv1/spi_lld.h"
 1285              		.file 49 "../../lib/e-puck2_main-processor/ChibiOS//os/hal/include/usb.h"
 1286              		.file 50 "../../lib/e-puck2_main-processor/ChibiOS//os/hal/ports/STM32/LLD/OTGv1/usb_lld.h"
 1287              		.file 51 "../../lib/e-puck2_main-processor/ChibiOS//os/hal/ports/STM32/LLD/OTGv1/stm32_otg.h"
 1288              		.file 52 "d:\\eclipse_e-puck2_win32_29_jan_2020\\eclipse_e-puck2\\tools\\gcc-arm-none-eabi-7-2017-
 1289              		.file 53 "d:\\eclipse_e-puck2_win32_29_jan_2020\\eclipse_e-puck2\\tools\\gcc-arm-none-eabi-7-2017-
 1290              		.file 54 "d:\\eclipse_e-puck2_win32_29_jan_2020\\eclipse_e-puck2\\tools\\gcc-arm-none-eabi-7-2017-
 1291              		.file 55 "d:\\eclipse_e-puck2_win32_29_jan_2020\\eclipse_e-puck2\\tools\\gcc-arm-none-eabi-7-2017-
 1292              		.file 56 "../../lib/e-puck2_main-processor/src/cmp/cmp.h"
 1293              		.file 57 "../../lib/e-puck2_main-processor/src/cmp_mem_access/cmp_mem_access.h"
 1294              		.file 58 "../../lib/e-puck2_main-processor/src/serial-datagram/serial_datagram.h"
 1295              		.file 59 "../../lib/e-puck2_main-processor/src/communication.h"
 1296              		.file 60 "d:\\eclipse_e-puck2_win32_29_jan_2020\\eclipse_e-puck2\\tools\\gcc-arm-none-eabi-7-2017-
 1297              		.file 61 "../../lib/e-puck2_main-processor/src/msgbus/messagebus.h"
 1298              		.file 62 "../../lib/e-puck2_main-processor/src/sensors/imu.h"
 1299              		.file 63 "../../lib/e-puck2_main-processor/ChibiOS_ext/os/hal/include/../ports/STM32/STM32F4xx/dcm
 1300              		.file 64 "../../lib/e-puck2_main-processor/src/parameter/parameter.h"
 1301              		.file 65 "./main.h"
 1302              		.file 66 "../../lib/e-puck2_main-processor/ChibiOS//os/rt/include/chthreads.h"
 1303              		.file 67 "d:\\eclipse_e-puck2_win32_29_jan_2020\\eclipse_e-puck2\\tools\\gcc-arm-none-eabi-7-2017-
 1304              		.file 68 "../../lib/e-puck2_main-processor/src/sensors/battery_level.h"
 1305              		.file 69 "../../lib/e-puck2_main-processor/src/sensors/VL53L0X/VL53L0X.h"
 1306              		.file 70 "../../lib/e-puck2_main-processor/src/leds.h"
