ARM GAS  C:\Users\pierr\AppData\Local\Temp\ccqUrzo0.s 			page 1


   1              		.cpu cortex-m4
   2              		.eabi_attribute 27, 1
   3              		.eabi_attribute 28, 1
   4              		.eabi_attribute 20, 1
   5              		.eabi_attribute 21, 1
   6              		.eabi_attribute 23, 3
   7              		.eabi_attribute 24, 1
   8              		.eabi_attribute 25, 1
   9              		.eabi_attribute 26, 1
  10              		.eabi_attribute 30, 2
  11              		.eabi_attribute 34, 1
  12              		.eabi_attribute 18, 4
  13              		.file	"crc32.c"
  14              		.text
  15              	.Ltext0:
  16              		.cfi_sections	.debug_frame
  17              		.section	.text.crc32,"ax",%progbits
  18              		.align	1
  19              		.p2align 4,,15
  20              		.global	crc32
  21              		.syntax unified
  22              		.thumb
  23              		.thumb_func
  24              		.fpu fpv4-sp-d16
  25              		.type	crc32, %function
  26              	crc32:
  27              	.LFB0:
  28              		.file 1 "../../lib/e-puck2_main-processor/src/crc/crc32.c"
  29              		.loc 1 8 0
  30              		.cfi_startproc
  31              		@ args = 0, pretend = 0, frame = 8
  32              		@ frame_needed = 0, uses_anonymous_args = 0
  33              	.LVL0:
  34 0000 F0B5     		push	{r4, r5, r6, r7, lr}
  35              		.cfi_def_cfa_offset 20
  36              		.cfi_offset 4, -20
  37              		.cfi_offset 5, -16
  38              		.cfi_offset 6, -12
  39              		.cfi_offset 7, -8
  40              		.cfi_offset 14, -4
  41 0002 134F     		ldr	r7, .L18
  42 0004 83B0     		sub	sp, sp, #12
  43              		.cfi_def_cfa_offset 32
  44              		.loc 1 8 0
  45 0006 3B68     		ldr	r3, [r7]
  46 0008 0193     		str	r3, [sp, #4]
  47              	.LVL1:
  48              		.loc 1 10 0
  49 000a C043     		mvns	r0, r0
  50              	.LVL2:
  51              		.loc 1 12 0
  52 000c AAB1     		cbz	r2, .L2
  53 000e 013A     		subs	r2, r2, #1
  54              	.LVL3:
  55              	.LBB2:
  56              		.loc 1 16 0
  57 0010 104C     		ldr	r4, .L18+4
ARM GAS  C:\Users\pierr\AppData\Local\Temp\ccqUrzo0.s 			page 2


  58 0012 8E18     		adds	r6, r1, r2
  59 0014 4D1E     		subs	r5, r1, #1
  60              	.LVL4:
  61              	.L5:
  62              		.loc 1 15 0
  63 0016 15F8011F 		ldrb	r1, [r5, #1]!	@ zero_extendqisi2
  64              	.LVL5:
  65              		.loc 1 14 0
  66 001a 0023     		movs	r3, #0
  67              	.L4:
  68              	.LVL6:
  69              		.loc 1 15 0
  70 001c 41FA03F2 		asr	r2, r1, r3
  71 0020 4240     		eors	r2, r2, r0
  72 0022 12F0010F 		tst	r2, #1
  73 0026 4FEA5000 		lsr	r0, r0, #1
  74              	.LVL7:
  75              		.loc 1 14 0
  76 002a 03F10103 		add	r3, r3, #1
  77              	.LVL8:
  78              		.loc 1 16 0
  79 002e 18BF     		it	ne
  80 0030 6040     		eorne	r0, r0, r4
  81              	.LVL9:
  82              		.loc 1 14 0
  83 0032 082B     		cmp	r3, #8
  84 0034 F2D1     		bne	.L4
  85              	.LVL10:
  86              	.LBE2:
  87              		.loc 1 12 0 discriminator 2
  88 0036 AE42     		cmp	r6, r5
  89 0038 EDD1     		bne	.L5
  90              	.LVL11:
  91              	.L2:
  92              		.loc 1 23 0
  93 003a 019A     		ldr	r2, [sp, #4]
  94 003c 3B68     		ldr	r3, [r7]
  95 003e 9A42     		cmp	r2, r3
  96 0040 6FEA0000 		mvn	r0, r0
  97              	.LVL12:
  98 0044 01D1     		bne	.L17
  99 0046 03B0     		add	sp, sp, #12
 100              		.cfi_remember_state
 101              		.cfi_def_cfa_offset 20
 102              		@ sp needed
 103 0048 F0BD     		pop	{r4, r5, r6, r7, pc}
 104              	.L17:
 105              		.cfi_restore_state
 106 004a FFF7FEFF 		bl	__stack_chk_fail
 107              	.LVL13:
 108              	.L19:
 109 004e 00BF     		.align	2
 110              	.L18:
 111 0050 00000000 		.word	__stack_chk_guard
 112 0054 2083B8ED 		.word	-306674912
 113              		.cfi_endproc
 114              	.LFE0:
ARM GAS  C:\Users\pierr\AppData\Local\Temp\ccqUrzo0.s 			page 3


 115              		.size	crc32, .-crc32
 116              		.text
 117              	.Letext0:
 118              		.file 2 "d:\\eclipse_e-puck2_win32_29_jan_2020\\eclipse_e-puck2\\tools\\gcc-arm-none-eabi-7-2017-q
 119              		.file 3 "d:\\eclipse_e-puck2_win32_29_jan_2020\\eclipse_e-puck2\\tools\\gcc-arm-none-eabi-7-2017-q
 120              		.file 4 "d:\\eclipse_e-puck2_win32_29_jan_2020\\eclipse_e-puck2\\tools\\gcc-arm-none-eabi-7-2017-q
 121              		.file 5 "d:\\eclipse_e-puck2_win32_29_jan_2020\\eclipse_e-puck2\\tools\\gcc-arm-none-eabi-7-2017-q
 122              		.file 6 "d:\\eclipse_e-puck2_win32_29_jan_2020\\eclipse_e-puck2\\tools\\gcc-arm-none-eabi-7-2017-q
 123              		.file 7 "d:\\eclipse_e-puck2_win32_29_jan_2020\\eclipse_e-puck2\\tools\\gcc-arm-none-eabi-7-2017-q
 124              		.file 8 "d:\\eclipse_e-puck2_win32_29_jan_2020\\eclipse_e-puck2\\tools\\gcc-arm-none-eabi-7-2017-q
