ARM GAS  C:\Users\pierr\AppData\Local\Temp\cczAiq2j.s 			page 1


   1              		.cpu cortex-m4
   2              		.eabi_attribute 27, 1
   3              		.eabi_attribute 28, 1
   4              		.eabi_attribute 20, 1
   5              		.eabi_attribute 21, 1
   6              		.eabi_attribute 23, 3
   7              		.eabi_attribute 24, 1
   8              		.eabi_attribute 25, 1
   9              		.eabi_attribute 26, 1
  10              		.eabi_attribute 30, 2
  11              		.eabi_attribute 34, 1
  12              		.eabi_attribute 18, 4
  13              		.file	"e_ad_conv.c"
  14              		.text
  15              	.Ltext0:
  16              		.cfi_sections	.debug_frame
  17              		.section	.text.e_init_ad_scan,"ax",%progbits
  18              		.align	1
  19              		.p2align 4,,15
  20              		.global	e_init_ad_scan
  21              		.syntax unified
  22              		.thumb
  23              		.thumb_func
  24              		.fpu fpv4-sp-d16
  25              		.type	e_init_ad_scan, %function
  26              	e_init_ad_scan:
  27              	.LFB256:
  28              		.file 1 "../../lib/e-puck2_main-processor/src/epuck1x/a_d/advance_ad_scan/e_ad_conv.c"
  29              		.loc 1 11 0
  30              		.cfi_startproc
  31              		@ args = 0, pretend = 0, frame = 8
  32              		@ frame_needed = 0, uses_anonymous_args = 0
  33              	.LVL0:
  34 0000 10B5     		push	{r4, lr}
  35              		.cfi_def_cfa_offset 8
  36              		.cfi_offset 4, -8
  37              		.cfi_offset 14, -4
  38 0002 0B4C     		ldr	r4, .L6
  39 0004 82B0     		sub	sp, sp, #8
  40              		.cfi_def_cfa_offset 16
  41              		.loc 1 11 0
  42 0006 2368     		ldr	r3, [r4]
  43 0008 0193     		str	r3, [sp, #4]
  44              		.loc 1 13 0
  45 000a FFF7FEFF 		bl	proximity_start
  46              	.LVL1:
  47              		.loc 1 14 0
  48 000e FFF7FEFF 		bl	imu_start
  49              	.LVL2:
  50              		.loc 1 15 0
  51 0012 0020     		movs	r0, #0
  52 0014 FFF7FEFF 		bl	mic_start
  53              	.LVL3:
  54              		.loc 1 16 0
  55 0018 FFF7FEFF 		bl	mic_get_buffer_ptr
  56              	.LVL4:
  57              		.loc 1 17 0
ARM GAS  C:\Users\pierr\AppData\Local\Temp\cczAiq2j.s 			page 2


  58 001c 019A     		ldr	r2, [sp, #4]
  59 001e 2368     		ldr	r3, [r4]
  60              		.loc 1 16 0
  61 0020 0449     		ldr	r1, .L6+4
  62              		.loc 1 17 0
  63 0022 9A42     		cmp	r2, r3
  64              		.loc 1 16 0
  65 0024 0860     		str	r0, [r1]
  66              		.loc 1 17 0
  67 0026 01D1     		bne	.L5
  68 0028 02B0     		add	sp, sp, #8
  69              		.cfi_remember_state
  70              		.cfi_def_cfa_offset 8
  71              		@ sp needed
  72 002a 10BD     		pop	{r4, pc}
  73              	.L5:
  74              		.cfi_restore_state
  75 002c FFF7FEFF 		bl	__stack_chk_fail
  76              	.LVL5:
  77              	.L7:
  78              		.align	2
  79              	.L6:
  80 0030 00000000 		.word	__stack_chk_guard
  81 0034 00000000 		.word	.LANCHOR0
  82              		.cfi_endproc
  83              	.LFE256:
  84              		.size	e_init_ad_scan, .-e_init_ad_scan
  85              		.section	.text.e_ad_is_acquisition_completed,"ax",%progbits
  86              		.align	1
  87              		.p2align 4,,15
  88              		.global	e_ad_is_acquisition_completed
  89              		.syntax unified
  90              		.thumb
  91              		.thumb_func
  92              		.fpu fpv4-sp-d16
  93              		.type	e_ad_is_acquisition_completed, %function
  94              	e_ad_is_acquisition_completed:
  95              	.LFB262:
  96              		.cfi_startproc
  97              		@ args = 0, pretend = 0, frame = 8
  98              		@ frame_needed = 0, uses_anonymous_args = 0
  99 0000 00B5     		push	{lr}
 100              		.cfi_def_cfa_offset 4
 101              		.cfi_offset 14, -4
 102 0002 074B     		ldr	r3, .L12
 103 0004 83B0     		sub	sp, sp, #12
 104              		.cfi_def_cfa_offset 16
 105 0006 1A68     		ldr	r2, [r3]
 106 0008 0192     		str	r2, [sp, #4]
 107 000a 019A     		ldr	r2, [sp, #4]
 108 000c 1B68     		ldr	r3, [r3]
 109 000e 9A42     		cmp	r2, r3
 110 0010 03D1     		bne	.L11
 111 0012 0120     		movs	r0, #1
 112 0014 03B0     		add	sp, sp, #12
 113              		.cfi_remember_state
 114              		.cfi_def_cfa_offset 4
ARM GAS  C:\Users\pierr\AppData\Local\Temp\cczAiq2j.s 			page 3


 115              		@ sp needed
 116 0016 5DF804FB 		ldr	pc, [sp], #4
 117              	.L11:
 118              		.cfi_restore_state
 119 001a FFF7FEFF 		bl	__stack_chk_fail
 120              	.L13:
 121 001e 00BF     		.align	2
 122              	.L12:
 123 0020 00000000 		.word	__stack_chk_guard
 124              		.cfi_endproc
 125              	.LFE262:
 126              		.size	e_ad_is_acquisition_completed, .-e_ad_is_acquisition_completed
 127              		.section	.text.e_ad_is_array_filled,"ax",%progbits
 128              		.align	1
 129              		.p2align 4,,15
 130              		.global	e_ad_is_array_filled
 131              		.syntax unified
 132              		.thumb
 133              		.thumb_func
 134              		.fpu fpv4-sp-d16
 135              		.type	e_ad_is_array_filled, %function
 136              	e_ad_is_array_filled:
 137              	.LFB258:
 138              		.loc 1 25 0
 139              		.cfi_startproc
 140              		@ args = 0, pretend = 0, frame = 8
 141              		@ frame_needed = 0, uses_anonymous_args = 0
 142              		.loc 1 25 0
 143 0000 00B5     		push	{lr}
 144              		.cfi_def_cfa_offset 4
 145              		.cfi_offset 14, -4
 146 0002 074B     		ldr	r3, .L18
 147 0004 83B0     		sub	sp, sp, #12
 148              		.cfi_def_cfa_offset 16
 149              		.loc 1 25 0
 150 0006 1A68     		ldr	r2, [r3]
 151 0008 0192     		str	r2, [sp, #4]
 152              		.loc 1 27 0
 153 000a 019A     		ldr	r2, [sp, #4]
 154 000c 1B68     		ldr	r3, [r3]
 155 000e 9A42     		cmp	r2, r3
 156 0010 03D1     		bne	.L17
 157 0012 0120     		movs	r0, #1
 158 0014 03B0     		add	sp, sp, #12
 159              		.cfi_remember_state
 160              		.cfi_def_cfa_offset 4
 161              		@ sp needed
 162 0016 5DF804FB 		ldr	pc, [sp], #4
 163              	.L17:
 164              		.cfi_restore_state
 165 001a FFF7FEFF 		bl	__stack_chk_fail
 166              	.LVL6:
 167              	.L19:
 168 001e 00BF     		.align	2
 169              	.L18:
 170 0020 00000000 		.word	__stack_chk_guard
 171              		.cfi_endproc
ARM GAS  C:\Users\pierr\AppData\Local\Temp\cczAiq2j.s 			page 4


 172              	.LFE258:
 173              		.size	e_ad_is_array_filled, .-e_ad_is_array_filled
 174              		.section	.text.e_ad_scan_on,"ax",%progbits
 175              		.align	1
 176              		.p2align 4,,15
 177              		.global	e_ad_scan_on
 178              		.syntax unified
 179              		.thumb
 180              		.thumb_func
 181              		.fpu fpv4-sp-d16
 182              		.type	e_ad_scan_on, %function
 183              	e_ad_scan_on:
 184              	.LFB259:
 185              		.loc 1 30 0
 186              		.cfi_startproc
 187              		@ args = 0, pretend = 0, frame = 8
 188              		@ frame_needed = 0, uses_anonymous_args = 0
 189 0000 00B5     		push	{lr}
 190              		.cfi_def_cfa_offset 4
 191              		.cfi_offset 14, -4
 192 0002 064B     		ldr	r3, .L24
 193 0004 83B0     		sub	sp, sp, #12
 194              		.cfi_def_cfa_offset 16
 195              		.loc 1 30 0
 196 0006 1A68     		ldr	r2, [r3]
 197 0008 0192     		str	r2, [sp, #4]
 198              		.loc 1 32 0
 199 000a 019A     		ldr	r2, [sp, #4]
 200 000c 1B68     		ldr	r3, [r3]
 201 000e 9A42     		cmp	r2, r3
 202 0010 02D1     		bne	.L23
 203 0012 03B0     		add	sp, sp, #12
 204              		.cfi_remember_state
 205              		.cfi_def_cfa_offset 4
 206              		@ sp needed
 207 0014 5DF804FB 		ldr	pc, [sp], #4
 208              	.L23:
 209              		.cfi_restore_state
 210 0018 FFF7FEFF 		bl	__stack_chk_fail
 211              	.LVL7:
 212              	.L25:
 213              		.align	2
 214              	.L24:
 215 001c 00000000 		.word	__stack_chk_guard
 216              		.cfi_endproc
 217              	.LFE259:
 218              		.size	e_ad_scan_on, .-e_ad_scan_on
 219              		.section	.text.e_ad_scan_off,"ax",%progbits
 220              		.align	1
 221              		.p2align 4,,15
 222              		.global	e_ad_scan_off
 223              		.syntax unified
 224              		.thumb
 225              		.thumb_func
 226              		.fpu fpv4-sp-d16
 227              		.type	e_ad_scan_off, %function
 228              	e_ad_scan_off:
ARM GAS  C:\Users\pierr\AppData\Local\Temp\cczAiq2j.s 			page 5


 229              	.LFB264:
 230              		.cfi_startproc
 231              		@ args = 0, pretend = 0, frame = 8
 232              		@ frame_needed = 0, uses_anonymous_args = 0
 233 0000 00B5     		push	{lr}
 234              		.cfi_def_cfa_offset 4
 235              		.cfi_offset 14, -4
 236 0002 064B     		ldr	r3, .L30
 237 0004 83B0     		sub	sp, sp, #12
 238              		.cfi_def_cfa_offset 16
 239 0006 1A68     		ldr	r2, [r3]
 240 0008 0192     		str	r2, [sp, #4]
 241 000a 019A     		ldr	r2, [sp, #4]
 242 000c 1B68     		ldr	r3, [r3]
 243 000e 9A42     		cmp	r2, r3
 244 0010 02D1     		bne	.L29
 245 0012 03B0     		add	sp, sp, #12
 246              		.cfi_remember_state
 247              		.cfi_def_cfa_offset 4
 248              		@ sp needed
 249 0014 5DF804FB 		ldr	pc, [sp], #4
 250              	.L29:
 251              		.cfi_restore_state
 252 0018 FFF7FEFF 		bl	__stack_chk_fail
 253              	.L31:
 254              		.align	2
 255              	.L30:
 256 001c 00000000 		.word	__stack_chk_guard
 257              		.cfi_endproc
 258              	.LFE264:
 259              		.size	e_ad_scan_off, .-e_ad_scan_off
 260              		.global	e_last_mic_scan_id
 261              		.global	e_mic_scan
 262              		.section	.bss.e_mic_scan,"aw",%nobits
 263              		.align	2
 264              		.set	.LANCHOR0,. + 0
 265              		.type	e_mic_scan, %object
 266              		.size	e_mic_scan, 4
 267              	e_mic_scan:
 268 0000 00000000 		.space	4
 269              		.section	.data.e_last_mic_scan_id,"aw",%progbits
 270              		.align	2
 271              		.type	e_last_mic_scan_id, %object
 272              		.size	e_last_mic_scan_id, 4
 273              	e_last_mic_scan_id:
 274 0000 9F000000 		.word	159
 275              		.text
 276              	.Letext0:
 277              		.file 2 "d:\\eclipse_e-puck2_win32_29_jan_2020\\eclipse_e-puck2\\tools\\gcc-arm-none-eabi-7-2017-q
 278              		.file 3 "d:\\eclipse_e-puck2_win32_29_jan_2020\\eclipse_e-puck2\\tools\\gcc-arm-none-eabi-7-2017-q
 279              		.file 4 "d:\\eclipse_e-puck2_win32_29_jan_2020\\eclipse_e-puck2\\tools\\gcc-arm-none-eabi-7-2017-q
 280              		.file 5 "../../lib/e-puck2_main-processor/ChibiOS//os/rt/ports/ARMCMx/compilers/GCC/chtypes.h"
 281              		.file 6 "../../lib/e-puck2_main-processor/ChibiOS//os/rt/include/chsystypes.h"
 282              		.file 7 "../../lib/e-puck2_main-processor/ChibiOS//os/rt/include/chschd.h"
 283              		.file 8 "../../lib/e-puck2_main-processor/ChibiOS//os/ext/CMSIS/include/core_cm4.h"
 284              		.file 9 "../../lib/e-puck2_main-processor/ChibiOS//os/ext/CMSIS/ST/system_stm32f4xx.h"
 285              		.file 10 "../../lib/e-puck2_main-processor/ChibiOS//os/ext/CMSIS/ST/stm32f407xx.h"
ARM GAS  C:\Users\pierr\AppData\Local\Temp\cczAiq2j.s 			page 6


 286              		.file 11 "../../lib/e-puck2_main-processor/ChibiOS//os/rt/ports/ARMCMx/chcore.h"
 287              		.file 12 "../../lib/e-puck2_main-processor/ChibiOS//os/rt/ports/ARMCMx/chcore_v7m.h"
 288              		.file 13 "../../lib/e-puck2_main-processor/ChibiOS//os/rt/include/chdebug.h"
 289              		.file 14 "../../lib/e-puck2_main-processor/ChibiOS//os/rt/include/chtm.h"
 290              		.file 15 "../../lib/e-puck2_main-processor/ChibiOS//os/rt/include/chstats.h"
 291              		.file 16 "../../lib/e-puck2_main-processor/ChibiOS//os/rt/include/chsem.h"
 292              		.file 17 "../../lib/e-puck2_main-processor/ChibiOS//os/rt/include/chmtx.h"
 293              		.file 18 "../../lib/e-puck2_main-processor/ChibiOS//os/rt/include/chregistry.h"
 294              		.file 19 "../../lib/e-puck2_main-processor/ChibiOS//os/rt/include/chevents.h"
 295              		.file 20 "../../lib/e-puck2_main-processor/ChibiOS//os/rt/include/chqueues.h"
 296              		.file 21 "../../lib/e-puck2_main-processor/ChibiOS//os/hal/ports/STM32/STM32F4xx/stm32_dma.h"
 297              		.file 22 "../../lib/e-puck2_main-processor/ChibiOS//os/hal/include/hal_ioblock.h"
 298              		.file 23 "../../lib/e-puck2_main-processor/ChibiOS//os/hal/ports/STM32/LLD/GPIOv2/pal_lld.h"
 299              		.file 24 "../../lib/e-puck2_main-processor/ChibiOS//os/hal/include/adc.h"
 300              		.file 25 "../../lib/e-puck2_main-processor/ChibiOS//os/hal/ports/STM32/STM32F4xx/adc_lld.h"
 301              		.file 26 "../../lib/e-puck2_main-processor/ChibiOS//os/hal/include/can.h"
 302              		.file 27 "../../lib/e-puck2_main-processor/ChibiOS//os/hal/ports/STM32/LLD/can_lld.h"
 303              		.file 28 "../../lib/e-puck2_main-processor/ChibiOS//os/hal/include/dac.h"
 304              		.file 29 "../../lib/e-puck2_main-processor/ChibiOS//os/hal/ports/STM32/LLD/DACv1/dac_lld.h"
 305              		.file 30 "../../lib/e-puck2_main-processor/ChibiOS//os/hal/include/ext.h"
 306              		.file 31 "../../lib/e-puck2_main-processor/ChibiOS//os/hal/ports/STM32/LLD/ext_lld.h"
 307              		.file 32 "../../lib/e-puck2_main-processor/ChibiOS//os/hal/include/gpt.h"
 308              		.file 33 "../../lib/e-puck2_main-processor/ChibiOS//os/hal/ports/STM32/LLD/TIMv1/gpt_lld.h"
 309              		.file 34 "../../lib/e-puck2_main-processor/ChibiOS//os/hal/ports/STM32/LLD/TIMv1/stm32_tim.h"
 310              		.file 35 "../../lib/e-puck2_main-processor/ChibiOS//os/hal/include/i2c.h"
 311              		.file 36 "../../lib/e-puck2_main-processor/ChibiOS//os/hal/ports/STM32/LLD/I2Cv1/i2c_lld.h"
 312              		.file 37 "../../lib/e-puck2_main-processor/ChibiOS//os/hal/include/i2s.h"
 313              		.file 38 "../../lib/e-puck2_main-processor/ChibiOS//os/hal/ports/STM32/LLD/SPIv1/i2s_lld.h"
 314              		.file 39 "../../lib/e-puck2_main-processor/ChibiOS//os/hal/include/pwm.h"
 315              		.file 40 "../../lib/e-puck2_main-processor/ChibiOS//os/hal/ports/STM32/LLD/TIMv1/pwm_lld.h"
 316              		.file 41 "../../lib/e-puck2_main-processor/ChibiOS//os/hal/include/serial.h"
 317              		.file 42 "../../lib/e-puck2_main-processor/ChibiOS//os/hal/ports/STM32/LLD/USARTv1/serial_lld.h"
 318              		.file 43 "../../lib/e-puck2_main-processor/ChibiOS//os/hal/include/sdc.h"
 319              		.file 44 "../../lib/e-puck2_main-processor/ChibiOS//os/hal/ports/STM32/LLD/sdc_lld.h"
 320              		.file 45 "../../lib/e-puck2_main-processor/ChibiOS//os/hal/include/spi.h"
 321              		.file 46 "../../lib/e-puck2_main-processor/ChibiOS//os/hal/ports/STM32/LLD/SPIv1/spi_lld.h"
 322              		.file 47 "../../lib/e-puck2_main-processor/ChibiOS//os/hal/include/usb.h"
 323              		.file 48 "../../lib/e-puck2_main-processor/ChibiOS//os/hal/ports/STM32/LLD/OTGv1/usb_lld.h"
 324              		.file 49 "../../lib/e-puck2_main-processor/ChibiOS//os/hal/ports/STM32/LLD/OTGv1/stm32_otg.h"
 325              		.file 50 "../../lib/e-puck2_main-processor/src/sensors/proximity.h"
 326              		.file 51 "../../lib/e-puck2_main-processor/src/sensors/imu.h"
 327              		.file 52 "../../lib/e-puck2_main-processor/src/audio/microphone.h"
