ARM GAS  C:\Users\Moi\AppData\Local\Temp\ccflr8mH.s 			page 1


   1              		.cpu cortex-m4
   2              		.eabi_attribute 27, 1
   3              		.eabi_attribute 28, 1
   4              		.eabi_attribute 20, 1
   5              		.eabi_attribute 21, 1
   6              		.eabi_attribute 23, 3
   7              		.eabi_attribute 24, 1
   8              		.eabi_attribute 25, 1
   9              		.eabi_attribute 26, 1
  10              		.eabi_attribute 30, 2
  11              		.eabi_attribute 34, 1
  12              		.eabi_attribute 18, 4
  13              		.file	"e_init_port.c"
  14              		.text
  15              	.Ltext0:
  16              		.cfi_sections	.debug_frame
  17              		.section	.text.e_init_port,"ax",%progbits
  18              		.align	1
  19              		.p2align 4,,15
  20              		.global	e_init_port
  21              		.syntax unified
  22              		.thumb
  23              		.thumb_func
  24              		.fpu fpv4-sp-d16
  25              		.type	e_init_port, %function
  26              	e_init_port:
  27              	.LFB0:
  28              		.file 1 "../../lib/e-puck2_main-processor/src/epuck1x/motor_led/e_init_port.c"
  29              		.loc 1 39 0
  30              		.cfi_startproc
  31              		@ args = 0, pretend = 0, frame = 8
  32              		@ frame_needed = 0, uses_anonymous_args = 0
  33 0000 00B5     		push	{lr}
  34              		.cfi_def_cfa_offset 4
  35              		.cfi_offset 14, -4
  36 0002 064B     		ldr	r3, .L6
  37 0004 83B0     		sub	sp, sp, #12
  38              		.cfi_def_cfa_offset 16
  39              		.loc 1 39 0
  40 0006 1A68     		ldr	r2, [r3]
  41 0008 0192     		str	r2, [sp, #4]
  42              		.loc 1 41 0
  43 000a 019A     		ldr	r2, [sp, #4]
  44 000c 1B68     		ldr	r3, [r3]
  45 000e 9A42     		cmp	r2, r3
  46 0010 02D1     		bne	.L5
  47 0012 03B0     		add	sp, sp, #12
  48              		.cfi_remember_state
  49              		.cfi_def_cfa_offset 4
  50              		@ sp needed
  51 0014 5DF804FB 		ldr	pc, [sp], #4
  52              	.L5:
  53              		.cfi_restore_state
  54 0018 FFF7FEFF 		bl	__stack_chk_fail
  55              	.LVL0:
  56              	.L7:
  57              		.align	2
ARM GAS  C:\Users\Moi\AppData\Local\Temp\ccflr8mH.s 			page 2


  58              	.L6:
  59 001c 00000000 		.word	__stack_chk_guard
  60              		.cfi_endproc
  61              	.LFE0:
  62              		.size	e_init_port, .-e_init_port
  63              		.section	.text.isEpuckVersion1_3,"ax",%progbits
  64              		.align	1
  65              		.p2align 4,,15
  66              		.global	isEpuckVersion1_3
  67              		.syntax unified
  68              		.thumb
  69              		.thumb_func
  70              		.fpu fpv4-sp-d16
  71              		.type	isEpuckVersion1_3, %function
  72              	isEpuckVersion1_3:
  73              	.LFB1:
  74              		.loc 1 43 0
  75              		.cfi_startproc
  76              		@ args = 0, pretend = 0, frame = 8
  77              		@ frame_needed = 0, uses_anonymous_args = 0
  78 0000 00B5     		push	{lr}
  79              		.cfi_def_cfa_offset 4
  80              		.cfi_offset 14, -4
  81 0002 074B     		ldr	r3, .L12
  82 0004 83B0     		sub	sp, sp, #12
  83              		.cfi_def_cfa_offset 16
  84              		.loc 1 43 0
  85 0006 1A68     		ldr	r2, [r3]
  86 0008 0192     		str	r2, [sp, #4]
  87              		.loc 1 45 0
  88 000a 019A     		ldr	r2, [sp, #4]
  89 000c 1B68     		ldr	r3, [r3]
  90 000e 9A42     		cmp	r2, r3
  91 0010 03D1     		bne	.L11
  92 0012 0120     		movs	r0, #1
  93 0014 03B0     		add	sp, sp, #12
  94              		.cfi_remember_state
  95              		.cfi_def_cfa_offset 4
  96              		@ sp needed
  97 0016 5DF804FB 		ldr	pc, [sp], #4
  98              	.L11:
  99              		.cfi_restore_state
 100 001a FFF7FEFF 		bl	__stack_chk_fail
 101              	.LVL1:
 102              	.L13:
 103 001e 00BF     		.align	2
 104              	.L12:
 105 0020 00000000 		.word	__stack_chk_guard
 106              		.cfi_endproc
 107              	.LFE1:
 108              		.size	isEpuckVersion1_3, .-isEpuckVersion1_3
 109              		.text
 110              	.Letext0:
