ARM GAS  C:\Users\pierr\AppData\Local\Temp\ccWd1c9h.s 			page 1


   1              		.cpu cortex-m4
   2              		.eabi_attribute 27, 1
   3              		.eabi_attribute 28, 1
   4              		.eabi_attribute 20, 1
   5              		.eabi_attribute 21, 1
   6              		.eabi_attribute 23, 3
   7              		.eabi_attribute 24, 1
   8              		.eabi_attribute 25, 1
   9              		.eabi_attribute 26, 1
  10              		.eabi_attribute 30, 2
  11              		.eabi_attribute 34, 1
  12              		.eabi_attribute 18, 4
  13              		.file	"main.c"
  14              		.text
  15              	.Ltext0:
  16              		.cfi_sections	.debug_frame
  17              		.section	.text.AllumerLeds,"ax",%progbits
  18              		.align	1
  19              		.p2align 4,,15
  20              		.global	AllumerLeds
  21              		.syntax unified
  22              		.thumb
  23              		.thumb_func
  24              		.fpu fpv4-sp-d16
  25              		.type	AllumerLeds, %function
  26              	AllumerLeds:
  27              	.LFB260:
  28              		.file 1 "main.c"
  29              		.loc 1 59 0
  30              		.cfi_startproc
  31              		@ args = 0, pretend = 0, frame = 8
  32              		@ frame_needed = 0, uses_anonymous_args = 0
  33 0000 30B5     		push	{r4, r5, lr}
  34              		.cfi_def_cfa_offset 12
  35              		.cfi_offset 4, -12
  36              		.cfi_offset 5, -8
  37              		.cfi_offset 14, -4
  38 0002 0C4A     		ldr	r2, .L6
  39              		.loc 1 62 0
  40 0004 0C4B     		ldr	r3, .L6+4
  41              		.loc 1 59 0
  42 0006 1168     		ldr	r1, [r2]
  43 0008 83B0     		sub	sp, sp, #12
  44              		.cfi_def_cfa_offset 24
  45              		.loc 1 62 0
  46 000a 4FF40015 		mov	r5, #2097152
  47              		.loc 1 59 0
  48 000e 0191     		str	r1, [sp, #4]
  49              	.LVL0:
  50              		.loc 1 63 0
  51 0010 4FF48004 		mov	r4, #4194304
  52              		.loc 1 65 0
  53 0014 4FF00061 		mov	r1, #134217728
  54              		.loc 1 64 0
  55 0018 4FF08060 		mov	r0, #67108864
  56              		.loc 1 62 0
  57 001c 9D61     		str	r5, [r3, #24]
ARM GAS  C:\Users\pierr\AppData\Local\Temp\ccWd1c9h.s 			page 2


  58              		.loc 1 63 0
  59 001e 9C61     		str	r4, [r3, #24]
  60              		.loc 1 64 0
  61 0020 9861     		str	r0, [r3, #24]
  62              		.loc 1 65 0
  63 0022 9961     		str	r1, [r3, #24]
  64              		.loc 1 66 0
  65 0024 0199     		ldr	r1, [sp, #4]
  66 0026 1368     		ldr	r3, [r2]
  67 0028 9942     		cmp	r1, r3
  68 002a 01D1     		bne	.L5
  69 002c 03B0     		add	sp, sp, #12
  70              		.cfi_remember_state
  71              		.cfi_def_cfa_offset 12
  72              		@ sp needed
  73 002e 30BD     		pop	{r4, r5, pc}
  74              	.L5:
  75              		.cfi_restore_state
  76 0030 FFF7FEFF 		bl	__stack_chk_fail
  77              	.LVL1:
  78              	.L7:
  79              		.align	2
  80              	.L6:
  81 0034 00000000 		.word	__stack_chk_guard
  82 0038 000C0240 		.word	1073875968
  83              		.cfi_endproc
  84              	.LFE260:
  85              		.size	AllumerLeds, .-AllumerLeds
  86              		.section	.text.EteindreLeds,"ax",%progbits
  87              		.align	1
  88              		.p2align 4,,15
  89              		.global	EteindreLeds
  90              		.syntax unified
  91              		.thumb
  92              		.thumb_func
  93              		.fpu fpv4-sp-d16
  94              		.type	EteindreLeds, %function
  95              	EteindreLeds:
  96              	.LFB261:
  97              		.loc 1 68 0
  98              		.cfi_startproc
  99              		@ args = 0, pretend = 0, frame = 8
 100              		@ frame_needed = 0, uses_anonymous_args = 0
 101 0000 00B5     		push	{lr}
 102              		.cfi_def_cfa_offset 4
 103              		.cfi_offset 14, -4
 104 0002 074B     		ldr	r3, .L13
 105 0004 83B0     		sub	sp, sp, #12
 106              		.cfi_def_cfa_offset 16
 107              		.loc 1 68 0
 108 0006 1A68     		ldr	r2, [r3]
 109 0008 0192     		str	r2, [sp, #4]
 110              		.loc 1 69 0
 111 000a 019A     		ldr	r2, [sp, #4]
 112 000c 1B68     		ldr	r3, [r3]
 113 000e 9A42     		cmp	r2, r3
 114 0010 04D1     		bne	.L12
ARM GAS  C:\Users\pierr\AppData\Local\Temp\ccWd1c9h.s 			page 3


 115              		.loc 1 70 0
 116 0012 03B0     		add	sp, sp, #12
 117              		.cfi_remember_state
 118              		.cfi_def_cfa_offset 4
 119              		@ sp needed
 120 0014 5DF804EB 		ldr	lr, [sp], #4
 121              		.cfi_restore 14
 122              		.cfi_def_cfa_offset 0
 123              		.loc 1 69 0
 124 0018 FFF7FEBF 		b	clear_leds
 125              	.LVL2:
 126              	.L12:
 127              		.cfi_restore_state
 128 001c FFF7FEFF 		bl	__stack_chk_fail
 129              	.LVL3:
 130              	.L14:
 131              		.align	2
 132              	.L13:
 133 0020 00000000 		.word	__stack_chk_guard
 134              		.cfi_endproc
 135              	.LFE261:
 136              		.size	EteindreLeds, .-EteindreLeds
 137              		.section	.text.LancerJeu,"ax",%progbits
 138              		.align	1
 139              		.p2align 4,,15
 140              		.global	LancerJeu
 141              		.syntax unified
 142              		.thumb
 143              		.thumb_func
 144              		.fpu fpv4-sp-d16
 145              		.type	LancerJeu, %function
 146              	LancerJeu:
 147              	.LFB262:
 148              		.loc 1 74 0
 149              		.cfi_startproc
 150              		@ args = 0, pretend = 0, frame = 8
 151              		@ frame_needed = 0, uses_anonymous_args = 0
 152 0000 30B5     		push	{r4, r5, lr}
 153              		.cfi_def_cfa_offset 12
 154              		.cfi_offset 4, -12
 155              		.cfi_offset 5, -8
 156              		.cfi_offset 14, -4
 157 0002 1D4C     		ldr	r4, .L20
 158 0004 83B0     		sub	sp, sp, #12
 159              		.cfi_def_cfa_offset 24
 160              		.loc 1 74 0
 161 0006 2368     		ldr	r3, [r4]
 162 0008 0193     		str	r3, [sp, #4]
 163              		.loc 1 76 0
 164 000a FFF7FEFF 		bl	BloquerMoteurs
 165              	.LVL4:
 166              		.loc 1 77 0
 167 000e FFF7FEFF 		bl	StopperRecherche
 168              	.LVL5:
 169              		.loc 1 78 0
 170 0012 FFF7FEFF 		bl	StopperAutonome
 171              	.LVL6:
ARM GAS  C:\Users\pierr\AppData\Local\Temp\ccWd1c9h.s 			page 4


 172              		.loc 1 79 0
 173 0016 FFF7FEFF 		bl	ResetObstacle
 174              	.LVL7:
 175              		.loc 1 81 0
 176 001a 0022     		movs	r2, #0
 177 001c 1146     		mov	r1, r2
 178 001e 0520     		movs	r0, #5
 179 0020 FFF7FEFF 		bl	playMelody
 180              	.LVL8:
 181              	.LBB15:
 182              	.LBB16:
 183              		.loc 1 62 0
 184 0024 154B     		ldr	r3, .L20+4
 185              		.loc 1 64 0
 186 0026 4FF08061 		mov	r1, #67108864
 187              		.loc 1 65 0
 188 002a 4FF00062 		mov	r2, #134217728
 189              		.loc 1 63 0
 190 002e 4FF48000 		mov	r0, #4194304
 191              		.loc 1 62 0
 192 0032 4FF40015 		mov	r5, #2097152
 193 0036 9D61     		str	r5, [r3, #24]
 194              		.loc 1 63 0
 195 0038 9861     		str	r0, [r3, #24]
 196              		.loc 1 64 0
 197 003a 9961     		str	r1, [r3, #24]
 198              	.LBE16:
 199              	.LBE15:
 200              		.loc 1 83 0
 201 003c 41F28830 		movw	r0, #5000
 202              	.LBB18:
 203              	.LBB17:
 204              		.loc 1 65 0
 205 0040 9A61     		str	r2, [r3, #24]
 206              	.LBE17:
 207              	.LBE18:
 208              		.loc 1 83 0
 209 0042 FFF7FEFF 		bl	chThdSleep
 210              	.LVL9:
 211              	.LBB19:
 212              	.LBB20:
 213              		.loc 1 69 0
 214 0046 FFF7FEFF 		bl	clear_leds
 215              	.LVL10:
 216              	.LBE20:
 217              	.LBE19:
 218              		.loc 1 86 0
 219 004a 0D49     		ldr	r1, .L20+8
 220              		.loc 1 87 0
 221 004c 0D4B     		ldr	r3, .L20+12
 222 004e 0122     		movs	r2, #1
 223              		.loc 1 86 0
 224 0050 0620     		movs	r0, #6
 225              		.loc 1 87 0
 226 0052 1A70     		strb	r2, [r3]
 227              		.loc 1 86 0
 228 0054 0870     		strb	r0, [r1]
ARM GAS  C:\Users\pierr\AppData\Local\Temp\ccWd1c9h.s 			page 5


 229              		.loc 1 88 0
 230 0056 FFF7FEFF 		bl	InitMouvement
 231              	.LVL11:
 232              		.loc 1 89 0
 233 005a FFF7FEFF 		bl	get_selector
 234              	.LVL12:
 235              		.loc 1 90 0
 236 005e 019A     		ldr	r2, [sp, #4]
 237 0060 2368     		ldr	r3, [r4]
 238              		.loc 1 89 0
 239 0062 0949     		ldr	r1, .L20+16
 240              		.loc 1 90 0
 241 0064 9A42     		cmp	r2, r3
 242              		.loc 1 89 0
 243 0066 0860     		str	r0, [r1]
 244              		.loc 1 90 0
 245 0068 04D1     		bne	.L19
 246              		.loc 1 91 0
 247 006a 03B0     		add	sp, sp, #12
 248              		.cfi_remember_state
 249              		.cfi_def_cfa_offset 12
 250              		@ sp needed
 251 006c BDE83040 		pop	{r4, r5, lr}
 252              		.cfi_restore 14
 253              		.cfi_restore 5
 254              		.cfi_restore 4
 255              		.cfi_def_cfa_offset 0
 256              		.loc 1 90 0
 257 0070 FFF7FEBF 		b	DebloquerMoteurs
 258              	.LVL13:
 259              	.L19:
 260              		.cfi_restore_state
 261 0074 FFF7FEFF 		bl	__stack_chk_fail
 262              	.LVL14:
 263              	.L21:
 264              		.align	2
 265              	.L20:
 266 0078 00000000 		.word	__stack_chk_guard
 267 007c 000C0240 		.word	1073875968
 268 0080 00000000 		.word	.LANCHOR0
 269 0084 00000000 		.word	.LANCHOR1
 270 0088 00000000 		.word	.LANCHOR2
 271              		.cfi_endproc
 272              	.LFE262:
 273              		.size	LancerJeu, .-LancerJeu
 274              		.global	__aeabi_dcmpge
 275              		.section	.text.startup.main,"ax",%progbits
 276              		.align	1
 277              		.p2align 4,,15
 278              		.global	main
 279              		.syntax unified
 280              		.thumb
 281              		.thumb_func
 282              		.fpu fpv4-sp-d16
 283              		.type	main, %function
 284              	main:
 285              	.LFB263:
ARM GAS  C:\Users\pierr\AppData\Local\Temp\ccWd1c9h.s 			page 6


 286              		.loc 1 95 0
 287              		.cfi_startproc
 288              		@ args = 0, pretend = 0, frame = 136
 289              		@ frame_needed = 0, uses_anonymous_args = 0
 290 0000 2DE9F047 		push	{r4, r5, r6, r7, r8, r9, r10, lr}
 291              		.cfi_def_cfa_offset 32
 292              		.cfi_offset 4, -32
 293              		.cfi_offset 5, -28
 294              		.cfi_offset 6, -24
 295              		.cfi_offset 7, -20
 296              		.cfi_offset 8, -16
 297              		.cfi_offset 9, -12
 298              		.cfi_offset 10, -8
 299              		.cfi_offset 14, -4
 300 0004 5B4B     		ldr	r3, .L52
 301 0006 5C4F     		ldr	r7, .L52+4
 302 0008 1B68     		ldr	r3, [r3]
 303 000a 5C4D     		ldr	r5, .L52+8
 304 000c DFF88CA1 		ldr	r10, .L52+40
 305              	.LBB21:
 306              	.LBB22:
 307              		.loc 1 62 0
 308 0010 DFF88C81 		ldr	r8, .L52+44
 309              	.LBE22:
 310              	.LBE21:
 311              		.loc 1 95 0
 312 0014 A2B0     		sub	sp, sp, #136
 313              		.cfi_def_cfa_offset 168
 314              		.loc 1 95 0
 315 0016 2193     		str	r3, [sp, #132]
 316              		.loc 1 97 0
 317 0018 FFF7FEFF 		bl	halInit
 318              	.LVL15:
 319              		.loc 1 98 0
 320 001c FFF7FEFF 		bl	chSysInit
 321              	.LVL16:
 322              		.loc 1 99 0
 323 0020 FFF7FEFF 		bl	mpu_init
 324              	.LVL17:
 325              		.loc 1 100 0
 326 0024 FFF7FEFF 		bl	motors_init
 327              	.LVL18:
 328              		.loc 1 101 0
 329 0028 554A     		ldr	r2, .L52+12
 330 002a 5649     		ldr	r1, .L52+16
 331 002c 5648     		ldr	r0, .L52+20
 332 002e FFF7FEFF 		bl	messagebus_init
 333              	.LVL19:
 334              		.loc 1 102 0
 335 0032 FFF7FEFF 		bl	proximity_start
 336              	.LVL20:
 337              		.loc 1 103 0
 338 0036 FFF7FEFF 		bl	calibrate_ir
 339              	.LVL21:
 340              		.loc 1 104 0
 341 003a FFF7FEFF 		bl	dac_start
 342              	.LVL22:
ARM GAS  C:\Users\pierr\AppData\Local\Temp\ccWd1c9h.s 			page 7


 343              		.loc 1 105 0
 344 003e FFF7FEFF 		bl	playMelodyStart
 345              	.LVL23:
 346              		.loc 1 106 0
 347 0042 6420     		movs	r0, #100
 348 0044 FFF7FEFF 		bl	chThdSleep
 349              	.LVL24:
 350              		.loc 1 107 0
 351 0048 FFF7FEFF 		bl	ObstacleInit
 352              	.LVL25:
 353              		.loc 1 108 0
 354 004c 4F48     		ldr	r0, .L52+24
 355 004e FFF7FEFF 		bl	mic_start
 356              	.LVL26:
 357              		.loc 1 110 0
 358 0052 FFF7FEFF 		bl	LancerJeu
 359              	.LVL27:
 360              		.loc 1 113 0
 361 0056 4E49     		ldr	r1, .L52+28
 362 0058 4B48     		ldr	r0, .L52+20
 363 005a FFF7FEFF 		bl	messagebus_find_topic_blocking
 364              	.LVL28:
 365 005e 0646     		mov	r6, r0
 366              	.LVL29:
 367              	.L23:
 368              		.loc 1 127 0
 369 0060 4FF00009 		mov	r9, #0
 370              	.L32:
 371              		.loc 1 119 0
 372 0064 8022     		movs	r2, #128
 373 0066 01A9     		add	r1, sp, #4
 374 0068 3046     		mov	r0, r6
 375 006a FFF7FEFF 		bl	messagebus_topic_wait
 376              	.LVL30:
 377              		.loc 1 121 0
 378 006e FFF7FEFF 		bl	get_selector
 379              	.LVL31:
 380 0072 3B68     		ldr	r3, [r7]
 381 0074 9842     		cmp	r0, r3
 382 0076 01D0     		beq	.L24
 383              		.loc 1 122 0
 384 0078 FFF7FEFF 		bl	LancerJeu
 385              	.LVL32:
 386              	.L24:
 387              		.loc 1 125 0
 388 007c FFF7FEFF 		bl	TestRecherche
 389              	.LVL33:
 390 0080 2B78     		ldrb	r3, [r5]	@ zero_extendqisi2
 391 0082 0446     		mov	r4, r0
 392 0084 B0B1     		cbz	r0, .L25
 393              		.loc 1 125 0 is_stmt 0 discriminator 1
 394 0086 002B     		cmp	r3, #0
 395 0088 ECD0     		beq	.L32
 396              		.loc 1 126 0 is_stmt 1
 397 008a FFF7FEFF 		bl	LancerAutonome
 398              	.LVL34:
 399              	.LBB25:
ARM GAS  C:\Users\pierr\AppData\Local\Temp\ccWd1c9h.s 			page 8


 400              	.LBB23:
 401              		.loc 1 62 0
 402 008e 4FF40010 		mov	r0, #2097152
 403              		.loc 1 63 0
 404 0092 4FF48001 		mov	r1, #4194304
 405              		.loc 1 64 0
 406 0096 4FF08062 		mov	r2, #67108864
 407              		.loc 1 65 0
 408 009a 4FF00063 		mov	r3, #134217728
 409              	.LBE23:
 410              	.LBE25:
 411              		.loc 1 127 0
 412 009e 85F80090 		strb	r9, [r5]
 413              	.LVL35:
 414              	.LBB26:
 415              	.LBB24:
 416              		.loc 1 62 0
 417 00a2 C8F81800 		str	r0, [r8, #24]
 418              		.loc 1 63 0
 419 00a6 C8F81810 		str	r1, [r8, #24]
 420              		.loc 1 64 0
 421 00aa C8F81820 		str	r2, [r8, #24]
 422              		.loc 1 65 0
 423 00ae C8F81830 		str	r3, [r8, #24]
 424 00b2 D7E7     		b	.L32
 425              	.LVL36:
 426              	.L25:
 427              	.LBE24:
 428              	.LBE26:
 429              		.loc 1 131 0
 430 00b4 002B     		cmp	r3, #0
 431 00b6 D5D0     		beq	.L32
 432              	.LBB27:
 433              		.loc 1 133 0
 434 00b8 FFF7FEFF 		bl	GetPosition
 435              	.LVL37:
 436              		.loc 1 134 0
 437 00bc 0022     		movs	r2, #0
 438 00be 354B     		ldr	r3, .L52+32
 439 00c0 51EC100B 		vmov	r0, r1, d0
 440 00c4 FFF7FEFF 		bl	__aeabi_dcmpge
 441              	.LVL38:
 442 00c8 10B1     		cbz	r0, .L27
 443              		.loc 1 134 0 is_stmt 0 discriminator 1
 444 00ca 9AF80030 		ldrb	r3, [r10]	@ zero_extendqisi2
 445 00ce FBB9     		cbnz	r3, .L51
 446              	.L27:
 447              		.loc 1 142 0 is_stmt 1
 448 00d0 FFF7FEFF 		bl	GetObstacle
 449              	.LVL39:
 450 00d4 0028     		cmp	r0, #0
 451 00d6 C3D0     		beq	.L23
 452              		.loc 1 142 0 is_stmt 0 discriminator 1
 453 00d8 9AF80030 		ldrb	r3, [r10]	@ zero_extendqisi2
 454 00dc 002B     		cmp	r3, #0
 455 00de BFD0     		beq	.L23
 456              		.loc 1 143 0 is_stmt 1
ARM GAS  C:\Users\pierr\AppData\Local\Temp\ccWd1c9h.s 			page 9


 457 00e0 013B     		subs	r3, r3, #1
 458 00e2 8AF80030 		strb	r3, [r10]
 459              		.loc 1 144 0
 460 00e6 FFF7FEFF 		bl	ResetObstacle
 461              	.LVL40:
 462              		.loc 1 146 0
 463 00ea 9AF80040 		ldrb	r4, [r10]	@ zero_extendqisi2
 464 00ee 5CBB     		cbnz	r4, .L30
 465              		.loc 1 147 0
 466 00f0 FFF7FEFF 		bl	stopCurrentMelody
 467              	.LVL41:
 468              		.loc 1 148 0
 469 00f4 FFF7FEFF 		bl	waitMelodyHasFinished
 470              	.LVL42:
 471              		.loc 1 149 0
 472 00f8 2246     		mov	r2, r4
 473 00fa 2146     		mov	r1, r4
 474 00fc 0620     		movs	r0, #6
 475 00fe FFF7FEFF 		bl	playMelody
 476              	.LVL43:
 477              	.L31:
 478              		.loc 1 154 0
 479 0102 41F28830 		movw	r0, #5000
 480 0106 FFF7FEFF 		bl	chThdSleep
 481              	.LVL44:
 482              	.LBB28:
 483              	.LBB29:
 484              		.loc 1 69 0
 485 010a FFF7FEFF 		bl	clear_leds
 486              	.LVL45:
 487 010e A7E7     		b	.L23
 488              	.L51:
 489              	.LBE29:
 490              	.LBE28:
 491              		.loc 1 135 0
 492 0110 FFF7FEFF 		bl	stopCurrentMelody
 493              	.LVL46:
 494              		.loc 1 136 0
 495 0114 FFF7FEFF 		bl	waitMelodyHasFinished
 496              	.LVL47:
 497              		.loc 1 137 0
 498 0118 2246     		mov	r2, r4
 499 011a 2146     		mov	r1, r4
 500 011c 0720     		movs	r0, #7
 501 011e FFF7FEFF 		bl	playMelody
 502              	.LVL48:
 503              	.LBB30:
 504              	.LBB31:
 505              		.loc 1 62 0
 506 0122 4FF40010 		mov	r0, #2097152
 507              		.loc 1 63 0
 508 0126 4FF48001 		mov	r1, #4194304
 509              		.loc 1 64 0
 510 012a 4FF08062 		mov	r2, #67108864
 511              		.loc 1 65 0
 512 012e 4FF00063 		mov	r3, #134217728
 513              		.loc 1 62 0
ARM GAS  C:\Users\pierr\AppData\Local\Temp\ccWd1c9h.s 			page 10


 514 0132 C8F81800 		str	r0, [r8, #24]
 515              		.loc 1 63 0
 516 0136 C8F81810 		str	r1, [r8, #24]
 517              		.loc 1 64 0
 518 013a C8F81820 		str	r2, [r8, #24]
 519              		.loc 1 65 0
 520 013e C8F81830 		str	r3, [r8, #24]
 521              	.LBE31:
 522              	.LBE30:
 523              		.loc 1 139 0
 524 0142 8AF80040 		strb	r4, [r10]
 525 0146 C3E7     		b	.L27
 526              	.LVL49:
 527              	.L30:
 528              	.LBB32:
 529              	.LBB33:
 530              		.loc 1 62 0
 531 0148 4FF40012 		mov	r2, #2097152
 532              		.loc 1 63 0
 533 014c 4FF48001 		mov	r1, #4194304
 534              		.loc 1 64 0
 535 0150 4FF08060 		mov	r0, #67108864
 536              		.loc 1 65 0
 537 0154 4FF00063 		mov	r3, #134217728
 538              		.loc 1 62 0
 539 0158 C8F81820 		str	r2, [r8, #24]
 540              		.loc 1 63 0
 541 015c C8F81810 		str	r1, [r8, #24]
 542              	.LBE33:
 543              	.LBE32:
 544              		.loc 1 152 0
 545 0160 0D4A     		ldr	r2, .L52+36
 546              	.LBB36:
 547              	.LBB34:
 548              		.loc 1 64 0
 549 0162 C8F81800 		str	r0, [r8, #24]
 550              	.LBE34:
 551              	.LBE36:
 552              		.loc 1 152 0
 553 0166 0021     		movs	r1, #0
 554 0168 0F20     		movs	r0, #15
 555              	.LBB37:
 556              	.LBB35:
 557              		.loc 1 65 0
 558 016a C8F81830 		str	r3, [r8, #24]
 559              	.LBE35:
 560              	.LBE37:
 561              		.loc 1 152 0
 562 016e FFF7FEFF 		bl	playMelody
 563              	.LVL50:
 564 0172 C6E7     		b	.L31
 565              	.L53:
 566              		.align	2
 567              	.L52:
 568 0174 00000000 		.word	__stack_chk_guard
 569 0178 00000000 		.word	.LANCHOR2
 570 017c 00000000 		.word	.LANCHOR1
ARM GAS  C:\Users\pierr\AppData\Local\Temp\ccWd1c9h.s 			page 11


 571 0180 00000000 		.word	.LANCHOR3
 572 0184 00000000 		.word	.LANCHOR4
 573 0188 00000000 		.word	.LANCHOR5
 574 018c 00000000 		.word	ProcessAudio
 575 0190 00000000 		.word	.LC0
 576 0194 00005940 		.word	1079574528
 577 0198 00000000 		.word	.LANCHOR6
 578 019c 00000000 		.word	.LANCHOR0
 579 01a0 000C0240 		.word	1073875968
 580              	.LBE27:
 581              		.cfi_endproc
 582              	.LFE263:
 583              		.size	main, .-main
 584              		.section	.text.__stack_chk_fail,"ax",%progbits
 585              		.align	1
 586              		.p2align 4,,15
 587              		.global	__stack_chk_fail
 588              		.syntax unified
 589              		.thumb
 590              		.thumb_func
 591              		.fpu fpv4-sp-d16
 592              		.type	__stack_chk_fail, %function
 593              	__stack_chk_fail:
 594              	.LFB264:
 595              		.loc 1 166 0
 596              		.cfi_startproc
 597              		@ args = 0, pretend = 0, frame = 8
 598              		@ frame_needed = 0, uses_anonymous_args = 0
 599 0000 00B5     		push	{lr}
 600              		.cfi_def_cfa_offset 4
 601              		.cfi_offset 14, -4
 602 0002 084B     		ldr	r3, .L59
 603 0004 83B0     		sub	sp, sp, #12
 604              		.cfi_def_cfa_offset 16
 605              		.loc 1 166 0
 606 0006 1A68     		ldr	r2, [r3]
 607 0008 0192     		str	r2, [sp, #4]
 608              		.loc 1 167 0
 609 000a 019A     		ldr	r2, [sp, #4]
 610 000c 1B68     		ldr	r3, [r3]
 611 000e 9A42     		cmp	r2, r3
 612 0010 05D1     		bne	.L58
 613 0012 0548     		ldr	r0, .L59+4
 614              		.loc 1 168 0
 615 0014 03B0     		add	sp, sp, #12
 616              		.cfi_remember_state
 617              		.cfi_def_cfa_offset 4
 618              		@ sp needed
 619 0016 5DF804EB 		ldr	lr, [sp], #4
 620              		.cfi_restore 14
 621              		.cfi_def_cfa_offset 0
 622              		.loc 1 167 0
 623 001a FFF7FEBF 		b	chSysHalt
 624              	.LVL51:
 625              	.L58:
 626              		.cfi_restore_state
 627 001e FFF7FEFF 		bl	__stack_chk_fail
ARM GAS  C:\Users\pierr\AppData\Local\Temp\ccWd1c9h.s 			page 12


 628              	.LVL52:
 629              	.L60:
 630 0022 00BF     		.align	2
 631              	.L59:
 632 0024 00000000 		.word	__stack_chk_guard
 633 0028 00000000 		.word	.LC1
 634              		.cfi_endproc
 635              	.LFE264:
 636              		.size	__stack_chk_fail, .-__stack_chk_fail
 637              		.global	__stack_chk_guard
 638              		.global	bus_condvar
 639              		.global	bus_lock
 640              		.global	bus
 641              		.section	.bss.boolJeu,"aw",%nobits
 642              		.set	.LANCHOR1,. + 0
 643              		.type	boolJeu, %object
 644              		.size	boolJeu, 1
 645              	boolJeu:
 646 0000 00       		.space	1
 647              		.section	.bss.bus,"aw",%nobits
 648              		.align	2
 649              		.set	.LANCHOR5,. + 0
 650              		.type	bus, %object
 651              		.size	bus, 12
 652              	bus:
 653 0000 00000000 		.space	12
 653      00000000 
 653      00000000 
 654              		.section	.bss.previousSelector,"aw",%nobits
 655              		.align	2
 656              		.set	.LANCHOR2,. + 0
 657              		.type	previousSelector, %object
 658              		.size	previousSelector, 4
 659              	previousSelector:
 660 0000 00000000 		.space	4
 661              		.section	.bss.vies,"aw",%nobits
 662              		.set	.LANCHOR0,. + 0
 663              		.type	vies, %object
 664              		.size	vies, 1
 665              	vies:
 666 0000 00       		.space	1
 667              		.section	.data.__stack_chk_guard,"aw",%progbits
 668              		.align	2
 669              		.type	__stack_chk_guard, %object
 670              		.size	__stack_chk_guard, 4
 671              	__stack_chk_guard:
 672 0000 96E3DEE2 		.word	-488709226
 673              		.section	.data.bus_condvar,"aw",%progbits
 674              		.align	2
 675              		.set	.LANCHOR3,. + 0
 676              		.type	bus_condvar, %object
 677              		.size	bus_condvar, 8
 678              	bus_condvar:
 679 0000 00000000 		.word	bus_condvar
 680 0004 00000000 		.word	bus_condvar
 681              		.section	.data.bus_lock,"aw",%progbits
 682              		.align	2
ARM GAS  C:\Users\pierr\AppData\Local\Temp\ccWd1c9h.s 			page 13


 683              		.set	.LANCHOR4,. + 0
 684              		.type	bus_lock, %object
 685              		.size	bus_lock, 20
 686              	bus_lock:
 687 0000 00000000 		.word	bus_lock
 688 0004 00000000 		.word	bus_lock
 689 0008 00000000 		.word	0
 690 000c 00000000 		.word	0
 691 0010 00000000 		.word	0
 692              		.section	.rodata.__stack_chk_fail.str1.4,"aMS",%progbits,1
 693              		.align	2
 694              	.LC1:
 695 0000 53746163 		.ascii	"Stack smashing detected\000"
 695      6B20736D 
 695      61736869 
 695      6E672064 
 695      65746563 
 696              		.section	.rodata.loseOneLife_melody,"a",%progbits
 697              		.align	2
 698              		.type	loseOneLife_melody, %object
 699              		.size	loseOneLife_melody, 10
 700              	loseOneLife_melody:
 701 0000 1704     		.short	1047
 702 0002 7003     		.short	880
 703 0004 1704     		.short	1047
 704 0006 DC03     		.short	988
 705 0008 1003     		.short	784
 706              		.section	.rodata.loseOneLife_tempo,"a",%progbits
 707              		.align	2
 708              		.type	loseOneLife_tempo, %object
 709              		.size	loseOneLife_tempo, 20
 710              	loseOneLife_tempo:
 711 0000 00002041 		.word	1092616192
 712 0004 00002041 		.word	1092616192
 713 0008 00007041 		.word	1097859072
 714 000c 00002041 		.word	1092616192
 715 0010 0000A041 		.word	1101004800
 716              		.section	.rodata.main.str1.4,"aMS",%progbits,1
 717              		.align	2
 718              	.LC0:
 719 0000 2F70726F 		.ascii	"/proximity\000"
 719      78696D69 
 719      747900
 720              		.section	.rodata.melodies,"a",%progbits
 721              		.align	2
 722              		.set	.LANCHOR6,. + 0
 723              		.type	melodies, %object
 724              		.size	melodies, 12
 725              	melodies:
 726 0000 00000000 		.word	loseOneLife_melody
 727 0004 00000000 		.word	loseOneLife_tempo
 728 0008 0500     		.short	5
 729 000a 0000     		.space	2
 730              		.text
 731              	.Letext0:
 732              		.file 2 "d:\\eclipse_e-puck2_win32_29_jan_2020\\eclipse_e-puck2\\tools\\gcc-arm-none-eabi-7-2017-q
 733              		.file 3 "d:\\eclipse_e-puck2_win32_29_jan_2020\\eclipse_e-puck2\\tools\\gcc-arm-none-eabi-7-2017-q
ARM GAS  C:\Users\pierr\AppData\Local\Temp\ccWd1c9h.s 			page 14


 734              		.file 4 "d:\\eclipse_e-puck2_win32_29_jan_2020\\eclipse_e-puck2\\tools\\gcc-arm-none-eabi-7-2017-q
 735              		.file 5 "d:\\eclipse_e-puck2_win32_29_jan_2020\\eclipse_e-puck2\\tools\\gcc-arm-none-eabi-7-2017-q
 736              		.file 6 "d:\\eclipse_e-puck2_win32_29_jan_2020\\eclipse_e-puck2\\tools\\gcc-arm-none-eabi-7-2017-q
 737              		.file 7 "d:\\eclipse_e-puck2_win32_29_jan_2020\\eclipse_e-puck2\\tools\\gcc-arm-none-eabi-7-2017-q
 738              		.file 8 "d:\\eclipse_e-puck2_win32_29_jan_2020\\eclipse_e-puck2\\tools\\gcc-arm-none-eabi-7-2017-q
 739              		.file 9 "../../lib/e-puck2_main-processor/ChibiOS//os/rt/ports/ARMCMx/compilers/GCC/chtypes.h"
 740              		.file 10 "../../lib/e-puck2_main-processor/ChibiOS//os/rt/include/chsystypes.h"
 741              		.file 11 "../../lib/e-puck2_main-processor/ChibiOS//os/rt/include/chschd.h"
 742              		.file 12 "../../lib/e-puck2_main-processor/ChibiOS//os/ext/CMSIS/include/core_cm4.h"
 743              		.file 13 "../../lib/e-puck2_main-processor/ChibiOS//os/ext/CMSIS/ST/system_stm32f4xx.h"
 744              		.file 14 "../../lib/e-puck2_main-processor/ChibiOS//os/ext/CMSIS/ST/stm32f407xx.h"
 745              		.file 15 "../../lib/e-puck2_main-processor/ChibiOS//os/rt/ports/ARMCMx/chcore.h"
 746              		.file 16 "../../lib/e-puck2_main-processor/ChibiOS//os/rt/ports/ARMCMx/chcore_v7m.h"
 747              		.file 17 "../../lib/e-puck2_main-processor/ChibiOS//os/rt/include/chdebug.h"
 748              		.file 18 "../../lib/e-puck2_main-processor/ChibiOS//os/rt/include/chtm.h"
 749              		.file 19 "../../lib/e-puck2_main-processor/ChibiOS//os/rt/include/chstats.h"
 750              		.file 20 "../../lib/e-puck2_main-processor/ChibiOS//os/rt/include/chsem.h"
 751              		.file 21 "../../lib/e-puck2_main-processor/ChibiOS//os/rt/include/chmtx.h"
 752              		.file 22 "../../lib/e-puck2_main-processor/ChibiOS//os/rt/include/chregistry.h"
 753              		.file 23 "../../lib/e-puck2_main-processor/ChibiOS//os/rt/include/chcond.h"
 754              		.file 24 "../../lib/e-puck2_main-processor/ChibiOS//os/rt/include/chevents.h"
 755              		.file 25 "../../lib/e-puck2_main-processor/ChibiOS//os/rt/include/chqueues.h"
 756              		.file 26 "../../lib/e-puck2_main-processor/ChibiOS//os/hal/ports/STM32/STM32F4xx/stm32_dma.h"
 757              		.file 27 "../../lib/e-puck2_main-processor/ChibiOS//os/hal/include/hal_ioblock.h"
 758              		.file 28 "../../lib/e-puck2_main-processor/ChibiOS//os/hal/ports/STM32/LLD/GPIOv2/pal_lld.h"
 759              		.file 29 "../../lib/e-puck2_main-processor/ChibiOS//os/hal/include/adc.h"
 760              		.file 30 "../../lib/e-puck2_main-processor/ChibiOS//os/hal/ports/STM32/STM32F4xx/adc_lld.h"
 761              		.file 31 "../../lib/e-puck2_main-processor/ChibiOS//os/hal/include/can.h"
 762              		.file 32 "../../lib/e-puck2_main-processor/ChibiOS//os/hal/ports/STM32/LLD/can_lld.h"
 763              		.file 33 "../../lib/e-puck2_main-processor/ChibiOS//os/hal/include/dac.h"
 764              		.file 34 "../../lib/e-puck2_main-processor/ChibiOS//os/hal/ports/STM32/LLD/DACv1/dac_lld.h"
 765              		.file 35 "../../lib/e-puck2_main-processor/ChibiOS//os/hal/include/ext.h"
 766              		.file 36 "../../lib/e-puck2_main-processor/ChibiOS//os/hal/ports/STM32/LLD/ext_lld.h"
 767              		.file 37 "../../lib/e-puck2_main-processor/ChibiOS//os/hal/include/gpt.h"
 768              		.file 38 "../../lib/e-puck2_main-processor/ChibiOS//os/hal/ports/STM32/LLD/TIMv1/gpt_lld.h"
 769              		.file 39 "../../lib/e-puck2_main-processor/ChibiOS//os/hal/ports/STM32/LLD/TIMv1/stm32_tim.h"
 770              		.file 40 "../../lib/e-puck2_main-processor/ChibiOS//os/hal/include/i2c.h"
 771              		.file 41 "../../lib/e-puck2_main-processor/ChibiOS//os/hal/ports/STM32/LLD/I2Cv1/i2c_lld.h"
 772              		.file 42 "../../lib/e-puck2_main-processor/ChibiOS//os/hal/include/i2s.h"
 773              		.file 43 "../../lib/e-puck2_main-processor/ChibiOS//os/hal/ports/STM32/LLD/SPIv1/i2s_lld.h"
 774              		.file 44 "../../lib/e-puck2_main-processor/ChibiOS//os/hal/include/pwm.h"
 775              		.file 45 "../../lib/e-puck2_main-processor/ChibiOS//os/hal/ports/STM32/LLD/TIMv1/pwm_lld.h"
 776              		.file 46 "../../lib/e-puck2_main-processor/ChibiOS//os/hal/include/serial.h"
 777              		.file 47 "../../lib/e-puck2_main-processor/ChibiOS//os/hal/ports/STM32/LLD/USARTv1/serial_lld.h"
 778              		.file 48 "../../lib/e-puck2_main-processor/ChibiOS//os/hal/include/sdc.h"
 779              		.file 49 "../../lib/e-puck2_main-processor/ChibiOS//os/hal/ports/STM32/LLD/sdc_lld.h"
 780              		.file 50 "../../lib/e-puck2_main-processor/ChibiOS//os/hal/include/spi.h"
 781              		.file 51 "../../lib/e-puck2_main-processor/ChibiOS//os/hal/ports/STM32/LLD/SPIv1/spi_lld.h"
 782              		.file 52 "../../lib/e-puck2_main-processor/ChibiOS//os/hal/include/usb.h"
 783              		.file 53 "../../lib/e-puck2_main-processor/ChibiOS//os/hal/ports/STM32/LLD/OTGv1/usb_lld.h"
 784              		.file 54 "../../lib/e-puck2_main-processor/ChibiOS//os/hal/ports/STM32/LLD/OTGv1/stm32_otg.h"
 785              		.file 55 "../../lib/e-puck2_main-processor/ChibiOS//os/hal/include/serial_usb.h"
 786              		.file 56 "../../lib/e-puck2_main-processor/src/usbcfg.h"
 787              		.file 57 "../../lib/e-puck2_main-processor/ChibiOS_ext/os/hal/include/../ports/STM32/STM32F4xx/dcm
 788              		.file 58 "d:\\eclipse_e-puck2_win32_29_jan_2020\\eclipse_e-puck2\\tools\\gcc-arm-none-eabi-7-2017-
 789              		.file 59 "../../lib/e-puck2_main-processor/src/msgbus/messagebus.h"
 790              		.file 60 "../../lib/e-puck2_main-processor/src/parameter/parameter.h"
ARM GAS  C:\Users\pierr\AppData\Local\Temp\ccWd1c9h.s 			page 15


 791              		.file 61 "./main.h"
 792              		.file 62 "../../lib/e-puck2_main-processor/src/audio/play_melody.h"
 793              		.file 63 "../../lib/e-puck2_main-processor/src/sensors/proximity.h"
 794              		.file 64 "../../lib/e-puck2_main-processor/ChibiOS//os/rt/include/chsys.h"
 795              		.file 65 "../../lib/e-puck2_main-processor/src/leds.h"
 796              		.file 66 "mouvement.h"
 797              		.file 67 "obstacle.h"
 798              		.file 68 "../../lib/e-puck2_main-processor/ChibiOS//os/rt/include/chthreads.h"
 799              		.file 69 "../../lib/e-puck2_main-processor/ChibiOS//os/hal/include/hal.h"
 800              		.file 70 "../../lib/e-puck2_main-processor/src/memory_protection.h"
 801              		.file 71 "../../lib/e-puck2_main-processor/src/motors.h"
 802              		.file 72 "../../lib/e-puck2_main-processor/src/audio/audio_thread.h"
 803              		.file 73 "../../lib/e-puck2_main-processor/src/audio/microphone.h"
 804              		.file 74 "../../lib/e-puck2_main-processor/src/selector.h"
 805              		.file 75 "audio.h"
