ARM GAS  C:\Users\pierr\AppData\Local\Temp\ccVvH5Vw.s 			page 1


   1              		.cpu cortex-m4
   2              		.eabi_attribute 27, 1
   3              		.eabi_attribute 28, 1
   4              		.eabi_attribute 20, 1
   5              		.eabi_attribute 21, 1
   6              		.eabi_attribute 23, 3
   7              		.eabi_attribute 24, 1
   8              		.eabi_attribute 25, 1
   9              		.eabi_attribute 26, 1
  10              		.eabi_attribute 30, 2
  11              		.eabi_attribute 34, 1
  12              		.eabi_attribute 18, 4
  13              		.file	"parameter.c"
  14              		.text
  15              	.Ltext0:
  16              		.cfi_sections	.debug_frame
  17              		.section	.text.get_subnamespace.part.0,"ax",%progbits
  18              		.align	1
  19              		.p2align 4,,15
  20              		.syntax unified
  21              		.thumb
  22              		.thumb_func
  23              		.fpu fpv4-sp-d16
  24              		.type	get_subnamespace.part.0, %function
  25              	get_subnamespace.part.0:
  26              	.LFB298:
  27              		.file 1 "../../lib/e-puck2_main-processor/src/parameter/parameter.c"
  28              		.loc 1 46 0
  29              		.cfi_startproc
  30              		@ args = 0, pretend = 0, frame = 8
  31              		@ frame_needed = 0, uses_anonymous_args = 0
  32              	.LVL0:
  33 0000 2DE9F041 		push	{r4, r5, r6, r7, r8, lr}
  34              		.cfi_def_cfa_offset 24
  35              		.cfi_offset 4, -24
  36              		.cfi_offset 5, -20
  37              		.cfi_offset 6, -16
  38              		.cfi_offset 7, -12
  39              		.cfi_offset 8, -8
  40              		.cfi_offset 14, -4
  41 0004 DFF88080 		ldr	r8, .L18+8
  42 0008 82B0     		sub	sp, sp, #8
  43              		.cfi_def_cfa_offset 32
  44              		.loc 1 46 0
  45 000a D8F80030 		ldr	r3, [r8]
  46 000e 0193     		str	r3, [sp, #4]
  47              	.LVL1:
  48 0010 0446     		mov	r4, r0
  49 0012 0F46     		mov	r7, r1
  50 0014 1646     		mov	r6, r2
  51              	.LBB185:
  52              	.LBB186:
  53              	.LBB187:
  54              	.LBB188:
  55              	.LBB189:
  56              		.file 2 "../../lib/e-puck2_main-processor/ChibiOS//os/ext/CMSIS/include/core_cmFunc.h"
  57              		.loc 2 546 0
ARM GAS  C:\Users\pierr\AppData\Local\Temp\ccVvH5Vw.s 			page 2


  58 0016 2023     		movs	r3, #32
  59              		.syntax unified
  60              	@ 546 "../../lib/e-puck2_main-processor/ChibiOS//os/ext/CMSIS/include/core_cmFunc.h" 1
  61 0018 83F31188 		MSR basepri, r3
  62              	@ 0 "" 2
  63              	.LVL2:
  64              		.thumb
  65              		.syntax unified
  66              	.LBE189:
  67              	.LBE188:
  68              	.LBE187:
  69              		.file 3 "../../lib/e-puck2_main-processor/ChibiOS//os/rt/include/chsys.h"
  70              		.loc 3 349 0
  71 001c FFF7FEFF 		bl	_stats_start_measure_crit_thd
  72              	.LVL3:
  73              		.loc 3 350 0
  74 0020 FFF7FEFF 		bl	_dbg_check_lock
  75              	.LVL4:
  76              	.LBE186:
  77              	.LBE185:
  78              		.loc 1 54 0
  79 0024 E468     		ldr	r4, [r4, #12]
  80              	.LVL5:
  81              	.LBB190:
  82              	.LBB191:
  83              		.loc 3 360 0
  84 0026 FFF7FEFF 		bl	_dbg_check_unlock
  85              	.LVL6:
  86              		.loc 3 361 0
  87 002a FFF7FEFF 		bl	_stats_stop_measure_crit_thd
  88              	.LVL7:
  89              		.loc 3 367 0
  90 002e 144B     		ldr	r3, .L18
  91 0030 1A68     		ldr	r2, [r3]
  92 0032 9A42     		cmp	r2, r3
  93 0034 04D0     		beq	.L2
  94 0036 9969     		ldr	r1, [r3, #24]
  95 0038 9368     		ldr	r3, [r2, #8]
  96 003a 8A68     		ldr	r2, [r1, #8]
  97 003c 9A42     		cmp	r2, r3
  98 003e 18D3     		bcc	.L16
  99              	.L2:
 100              	.LVL8:
 101              	.LBB192:
 102              	.LBB193:
 103              	.LBB194:
 104              		.loc 2 546 0
 105 0040 0023     		movs	r3, #0
 106              		.syntax unified
 107              	@ 546 "../../lib/e-puck2_main-processor/ChibiOS//os/ext/CMSIS/include/core_cmFunc.h" 1
 108 0042 83F31188 		MSR basepri, r3
 109              	@ 0 "" 2
 110              	.LVL9:
 111              		.thumb
 112              		.syntax unified
 113              	.LBE194:
 114              	.LBE193:
ARM GAS  C:\Users\pierr\AppData\Local\Temp\ccVvH5Vw.s 			page 3


 115              	.LBE192:
 116              	.LBE191:
 117              	.LBE190:
 118              		.loc 1 56 0
 119 0046 5CB1     		cbz	r4, .L1
 120              	.L5:
 121              		.loc 1 57 0
 122 0048 2568     		ldr	r5, [r4]
 123 004a 3246     		mov	r2, r6
 124 004c 2946     		mov	r1, r5
 125 004e 3846     		mov	r0, r7
 126 0050 FFF7FEFF 		bl	strncmp
 127              	.LVL10:
 128 0054 08B9     		cbnz	r0, .L4
 129 0056 AB5D     		ldrb	r3, [r5, r6]	@ zero_extendqisi2
 130 0058 13B1     		cbz	r3, .L1
 131              	.L4:
 132              		.loc 1 62 0
 133 005a 2469     		ldr	r4, [r4, #16]
 134              	.LVL11:
 135              		.loc 1 56 0
 136 005c 002C     		cmp	r4, #0
 137 005e F3D1     		bne	.L5
 138              	.L1:
 139              		.loc 1 65 0
 140 0060 019A     		ldr	r2, [sp, #4]
 141 0062 D8F80030 		ldr	r3, [r8]
 142 0066 9A42     		cmp	r2, r3
 143 0068 2046     		mov	r0, r4
 144 006a 06D1     		bne	.L17
 145              	.LVL12:
 146 006c 02B0     		add	sp, sp, #8
 147              		.cfi_remember_state
 148              		.cfi_def_cfa_offset 24
 149              		@ sp needed
 150 006e BDE8F081 		pop	{r4, r5, r6, r7, r8, pc}
 151              	.LVL13:
 152              	.L16:
 153              		.cfi_restore_state
 154              	.LBB196:
 155              	.LBB195:
 156              		.loc 3 367 0
 157 0072 0448     		ldr	r0, .L18+4
 158 0074 FFF7FEFF 		bl	chSysHalt
 159              	.LVL14:
 160 0078 E2E7     		b	.L2
 161              	.LVL15:
 162              	.L17:
 163              	.LBE195:
 164              	.LBE196:
 165              		.loc 1 65 0
 166 007a FFF7FEFF 		bl	__stack_chk_fail
 167              	.LVL16:
 168              	.L19:
 169 007e 00BF     		.align	2
 170              	.L18:
 171 0080 00000000 		.word	ch
ARM GAS  C:\Users\pierr\AppData\Local\Temp\ccVvH5Vw.s 			page 4


 172 0084 00000000 		.word	.LANCHOR0
 173 0088 00000000 		.word	__stack_chk_guard
 174              		.cfi_endproc
 175              	.LFE298:
 176              		.size	get_subnamespace.part.0, .-get_subnamespace.part.0
 177              		.section	.text.parameter_namespace_declare,"ax",%progbits
 178              		.align	1
 179              		.p2align 4,,15
 180              		.global	parameter_namespace_declare
 181              		.syntax unified
 182              		.thumb
 183              		.thumb_func
 184              		.fpu fpv4-sp-d16
 185              		.type	parameter_namespace_declare, %function
 186              	parameter_namespace_declare:
 187              	.LFB253:
 188              		.loc 1 93 0
 189              		.cfi_startproc
 190              		@ args = 0, pretend = 0, frame = 8
 191              		@ frame_needed = 0, uses_anonymous_args = 0
 192              	.LVL17:
 193 0000 30B5     		push	{r4, r5, lr}
 194              		.cfi_def_cfa_offset 12
 195              		.cfi_offset 4, -12
 196              		.cfi_offset 5, -8
 197              		.cfi_offset 14, -4
 198 0002 1A4D     		ldr	r5, .L28
 199 0004 0446     		mov	r4, r0
 200 0006 83B0     		sub	sp, sp, #12
 201              		.cfi_def_cfa_offset 24
 202              		.loc 1 95 0
 203 0008 0023     		movs	r3, #0
 204              		.loc 1 93 0
 205 000a 2868     		ldr	r0, [r5]
 206              	.LVL18:
 207              		.loc 1 96 0
 208 000c A160     		str	r1, [r4, #8]
 209              		.loc 1 94 0
 210 000e 2260     		str	r2, [r4]
 211              		.loc 1 93 0
 212 0010 0190     		str	r0, [sp, #4]
 213              		.loc 1 95 0
 214 0012 6360     		str	r3, [r4, #4]
 215              		.loc 1 97 0
 216 0014 E360     		str	r3, [r4, #12]
 217              		.loc 1 98 0
 218 0016 6361     		str	r3, [r4, #20]
 219              		.loc 1 99 0
 220 0018 31B9     		cbnz	r1, .L26
 221              		.loc 1 106 0
 222 001a 2161     		str	r1, [r4, #16]
 223              	.LVL19:
 224              	.L20:
 225              		.loc 1 108 0
 226 001c 019A     		ldr	r2, [sp, #4]
 227 001e 2B68     		ldr	r3, [r5]
 228 0020 9A42     		cmp	r2, r3
ARM GAS  C:\Users\pierr\AppData\Local\Temp\ccVvH5Vw.s 			page 5


 229 0022 20D1     		bne	.L27
 230 0024 03B0     		add	sp, sp, #12
 231              		.cfi_remember_state
 232              		.cfi_def_cfa_offset 12
 233              		@ sp needed
 234 0026 30BD     		pop	{r4, r5, pc}
 235              	.LVL20:
 236              	.L26:
 237              		.cfi_restore_state
 238              	.LBB207:
 239              	.LBB208:
 240              	.LBB209:
 241              	.LBB210:
 242              	.LBB211:
 243              		.loc 2 546 0
 244 0028 2023     		movs	r3, #32
 245              		.syntax unified
 246              	@ 546 "../../lib/e-puck2_main-processor/ChibiOS//os/ext/CMSIS/include/core_cmFunc.h" 1
 247 002a 83F31188 		MSR basepri, r3
 248              	@ 0 "" 2
 249              	.LVL21:
 250              		.thumb
 251              		.syntax unified
 252              	.LBE211:
 253              	.LBE210:
 254              	.LBE209:
 255              		.loc 3 349 0
 256 002e FFF7FEFF 		bl	_stats_start_measure_crit_thd
 257              	.LVL22:
 258              		.loc 3 350 0
 259 0032 FFF7FEFF 		bl	_dbg_check_lock
 260              	.LVL23:
 261              	.LBE208:
 262              	.LBE207:
 263              		.loc 1 102 0
 264 0036 A368     		ldr	r3, [r4, #8]
 265 0038 DA68     		ldr	r2, [r3, #12]
 266 003a 2261     		str	r2, [r4, #16]
 267              		.loc 1 103 0
 268 003c DC60     		str	r4, [r3, #12]
 269              	.LBB212:
 270              	.LBB213:
 271              		.loc 3 360 0
 272 003e FFF7FEFF 		bl	_dbg_check_unlock
 273              	.LVL24:
 274              		.loc 3 361 0
 275 0042 FFF7FEFF 		bl	_stats_stop_measure_crit_thd
 276              	.LVL25:
 277              		.loc 3 367 0
 278 0046 0A4B     		ldr	r3, .L28+4
 279 0048 1A68     		ldr	r2, [r3]
 280 004a 9A42     		cmp	r2, r3
 281 004c 07D0     		beq	.L22
 282 004e 9969     		ldr	r1, [r3, #24]
 283 0050 9368     		ldr	r3, [r2, #8]
 284 0052 8A68     		ldr	r2, [r1, #8]
 285 0054 9A42     		cmp	r2, r3
ARM GAS  C:\Users\pierr\AppData\Local\Temp\ccVvH5Vw.s 			page 6


 286 0056 02D2     		bcs	.L22
 287 0058 0648     		ldr	r0, .L28+8
 288 005a FFF7FEFF 		bl	chSysHalt
 289              	.LVL26:
 290              	.L22:
 291              	.LBB214:
 292              	.LBB215:
 293              	.LBB216:
 294              		.loc 2 546 0
 295 005e 0023     		movs	r3, #0
 296              		.syntax unified
 297              	@ 546 "../../lib/e-puck2_main-processor/ChibiOS//os/ext/CMSIS/include/core_cmFunc.h" 1
 298 0060 83F31188 		MSR basepri, r3
 299              	@ 0 "" 2
 300              	.LVL27:
 301              		.thumb
 302              		.syntax unified
 303 0064 DAE7     		b	.L20
 304              	.L27:
 305              	.LBE216:
 306              	.LBE215:
 307              	.LBE214:
 308              	.LBE213:
 309              	.LBE212:
 310              		.loc 1 108 0
 311 0066 FFF7FEFF 		bl	__stack_chk_fail
 312              	.LVL28:
 313              	.L29:
 314 006a 00BF     		.align	2
 315              	.L28:
 316 006c 00000000 		.word	__stack_chk_guard
 317 0070 00000000 		.word	ch
 318 0074 00000000 		.word	.LANCHOR0
 319              		.cfi_endproc
 320              	.LFE253:
 321              		.size	parameter_namespace_declare, .-parameter_namespace_declare
 322              		.section	.text._parameter_namespace_find_w_id_len,"ax",%progbits
 323              		.align	1
 324              		.p2align 4,,15
 325              		.global	_parameter_namespace_find_w_id_len
 326              		.syntax unified
 327              		.thumb
 328              		.thumb_func
 329              		.fpu fpv4-sp-d16
 330              		.type	_parameter_namespace_find_w_id_len, %function
 331              	_parameter_namespace_find_w_id_len:
 332              	.LFB254:
 333              		.loc 1 113 0
 334              		.cfi_startproc
 335              		@ args = 0, pretend = 0, frame = 8
 336              		@ frame_needed = 0, uses_anonymous_args = 0
 337              	.LVL29:
 338 0000 2DE9F047 		push	{r4, r5, r6, r7, r8, r9, r10, lr}
 339              		.cfi_def_cfa_offset 32
 340              		.cfi_offset 4, -32
 341              		.cfi_offset 5, -28
 342              		.cfi_offset 6, -24
ARM GAS  C:\Users\pierr\AppData\Local\Temp\ccVvH5Vw.s 			page 7


 343              		.cfi_offset 7, -20
 344              		.cfi_offset 8, -16
 345              		.cfi_offset 9, -12
 346              		.cfi_offset 10, -8
 347              		.cfi_offset 14, -4
 348 0004 DFF87090 		ldr	r9, .L58
 349 0008 82B0     		sub	sp, sp, #8
 350              		.cfi_def_cfa_offset 40
 351              		.loc 1 113 0
 352 000a D9F80030 		ldr	r3, [r9]
 353 000e 0193     		str	r3, [sp, #4]
 354              	.LVL30:
 355              		.loc 1 116 0
 356 0010 70B3     		cbz	r0, .L31
 357 0012 9046     		mov	r8, r2
 358 0014 FAB1     		cbz	r2, .L30
 359 0016 8A46     		mov	r10, r1
 360              		.loc 1 115 0
 361 0018 0027     		movs	r7, #0
 362              	.LVL31:
 363              	.L38:
 364              	.LBB217:
 365              		.loc 1 117 0
 366 001a A8EB0705 		sub	r5, r8, r7
 367              	.LBB218:
 368              	.LBB219:
 369              		.loc 1 34 0
 370 001e 002D     		cmp	r5, #0
 371              	.LBE219:
 372              	.LBE218:
 373              		.loc 1 117 0
 374 0020 2A46     		mov	r2, r5
 375 0022 0AEB0701 		add	r1, r10, r7
 376              	.LVL32:
 377              	.LBB221:
 378              	.LBB220:
 379              		.loc 1 34 0
 380 0026 0FDD     		ble	.L33
 381              		.loc 1 35 0
 382 0028 1AF80730 		ldrb	r3, [r10, r7]	@ zero_extendqisi2
 383 002c 2F2B     		cmp	r3, #47
 384 002e 1DD0     		beq	.L34
 385 0030 0C46     		mov	r4, r1
 386              		.loc 1 34 0
 387 0032 0023     		movs	r3, #0
 388 0034 04E0     		b	.L35
 389              	.LVL33:
 390              	.L37:
 391              		.loc 1 35 0
 392 0036 14F8016F 		ldrb	r6, [r4, #1]!	@ zero_extendqisi2
 393 003a 2F2E     		cmp	r6, #47
 394 003c 1A46     		mov	r2, r3
 395 003e 12D0     		beq	.L36
 396              	.LVL34:
 397              	.L35:
 398              		.loc 1 34 0
 399 0040 0133     		adds	r3, r3, #1
ARM GAS  C:\Users\pierr\AppData\Local\Temp\ccVvH5Vw.s 			page 8


 400              	.LVL35:
 401 0042 9D42     		cmp	r5, r3
 402 0044 F7D1     		bne	.L37
 403 0046 2A46     		mov	r2, r5
 404              	.LVL36:
 405              	.L33:
 406 0048 0135     		adds	r5, r5, #1
 407              	.L39:
 408              	.LBE220:
 409              	.LBE221:
 410              	.LBB222:
 411              	.LBB223:
 412 004a FFF7FEFF 		bl	get_subnamespace.part.0
 413              	.LVL37:
 414              	.LBE223:
 415              	.LBE222:
 416              		.loc 1 119 0
 417 004e 2F44     		add	r7, r7, r5
 418              	.LVL38:
 419              	.LBE217:
 420              		.loc 1 116 0
 421 0050 70B1     		cbz	r0, .L31
 422              	.L40:
 423              		.loc 1 116 0 is_stmt 0 discriminator 1
 424 0052 B845     		cmp	r8, r7
 425 0054 E1D8     		bhi	.L38
 426              	.LVL39:
 427              	.L30:
 428              		.loc 1 122 0 is_stmt 1
 429 0056 019A     		ldr	r2, [sp, #4]
 430 0058 D9F80030 		ldr	r3, [r9]
 431 005c 9A42     		cmp	r2, r3
 432 005e 09D1     		bne	.L57
 433 0060 02B0     		add	sp, sp, #8
 434              		.cfi_remember_state
 435              		.cfi_def_cfa_offset 32
 436              		@ sp needed
 437 0062 BDE8F087 		pop	{r4, r5, r6, r7, r8, r9, r10, pc}
 438              	.LVL40:
 439              	.L36:
 440              		.cfi_restore_state
 441 0066 5D1C     		adds	r5, r3, #1
 442              	.LBB226:
 443              	.LBB225:
 444              	.LBB224:
 445              		.loc 1 50 0
 446 0068 002B     		cmp	r3, #0
 447 006a EED1     		bne	.L39
 448              	.LVL41:
 449              	.L34:
 450              	.LBE224:
 451              	.LBE225:
 452              		.loc 1 119 0
 453 006c 0137     		adds	r7, r7, #1
 454              	.LVL42:
 455 006e F0E7     		b	.L40
 456              	.LVL43:
ARM GAS  C:\Users\pierr\AppData\Local\Temp\ccVvH5Vw.s 			page 9


 457              	.L31:
 458              	.LBE226:
 459 0070 0020     		movs	r0, #0
 460              	.LVL44:
 461 0072 F0E7     		b	.L30
 462              	.L57:
 463              		.loc 1 122 0
 464 0074 FFF7FEFF 		bl	__stack_chk_fail
 465              	.LVL45:
 466              	.L59:
 467              		.align	2
 468              	.L58:
 469 0078 00000000 		.word	__stack_chk_guard
 470              		.cfi_endproc
 471              	.LFE254:
 472              		.size	_parameter_namespace_find_w_id_len, .-_parameter_namespace_find_w_id_len
 473              		.section	.text.parameter_namespace_find,"ax",%progbits
 474              		.align	1
 475              		.p2align 4,,15
 476              		.global	parameter_namespace_find
 477              		.syntax unified
 478              		.thumb
 479              		.thumb_func
 480              		.fpu fpv4-sp-d16
 481              		.type	parameter_namespace_find, %function
 482              	parameter_namespace_find:
 483              	.LFB255:
 484              		.loc 1 126 0
 485              		.cfi_startproc
 486              		@ args = 0, pretend = 0, frame = 8
 487              		@ frame_needed = 0, uses_anonymous_args = 0
 488              	.LVL46:
 489 0000 70B5     		push	{r4, r5, r6, lr}
 490              		.cfi_def_cfa_offset 16
 491              		.cfi_offset 4, -16
 492              		.cfi_offset 5, -12
 493              		.cfi_offset 6, -8
 494              		.cfi_offset 14, -4
 495 0002 0B4C     		ldr	r4, .L65
 496 0004 82B0     		sub	sp, sp, #8
 497              		.cfi_def_cfa_offset 24
 498              		.loc 1 126 0
 499 0006 2368     		ldr	r3, [r4]
 500 0008 0193     		str	r3, [sp, #4]
 501 000a 0646     		mov	r6, r0
 502              		.loc 1 127 0
 503 000c 0846     		mov	r0, r1
 504              	.LVL47:
 505              		.loc 1 126 0
 506 000e 0D46     		mov	r5, r1
 507              		.loc 1 127 0
 508 0010 FFF7FEFF 		bl	strlen
 509              	.LVL48:
 510 0014 0199     		ldr	r1, [sp, #4]
 511 0016 2368     		ldr	r3, [r4]
 512 0018 9942     		cmp	r1, r3
 513 001a 07D1     		bne	.L64
ARM GAS  C:\Users\pierr\AppData\Local\Temp\ccVvH5Vw.s 			page 10


 514 001c 0246     		mov	r2, r0
 515 001e 2946     		mov	r1, r5
 516 0020 3046     		mov	r0, r6
 517              		.loc 1 128 0
 518 0022 02B0     		add	sp, sp, #8
 519              		.cfi_remember_state
 520              		.cfi_def_cfa_offset 16
 521              		@ sp needed
 522 0024 BDE87040 		pop	{r4, r5, r6, lr}
 523              		.cfi_restore 14
 524              		.cfi_restore 6
 525              		.cfi_restore 5
 526              		.cfi_restore 4
 527              		.cfi_def_cfa_offset 0
 528              	.LVL49:
 529              		.loc 1 127 0
 530 0028 FFF7FEBF 		b	_parameter_namespace_find_w_id_len
 531              	.LVL50:
 532              	.L64:
 533              		.cfi_restore_state
 534 002c FFF7FEFF 		bl	__stack_chk_fail
 535              	.LVL51:
 536              	.L66:
 537              		.align	2
 538              	.L65:
 539 0030 00000000 		.word	__stack_chk_guard
 540              		.cfi_endproc
 541              	.LFE255:
 542              		.size	parameter_namespace_find, .-parameter_namespace_find
 543              		.section	.text._parameter_find_w_id_len,"ax",%progbits
 544              		.align	1
 545              		.p2align 4,,15
 546              		.global	_parameter_find_w_id_len
 547              		.syntax unified
 548              		.thumb
 549              		.thumb_func
 550              		.fpu fpv4-sp-d16
 551              		.type	_parameter_find_w_id_len, %function
 552              	_parameter_find_w_id_len:
 553              	.LFB256:
 554              		.loc 1 132 0
 555              		.cfi_startproc
 556              		@ args = 0, pretend = 0, frame = 16
 557              		@ frame_needed = 0, uses_anonymous_args = 0
 558              	.LVL52:
 559 0000 2DE9F043 		push	{r4, r5, r6, r7, r8, r9, lr}
 560              		.cfi_def_cfa_offset 28
 561              		.cfi_offset 4, -28
 562              		.cfi_offset 5, -24
 563              		.cfi_offset 6, -20
 564              		.cfi_offset 7, -16
 565              		.cfi_offset 8, -12
 566              		.cfi_offset 9, -8
 567              		.cfi_offset 14, -4
 568 0004 DFF8F880 		ldr	r8, .L104+8
 569 0008 85B0     		sub	sp, sp, #20
 570              		.cfi_def_cfa_offset 48
ARM GAS  C:\Users\pierr\AppData\Local\Temp\ccVvH5Vw.s 			page 11


 571              		.loc 1 132 0
 572 000a D8F80030 		ldr	r3, [r8]
 573 000e 0393     		str	r3, [sp, #12]
 574              	.LVL53:
 575              		.loc 1 135 0
 576 0010 48B3     		cbz	r0, .L69
 577 0012 8946     		mov	r9, r1
 578 0014 1746     		mov	r7, r2
 579              		.loc 1 134 0
 580 0016 4FF0000C 		mov	ip, #0
 581              	.LVL54:
 582              	.L68:
 583              	.LBB244:
 584              		.loc 1 136 0
 585 001a A7EB0C0E 		sub	lr, r7, ip
 586              	.LBB245:
 587              	.LBB246:
 588              		.loc 1 34 0
 589 001e BEF1000F 		cmp	lr, #0
 590              	.LBE246:
 591              	.LBE245:
 592              		.loc 1 136 0
 593 0022 7446     		mov	r4, lr
 594 0024 09EB0C06 		add	r6, r9, ip
 595              	.LVL55:
 596              	.LBB249:
 597              	.LBB247:
 598              		.loc 1 34 0
 599 0028 27DD     		ble	.L84
 600              		.loc 1 35 0
 601 002a 19F80C30 		ldrb	r3, [r9, ip]	@ zero_extendqisi2
 602 002e 2F2B     		cmp	r3, #47
 603 0030 57D0     		beq	.L71
 604 0032 3246     		mov	r2, r6
 605              		.loc 1 34 0
 606 0034 0023     		movs	r3, #0
 607 0036 06E0     		b	.L72
 608              	.LVL56:
 609              	.L73:
 610              		.loc 1 35 0
 611 0038 12F8011F 		ldrb	r1, [r2, #1]!	@ zero_extendqisi2
 612 003c 2F29     		cmp	r1, #47
 613 003e 1C46     		mov	r4, r3
 614 0040 03EB0C05 		add	r5, r3, ip
 615 0044 1AD0     		beq	.L70
 616              	.LVL57:
 617              	.L72:
 618              		.loc 1 34 0
 619 0046 0133     		adds	r3, r3, #1
 620              	.LVL58:
 621 0048 9E45     		cmp	lr, r3
 622 004a F5D1     		bne	.L73
 623 004c 0CEB0E05 		add	r5, ip, lr
 624              	.LVL59:
 625              	.LBE247:
 626              	.LBE249:
 627              		.loc 1 137 0
ARM GAS  C:\Users\pierr\AppData\Local\Temp\ccVvH5Vw.s 			page 12


 628 0050 AF42     		cmp	r7, r5
 629 0052 7446     		mov	r4, lr
 630 0054 19D9     		bls	.L75
 631              	.L74:
 632              	.LVL60:
 633              	.LBB250:
 634              	.LBB251:
 635 0056 2246     		mov	r2, r4
 636 0058 3146     		mov	r1, r6
 637 005a FFF7FEFF 		bl	get_subnamespace.part.0
 638              	.LVL61:
 639              	.LBE251:
 640              	.LBE250:
 641              		.loc 1 142 0
 642 005e 05F1010C 		add	ip, r5, #1
 643              	.LVL62:
 644              	.LBE244:
 645              		.loc 1 135 0
 646 0062 0028     		cmp	r0, #0
 647 0064 D9D1     		bne	.L68
 648              	.LVL63:
 649              	.L69:
 650              		.loc 1 144 0
 651 0066 0025     		movs	r5, #0
 652              	.L67:
 653              		.loc 1 145 0
 654 0068 039A     		ldr	r2, [sp, #12]
 655 006a D8F80030 		ldr	r3, [r8]
 656 006e 9A42     		cmp	r2, r3
 657 0070 2846     		mov	r0, r5
 658 0072 3ED1     		bne	.L102
 659 0074 05B0     		add	sp, sp, #20
 660              		.cfi_remember_state
 661              		.cfi_def_cfa_offset 28
 662              		@ sp needed
 663 0076 BDE8F083 		pop	{r4, r5, r6, r7, r8, r9, pc}
 664              	.LVL64:
 665              	.L84:
 666              		.cfi_restore_state
 667              	.LBB271:
 668              	.LBB253:
 669              	.LBB248:
 670              		.loc 1 34 0
 671 007a 3D46     		mov	r5, r7
 672              	.LVL65:
 673              	.L70:
 674              	.LBE248:
 675              	.LBE253:
 676              		.loc 1 137 0
 677 007c AF42     		cmp	r7, r5
 678 007e 04D9     		bls	.L75
 679              	.LVL66:
 680              	.LBB254:
 681              	.LBB252:
 682              		.loc 1 50 0
 683 0080 002C     		cmp	r4, #0
 684 0082 E8D1     		bne	.L74
ARM GAS  C:\Users\pierr\AppData\Local\Temp\ccVvH5Vw.s 			page 13


 685              	.LVL67:
 686              	.L76:
 687              	.LBE252:
 688              	.LBE254:
 689              		.loc 1 142 0
 690 0084 05F1010C 		add	ip, r5, #1
 691              	.LVL68:
 692 0088 C7E7     		b	.L68
 693              	.L75:
 694              	.LVL69:
 695 008a 0190     		str	r0, [sp, #4]
 696              	.LVL70:
 697              	.LBB255:
 698              	.LBB256:
 699              		.loc 1 73 0
 700 008c 002C     		cmp	r4, #0
 701 008e EAD0     		beq	.L69
 702              	.LVL71:
 703              	.LBB257:
 704              	.LBB258:
 705              	.LBB259:
 706              	.LBB260:
 707              	.LBB261:
 708              		.loc 2 546 0
 709 0090 2023     		movs	r3, #32
 710              		.syntax unified
 711              	@ 546 "../../lib/e-puck2_main-processor/ChibiOS//os/ext/CMSIS/include/core_cmFunc.h" 1
 712 0092 83F31188 		MSR basepri, r3
 713              	@ 0 "" 2
 714              	.LVL72:
 715              		.thumb
 716              		.syntax unified
 717              	.LBE261:
 718              	.LBE260:
 719              	.LBE259:
 720              		.loc 3 349 0
 721 0096 FFF7FEFF 		bl	_stats_start_measure_crit_thd
 722              	.LVL73:
 723              		.loc 3 350 0
 724 009a FFF7FEFF 		bl	_dbg_check_lock
 725              	.LVL74:
 726              	.LBE258:
 727              	.LBE257:
 728              		.loc 1 77 0
 729 009e 0198     		ldr	r0, [sp, #4]
 730 00a0 4569     		ldr	r5, [r0, #20]
 731              	.LVL75:
 732              	.LBB262:
 733              	.LBB263:
 734              		.loc 3 360 0
 735 00a2 FFF7FEFF 		bl	_dbg_check_unlock
 736              	.LVL76:
 737              		.loc 3 361 0
 738 00a6 FFF7FEFF 		bl	_stats_stop_measure_crit_thd
 739              	.LVL77:
 740              		.loc 3 367 0
 741 00aa 134B     		ldr	r3, .L104
ARM GAS  C:\Users\pierr\AppData\Local\Temp\ccVvH5Vw.s 			page 14


 742 00ac 1A68     		ldr	r2, [r3]
 743 00ae 9A42     		cmp	r2, r3
 744 00b0 04D0     		beq	.L78
 745 00b2 9969     		ldr	r1, [r3, #24]
 746 00b4 9368     		ldr	r3, [r2, #8]
 747 00b6 8A68     		ldr	r2, [r1, #8]
 748 00b8 9A42     		cmp	r2, r3
 749 00ba 16D3     		bcc	.L103
 750              	.L78:
 751              	.LVL78:
 752              	.LBB264:
 753              	.LBB265:
 754              	.LBB266:
 755              		.loc 2 546 0
 756 00bc 0023     		movs	r3, #0
 757              		.syntax unified
 758              	@ 546 "../../lib/e-puck2_main-processor/ChibiOS//os/ext/CMSIS/include/core_cmFunc.h" 1
 759 00be 83F31188 		MSR basepri, r3
 760              	@ 0 "" 2
 761              	.LVL79:
 762              		.thumb
 763              		.syntax unified
 764              	.LBE266:
 765              	.LBE265:
 766              	.LBE264:
 767              	.LBE263:
 768              	.LBE262:
 769              		.loc 1 79 0
 770 00c2 002D     		cmp	r5, #0
 771 00c4 CFD0     		beq	.L69
 772              	.LVL80:
 773              	.L81:
 774              		.loc 1 80 0
 775 00c6 2F68     		ldr	r7, [r5]
 776 00c8 2246     		mov	r2, r4
 777 00ca 3946     		mov	r1, r7
 778 00cc 3046     		mov	r0, r6
 779 00ce FFF7FEFF 		bl	strncmp
 780              	.LVL81:
 781 00d2 10B9     		cbnz	r0, .L79
 782 00d4 3B5D     		ldrb	r3, [r7, r4]	@ zero_extendqisi2
 783 00d6 002B     		cmp	r3, #0
 784 00d8 C6D0     		beq	.L67
 785              	.L79:
 786              		.loc 1 85 0
 787 00da AD68     		ldr	r5, [r5, #8]
 788              	.LVL82:
 789              		.loc 1 79 0
 790 00dc 002D     		cmp	r5, #0
 791 00de F2D1     		bne	.L81
 792 00e0 C1E7     		b	.L69
 793              	.LVL83:
 794              	.L71:
 795              	.LBE256:
 796              	.LBE255:
 797              		.loc 1 137 0
 798 00e2 6745     		cmp	r7, ip
ARM GAS  C:\Users\pierr\AppData\Local\Temp\ccVvH5Vw.s 			page 15


 799 00e4 BFD9     		bls	.L69
 800 00e6 6546     		mov	r5, ip
 801 00e8 CCE7     		b	.L76
 802              	.LVL84:
 803              	.L103:
 804              	.LBB270:
 805              	.LBB269:
 806              	.LBB268:
 807              	.LBB267:
 808              		.loc 3 367 0
 809 00ea 0448     		ldr	r0, .L104+4
 810 00ec FFF7FEFF 		bl	chSysHalt
 811              	.LVL85:
 812 00f0 E4E7     		b	.L78
 813              	.LVL86:
 814              	.L102:
 815              	.LBE267:
 816              	.LBE268:
 817              	.LBE269:
 818              	.LBE270:
 819              	.LBE271:
 820              		.loc 1 145 0
 821 00f2 FFF7FEFF 		bl	__stack_chk_fail
 822              	.LVL87:
 823              	.L105:
 824 00f6 00BF     		.align	2
 825              	.L104:
 826 00f8 00000000 		.word	ch
 827 00fc 00000000 		.word	.LANCHOR0
 828 0100 00000000 		.word	__stack_chk_guard
 829              		.cfi_endproc
 830              	.LFE256:
 831              		.size	_parameter_find_w_id_len, .-_parameter_find_w_id_len
 832              		.section	.text.parameter_find,"ax",%progbits
 833              		.align	1
 834              		.p2align 4,,15
 835              		.global	parameter_find
 836              		.syntax unified
 837              		.thumb
 838              		.thumb_func
 839              		.fpu fpv4-sp-d16
 840              		.type	parameter_find, %function
 841              	parameter_find:
 842              	.LFB257:
 843              		.loc 1 148 0
 844              		.cfi_startproc
 845              		@ args = 0, pretend = 0, frame = 8
 846              		@ frame_needed = 0, uses_anonymous_args = 0
 847              	.LVL88:
 848 0000 70B5     		push	{r4, r5, r6, lr}
 849              		.cfi_def_cfa_offset 16
 850              		.cfi_offset 4, -16
 851              		.cfi_offset 5, -12
 852              		.cfi_offset 6, -8
 853              		.cfi_offset 14, -4
 854 0002 0B4C     		ldr	r4, .L111
 855 0004 82B0     		sub	sp, sp, #8
ARM GAS  C:\Users\pierr\AppData\Local\Temp\ccVvH5Vw.s 			page 16


 856              		.cfi_def_cfa_offset 24
 857              		.loc 1 148 0
 858 0006 2368     		ldr	r3, [r4]
 859 0008 0193     		str	r3, [sp, #4]
 860 000a 0646     		mov	r6, r0
 861              		.loc 1 149 0
 862 000c 0846     		mov	r0, r1
 863              	.LVL89:
 864              		.loc 1 148 0
 865 000e 0D46     		mov	r5, r1
 866              		.loc 1 149 0
 867 0010 FFF7FEFF 		bl	strlen
 868              	.LVL90:
 869 0014 0199     		ldr	r1, [sp, #4]
 870 0016 2368     		ldr	r3, [r4]
 871 0018 9942     		cmp	r1, r3
 872 001a 07D1     		bne	.L110
 873 001c 0246     		mov	r2, r0
 874 001e 2946     		mov	r1, r5
 875 0020 3046     		mov	r0, r6
 876              		.loc 1 150 0
 877 0022 02B0     		add	sp, sp, #8
 878              		.cfi_remember_state
 879              		.cfi_def_cfa_offset 16
 880              		@ sp needed
 881 0024 BDE87040 		pop	{r4, r5, r6, lr}
 882              		.cfi_restore 14
 883              		.cfi_restore 6
 884              		.cfi_restore 5
 885              		.cfi_restore 4
 886              		.cfi_def_cfa_offset 0
 887              	.LVL91:
 888              		.loc 1 149 0
 889 0028 FFF7FEBF 		b	_parameter_find_w_id_len
 890              	.LVL92:
 891              	.L110:
 892              		.cfi_restore_state
 893 002c FFF7FEFF 		bl	__stack_chk_fail
 894              	.LVL93:
 895              	.L112:
 896              		.align	2
 897              	.L111:
 898 0030 00000000 		.word	__stack_chk_guard
 899              		.cfi_endproc
 900              	.LFE257:
 901              		.size	parameter_find, .-parameter_find
 902              		.section	.text._parameter_declare,"ax",%progbits
 903              		.align	1
 904              		.p2align 4,,15
 905              		.global	_parameter_declare
 906              		.syntax unified
 907              		.thumb
 908              		.thumb_func
 909              		.fpu fpv4-sp-d16
 910              		.type	_parameter_declare, %function
 911              	_parameter_declare:
 912              	.LFB258:
ARM GAS  C:\Users\pierr\AppData\Local\Temp\ccVvH5Vw.s 			page 17


 913              		.loc 1 154 0
 914              		.cfi_startproc
 915              		@ args = 0, pretend = 0, frame = 8
 916              		@ frame_needed = 0, uses_anonymous_args = 0
 917              	.LVL94:
 918 0000 30B5     		push	{r4, r5, lr}
 919              		.cfi_def_cfa_offset 12
 920              		.cfi_offset 4, -12
 921              		.cfi_offset 5, -8
 922              		.cfi_offset 14, -4
 923 0002 184D     		ldr	r5, .L119
 924 0004 0446     		mov	r4, r0
 925 0006 83B0     		sub	sp, sp, #12
 926              		.cfi_def_cfa_offset 24
 927              		.loc 1 154 0
 928 0008 2868     		ldr	r0, [r5]
 929              	.LVL95:
 930              		.loc 1 156 0
 931 000a 6160     		str	r1, [r4, #4]
 932              		.loc 1 157 0
 933 000c 0023     		movs	r3, #0
 934 000e 2373     		strb	r3, [r4, #12]
 935              		.loc 1 158 0
 936 0010 6373     		strb	r3, [r4, #13]
 937              	.LVL96:
 938              		.loc 1 155 0
 939 0012 2260     		str	r2, [r4]
 940              		.loc 1 154 0
 941 0014 0190     		str	r0, [sp, #4]
 942              	.LBB282:
 943              	.LBB283:
 944              	.LBB284:
 945              	.LBB285:
 946              	.LBB286:
 947              		.loc 2 546 0
 948 0016 2023     		movs	r3, #32
 949              		.syntax unified
 950              	@ 546 "../../lib/e-puck2_main-processor/ChibiOS//os/ext/CMSIS/include/core_cmFunc.h" 1
 951 0018 83F31188 		MSR basepri, r3
 952              	@ 0 "" 2
 953              	.LVL97:
 954              		.thumb
 955              		.syntax unified
 956              	.LBE286:
 957              	.LBE285:
 958              	.LBE284:
 959              		.loc 3 349 0
 960 001c FFF7FEFF 		bl	_stats_start_measure_crit_thd
 961              	.LVL98:
 962              		.loc 3 350 0
 963 0020 FFF7FEFF 		bl	_dbg_check_lock
 964              	.LVL99:
 965              	.LBE283:
 966              	.LBE282:
 967              		.loc 1 161 0
 968 0024 6368     		ldr	r3, [r4, #4]
 969 0026 5A69     		ldr	r2, [r3, #20]
ARM GAS  C:\Users\pierr\AppData\Local\Temp\ccVvH5Vw.s 			page 18


 970 0028 A260     		str	r2, [r4, #8]
 971              		.loc 1 162 0
 972 002a 5C61     		str	r4, [r3, #20]
 973              	.LBB287:
 974              	.LBB288:
 975              		.loc 3 360 0
 976 002c FFF7FEFF 		bl	_dbg_check_unlock
 977              	.LVL100:
 978              		.loc 3 361 0
 979 0030 FFF7FEFF 		bl	_stats_stop_measure_crit_thd
 980              	.LVL101:
 981              		.loc 3 367 0
 982 0034 0C4B     		ldr	r3, .L119+4
 983 0036 1A68     		ldr	r2, [r3]
 984 0038 9A42     		cmp	r2, r3
 985 003a 04D0     		beq	.L114
 986 003c 9969     		ldr	r1, [r3, #24]
 987 003e 9368     		ldr	r3, [r2, #8]
 988 0040 8A68     		ldr	r2, [r1, #8]
 989 0042 9A42     		cmp	r2, r3
 990 0044 08D3     		bcc	.L117
 991              	.L114:
 992              	.LVL102:
 993              	.LBB289:
 994              	.LBB290:
 995              	.LBB291:
 996              		.loc 2 546 0
 997 0046 0023     		movs	r3, #0
 998              		.syntax unified
 999              	@ 546 "../../lib/e-puck2_main-processor/ChibiOS//os/ext/CMSIS/include/core_cmFunc.h" 1
 1000 0048 83F31188 		MSR basepri, r3
 1001              	@ 0 "" 2
 1002              	.LVL103:
 1003              		.thumb
 1004              		.syntax unified
 1005              	.LBE291:
 1006              	.LBE290:
 1007              	.LBE289:
 1008              	.LBE288:
 1009              	.LBE287:
 1010              		.loc 1 164 0
 1011 004c 019A     		ldr	r2, [sp, #4]
 1012 004e 2B68     		ldr	r3, [r5]
 1013 0050 9A42     		cmp	r2, r3
 1014 0052 05D1     		bne	.L118
 1015 0054 03B0     		add	sp, sp, #12
 1016              		.cfi_remember_state
 1017              		.cfi_def_cfa_offset 12
 1018              		@ sp needed
 1019 0056 30BD     		pop	{r4, r5, pc}
 1020              	.LVL104:
 1021              	.L117:
 1022              		.cfi_restore_state
 1023              	.LBB293:
 1024              	.LBB292:
 1025              		.loc 3 367 0
 1026 0058 0448     		ldr	r0, .L119+8
ARM GAS  C:\Users\pierr\AppData\Local\Temp\ccVvH5Vw.s 			page 19


 1027 005a FFF7FEFF 		bl	chSysHalt
 1028              	.LVL105:
 1029 005e F2E7     		b	.L114
 1030              	.L118:
 1031              	.LBE292:
 1032              	.LBE293:
 1033              		.loc 1 164 0
 1034 0060 FFF7FEFF 		bl	__stack_chk_fail
 1035              	.LVL106:
 1036              	.L120:
 1037              		.align	2
 1038              	.L119:
 1039 0064 00000000 		.word	__stack_chk_guard
 1040 0068 00000000 		.word	ch
 1041 006c 00000000 		.word	.LANCHOR0
 1042              		.cfi_endproc
 1043              	.LFE258:
 1044              		.size	_parameter_declare, .-_parameter_declare
 1045              		.section	.text.parameter_namespace_contains_changed,"ax",%progbits
 1046              		.align	1
 1047              		.p2align 4,,15
 1048              		.global	parameter_namespace_contains_changed
 1049              		.syntax unified
 1050              		.thumb
 1051              		.thumb_func
 1052              		.fpu fpv4-sp-d16
 1053              		.type	parameter_namespace_contains_changed, %function
 1054              	parameter_namespace_contains_changed:
 1055              	.LFB259:
 1056              		.loc 1 167 0
 1057              		.cfi_startproc
 1058              		@ args = 0, pretend = 0, frame = 8
 1059              		@ frame_needed = 0, uses_anonymous_args = 0
 1060              	.LVL107:
 1061 0000 30B5     		push	{r4, r5, lr}
 1062              		.cfi_def_cfa_offset 12
 1063              		.cfi_offset 4, -12
 1064              		.cfi_offset 5, -8
 1065              		.cfi_offset 14, -4
 1066 0002 164C     		ldr	r4, .L127
 1067 0004 83B0     		sub	sp, sp, #12
 1068              		.cfi_def_cfa_offset 24
 1069              		.loc 1 167 0
 1070 0006 2368     		ldr	r3, [r4]
 1071 0008 0193     		str	r3, [sp, #4]
 1072              	.LVL108:
 1073 000a 0546     		mov	r5, r0
 1074              	.LBB304:
 1075              	.LBB305:
 1076              	.LBB306:
 1077              	.LBB307:
 1078              	.LBB308:
 1079              		.loc 2 546 0
 1080 000c 2023     		movs	r3, #32
 1081              		.syntax unified
 1082              	@ 546 "../../lib/e-puck2_main-processor/ChibiOS//os/ext/CMSIS/include/core_cmFunc.h" 1
 1083 000e 83F31188 		MSR basepri, r3
ARM GAS  C:\Users\pierr\AppData\Local\Temp\ccVvH5Vw.s 			page 20


 1084              	@ 0 "" 2
 1085              	.LVL109:
 1086              		.thumb
 1087              		.syntax unified
 1088              	.LBE308:
 1089              	.LBE307:
 1090              	.LBE306:
 1091              		.loc 3 349 0
 1092 0012 FFF7FEFF 		bl	_stats_start_measure_crit_thd
 1093              	.LVL110:
 1094              		.loc 3 350 0
 1095 0016 FFF7FEFF 		bl	_dbg_check_lock
 1096              	.LVL111:
 1097              	.LBE305:
 1098              	.LBE304:
 1099              		.loc 1 169 0
 1100 001a 6D68     		ldr	r5, [r5, #4]
 1101              	.LVL112:
 1102              	.LBB309:
 1103              	.LBB310:
 1104              		.loc 3 360 0
 1105 001c FFF7FEFF 		bl	_dbg_check_unlock
 1106              	.LVL113:
 1107              		.loc 3 361 0
 1108 0020 FFF7FEFF 		bl	_stats_stop_measure_crit_thd
 1109              	.LVL114:
 1110              		.loc 3 367 0
 1111 0024 0E4B     		ldr	r3, .L127+4
 1112 0026 1A68     		ldr	r2, [r3]
 1113 0028 9A42     		cmp	r2, r3
 1114 002a 04D0     		beq	.L122
 1115 002c 9969     		ldr	r1, [r3, #24]
 1116 002e 9368     		ldr	r3, [r2, #8]
 1117 0030 8A68     		ldr	r2, [r1, #8]
 1118 0032 9A42     		cmp	r2, r3
 1119 0034 0BD3     		bcc	.L125
 1120              	.L122:
 1121              	.LVL115:
 1122              	.LBB311:
 1123              	.LBB312:
 1124              	.LBB313:
 1125              		.loc 2 546 0
 1126 0036 0023     		movs	r3, #0
 1127              		.syntax unified
 1128              	@ 546 "../../lib/e-puck2_main-processor/ChibiOS//os/ext/CMSIS/include/core_cmFunc.h" 1
 1129 0038 83F31188 		MSR basepri, r3
 1130              	@ 0 "" 2
 1131              	.LVL116:
 1132              		.thumb
 1133              		.syntax unified
 1134              	.LBE313:
 1135              	.LBE312:
 1136              	.LBE311:
 1137              	.LBE310:
 1138              	.LBE309:
 1139              		.loc 1 172 0
 1140 003c 019A     		ldr	r2, [sp, #4]
ARM GAS  C:\Users\pierr\AppData\Local\Temp\ccVvH5Vw.s 			page 21


 1141 003e 2368     		ldr	r3, [r4]
 1142 0040 281C     		adds	r0, r5, #0
 1143 0042 18BF     		it	ne
 1144 0044 0120     		movne	r0, #1
 1145 0046 9A42     		cmp	r2, r3
 1146 0048 05D1     		bne	.L126
 1147 004a 03B0     		add	sp, sp, #12
 1148              		.cfi_remember_state
 1149              		.cfi_def_cfa_offset 12
 1150              		@ sp needed
 1151 004c 30BD     		pop	{r4, r5, pc}
 1152              	.LVL117:
 1153              	.L125:
 1154              		.cfi_restore_state
 1155              	.LBB315:
 1156              	.LBB314:
 1157              		.loc 3 367 0
 1158 004e 0548     		ldr	r0, .L127+8
 1159 0050 FFF7FEFF 		bl	chSysHalt
 1160              	.LVL118:
 1161 0054 EFE7     		b	.L122
 1162              	.L126:
 1163              	.LBE314:
 1164              	.LBE315:
 1165              		.loc 1 172 0
 1166 0056 FFF7FEFF 		bl	__stack_chk_fail
 1167              	.LVL119:
 1168              	.L128:
 1169 005a 00BF     		.align	2
 1170              	.L127:
 1171 005c 00000000 		.word	__stack_chk_guard
 1172 0060 00000000 		.word	ch
 1173 0064 00000000 		.word	.LANCHOR0
 1174              		.cfi_endproc
 1175              	.LFE259:
 1176              		.size	parameter_namespace_contains_changed, .-parameter_namespace_contains_changed
 1177              		.section	.text.parameter_changed,"ax",%progbits
 1178              		.align	1
 1179              		.p2align 4,,15
 1180              		.global	parameter_changed
 1181              		.syntax unified
 1182              		.thumb
 1183              		.thumb_func
 1184              		.fpu fpv4-sp-d16
 1185              		.type	parameter_changed, %function
 1186              	parameter_changed:
 1187              	.LFB260:
 1188              		.loc 1 175 0
 1189              		.cfi_startproc
 1190              		@ args = 0, pretend = 0, frame = 8
 1191              		@ frame_needed = 0, uses_anonymous_args = 0
 1192              	.LVL120:
 1193 0000 30B5     		push	{r4, r5, lr}
 1194              		.cfi_def_cfa_offset 12
 1195              		.cfi_offset 4, -12
 1196              		.cfi_offset 5, -8
 1197              		.cfi_offset 14, -4
ARM GAS  C:\Users\pierr\AppData\Local\Temp\ccVvH5Vw.s 			page 22


 1198 0002 154C     		ldr	r4, .L135
 1199 0004 83B0     		sub	sp, sp, #12
 1200              		.cfi_def_cfa_offset 24
 1201              		.loc 1 175 0
 1202 0006 2368     		ldr	r3, [r4]
 1203 0008 0193     		str	r3, [sp, #4]
 1204              	.LVL121:
 1205 000a 0546     		mov	r5, r0
 1206              	.LBB326:
 1207              	.LBB327:
 1208              	.LBB328:
 1209              	.LBB329:
 1210              	.LBB330:
 1211              		.loc 2 546 0
 1212 000c 2023     		movs	r3, #32
 1213              		.syntax unified
 1214              	@ 546 "../../lib/e-puck2_main-processor/ChibiOS//os/ext/CMSIS/include/core_cmFunc.h" 1
 1215 000e 83F31188 		MSR basepri, r3
 1216              	@ 0 "" 2
 1217              	.LVL122:
 1218              		.thumb
 1219              		.syntax unified
 1220              	.LBE330:
 1221              	.LBE329:
 1222              	.LBE328:
 1223              		.loc 3 349 0
 1224 0012 FFF7FEFF 		bl	_stats_start_measure_crit_thd
 1225              	.LVL123:
 1226              		.loc 3 350 0
 1227 0016 FFF7FEFF 		bl	_dbg_check_lock
 1228              	.LVL124:
 1229              	.LBE327:
 1230              	.LBE326:
 1231              		.loc 1 177 0
 1232 001a 2D7B     		ldrb	r5, [r5, #12]	@ zero_extendqisi2
 1233              	.LVL125:
 1234              	.LBB331:
 1235              	.LBB332:
 1236              		.loc 3 360 0
 1237 001c FFF7FEFF 		bl	_dbg_check_unlock
 1238              	.LVL126:
 1239              		.loc 3 361 0
 1240 0020 FFF7FEFF 		bl	_stats_stop_measure_crit_thd
 1241              	.LVL127:
 1242              		.loc 3 367 0
 1243 0024 0D4B     		ldr	r3, .L135+4
 1244 0026 1A68     		ldr	r2, [r3]
 1245 0028 9A42     		cmp	r2, r3
 1246 002a 04D0     		beq	.L130
 1247 002c 9969     		ldr	r1, [r3, #24]
 1248 002e 9368     		ldr	r3, [r2, #8]
 1249 0030 8A68     		ldr	r2, [r1, #8]
 1250 0032 9A42     		cmp	r2, r3
 1251 0034 09D3     		bcc	.L133
 1252              	.L130:
 1253              	.LVL128:
 1254              	.LBB333:
ARM GAS  C:\Users\pierr\AppData\Local\Temp\ccVvH5Vw.s 			page 23


 1255              	.LBB334:
 1256              	.LBB335:
 1257              		.loc 2 546 0
 1258 0036 0023     		movs	r3, #0
 1259              		.syntax unified
 1260              	@ 546 "../../lib/e-puck2_main-processor/ChibiOS//os/ext/CMSIS/include/core_cmFunc.h" 1
 1261 0038 83F31188 		MSR basepri, r3
 1262              	@ 0 "" 2
 1263              	.LVL129:
 1264              		.thumb
 1265              		.syntax unified
 1266              	.LBE335:
 1267              	.LBE334:
 1268              	.LBE333:
 1269              	.LBE332:
 1270              	.LBE331:
 1271              		.loc 1 180 0
 1272 003c 019A     		ldr	r2, [sp, #4]
 1273 003e 2368     		ldr	r3, [r4]
 1274 0040 9A42     		cmp	r2, r3
 1275 0042 2846     		mov	r0, r5
 1276 0044 05D1     		bne	.L134
 1277 0046 03B0     		add	sp, sp, #12
 1278              		.cfi_remember_state
 1279              		.cfi_def_cfa_offset 12
 1280              		@ sp needed
 1281 0048 30BD     		pop	{r4, r5, pc}
 1282              	.LVL130:
 1283              	.L133:
 1284              		.cfi_restore_state
 1285              	.LBB337:
 1286              	.LBB336:
 1287              		.loc 3 367 0
 1288 004a 0548     		ldr	r0, .L135+8
 1289 004c FFF7FEFF 		bl	chSysHalt
 1290              	.LVL131:
 1291 0050 F1E7     		b	.L130
 1292              	.L134:
 1293              	.LBE336:
 1294              	.LBE337:
 1295              		.loc 1 180 0
 1296 0052 FFF7FEFF 		bl	__stack_chk_fail
 1297              	.LVL132:
 1298              	.L136:
 1299 0056 00BF     		.align	2
 1300              	.L135:
 1301 0058 00000000 		.word	__stack_chk_guard
 1302 005c 00000000 		.word	ch
 1303 0060 00000000 		.word	.LANCHOR0
 1304              		.cfi_endproc
 1305              	.LFE260:
 1306              		.size	parameter_changed, .-parameter_changed
 1307              		.section	.text.parameter_defined,"ax",%progbits
 1308              		.align	1
 1309              		.p2align 4,,15
 1310              		.global	parameter_defined
 1311              		.syntax unified
ARM GAS  C:\Users\pierr\AppData\Local\Temp\ccVvH5Vw.s 			page 24


 1312              		.thumb
 1313              		.thumb_func
 1314              		.fpu fpv4-sp-d16
 1315              		.type	parameter_defined, %function
 1316              	parameter_defined:
 1317              	.LFB261:
 1318              		.loc 1 183 0
 1319              		.cfi_startproc
 1320              		@ args = 0, pretend = 0, frame = 8
 1321              		@ frame_needed = 0, uses_anonymous_args = 0
 1322              	.LVL133:
 1323 0000 30B5     		push	{r4, r5, lr}
 1324              		.cfi_def_cfa_offset 12
 1325              		.cfi_offset 4, -12
 1326              		.cfi_offset 5, -8
 1327              		.cfi_offset 14, -4
 1328 0002 154D     		ldr	r5, .L145
 1329 0004 83B0     		sub	sp, sp, #12
 1330              		.cfi_def_cfa_offset 24
 1331              		.loc 1 183 0
 1332 0006 2B68     		ldr	r3, [r5]
 1333 0008 0193     		str	r3, [sp, #4]
 1334              		.loc 1 184 0
 1335 000a 0446     		mov	r4, r0
 1336 000c B8B1     		cbz	r0, .L138
 1337              	.LVL134:
 1338              	.LBB348:
 1339              	.LBB349:
 1340              	.LBB350:
 1341              	.LBB351:
 1342              	.LBB352:
 1343              		.loc 2 546 0
 1344 000e 2023     		movs	r3, #32
 1345              		.syntax unified
 1346              	@ 546 "../../lib/e-puck2_main-processor/ChibiOS//os/ext/CMSIS/include/core_cmFunc.h" 1
 1347 0010 83F31188 		MSR basepri, r3
 1348              	@ 0 "" 2
 1349              	.LVL135:
 1350              		.thumb
 1351              		.syntax unified
 1352              	.LBE352:
 1353              	.LBE351:
 1354              	.LBE350:
 1355              		.loc 3 349 0
 1356 0014 FFF7FEFF 		bl	_stats_start_measure_crit_thd
 1357              	.LVL136:
 1358              		.loc 3 350 0
 1359 0018 FFF7FEFF 		bl	_dbg_check_lock
 1360              	.LVL137:
 1361              	.LBE349:
 1362              	.LBE348:
 1363              		.loc 1 188 0
 1364 001c 647B     		ldrb	r4, [r4, #13]	@ zero_extendqisi2
 1365              	.LVL138:
 1366              	.LBB353:
 1367              	.LBB354:
 1368              		.loc 3 360 0
ARM GAS  C:\Users\pierr\AppData\Local\Temp\ccVvH5Vw.s 			page 25


 1369 001e FFF7FEFF 		bl	_dbg_check_unlock
 1370              	.LVL139:
 1371              		.loc 3 361 0
 1372 0022 FFF7FEFF 		bl	_stats_stop_measure_crit_thd
 1373              	.LVL140:
 1374              		.loc 3 367 0
 1375 0026 0D4B     		ldr	r3, .L145+4
 1376 0028 1A68     		ldr	r2, [r3]
 1377 002a 9A42     		cmp	r2, r3
 1378 002c 04D0     		beq	.L139
 1379 002e 9969     		ldr	r1, [r3, #24]
 1380 0030 9368     		ldr	r3, [r2, #8]
 1381 0032 8A68     		ldr	r2, [r1, #8]
 1382 0034 9A42     		cmp	r2, r3
 1383 0036 09D3     		bcc	.L143
 1384              	.L139:
 1385              	.LVL141:
 1386              	.LBB355:
 1387              	.LBB356:
 1388              	.LBB357:
 1389              		.loc 2 546 0
 1390 0038 0023     		movs	r3, #0
 1391              		.syntax unified
 1392              	@ 546 "../../lib/e-puck2_main-processor/ChibiOS//os/ext/CMSIS/include/core_cmFunc.h" 1
 1393 003a 83F31188 		MSR basepri, r3
 1394              	@ 0 "" 2
 1395              	.LVL142:
 1396              		.thumb
 1397              		.syntax unified
 1398              	.L138:
 1399              	.LBE357:
 1400              	.LBE356:
 1401              	.LBE355:
 1402              	.LBE354:
 1403              	.LBE353:
 1404              		.loc 1 191 0
 1405 003e 019A     		ldr	r2, [sp, #4]
 1406 0040 2B68     		ldr	r3, [r5]
 1407 0042 9A42     		cmp	r2, r3
 1408 0044 2046     		mov	r0, r4
 1409 0046 05D1     		bne	.L144
 1410 0048 03B0     		add	sp, sp, #12
 1411              		.cfi_remember_state
 1412              		.cfi_def_cfa_offset 12
 1413              		@ sp needed
 1414 004a 30BD     		pop	{r4, r5, pc}
 1415              	.LVL143:
 1416              	.L143:
 1417              		.cfi_restore_state
 1418              	.LBB359:
 1419              	.LBB358:
 1420              		.loc 3 367 0
 1421 004c 0448     		ldr	r0, .L145+8
 1422 004e FFF7FEFF 		bl	chSysHalt
 1423              	.LVL144:
 1424 0052 F1E7     		b	.L139
 1425              	.LVL145:
ARM GAS  C:\Users\pierr\AppData\Local\Temp\ccVvH5Vw.s 			page 26


 1426              	.L144:
 1427              	.LBE358:
 1428              	.LBE359:
 1429              		.loc 1 191 0
 1430 0054 FFF7FEFF 		bl	__stack_chk_fail
 1431              	.LVL146:
 1432              	.L146:
 1433              		.align	2
 1434              	.L145:
 1435 0058 00000000 		.word	__stack_chk_guard
 1436 005c 00000000 		.word	ch
 1437 0060 00000000 		.word	.LANCHOR0
 1438              		.cfi_endproc
 1439              	.LFE261:
 1440              		.size	parameter_defined, .-parameter_defined
 1441              		.section	.text._parameter_changed_set,"ax",%progbits
 1442              		.align	1
 1443              		.p2align 4,,15
 1444              		.global	_parameter_changed_set
 1445              		.syntax unified
 1446              		.thumb
 1447              		.thumb_func
 1448              		.fpu fpv4-sp-d16
 1449              		.type	_parameter_changed_set, %function
 1450              	_parameter_changed_set:
 1451              	.LFB262:
 1452              		.loc 1 194 0
 1453              		.cfi_startproc
 1454              		@ args = 0, pretend = 0, frame = 8
 1455              		@ frame_needed = 0, uses_anonymous_args = 0
 1456              	.LVL147:
 1457 0000 2DE9F047 		push	{r4, r5, r6, r7, r8, r9, r10, lr}
 1458              		.cfi_def_cfa_offset 32
 1459              		.cfi_offset 4, -32
 1460              		.cfi_offset 5, -28
 1461              		.cfi_offset 6, -24
 1462              		.cfi_offset 7, -20
 1463              		.cfi_offset 8, -16
 1464              		.cfi_offset 9, -12
 1465              		.cfi_offset 10, -8
 1466              		.cfi_offset 14, -4
 1467 0004 DFF8B480 		ldr	r8, .L161+4
 1468 0008 82B0     		sub	sp, sp, #8
 1469              		.cfi_def_cfa_offset 40
 1470              		.loc 1 194 0
 1471 000a D8F80030 		ldr	r3, [r8]
 1472 000e 0193     		str	r3, [sp, #4]
 1473              	.LVL148:
 1474 0010 0646     		mov	r6, r0
 1475              	.LBB387:
 1476              	.LBB388:
 1477              	.LBB389:
 1478              	.LBB390:
 1479              	.LBB391:
 1480              		.loc 2 546 0
 1481 0012 2023     		movs	r3, #32
 1482              		.syntax unified
ARM GAS  C:\Users\pierr\AppData\Local\Temp\ccVvH5Vw.s 			page 27


 1483              	@ 546 "../../lib/e-puck2_main-processor/ChibiOS//os/ext/CMSIS/include/core_cmFunc.h" 1
 1484 0014 83F31188 		MSR basepri, r3
 1485              	@ 0 "" 2
 1486              	.LVL149:
 1487              		.thumb
 1488              		.syntax unified
 1489              	.LBE391:
 1490              	.LBE390:
 1491              	.LBE389:
 1492              		.loc 3 349 0
 1493 0018 FFF7FEFF 		bl	_stats_start_measure_crit_thd
 1494              	.LVL150:
 1495              	.LBE388:
 1496              	.LBE387:
 1497              	.LBB393:
 1498              	.LBB394:
 1499              		.loc 3 367 0
 1500 001c DFF8A0A0 		ldr	r10, .L161+8
 1501              	.LBE394:
 1502              	.LBE393:
 1503              	.LBB400:
 1504              	.LBB392:
 1505              		.loc 3 350 0
 1506 0020 FFF7FEFF 		bl	_dbg_check_lock
 1507              	.LVL151:
 1508              	.LBE392:
 1509              	.LBE400:
 1510              		.loc 1 197 0
 1511 0024 0123     		movs	r3, #1
 1512              		.loc 1 196 0
 1513 0026 357B     		ldrb	r5, [r6, #12]	@ zero_extendqisi2
 1514              	.LVL152:
 1515              		.loc 1 197 0
 1516 0028 3373     		strb	r3, [r6, #12]
 1517              	.LBB401:
 1518              	.LBB398:
 1519              		.loc 3 360 0
 1520 002a FFF7FEFF 		bl	_dbg_check_unlock
 1521              	.LVL153:
 1522              		.loc 3 361 0
 1523 002e FFF7FEFF 		bl	_stats_stop_measure_crit_thd
 1524              	.LVL154:
 1525              		.loc 3 367 0
 1526 0032 DAF80030 		ldr	r3, [r10]
 1527 0036 5345     		cmp	r3, r10
 1528 0038 05D0     		beq	.L148
 1529 003a DAF81820 		ldr	r2, [r10, #24]
 1530 003e 9B68     		ldr	r3, [r3, #8]
 1531 0040 9268     		ldr	r2, [r2, #8]
 1532 0042 9A42     		cmp	r2, r3
 1533 0044 31D3     		bcc	.L159
 1534              	.L148:
 1535              	.LVL155:
 1536              	.LBB395:
 1537              	.LBB396:
 1538              	.LBB397:
 1539              		.loc 2 546 0
ARM GAS  C:\Users\pierr\AppData\Local\Temp\ccVvH5Vw.s 			page 28


 1540 0046 0023     		movs	r3, #0
 1541              		.syntax unified
 1542              	@ 546 "../../lib/e-puck2_main-processor/ChibiOS//os/ext/CMSIS/include/core_cmFunc.h" 1
 1543 0048 83F31188 		MSR basepri, r3
 1544              	@ 0 "" 2
 1545              	.LVL156:
 1546              		.thumb
 1547              		.syntax unified
 1548              	.LBE397:
 1549              	.LBE396:
 1550              	.LBE395:
 1551              	.LBE398:
 1552              	.LBE401:
 1553              		.loc 1 199 0
 1554 004c 2DBB     		cbnz	r5, .L147
 1555              	.LVL157:
 1556              	.LBB402:
 1557              	.LBB403:
 1558              		.loc 1 204 0
 1559 004e 7468     		ldr	r4, [r6, #4]
 1560              	.LVL158:
 1561              		.loc 1 205 0
 1562 0050 0CB3     		cbz	r4, .L150
 1563              	.LBB404:
 1564              	.LBB405:
 1565              		.loc 3 367 0
 1566 0052 DFF86490 		ldr	r9, .L161
 1567              	.LBE405:
 1568              	.LBE404:
 1569              	.LBB410:
 1570              	.LBB411:
 1571              	.LBB412:
 1572              	.LBB413:
 1573              	.LBB414:
 1574              		.loc 2 546 0
 1575 0056 2027     		movs	r7, #32
 1576              	.L152:
 1577              	.LVL159:
 1578              		.syntax unified
 1579              	@ 546 "../../lib/e-puck2_main-processor/ChibiOS//os/ext/CMSIS/include/core_cmFunc.h" 1
 1580 0058 87F31188 		MSR basepri, r7
 1581              	@ 0 "" 2
 1582              	.LVL160:
 1583              		.thumb
 1584              		.syntax unified
 1585              	.LBE414:
 1586              	.LBE413:
 1587              	.LBE412:
 1588              		.loc 3 349 0
 1589 005c FFF7FEFF 		bl	_stats_start_measure_crit_thd
 1590              	.LVL161:
 1591              		.loc 3 350 0
 1592 0060 FFF7FEFF 		bl	_dbg_check_lock
 1593              	.LVL162:
 1594              	.LBE411:
 1595              	.LBE410:
 1596              		.loc 1 207 0
ARM GAS  C:\Users\pierr\AppData\Local\Temp\ccVvH5Vw.s 			page 29


 1597 0064 6368     		ldr	r3, [r4, #4]
 1598 0066 0133     		adds	r3, r3, #1
 1599 0068 6360     		str	r3, [r4, #4]
 1600              	.LBB415:
 1601              	.LBB409:
 1602              		.loc 3 360 0
 1603 006a FFF7FEFF 		bl	_dbg_check_unlock
 1604              	.LVL163:
 1605              		.loc 3 361 0
 1606 006e FFF7FEFF 		bl	_stats_stop_measure_crit_thd
 1607              	.LVL164:
 1608              		.loc 3 367 0
 1609 0072 DAF80030 		ldr	r3, [r10]
 1610 0076 5345     		cmp	r3, r10
 1611 0078 08D0     		beq	.L151
 1612 007a DAF81820 		ldr	r2, [r10, #24]
 1613 007e 9B68     		ldr	r3, [r3, #8]
 1614 0080 9268     		ldr	r2, [r2, #8]
 1615 0082 9A42     		cmp	r2, r3
 1616 0084 02D2     		bcs	.L151
 1617 0086 4846     		mov	r0, r9
 1618 0088 FFF7FEFF 		bl	chSysHalt
 1619              	.LVL165:
 1620              	.L151:
 1621              	.LBB406:
 1622              	.LBB407:
 1623              	.LBB408:
 1624              		.loc 2 546 0
 1625              		.syntax unified
 1626              	@ 546 "../../lib/e-puck2_main-processor/ChibiOS//os/ext/CMSIS/include/core_cmFunc.h" 1
 1627 008c 85F31188 		MSR basepri, r5
 1628              	@ 0 "" 2
 1629              	.LVL166:
 1630              		.thumb
 1631              		.syntax unified
 1632              	.LBE408:
 1633              	.LBE407:
 1634              	.LBE406:
 1635              	.LBE409:
 1636              	.LBE415:
 1637              		.loc 1 209 0
 1638 0090 A468     		ldr	r4, [r4, #8]
 1639              	.LVL167:
 1640              		.loc 1 205 0
 1641 0092 002C     		cmp	r4, #0
 1642 0094 E0D1     		bne	.L152
 1643              	.L150:
 1644              		.loc 1 211 0
 1645 0096 0123     		movs	r3, #1
 1646 0098 7373     		strb	r3, [r6, #13]
 1647              	.LVL168:
 1648              	.L147:
 1649              	.LBE403:
 1650              	.LBE402:
 1651              		.loc 1 212 0
 1652 009a 019A     		ldr	r2, [sp, #4]
 1653 009c D8F80030 		ldr	r3, [r8]
ARM GAS  C:\Users\pierr\AppData\Local\Temp\ccVvH5Vw.s 			page 30


 1654 00a0 9A42     		cmp	r2, r3
 1655 00a2 06D1     		bne	.L160
 1656 00a4 02B0     		add	sp, sp, #8
 1657              		.cfi_remember_state
 1658              		.cfi_def_cfa_offset 32
 1659              		@ sp needed
 1660 00a6 BDE8F087 		pop	{r4, r5, r6, r7, r8, r9, r10, pc}
 1661              	.LVL169:
 1662              	.L159:
 1663              		.cfi_restore_state
 1664              	.LBB416:
 1665              	.LBB399:
 1666              		.loc 3 367 0
 1667 00aa 0348     		ldr	r0, .L161
 1668 00ac FFF7FEFF 		bl	chSysHalt
 1669              	.LVL170:
 1670 00b0 C9E7     		b	.L148
 1671              	.L160:
 1672              	.LBE399:
 1673              	.LBE416:
 1674              		.loc 1 212 0
 1675 00b2 FFF7FEFF 		bl	__stack_chk_fail
 1676              	.LVL171:
 1677              	.L162:
 1678 00b6 00BF     		.align	2
 1679              	.L161:
 1680 00b8 00000000 		.word	.LANCHOR0
 1681 00bc 00000000 		.word	__stack_chk_guard
 1682 00c0 00000000 		.word	ch
 1683              		.cfi_endproc
 1684              	.LFE262:
 1685              		.size	_parameter_changed_set, .-_parameter_changed_set
 1686              		.section	.text._parameter_changed_clear,"ax",%progbits
 1687              		.align	1
 1688              		.p2align 4,,15
 1689              		.global	_parameter_changed_clear
 1690              		.syntax unified
 1691              		.thumb
 1692              		.thumb_func
 1693              		.fpu fpv4-sp-d16
 1694              		.type	_parameter_changed_clear, %function
 1695              	_parameter_changed_clear:
 1696              	.LFB263:
 1697              		.loc 1 215 0
 1698              		.cfi_startproc
 1699              		@ args = 0, pretend = 0, frame = 8
 1700              		@ frame_needed = 0, uses_anonymous_args = 0
 1701              	.LVL172:
 1702 0000 2DE9F043 		push	{r4, r5, r6, r7, r8, r9, lr}
 1703              		.cfi_def_cfa_offset 28
 1704              		.cfi_offset 4, -28
 1705              		.cfi_offset 5, -24
 1706              		.cfi_offset 6, -20
 1707              		.cfi_offset 7, -16
 1708              		.cfi_offset 8, -12
 1709              		.cfi_offset 9, -8
 1710              		.cfi_offset 14, -4
ARM GAS  C:\Users\pierr\AppData\Local\Temp\ccVvH5Vw.s 			page 31


 1711 0004 DFF8A880 		ldr	r8, .L179+8
 1712 0008 83B0     		sub	sp, sp, #12
 1713              		.cfi_def_cfa_offset 40
 1714              		.loc 1 215 0
 1715 000a D8F80030 		ldr	r3, [r8]
 1716 000e 0193     		str	r3, [sp, #4]
 1717              	.LVL173:
 1718 0010 0446     		mov	r4, r0
 1719              	.LBB444:
 1720              	.LBB445:
 1721              	.LBB446:
 1722              	.LBB447:
 1723              	.LBB448:
 1724              		.loc 2 546 0
 1725 0012 2023     		movs	r3, #32
 1726              		.syntax unified
 1727              	@ 546 "../../lib/e-puck2_main-processor/ChibiOS//os/ext/CMSIS/include/core_cmFunc.h" 1
 1728 0014 83F31188 		MSR basepri, r3
 1729              	@ 0 "" 2
 1730              	.LVL174:
 1731              		.thumb
 1732              		.syntax unified
 1733              	.LBE448:
 1734              	.LBE447:
 1735              	.LBE446:
 1736              		.loc 3 349 0
 1737 0018 FFF7FEFF 		bl	_stats_start_measure_crit_thd
 1738              	.LVL175:
 1739              	.LBE445:
 1740              	.LBE444:
 1741              	.LBB450:
 1742              	.LBB451:
 1743              		.loc 3 367 0
 1744 001c 224D     		ldr	r5, .L179
 1745              	.LBE451:
 1746              	.LBE450:
 1747              	.LBB457:
 1748              	.LBB449:
 1749              		.loc 3 350 0
 1750 001e FFF7FEFF 		bl	_dbg_check_lock
 1751              	.LVL176:
 1752              	.LBE449:
 1753              	.LBE457:
 1754              		.loc 1 218 0
 1755 0022 0023     		movs	r3, #0
 1756              		.loc 1 217 0
 1757 0024 277B     		ldrb	r7, [r4, #12]	@ zero_extendqisi2
 1758              	.LVL177:
 1759              		.loc 1 218 0
 1760 0026 2373     		strb	r3, [r4, #12]
 1761              	.LBB458:
 1762              	.LBB455:
 1763              		.loc 3 360 0
 1764 0028 FFF7FEFF 		bl	_dbg_check_unlock
 1765              	.LVL178:
 1766              		.loc 3 361 0
 1767 002c FFF7FEFF 		bl	_stats_stop_measure_crit_thd
ARM GAS  C:\Users\pierr\AppData\Local\Temp\ccVvH5Vw.s 			page 32


 1768              	.LVL179:
 1769              		.loc 3 367 0
 1770 0030 2B68     		ldr	r3, [r5]
 1771 0032 AB42     		cmp	r3, r5
 1772 0034 04D0     		beq	.L164
 1773 0036 AA69     		ldr	r2, [r5, #24]
 1774 0038 9B68     		ldr	r3, [r3, #8]
 1775 003a 9268     		ldr	r2, [r2, #8]
 1776 003c 9A42     		cmp	r2, r3
 1777 003e 2DD3     		bcc	.L177
 1778              	.L164:
 1779              	.LVL180:
 1780              	.LBB452:
 1781              	.LBB453:
 1782              	.LBB454:
 1783              		.loc 2 546 0
 1784 0040 0026     		movs	r6, #0
 1785              		.syntax unified
 1786              	@ 546 "../../lib/e-puck2_main-processor/ChibiOS//os/ext/CMSIS/include/core_cmFunc.h" 1
 1787 0042 86F31188 		MSR basepri, r6
 1788              	@ 0 "" 2
 1789              	.LVL181:
 1790              		.thumb
 1791              		.syntax unified
 1792              	.LBE454:
 1793              	.LBE453:
 1794              	.LBE452:
 1795              	.LBE455:
 1796              	.LBE458:
 1797              		.loc 1 220 0
 1798 0046 0FB3     		cbz	r7, .L163
 1799              	.LVL182:
 1800              	.LBB459:
 1801              	.LBB460:
 1802              		.loc 1 225 0
 1803 0048 6468     		ldr	r4, [r4, #4]
 1804              	.LVL183:
 1805              		.loc 1 226 0
 1806 004a FCB1     		cbz	r4, .L163
 1807              	.LBB461:
 1808              	.LBB462:
 1809              		.loc 3 367 0
 1810 004c DFF85C90 		ldr	r9, .L179+4
 1811              	.LBE462:
 1812              	.LBE461:
 1813              	.LBB467:
 1814              	.LBB468:
 1815              	.LBB469:
 1816              	.LBB470:
 1817              	.LBB471:
 1818              		.loc 2 546 0
 1819 0050 2027     		movs	r7, #32
 1820              	.LVL184:
 1821              	.L167:
 1822              		.syntax unified
 1823              	@ 546 "../../lib/e-puck2_main-processor/ChibiOS//os/ext/CMSIS/include/core_cmFunc.h" 1
 1824 0052 87F31188 		MSR basepri, r7
ARM GAS  C:\Users\pierr\AppData\Local\Temp\ccVvH5Vw.s 			page 33


 1825              	@ 0 "" 2
 1826              	.LVL185:
 1827              		.thumb
 1828              		.syntax unified
 1829              	.LBE471:
 1830              	.LBE470:
 1831              	.LBE469:
 1832              		.loc 3 349 0
 1833 0056 FFF7FEFF 		bl	_stats_start_measure_crit_thd
 1834              	.LVL186:
 1835              		.loc 3 350 0
 1836 005a FFF7FEFF 		bl	_dbg_check_lock
 1837              	.LVL187:
 1838              	.LBE468:
 1839              	.LBE467:
 1840              		.loc 1 228 0
 1841 005e 6368     		ldr	r3, [r4, #4]
 1842 0060 013B     		subs	r3, r3, #1
 1843 0062 6360     		str	r3, [r4, #4]
 1844              	.LBB472:
 1845              	.LBB466:
 1846              		.loc 3 360 0
 1847 0064 FFF7FEFF 		bl	_dbg_check_unlock
 1848              	.LVL188:
 1849              		.loc 3 361 0
 1850 0068 FFF7FEFF 		bl	_stats_stop_measure_crit_thd
 1851              	.LVL189:
 1852              		.loc 3 367 0
 1853 006c 2B68     		ldr	r3, [r5]
 1854 006e AB42     		cmp	r3, r5
 1855 0070 07D0     		beq	.L166
 1856 0072 AA69     		ldr	r2, [r5, #24]
 1857 0074 9B68     		ldr	r3, [r3, #8]
 1858 0076 9268     		ldr	r2, [r2, #8]
 1859 0078 9A42     		cmp	r2, r3
 1860 007a 02D2     		bcs	.L166
 1861 007c 4846     		mov	r0, r9
 1862 007e FFF7FEFF 		bl	chSysHalt
 1863              	.LVL190:
 1864              	.L166:
 1865              	.LBB463:
 1866              	.LBB464:
 1867              	.LBB465:
 1868              		.loc 2 546 0
 1869              		.syntax unified
 1870              	@ 546 "../../lib/e-puck2_main-processor/ChibiOS//os/ext/CMSIS/include/core_cmFunc.h" 1
 1871 0082 86F31188 		MSR basepri, r6
 1872              	@ 0 "" 2
 1873              	.LVL191:
 1874              		.thumb
 1875              		.syntax unified
 1876              	.LBE465:
 1877              	.LBE464:
 1878              	.LBE463:
 1879              	.LBE466:
 1880              	.LBE472:
 1881              		.loc 1 230 0
ARM GAS  C:\Users\pierr\AppData\Local\Temp\ccVvH5Vw.s 			page 34


 1882 0086 A468     		ldr	r4, [r4, #8]
 1883              	.LVL192:
 1884              		.loc 1 226 0
 1885 0088 002C     		cmp	r4, #0
 1886 008a E2D1     		bne	.L167
 1887              	.LVL193:
 1888              	.L163:
 1889              	.LBE460:
 1890              	.LBE459:
 1891              		.loc 1 232 0
 1892 008c 019A     		ldr	r2, [sp, #4]
 1893 008e D8F80030 		ldr	r3, [r8]
 1894 0092 9A42     		cmp	r2, r3
 1895 0094 06D1     		bne	.L178
 1896 0096 03B0     		add	sp, sp, #12
 1897              		.cfi_remember_state
 1898              		.cfi_def_cfa_offset 28
 1899              		@ sp needed
 1900 0098 BDE8F083 		pop	{r4, r5, r6, r7, r8, r9, pc}
 1901              	.LVL194:
 1902              	.L177:
 1903              		.cfi_restore_state
 1904              	.LBB473:
 1905              	.LBB456:
 1906              		.loc 3 367 0
 1907 009c 0348     		ldr	r0, .L179+4
 1908 009e FFF7FEFF 		bl	chSysHalt
 1909              	.LVL195:
 1910 00a2 CDE7     		b	.L164
 1911              	.LVL196:
 1912              	.L178:
 1913              	.LBE456:
 1914              	.LBE473:
 1915              		.loc 1 232 0
 1916 00a4 FFF7FEFF 		bl	__stack_chk_fail
 1917              	.LVL197:
 1918              	.L180:
 1919              		.align	2
 1920              	.L179:
 1921 00a8 00000000 		.word	ch
 1922 00ac 00000000 		.word	.LANCHOR0
 1923 00b0 00000000 		.word	__stack_chk_guard
 1924              		.cfi_endproc
 1925              	.LFE263:
 1926              		.size	_parameter_changed_clear, .-_parameter_changed_clear
 1927              		.section	.text.parameter_scalar_declare,"ax",%progbits
 1928              		.align	1
 1929              		.p2align 4,,15
 1930              		.global	parameter_scalar_declare
 1931              		.syntax unified
 1932              		.thumb
 1933              		.thumb_func
 1934              		.fpu fpv4-sp-d16
 1935              		.type	parameter_scalar_declare, %function
 1936              	parameter_scalar_declare:
 1937              	.LFB264:
 1938              		.loc 1 240 0
ARM GAS  C:\Users\pierr\AppData\Local\Temp\ccVvH5Vw.s 			page 35


 1939              		.cfi_startproc
 1940              		@ args = 0, pretend = 0, frame = 8
 1941              		@ frame_needed = 0, uses_anonymous_args = 0
 1942              	.LVL198:
 1943 0000 30B5     		push	{r4, r5, lr}
 1944              		.cfi_def_cfa_offset 12
 1945              		.cfi_offset 4, -12
 1946              		.cfi_offset 5, -8
 1947              		.cfi_offset 14, -4
 1948 0002 084B     		ldr	r3, .L186
 1949 0004 83B0     		sub	sp, sp, #12
 1950              		.cfi_def_cfa_offset 24
 1951              		.loc 1 240 0
 1952 0006 1C68     		ldr	r4, [r3]
 1953 0008 0194     		str	r4, [sp, #4]
 1954              		.loc 1 242 0
 1955 000a 019C     		ldr	r4, [sp, #4]
 1956 000c 1B68     		ldr	r3, [r3]
 1957              		.loc 1 241 0
 1958 000e 0125     		movs	r5, #1
 1959              		.loc 1 242 0
 1960 0010 9C42     		cmp	r4, r3
 1961              		.loc 1 241 0
 1962 0012 8573     		strb	r5, [r0, #14]
 1963              		.loc 1 242 0
 1964 0014 04D1     		bne	.L185
 1965              		.loc 1 243 0
 1966 0016 03B0     		add	sp, sp, #12
 1967              		.cfi_remember_state
 1968              		.cfi_def_cfa_offset 12
 1969              		@ sp needed
 1970 0018 BDE83040 		pop	{r4, r5, lr}
 1971              		.cfi_restore 14
 1972              		.cfi_restore 5
 1973              		.cfi_restore 4
 1974              		.cfi_def_cfa_offset 0
 1975              		.loc 1 242 0
 1976 001c FFF7FEBF 		b	_parameter_declare
 1977              	.LVL199:
 1978              	.L185:
 1979              		.cfi_restore_state
 1980 0020 FFF7FEFF 		bl	__stack_chk_fail
 1981              	.LVL200:
 1982              	.L187:
 1983              		.align	2
 1984              	.L186:
 1985 0024 00000000 		.word	__stack_chk_guard
 1986              		.cfi_endproc
 1987              	.LFE264:
 1988              		.size	parameter_scalar_declare, .-parameter_scalar_declare
 1989              		.section	.text.parameter_scalar_declare_with_default,"ax",%progbits
 1990              		.align	1
 1991              		.p2align 4,,15
 1992              		.global	parameter_scalar_declare_with_default
 1993              		.syntax unified
 1994              		.thumb
 1995              		.thumb_func
ARM GAS  C:\Users\pierr\AppData\Local\Temp\ccVvH5Vw.s 			page 36


 1996              		.fpu fpv4-sp-d16
 1997              		.type	parameter_scalar_declare_with_default, %function
 1998              	parameter_scalar_declare_with_default:
 1999              	.LFB265:
 2000              		.loc 1 249 0
 2001              		.cfi_startproc
 2002              		@ args = 0, pretend = 0, frame = 8
 2003              		@ frame_needed = 0, uses_anonymous_args = 0
 2004              	.LVL201:
 2005 0000 70B5     		push	{r4, r5, r6, lr}
 2006              		.cfi_def_cfa_offset 16
 2007              		.cfi_offset 4, -16
 2008              		.cfi_offset 5, -12
 2009              		.cfi_offset 6, -8
 2010              		.cfi_offset 14, -4
 2011 0002 0B4D     		ldr	r5, .L193
 2012              		.loc 1 250 0
 2013 0004 80ED040A 		vstr.32	s0, [r0, #16]
 2014              		.loc 1 249 0
 2015 0008 82B0     		sub	sp, sp, #8
 2016              		.cfi_def_cfa_offset 24
 2017              		.loc 1 251 0
 2018 000a 0126     		movs	r6, #1
 2019              		.loc 1 249 0
 2020 000c 2B68     		ldr	r3, [r5]
 2021              		.loc 1 251 0
 2022 000e 8673     		strb	r6, [r0, #14]
 2023              		.loc 1 249 0
 2024 0010 0193     		str	r3, [sp, #4]
 2025 0012 0446     		mov	r4, r0
 2026              		.loc 1 252 0
 2027 0014 FFF7FEFF 		bl	_parameter_declare
 2028              	.LVL202:
 2029              		.loc 1 253 0
 2030 0018 019A     		ldr	r2, [sp, #4]
 2031 001a 2B68     		ldr	r3, [r5]
 2032 001c 9A42     		cmp	r2, r3
 2033 001e 05D1     		bne	.L192
 2034 0020 2046     		mov	r0, r4
 2035              		.loc 1 254 0
 2036 0022 02B0     		add	sp, sp, #8
 2037              		.cfi_remember_state
 2038              		.cfi_def_cfa_offset 16
 2039              		@ sp needed
 2040 0024 BDE87040 		pop	{r4, r5, r6, lr}
 2041              		.cfi_restore 14
 2042              		.cfi_restore 6
 2043              		.cfi_restore 5
 2044              		.cfi_restore 4
 2045              		.cfi_def_cfa_offset 0
 2046              	.LVL203:
 2047              		.loc 1 253 0
 2048 0028 FFF7FEBF 		b	_parameter_changed_set
 2049              	.LVL204:
 2050              	.L192:
 2051              		.cfi_restore_state
 2052 002c FFF7FEFF 		bl	__stack_chk_fail
ARM GAS  C:\Users\pierr\AppData\Local\Temp\ccVvH5Vw.s 			page 37


 2053              	.LVL205:
 2054              	.L194:
 2055              		.align	2
 2056              	.L193:
 2057 0030 00000000 		.word	__stack_chk_guard
 2058              		.cfi_endproc
 2059              	.LFE265:
 2060              		.size	parameter_scalar_declare_with_default, .-parameter_scalar_declare_with_default
 2061              		.section	.text.parameter_scalar_read,"ax",%progbits
 2062              		.align	1
 2063              		.p2align 4,,15
 2064              		.global	parameter_scalar_read
 2065              		.syntax unified
 2066              		.thumb
 2067              		.thumb_func
 2068              		.fpu fpv4-sp-d16
 2069              		.type	parameter_scalar_read, %function
 2070              	parameter_scalar_read:
 2071              	.LFB267:
 2072              		.loc 1 263 0
 2073              		.cfi_startproc
 2074              		@ args = 0, pretend = 0, frame = 8
 2075              		@ frame_needed = 0, uses_anonymous_args = 0
 2076              	.LVL206:
 2077 0000 30B5     		push	{r4, r5, lr}
 2078              		.cfi_def_cfa_offset 12
 2079              		.cfi_offset 4, -12
 2080              		.cfi_offset 5, -8
 2081              		.cfi_offset 14, -4
 2082 0002 2DED028B 		vpush.64	{d8}
 2083              		.cfi_def_cfa_offset 20
 2084              		.cfi_offset 80, -20
 2085              		.cfi_offset 81, -16
 2086 0006 1C4D     		ldr	r5, .L206
 2087              		.loc 1 264 0
 2088 0008 837B     		ldrb	r3, [r0, #14]	@ zero_extendqisi2
 2089              		.loc 1 263 0
 2090 000a 2A68     		ldr	r2, [r5]
 2091 000c 83B0     		sub	sp, sp, #12
 2092              		.cfi_def_cfa_offset 32
 2093              		.loc 1 264 0
 2094 000e 012B     		cmp	r3, #1
 2095              		.loc 1 263 0
 2096 0010 0446     		mov	r4, r0
 2097 0012 0192     		str	r2, [sp, #4]
 2098              		.loc 1 264 0
 2099 0014 02D0     		beq	.L196
 2100              		.loc 1 264 0 is_stmt 0 discriminator 2
 2101 0016 1948     		ldr	r0, .L206+4
 2102              	.LVL207:
 2103 0018 FFF7FEFF 		bl	chSysHalt
 2104              	.LVL208:
 2105              	.L196:
 2106              	.LBB484:
 2107              	.LBB485:
 2108              	.LBB486:
 2109              	.LBB487:
ARM GAS  C:\Users\pierr\AppData\Local\Temp\ccVvH5Vw.s 			page 38


 2110              	.LBB488:
 2111              		.loc 2 546 0 is_stmt 1
 2112 001c 2023     		movs	r3, #32
 2113              		.syntax unified
 2114              	@ 546 "../../lib/e-puck2_main-processor/ChibiOS//os/ext/CMSIS/include/core_cmFunc.h" 1
 2115 001e 83F31188 		MSR basepri, r3
 2116              	@ 0 "" 2
 2117              	.LVL209:
 2118              		.thumb
 2119              		.syntax unified
 2120              	.LBE488:
 2121              	.LBE487:
 2122              	.LBE486:
 2123              		.loc 3 349 0
 2124 0022 FFF7FEFF 		bl	_stats_start_measure_crit_thd
 2125              	.LVL210:
 2126              		.loc 3 350 0
 2127 0026 FFF7FEFF 		bl	_dbg_check_lock
 2128              	.LVL211:
 2129              	.LBE485:
 2130              	.LBE484:
 2131              		.loc 1 266 0
 2132 002a 637B     		ldrb	r3, [r4, #13]	@ zero_extendqisi2
 2133 002c 13B9     		cbnz	r3, .L197
 2134              		.loc 1 266 0 is_stmt 0 discriminator 2
 2135 002e 1348     		ldr	r0, .L206+4
 2136 0030 FFF7FEFF 		bl	chSysHalt
 2137              	.LVL212:
 2138              	.L197:
 2139              		.loc 1 267 0 is_stmt 1
 2140 0034 94ED048A 		vldr.32	s16, [r4, #16]
 2141              	.LVL213:
 2142              	.LBB489:
 2143              	.LBB490:
 2144              		.loc 3 360 0
 2145 0038 FFF7FEFF 		bl	_dbg_check_unlock
 2146              	.LVL214:
 2147              		.loc 3 361 0
 2148 003c FFF7FEFF 		bl	_stats_stop_measure_crit_thd
 2149              	.LVL215:
 2150              		.loc 3 367 0
 2151 0040 0F4B     		ldr	r3, .L206+8
 2152 0042 1A68     		ldr	r2, [r3]
 2153 0044 9A42     		cmp	r2, r3
 2154 0046 04D0     		beq	.L198
 2155 0048 9969     		ldr	r1, [r3, #24]
 2156 004a 9368     		ldr	r3, [r2, #8]
 2157 004c 8A68     		ldr	r2, [r1, #8]
 2158 004e 9A42     		cmp	r2, r3
 2159 0050 0CD3     		bcc	.L204
 2160              	.L198:
 2161              	.LVL216:
 2162              	.LBB491:
 2163              	.LBB492:
 2164              	.LBB493:
 2165              		.loc 2 546 0
 2166 0052 0023     		movs	r3, #0
ARM GAS  C:\Users\pierr\AppData\Local\Temp\ccVvH5Vw.s 			page 39


 2167              		.syntax unified
 2168              	@ 546 "../../lib/e-puck2_main-processor/ChibiOS//os/ext/CMSIS/include/core_cmFunc.h" 1
 2169 0054 83F31188 		MSR basepri, r3
 2170              	@ 0 "" 2
 2171              	.LVL217:
 2172              		.thumb
 2173              		.syntax unified
 2174              	.LBE493:
 2175              	.LBE492:
 2176              	.LBE491:
 2177              	.LBE490:
 2178              	.LBE489:
 2179              		.loc 1 270 0
 2180 0058 019A     		ldr	r2, [sp, #4]
 2181 005a 2B68     		ldr	r3, [r5]
 2182 005c 9A42     		cmp	r2, r3
 2183 005e B0EE480A 		vmov.f32	s0, s16
 2184 0062 07D1     		bne	.L205
 2185              	.LVL218:
 2186 0064 03B0     		add	sp, sp, #12
 2187              		.cfi_remember_state
 2188              		.cfi_def_cfa_offset 20
 2189              		@ sp needed
 2190 0066 BDEC028B 		vldm	sp!, {d8}
 2191              		.cfi_restore 80
 2192              		.cfi_restore 81
 2193              		.cfi_def_cfa_offset 12
 2194 006a 30BD     		pop	{r4, r5, pc}
 2195              	.LVL219:
 2196              	.L204:
 2197              		.cfi_restore_state
 2198              	.LBB495:
 2199              	.LBB494:
 2200              		.loc 3 367 0
 2201 006c 0548     		ldr	r0, .L206+12
 2202 006e FFF7FEFF 		bl	chSysHalt
 2203              	.LVL220:
 2204 0072 EEE7     		b	.L198
 2205              	.LVL221:
 2206              	.L205:
 2207              	.LBE494:
 2208              	.LBE495:
 2209              		.loc 1 270 0
 2210 0074 FFF7FEFF 		bl	__stack_chk_fail
 2211              	.LVL222:
 2212              	.L207:
 2213              		.align	2
 2214              	.L206:
 2215 0078 00000000 		.word	__stack_chk_guard
 2216 007c 00000000 		.word	.LANCHOR1
 2217 0080 00000000 		.word	ch
 2218 0084 00000000 		.word	.LANCHOR0
 2219              		.cfi_endproc
 2220              	.LFE267:
 2221              		.size	parameter_scalar_read, .-parameter_scalar_read
 2222              		.section	.text.parameter_scalar_get,"ax",%progbits
 2223              		.align	1
ARM GAS  C:\Users\pierr\AppData\Local\Temp\ccVvH5Vw.s 			page 40


 2224              		.p2align 4,,15
 2225              		.global	parameter_scalar_get
 2226              		.syntax unified
 2227              		.thumb
 2228              		.thumb_func
 2229              		.fpu fpv4-sp-d16
 2230              		.type	parameter_scalar_get, %function
 2231              	parameter_scalar_get:
 2232              	.LFB266:
 2233              		.loc 1 257 0
 2234              		.cfi_startproc
 2235              		@ args = 0, pretend = 0, frame = 8
 2236              		@ frame_needed = 0, uses_anonymous_args = 0
 2237              	.LVL223:
 2238 0000 30B5     		push	{r4, r5, lr}
 2239              		.cfi_def_cfa_offset 12
 2240              		.cfi_offset 4, -12
 2241              		.cfi_offset 5, -8
 2242              		.cfi_offset 14, -4
 2243 0002 094C     		ldr	r4, .L213
 2244 0004 83B0     		sub	sp, sp, #12
 2245              		.cfi_def_cfa_offset 24
 2246              		.loc 1 257 0
 2247 0006 2368     		ldr	r3, [r4]
 2248 0008 0193     		str	r3, [sp, #4]
 2249 000a 0546     		mov	r5, r0
 2250              		.loc 1 258 0
 2251 000c FFF7FEFF 		bl	_parameter_changed_clear
 2252              	.LVL224:
 2253              		.loc 1 259 0
 2254 0010 019A     		ldr	r2, [sp, #4]
 2255 0012 2368     		ldr	r3, [r4]
 2256 0014 9A42     		cmp	r2, r3
 2257 0016 05D1     		bne	.L212
 2258 0018 2846     		mov	r0, r5
 2259              		.loc 1 260 0
 2260 001a 03B0     		add	sp, sp, #12
 2261              		.cfi_remember_state
 2262              		.cfi_def_cfa_offset 12
 2263              		@ sp needed
 2264 001c BDE83040 		pop	{r4, r5, lr}
 2265              		.cfi_restore 14
 2266              		.cfi_restore 5
 2267              		.cfi_restore 4
 2268              		.cfi_def_cfa_offset 0
 2269              	.LVL225:
 2270              		.loc 1 259 0
 2271 0020 FFF7FEBF 		b	parameter_scalar_read
 2272              	.LVL226:
 2273              	.L212:
 2274              		.cfi_restore_state
 2275 0024 FFF7FEFF 		bl	__stack_chk_fail
 2276              	.LVL227:
 2277              	.L214:
 2278              		.align	2
 2279              	.L213:
 2280 0028 00000000 		.word	__stack_chk_guard
ARM GAS  C:\Users\pierr\AppData\Local\Temp\ccVvH5Vw.s 			page 41


 2281              		.cfi_endproc
 2282              	.LFE266:
 2283              		.size	parameter_scalar_get, .-parameter_scalar_get
 2284              		.section	.text.parameter_scalar_set,"ax",%progbits
 2285              		.align	1
 2286              		.p2align 4,,15
 2287              		.global	parameter_scalar_set
 2288              		.syntax unified
 2289              		.thumb
 2290              		.thumb_func
 2291              		.fpu fpv4-sp-d16
 2292              		.type	parameter_scalar_set, %function
 2293              	parameter_scalar_set:
 2294              	.LFB268:
 2295              		.loc 1 273 0
 2296              		.cfi_startproc
 2297              		@ args = 0, pretend = 0, frame = 8
 2298              		@ frame_needed = 0, uses_anonymous_args = 0
 2299              	.LVL228:
 2300 0000 30B5     		push	{r4, r5, lr}
 2301              		.cfi_def_cfa_offset 12
 2302              		.cfi_offset 4, -12
 2303              		.cfi_offset 5, -8
 2304              		.cfi_offset 14, -4
 2305 0002 2DED028B 		vpush.64	{d8}
 2306              		.cfi_def_cfa_offset 20
 2307              		.cfi_offset 80, -20
 2308              		.cfi_offset 81, -16
 2309 0006 1C4D     		ldr	r5, .L226
 2310              		.loc 1 274 0
 2311 0008 837B     		ldrb	r3, [r0, #14]	@ zero_extendqisi2
 2312              		.loc 1 273 0
 2313 000a 2A68     		ldr	r2, [r5]
 2314 000c 83B0     		sub	sp, sp, #12
 2315              		.cfi_def_cfa_offset 32
 2316              		.loc 1 274 0
 2317 000e 012B     		cmp	r3, #1
 2318              		.loc 1 273 0
 2319 0010 0446     		mov	r4, r0
 2320 0012 0192     		str	r2, [sp, #4]
 2321 0014 B0EE408A 		vmov.f32	s16, s0
 2322              		.loc 1 274 0
 2323 0018 02D0     		beq	.L216
 2324              		.loc 1 274 0 is_stmt 0 discriminator 2
 2325 001a 1848     		ldr	r0, .L226+4
 2326              	.LVL229:
 2327 001c FFF7FEFF 		bl	chSysHalt
 2328              	.LVL230:
 2329              	.L216:
 2330              	.LBB506:
 2331              	.LBB507:
 2332              	.LBB508:
 2333              	.LBB509:
 2334              	.LBB510:
 2335              		.loc 2 546 0 is_stmt 1
 2336 0020 2023     		movs	r3, #32
 2337              		.syntax unified
ARM GAS  C:\Users\pierr\AppData\Local\Temp\ccVvH5Vw.s 			page 42


 2338              	@ 546 "../../lib/e-puck2_main-processor/ChibiOS//os/ext/CMSIS/include/core_cmFunc.h" 1
 2339 0022 83F31188 		MSR basepri, r3
 2340              	@ 0 "" 2
 2341              	.LVL231:
 2342              		.thumb
 2343              		.syntax unified
 2344              	.LBE510:
 2345              	.LBE509:
 2346              	.LBE508:
 2347              		.loc 3 349 0
 2348 0026 FFF7FEFF 		bl	_stats_start_measure_crit_thd
 2349              	.LVL232:
 2350              		.loc 3 350 0
 2351 002a FFF7FEFF 		bl	_dbg_check_lock
 2352              	.LVL233:
 2353              	.LBE507:
 2354              	.LBE506:
 2355              		.loc 1 276 0
 2356 002e 84ED048A 		vstr.32	s16, [r4, #16]
 2357              	.LBB511:
 2358              	.LBB512:
 2359              		.loc 3 360 0
 2360 0032 FFF7FEFF 		bl	_dbg_check_unlock
 2361              	.LVL234:
 2362              		.loc 3 361 0
 2363 0036 FFF7FEFF 		bl	_stats_stop_measure_crit_thd
 2364              	.LVL235:
 2365              		.loc 3 367 0
 2366 003a 114B     		ldr	r3, .L226+8
 2367 003c 1A68     		ldr	r2, [r3]
 2368 003e 9A42     		cmp	r2, r3
 2369 0040 04D0     		beq	.L217
 2370 0042 9969     		ldr	r1, [r3, #24]
 2371 0044 9368     		ldr	r3, [r2, #8]
 2372 0046 8A68     		ldr	r2, [r1, #8]
 2373 0048 9A42     		cmp	r2, r3
 2374 004a 0ED3     		bcc	.L224
 2375              	.L217:
 2376              	.LVL236:
 2377              	.LBB513:
 2378              	.LBB514:
 2379              	.LBB515:
 2380              		.loc 2 546 0
 2381 004c 0023     		movs	r3, #0
 2382              		.syntax unified
 2383              	@ 546 "../../lib/e-puck2_main-processor/ChibiOS//os/ext/CMSIS/include/core_cmFunc.h" 1
 2384 004e 83F31188 		MSR basepri, r3
 2385              	@ 0 "" 2
 2386              	.LVL237:
 2387              		.thumb
 2388              		.syntax unified
 2389              	.LBE515:
 2390              	.LBE514:
 2391              	.LBE513:
 2392              	.LBE512:
 2393              	.LBE511:
 2394              		.loc 1 278 0
ARM GAS  C:\Users\pierr\AppData\Local\Temp\ccVvH5Vw.s 			page 43


 2395 0052 019A     		ldr	r2, [sp, #4]
 2396 0054 2B68     		ldr	r3, [r5]
 2397 0056 9A42     		cmp	r2, r3
 2398 0058 0BD1     		bne	.L225
 2399 005a 2046     		mov	r0, r4
 2400              		.loc 1 279 0
 2401 005c 03B0     		add	sp, sp, #12
 2402              		.cfi_remember_state
 2403              		.cfi_def_cfa_offset 20
 2404              		@ sp needed
 2405 005e BDEC028B 		vldm	sp!, {d8}
 2406              		.cfi_restore 80
 2407              		.cfi_restore 81
 2408              		.cfi_def_cfa_offset 12
 2409              	.LVL238:
 2410 0062 BDE83040 		pop	{r4, r5, lr}
 2411              		.cfi_restore 14
 2412              		.cfi_restore 5
 2413              		.cfi_restore 4
 2414              		.cfi_def_cfa_offset 0
 2415              	.LVL239:
 2416              		.loc 1 278 0
 2417 0066 FFF7FEBF 		b	_parameter_changed_set
 2418              	.LVL240:
 2419              	.L224:
 2420              		.cfi_restore_state
 2421              	.LBB517:
 2422              	.LBB516:
 2423              		.loc 3 367 0
 2424 006a 0648     		ldr	r0, .L226+12
 2425 006c FFF7FEFF 		bl	chSysHalt
 2426              	.LVL241:
 2427 0070 ECE7     		b	.L217
 2428              	.L225:
 2429              	.LBE516:
 2430              	.LBE517:
 2431              		.loc 1 278 0
 2432 0072 FFF7FEFF 		bl	__stack_chk_fail
 2433              	.LVL242:
 2434              	.L227:
 2435 0076 00BF     		.align	2
 2436              	.L226:
 2437 0078 00000000 		.word	__stack_chk_guard
 2438 007c 00000000 		.word	.LANCHOR2
 2439 0080 00000000 		.word	ch
 2440 0084 00000000 		.word	.LANCHOR0
 2441              		.cfi_endproc
 2442              	.LFE268:
 2443              		.size	parameter_scalar_set, .-parameter_scalar_set
 2444              		.section	.text.parameter_integer_declare,"ax",%progbits
 2445              		.align	1
 2446              		.p2align 4,,15
 2447              		.global	parameter_integer_declare
 2448              		.syntax unified
 2449              		.thumb
 2450              		.thumb_func
 2451              		.fpu fpv4-sp-d16
ARM GAS  C:\Users\pierr\AppData\Local\Temp\ccVvH5Vw.s 			page 44


 2452              		.type	parameter_integer_declare, %function
 2453              	parameter_integer_declare:
 2454              	.LFB269:
 2455              		.loc 1 288 0
 2456              		.cfi_startproc
 2457              		@ args = 0, pretend = 0, frame = 8
 2458              		@ frame_needed = 0, uses_anonymous_args = 0
 2459              	.LVL243:
 2460 0000 30B5     		push	{r4, r5, lr}
 2461              		.cfi_def_cfa_offset 12
 2462              		.cfi_offset 4, -12
 2463              		.cfi_offset 5, -8
 2464              		.cfi_offset 14, -4
 2465 0002 084B     		ldr	r3, .L233
 2466 0004 83B0     		sub	sp, sp, #12
 2467              		.cfi_def_cfa_offset 24
 2468              		.loc 1 288 0
 2469 0006 1C68     		ldr	r4, [r3]
 2470 0008 0194     		str	r4, [sp, #4]
 2471              		.loc 1 290 0
 2472 000a 019C     		ldr	r4, [sp, #4]
 2473 000c 1B68     		ldr	r3, [r3]
 2474              		.loc 1 289 0
 2475 000e 0325     		movs	r5, #3
 2476              		.loc 1 290 0
 2477 0010 9C42     		cmp	r4, r3
 2478              		.loc 1 289 0
 2479 0012 8573     		strb	r5, [r0, #14]
 2480              		.loc 1 290 0
 2481 0014 04D1     		bne	.L232
 2482              		.loc 1 291 0
 2483 0016 03B0     		add	sp, sp, #12
 2484              		.cfi_remember_state
 2485              		.cfi_def_cfa_offset 12
 2486              		@ sp needed
 2487 0018 BDE83040 		pop	{r4, r5, lr}
 2488              		.cfi_restore 14
 2489              		.cfi_restore 5
 2490              		.cfi_restore 4
 2491              		.cfi_def_cfa_offset 0
 2492              		.loc 1 290 0
 2493 001c FFF7FEBF 		b	_parameter_declare
 2494              	.LVL244:
 2495              	.L232:
 2496              		.cfi_restore_state
 2497 0020 FFF7FEFF 		bl	__stack_chk_fail
 2498              	.LVL245:
 2499              	.L234:
 2500              		.align	2
 2501              	.L233:
 2502 0024 00000000 		.word	__stack_chk_guard
 2503              		.cfi_endproc
 2504              	.LFE269:
 2505              		.size	parameter_integer_declare, .-parameter_integer_declare
 2506              		.section	.text.parameter_integer_declare_with_default,"ax",%progbits
 2507              		.align	1
 2508              		.p2align 4,,15
ARM GAS  C:\Users\pierr\AppData\Local\Temp\ccVvH5Vw.s 			page 45


 2509              		.global	parameter_integer_declare_with_default
 2510              		.syntax unified
 2511              		.thumb
 2512              		.thumb_func
 2513              		.fpu fpv4-sp-d16
 2514              		.type	parameter_integer_declare_with_default, %function
 2515              	parameter_integer_declare_with_default:
 2516              	.LFB270:
 2517              		.loc 1 297 0
 2518              		.cfi_startproc
 2519              		@ args = 0, pretend = 0, frame = 8
 2520              		@ frame_needed = 0, uses_anonymous_args = 0
 2521              	.LVL246:
 2522 0000 70B5     		push	{r4, r5, r6, lr}
 2523              		.cfi_def_cfa_offset 16
 2524              		.cfi_offset 4, -16
 2525              		.cfi_offset 5, -12
 2526              		.cfi_offset 6, -8
 2527              		.cfi_offset 14, -4
 2528 0002 0B4D     		ldr	r5, .L240
 2529              		.loc 1 298 0
 2530 0004 0361     		str	r3, [r0, #16]
 2531              		.loc 1 297 0
 2532 0006 82B0     		sub	sp, sp, #8
 2533              		.cfi_def_cfa_offset 24
 2534              		.loc 1 299 0
 2535 0008 0323     		movs	r3, #3
 2536              	.LVL247:
 2537              		.loc 1 297 0
 2538 000a 2E68     		ldr	r6, [r5]
 2539              		.loc 1 299 0
 2540 000c 8373     		strb	r3, [r0, #14]
 2541              		.loc 1 297 0
 2542 000e 0446     		mov	r4, r0
 2543 0010 0196     		str	r6, [sp, #4]
 2544              		.loc 1 300 0
 2545 0012 FFF7FEFF 		bl	_parameter_declare
 2546              	.LVL248:
 2547              		.loc 1 301 0
 2548 0016 019A     		ldr	r2, [sp, #4]
 2549 0018 2B68     		ldr	r3, [r5]
 2550 001a 9A42     		cmp	r2, r3
 2551 001c 05D1     		bne	.L239
 2552 001e 2046     		mov	r0, r4
 2553              		.loc 1 302 0
 2554 0020 02B0     		add	sp, sp, #8
 2555              		.cfi_remember_state
 2556              		.cfi_def_cfa_offset 16
 2557              		@ sp needed
 2558 0022 BDE87040 		pop	{r4, r5, r6, lr}
 2559              		.cfi_restore 14
 2560              		.cfi_restore 6
 2561              		.cfi_restore 5
 2562              		.cfi_restore 4
 2563              		.cfi_def_cfa_offset 0
 2564              	.LVL249:
 2565              		.loc 1 301 0
ARM GAS  C:\Users\pierr\AppData\Local\Temp\ccVvH5Vw.s 			page 46


 2566 0026 FFF7FEBF 		b	_parameter_changed_set
 2567              	.LVL250:
 2568              	.L239:
 2569              		.cfi_restore_state
 2570 002a FFF7FEFF 		bl	__stack_chk_fail
 2571              	.LVL251:
 2572              	.L241:
 2573 002e 00BF     		.align	2
 2574              	.L240:
 2575 0030 00000000 		.word	__stack_chk_guard
 2576              		.cfi_endproc
 2577              	.LFE270:
 2578              		.size	parameter_integer_declare_with_default, .-parameter_integer_declare_with_default
 2579              		.section	.text.parameter_integer_read,"ax",%progbits
 2580              		.align	1
 2581              		.p2align 4,,15
 2582              		.global	parameter_integer_read
 2583              		.syntax unified
 2584              		.thumb
 2585              		.thumb_func
 2586              		.fpu fpv4-sp-d16
 2587              		.type	parameter_integer_read, %function
 2588              	parameter_integer_read:
 2589              	.LFB272:
 2590              		.loc 1 311 0
 2591              		.cfi_startproc
 2592              		@ args = 0, pretend = 0, frame = 8
 2593              		@ frame_needed = 0, uses_anonymous_args = 0
 2594              	.LVL252:
 2595 0000 30B5     		push	{r4, r5, lr}
 2596              		.cfi_def_cfa_offset 12
 2597              		.cfi_offset 4, -12
 2598              		.cfi_offset 5, -8
 2599              		.cfi_offset 14, -4
 2600 0002 1A4D     		ldr	r5, .L253
 2601              		.loc 1 312 0
 2602 0004 837B     		ldrb	r3, [r0, #14]	@ zero_extendqisi2
 2603              		.loc 1 311 0
 2604 0006 2A68     		ldr	r2, [r5]
 2605 0008 83B0     		sub	sp, sp, #12
 2606              		.cfi_def_cfa_offset 24
 2607              		.loc 1 312 0
 2608 000a 032B     		cmp	r3, #3
 2609              		.loc 1 311 0
 2610 000c 0446     		mov	r4, r0
 2611 000e 0192     		str	r2, [sp, #4]
 2612              		.loc 1 312 0
 2613 0010 02D0     		beq	.L243
 2614              		.loc 1 312 0 is_stmt 0 discriminator 2
 2615 0012 1748     		ldr	r0, .L253+4
 2616              	.LVL253:
 2617 0014 FFF7FEFF 		bl	chSysHalt
 2618              	.LVL254:
 2619              	.L243:
 2620              	.LBB528:
 2621              	.LBB529:
 2622              	.LBB530:
ARM GAS  C:\Users\pierr\AppData\Local\Temp\ccVvH5Vw.s 			page 47


 2623              	.LBB531:
 2624              	.LBB532:
 2625              		.loc 2 546 0 is_stmt 1
 2626 0018 2023     		movs	r3, #32
 2627              		.syntax unified
 2628              	@ 546 "../../lib/e-puck2_main-processor/ChibiOS//os/ext/CMSIS/include/core_cmFunc.h" 1
 2629 001a 83F31188 		MSR basepri, r3
 2630              	@ 0 "" 2
 2631              	.LVL255:
 2632              		.thumb
 2633              		.syntax unified
 2634              	.LBE532:
 2635              	.LBE531:
 2636              	.LBE530:
 2637              		.loc 3 349 0
 2638 001e FFF7FEFF 		bl	_stats_start_measure_crit_thd
 2639              	.LVL256:
 2640              		.loc 3 350 0
 2641 0022 FFF7FEFF 		bl	_dbg_check_lock
 2642              	.LVL257:
 2643              	.LBE529:
 2644              	.LBE528:
 2645              		.loc 1 314 0
 2646 0026 637B     		ldrb	r3, [r4, #13]	@ zero_extendqisi2
 2647 0028 13B9     		cbnz	r3, .L244
 2648              		.loc 1 314 0 is_stmt 0 discriminator 2
 2649 002a 1148     		ldr	r0, .L253+4
 2650 002c FFF7FEFF 		bl	chSysHalt
 2651              	.LVL258:
 2652              	.L244:
 2653              		.loc 1 315 0 is_stmt 1
 2654 0030 2469     		ldr	r4, [r4, #16]
 2655              	.LVL259:
 2656              	.LBB533:
 2657              	.LBB534:
 2658              		.loc 3 360 0
 2659 0032 FFF7FEFF 		bl	_dbg_check_unlock
 2660              	.LVL260:
 2661              		.loc 3 361 0
 2662 0036 FFF7FEFF 		bl	_stats_stop_measure_crit_thd
 2663              	.LVL261:
 2664              		.loc 3 367 0
 2665 003a 0E4B     		ldr	r3, .L253+8
 2666 003c 1A68     		ldr	r2, [r3]
 2667 003e 9A42     		cmp	r2, r3
 2668 0040 04D0     		beq	.L245
 2669 0042 9969     		ldr	r1, [r3, #24]
 2670 0044 9368     		ldr	r3, [r2, #8]
 2671 0046 8A68     		ldr	r2, [r1, #8]
 2672 0048 9A42     		cmp	r2, r3
 2673 004a 09D3     		bcc	.L251
 2674              	.L245:
 2675              	.LVL262:
 2676              	.LBB535:
 2677              	.LBB536:
 2678              	.LBB537:
 2679              		.loc 2 546 0
ARM GAS  C:\Users\pierr\AppData\Local\Temp\ccVvH5Vw.s 			page 48


 2680 004c 0023     		movs	r3, #0
 2681              		.syntax unified
 2682              	@ 546 "../../lib/e-puck2_main-processor/ChibiOS//os/ext/CMSIS/include/core_cmFunc.h" 1
 2683 004e 83F31188 		MSR basepri, r3
 2684              	@ 0 "" 2
 2685              	.LVL263:
 2686              		.thumb
 2687              		.syntax unified
 2688              	.LBE537:
 2689              	.LBE536:
 2690              	.LBE535:
 2691              	.LBE534:
 2692              	.LBE533:
 2693              		.loc 1 318 0
 2694 0052 019A     		ldr	r2, [sp, #4]
 2695 0054 2B68     		ldr	r3, [r5]
 2696 0056 9A42     		cmp	r2, r3
 2697 0058 2046     		mov	r0, r4
 2698 005a 05D1     		bne	.L252
 2699              	.LVL264:
 2700 005c 03B0     		add	sp, sp, #12
 2701              		.cfi_remember_state
 2702              		.cfi_def_cfa_offset 12
 2703              		@ sp needed
 2704 005e 30BD     		pop	{r4, r5, pc}
 2705              	.LVL265:
 2706              	.L251:
 2707              		.cfi_restore_state
 2708              	.LBB539:
 2709              	.LBB538:
 2710              		.loc 3 367 0
 2711 0060 0548     		ldr	r0, .L253+12
 2712 0062 FFF7FEFF 		bl	chSysHalt
 2713              	.LVL266:
 2714 0066 F1E7     		b	.L245
 2715              	.LVL267:
 2716              	.L252:
 2717              	.LBE538:
 2718              	.LBE539:
 2719              		.loc 1 318 0
 2720 0068 FFF7FEFF 		bl	__stack_chk_fail
 2721              	.LVL268:
 2722              	.L254:
 2723              		.align	2
 2724              	.L253:
 2725 006c 00000000 		.word	__stack_chk_guard
 2726 0070 00000000 		.word	.LANCHOR3
 2727 0074 00000000 		.word	ch
 2728 0078 00000000 		.word	.LANCHOR0
 2729              		.cfi_endproc
 2730              	.LFE272:
 2731              		.size	parameter_integer_read, .-parameter_integer_read
 2732              		.section	.text.parameter_integer_get,"ax",%progbits
 2733              		.align	1
 2734              		.p2align 4,,15
 2735              		.global	parameter_integer_get
 2736              		.syntax unified
ARM GAS  C:\Users\pierr\AppData\Local\Temp\ccVvH5Vw.s 			page 49


 2737              		.thumb
 2738              		.thumb_func
 2739              		.fpu fpv4-sp-d16
 2740              		.type	parameter_integer_get, %function
 2741              	parameter_integer_get:
 2742              	.LFB271:
 2743              		.loc 1 305 0
 2744              		.cfi_startproc
 2745              		@ args = 0, pretend = 0, frame = 8
 2746              		@ frame_needed = 0, uses_anonymous_args = 0
 2747              	.LVL269:
 2748 0000 30B5     		push	{r4, r5, lr}
 2749              		.cfi_def_cfa_offset 12
 2750              		.cfi_offset 4, -12
 2751              		.cfi_offset 5, -8
 2752              		.cfi_offset 14, -4
 2753 0002 094C     		ldr	r4, .L260
 2754 0004 83B0     		sub	sp, sp, #12
 2755              		.cfi_def_cfa_offset 24
 2756              		.loc 1 305 0
 2757 0006 2368     		ldr	r3, [r4]
 2758 0008 0193     		str	r3, [sp, #4]
 2759 000a 0546     		mov	r5, r0
 2760              		.loc 1 306 0
 2761 000c FFF7FEFF 		bl	_parameter_changed_clear
 2762              	.LVL270:
 2763              		.loc 1 307 0
 2764 0010 019A     		ldr	r2, [sp, #4]
 2765 0012 2368     		ldr	r3, [r4]
 2766 0014 9A42     		cmp	r2, r3
 2767 0016 05D1     		bne	.L259
 2768 0018 2846     		mov	r0, r5
 2769              		.loc 1 308 0
 2770 001a 03B0     		add	sp, sp, #12
 2771              		.cfi_remember_state
 2772              		.cfi_def_cfa_offset 12
 2773              		@ sp needed
 2774 001c BDE83040 		pop	{r4, r5, lr}
 2775              		.cfi_restore 14
 2776              		.cfi_restore 5
 2777              		.cfi_restore 4
 2778              		.cfi_def_cfa_offset 0
 2779              	.LVL271:
 2780              		.loc 1 307 0
 2781 0020 FFF7FEBF 		b	parameter_integer_read
 2782              	.LVL272:
 2783              	.L259:
 2784              		.cfi_restore_state
 2785 0024 FFF7FEFF 		bl	__stack_chk_fail
 2786              	.LVL273:
 2787              	.L261:
 2788              		.align	2
 2789              	.L260:
 2790 0028 00000000 		.word	__stack_chk_guard
 2791              		.cfi_endproc
 2792              	.LFE271:
 2793              		.size	parameter_integer_get, .-parameter_integer_get
ARM GAS  C:\Users\pierr\AppData\Local\Temp\ccVvH5Vw.s 			page 50


 2794              		.section	.text.parameter_integer_set,"ax",%progbits
 2795              		.align	1
 2796              		.p2align 4,,15
 2797              		.global	parameter_integer_set
 2798              		.syntax unified
 2799              		.thumb
 2800              		.thumb_func
 2801              		.fpu fpv4-sp-d16
 2802              		.type	parameter_integer_set, %function
 2803              	parameter_integer_set:
 2804              	.LFB273:
 2805              		.loc 1 321 0
 2806              		.cfi_startproc
 2807              		@ args = 0, pretend = 0, frame = 8
 2808              		@ frame_needed = 0, uses_anonymous_args = 0
 2809              	.LVL274:
 2810 0000 70B5     		push	{r4, r5, r6, lr}
 2811              		.cfi_def_cfa_offset 16
 2812              		.cfi_offset 4, -16
 2813              		.cfi_offset 5, -12
 2814              		.cfi_offset 6, -8
 2815              		.cfi_offset 14, -4
 2816 0002 1A4D     		ldr	r5, .L273
 2817              		.loc 1 322 0
 2818 0004 837B     		ldrb	r3, [r0, #14]	@ zero_extendqisi2
 2819              		.loc 1 321 0
 2820 0006 2A68     		ldr	r2, [r5]
 2821 0008 82B0     		sub	sp, sp, #8
 2822              		.cfi_def_cfa_offset 24
 2823              		.loc 1 322 0
 2824 000a 032B     		cmp	r3, #3
 2825              		.loc 1 321 0
 2826 000c 0446     		mov	r4, r0
 2827 000e 0192     		str	r2, [sp, #4]
 2828 0010 0E46     		mov	r6, r1
 2829              		.loc 1 322 0
 2830 0012 02D0     		beq	.L263
 2831              		.loc 1 322 0 is_stmt 0 discriminator 2
 2832 0014 1648     		ldr	r0, .L273+4
 2833              	.LVL275:
 2834 0016 FFF7FEFF 		bl	chSysHalt
 2835              	.LVL276:
 2836              	.L263:
 2837              	.LBB550:
 2838              	.LBB551:
 2839              	.LBB552:
 2840              	.LBB553:
 2841              	.LBB554:
 2842              		.loc 2 546 0 is_stmt 1
 2843 001a 2023     		movs	r3, #32
 2844              		.syntax unified
 2845              	@ 546 "../../lib/e-puck2_main-processor/ChibiOS//os/ext/CMSIS/include/core_cmFunc.h" 1
 2846 001c 83F31188 		MSR basepri, r3
 2847              	@ 0 "" 2
 2848              	.LVL277:
 2849              		.thumb
 2850              		.syntax unified
ARM GAS  C:\Users\pierr\AppData\Local\Temp\ccVvH5Vw.s 			page 51


 2851              	.LBE554:
 2852              	.LBE553:
 2853              	.LBE552:
 2854              		.loc 3 349 0
 2855 0020 FFF7FEFF 		bl	_stats_start_measure_crit_thd
 2856              	.LVL278:
 2857              		.loc 3 350 0
 2858 0024 FFF7FEFF 		bl	_dbg_check_lock
 2859              	.LVL279:
 2860              	.LBE551:
 2861              	.LBE550:
 2862              		.loc 1 324 0
 2863 0028 2661     		str	r6, [r4, #16]
 2864              	.LBB555:
 2865              	.LBB556:
 2866              		.loc 3 360 0
 2867 002a FFF7FEFF 		bl	_dbg_check_unlock
 2868              	.LVL280:
 2869              		.loc 3 361 0
 2870 002e FFF7FEFF 		bl	_stats_stop_measure_crit_thd
 2871              	.LVL281:
 2872              		.loc 3 367 0
 2873 0032 104B     		ldr	r3, .L273+8
 2874 0034 1A68     		ldr	r2, [r3]
 2875 0036 9A42     		cmp	r2, r3
 2876 0038 04D0     		beq	.L264
 2877 003a 9969     		ldr	r1, [r3, #24]
 2878 003c 9368     		ldr	r3, [r2, #8]
 2879 003e 8A68     		ldr	r2, [r1, #8]
 2880 0040 9A42     		cmp	r2, r3
 2881 0042 0CD3     		bcc	.L271
 2882              	.L264:
 2883              	.LVL282:
 2884              	.LBB557:
 2885              	.LBB558:
 2886              	.LBB559:
 2887              		.loc 2 546 0
 2888 0044 0023     		movs	r3, #0
 2889              		.syntax unified
 2890              	@ 546 "../../lib/e-puck2_main-processor/ChibiOS//os/ext/CMSIS/include/core_cmFunc.h" 1
 2891 0046 83F31188 		MSR basepri, r3
 2892              	@ 0 "" 2
 2893              	.LVL283:
 2894              		.thumb
 2895              		.syntax unified
 2896              	.LBE559:
 2897              	.LBE558:
 2898              	.LBE557:
 2899              	.LBE556:
 2900              	.LBE555:
 2901              		.loc 1 326 0
 2902 004a 019A     		ldr	r2, [sp, #4]
 2903 004c 2B68     		ldr	r3, [r5]
 2904 004e 9A42     		cmp	r2, r3
 2905 0050 09D1     		bne	.L272
 2906 0052 2046     		mov	r0, r4
 2907              		.loc 1 327 0
ARM GAS  C:\Users\pierr\AppData\Local\Temp\ccVvH5Vw.s 			page 52


 2908 0054 02B0     		add	sp, sp, #8
 2909              		.cfi_remember_state
 2910              		.cfi_def_cfa_offset 16
 2911              		@ sp needed
 2912 0056 BDE87040 		pop	{r4, r5, r6, lr}
 2913              		.cfi_restore 14
 2914              		.cfi_restore 6
 2915              		.cfi_restore 5
 2916              		.cfi_restore 4
 2917              		.cfi_def_cfa_offset 0
 2918              	.LVL284:
 2919              		.loc 1 326 0
 2920 005a FFF7FEBF 		b	_parameter_changed_set
 2921              	.LVL285:
 2922              	.L271:
 2923              		.cfi_restore_state
 2924              	.LBB561:
 2925              	.LBB560:
 2926              		.loc 3 367 0
 2927 005e 0648     		ldr	r0, .L273+12
 2928 0060 FFF7FEFF 		bl	chSysHalt
 2929              	.LVL286:
 2930 0064 EEE7     		b	.L264
 2931              	.L272:
 2932              	.LBE560:
 2933              	.LBE561:
 2934              		.loc 1 326 0
 2935 0066 FFF7FEFF 		bl	__stack_chk_fail
 2936              	.LVL287:
 2937              	.L274:
 2938 006a 00BF     		.align	2
 2939              	.L273:
 2940 006c 00000000 		.word	__stack_chk_guard
 2941 0070 00000000 		.word	.LANCHOR4
 2942 0074 00000000 		.word	ch
 2943 0078 00000000 		.word	.LANCHOR0
 2944              		.cfi_endproc
 2945              	.LFE273:
 2946              		.size	parameter_integer_set, .-parameter_integer_set
 2947              		.section	.text.parameter_boolean_declare,"ax",%progbits
 2948              		.align	1
 2949              		.p2align 4,,15
 2950              		.global	parameter_boolean_declare
 2951              		.syntax unified
 2952              		.thumb
 2953              		.thumb_func
 2954              		.fpu fpv4-sp-d16
 2955              		.type	parameter_boolean_declare, %function
 2956              	parameter_boolean_declare:
 2957              	.LFB274:
 2958              		.loc 1 332 0
 2959              		.cfi_startproc
 2960              		@ args = 0, pretend = 0, frame = 8
 2961              		@ frame_needed = 0, uses_anonymous_args = 0
 2962              	.LVL288:
 2963 0000 30B5     		push	{r4, r5, lr}
 2964              		.cfi_def_cfa_offset 12
ARM GAS  C:\Users\pierr\AppData\Local\Temp\ccVvH5Vw.s 			page 53


 2965              		.cfi_offset 4, -12
 2966              		.cfi_offset 5, -8
 2967              		.cfi_offset 14, -4
 2968 0002 084B     		ldr	r3, .L280
 2969 0004 83B0     		sub	sp, sp, #12
 2970              		.cfi_def_cfa_offset 24
 2971              		.loc 1 332 0
 2972 0006 1C68     		ldr	r4, [r3]
 2973 0008 0194     		str	r4, [sp, #4]
 2974              		.loc 1 334 0
 2975 000a 019C     		ldr	r4, [sp, #4]
 2976 000c 1B68     		ldr	r3, [r3]
 2977              		.loc 1 333 0
 2978 000e 0225     		movs	r5, #2
 2979              		.loc 1 334 0
 2980 0010 9C42     		cmp	r4, r3
 2981              		.loc 1 333 0
 2982 0012 8573     		strb	r5, [r0, #14]
 2983              		.loc 1 334 0
 2984 0014 04D1     		bne	.L279
 2985              		.loc 1 335 0
 2986 0016 03B0     		add	sp, sp, #12
 2987              		.cfi_remember_state
 2988              		.cfi_def_cfa_offset 12
 2989              		@ sp needed
 2990 0018 BDE83040 		pop	{r4, r5, lr}
 2991              		.cfi_restore 14
 2992              		.cfi_restore 5
 2993              		.cfi_restore 4
 2994              		.cfi_def_cfa_offset 0
 2995              		.loc 1 334 0
 2996 001c FFF7FEBF 		b	_parameter_declare
 2997              	.LVL289:
 2998              	.L279:
 2999              		.cfi_restore_state
 3000 0020 FFF7FEFF 		bl	__stack_chk_fail
 3001              	.LVL290:
 3002              	.L281:
 3003              		.align	2
 3004              	.L280:
 3005 0024 00000000 		.word	__stack_chk_guard
 3006              		.cfi_endproc
 3007              	.LFE274:
 3008              		.size	parameter_boolean_declare, .-parameter_boolean_declare
 3009              		.section	.text.parameter_boolean_declare_with_default,"ax",%progbits
 3010              		.align	1
 3011              		.p2align 4,,15
 3012              		.global	parameter_boolean_declare_with_default
 3013              		.syntax unified
 3014              		.thumb
 3015              		.thumb_func
 3016              		.fpu fpv4-sp-d16
 3017              		.type	parameter_boolean_declare_with_default, %function
 3018              	parameter_boolean_declare_with_default:
 3019              	.LFB275:
 3020              		.loc 1 341 0
 3021              		.cfi_startproc
ARM GAS  C:\Users\pierr\AppData\Local\Temp\ccVvH5Vw.s 			page 54


 3022              		@ args = 0, pretend = 0, frame = 8
 3023              		@ frame_needed = 0, uses_anonymous_args = 0
 3024              	.LVL291:
 3025 0000 70B5     		push	{r4, r5, r6, lr}
 3026              		.cfi_def_cfa_offset 16
 3027              		.cfi_offset 4, -16
 3028              		.cfi_offset 5, -12
 3029              		.cfi_offset 6, -8
 3030              		.cfi_offset 14, -4
 3031 0002 0B4D     		ldr	r5, .L287
 3032              		.loc 1 342 0
 3033 0004 0374     		strb	r3, [r0, #16]
 3034              		.loc 1 341 0
 3035 0006 82B0     		sub	sp, sp, #8
 3036              		.cfi_def_cfa_offset 24
 3037              		.loc 1 343 0
 3038 0008 0223     		movs	r3, #2
 3039              	.LVL292:
 3040              		.loc 1 341 0
 3041 000a 2E68     		ldr	r6, [r5]
 3042              		.loc 1 343 0
 3043 000c 8373     		strb	r3, [r0, #14]
 3044              		.loc 1 341 0
 3045 000e 0446     		mov	r4, r0
 3046 0010 0196     		str	r6, [sp, #4]
 3047              		.loc 1 344 0
 3048 0012 FFF7FEFF 		bl	_parameter_declare
 3049              	.LVL293:
 3050              		.loc 1 345 0
 3051 0016 019A     		ldr	r2, [sp, #4]
 3052 0018 2B68     		ldr	r3, [r5]
 3053 001a 9A42     		cmp	r2, r3
 3054 001c 05D1     		bne	.L286
 3055 001e 2046     		mov	r0, r4
 3056              		.loc 1 346 0
 3057 0020 02B0     		add	sp, sp, #8
 3058              		.cfi_remember_state
 3059              		.cfi_def_cfa_offset 16
 3060              		@ sp needed
 3061 0022 BDE87040 		pop	{r4, r5, r6, lr}
 3062              		.cfi_restore 14
 3063              		.cfi_restore 6
 3064              		.cfi_restore 5
 3065              		.cfi_restore 4
 3066              		.cfi_def_cfa_offset 0
 3067              	.LVL294:
 3068              		.loc 1 345 0
 3069 0026 FFF7FEBF 		b	_parameter_changed_set
 3070              	.LVL295:
 3071              	.L286:
 3072              		.cfi_restore_state
 3073 002a FFF7FEFF 		bl	__stack_chk_fail
 3074              	.LVL296:
 3075              	.L288:
 3076 002e 00BF     		.align	2
 3077              	.L287:
 3078 0030 00000000 		.word	__stack_chk_guard
ARM GAS  C:\Users\pierr\AppData\Local\Temp\ccVvH5Vw.s 			page 55


 3079              		.cfi_endproc
 3080              	.LFE275:
 3081              		.size	parameter_boolean_declare_with_default, .-parameter_boolean_declare_with_default
 3082              		.section	.text.parameter_boolean_set,"ax",%progbits
 3083              		.align	1
 3084              		.p2align 4,,15
 3085              		.global	parameter_boolean_set
 3086              		.syntax unified
 3087              		.thumb
 3088              		.thumb_func
 3089              		.fpu fpv4-sp-d16
 3090              		.type	parameter_boolean_set, %function
 3091              	parameter_boolean_set:
 3092              	.LFB276:
 3093              		.loc 1 349 0
 3094              		.cfi_startproc
 3095              		@ args = 0, pretend = 0, frame = 8
 3096              		@ frame_needed = 0, uses_anonymous_args = 0
 3097              	.LVL297:
 3098 0000 70B5     		push	{r4, r5, r6, lr}
 3099              		.cfi_def_cfa_offset 16
 3100              		.cfi_offset 4, -16
 3101              		.cfi_offset 5, -12
 3102              		.cfi_offset 6, -8
 3103              		.cfi_offset 14, -4
 3104 0002 1A4D     		ldr	r5, .L300
 3105              		.loc 1 350 0
 3106 0004 837B     		ldrb	r3, [r0, #14]	@ zero_extendqisi2
 3107              		.loc 1 349 0
 3108 0006 2A68     		ldr	r2, [r5]
 3109 0008 82B0     		sub	sp, sp, #8
 3110              		.cfi_def_cfa_offset 24
 3111              		.loc 1 350 0
 3112 000a 022B     		cmp	r3, #2
 3113              		.loc 1 349 0
 3114 000c 0446     		mov	r4, r0
 3115 000e 0192     		str	r2, [sp, #4]
 3116 0010 0E46     		mov	r6, r1
 3117              		.loc 1 350 0
 3118 0012 02D0     		beq	.L290
 3119              		.loc 1 350 0 is_stmt 0 discriminator 2
 3120 0014 1648     		ldr	r0, .L300+4
 3121              	.LVL298:
 3122 0016 FFF7FEFF 		bl	chSysHalt
 3123              	.LVL299:
 3124              	.L290:
 3125              	.LBB572:
 3126              	.LBB573:
 3127              	.LBB574:
 3128              	.LBB575:
 3129              	.LBB576:
 3130              		.loc 2 546 0 is_stmt 1
 3131 001a 2023     		movs	r3, #32
 3132              		.syntax unified
 3133              	@ 546 "../../lib/e-puck2_main-processor/ChibiOS//os/ext/CMSIS/include/core_cmFunc.h" 1
 3134 001c 83F31188 		MSR basepri, r3
 3135              	@ 0 "" 2
ARM GAS  C:\Users\pierr\AppData\Local\Temp\ccVvH5Vw.s 			page 56


 3136              	.LVL300:
 3137              		.thumb
 3138              		.syntax unified
 3139              	.LBE576:
 3140              	.LBE575:
 3141              	.LBE574:
 3142              		.loc 3 349 0
 3143 0020 FFF7FEFF 		bl	_stats_start_measure_crit_thd
 3144              	.LVL301:
 3145              		.loc 3 350 0
 3146 0024 FFF7FEFF 		bl	_dbg_check_lock
 3147              	.LVL302:
 3148              	.LBE573:
 3149              	.LBE572:
 3150              		.loc 1 353 0
 3151 0028 2674     		strb	r6, [r4, #16]
 3152              	.LBB577:
 3153              	.LBB578:
 3154              		.loc 3 360 0
 3155 002a FFF7FEFF 		bl	_dbg_check_unlock
 3156              	.LVL303:
 3157              		.loc 3 361 0
 3158 002e FFF7FEFF 		bl	_stats_stop_measure_crit_thd
 3159              	.LVL304:
 3160              		.loc 3 367 0
 3161 0032 104B     		ldr	r3, .L300+8
 3162 0034 1A68     		ldr	r2, [r3]
 3163 0036 9A42     		cmp	r2, r3
 3164 0038 04D0     		beq	.L291
 3165 003a 9969     		ldr	r1, [r3, #24]
 3166 003c 9368     		ldr	r3, [r2, #8]
 3167 003e 8A68     		ldr	r2, [r1, #8]
 3168 0040 9A42     		cmp	r2, r3
 3169 0042 0CD3     		bcc	.L298
 3170              	.L291:
 3171              	.LVL305:
 3172              	.LBB579:
 3173              	.LBB580:
 3174              	.LBB581:
 3175              		.loc 2 546 0
 3176 0044 0023     		movs	r3, #0
 3177              		.syntax unified
 3178              	@ 546 "../../lib/e-puck2_main-processor/ChibiOS//os/ext/CMSIS/include/core_cmFunc.h" 1
 3179 0046 83F31188 		MSR basepri, r3
 3180              	@ 0 "" 2
 3181              	.LVL306:
 3182              		.thumb
 3183              		.syntax unified
 3184              	.LBE581:
 3185              	.LBE580:
 3186              	.LBE579:
 3187              	.LBE578:
 3188              	.LBE577:
 3189              		.loc 1 355 0
 3190 004a 019A     		ldr	r2, [sp, #4]
 3191 004c 2B68     		ldr	r3, [r5]
 3192 004e 9A42     		cmp	r2, r3
ARM GAS  C:\Users\pierr\AppData\Local\Temp\ccVvH5Vw.s 			page 57


 3193 0050 09D1     		bne	.L299
 3194 0052 2046     		mov	r0, r4
 3195              		.loc 1 356 0
 3196 0054 02B0     		add	sp, sp, #8
 3197              		.cfi_remember_state
 3198              		.cfi_def_cfa_offset 16
 3199              		@ sp needed
 3200 0056 BDE87040 		pop	{r4, r5, r6, lr}
 3201              		.cfi_restore 14
 3202              		.cfi_restore 6
 3203              		.cfi_restore 5
 3204              		.cfi_restore 4
 3205              		.cfi_def_cfa_offset 0
 3206              	.LVL307:
 3207              		.loc 1 355 0
 3208 005a FFF7FEBF 		b	_parameter_changed_set
 3209              	.LVL308:
 3210              	.L298:
 3211              		.cfi_restore_state
 3212              	.LBB583:
 3213              	.LBB582:
 3214              		.loc 3 367 0
 3215 005e 0648     		ldr	r0, .L300+12
 3216 0060 FFF7FEFF 		bl	chSysHalt
 3217              	.LVL309:
 3218 0064 EEE7     		b	.L291
 3219              	.L299:
 3220              	.LBE582:
 3221              	.LBE583:
 3222              		.loc 1 355 0
 3223 0066 FFF7FEFF 		bl	__stack_chk_fail
 3224              	.LVL310:
 3225              	.L301:
 3226 006a 00BF     		.align	2
 3227              	.L300:
 3228 006c 00000000 		.word	__stack_chk_guard
 3229 0070 00000000 		.word	.LANCHOR5
 3230 0074 00000000 		.word	ch
 3231 0078 00000000 		.word	.LANCHOR0
 3232              		.cfi_endproc
 3233              	.LFE276:
 3234              		.size	parameter_boolean_set, .-parameter_boolean_set
 3235              		.section	.text.parameter_boolean_read,"ax",%progbits
 3236              		.align	1
 3237              		.p2align 4,,15
 3238              		.global	parameter_boolean_read
 3239              		.syntax unified
 3240              		.thumb
 3241              		.thumb_func
 3242              		.fpu fpv4-sp-d16
 3243              		.type	parameter_boolean_read, %function
 3244              	parameter_boolean_read:
 3245              	.LFB278:
 3246              		.loc 1 365 0
 3247              		.cfi_startproc
 3248              		@ args = 0, pretend = 0, frame = 8
 3249              		@ frame_needed = 0, uses_anonymous_args = 0
ARM GAS  C:\Users\pierr\AppData\Local\Temp\ccVvH5Vw.s 			page 58


 3250              	.LVL311:
 3251 0000 30B5     		push	{r4, r5, lr}
 3252              		.cfi_def_cfa_offset 12
 3253              		.cfi_offset 4, -12
 3254              		.cfi_offset 5, -8
 3255              		.cfi_offset 14, -4
 3256 0002 1A4D     		ldr	r5, .L313
 3257              		.loc 1 366 0
 3258 0004 837B     		ldrb	r3, [r0, #14]	@ zero_extendqisi2
 3259              		.loc 1 365 0
 3260 0006 2A68     		ldr	r2, [r5]
 3261 0008 83B0     		sub	sp, sp, #12
 3262              		.cfi_def_cfa_offset 24
 3263              		.loc 1 366 0
 3264 000a 022B     		cmp	r3, #2
 3265              		.loc 1 365 0
 3266 000c 0446     		mov	r4, r0
 3267 000e 0192     		str	r2, [sp, #4]
 3268              		.loc 1 366 0
 3269 0010 02D0     		beq	.L303
 3270              		.loc 1 366 0 is_stmt 0 discriminator 2
 3271 0012 1748     		ldr	r0, .L313+4
 3272              	.LVL312:
 3273 0014 FFF7FEFF 		bl	chSysHalt
 3274              	.LVL313:
 3275              	.L303:
 3276              	.LBB594:
 3277              	.LBB595:
 3278              	.LBB596:
 3279              	.LBB597:
 3280              	.LBB598:
 3281              		.loc 2 546 0 is_stmt 1
 3282 0018 2023     		movs	r3, #32
 3283              		.syntax unified
 3284              	@ 546 "../../lib/e-puck2_main-processor/ChibiOS//os/ext/CMSIS/include/core_cmFunc.h" 1
 3285 001a 83F31188 		MSR basepri, r3
 3286              	@ 0 "" 2
 3287              	.LVL314:
 3288              		.thumb
 3289              		.syntax unified
 3290              	.LBE598:
 3291              	.LBE597:
 3292              	.LBE596:
 3293              		.loc 3 349 0
 3294 001e FFF7FEFF 		bl	_stats_start_measure_crit_thd
 3295              	.LVL315:
 3296              		.loc 3 350 0
 3297 0022 FFF7FEFF 		bl	_dbg_check_lock
 3298              	.LVL316:
 3299              	.LBE595:
 3300              	.LBE594:
 3301              		.loc 1 368 0
 3302 0026 637B     		ldrb	r3, [r4, #13]	@ zero_extendqisi2
 3303 0028 13B9     		cbnz	r3, .L304
 3304              		.loc 1 368 0 is_stmt 0 discriminator 2
 3305 002a 1148     		ldr	r0, .L313+4
 3306 002c FFF7FEFF 		bl	chSysHalt
ARM GAS  C:\Users\pierr\AppData\Local\Temp\ccVvH5Vw.s 			page 59


 3307              	.LVL317:
 3308              	.L304:
 3309              		.loc 1 369 0 is_stmt 1
 3310 0030 247C     		ldrb	r4, [r4, #16]	@ zero_extendqisi2
 3311              	.LVL318:
 3312              	.LBB599:
 3313              	.LBB600:
 3314              		.loc 3 360 0
 3315 0032 FFF7FEFF 		bl	_dbg_check_unlock
 3316              	.LVL319:
 3317              		.loc 3 361 0
 3318 0036 FFF7FEFF 		bl	_stats_stop_measure_crit_thd
 3319              	.LVL320:
 3320              		.loc 3 367 0
 3321 003a 0E4B     		ldr	r3, .L313+8
 3322 003c 1A68     		ldr	r2, [r3]
 3323 003e 9A42     		cmp	r2, r3
 3324 0040 04D0     		beq	.L305
 3325 0042 9969     		ldr	r1, [r3, #24]
 3326 0044 9368     		ldr	r3, [r2, #8]
 3327 0046 8A68     		ldr	r2, [r1, #8]
 3328 0048 9A42     		cmp	r2, r3
 3329 004a 09D3     		bcc	.L311
 3330              	.L305:
 3331              	.LVL321:
 3332              	.LBB601:
 3333              	.LBB602:
 3334              	.LBB603:
 3335              		.loc 2 546 0
 3336 004c 0023     		movs	r3, #0
 3337              		.syntax unified
 3338              	@ 546 "../../lib/e-puck2_main-processor/ChibiOS//os/ext/CMSIS/include/core_cmFunc.h" 1
 3339 004e 83F31188 		MSR basepri, r3
 3340              	@ 0 "" 2
 3341              	.LVL322:
 3342              		.thumb
 3343              		.syntax unified
 3344              	.LBE603:
 3345              	.LBE602:
 3346              	.LBE601:
 3347              	.LBE600:
 3348              	.LBE599:
 3349              		.loc 1 372 0
 3350 0052 019A     		ldr	r2, [sp, #4]
 3351 0054 2B68     		ldr	r3, [r5]
 3352 0056 9A42     		cmp	r2, r3
 3353 0058 2046     		mov	r0, r4
 3354 005a 05D1     		bne	.L312
 3355 005c 03B0     		add	sp, sp, #12
 3356              		.cfi_remember_state
 3357              		.cfi_def_cfa_offset 12
 3358              		@ sp needed
 3359 005e 30BD     		pop	{r4, r5, pc}
 3360              	.LVL323:
 3361              	.L311:
 3362              		.cfi_restore_state
 3363              	.LBB605:
ARM GAS  C:\Users\pierr\AppData\Local\Temp\ccVvH5Vw.s 			page 60


 3364              	.LBB604:
 3365              		.loc 3 367 0
 3366 0060 0548     		ldr	r0, .L313+12
 3367 0062 FFF7FEFF 		bl	chSysHalt
 3368              	.LVL324:
 3369 0066 F1E7     		b	.L305
 3370              	.L312:
 3371              	.LBE604:
 3372              	.LBE605:
 3373              		.loc 1 372 0
 3374 0068 FFF7FEFF 		bl	__stack_chk_fail
 3375              	.LVL325:
 3376              	.L314:
 3377              		.align	2
 3378              	.L313:
 3379 006c 00000000 		.word	__stack_chk_guard
 3380 0070 00000000 		.word	.LANCHOR6
 3381 0074 00000000 		.word	ch
 3382 0078 00000000 		.word	.LANCHOR0
 3383              		.cfi_endproc
 3384              	.LFE278:
 3385              		.size	parameter_boolean_read, .-parameter_boolean_read
 3386              		.section	.text.parameter_boolean_get,"ax",%progbits
 3387              		.align	1
 3388              		.p2align 4,,15
 3389              		.global	parameter_boolean_get
 3390              		.syntax unified
 3391              		.thumb
 3392              		.thumb_func
 3393              		.fpu fpv4-sp-d16
 3394              		.type	parameter_boolean_get, %function
 3395              	parameter_boolean_get:
 3396              	.LFB277:
 3397              		.loc 1 359 0
 3398              		.cfi_startproc
 3399              		@ args = 0, pretend = 0, frame = 8
 3400              		@ frame_needed = 0, uses_anonymous_args = 0
 3401              	.LVL326:
 3402 0000 30B5     		push	{r4, r5, lr}
 3403              		.cfi_def_cfa_offset 12
 3404              		.cfi_offset 4, -12
 3405              		.cfi_offset 5, -8
 3406              		.cfi_offset 14, -4
 3407 0002 094C     		ldr	r4, .L320
 3408 0004 83B0     		sub	sp, sp, #12
 3409              		.cfi_def_cfa_offset 24
 3410              		.loc 1 359 0
 3411 0006 2368     		ldr	r3, [r4]
 3412 0008 0193     		str	r3, [sp, #4]
 3413 000a 0546     		mov	r5, r0
 3414              		.loc 1 360 0
 3415 000c FFF7FEFF 		bl	_parameter_changed_clear
 3416              	.LVL327:
 3417              		.loc 1 361 0
 3418 0010 019A     		ldr	r2, [sp, #4]
 3419 0012 2368     		ldr	r3, [r4]
 3420 0014 9A42     		cmp	r2, r3
ARM GAS  C:\Users\pierr\AppData\Local\Temp\ccVvH5Vw.s 			page 61


 3421 0016 05D1     		bne	.L319
 3422 0018 2846     		mov	r0, r5
 3423              		.loc 1 362 0
 3424 001a 03B0     		add	sp, sp, #12
 3425              		.cfi_remember_state
 3426              		.cfi_def_cfa_offset 12
 3427              		@ sp needed
 3428 001c BDE83040 		pop	{r4, r5, lr}
 3429              		.cfi_restore 14
 3430              		.cfi_restore 5
 3431              		.cfi_restore 4
 3432              		.cfi_def_cfa_offset 0
 3433              	.LVL328:
 3434              		.loc 1 361 0
 3435 0020 FFF7FEBF 		b	parameter_boolean_read
 3436              	.LVL329:
 3437              	.L319:
 3438              		.cfi_restore_state
 3439 0024 FFF7FEFF 		bl	__stack_chk_fail
 3440              	.LVL330:
 3441              	.L321:
 3442              		.align	2
 3443              	.L320:
 3444 0028 00000000 		.word	__stack_chk_guard
 3445              		.cfi_endproc
 3446              	.LFE277:
 3447              		.size	parameter_boolean_get, .-parameter_boolean_get
 3448              		.section	.text.parameter_vector_declare,"ax",%progbits
 3449              		.align	1
 3450              		.p2align 4,,15
 3451              		.global	parameter_vector_declare
 3452              		.syntax unified
 3453              		.thumb
 3454              		.thumb_func
 3455              		.fpu fpv4-sp-d16
 3456              		.type	parameter_vector_declare, %function
 3457              	parameter_vector_declare:
 3458              	.LFB279:
 3459              		.loc 1 381 0
 3460              		.cfi_startproc
 3461              		@ args = 4, pretend = 0, frame = 8
 3462              		@ frame_needed = 0, uses_anonymous_args = 0
 3463              	.LVL331:
 3464 0000 F0B5     		push	{r4, r5, r6, r7, lr}
 3465              		.cfi_def_cfa_offset 20
 3466              		.cfi_offset 4, -20
 3467              		.cfi_offset 5, -16
 3468              		.cfi_offset 6, -12
 3469              		.cfi_offset 7, -8
 3470              		.cfi_offset 14, -4
 3471 0002 0B4C     		ldr	r4, .L327
 3472              		.loc 1 383 0
 3473 0004 0361     		str	r3, [r0, #16]
 3474              		.loc 1 381 0
 3475 0006 83B0     		sub	sp, sp, #12
 3476              		.cfi_def_cfa_offset 32
 3477              		.loc 1 381 0
ARM GAS  C:\Users\pierr\AppData\Local\Temp\ccVvH5Vw.s 			page 62


 3478 0008 2568     		ldr	r5, [r4]
 3479 000a 0195     		str	r5, [sp, #4]
 3480              		.loc 1 385 0
 3481 000c 019E     		ldr	r6, [sp, #4]
 3482 000e 2568     		ldr	r5, [r4]
 3483              		.loc 1 381 0
 3484 0010 BDF82070 		ldrh	r7, [sp, #32]
 3485              		.loc 1 384 0
 3486 0014 C782     		strh	r7, [r0, #22]	@ movhi
 3487              		.loc 1 382 0
 3488 0016 4FF0050C 		mov	ip, #5
 3489              		.loc 1 385 0
 3490 001a AE42     		cmp	r6, r5
 3491              		.loc 1 382 0
 3492 001c 80F80EC0 		strb	ip, [r0, #14]
 3493              		.loc 1 385 0
 3494 0020 04D1     		bne	.L326
 3495              		.loc 1 386 0
 3496 0022 03B0     		add	sp, sp, #12
 3497              		.cfi_remember_state
 3498              		.cfi_def_cfa_offset 20
 3499              		@ sp needed
 3500 0024 BDE8F040 		pop	{r4, r5, r6, r7, lr}
 3501              		.cfi_restore 14
 3502              		.cfi_restore 7
 3503              		.cfi_restore 6
 3504              		.cfi_restore 5
 3505              		.cfi_restore 4
 3506              		.cfi_def_cfa_offset 0
 3507              	.LVL332:
 3508              		.loc 1 385 0
 3509 0028 FFF7FEBF 		b	_parameter_declare
 3510              	.LVL333:
 3511              	.L326:
 3512              		.cfi_restore_state
 3513 002c FFF7FEFF 		bl	__stack_chk_fail
 3514              	.LVL334:
 3515              	.L328:
 3516              		.align	2
 3517              	.L327:
 3518 0030 00000000 		.word	__stack_chk_guard
 3519              		.cfi_endproc
 3520              	.LFE279:
 3521              		.size	parameter_vector_declare, .-parameter_vector_declare
 3522              		.section	.text.parameter_vector_declare_with_default,"ax",%progbits
 3523              		.align	1
 3524              		.p2align 4,,15
 3525              		.global	parameter_vector_declare_with_default
 3526              		.syntax unified
 3527              		.thumb
 3528              		.thumb_func
 3529              		.fpu fpv4-sp-d16
 3530              		.type	parameter_vector_declare_with_default, %function
 3531              	parameter_vector_declare_with_default:
 3532              	.LFB280:
 3533              		.loc 1 393 0
 3534              		.cfi_startproc
ARM GAS  C:\Users\pierr\AppData\Local\Temp\ccVvH5Vw.s 			page 63


 3535              		@ args = 4, pretend = 0, frame = 8
 3536              		@ frame_needed = 0, uses_anonymous_args = 0
 3537              	.LVL335:
 3538 0000 F0B5     		push	{r4, r5, r6, r7, lr}
 3539              		.cfi_def_cfa_offset 20
 3540              		.cfi_offset 4, -20
 3541              		.cfi_offset 5, -16
 3542              		.cfi_offset 6, -12
 3543              		.cfi_offset 7, -8
 3544              		.cfi_offset 14, -4
 3545 0002 83B0     		sub	sp, sp, #12
 3546              		.cfi_def_cfa_offset 32
 3547              		.loc 1 393 0
 3548 0004 0B4D     		ldr	r5, .L334
 3549 0006 BDF82060 		ldrh	r6, [sp, #32]
 3550 000a 2C68     		ldr	r4, [r5]
 3551              	.LBB606:
 3552              	.LBB607:
 3553              		.loc 1 383 0
 3554 000c 0361     		str	r3, [r0, #16]
 3555              		.loc 1 382 0
 3556 000e 0527     		movs	r7, #5
 3557 0010 8773     		strb	r7, [r0, #14]
 3558              		.loc 1 384 0
 3559 0012 C682     		strh	r6, [r0, #22]	@ movhi
 3560              	.LBE607:
 3561              	.LBE606:
 3562              		.loc 1 393 0
 3563 0014 0194     		str	r4, [sp, #4]
 3564 0016 0446     		mov	r4, r0
 3565              	.LVL336:
 3566              	.LBB609:
 3567              	.LBB608:
 3568              		.loc 1 385 0
 3569 0018 FFF7FEFF 		bl	_parameter_declare
 3570              	.LVL337:
 3571              	.LBE608:
 3572              	.LBE609:
 3573              		.loc 1 395 0
 3574 001c 019A     		ldr	r2, [sp, #4]
 3575 001e 2B68     		ldr	r3, [r5]
 3576 0020 9A42     		cmp	r2, r3
 3577 0022 05D1     		bne	.L333
 3578 0024 2046     		mov	r0, r4
 3579              		.loc 1 396 0
 3580 0026 03B0     		add	sp, sp, #12
 3581              		.cfi_remember_state
 3582              		.cfi_def_cfa_offset 20
 3583              		@ sp needed
 3584 0028 BDE8F040 		pop	{r4, r5, r6, r7, lr}
 3585              		.cfi_restore 14
 3586              		.cfi_restore 7
 3587              		.cfi_restore 6
 3588              		.cfi_restore 5
 3589              		.cfi_restore 4
 3590              		.cfi_def_cfa_offset 0
 3591              	.LVL338:
ARM GAS  C:\Users\pierr\AppData\Local\Temp\ccVvH5Vw.s 			page 64


 3592              		.loc 1 395 0
 3593 002c FFF7FEBF 		b	_parameter_changed_set
 3594              	.LVL339:
 3595              	.L333:
 3596              		.cfi_restore_state
 3597 0030 FFF7FEFF 		bl	__stack_chk_fail
 3598              	.LVL340:
 3599              	.L335:
 3600              		.align	2
 3601              	.L334:
 3602 0034 00000000 		.word	__stack_chk_guard
 3603              		.cfi_endproc
 3604              	.LFE280:
 3605              		.size	parameter_vector_declare_with_default, .-parameter_vector_declare_with_default
 3606              		.section	.text.parameter_vector_dim,"ax",%progbits
 3607              		.align	1
 3608              		.p2align 4,,15
 3609              		.global	parameter_vector_dim
 3610              		.syntax unified
 3611              		.thumb
 3612              		.thumb_func
 3613              		.fpu fpv4-sp-d16
 3614              		.type	parameter_vector_dim, %function
 3615              	parameter_vector_dim:
 3616              	.LFB281:
 3617              		.loc 1 399 0
 3618              		.cfi_startproc
 3619              		@ args = 0, pretend = 0, frame = 8
 3620              		@ frame_needed = 0, uses_anonymous_args = 0
 3621              	.LVL341:
 3622 0000 30B5     		push	{r4, r5, lr}
 3623              		.cfi_def_cfa_offset 12
 3624              		.cfi_offset 4, -12
 3625              		.cfi_offset 5, -8
 3626              		.cfi_offset 14, -4
 3627 0002 0A4D     		ldr	r5, .L344
 3628              		.loc 1 400 0
 3629 0004 837B     		ldrb	r3, [r0, #14]	@ zero_extendqisi2
 3630              		.loc 1 399 0
 3631 0006 2A68     		ldr	r2, [r5]
 3632 0008 83B0     		sub	sp, sp, #12
 3633              		.cfi_def_cfa_offset 24
 3634              		.loc 1 400 0
 3635 000a 052B     		cmp	r3, #5
 3636              		.loc 1 399 0
 3637 000c 0446     		mov	r4, r0
 3638 000e 0192     		str	r2, [sp, #4]
 3639              		.loc 1 400 0
 3640 0010 02D0     		beq	.L337
 3641              		.loc 1 400 0 is_stmt 0 discriminator 2
 3642 0012 0748     		ldr	r0, .L344+4
 3643              	.LVL342:
 3644 0014 FFF7FEFF 		bl	chSysHalt
 3645              	.LVL343:
 3646              	.L337:
 3647              		.loc 1 402 0 is_stmt 1
 3648 0018 019A     		ldr	r2, [sp, #4]
ARM GAS  C:\Users\pierr\AppData\Local\Temp\ccVvH5Vw.s 			page 65


 3649 001a 2B68     		ldr	r3, [r5]
 3650 001c E08A     		ldrh	r0, [r4, #22]
 3651 001e 9A42     		cmp	r2, r3
 3652 0020 01D1     		bne	.L343
 3653 0022 03B0     		add	sp, sp, #12
 3654              		.cfi_remember_state
 3655              		.cfi_def_cfa_offset 12
 3656              		@ sp needed
 3657 0024 30BD     		pop	{r4, r5, pc}
 3658              	.LVL344:
 3659              	.L343:
 3660              		.cfi_restore_state
 3661 0026 FFF7FEFF 		bl	__stack_chk_fail
 3662              	.LVL345:
 3663              	.L345:
 3664 002a 00BF     		.align	2
 3665              	.L344:
 3666 002c 00000000 		.word	__stack_chk_guard
 3667 0030 00000000 		.word	.LANCHOR7
 3668              		.cfi_endproc
 3669              	.LFE281:
 3670              		.size	parameter_vector_dim, .-parameter_vector_dim
 3671              		.section	.text.parameter_vector_read,"ax",%progbits
 3672              		.align	1
 3673              		.p2align 4,,15
 3674              		.global	parameter_vector_read
 3675              		.syntax unified
 3676              		.thumb
 3677              		.thumb_func
 3678              		.fpu fpv4-sp-d16
 3679              		.type	parameter_vector_read, %function
 3680              	parameter_vector_read:
 3681              	.LFB283:
 3682              		.loc 1 411 0
 3683              		.cfi_startproc
 3684              		@ args = 0, pretend = 0, frame = 8
 3685              		@ frame_needed = 0, uses_anonymous_args = 0
 3686              	.LVL346:
 3687 0000 70B5     		push	{r4, r5, r6, lr}
 3688              		.cfi_def_cfa_offset 16
 3689              		.cfi_offset 4, -16
 3690              		.cfi_offset 5, -12
 3691              		.cfi_offset 6, -8
 3692              		.cfi_offset 14, -4
 3693 0002 214E     		ldr	r6, .L364
 3694              		.loc 1 412 0
 3695 0004 837B     		ldrb	r3, [r0, #14]	@ zero_extendqisi2
 3696              		.loc 1 411 0
 3697 0006 3268     		ldr	r2, [r6]
 3698 0008 82B0     		sub	sp, sp, #8
 3699              		.cfi_def_cfa_offset 24
 3700              		.loc 1 412 0
 3701 000a 052B     		cmp	r3, #5
 3702              		.loc 1 411 0
 3703 000c 0446     		mov	r4, r0
 3704 000e 0192     		str	r2, [sp, #4]
 3705 0010 0D46     		mov	r5, r1
ARM GAS  C:\Users\pierr\AppData\Local\Temp\ccVvH5Vw.s 			page 66


 3706              		.loc 1 412 0
 3707 0012 02D0     		beq	.L347
 3708              		.loc 1 412 0 is_stmt 0 discriminator 2
 3709 0014 1D48     		ldr	r0, .L364+4
 3710              	.LVL347:
 3711 0016 FFF7FEFF 		bl	chSysHalt
 3712              	.LVL348:
 3713              	.L347:
 3714              	.LBB620:
 3715              	.LBB621:
 3716              	.LBB622:
 3717              	.LBB623:
 3718              	.LBB624:
 3719              		.loc 2 546 0 is_stmt 1
 3720 001a 2023     		movs	r3, #32
 3721              		.syntax unified
 3722              	@ 546 "../../lib/e-puck2_main-processor/ChibiOS//os/ext/CMSIS/include/core_cmFunc.h" 1
 3723 001c 83F31188 		MSR basepri, r3
 3724              	@ 0 "" 2
 3725              	.LVL349:
 3726              		.thumb
 3727              		.syntax unified
 3728              	.LBE624:
 3729              	.LBE623:
 3730              	.LBE622:
 3731              		.loc 3 349 0
 3732 0020 FFF7FEFF 		bl	_stats_start_measure_crit_thd
 3733              	.LVL350:
 3734              		.loc 3 350 0
 3735 0024 FFF7FEFF 		bl	_dbg_check_lock
 3736              	.LVL351:
 3737              	.LBE621:
 3738              	.LBE620:
 3739              		.loc 1 414 0
 3740 0028 637B     		ldrb	r3, [r4, #13]	@ zero_extendqisi2
 3741 002a 3BB3     		cbz	r3, .L361
 3742              	.L348:
 3743              	.LVL352:
 3744              		.loc 1 416 0 discriminator 1
 3745 002c E38A     		ldrh	r3, [r4, #22]
 3746 002e 5BB1     		cbz	r3, .L349
 3747 0030 2946     		mov	r1, r5
 3748              		.loc 1 416 0 is_stmt 0
 3749 0032 0023     		movs	r3, #0
 3750              	.LVL353:
 3751              	.L350:
 3752              		.loc 1 417 0 is_stmt 1 discriminator 3
 3753 0034 2269     		ldr	r2, [r4, #16]
 3754 0036 02EB8302 		add	r2, r2, r3, lsl #2
 3755              		.loc 1 416 0 discriminator 3
 3756 003a 0133     		adds	r3, r3, #1
 3757              	.LVL354:
 3758              		.loc 1 417 0 discriminator 3
 3759 003c 1268     		ldr	r2, [r2]	@ float
 3760 003e 41F8042B 		str	r2, [r1], #4	@ float
 3761              		.loc 1 416 0 discriminator 3
 3762 0042 E28A     		ldrh	r2, [r4, #22]
ARM GAS  C:\Users\pierr\AppData\Local\Temp\ccVvH5Vw.s 			page 67


 3763 0044 9A42     		cmp	r2, r3
 3764 0046 F5DC     		bgt	.L350
 3765              	.LVL355:
 3766              	.L349:
 3767              	.LBB625:
 3768              	.LBB626:
 3769              		.loc 3 360 0
 3770 0048 FFF7FEFF 		bl	_dbg_check_unlock
 3771              	.LVL356:
 3772              		.loc 3 361 0
 3773 004c FFF7FEFF 		bl	_stats_stop_measure_crit_thd
 3774              	.LVL357:
 3775              		.loc 3 367 0
 3776 0050 0F4B     		ldr	r3, .L364+8
 3777 0052 1A68     		ldr	r2, [r3]
 3778 0054 9A42     		cmp	r2, r3
 3779 0056 04D0     		beq	.L351
 3780 0058 9969     		ldr	r1, [r3, #24]
 3781 005a 9368     		ldr	r3, [r2, #8]
 3782 005c 8A68     		ldr	r2, [r1, #8]
 3783 005e 9A42     		cmp	r2, r3
 3784 0060 08D3     		bcc	.L362
 3785              	.L351:
 3786              	.LVL358:
 3787              	.LBB627:
 3788              	.LBB628:
 3789              	.LBB629:
 3790              		.loc 2 546 0
 3791 0062 0023     		movs	r3, #0
 3792              		.syntax unified
 3793              	@ 546 "../../lib/e-puck2_main-processor/ChibiOS//os/ext/CMSIS/include/core_cmFunc.h" 1
 3794 0064 83F31188 		MSR basepri, r3
 3795              	@ 0 "" 2
 3796              	.LVL359:
 3797              		.thumb
 3798              		.syntax unified
 3799              	.LBE629:
 3800              	.LBE628:
 3801              	.LBE627:
 3802              	.LBE626:
 3803              	.LBE625:
 3804              		.loc 1 420 0
 3805 0068 019A     		ldr	r2, [sp, #4]
 3806 006a 3368     		ldr	r3, [r6]
 3807 006c 9A42     		cmp	r2, r3
 3808 006e 09D1     		bne	.L363
 3809 0070 02B0     		add	sp, sp, #8
 3810              		.cfi_remember_state
 3811              		.cfi_def_cfa_offset 16
 3812              		@ sp needed
 3813 0072 70BD     		pop	{r4, r5, r6, pc}
 3814              	.LVL360:
 3815              	.L362:
 3816              		.cfi_restore_state
 3817              	.LBB631:
 3818              	.LBB630:
 3819              		.loc 3 367 0
ARM GAS  C:\Users\pierr\AppData\Local\Temp\ccVvH5Vw.s 			page 68


 3820 0074 0748     		ldr	r0, .L364+12
 3821 0076 FFF7FEFF 		bl	chSysHalt
 3822              	.LVL361:
 3823 007a F2E7     		b	.L351
 3824              	.L361:
 3825              	.LBE630:
 3826              	.LBE631:
 3827              		.loc 1 414 0 discriminator 2
 3828 007c 0348     		ldr	r0, .L364+4
 3829 007e FFF7FEFF 		bl	chSysHalt
 3830              	.LVL362:
 3831 0082 D3E7     		b	.L348
 3832              	.L363:
 3833              		.loc 1 420 0
 3834 0084 FFF7FEFF 		bl	__stack_chk_fail
 3835              	.LVL363:
 3836              	.L365:
 3837              		.align	2
 3838              	.L364:
 3839 0088 00000000 		.word	__stack_chk_guard
 3840 008c 00000000 		.word	.LANCHOR8
 3841 0090 00000000 		.word	ch
 3842 0094 00000000 		.word	.LANCHOR0
 3843              		.cfi_endproc
 3844              	.LFE283:
 3845              		.size	parameter_vector_read, .-parameter_vector_read
 3846              		.section	.text.parameter_vector_get,"ax",%progbits
 3847              		.align	1
 3848              		.p2align 4,,15
 3849              		.global	parameter_vector_get
 3850              		.syntax unified
 3851              		.thumb
 3852              		.thumb_func
 3853              		.fpu fpv4-sp-d16
 3854              		.type	parameter_vector_get, %function
 3855              	parameter_vector_get:
 3856              	.LFB282:
 3857              		.loc 1 405 0
 3858              		.cfi_startproc
 3859              		@ args = 0, pretend = 0, frame = 8
 3860              		@ frame_needed = 0, uses_anonymous_args = 0
 3861              	.LVL364:
 3862 0000 70B5     		push	{r4, r5, r6, lr}
 3863              		.cfi_def_cfa_offset 16
 3864              		.cfi_offset 4, -16
 3865              		.cfi_offset 5, -12
 3866              		.cfi_offset 6, -8
 3867              		.cfi_offset 14, -4
 3868 0002 0A4C     		ldr	r4, .L371
 3869 0004 82B0     		sub	sp, sp, #8
 3870              		.cfi_def_cfa_offset 24
 3871              		.loc 1 405 0
 3872 0006 2368     		ldr	r3, [r4]
 3873 0008 0193     		str	r3, [sp, #4]
 3874 000a 0E46     		mov	r6, r1
 3875 000c 0546     		mov	r5, r0
 3876              		.loc 1 406 0
ARM GAS  C:\Users\pierr\AppData\Local\Temp\ccVvH5Vw.s 			page 69


 3877 000e FFF7FEFF 		bl	_parameter_changed_clear
 3878              	.LVL365:
 3879              		.loc 1 407 0
 3880 0012 019A     		ldr	r2, [sp, #4]
 3881 0014 2368     		ldr	r3, [r4]
 3882 0016 9A42     		cmp	r2, r3
 3883 0018 06D1     		bne	.L370
 3884 001a 3146     		mov	r1, r6
 3885 001c 2846     		mov	r0, r5
 3886              		.loc 1 408 0
 3887 001e 02B0     		add	sp, sp, #8
 3888              		.cfi_remember_state
 3889              		.cfi_def_cfa_offset 16
 3890              		@ sp needed
 3891 0020 BDE87040 		pop	{r4, r5, r6, lr}
 3892              		.cfi_restore 14
 3893              		.cfi_restore 6
 3894              		.cfi_restore 5
 3895              		.cfi_restore 4
 3896              		.cfi_def_cfa_offset 0
 3897              	.LVL366:
 3898              		.loc 1 407 0
 3899 0024 FFF7FEBF 		b	parameter_vector_read
 3900              	.LVL367:
 3901              	.L370:
 3902              		.cfi_restore_state
 3903 0028 FFF7FEFF 		bl	__stack_chk_fail
 3904              	.LVL368:
 3905              	.L372:
 3906              		.align	2
 3907              	.L371:
 3908 002c 00000000 		.word	__stack_chk_guard
 3909              		.cfi_endproc
 3910              	.LFE282:
 3911              		.size	parameter_vector_get, .-parameter_vector_get
 3912              		.section	.text.parameter_vector_set,"ax",%progbits
 3913              		.align	1
 3914              		.p2align 4,,15
 3915              		.global	parameter_vector_set
 3916              		.syntax unified
 3917              		.thumb
 3918              		.thumb_func
 3919              		.fpu fpv4-sp-d16
 3920              		.type	parameter_vector_set, %function
 3921              	parameter_vector_set:
 3922              	.LFB284:
 3923              		.loc 1 423 0
 3924              		.cfi_startproc
 3925              		@ args = 0, pretend = 0, frame = 8
 3926              		@ frame_needed = 0, uses_anonymous_args = 0
 3927              	.LVL369:
 3928 0000 70B5     		push	{r4, r5, r6, lr}
 3929              		.cfi_def_cfa_offset 16
 3930              		.cfi_offset 4, -16
 3931              		.cfi_offset 5, -12
 3932              		.cfi_offset 6, -8
 3933              		.cfi_offset 14, -4
ARM GAS  C:\Users\pierr\AppData\Local\Temp\ccVvH5Vw.s 			page 70


 3934 0002 204E     		ldr	r6, .L390
 3935              		.loc 1 424 0
 3936 0004 837B     		ldrb	r3, [r0, #14]	@ zero_extendqisi2
 3937              		.loc 1 423 0
 3938 0006 3268     		ldr	r2, [r6]
 3939 0008 82B0     		sub	sp, sp, #8
 3940              		.cfi_def_cfa_offset 24
 3941              		.loc 1 424 0
 3942 000a 052B     		cmp	r3, #5
 3943              		.loc 1 423 0
 3944 000c 0446     		mov	r4, r0
 3945 000e 0192     		str	r2, [sp, #4]
 3946 0010 0D46     		mov	r5, r1
 3947              		.loc 1 424 0
 3948 0012 02D0     		beq	.L374
 3949              		.loc 1 424 0 is_stmt 0 discriminator 2
 3950 0014 1C48     		ldr	r0, .L390+4
 3951              	.LVL370:
 3952 0016 FFF7FEFF 		bl	chSysHalt
 3953              	.LVL371:
 3954              	.L374:
 3955              	.LBB642:
 3956              	.LBB643:
 3957              	.LBB644:
 3958              	.LBB645:
 3959              	.LBB646:
 3960              		.loc 2 546 0 is_stmt 1
 3961 001a 2023     		movs	r3, #32
 3962              		.syntax unified
 3963              	@ 546 "../../lib/e-puck2_main-processor/ChibiOS//os/ext/CMSIS/include/core_cmFunc.h" 1
 3964 001c 83F31188 		MSR basepri, r3
 3965              	@ 0 "" 2
 3966              	.LVL372:
 3967              		.thumb
 3968              		.syntax unified
 3969              	.LBE646:
 3970              	.LBE645:
 3971              	.LBE644:
 3972              		.loc 3 349 0
 3973 0020 FFF7FEFF 		bl	_stats_start_measure_crit_thd
 3974              	.LVL373:
 3975              		.loc 3 350 0
 3976 0024 FFF7FEFF 		bl	_dbg_check_lock
 3977              	.LVL374:
 3978              	.LBE643:
 3979              	.LBE642:
 3980              		.loc 1 427 0
 3981 0028 E38A     		ldrh	r3, [r4, #22]
 3982 002a 5BB1     		cbz	r3, .L375
 3983 002c 2946     		mov	r1, r5
 3984 002e 0023     		movs	r3, #0
 3985              	.LVL375:
 3986              	.L376:
 3987              		.loc 1 428 0 discriminator 3
 3988 0030 2269     		ldr	r2, [r4, #16]
 3989 0032 51F8040B 		ldr	r0, [r1], #4	@ float
 3990 0036 02EB8302 		add	r2, r2, r3, lsl #2
ARM GAS  C:\Users\pierr\AppData\Local\Temp\ccVvH5Vw.s 			page 71


 3991              		.loc 1 427 0 discriminator 3
 3992 003a 0133     		adds	r3, r3, #1
 3993              	.LVL376:
 3994              		.loc 1 428 0 discriminator 3
 3995 003c 1060     		str	r0, [r2]	@ float
 3996              		.loc 1 427 0 discriminator 3
 3997 003e E28A     		ldrh	r2, [r4, #22]
 3998 0040 9A42     		cmp	r2, r3
 3999 0042 F5DC     		bgt	.L376
 4000              	.LVL377:
 4001              	.L375:
 4002              	.LBB647:
 4003              	.LBB648:
 4004              		.loc 3 360 0
 4005 0044 FFF7FEFF 		bl	_dbg_check_unlock
 4006              	.LVL378:
 4007              		.loc 3 361 0
 4008 0048 FFF7FEFF 		bl	_stats_stop_measure_crit_thd
 4009              	.LVL379:
 4010              		.loc 3 367 0
 4011 004c 0F4B     		ldr	r3, .L390+8
 4012 004e 1A68     		ldr	r2, [r3]
 4013 0050 9A42     		cmp	r2, r3
 4014 0052 04D0     		beq	.L377
 4015 0054 9969     		ldr	r1, [r3, #24]
 4016 0056 9368     		ldr	r3, [r2, #8]
 4017 0058 8A68     		ldr	r2, [r1, #8]
 4018 005a 9A42     		cmp	r2, r3
 4019 005c 0CD3     		bcc	.L388
 4020              	.L377:
 4021              	.LVL380:
 4022              	.LBB649:
 4023              	.LBB650:
 4024              	.LBB651:
 4025              		.loc 2 546 0
 4026 005e 0023     		movs	r3, #0
 4027              		.syntax unified
 4028              	@ 546 "../../lib/e-puck2_main-processor/ChibiOS//os/ext/CMSIS/include/core_cmFunc.h" 1
 4029 0060 83F31188 		MSR basepri, r3
 4030              	@ 0 "" 2
 4031              	.LVL381:
 4032              		.thumb
 4033              		.syntax unified
 4034              	.LBE651:
 4035              	.LBE650:
 4036              	.LBE649:
 4037              	.LBE648:
 4038              	.LBE647:
 4039              		.loc 1 431 0
 4040 0064 019A     		ldr	r2, [sp, #4]
 4041 0066 3368     		ldr	r3, [r6]
 4042 0068 9A42     		cmp	r2, r3
 4043 006a 09D1     		bne	.L389
 4044 006c 2046     		mov	r0, r4
 4045              		.loc 1 432 0
 4046 006e 02B0     		add	sp, sp, #8
 4047              		.cfi_remember_state
ARM GAS  C:\Users\pierr\AppData\Local\Temp\ccVvH5Vw.s 			page 72


 4048              		.cfi_def_cfa_offset 16
 4049              		@ sp needed
 4050 0070 BDE87040 		pop	{r4, r5, r6, lr}
 4051              		.cfi_restore 14
 4052              		.cfi_restore 6
 4053              		.cfi_restore 5
 4054              		.cfi_restore 4
 4055              		.cfi_def_cfa_offset 0
 4056              	.LVL382:
 4057              		.loc 1 431 0
 4058 0074 FFF7FEBF 		b	_parameter_changed_set
 4059              	.LVL383:
 4060              	.L388:
 4061              		.cfi_restore_state
 4062              	.LBB653:
 4063              	.LBB652:
 4064              		.loc 3 367 0
 4065 0078 0548     		ldr	r0, .L390+12
 4066 007a FFF7FEFF 		bl	chSysHalt
 4067              	.LVL384:
 4068 007e EEE7     		b	.L377
 4069              	.L389:
 4070              	.LBE652:
 4071              	.LBE653:
 4072              		.loc 1 431 0
 4073 0080 FFF7FEFF 		bl	__stack_chk_fail
 4074              	.LVL385:
 4075              	.L391:
 4076              		.align	2
 4077              	.L390:
 4078 0084 00000000 		.word	__stack_chk_guard
 4079 0088 00000000 		.word	.LANCHOR9
 4080 008c 00000000 		.word	ch
 4081 0090 00000000 		.word	.LANCHOR0
 4082              		.cfi_endproc
 4083              	.LFE284:
 4084              		.size	parameter_vector_set, .-parameter_vector_set
 4085              		.section	.text.parameter_variable_vector_declare,"ax",%progbits
 4086              		.align	1
 4087              		.p2align 4,,15
 4088              		.global	parameter_variable_vector_declare
 4089              		.syntax unified
 4090              		.thumb
 4091              		.thumb_func
 4092              		.fpu fpv4-sp-d16
 4093              		.type	parameter_variable_vector_declare, %function
 4094              	parameter_variable_vector_declare:
 4095              	.LFB285:
 4096              		.loc 1 444 0
 4097              		.cfi_startproc
 4098              		@ args = 4, pretend = 0, frame = 8
 4099              		@ frame_needed = 0, uses_anonymous_args = 0
 4100              	.LVL386:
 4101 0000 F0B5     		push	{r4, r5, r6, r7, lr}
 4102              		.cfi_def_cfa_offset 20
 4103              		.cfi_offset 4, -20
 4104              		.cfi_offset 5, -16
ARM GAS  C:\Users\pierr\AppData\Local\Temp\ccVvH5Vw.s 			page 73


 4105              		.cfi_offset 6, -12
 4106              		.cfi_offset 7, -8
 4107              		.cfi_offset 14, -4
 4108 0002 0B4C     		ldr	r4, .L397
 4109              		.loc 1 446 0
 4110 0004 0361     		str	r3, [r0, #16]
 4111              		.loc 1 444 0
 4112 0006 83B0     		sub	sp, sp, #12
 4113              		.cfi_def_cfa_offset 32
 4114              		.loc 1 444 0
 4115 0008 2568     		ldr	r5, [r4]
 4116 000a 0195     		str	r5, [sp, #4]
 4117              		.loc 1 448 0
 4118 000c 019E     		ldr	r6, [sp, #4]
 4119 000e 2568     		ldr	r5, [r4]
 4120              		.loc 1 444 0
 4121 0010 BDF82070 		ldrh	r7, [sp, #32]
 4122              		.loc 1 447 0
 4123 0014 8782     		strh	r7, [r0, #20]	@ movhi
 4124              		.loc 1 445 0
 4125 0016 4FF0060C 		mov	ip, #6
 4126              		.loc 1 448 0
 4127 001a AE42     		cmp	r6, r5
 4128              		.loc 1 445 0
 4129 001c 80F80EC0 		strb	ip, [r0, #14]
 4130              		.loc 1 448 0
 4131 0020 04D1     		bne	.L396
 4132              		.loc 1 449 0
 4133 0022 03B0     		add	sp, sp, #12
 4134              		.cfi_remember_state
 4135              		.cfi_def_cfa_offset 20
 4136              		@ sp needed
 4137 0024 BDE8F040 		pop	{r4, r5, r6, r7, lr}
 4138              		.cfi_restore 14
 4139              		.cfi_restore 7
 4140              		.cfi_restore 6
 4141              		.cfi_restore 5
 4142              		.cfi_restore 4
 4143              		.cfi_def_cfa_offset 0
 4144              	.LVL387:
 4145              		.loc 1 448 0
 4146 0028 FFF7FEBF 		b	_parameter_declare
 4147              	.LVL388:
 4148              	.L396:
 4149              		.cfi_restore_state
 4150 002c FFF7FEFF 		bl	__stack_chk_fail
 4151              	.LVL389:
 4152              	.L398:
 4153              		.align	2
 4154              	.L397:
 4155 0030 00000000 		.word	__stack_chk_guard
 4156              		.cfi_endproc
 4157              	.LFE285:
 4158              		.size	parameter_variable_vector_declare, .-parameter_variable_vector_declare
 4159              		.section	.text.parameter_variable_vector_declare_with_default,"ax",%progbits
 4160              		.align	1
 4161              		.p2align 4,,15
ARM GAS  C:\Users\pierr\AppData\Local\Temp\ccVvH5Vw.s 			page 74


 4162              		.global	parameter_variable_vector_declare_with_default
 4163              		.syntax unified
 4164              		.thumb
 4165              		.thumb_func
 4166              		.fpu fpv4-sp-d16
 4167              		.type	parameter_variable_vector_declare_with_default, %function
 4168              	parameter_variable_vector_declare_with_default:
 4169              	.LFB286:
 4170              		.loc 1 457 0
 4171              		.cfi_startproc
 4172              		@ args = 8, pretend = 0, frame = 8
 4173              		@ frame_needed = 0, uses_anonymous_args = 0
 4174              	.LVL390:
 4175 0000 F0B5     		push	{r4, r5, r6, r7, lr}
 4176              		.cfi_def_cfa_offset 20
 4177              		.cfi_offset 4, -20
 4178              		.cfi_offset 5, -16
 4179              		.cfi_offset 6, -12
 4180              		.cfi_offset 7, -8
 4181              		.cfi_offset 14, -4
 4182 0002 83B0     		sub	sp, sp, #12
 4183              		.cfi_def_cfa_offset 32
 4184              		.loc 1 457 0
 4185 0004 104E     		ldr	r6, .L405
 4186 0006 BDF82070 		ldrh	r7, [sp, #32]
 4187 000a BDF82450 		ldrh	r5, [sp, #36]
 4188 000e 3468     		ldr	r4, [r6]
 4189              	.LBB654:
 4190              	.LBB655:
 4191              		.loc 1 446 0
 4192 0010 0361     		str	r3, [r0, #16]
 4193              		.loc 1 445 0
 4194 0012 4FF0060C 		mov	ip, #6
 4195 0016 80F80EC0 		strb	ip, [r0, #14]
 4196              		.loc 1 447 0
 4197 001a 8782     		strh	r7, [r0, #20]	@ movhi
 4198              	.LBE655:
 4199              	.LBE654:
 4200              		.loc 1 457 0
 4201 001c 0194     		str	r4, [sp, #4]
 4202 001e 0446     		mov	r4, r0
 4203              	.LVL391:
 4204              	.LBB657:
 4205              	.LBB656:
 4206              		.loc 1 448 0
 4207 0020 FFF7FEFF 		bl	_parameter_declare
 4208              	.LVL392:
 4209              	.LBE656:
 4210              	.LBE657:
 4211              		.loc 1 459 0
 4212 0024 AF42     		cmp	r7, r5
 4213 0026 02D2     		bcs	.L400
 4214              		.loc 1 459 0 is_stmt 0 discriminator 2
 4215 0028 0848     		ldr	r0, .L405+4
 4216 002a FFF7FEFF 		bl	chSysHalt
 4217              	.LVL393:
 4218              	.L400:
ARM GAS  C:\Users\pierr\AppData\Local\Temp\ccVvH5Vw.s 			page 75


 4219              		.loc 1 461 0 is_stmt 1
 4220 002e 019A     		ldr	r2, [sp, #4]
 4221 0030 3368     		ldr	r3, [r6]
 4222              		.loc 1 460 0
 4223 0032 E582     		strh	r5, [r4, #22]	@ movhi
 4224              		.loc 1 461 0
 4225 0034 9A42     		cmp	r2, r3
 4226 0036 05D1     		bne	.L404
 4227 0038 2046     		mov	r0, r4
 4228              		.loc 1 462 0
 4229 003a 03B0     		add	sp, sp, #12
 4230              		.cfi_remember_state
 4231              		.cfi_def_cfa_offset 20
 4232              		@ sp needed
 4233 003c BDE8F040 		pop	{r4, r5, r6, r7, lr}
 4234              		.cfi_restore 14
 4235              		.cfi_restore 7
 4236              		.cfi_restore 6
 4237              		.cfi_restore 5
 4238              		.cfi_restore 4
 4239              		.cfi_def_cfa_offset 0
 4240              	.LVL394:
 4241              		.loc 1 461 0
 4242 0040 FFF7FEBF 		b	_parameter_changed_set
 4243              	.LVL395:
 4244              	.L404:
 4245              		.cfi_restore_state
 4246 0044 FFF7FEFF 		bl	__stack_chk_fail
 4247              	.LVL396:
 4248              	.L406:
 4249              		.align	2
 4250              	.L405:
 4251 0048 00000000 		.word	__stack_chk_guard
 4252 004c 00000000 		.word	.LANCHOR10
 4253              		.cfi_endproc
 4254              	.LFE286:
 4255              		.size	parameter_variable_vector_declare_with_default, .-parameter_variable_vector_declare_with_def
 4256              		.section	.text.parameter_variable_vector_max_dim,"ax",%progbits
 4257              		.align	1
 4258              		.p2align 4,,15
 4259              		.global	parameter_variable_vector_max_dim
 4260              		.syntax unified
 4261              		.thumb
 4262              		.thumb_func
 4263              		.fpu fpv4-sp-d16
 4264              		.type	parameter_variable_vector_max_dim, %function
 4265              	parameter_variable_vector_max_dim:
 4266              	.LFB287:
 4267              		.loc 1 465 0
 4268              		.cfi_startproc
 4269              		@ args = 0, pretend = 0, frame = 8
 4270              		@ frame_needed = 0, uses_anonymous_args = 0
 4271              	.LVL397:
 4272 0000 30B5     		push	{r4, r5, lr}
 4273              		.cfi_def_cfa_offset 12
 4274              		.cfi_offset 4, -12
 4275              		.cfi_offset 5, -8
ARM GAS  C:\Users\pierr\AppData\Local\Temp\ccVvH5Vw.s 			page 76


 4276              		.cfi_offset 14, -4
 4277 0002 0A4D     		ldr	r5, .L415
 4278              		.loc 1 466 0
 4279 0004 837B     		ldrb	r3, [r0, #14]	@ zero_extendqisi2
 4280              		.loc 1 465 0
 4281 0006 2A68     		ldr	r2, [r5]
 4282 0008 83B0     		sub	sp, sp, #12
 4283              		.cfi_def_cfa_offset 24
 4284              		.loc 1 466 0
 4285 000a 062B     		cmp	r3, #6
 4286              		.loc 1 465 0
 4287 000c 0446     		mov	r4, r0
 4288 000e 0192     		str	r2, [sp, #4]
 4289              		.loc 1 466 0
 4290 0010 02D0     		beq	.L408
 4291              		.loc 1 466 0 is_stmt 0 discriminator 2
 4292 0012 0748     		ldr	r0, .L415+4
 4293              	.LVL398:
 4294 0014 FFF7FEFF 		bl	chSysHalt
 4295              	.LVL399:
 4296              	.L408:
 4297              		.loc 1 468 0 is_stmt 1
 4298 0018 019A     		ldr	r2, [sp, #4]
 4299 001a 2B68     		ldr	r3, [r5]
 4300 001c A08A     		ldrh	r0, [r4, #20]
 4301 001e 9A42     		cmp	r2, r3
 4302 0020 01D1     		bne	.L414
 4303 0022 03B0     		add	sp, sp, #12
 4304              		.cfi_remember_state
 4305              		.cfi_def_cfa_offset 12
 4306              		@ sp needed
 4307 0024 30BD     		pop	{r4, r5, pc}
 4308              	.LVL400:
 4309              	.L414:
 4310              		.cfi_restore_state
 4311 0026 FFF7FEFF 		bl	__stack_chk_fail
 4312              	.LVL401:
 4313              	.L416:
 4314 002a 00BF     		.align	2
 4315              	.L415:
 4316 002c 00000000 		.word	__stack_chk_guard
 4317 0030 00000000 		.word	.LANCHOR11
 4318              		.cfi_endproc
 4319              	.LFE287:
 4320              		.size	parameter_variable_vector_max_dim, .-parameter_variable_vector_max_dim
 4321              		.section	.text.parameter_variable_vector_read,"ax",%progbits
 4322              		.align	1
 4323              		.p2align 4,,15
 4324              		.global	parameter_variable_vector_read
 4325              		.syntax unified
 4326              		.thumb
 4327              		.thumb_func
 4328              		.fpu fpv4-sp-d16
 4329              		.type	parameter_variable_vector_read, %function
 4330              	parameter_variable_vector_read:
 4331              	.LFB289:
 4332              		.loc 1 477 0
ARM GAS  C:\Users\pierr\AppData\Local\Temp\ccVvH5Vw.s 			page 77


 4333              		.cfi_startproc
 4334              		@ args = 0, pretend = 0, frame = 8
 4335              		@ frame_needed = 0, uses_anonymous_args = 0
 4336              	.LVL402:
 4337 0000 F0B5     		push	{r4, r5, r6, r7, lr}
 4338              		.cfi_def_cfa_offset 20
 4339              		.cfi_offset 4, -20
 4340              		.cfi_offset 5, -16
 4341              		.cfi_offset 6, -12
 4342              		.cfi_offset 7, -8
 4343              		.cfi_offset 14, -4
 4344 0002 224F     		ldr	r7, .L435
 4345              		.loc 1 478 0
 4346 0004 837B     		ldrb	r3, [r0, #14]	@ zero_extendqisi2
 4347              		.loc 1 477 0
 4348 0006 3A68     		ldr	r2, [r7]
 4349 0008 83B0     		sub	sp, sp, #12
 4350              		.cfi_def_cfa_offset 32
 4351              		.loc 1 478 0
 4352 000a 062B     		cmp	r3, #6
 4353              		.loc 1 477 0
 4354 000c 0446     		mov	r4, r0
 4355 000e 0192     		str	r2, [sp, #4]
 4356 0010 0E46     		mov	r6, r1
 4357              		.loc 1 478 0
 4358 0012 02D0     		beq	.L418
 4359              		.loc 1 478 0 is_stmt 0 discriminator 2
 4360 0014 1E48     		ldr	r0, .L435+4
 4361              	.LVL403:
 4362 0016 FFF7FEFF 		bl	chSysHalt
 4363              	.LVL404:
 4364              	.L418:
 4365              	.LBB668:
 4366              	.LBB669:
 4367              	.LBB670:
 4368              	.LBB671:
 4369              	.LBB672:
 4370              		.loc 2 546 0 is_stmt 1
 4371 001a 2023     		movs	r3, #32
 4372              		.syntax unified
 4373              	@ 546 "../../lib/e-puck2_main-processor/ChibiOS//os/ext/CMSIS/include/core_cmFunc.h" 1
 4374 001c 83F31188 		MSR basepri, r3
 4375              	@ 0 "" 2
 4376              	.LVL405:
 4377              		.thumb
 4378              		.syntax unified
 4379              	.LBE672:
 4380              	.LBE671:
 4381              	.LBE670:
 4382              		.loc 3 349 0
 4383 0020 FFF7FEFF 		bl	_stats_start_measure_crit_thd
 4384              	.LVL406:
 4385              		.loc 3 350 0
 4386 0024 FFF7FEFF 		bl	_dbg_check_lock
 4387              	.LVL407:
 4388              	.LBE669:
 4389              	.LBE668:
ARM GAS  C:\Users\pierr\AppData\Local\Temp\ccVvH5Vw.s 			page 78


 4390              		.loc 1 480 0
 4391 0028 637B     		ldrb	r3, [r4, #13]	@ zero_extendqisi2
 4392 002a 43B3     		cbz	r3, .L432
 4393              	.L419:
 4394              	.LVL408:
 4395              		.loc 1 482 0 discriminator 1
 4396 002c E58A     		ldrh	r5, [r4, #22]
 4397 002e 5DB1     		cbz	r5, .L420
 4398 0030 3146     		mov	r1, r6
 4399              		.loc 1 482 0 is_stmt 0
 4400 0032 0023     		movs	r3, #0
 4401              	.LVL409:
 4402              	.L421:
 4403              		.loc 1 483 0 is_stmt 1 discriminator 3
 4404 0034 2269     		ldr	r2, [r4, #16]
 4405 0036 02EB8302 		add	r2, r2, r3, lsl #2
 4406              		.loc 1 482 0 discriminator 3
 4407 003a 0133     		adds	r3, r3, #1
 4408              	.LVL410:
 4409              		.loc 1 483 0 discriminator 3
 4410 003c 1268     		ldr	r2, [r2]	@ float
 4411 003e 41F8042B 		str	r2, [r1], #4	@ float
 4412              		.loc 1 482 0 discriminator 3
 4413 0042 E58A     		ldrh	r5, [r4, #22]
 4414 0044 9D42     		cmp	r5, r3
 4415 0046 F5DC     		bgt	.L421
 4416              	.LVL411:
 4417              	.L420:
 4418              	.LBB673:
 4419              	.LBB674:
 4420              		.loc 3 360 0
 4421 0048 FFF7FEFF 		bl	_dbg_check_unlock
 4422              	.LVL412:
 4423              		.loc 3 361 0
 4424 004c FFF7FEFF 		bl	_stats_stop_measure_crit_thd
 4425              	.LVL413:
 4426              		.loc 3 367 0
 4427 0050 104B     		ldr	r3, .L435+8
 4428 0052 1A68     		ldr	r2, [r3]
 4429 0054 9A42     		cmp	r2, r3
 4430 0056 04D0     		beq	.L422
 4431 0058 9969     		ldr	r1, [r3, #24]
 4432 005a 9368     		ldr	r3, [r2, #8]
 4433 005c 8A68     		ldr	r2, [r1, #8]
 4434 005e 9A42     		cmp	r2, r3
 4435 0060 09D3     		bcc	.L433
 4436              	.L422:
 4437              	.LVL414:
 4438              	.LBB675:
 4439              	.LBB676:
 4440              	.LBB677:
 4441              		.loc 2 546 0
 4442 0062 0023     		movs	r3, #0
 4443              		.syntax unified
 4444              	@ 546 "../../lib/e-puck2_main-processor/ChibiOS//os/ext/CMSIS/include/core_cmFunc.h" 1
 4445 0064 83F31188 		MSR basepri, r3
 4446              	@ 0 "" 2
ARM GAS  C:\Users\pierr\AppData\Local\Temp\ccVvH5Vw.s 			page 79


 4447              	.LVL415:
 4448              		.thumb
 4449              		.syntax unified
 4450              	.LBE677:
 4451              	.LBE676:
 4452              	.LBE675:
 4453              	.LBE674:
 4454              	.LBE673:
 4455              		.loc 1 488 0
 4456 0068 019A     		ldr	r2, [sp, #4]
 4457 006a 3B68     		ldr	r3, [r7]
 4458 006c 9A42     		cmp	r2, r3
 4459 006e 2846     		mov	r0, r5
 4460 0070 09D1     		bne	.L434
 4461 0072 03B0     		add	sp, sp, #12
 4462              		.cfi_remember_state
 4463              		.cfi_def_cfa_offset 20
 4464              		@ sp needed
 4465 0074 F0BD     		pop	{r4, r5, r6, r7, pc}
 4466              	.LVL416:
 4467              	.L433:
 4468              		.cfi_restore_state
 4469              	.LBB679:
 4470              	.LBB678:
 4471              		.loc 3 367 0
 4472 0076 0848     		ldr	r0, .L435+12
 4473 0078 FFF7FEFF 		bl	chSysHalt
 4474              	.LVL417:
 4475 007c F1E7     		b	.L422
 4476              	.LVL418:
 4477              	.L432:
 4478              	.LBE678:
 4479              	.LBE679:
 4480              		.loc 1 480 0 discriminator 2
 4481 007e 0448     		ldr	r0, .L435+4
 4482 0080 FFF7FEFF 		bl	chSysHalt
 4483              	.LVL419:
 4484 0084 D2E7     		b	.L419
 4485              	.LVL420:
 4486              	.L434:
 4487              		.loc 1 488 0
 4488 0086 FFF7FEFF 		bl	__stack_chk_fail
 4489              	.LVL421:
 4490              	.L436:
 4491 008a 00BF     		.align	2
 4492              	.L435:
 4493 008c 00000000 		.word	__stack_chk_guard
 4494 0090 00000000 		.word	.LANCHOR12
 4495 0094 00000000 		.word	ch
 4496 0098 00000000 		.word	.LANCHOR0
 4497              		.cfi_endproc
 4498              	.LFE289:
 4499              		.size	parameter_variable_vector_read, .-parameter_variable_vector_read
 4500              		.section	.text.parameter_variable_vector_get,"ax",%progbits
 4501              		.align	1
 4502              		.p2align 4,,15
 4503              		.global	parameter_variable_vector_get
ARM GAS  C:\Users\pierr\AppData\Local\Temp\ccVvH5Vw.s 			page 80


 4504              		.syntax unified
 4505              		.thumb
 4506              		.thumb_func
 4507              		.fpu fpv4-sp-d16
 4508              		.type	parameter_variable_vector_get, %function
 4509              	parameter_variable_vector_get:
 4510              	.LFB288:
 4511              		.loc 1 471 0
 4512              		.cfi_startproc
 4513              		@ args = 0, pretend = 0, frame = 8
 4514              		@ frame_needed = 0, uses_anonymous_args = 0
 4515              	.LVL422:
 4516 0000 70B5     		push	{r4, r5, r6, lr}
 4517              		.cfi_def_cfa_offset 16
 4518              		.cfi_offset 4, -16
 4519              		.cfi_offset 5, -12
 4520              		.cfi_offset 6, -8
 4521              		.cfi_offset 14, -4
 4522 0002 0A4C     		ldr	r4, .L442
 4523 0004 82B0     		sub	sp, sp, #8
 4524              		.cfi_def_cfa_offset 24
 4525              		.loc 1 471 0
 4526 0006 2368     		ldr	r3, [r4]
 4527 0008 0193     		str	r3, [sp, #4]
 4528 000a 0E46     		mov	r6, r1
 4529 000c 0546     		mov	r5, r0
 4530              		.loc 1 472 0
 4531 000e FFF7FEFF 		bl	_parameter_changed_clear
 4532              	.LVL423:
 4533              		.loc 1 473 0
 4534 0012 019A     		ldr	r2, [sp, #4]
 4535 0014 2368     		ldr	r3, [r4]
 4536 0016 9A42     		cmp	r2, r3
 4537 0018 06D1     		bne	.L441
 4538 001a 3146     		mov	r1, r6
 4539 001c 2846     		mov	r0, r5
 4540              		.loc 1 474 0
 4541 001e 02B0     		add	sp, sp, #8
 4542              		.cfi_remember_state
 4543              		.cfi_def_cfa_offset 16
 4544              		@ sp needed
 4545 0020 BDE87040 		pop	{r4, r5, r6, lr}
 4546              		.cfi_restore 14
 4547              		.cfi_restore 6
 4548              		.cfi_restore 5
 4549              		.cfi_restore 4
 4550              		.cfi_def_cfa_offset 0
 4551              	.LVL424:
 4552              		.loc 1 473 0
 4553 0024 FFF7FEBF 		b	parameter_variable_vector_read
 4554              	.LVL425:
 4555              	.L441:
 4556              		.cfi_restore_state
 4557 0028 FFF7FEFF 		bl	__stack_chk_fail
 4558              	.LVL426:
 4559              	.L443:
 4560              		.align	2
ARM GAS  C:\Users\pierr\AppData\Local\Temp\ccVvH5Vw.s 			page 81


 4561              	.L442:
 4562 002c 00000000 		.word	__stack_chk_guard
 4563              		.cfi_endproc
 4564              	.LFE288:
 4565              		.size	parameter_variable_vector_get, .-parameter_variable_vector_get
 4566              		.section	.text.parameter_variable_vector_set,"ax",%progbits
 4567              		.align	1
 4568              		.p2align 4,,15
 4569              		.global	parameter_variable_vector_set
 4570              		.syntax unified
 4571              		.thumb
 4572              		.thumb_func
 4573              		.fpu fpv4-sp-d16
 4574              		.type	parameter_variable_vector_set, %function
 4575              	parameter_variable_vector_set:
 4576              	.LFB290:
 4577              		.loc 1 491 0
 4578              		.cfi_startproc
 4579              		@ args = 0, pretend = 0, frame = 8
 4580              		@ frame_needed = 0, uses_anonymous_args = 0
 4581              	.LVL427:
 4582 0000 2DE9F043 		push	{r4, r5, r6, r7, r8, r9, lr}
 4583              		.cfi_def_cfa_offset 28
 4584              		.cfi_offset 4, -28
 4585              		.cfi_offset 5, -24
 4586              		.cfi_offset 6, -20
 4587              		.cfi_offset 7, -16
 4588              		.cfi_offset 8, -12
 4589              		.cfi_offset 9, -8
 4590              		.cfi_offset 14, -4
 4591 0004 DFF8A480 		ldr	r8, .L463+12
 4592              		.loc 1 492 0
 4593 0008 837B     		ldrb	r3, [r0, #14]	@ zero_extendqisi2
 4594              		.loc 1 491 0
 4595 000a 83B0     		sub	sp, sp, #12
 4596              		.cfi_def_cfa_offset 40
 4597              		.loc 1 491 0
 4598 000c 0646     		mov	r6, r0
 4599              		.loc 1 492 0
 4600 000e 062B     		cmp	r3, #6
 4601              		.loc 1 491 0
 4602 0010 D8F80000 		ldr	r0, [r8]
 4603              	.LVL428:
 4604 0014 0190     		str	r0, [sp, #4]
 4605 0016 0F46     		mov	r7, r1
 4606 0018 9146     		mov	r9, r2
 4607              		.loc 1 492 0
 4608 001a 02D0     		beq	.L445
 4609              		.loc 1 492 0 is_stmt 0 discriminator 2
 4610 001c 2048     		ldr	r0, .L463
 4611 001e FFF7FEFF 		bl	chSysHalt
 4612              	.LVL429:
 4613              	.L445:
 4614              	.LBB690:
 4615              	.LBB691:
 4616              	.LBB692:
 4617              	.LBB693:
ARM GAS  C:\Users\pierr\AppData\Local\Temp\ccVvH5Vw.s 			page 82


 4618              	.LBB694:
 4619              		.loc 2 546 0 is_stmt 1
 4620 0022 2023     		movs	r3, #32
 4621              		.syntax unified
 4622              	@ 546 "../../lib/e-puck2_main-processor/ChibiOS//os/ext/CMSIS/include/core_cmFunc.h" 1
 4623 0024 83F31188 		MSR basepri, r3
 4624              	@ 0 "" 2
 4625              	.LVL430:
 4626              		.thumb
 4627              		.syntax unified
 4628              	.LBE694:
 4629              	.LBE693:
 4630              	.LBE692:
 4631              		.loc 3 349 0
 4632 0028 FFF7FEFF 		bl	_stats_start_measure_crit_thd
 4633              	.LVL431:
 4634              		.loc 3 350 0
 4635 002c FFF7FEFF 		bl	_dbg_check_lock
 4636              	.LVL432:
 4637              	.LBE691:
 4638              	.LBE690:
 4639              		.loc 1 494 0
 4640 0030 B38A     		ldrh	r3, [r6, #20]
 4641 0032 4B45     		cmp	r3, r9
 4642 0034 2AD3     		bcc	.L460
 4643              	.L446:
 4644              	.LVL433:
 4645              		.loc 1 496 0 discriminator 1
 4646 0036 B9F1000F 		cmp	r9, #0
 4647 003a 0AD0     		beq	.L447
 4648 003c 07EB8901 		add	r1, r7, r9, lsl #2
 4649              		.loc 1 496 0 is_stmt 0
 4650 0040 3B46     		mov	r3, r7
 4651              	.LVL434:
 4652              	.L448:
 4653              		.loc 1 497 0 is_stmt 1 discriminator 3
 4654 0042 3069     		ldr	r0, [r6, #16]
 4655 0044 DD1B     		subs	r5, r3, r7
 4656 0046 53F8044B 		ldr	r4, [r3], #4	@ float
 4657 004a 2844     		add	r0, r0, r5
 4658              		.loc 1 496 0 discriminator 3
 4659 004c 9942     		cmp	r1, r3
 4660              		.loc 1 497 0 discriminator 3
 4661 004e 0460     		str	r4, [r0]	@ float
 4662              		.loc 1 496 0 discriminator 3
 4663 0050 F7D1     		bne	.L448
 4664              	.L447:
 4665              		.loc 1 499 0
 4666 0052 A6F81690 		strh	r9, [r6, #22]	@ movhi
 4667              	.LBB695:
 4668              	.LBB696:
 4669              		.loc 3 360 0
 4670 0056 FFF7FEFF 		bl	_dbg_check_unlock
 4671              	.LVL435:
 4672              		.loc 3 361 0
 4673 005a FFF7FEFF 		bl	_stats_stop_measure_crit_thd
 4674              	.LVL436:
ARM GAS  C:\Users\pierr\AppData\Local\Temp\ccVvH5Vw.s 			page 83


 4675              		.loc 3 367 0
 4676 005e 114B     		ldr	r3, .L463+4
 4677 0060 1A68     		ldr	r2, [r3]
 4678 0062 9A42     		cmp	r2, r3
 4679 0064 04D0     		beq	.L449
 4680 0066 9969     		ldr	r1, [r3, #24]
 4681 0068 9368     		ldr	r3, [r2, #8]
 4682 006a 8A68     		ldr	r2, [r1, #8]
 4683 006c 9A42     		cmp	r2, r3
 4684 006e 11D3     		bcc	.L461
 4685              	.L449:
 4686              	.LVL437:
 4687              	.LBB697:
 4688              	.LBB698:
 4689              	.LBB699:
 4690              		.loc 2 546 0
 4691 0070 0023     		movs	r3, #0
 4692              		.syntax unified
 4693              	@ 546 "../../lib/e-puck2_main-processor/ChibiOS//os/ext/CMSIS/include/core_cmFunc.h" 1
 4694 0072 83F31188 		MSR basepri, r3
 4695              	@ 0 "" 2
 4696              	.LVL438:
 4697              		.thumb
 4698              		.syntax unified
 4699              	.LBE699:
 4700              	.LBE698:
 4701              	.LBE697:
 4702              	.LBE696:
 4703              	.LBE695:
 4704              		.loc 1 501 0
 4705 0076 019A     		ldr	r2, [sp, #4]
 4706 0078 D8F80030 		ldr	r3, [r8]
 4707 007c 9A42     		cmp	r2, r3
 4708 007e 0DD1     		bne	.L462
 4709 0080 3046     		mov	r0, r6
 4710              		.loc 1 502 0
 4711 0082 03B0     		add	sp, sp, #12
 4712              		.cfi_remember_state
 4713              		.cfi_def_cfa_offset 28
 4714              		@ sp needed
 4715 0084 BDE8F043 		pop	{r4, r5, r6, r7, r8, r9, lr}
 4716              		.cfi_restore 14
 4717              		.cfi_restore 9
 4718              		.cfi_restore 8
 4719              		.cfi_restore 7
 4720              		.cfi_restore 6
 4721              		.cfi_restore 5
 4722              		.cfi_restore 4
 4723              		.cfi_def_cfa_offset 0
 4724              	.LVL439:
 4725              		.loc 1 501 0
 4726 0088 FFF7FEBF 		b	_parameter_changed_set
 4727              	.LVL440:
 4728              	.L460:
 4729              		.cfi_restore_state
 4730              		.loc 1 494 0 discriminator 2
 4731 008c 0448     		ldr	r0, .L463
ARM GAS  C:\Users\pierr\AppData\Local\Temp\ccVvH5Vw.s 			page 84


 4732 008e FFF7FEFF 		bl	chSysHalt
 4733              	.LVL441:
 4734 0092 D0E7     		b	.L446
 4735              	.L461:
 4736              	.LBB701:
 4737              	.LBB700:
 4738              		.loc 3 367 0
 4739 0094 0448     		ldr	r0, .L463+8
 4740 0096 FFF7FEFF 		bl	chSysHalt
 4741              	.LVL442:
 4742 009a E9E7     		b	.L449
 4743              	.L462:
 4744              	.LBE700:
 4745              	.LBE701:
 4746              		.loc 1 501 0
 4747 009c FFF7FEFF 		bl	__stack_chk_fail
 4748              	.LVL443:
 4749              	.L464:
 4750              		.align	2
 4751              	.L463:
 4752 00a0 00000000 		.word	.LANCHOR13
 4753 00a4 00000000 		.word	ch
 4754 00a8 00000000 		.word	.LANCHOR0
 4755 00ac 00000000 		.word	__stack_chk_guard
 4756              		.cfi_endproc
 4757              	.LFE290:
 4758              		.size	parameter_variable_vector_set, .-parameter_variable_vector_set
 4759              		.section	.text.parameter_string_declare,"ax",%progbits
 4760              		.align	1
 4761              		.p2align 4,,15
 4762              		.global	parameter_string_declare
 4763              		.syntax unified
 4764              		.thumb
 4765              		.thumb_func
 4766              		.fpu fpv4-sp-d16
 4767              		.type	parameter_string_declare, %function
 4768              	parameter_string_declare:
 4769              	.LFB291:
 4770              		.loc 1 514 0
 4771              		.cfi_startproc
 4772              		@ args = 4, pretend = 0, frame = 8
 4773              		@ frame_needed = 0, uses_anonymous_args = 0
 4774              	.LVL444:
 4775 0000 F0B5     		push	{r4, r5, r6, r7, lr}
 4776              		.cfi_def_cfa_offset 20
 4777              		.cfi_offset 4, -20
 4778              		.cfi_offset 5, -16
 4779              		.cfi_offset 6, -12
 4780              		.cfi_offset 7, -8
 4781              		.cfi_offset 14, -4
 4782 0002 0B4C     		ldr	r4, .L470
 4783              		.loc 1 516 0
 4784 0004 0361     		str	r3, [r0, #16]
 4785              		.loc 1 514 0
 4786 0006 83B0     		sub	sp, sp, #12
 4787              		.cfi_def_cfa_offset 32
 4788              		.loc 1 514 0
ARM GAS  C:\Users\pierr\AppData\Local\Temp\ccVvH5Vw.s 			page 85


 4789 0008 2568     		ldr	r5, [r4]
 4790 000a 0195     		str	r5, [sp, #4]
 4791              		.loc 1 518 0
 4792 000c 019E     		ldr	r6, [sp, #4]
 4793 000e 2568     		ldr	r5, [r4]
 4794              		.loc 1 514 0
 4795 0010 BDF82070 		ldrh	r7, [sp, #32]
 4796              		.loc 1 517 0
 4797 0014 8782     		strh	r7, [r0, #20]	@ movhi
 4798              		.loc 1 515 0
 4799 0016 4FF0040C 		mov	ip, #4
 4800              		.loc 1 518 0
 4801 001a AE42     		cmp	r6, r5
 4802              		.loc 1 515 0
 4803 001c 80F80EC0 		strb	ip, [r0, #14]
 4804              		.loc 1 518 0
 4805 0020 04D1     		bne	.L469
 4806              		.loc 1 519 0
 4807 0022 03B0     		add	sp, sp, #12
 4808              		.cfi_remember_state
 4809              		.cfi_def_cfa_offset 20
 4810              		@ sp needed
 4811 0024 BDE8F040 		pop	{r4, r5, r6, r7, lr}
 4812              		.cfi_restore 14
 4813              		.cfi_restore 7
 4814              		.cfi_restore 6
 4815              		.cfi_restore 5
 4816              		.cfi_restore 4
 4817              		.cfi_def_cfa_offset 0
 4818              	.LVL445:
 4819              		.loc 1 518 0
 4820 0028 FFF7FEBF 		b	_parameter_declare
 4821              	.LVL446:
 4822              	.L469:
 4823              		.cfi_restore_state
 4824 002c FFF7FEFF 		bl	__stack_chk_fail
 4825              	.LVL447:
 4826              	.L471:
 4827              		.align	2
 4828              	.L470:
 4829 0030 00000000 		.word	__stack_chk_guard
 4830              		.cfi_endproc
 4831              	.LFE291:
 4832              		.size	parameter_string_declare, .-parameter_string_declare
 4833              		.section	.text.parameter_string_declare_with_default,"ax",%progbits
 4834              		.align	1
 4835              		.p2align 4,,15
 4836              		.global	parameter_string_declare_with_default
 4837              		.syntax unified
 4838              		.thumb
 4839              		.thumb_func
 4840              		.fpu fpv4-sp-d16
 4841              		.type	parameter_string_declare_with_default, %function
 4842              	parameter_string_declare_with_default:
 4843              	.LFB292:
 4844              		.loc 1 527 0
 4845              		.cfi_startproc
ARM GAS  C:\Users\pierr\AppData\Local\Temp\ccVvH5Vw.s 			page 86


 4846              		@ args = 8, pretend = 0, frame = 8
 4847              		@ frame_needed = 0, uses_anonymous_args = 0
 4848              	.LVL448:
 4849 0000 F0B5     		push	{r4, r5, r6, r7, lr}
 4850              		.cfi_def_cfa_offset 20
 4851              		.cfi_offset 4, -20
 4852              		.cfi_offset 5, -16
 4853              		.cfi_offset 6, -12
 4854              		.cfi_offset 7, -8
 4855              		.cfi_offset 14, -4
 4856 0002 83B0     		sub	sp, sp, #12
 4857              		.cfi_def_cfa_offset 32
 4858              		.loc 1 527 0
 4859 0004 144E     		ldr	r6, .L478
 4860 0006 BDF82050 		ldrh	r5, [sp, #32]
 4861 000a 099F     		ldr	r7, [sp, #36]
 4862 000c 3468     		ldr	r4, [r6]
 4863              	.LBB702:
 4864              	.LBB703:
 4865              		.loc 1 516 0
 4866 000e 0361     		str	r3, [r0, #16]
 4867              		.loc 1 515 0
 4868 0010 4FF0040C 		mov	ip, #4
 4869 0014 80F80EC0 		strb	ip, [r0, #14]
 4870              		.loc 1 517 0
 4871 0018 8582     		strh	r5, [r0, #20]	@ movhi
 4872              	.LBE703:
 4873              	.LBE702:
 4874              		.loc 1 527 0
 4875 001a 0194     		str	r4, [sp, #4]
 4876 001c 0446     		mov	r4, r0
 4877              	.LVL449:
 4878              	.LBB705:
 4879              	.LBB704:
 4880              		.loc 1 518 0
 4881 001e FFF7FEFF 		bl	_parameter_declare
 4882              	.LVL450:
 4883              	.LBE704:
 4884              	.LBE705:
 4885              		.loc 1 529 0
 4886 0022 3846     		mov	r0, r7
 4887 0024 FFF7FEFF 		bl	strlen
 4888              	.LVL451:
 4889 0028 80B2     		uxth	r0, r0
 4890              		.loc 1 530 0
 4891 002a A842     		cmp	r0, r5
 4892              		.loc 1 529 0
 4893 002c E082     		strh	r0, [r4, #22]	@ movhi
 4894              		.loc 1 530 0
 4895 002e 02D9     		bls	.L473
 4896              		.loc 1 530 0 is_stmt 0 discriminator 2
 4897 0030 0A48     		ldr	r0, .L478+4
 4898 0032 FFF7FEFF 		bl	chSysHalt
 4899              	.LVL452:
 4900              	.L473:
 4901              		.loc 1 531 0 is_stmt 1
 4902 0036 2A46     		mov	r2, r5
ARM GAS  C:\Users\pierr\AppData\Local\Temp\ccVvH5Vw.s 			page 87


 4903 0038 3946     		mov	r1, r7
 4904 003a 2069     		ldr	r0, [r4, #16]
 4905 003c FFF7FEFF 		bl	strncpy
 4906              	.LVL453:
 4907              		.loc 1 532 0
 4908 0040 019A     		ldr	r2, [sp, #4]
 4909 0042 3368     		ldr	r3, [r6]
 4910 0044 9A42     		cmp	r2, r3
 4911 0046 05D1     		bne	.L477
 4912 0048 2046     		mov	r0, r4
 4913              		.loc 1 533 0
 4914 004a 03B0     		add	sp, sp, #12
 4915              		.cfi_remember_state
 4916              		.cfi_def_cfa_offset 20
 4917              		@ sp needed
 4918 004c BDE8F040 		pop	{r4, r5, r6, r7, lr}
 4919              		.cfi_restore 14
 4920              		.cfi_restore 7
 4921              		.cfi_restore 6
 4922              		.cfi_restore 5
 4923              		.cfi_restore 4
 4924              		.cfi_def_cfa_offset 0
 4925              	.LVL454:
 4926              		.loc 1 532 0
 4927 0050 FFF7FEBF 		b	_parameter_changed_set
 4928              	.LVL455:
 4929              	.L477:
 4930              		.cfi_restore_state
 4931 0054 FFF7FEFF 		bl	__stack_chk_fail
 4932              	.LVL456:
 4933              	.L479:
 4934              		.align	2
 4935              	.L478:
 4936 0058 00000000 		.word	__stack_chk_guard
 4937 005c 00000000 		.word	.LANCHOR14
 4938              		.cfi_endproc
 4939              	.LFE292:
 4940              		.size	parameter_string_declare_with_default, .-parameter_string_declare_with_default
 4941              		.section	.text.parameter_string_max_len,"ax",%progbits
 4942              		.align	1
 4943              		.p2align 4,,15
 4944              		.global	parameter_string_max_len
 4945              		.syntax unified
 4946              		.thumb
 4947              		.thumb_func
 4948              		.fpu fpv4-sp-d16
 4949              		.type	parameter_string_max_len, %function
 4950              	parameter_string_max_len:
 4951              	.LFB293:
 4952              		.loc 1 536 0
 4953              		.cfi_startproc
 4954              		@ args = 0, pretend = 0, frame = 8
 4955              		@ frame_needed = 0, uses_anonymous_args = 0
 4956              	.LVL457:
 4957 0000 30B5     		push	{r4, r5, lr}
 4958              		.cfi_def_cfa_offset 12
 4959              		.cfi_offset 4, -12
ARM GAS  C:\Users\pierr\AppData\Local\Temp\ccVvH5Vw.s 			page 88


 4960              		.cfi_offset 5, -8
 4961              		.cfi_offset 14, -4
 4962 0002 0B4C     		ldr	r4, .L488
 4963              		.loc 1 537 0
 4964 0004 837B     		ldrb	r3, [r0, #14]	@ zero_extendqisi2
 4965              		.loc 1 536 0
 4966 0006 2268     		ldr	r2, [r4]
 4967 0008 83B0     		sub	sp, sp, #12
 4968              		.cfi_def_cfa_offset 24
 4969              		.loc 1 537 0
 4970 000a 042B     		cmp	r3, #4
 4971              		.loc 1 536 0
 4972 000c 0546     		mov	r5, r0
 4973 000e 0192     		str	r2, [sp, #4]
 4974              		.loc 1 537 0
 4975 0010 02D0     		beq	.L481
 4976              		.loc 1 537 0 is_stmt 0 discriminator 2
 4977 0012 0848     		ldr	r0, .L488+4
 4978              	.LVL458:
 4979 0014 FFF7FEFF 		bl	chSysHalt
 4980              	.LVL459:
 4981              	.L481:
 4982              		.loc 1 539 0 is_stmt 1
 4983 0018 019A     		ldr	r2, [sp, #4]
 4984              		.loc 1 538 0
 4985 001a A88A     		ldrh	r0, [r5, #20]
 4986              		.loc 1 539 0
 4987 001c 2368     		ldr	r3, [r4]
 4988              		.loc 1 538 0
 4989 001e 0130     		adds	r0, r0, #1
 4990              		.loc 1 539 0
 4991 0020 9A42     		cmp	r2, r3
 4992 0022 80B2     		uxth	r0, r0
 4993 0024 01D1     		bne	.L487
 4994 0026 03B0     		add	sp, sp, #12
 4995              		.cfi_remember_state
 4996              		.cfi_def_cfa_offset 12
 4997              		@ sp needed
 4998 0028 30BD     		pop	{r4, r5, pc}
 4999              	.LVL460:
 5000              	.L487:
 5001              		.cfi_restore_state
 5002 002a FFF7FEFF 		bl	__stack_chk_fail
 5003              	.LVL461:
 5004              	.L489:
 5005 002e 00BF     		.align	2
 5006              	.L488:
 5007 0030 00000000 		.word	__stack_chk_guard
 5008 0034 00000000 		.word	.LANCHOR15
 5009              		.cfi_endproc
 5010              	.LFE293:
 5011              		.size	parameter_string_max_len, .-parameter_string_max_len
 5012              		.section	.text.parameter_string_read,"ax",%progbits
 5013              		.align	1
 5014              		.p2align 4,,15
 5015              		.global	parameter_string_read
 5016              		.syntax unified
ARM GAS  C:\Users\pierr\AppData\Local\Temp\ccVvH5Vw.s 			page 89


 5017              		.thumb
 5018              		.thumb_func
 5019              		.fpu fpv4-sp-d16
 5020              		.type	parameter_string_read, %function
 5021              	parameter_string_read:
 5022              	.LFB295:
 5023              		.loc 1 548 0
 5024              		.cfi_startproc
 5025              		@ args = 0, pretend = 0, frame = 8
 5026              		@ frame_needed = 0, uses_anonymous_args = 0
 5027              	.LVL462:
 5028 0000 2DE9F041 		push	{r4, r5, r6, r7, r8, lr}
 5029              		.cfi_def_cfa_offset 24
 5030              		.cfi_offset 4, -24
 5031              		.cfi_offset 5, -20
 5032              		.cfi_offset 6, -16
 5033              		.cfi_offset 7, -12
 5034              		.cfi_offset 8, -8
 5035              		.cfi_offset 14, -4
 5036 0004 DFF8A480 		ldr	r8, .L505+12
 5037              		.loc 1 549 0
 5038 0008 837B     		ldrb	r3, [r0, #14]	@ zero_extendqisi2
 5039              		.loc 1 548 0
 5040 000a 82B0     		sub	sp, sp, #8
 5041              		.cfi_def_cfa_offset 32
 5042              		.loc 1 548 0
 5043 000c 0446     		mov	r4, r0
 5044              		.loc 1 549 0
 5045 000e 042B     		cmp	r3, #4
 5046              		.loc 1 548 0
 5047 0010 D8F80000 		ldr	r0, [r8]
 5048              	.LVL463:
 5049 0014 0190     		str	r0, [sp, #4]
 5050 0016 0D46     		mov	r5, r1
 5051 0018 1746     		mov	r7, r2
 5052              		.loc 1 549 0
 5053 001a 02D0     		beq	.L491
 5054              		.loc 1 549 0 is_stmt 0 discriminator 2
 5055 001c 2048     		ldr	r0, .L505
 5056 001e FFF7FEFF 		bl	chSysHalt
 5057              	.LVL464:
 5058              	.L491:
 5059              	.LBB716:
 5060              	.LBB717:
 5061              	.LBB718:
 5062              	.LBB719:
 5063              	.LBB720:
 5064              		.loc 2 546 0 is_stmt 1
 5065 0022 2023     		movs	r3, #32
 5066              		.syntax unified
 5067              	@ 546 "../../lib/e-puck2_main-processor/ChibiOS//os/ext/CMSIS/include/core_cmFunc.h" 1
 5068 0024 83F31188 		MSR basepri, r3
 5069              	@ 0 "" 2
 5070              	.LVL465:
 5071              		.thumb
 5072              		.syntax unified
 5073              	.LBE720:
ARM GAS  C:\Users\pierr\AppData\Local\Temp\ccVvH5Vw.s 			page 90


 5074              	.LBE719:
 5075              	.LBE718:
 5076              		.loc 3 349 0
 5077 0028 FFF7FEFF 		bl	_stats_start_measure_crit_thd
 5078              	.LVL466:
 5079              		.loc 3 350 0
 5080 002c FFF7FEFF 		bl	_dbg_check_lock
 5081              	.LVL467:
 5082              	.LBE717:
 5083              	.LBE716:
 5084              		.loc 1 551 0
 5085 0030 637B     		ldrb	r3, [r4, #13]	@ zero_extendqisi2
 5086 0032 7BB3     		cbz	r3, .L501
 5087              	.L492:
 5088              		.loc 1 552 0
 5089 0034 E68A     		ldrh	r6, [r4, #22]
 5090              	.LVL468:
 5091 0036 2169     		ldr	r1, [r4, #16]
 5092              		.loc 1 553 0
 5093 0038 BE42     		cmp	r6, r7
 5094 003a 24D3     		bcc	.L502
 5095              		.loc 1 557 0
 5096 003c 2846     		mov	r0, r5
 5097 003e 7A1E     		subs	r2, r7, #1
 5098              		.loc 1 558 0
 5099 0040 3D44     		add	r5, r5, r7
 5100              	.LVL469:
 5101              		.loc 1 557 0
 5102 0042 FFF7FEFF 		bl	memcpy
 5103              	.LVL470:
 5104              		.loc 1 558 0
 5105 0046 0023     		movs	r3, #0
 5106 0048 05F8013C 		strb	r3, [r5, #-1]
 5107              	.L494:
 5108              	.LBB721:
 5109              	.LBB722:
 5110              		.loc 3 360 0
 5111 004c FFF7FEFF 		bl	_dbg_check_unlock
 5112              	.LVL471:
 5113              		.loc 3 361 0
 5114 0050 FFF7FEFF 		bl	_stats_stop_measure_crit_thd
 5115              	.LVL472:
 5116              		.loc 3 367 0
 5117 0054 134B     		ldr	r3, .L505+4
 5118 0056 1A68     		ldr	r2, [r3]
 5119 0058 9A42     		cmp	r2, r3
 5120 005a 04D0     		beq	.L495
 5121 005c 9969     		ldr	r1, [r3, #24]
 5122 005e 9368     		ldr	r3, [r2, #8]
 5123 0060 8A68     		ldr	r2, [r1, #8]
 5124 0062 9A42     		cmp	r2, r3
 5125 0064 0BD3     		bcc	.L503
 5126              	.L495:
 5127              	.LVL473:
 5128              	.LBB723:
 5129              	.LBB724:
 5130              	.LBB725:
ARM GAS  C:\Users\pierr\AppData\Local\Temp\ccVvH5Vw.s 			page 91


 5131              		.loc 2 546 0
 5132 0066 0023     		movs	r3, #0
 5133              		.syntax unified
 5134              	@ 546 "../../lib/e-puck2_main-processor/ChibiOS//os/ext/CMSIS/include/core_cmFunc.h" 1
 5135 0068 83F31188 		MSR basepri, r3
 5136              	@ 0 "" 2
 5137              	.LVL474:
 5138              		.thumb
 5139              		.syntax unified
 5140              	.LBE725:
 5141              	.LBE724:
 5142              	.LBE723:
 5143              	.LBE722:
 5144              	.LBE721:
 5145              		.loc 1 562 0
 5146 006c 019A     		ldr	r2, [sp, #4]
 5147 006e D8F80030 		ldr	r3, [r8]
 5148 0072 9A42     		cmp	r2, r3
 5149 0074 3046     		mov	r0, r6
 5150 0076 11D1     		bne	.L504
 5151 0078 02B0     		add	sp, sp, #8
 5152              		.cfi_remember_state
 5153              		.cfi_def_cfa_offset 24
 5154              		@ sp needed
 5155 007a BDE8F081 		pop	{r4, r5, r6, r7, r8, pc}
 5156              	.LVL475:
 5157              	.L503:
 5158              		.cfi_restore_state
 5159              	.LBB727:
 5160              	.LBB726:
 5161              		.loc 3 367 0
 5162 007e 0A48     		ldr	r0, .L505+8
 5163 0080 FFF7FEFF 		bl	chSysHalt
 5164              	.LVL476:
 5165 0084 EFE7     		b	.L495
 5166              	.LVL477:
 5167              	.L502:
 5168              	.LBE726:
 5169              	.LBE727:
 5170              		.loc 1 554 0
 5171 0086 3246     		mov	r2, r6
 5172 0088 2846     		mov	r0, r5
 5173 008a FFF7FEFF 		bl	memcpy
 5174              	.LVL478:
 5175              		.loc 1 555 0
 5176 008e 0023     		movs	r3, #0
 5177 0090 AB55     		strb	r3, [r5, r6]
 5178 0092 DBE7     		b	.L494
 5179              	.LVL479:
 5180              	.L501:
 5181              		.loc 1 551 0 discriminator 2
 5182 0094 0248     		ldr	r0, .L505
 5183 0096 FFF7FEFF 		bl	chSysHalt
 5184              	.LVL480:
 5185 009a CBE7     		b	.L492
 5186              	.LVL481:
 5187              	.L504:
ARM GAS  C:\Users\pierr\AppData\Local\Temp\ccVvH5Vw.s 			page 92


 5188              		.loc 1 562 0
 5189 009c FFF7FEFF 		bl	__stack_chk_fail
 5190              	.LVL482:
 5191              	.L506:
 5192              		.align	2
 5193              	.L505:
 5194 00a0 00000000 		.word	.LANCHOR16
 5195 00a4 00000000 		.word	ch
 5196 00a8 00000000 		.word	.LANCHOR0
 5197 00ac 00000000 		.word	__stack_chk_guard
 5198              		.cfi_endproc
 5199              	.LFE295:
 5200              		.size	parameter_string_read, .-parameter_string_read
 5201              		.section	.text.parameter_string_get,"ax",%progbits
 5202              		.align	1
 5203              		.p2align 4,,15
 5204              		.global	parameter_string_get
 5205              		.syntax unified
 5206              		.thumb
 5207              		.thumb_func
 5208              		.fpu fpv4-sp-d16
 5209              		.type	parameter_string_get, %function
 5210              	parameter_string_get:
 5211              	.LFB294:
 5212              		.loc 1 542 0
 5213              		.cfi_startproc
 5214              		@ args = 0, pretend = 0, frame = 8
 5215              		@ frame_needed = 0, uses_anonymous_args = 0
 5216              	.LVL483:
 5217 0000 F0B5     		push	{r4, r5, r6, r7, lr}
 5218              		.cfi_def_cfa_offset 20
 5219              		.cfi_offset 4, -20
 5220              		.cfi_offset 5, -16
 5221              		.cfi_offset 6, -12
 5222              		.cfi_offset 7, -8
 5223              		.cfi_offset 14, -4
 5224 0002 0B4C     		ldr	r4, .L512
 5225 0004 83B0     		sub	sp, sp, #12
 5226              		.cfi_def_cfa_offset 32
 5227              		.loc 1 542 0
 5228 0006 2368     		ldr	r3, [r4]
 5229 0008 0193     		str	r3, [sp, #4]
 5230 000a 0546     		mov	r5, r0
 5231 000c 0E46     		mov	r6, r1
 5232 000e 1746     		mov	r7, r2
 5233              		.loc 1 543 0
 5234 0010 FFF7FEFF 		bl	_parameter_changed_clear
 5235              	.LVL484:
 5236              		.loc 1 544 0
 5237 0014 0198     		ldr	r0, [sp, #4]
 5238 0016 2368     		ldr	r3, [r4]
 5239 0018 9842     		cmp	r0, r3
 5240 001a 07D1     		bne	.L511
 5241 001c 3A46     		mov	r2, r7
 5242 001e 3146     		mov	r1, r6
 5243 0020 2846     		mov	r0, r5
 5244              		.loc 1 545 0
ARM GAS  C:\Users\pierr\AppData\Local\Temp\ccVvH5Vw.s 			page 93


 5245 0022 03B0     		add	sp, sp, #12
 5246              		.cfi_remember_state
 5247              		.cfi_def_cfa_offset 20
 5248              		@ sp needed
 5249 0024 BDE8F040 		pop	{r4, r5, r6, r7, lr}
 5250              		.cfi_restore 14
 5251              		.cfi_restore 7
 5252              		.cfi_restore 6
 5253              		.cfi_restore 5
 5254              		.cfi_restore 4
 5255              		.cfi_def_cfa_offset 0
 5256              	.LVL485:
 5257              		.loc 1 544 0
 5258 0028 FFF7FEBF 		b	parameter_string_read
 5259              	.LVL486:
 5260              	.L511:
 5261              		.cfi_restore_state
 5262 002c FFF7FEFF 		bl	__stack_chk_fail
 5263              	.LVL487:
 5264              	.L513:
 5265              		.align	2
 5266              	.L512:
