ARM GAS  C:\Users\pierr\AppData\Local\Temp\ccnYSy4F.s 			page 1


   1              		.cpu cortex-m4
   2              		.eabi_attribute 27, 1
   3              		.eabi_attribute 28, 1
   4              		.eabi_attribute 20, 1
   5              		.eabi_attribute 21, 1
   6              		.eabi_attribute 23, 3
   7              		.eabi_attribute 24, 1
   8              		.eabi_attribute 25, 1
   9              		.eabi_attribute 26, 1
  10              		.eabi_attribute 30, 2
  11              		.eabi_attribute 34, 1
  12              		.eabi_attribute 18, 4
  13              		.file	"port.c"
  14              		.text
  15              	.Ltext0:
  16              		.cfi_sections	.debug_frame
  17              		.section	.text.messagebus_lock_acquire,"ax",%progbits
  18              		.align	1
  19              		.p2align 4,,15
  20              		.global	messagebus_lock_acquire
  21              		.syntax unified
  22              		.thumb
  23              		.thumb_func
  24              		.fpu fpv4-sp-d16
  25              		.type	messagebus_lock_acquire, %function
  26              	messagebus_lock_acquire:
  27              	.LFB219:
  28              		.file 1 "../../lib/e-puck2_main-processor/src/msgbus/examples/chibios/port.c"
  29              		.loc 1 5 0
  30              		.cfi_startproc
  31              		@ args = 0, pretend = 0, frame = 8
  32              		@ frame_needed = 0, uses_anonymous_args = 0
  33              	.LVL0:
  34 0000 00B5     		push	{lr}
  35              		.cfi_def_cfa_offset 4
  36              		.cfi_offset 14, -4
  37 0002 074B     		ldr	r3, .L7
  38 0004 83B0     		sub	sp, sp, #12
  39              		.cfi_def_cfa_offset 16
  40              		.loc 1 5 0
  41 0006 1A68     		ldr	r2, [r3]
  42 0008 0192     		str	r2, [sp, #4]
  43              	.LVL1:
  44              		.loc 1 7 0
  45 000a 019A     		ldr	r2, [sp, #4]
  46 000c 1B68     		ldr	r3, [r3]
  47 000e 9A42     		cmp	r2, r3
  48 0010 04D1     		bne	.L6
  49              		.loc 1 8 0
  50 0012 03B0     		add	sp, sp, #12
  51              		.cfi_remember_state
  52              		.cfi_def_cfa_offset 4
  53              		@ sp needed
  54 0014 5DF804EB 		ldr	lr, [sp], #4
  55              		.cfi_restore 14
  56              		.cfi_def_cfa_offset 0
  57              		.loc 1 7 0
ARM GAS  C:\Users\pierr\AppData\Local\Temp\ccnYSy4F.s 			page 2


  58 0018 FFF7FEBF 		b	chMtxLock
  59              	.LVL2:
  60              	.L6:
  61              		.cfi_restore_state
  62 001c FFF7FEFF 		bl	__stack_chk_fail
  63              	.LVL3:
  64              	.L8:
  65              		.align	2
  66              	.L7:
  67 0020 00000000 		.word	__stack_chk_guard
  68              		.cfi_endproc
  69              	.LFE219:
  70              		.size	messagebus_lock_acquire, .-messagebus_lock_acquire
  71              		.section	.text.messagebus_lock_release,"ax",%progbits
  72              		.align	1
  73              		.p2align 4,,15
  74              		.global	messagebus_lock_release
  75              		.syntax unified
  76              		.thumb
  77              		.thumb_func
  78              		.fpu fpv4-sp-d16
  79              		.type	messagebus_lock_release, %function
  80              	messagebus_lock_release:
  81              	.LFB220:
  82              		.loc 1 11 0
  83              		.cfi_startproc
  84              		@ args = 0, pretend = 0, frame = 8
  85              		@ frame_needed = 0, uses_anonymous_args = 0
  86              	.LVL4:
  87 0000 00B5     		push	{lr}
  88              		.cfi_def_cfa_offset 4
  89              		.cfi_offset 14, -4
  90 0002 074B     		ldr	r3, .L14
  91 0004 83B0     		sub	sp, sp, #12
  92              		.cfi_def_cfa_offset 16
  93              		.loc 1 11 0
  94 0006 1A68     		ldr	r2, [r3]
  95 0008 0192     		str	r2, [sp, #4]
  96              	.LVL5:
  97              		.loc 1 13 0
  98 000a 019A     		ldr	r2, [sp, #4]
  99 000c 1B68     		ldr	r3, [r3]
 100 000e 9A42     		cmp	r2, r3
 101 0010 04D1     		bne	.L13
 102              		.loc 1 14 0
 103 0012 03B0     		add	sp, sp, #12
 104              		.cfi_remember_state
 105              		.cfi_def_cfa_offset 4
 106              		@ sp needed
 107 0014 5DF804EB 		ldr	lr, [sp], #4
 108              		.cfi_restore 14
 109              		.cfi_def_cfa_offset 0
 110              		.loc 1 13 0
 111 0018 FFF7FEBF 		b	chMtxUnlock
 112              	.LVL6:
 113              	.L13:
 114              		.cfi_restore_state
ARM GAS  C:\Users\pierr\AppData\Local\Temp\ccnYSy4F.s 			page 3


 115 001c FFF7FEFF 		bl	__stack_chk_fail
 116              	.LVL7:
 117              	.L15:
 118              		.align	2
 119              	.L14:
 120 0020 00000000 		.word	__stack_chk_guard
 121              		.cfi_endproc
 122              	.LFE220:
 123              		.size	messagebus_lock_release, .-messagebus_lock_release
 124              		.section	.text.messagebus_condvar_broadcast,"ax",%progbits
 125              		.align	1
 126              		.p2align 4,,15
 127              		.global	messagebus_condvar_broadcast
 128              		.syntax unified
 129              		.thumb
 130              		.thumb_func
 131              		.fpu fpv4-sp-d16
 132              		.type	messagebus_condvar_broadcast, %function
 133              	messagebus_condvar_broadcast:
 134              	.LFB221:
 135              		.loc 1 17 0
 136              		.cfi_startproc
 137              		@ args = 0, pretend = 0, frame = 8
 138              		@ frame_needed = 0, uses_anonymous_args = 0
 139              	.LVL8:
 140 0000 00B5     		push	{lr}
 141              		.cfi_def_cfa_offset 4
 142              		.cfi_offset 14, -4
 143 0002 074B     		ldr	r3, .L21
 144 0004 83B0     		sub	sp, sp, #12
 145              		.cfi_def_cfa_offset 16
 146              		.loc 1 17 0
 147 0006 1A68     		ldr	r2, [r3]
 148 0008 0192     		str	r2, [sp, #4]
 149              	.LVL9:
 150              		.loc 1 19 0
 151 000a 019A     		ldr	r2, [sp, #4]
 152 000c 1B68     		ldr	r3, [r3]
 153 000e 9A42     		cmp	r2, r3
 154 0010 04D1     		bne	.L20
 155              		.loc 1 20 0
 156 0012 03B0     		add	sp, sp, #12
 157              		.cfi_remember_state
 158              		.cfi_def_cfa_offset 4
 159              		@ sp needed
 160 0014 5DF804EB 		ldr	lr, [sp], #4
 161              		.cfi_restore 14
 162              		.cfi_def_cfa_offset 0
 163              		.loc 1 19 0
 164 0018 FFF7FEBF 		b	chCondBroadcast
 165              	.LVL10:
 166              	.L20:
 167              		.cfi_restore_state
 168 001c FFF7FEFF 		bl	__stack_chk_fail
 169              	.LVL11:
 170              	.L22:
 171              		.align	2
ARM GAS  C:\Users\pierr\AppData\Local\Temp\ccnYSy4F.s 			page 4


 172              	.L21:
 173 0020 00000000 		.word	__stack_chk_guard
 174              		.cfi_endproc
 175              	.LFE221:
 176              		.size	messagebus_condvar_broadcast, .-messagebus_condvar_broadcast
 177              		.section	.text.messagebus_condvar_wait,"ax",%progbits
 178              		.align	1
 179              		.p2align 4,,15
 180              		.global	messagebus_condvar_wait
 181              		.syntax unified
 182              		.thumb
 183              		.thumb_func
 184              		.fpu fpv4-sp-d16
 185              		.type	messagebus_condvar_wait, %function
 186              	messagebus_condvar_wait:
 187              	.LFB222:
 188              		.loc 1 23 0
 189              		.cfi_startproc
 190              		@ args = 0, pretend = 0, frame = 8
 191              		@ frame_needed = 0, uses_anonymous_args = 0
 192              	.LVL12:
 193 0000 00B5     		push	{lr}
 194              		.cfi_def_cfa_offset 4
 195              		.cfi_offset 14, -4
 196 0002 074B     		ldr	r3, .L28
 197 0004 83B0     		sub	sp, sp, #12
 198              		.cfi_def_cfa_offset 16
 199              		.loc 1 23 0
 200 0006 1A68     		ldr	r2, [r3]
 201 0008 0192     		str	r2, [sp, #4]
 202              	.LVL13:
 203              		.loc 1 25 0
 204 000a 019A     		ldr	r2, [sp, #4]
 205 000c 1B68     		ldr	r3, [r3]
 206 000e 9A42     		cmp	r2, r3
 207 0010 04D1     		bne	.L27
 208              		.loc 1 26 0
 209 0012 03B0     		add	sp, sp, #12
 210              		.cfi_remember_state
 211              		.cfi_def_cfa_offset 4
 212              		@ sp needed
 213 0014 5DF804EB 		ldr	lr, [sp], #4
 214              		.cfi_restore 14
 215              		.cfi_def_cfa_offset 0
 216              		.loc 1 25 0
 217 0018 FFF7FEBF 		b	chCondWait
 218              	.LVL14:
 219              	.L27:
 220              		.cfi_restore_state
 221 001c FFF7FEFF 		bl	__stack_chk_fail
 222              	.LVL15:
 223              	.L29:
 224              		.align	2
 225              	.L28:
 226 0020 00000000 		.word	__stack_chk_guard
 227              		.cfi_endproc
 228              	.LFE222:
ARM GAS  C:\Users\pierr\AppData\Local\Temp\ccnYSy4F.s 			page 5


 229              		.size	messagebus_condvar_wait, .-messagebus_condvar_wait
 230              		.text
 231              	.Letext0:
 232              		.file 2 "d:\\eclipse_e-puck2_win32_29_jan_2020\\eclipse_e-puck2\\tools\\gcc-arm-none-eabi-7-2017-q
 233              		.file 3 "d:\\eclipse_e-puck2_win32_29_jan_2020\\eclipse_e-puck2\\tools\\gcc-arm-none-eabi-7-2017-q
 234              		.file 4 "../../lib/e-puck2_main-processor/ChibiOS//os/rt/ports/ARMCMx/compilers/GCC/chtypes.h"
 235              		.file 5 "../../lib/e-puck2_main-processor/ChibiOS//os/rt/include/chsystypes.h"
 236              		.file 6 "../../lib/e-puck2_main-processor/ChibiOS//os/rt/include/chschd.h"
 237              		.file 7 "../../lib/e-puck2_main-processor/ChibiOS//os/ext/CMSIS/include/core_cm4.h"
 238              		.file 8 "../../lib/e-puck2_main-processor/ChibiOS//os/ext/CMSIS/ST/system_stm32f4xx.h"
 239              		.file 9 "../../lib/e-puck2_main-processor/ChibiOS//os/rt/ports/ARMCMx/chcore.h"
 240              		.file 10 "../../lib/e-puck2_main-processor/ChibiOS//os/rt/ports/ARMCMx/chcore_v7m.h"
 241              		.file 11 "../../lib/e-puck2_main-processor/ChibiOS//os/rt/include/chdebug.h"
 242              		.file 12 "../../lib/e-puck2_main-processor/ChibiOS//os/rt/include/chtm.h"
 243              		.file 13 "../../lib/e-puck2_main-processor/ChibiOS//os/rt/include/chstats.h"
 244              		.file 14 "../../lib/e-puck2_main-processor/ChibiOS//os/rt/include/chsem.h"
 245              		.file 15 "../../lib/e-puck2_main-processor/ChibiOS//os/rt/include/chmtx.h"
 246              		.file 16 "../../lib/e-puck2_main-processor/ChibiOS//os/rt/include/chregistry.h"
 247              		.file 17 "../../lib/e-puck2_main-processor/ChibiOS//os/rt/include/chcond.h"
 248              		.file 18 "d:\\eclipse_e-puck2_win32_29_jan_2020\\eclipse_e-puck2\\tools\\gcc-arm-none-eabi-7-2017-
