ARM GAS  C:\Users\pierr\AppData\Local\Temp\ccjc543f.s 			page 1


   1              		.cpu cortex-m4
   2              		.eabi_attribute 27, 1
   3              		.eabi_attribute 28, 1
   4              		.eabi_attribute 20, 1
   5              		.eabi_attribute 21, 1
   6              		.eabi_attribute 23, 3
   7              		.eabi_attribute 24, 1
   8              		.eabi_attribute 25, 1
   9              		.eabi_attribute 26, 1
  10              		.eabi_attribute 30, 2
  11              		.eabi_attribute 34, 1
  12              		.eabi_attribute 18, 4
  13              		.file	"testmbox.c"
  14              		.text
  15              	.Ltext0:
  16              		.cfi_sections	.debug_frame
  17              		.section	.text.chSysUnlock,"ax",%progbits
  18              		.align	1
  19              		.p2align 4,,15
  20              		.syntax unified
  21              		.thumb
  22              		.thumb_func
  23              		.fpu fpv4-sp-d16
  24              		.type	chSysUnlock, %function
  25              	chSysUnlock:
  26              	.LFB146:
  27              		.file 1 "../../lib/e-puck2_main-processor/ChibiOS//os/rt/include/chsys.h"
  28              		.loc 1 358 0
  29              		.cfi_startproc
  30              		@ args = 0, pretend = 0, frame = 8
  31              		@ frame_needed = 0, uses_anonymous_args = 0
  32 0000 10B5     		push	{r4, lr}
  33              		.cfi_def_cfa_offset 8
  34              		.cfi_offset 4, -8
  35              		.cfi_offset 14, -4
  36 0002 104C     		ldr	r4, .L8
  37 0004 82B0     		sub	sp, sp, #8
  38              		.cfi_def_cfa_offset 16
  39              		.loc 1 358 0
  40 0006 2368     		ldr	r3, [r4]
  41 0008 0193     		str	r3, [sp, #4]
  42              		.loc 1 360 0
  43 000a FFF7FEFF 		bl	_dbg_check_unlock
  44              	.LVL0:
  45              		.loc 1 361 0
  46 000e FFF7FEFF 		bl	_stats_stop_measure_crit_thd
  47              	.LVL1:
  48              		.loc 1 367 0
  49 0012 0D4B     		ldr	r3, .L8+4
  50 0014 1A68     		ldr	r2, [r3]
  51 0016 9A42     		cmp	r2, r3
  52 0018 04D0     		beq	.L2
  53              		.loc 1 367 0 is_stmt 0 discriminator 2
  54 001a 9969     		ldr	r1, [r3, #24]
  55 001c 9368     		ldr	r3, [r2, #8]
  56 001e 8A68     		ldr	r2, [r1, #8]
  57 0020 9A42     		cmp	r2, r3
ARM GAS  C:\Users\pierr\AppData\Local\Temp\ccjc543f.s 			page 2


  58 0022 08D3     		bcc	.L6
  59              	.L2:
  60              	.LVL2:
  61              	.LBB175:
  62              	.LBB176:
  63              	.LBB177:
  64              		.file 2 "../../lib/e-puck2_main-processor/ChibiOS//os/ext/CMSIS/include/core_cmFunc.h"
  65              		.loc 2 546 0 is_stmt 1
  66 0024 0023     		movs	r3, #0
  67              		.syntax unified
  68              	@ 546 "../../lib/e-puck2_main-processor/ChibiOS//os/ext/CMSIS/include/core_cmFunc.h" 1
  69 0026 83F31188 		MSR basepri, r3
  70              	@ 0 "" 2
  71              	.LVL3:
  72              		.thumb
  73              		.syntax unified
  74              	.LBE177:
  75              	.LBE176:
  76              	.LBE175:
  77              		.loc 1 372 0
  78 002a 019A     		ldr	r2, [sp, #4]
  79 002c 2368     		ldr	r3, [r4]
  80 002e 9A42     		cmp	r2, r3
  81 0030 05D1     		bne	.L7
  82 0032 02B0     		add	sp, sp, #8
  83              		.cfi_remember_state
  84              		.cfi_def_cfa_offset 8
  85              		@ sp needed
  86 0034 10BD     		pop	{r4, pc}
  87              	.L6:
  88              		.cfi_restore_state
  89              		.loc 1 367 0 discriminator 3
  90 0036 0548     		ldr	r0, .L8+8
  91 0038 FFF7FEFF 		bl	chSysHalt
  92              	.LVL4:
  93 003c F2E7     		b	.L2
  94              	.L7:
  95              		.loc 1 372 0
  96 003e FFF7FEFF 		bl	__stack_chk_fail
  97              	.LVL5:
  98              	.L9:
  99 0042 00BF     		.align	2
 100              	.L8:
 101 0044 00000000 		.word	__stack_chk_guard
 102 0048 00000000 		.word	ch
 103 004c 00000000 		.word	.LANCHOR0
 104              		.cfi_endproc
 105              	.LFE146:
 106              		.size	chSysUnlock, .-chSysUnlock
 107              		.section	.text.mbox1_setup,"ax",%progbits
 108              		.align	1
 109              		.p2align 4,,15
 110              		.syntax unified
 111              		.thumb
 112              		.thumb_func
 113              		.fpu fpv4-sp-d16
 114              		.type	mbox1_setup, %function
ARM GAS  C:\Users\pierr\AppData\Local\Temp\ccjc543f.s 			page 3


 115              	mbox1_setup:
 116              	.LFB219:
 117              		.file 3 "../../lib/e-puck2_main-processor/ChibiOS//test/rt/testmbox.c"
 118              		.loc 3 71 0
 119              		.cfi_startproc
 120              		@ args = 0, pretend = 0, frame = 8
 121              		@ frame_needed = 0, uses_anonymous_args = 0
 122 0000 00B5     		push	{lr}
 123              		.cfi_def_cfa_offset 4
 124              		.cfi_offset 14, -4
 125 0002 094B     		ldr	r3, .L15
 126 0004 83B0     		sub	sp, sp, #12
 127              		.cfi_def_cfa_offset 16
 128              		.loc 3 71 0
 129 0006 1A68     		ldr	r2, [r3]
 130 0008 0192     		str	r2, [sp, #4]
 131              		.loc 3 73 0
 132 000a 019A     		ldr	r2, [sp, #4]
 133 000c 1B68     		ldr	r3, [r3]
 134 000e 9A42     		cmp	r2, r3
 135 0010 07D1     		bne	.L14
 136 0012 0649     		ldr	r1, .L15+4
 137 0014 0648     		ldr	r0, .L15+8
 138 0016 0522     		movs	r2, #5
 139              		.loc 3 74 0
 140 0018 03B0     		add	sp, sp, #12
 141              		.cfi_remember_state
 142              		.cfi_def_cfa_offset 4
 143              		@ sp needed
 144 001a 5DF804EB 		ldr	lr, [sp], #4
 145              		.cfi_restore 14
 146              		.cfi_def_cfa_offset 0
 147              		.loc 3 73 0
 148 001e FFF7FEBF 		b	chMBObjectInit
 149              	.LVL6:
 150              	.L14:
 151              		.cfi_restore_state
 152 0022 FFF7FEFF 		bl	__stack_chk_fail
 153              	.LVL7:
 154              	.L16:
 155 0026 00BF     		.align	2
 156              	.L15:
 157 0028 00000000 		.word	__stack_chk_guard
 158 002c 00000000 		.word	test
 159 0030 00000000 		.word	.LANCHOR1
 160              		.cfi_endproc
 161              	.LFE219:
 162              		.size	mbox1_setup, .-mbox1_setup
 163              		.section	.text.mbox1_execute,"ax",%progbits
 164              		.align	1
 165              		.p2align 4,,15
 166              		.syntax unified
 167              		.thumb
 168              		.thumb_func
 169              		.fpu fpv4-sp-d16
 170              		.type	mbox1_execute, %function
 171              	mbox1_execute:
ARM GAS  C:\Users\pierr\AppData\Local\Temp\ccjc543f.s 			page 4


 172              	.LFB220:
 173              		.loc 3 76 0
 174              		.cfi_startproc
 175              		@ args = 0, pretend = 0, frame = 8
 176              		@ frame_needed = 0, uses_anonymous_args = 0
 177 0000 2DE9F043 		push	{r4, r5, r6, r7, r8, r9, lr}
 178              		.cfi_def_cfa_offset 28
 179              		.cfi_offset 4, -28
 180              		.cfi_offset 5, -24
 181              		.cfi_offset 6, -20
 182              		.cfi_offset 7, -16
 183              		.cfi_offset 8, -12
 184              		.cfi_offset 9, -8
 185              		.cfi_offset 14, -4
 186 0004 194D     		ldr	r5, .L42
 187 0006 83B0     		sub	sp, sp, #12
 188              		.cfi_def_cfa_offset 40
 189              		.loc 3 76 0
 190 0008 2B68     		ldr	r3, [r5]
 191 000a 0193     		str	r3, [sp, #4]
 192              	.LVL8:
 193              	.LBB352:
 194              	.LBB353:
 195              	.LBB354:
 196              	.LBB355:
 197              	.LBB356:
 198              		.loc 2 546 0
 199 000c 2023     		movs	r3, #32
 200              		.syntax unified
 201              	@ 546 "../../lib/e-puck2_main-processor/ChibiOS//os/ext/CMSIS/include/core_cmFunc.h" 1
 202 000e 83F31188 		MSR basepri, r3
 203              	@ 0 "" 2
 204              	.LVL9:
 205              		.thumb
 206              		.syntax unified
 207              	.LBE356:
 208              	.LBE355:
 209              	.LBE354:
 210              	.LBE353:
 211              	.LBE352:
 212              	.LBB358:
 213              	.LBB359:
 214              	.LBB360:
 215              	.LBB361:
 216              		.file 4 "../../lib/e-puck2_main-processor/ChibiOS//os/rt/include/chsem.h"
 217              		.loc 4 153 0
 218 0012 174E     		ldr	r6, .L42+4
 219              	.LBE361:
 220              	.LBE360:
 221              	.LBE359:
 222              	.LBE358:
 223              	.LBB365:
 224              	.LBB357:
 225              		.loc 1 349 0
 226 0014 FFF7FEFF 		bl	_stats_start_measure_crit_thd
 227              	.LVL10:
 228              		.loc 1 350 0
ARM GAS  C:\Users\pierr\AppData\Local\Temp\ccjc543f.s 			page 5


 229 0018 FFF7FEFF 		bl	_dbg_check_lock
 230              	.LVL11:
 231              	.LBE357:
 232              	.LBE365:
 233              	.LBB366:
 234              	.LBB364:
 235              		.file 5 "../../lib/e-puck2_main-processor/ChibiOS//os/rt/include/chmboxes.h"
 236              		.loc 5 160 0
 237 001c FFF7FEFF 		bl	chDbgCheckClassI
 238              	.LVL12:
 239              	.LBB363:
 240              	.LBB362:
 241              		.loc 4 151 0
 242 0020 FFF7FEFF 		bl	chDbgCheckClassI
 243              	.LVL13:
 244              	.LBE362:
 245              	.LBE363:
 246              	.LBE364:
 247              	.LBE366:
 248              		.loc 3 83 0
 249 0024 716A     		ldr	r1, [r6, #36]
 250 0026 A1F10501 		sub	r1, #5
 251 002a B1FA81F1 		clz	r1, r1
 252 002e 0120     		movs	r0, #1
 253 0030 4909     		lsrs	r1, r1, #5
 254 0032 FFF7FEFF 		bl	_test_assert
 255              	.LVL14:
 256 0036 F8B1     		cbz	r0, .L18
 257              	.LBB367:
 258              	.LBB368:
 259              		.loc 1 360 0
 260 0038 FFF7FEFF 		bl	_dbg_check_unlock
 261              	.LVL15:
 262              		.loc 1 361 0
 263 003c FFF7FEFF 		bl	_stats_stop_measure_crit_thd
 264              	.LVL16:
 265              		.loc 1 367 0
 266 0040 0C4B     		ldr	r3, .L42+8
 267 0042 1A68     		ldr	r2, [r3]
 268 0044 9A42     		cmp	r2, r3
 269 0046 05D0     		beq	.L19
 270 0048 9969     		ldr	r1, [r3, #24]
 271 004a 9368     		ldr	r3, [r2, #8]
 272 004c 8A68     		ldr	r2, [r1, #8]
 273 004e 9A42     		cmp	r2, r3
 274 0050 C0F08383 		bcc	.L39
 275              	.L19:
 276              	.LVL17:
 277              	.LBB369:
 278              	.LBB370:
 279              	.LBB371:
 280              		.loc 2 546 0
 281 0054 0023     		movs	r3, #0
 282              		.syntax unified
 283              	@ 546 "../../lib/e-puck2_main-processor/ChibiOS//os/ext/CMSIS/include/core_cmFunc.h" 1
 284 0056 83F31188 		MSR basepri, r3
 285              	@ 0 "" 2
ARM GAS  C:\Users\pierr\AppData\Local\Temp\ccjc543f.s 			page 6


 286              	.LVL18:
 287              		.thumb
 288              		.syntax unified
 289              	.L17:
 290              	.LBE371:
 291              	.LBE370:
 292              	.LBE369:
 293              	.LBE368:
 294              	.LBE367:
 295              		.loc 3 220 0
 296 005a 019A     		ldr	r2, [sp, #4]
 297 005c 2B68     		ldr	r3, [r5]
 298 005e 9A42     		cmp	r2, r3
 299 0060 40F08383 		bne	.L40
 300 0064 03B0     		add	sp, sp, #12
 301              		.cfi_remember_state
 302              		.cfi_def_cfa_offset 28
 303              		@ sp needed
 304 0066 BDE8F083 		pop	{r4, r5, r6, r7, r8, r9, pc}
 305              	.L43:
 306 006a 00BF     		.align	2
 307              	.L42:
 308 006c 00000000 		.word	__stack_chk_guard
 309 0070 00000000 		.word	.LANCHOR1
 310 0074 00000000 		.word	ch
 311              	.LVL19:
 312              	.L18:
 313              		.cfi_restore_state
 314              	.LBB373:
 315              	.LBB374:
 316              		.loc 1 367 0
 317 0078 DFF8A083 		ldr	r8, .L44+12
 318              		.loc 1 360 0
 319 007c FFF7FEFF 		bl	_dbg_check_unlock
 320              	.LVL20:
 321              		.loc 1 361 0
 322 0080 FFF7FEFF 		bl	_stats_stop_measure_crit_thd
 323              	.LVL21:
 324              		.loc 1 367 0
 325 0084 D8F80030 		ldr	r3, [r8]
 326 0088 4345     		cmp	r3, r8
 327 008a 06D0     		beq	.L21
 328 008c D8F81820 		ldr	r2, [r8, #24]
 329 0090 9B68     		ldr	r3, [r3, #8]
 330 0092 9268     		ldr	r2, [r2, #8]
 331 0094 9A42     		cmp	r2, r3
 332 0096 C0F06483 		bcc	.L41
 333              	.L21:
 334              	.LVL22:
 335              	.LBB375:
 336              	.LBB376:
 337              	.LBB377:
 338              		.loc 2 546 0
 339 009a 0023     		movs	r3, #0
 340              		.syntax unified
 341              	@ 546 "../../lib/e-puck2_main-processor/ChibiOS//os/ext/CMSIS/include/core_cmFunc.h" 1
 342 009c 83F31188 		MSR basepri, r3
ARM GAS  C:\Users\pierr\AppData\Local\Temp\ccjc543f.s 			page 7


 343              	@ 0 "" 2
 344              	.LVL23:
 345              		.thumb
 346              		.syntax unified
 347              	.LBE377:
 348              	.LBE376:
 349              	.LBE375:
 350              	.LBE374:
 351              	.LBE373:
 352              		.loc 3 89 0
 353 00a0 DB4F     		ldr	r7, .L44
 354              	.LBB383:
 355              	.LBB381:
 356              	.LBB380:
 357              	.LBB379:
 358              	.LBB378:
 359              		.loc 2 546 0
 360 00a2 4224     		movs	r4, #66
 361              	.LVL24:
 362              	.L23:
 363              	.LBE378:
 364              	.LBE379:
 365              	.LBE380:
 366              	.LBE381:
 367              	.LBE383:
 368              		.loc 3 89 0
 369 00a4 2146     		mov	r1, r4
 370 00a6 4FF0FF32 		mov	r2, #-1
 371 00aa 3846     		mov	r0, r7
 372 00ac FFF7FEFF 		bl	chMBPost
 373              	.LVL25:
 374              		.loc 3 90 0
 375 00b0 B0FA80F1 		clz	r1, r0
 376 00b4 4909     		lsrs	r1, r1, #5
 377 00b6 0220     		movs	r0, #2
 378              	.LVL26:
 379 00b8 FFF7FEFF 		bl	_test_assert
 380              	.LVL27:
 381 00bc 0028     		cmp	r0, #0
 382 00be CCD1     		bne	.L17
 383              	.LVL28:
 384 00c0 0134     		adds	r4, r4, #1
 385              	.LVL29:
 386              		.loc 3 88 0 discriminator 2
 387 00c2 462C     		cmp	r4, #70
 388 00c4 EED1     		bne	.L23
 389              		.loc 3 92 0
 390 00c6 4121     		movs	r1, #65
 391 00c8 4FF0FF32 		mov	r2, #-1
 392 00cc D048     		ldr	r0, .L44
 393 00ce FFF7FEFF 		bl	chMBPostAhead
 394              	.LVL30:
 395              		.loc 3 93 0
 396 00d2 B0FA80F1 		clz	r1, r0
 397 00d6 4909     		lsrs	r1, r1, #5
 398 00d8 0320     		movs	r0, #3
 399              	.LVL31:
ARM GAS  C:\Users\pierr\AppData\Local\Temp\ccjc543f.s 			page 8


 400 00da FFF7FEFF 		bl	_test_assert
 401              	.LVL32:
 402 00de 0028     		cmp	r0, #0
 403 00e0 BBD1     		bne	.L17
 404              		.loc 3 98 0
 405 00e2 5821     		movs	r1, #88
 406 00e4 0122     		movs	r2, #1
 407 00e6 CA48     		ldr	r0, .L44
 408 00e8 FFF7FEFF 		bl	chMBPost
 409              	.LVL33:
 410              		.loc 3 99 0
 411 00ec A0F1FF31 		sub	r1, r0, #-1
 412 00f0 B1FA81F1 		clz	r1, r1
 413 00f4 4909     		lsrs	r1, r1, #5
 414 00f6 0420     		movs	r0, #4
 415              	.LVL34:
 416 00f8 FFF7FEFF 		bl	_test_assert
 417              	.LVL35:
 418 00fc 0028     		cmp	r0, #0
 419 00fe ACD1     		bne	.L17
 420              	.LVL36:
 421              	.LBB384:
 422              	.LBB385:
 423              	.LBB386:
 424              	.LBB387:
 425              	.LBB388:
 426              		.loc 2 546 0
 427 0100 2023     		movs	r3, #32
 428              		.syntax unified
 429              	@ 546 "../../lib/e-puck2_main-processor/ChibiOS//os/ext/CMSIS/include/core_cmFunc.h" 1
 430 0102 83F31188 		MSR basepri, r3
 431              	@ 0 "" 2
 432              	.LVL37:
 433              		.thumb
 434              		.syntax unified
 435              	.LBE388:
 436              	.LBE387:
 437              	.LBE386:
 438              		.loc 1 349 0
 439 0106 FFF7FEFF 		bl	_stats_start_measure_crit_thd
 440              	.LVL38:
 441              		.loc 1 350 0
 442 010a FFF7FEFF 		bl	_dbg_check_lock
 443              	.LVL39:
 444              	.LBE385:
 445              	.LBE384:
 446              		.loc 3 101 0
 447 010e 5821     		movs	r1, #88
 448 0110 BF48     		ldr	r0, .L44
 449 0112 FFF7FEFF 		bl	chMBPostI
 450              	.LVL40:
 451 0116 0446     		mov	r4, r0
 452              	.LVL41:
 453              	.LBB389:
 454              	.LBB390:
 455              		.loc 1 360 0
 456 0118 FFF7FEFF 		bl	_dbg_check_unlock
ARM GAS  C:\Users\pierr\AppData\Local\Temp\ccjc543f.s 			page 9


 457              	.LVL42:
 458              		.loc 1 361 0
 459 011c FFF7FEFF 		bl	_stats_stop_measure_crit_thd
 460              	.LVL43:
 461              		.loc 1 367 0
 462 0120 D8F80030 		ldr	r3, [r8]
 463 0124 4345     		cmp	r3, r8
 464 0126 08D0     		beq	.L24
 465 0128 D8F81820 		ldr	r2, [r8, #24]
 466 012c 9B68     		ldr	r3, [r3, #8]
 467 012e 9268     		ldr	r2, [r2, #8]
 468 0130 9A42     		cmp	r2, r3
 469 0132 02D2     		bcs	.L24
 470 0134 B748     		ldr	r0, .L44+4
 471 0136 FFF7FEFF 		bl	chSysHalt
 472              	.LVL44:
 473              	.L24:
 474              	.LBB391:
 475              	.LBB392:
 476              	.LBB393:
 477              		.loc 2 546 0
 478 013a 0023     		movs	r3, #0
 479              		.syntax unified
 480              	@ 546 "../../lib/e-puck2_main-processor/ChibiOS//os/ext/CMSIS/include/core_cmFunc.h" 1
 481 013c 83F31188 		MSR basepri, r3
 482              	@ 0 "" 2
 483              	.LVL45:
 484              		.thumb
 485              		.syntax unified
 486              	.LBE393:
 487              	.LBE392:
 488              	.LBE391:
 489              	.LBE390:
 490              	.LBE389:
 491              		.loc 3 103 0
 492 0140 A4F1FF31 		sub	r1, r4, #-1
 493 0144 B1FA81F1 		clz	r1, r1
 494 0148 0520     		movs	r0, #5
 495 014a 4909     		lsrs	r1, r1, #5
 496 014c FFF7FEFF 		bl	_test_assert
 497              	.LVL46:
 498 0150 0028     		cmp	r0, #0
 499 0152 82D1     		bne	.L17
 500              		.loc 3 104 0
 501 0154 5821     		movs	r1, #88
 502 0156 0122     		movs	r2, #1
 503 0158 AD48     		ldr	r0, .L44
 504 015a FFF7FEFF 		bl	chMBPostAhead
 505              	.LVL47:
 506              		.loc 3 105 0
 507 015e A0F1FF31 		sub	r1, r0, #-1
 508 0162 B1FA81F1 		clz	r1, r1
 509 0166 4909     		lsrs	r1, r1, #5
 510 0168 0620     		movs	r0, #6
 511              	.LVL48:
 512 016a FFF7FEFF 		bl	_test_assert
 513              	.LVL49:
ARM GAS  C:\Users\pierr\AppData\Local\Temp\ccjc543f.s 			page 10


 514 016e 0028     		cmp	r0, #0
 515 0170 7FF473AF 		bne	.L17
 516              	.LVL50:
 517              	.LBB394:
 518              	.LBB395:
 519              	.LBB396:
 520              	.LBB397:
 521              	.LBB398:
 522              		.loc 2 546 0
 523 0174 2023     		movs	r3, #32
 524              		.syntax unified
 525              	@ 546 "../../lib/e-puck2_main-processor/ChibiOS//os/ext/CMSIS/include/core_cmFunc.h" 1
 526 0176 83F31188 		MSR basepri, r3
 527              	@ 0 "" 2
 528              	.LVL51:
 529              		.thumb
 530              		.syntax unified
 531              	.LBE398:
 532              	.LBE397:
 533              	.LBE396:
 534              		.loc 1 349 0
 535 017a FFF7FEFF 		bl	_stats_start_measure_crit_thd
 536              	.LVL52:
 537              		.loc 1 350 0
 538 017e FFF7FEFF 		bl	_dbg_check_lock
 539              	.LVL53:
 540              	.LBE395:
 541              	.LBE394:
 542              		.loc 3 107 0
 543 0182 5821     		movs	r1, #88
 544 0184 A248     		ldr	r0, .L44
 545 0186 FFF7FEFF 		bl	chMBPostAheadI
 546              	.LVL54:
 547 018a 0446     		mov	r4, r0
 548              	.LVL55:
 549              	.LBB399:
 550              	.LBB400:
 551              		.loc 1 360 0
 552 018c FFF7FEFF 		bl	_dbg_check_unlock
 553              	.LVL56:
 554              		.loc 1 361 0
 555 0190 FFF7FEFF 		bl	_stats_stop_measure_crit_thd
 556              	.LVL57:
 557              		.loc 1 367 0
 558 0194 D8F80030 		ldr	r3, [r8]
 559 0198 4345     		cmp	r3, r8
 560 019a 08D0     		beq	.L25
 561 019c D8F81820 		ldr	r2, [r8, #24]
 562 01a0 9B68     		ldr	r3, [r3, #8]
 563 01a2 9268     		ldr	r2, [r2, #8]
 564 01a4 9A42     		cmp	r2, r3
 565 01a6 02D2     		bcs	.L25
 566 01a8 9A48     		ldr	r0, .L44+4
 567 01aa FFF7FEFF 		bl	chSysHalt
 568              	.LVL58:
 569              	.L25:
 570              	.LBB401:
ARM GAS  C:\Users\pierr\AppData\Local\Temp\ccjc543f.s 			page 11


 571              	.LBB402:
 572              	.LBB403:
 573              		.loc 2 546 0
 574 01ae 0023     		movs	r3, #0
 575              		.syntax unified
 576              	@ 546 "../../lib/e-puck2_main-processor/ChibiOS//os/ext/CMSIS/include/core_cmFunc.h" 1
 577 01b0 83F31188 		MSR basepri, r3
 578              	@ 0 "" 2
 579              	.LVL59:
 580              		.thumb
 581              		.syntax unified
 582              	.LBE403:
 583              	.LBE402:
 584              	.LBE401:
 585              	.LBE400:
 586              	.LBE399:
 587              		.loc 3 109 0
 588 01b4 A4F1FF31 		sub	r1, r4, #-1
 589 01b8 B1FA81F1 		clz	r1, r1
 590 01bc 0720     		movs	r0, #7
 591 01be 4909     		lsrs	r1, r1, #5
 592 01c0 FFF7FEFF 		bl	_test_assert
 593              	.LVL60:
 594 01c4 0028     		cmp	r0, #0
 595 01c6 7FF448AF 		bne	.L17
 596              	.LVL61:
 597              	.LBB404:
 598              	.LBB405:
 599              	.LBB406:
 600              	.LBB407:
 601              	.LBB408:
 602              		.loc 2 546 0
 603 01ca 2024     		movs	r4, #32
 604              	.LVL62:
 605              		.syntax unified
 606              	@ 546 "../../lib/e-puck2_main-processor/ChibiOS//os/ext/CMSIS/include/core_cmFunc.h" 1
 607 01cc 84F31188 		MSR basepri, r4
 608              	@ 0 "" 2
 609              	.LVL63:
 610              		.thumb
 611              		.syntax unified
 612              	.LBE408:
 613              	.LBE407:
 614              	.LBE406:
 615              		.loc 1 349 0
 616 01d0 FFF7FEFF 		bl	_stats_start_measure_crit_thd
 617              	.LVL64:
 618              		.loc 1 350 0
 619 01d4 FFF7FEFF 		bl	_dbg_check_lock
 620              	.LVL65:
 621              	.LBE405:
 622              	.LBE404:
 623              	.LBB409:
 624              	.LBB410:
 625              		.loc 5 160 0
 626 01d8 FFF7FEFF 		bl	chDbgCheckClassI
 627              	.LVL66:
ARM GAS  C:\Users\pierr\AppData\Local\Temp\ccjc543f.s 			page 12


 628              	.LBB411:
 629              	.LBB412:
 630              		.loc 4 151 0
 631 01dc FFF7FEFF 		bl	chDbgCheckClassI
 632              	.LVL67:
 633              	.LBE412:
 634              	.LBE411:
 635              	.LBE410:
 636              	.LBE409:
 637              		.loc 3 114 0
 638 01e0 716A     		ldr	r1, [r6, #36]
 639 01e2 B1FA81F1 		clz	r1, r1
 640 01e6 4909     		lsrs	r1, r1, #5
 641 01e8 0820     		movs	r0, #8
 642 01ea FFF7FEFF 		bl	_test_assert
 643              	.LVL68:
 644 01ee 0028     		cmp	r0, #0
 645 01f0 40F0B082 		bne	.L38
 646              		.loc 3 114 0 is_stmt 0 discriminator 2
 647 01f4 FFF7FEFF 		bl	chSysUnlock
 648              	.LVL69:
 649              	.LBB413:
 650              	.LBB414:
 651              	.LBB415:
 652              	.LBB416:
 653              	.LBB417:
 654              		.loc 2 546 0 is_stmt 1 discriminator 2
 655              		.syntax unified
 656              	@ 546 "../../lib/e-puck2_main-processor/ChibiOS//os/ext/CMSIS/include/core_cmFunc.h" 1
 657 01f8 84F31188 		MSR basepri, r4
 658              	@ 0 "" 2
 659              	.LVL70:
 660              		.thumb
 661              		.syntax unified
 662              	.LBE417:
 663              	.LBE416:
 664              	.LBE415:
 665              		.loc 1 349 0 discriminator 2
 666 01fc FFF7FEFF 		bl	_stats_start_measure_crit_thd
 667              	.LVL71:
 668              		.loc 1 350 0 discriminator 2
 669 0200 FFF7FEFF 		bl	_dbg_check_lock
 670              	.LVL72:
 671              	.LBE414:
 672              	.LBE413:
 673              	.LBB418:
 674              	.LBB419:
 675              		.loc 5 179 0 discriminator 2
 676 0204 FFF7FEFF 		bl	chDbgCheckClassI
 677              	.LVL73:
 678              	.LBB420:
 679              	.LBB421:
 680              		.loc 4 151 0 discriminator 2
 681 0208 FFF7FEFF 		bl	chDbgCheckClassI
 682              	.LVL74:
 683              	.LBE421:
 684              	.LBE420:
ARM GAS  C:\Users\pierr\AppData\Local\Temp\ccjc543f.s 			page 13


 685              	.LBE419:
 686              	.LBE418:
 687              		.loc 3 115 0 discriminator 2
 688 020c B169     		ldr	r1, [r6, #24]
 689 020e 4A1F     		subs	r2, r1, #5
 690 0210 5142     		rsbs	r1, r2, #0
 691 0212 5141     		adcs	r1, r1, r2
 692 0214 0920     		movs	r0, #9
 693 0216 FFF7FEFF 		bl	_test_assert
 694              	.LVL75:
 695 021a 0028     		cmp	r0, #0
 696 021c 40F09A82 		bne	.L38
 697 0220 FFF7FEFF 		bl	chSysUnlock
 698              	.LVL76:
 699              	.LBB422:
 700              	.LBB423:
 701              	.LBB424:
 702              	.LBB425:
 703              	.LBB426:
 704              		.loc 2 546 0 discriminator 2
 705              		.syntax unified
 706              	@ 546 "../../lib/e-puck2_main-processor/ChibiOS//os/ext/CMSIS/include/core_cmFunc.h" 1
 707 0224 84F31188 		MSR basepri, r4
 708              	@ 0 "" 2
 709              	.LVL77:
 710              		.thumb
 711              		.syntax unified
 712              	.LBE426:
 713              	.LBE425:
 714              	.LBE424:
 715              		.loc 1 349 0 discriminator 2
 716 0228 FFF7FEFF 		bl	_stats_start_measure_crit_thd
 717              	.LVL78:
 718              		.loc 1 350 0 discriminator 2
 719 022c FFF7FEFF 		bl	_dbg_check_lock
 720              	.LVL79:
 721              	.LBE423:
 722              	.LBE422:
 723              		.loc 3 116 0 discriminator 2
 724 0230 D6E90231 		ldrd	r3, r1, [r6, #8]
 725 0234 CB1A     		subs	r3, r1, r3
 726 0236 5942     		rsbs	r1, r3, #0
 727 0238 5941     		adcs	r1, r1, r3
 728 023a 0A20     		movs	r0, #10
 729 023c FFF7FEFF 		bl	_test_assert
 730              	.LVL80:
 731 0240 0028     		cmp	r0, #0
 732 0242 40F08782 		bne	.L38
 733 0246 FFF7FEFF 		bl	chSysUnlock
 734              	.LVL81:
 735              		.loc 3 122 0 discriminator 2
 736 024a 714F     		ldr	r7, .L44
 737              		.loc 3 116 0 discriminator 2
 738 024c 0524     		movs	r4, #5
 739              	.LVL82:
 740              	.L28:
 741              		.loc 3 122 0
ARM GAS  C:\Users\pierr\AppData\Local\Temp\ccjc543f.s 			page 14


 742 024e 6946     		mov	r1, sp
 743 0250 4FF0FF32 		mov	r2, #-1
 744 0254 3846     		mov	r0, r7
 745 0256 FFF7FEFF 		bl	chMBFetch
 746              	.LVL83:
 747              		.loc 3 123 0
 748 025a B0FA80F1 		clz	r1, r0
 749 025e 4909     		lsrs	r1, r1, #5
 750 0260 0B20     		movs	r0, #11
 751              	.LVL84:
 752 0262 FFF7FEFF 		bl	_test_assert
 753              	.LVL85:
 754 0266 0028     		cmp	r0, #0
 755 0268 7FF4F7AE 		bne	.L17
 756              		.loc 3 124 0 discriminator 2
 757 026c 9DF80000 		ldrb	r0, [sp]	@ zero_extendqisi2
 758 0270 FFF7FEFF 		bl	test_emit_token
 759              	.LVL86:
 760              		.loc 3 121 0 discriminator 2
 761 0274 013C     		subs	r4, r4, #1
 762              	.LVL87:
 763 0276 EAD1     		bne	.L28
 764              		.loc 3 126 0
 765 0278 6749     		ldr	r1, .L44+8
 766 027a 0C20     		movs	r0, #12
 767 027c FFF7FEFF 		bl	_test_assert_sequence
 768              	.LVL88:
 769 0280 0028     		cmp	r0, #0
 770 0282 7FF4EAAE 		bne	.L17
 771              		.loc 3 131 0
 772 0286 4721     		movs	r1, #71
 773 0288 4FF0FF32 		mov	r2, #-1
 774 028c 6048     		ldr	r0, .L44
 775 028e FFF7FEFF 		bl	chMBPost
 776              	.LVL89:
 777              		.loc 3 132 0
 778 0292 B0FA80F1 		clz	r1, r0
 779 0296 4909     		lsrs	r1, r1, #5
 780 0298 0D20     		movs	r0, #13
 781              	.LVL90:
 782 029a FFF7FEFF 		bl	_test_assert
 783              	.LVL91:
 784 029e 0028     		cmp	r0, #0
 785 02a0 7FF4DBAE 		bne	.L17
 786              		.loc 3 133 0
 787 02a4 6946     		mov	r1, sp
 788 02a6 4FF0FF32 		mov	r2, #-1
 789 02aa 5948     		ldr	r0, .L44
 790 02ac FFF7FEFF 		bl	chMBFetch
 791              	.LVL92:
 792              		.loc 3 134 0
 793 02b0 B0FA80F1 		clz	r1, r0
 794 02b4 4909     		lsrs	r1, r1, #5
 795 02b6 0E20     		movs	r0, #14
 796              	.LVL93:
 797 02b8 FFF7FEFF 		bl	_test_assert
 798              	.LVL94:
ARM GAS  C:\Users\pierr\AppData\Local\Temp\ccjc543f.s 			page 15


 799 02bc 0028     		cmp	r0, #0
 800 02be 7FF4CCAE 		bne	.L17
 801              		.loc 3 135 0
 802 02c2 3168     		ldr	r1, [r6]
 803 02c4 B368     		ldr	r3, [r6, #8]
 804 02c6 A1EB0309 		sub	r9, r1, r3
 805 02ca D9F10001 		rsbs	r1, r9, #0
 806 02ce 41EB0901 		adc	r1, r1, r9
 807 02d2 0F20     		movs	r0, #15
 808 02d4 FFF7FEFF 		bl	_test_assert
 809              	.LVL95:
 810 02d8 0028     		cmp	r0, #0
 811 02da 7FF4BEAE 		bne	.L17
 812              		.loc 3 136 0
 813 02de 3168     		ldr	r1, [r6]
 814 02e0 F368     		ldr	r3, [r6, #12]
 815 02e2 A1EB0308 		sub	r8, r1, r3
 816 02e6 D8F10001 		rsbs	r1, r8, #0
 817 02ea 41EB0801 		adc	r1, r1, r8
 818 02ee 1020     		movs	r0, #16
 819 02f0 FFF7FEFF 		bl	_test_assert
 820              	.LVL96:
 821 02f4 0028     		cmp	r0, #0
 822 02f6 7FF4B0AE 		bne	.L17
 823              		.loc 3 141 0
 824 02fa 6946     		mov	r1, sp
 825 02fc 0122     		movs	r2, #1
 826 02fe 4448     		ldr	r0, .L44
 827 0300 FFF7FEFF 		bl	chMBFetch
 828              	.LVL97:
 829              		.loc 3 142 0
 830 0304 00F1010E 		add	lr, r0, #1
 831 0308 DEF10001 		rsbs	r1, lr, #0
 832 030c 41EB0E01 		adc	r1, r1, lr
 833 0310 1120     		movs	r0, #17
 834              	.LVL98:
 835 0312 FFF7FEFF 		bl	_test_assert
 836              	.LVL99:
 837 0316 0028     		cmp	r0, #0
 838 0318 7FF49FAE 		bne	.L17
 839              	.LVL100:
 840              	.LBB427:
 841              	.LBB428:
 842              	.LBB429:
 843              	.LBB430:
 844              	.LBB431:
 845              		.loc 2 546 0
 846 031c 2024     		movs	r4, #32
 847              	.LVL101:
 848              		.syntax unified
 849              	@ 546 "../../lib/e-puck2_main-processor/ChibiOS//os/ext/CMSIS/include/core_cmFunc.h" 1
 850 031e 84F31188 		MSR basepri, r4
 851              	@ 0 "" 2
 852              	.LVL102:
 853              		.thumb
 854              		.syntax unified
 855              	.LBE431:
ARM GAS  C:\Users\pierr\AppData\Local\Temp\ccjc543f.s 			page 16


 856              	.LBE430:
 857              	.LBE429:
 858              		.loc 1 349 0
 859 0322 FFF7FEFF 		bl	_stats_start_measure_crit_thd
 860              	.LVL103:
 861              		.loc 1 350 0
 862 0326 FFF7FEFF 		bl	_dbg_check_lock
 863              	.LVL104:
 864              	.LBE428:
 865              	.LBE427:
 866              		.loc 3 144 0
 867 032a 6946     		mov	r1, sp
 868 032c 3848     		ldr	r0, .L44
 869 032e FFF7FEFF 		bl	chMBFetchI
 870              	.LVL105:
 871 0332 0746     		mov	r7, r0
 872              	.LVL106:
 873              		.loc 3 145 0
 874 0334 FFF7FEFF 		bl	chSysUnlock
 875              	.LVL107:
 876              		.loc 3 146 0
 877 0338 07F1010C 		add	ip, r7, #1
 878 033c DCF10001 		rsbs	r1, ip, #0
 879 0340 41EB0C01 		adc	r1, r1, ip
 880 0344 1220     		movs	r0, #18
 881 0346 FFF7FEFF 		bl	_test_assert
 882              	.LVL108:
 883 034a 0028     		cmp	r0, #0
 884 034c 7FF485AE 		bne	.L17
 885              	.LVL109:
 886              	.LBB432:
 887              	.LBB433:
 888              	.LBB434:
 889              	.LBB435:
 890              	.LBB436:
 891              		.loc 2 546 0
 892              		.syntax unified
 893              	@ 546 "../../lib/e-puck2_main-processor/ChibiOS//os/ext/CMSIS/include/core_cmFunc.h" 1
 894 0350 84F31188 		MSR basepri, r4
 895              	@ 0 "" 2
 896              	.LVL110:
 897              		.thumb
 898              		.syntax unified
 899              	.LBE436:
 900              	.LBE435:
 901              	.LBE434:
 902              		.loc 1 349 0
 903 0354 FFF7FEFF 		bl	_stats_start_measure_crit_thd
 904              	.LVL111:
 905              		.loc 1 350 0
 906 0358 FFF7FEFF 		bl	_dbg_check_lock
 907              	.LVL112:
 908              	.LBE433:
 909              	.LBE432:
 910              	.LBB437:
 911              	.LBB438:
 912              		.loc 5 160 0
ARM GAS  C:\Users\pierr\AppData\Local\Temp\ccjc543f.s 			page 17


 913 035c FFF7FEFF 		bl	chDbgCheckClassI
 914              	.LVL113:
 915              	.LBB439:
 916              	.LBB440:
 917              		.loc 4 151 0
 918 0360 FFF7FEFF 		bl	chDbgCheckClassI
 919              	.LVL114:
 920              	.LBE440:
 921              	.LBE439:
 922              	.LBE438:
 923              	.LBE437:
 924              		.loc 3 151 0
 925 0364 716A     		ldr	r1, [r6, #36]
 926 0366 4F1F     		subs	r7, r1, #5
 927              	.LVL115:
 928 0368 7942     		rsbs	r1, r7, #0
 929 036a 7941     		adcs	r1, r1, r7
 930 036c 1320     		movs	r0, #19
 931 036e FFF7FEFF 		bl	_test_assert
 932              	.LVL116:
 933 0372 0028     		cmp	r0, #0
 934 0374 40F0EE81 		bne	.L38
 935              		.loc 3 151 0 is_stmt 0 discriminator 2
 936 0378 FFF7FEFF 		bl	chSysUnlock
 937              	.LVL117:
 938              	.LBB441:
 939              	.LBB442:
 940              	.LBB443:
 941              	.LBB444:
 942              	.LBB445:
 943              		.loc 2 546 0 is_stmt 1 discriminator 2
 944              		.syntax unified
 945              	@ 546 "../../lib/e-puck2_main-processor/ChibiOS//os/ext/CMSIS/include/core_cmFunc.h" 1
 946 037c 84F31188 		MSR basepri, r4
 947              	@ 0 "" 2
 948              	.LVL118:
 949              		.thumb
 950              		.syntax unified
 951              	.LBE445:
 952              	.LBE444:
 953              	.LBE443:
 954              		.loc 1 349 0 discriminator 2
 955 0380 FFF7FEFF 		bl	_stats_start_measure_crit_thd
 956              	.LVL119:
 957              		.loc 1 350 0 discriminator 2
 958 0384 FFF7FEFF 		bl	_dbg_check_lock
 959              	.LVL120:
 960              	.LBE442:
 961              	.LBE441:
 962              	.LBB446:
 963              	.LBB447:
 964              		.loc 5 179 0 discriminator 2
 965 0388 FFF7FEFF 		bl	chDbgCheckClassI
 966              	.LVL121:
 967              	.LBB448:
 968              	.LBB449:
 969              		.loc 4 151 0 discriminator 2
ARM GAS  C:\Users\pierr\AppData\Local\Temp\ccjc543f.s 			page 18


 970 038c FFF7FEFF 		bl	chDbgCheckClassI
 971              	.LVL122:
 972              	.LBE449:
 973              	.LBE448:
 974              	.LBE447:
 975              	.LBE446:
 976              		.loc 3 152 0 discriminator 2
 977 0390 B169     		ldr	r1, [r6, #24]
 978 0392 B1FA81F1 		clz	r1, r1
 979 0396 4909     		lsrs	r1, r1, #5
 980 0398 1420     		movs	r0, #20
 981 039a FFF7FEFF 		bl	_test_assert
 982              	.LVL123:
 983 039e 0028     		cmp	r0, #0
 984 03a0 40F0D881 		bne	.L38
 985 03a4 FFF7FEFF 		bl	chSysUnlock
 986              	.LVL124:
 987              	.LBB450:
 988              	.LBB451:
 989              	.LBB452:
 990              	.LBB453:
 991              	.LBB454:
 992              		.loc 2 546 0 discriminator 2
 993              		.syntax unified
 994              	@ 546 "../../lib/e-puck2_main-processor/ChibiOS//os/ext/CMSIS/include/core_cmFunc.h" 1
 995 03a8 84F31188 		MSR basepri, r4
 996              	@ 0 "" 2
 997              	.LVL125:
 998              		.thumb
 999              		.syntax unified
 1000              	.LBE454:
 1001              	.LBE453:
 1002              	.LBE452:
 1003              		.loc 1 349 0 discriminator 2
 1004 03ac FFF7FEFF 		bl	_stats_start_measure_crit_thd
 1005              	.LVL126:
 1006              		.loc 1 350 0 discriminator 2
 1007 03b0 FFF7FEFF 		bl	_dbg_check_lock
 1008              	.LVL127:
 1009              	.LBE451:
 1010              	.LBE450:
 1011              		.loc 3 153 0 discriminator 2
 1012 03b4 D6E90231 		ldrd	r3, r1, [r6, #8]
 1013 03b8 C81A     		subs	r0, r1, r3
 1014 03ba 4142     		rsbs	r1, r0, #0
 1015 03bc 4141     		adcs	r1, r1, r0
 1016 03be 1520     		movs	r0, #21
 1017 03c0 FFF7FEFF 		bl	_test_assert
 1018              	.LVL128:
 1019 03c4 0028     		cmp	r0, #0
 1020 03c6 40F0C581 		bne	.L38
 1021 03ca FFF7FEFF 		bl	chSysUnlock
 1022              	.LVL129:
 1023              	.LBB455:
 1024              	.LBB456:
 1025              	.LBB457:
 1026              	.LBB458:
ARM GAS  C:\Users\pierr\AppData\Local\Temp\ccjc543f.s 			page 19


 1027              	.LBB459:
 1028              		.loc 2 546 0 discriminator 2
 1029              		.syntax unified
 1030              	@ 546 "../../lib/e-puck2_main-processor/ChibiOS//os/ext/CMSIS/include/core_cmFunc.h" 1
 1031 03ce 84F31188 		MSR basepri, r4
 1032              	@ 0 "" 2
 1033              	.LVL130:
 1034              		.thumb
 1035              		.syntax unified
 1036              	.LBE459:
 1037              	.LBE458:
 1038              	.LBE457:
 1039              		.loc 1 349 0 discriminator 2
 1040 03d2 FFF7FEFF 		bl	_stats_start_measure_crit_thd
 1041              	.LVL131:
 1042              		.loc 1 350 0 discriminator 2
 1043 03d6 FFF7FEFF 		bl	_dbg_check_lock
 1044              	.LVL132:
 1045              	.LBE456:
 1046              	.LBE455:
 1047              		.loc 3 159 0 discriminator 2
 1048 03da 4121     		movs	r1, #65
 1049 03dc 0C48     		ldr	r0, .L44
 1050 03de FFF7FEFF 		bl	chMBPostI
 1051              	.LVL133:
 1052              		.loc 3 160 0 discriminator 2
 1053 03e2 B0FA80F1 		clz	r1, r0
 1054 03e6 4909     		lsrs	r1, r1, #5
 1055 03e8 1620     		movs	r0, #22
 1056              	.LVL134:
 1057 03ea FFF7FEFF 		bl	_test_assert
 1058              	.LVL135:
 1059 03ee 0028     		cmp	r0, #0
 1060 03f0 7FF433AE 		bne	.L17
 1061              		.loc 3 161 0
 1062 03f4 4221     		movs	r1, #66
 1063 03f6 0648     		ldr	r0, .L44
 1064 03f8 FFF7FEFF 		bl	chMBPostI
 1065              	.LVL136:
 1066              		.loc 3 162 0
 1067 03fc B0FA80F1 		clz	r1, r0
 1068 0400 4909     		lsrs	r1, r1, #5
 1069 0402 1720     		movs	r0, #23
 1070              	.LVL137:
 1071 0404 FFF7FEFF 		bl	_test_assert
 1072              	.LVL138:
 1073 0408 0028     		cmp	r0, #0
 1074 040a 7FF426AE 		bne	.L17
 1075 040e 07E0     		b	.L45
 1076              	.L46:
 1077              		.align	2
 1078              	.L44:
 1079 0410 00000000 		.word	.LANCHOR1
 1080 0414 00000000 		.word	.LANCHOR0
 1081 0418 00000000 		.word	.LC0
 1082 041c 00000000 		.word	ch
 1083              	.L45:
ARM GAS  C:\Users\pierr\AppData\Local\Temp\ccjc543f.s 			page 20


 1084              		.loc 3 163 0
 1085 0420 4321     		movs	r1, #67
 1086 0422 D348     		ldr	r0, .L47
 1087 0424 FFF7FEFF 		bl	chMBPostI
 1088              	.LVL139:
 1089              		.loc 3 164 0
 1090 0428 B0FA80F1 		clz	r1, r0
 1091 042c 4909     		lsrs	r1, r1, #5
 1092 042e 1820     		movs	r0, #24
 1093              	.LVL140:
 1094 0430 FFF7FEFF 		bl	_test_assert
 1095              	.LVL141:
 1096 0434 0028     		cmp	r0, #0
 1097 0436 7FF410AE 		bne	.L17
 1098              		.loc 3 165 0
 1099 043a 4421     		movs	r1, #68
 1100 043c CC48     		ldr	r0, .L47
 1101 043e FFF7FEFF 		bl	chMBPostI
 1102              	.LVL142:
 1103              		.loc 3 166 0
 1104 0442 B0FA80F1 		clz	r1, r0
 1105 0446 4909     		lsrs	r1, r1, #5
 1106 0448 1920     		movs	r0, #25
 1107              	.LVL143:
 1108 044a FFF7FEFF 		bl	_test_assert
 1109              	.LVL144:
 1110 044e 0028     		cmp	r0, #0
 1111 0450 7FF403AE 		bne	.L17
 1112              		.loc 3 167 0
 1113 0454 4521     		movs	r1, #69
 1114 0456 C648     		ldr	r0, .L47
 1115 0458 FFF7FEFF 		bl	chMBPostI
 1116              	.LVL145:
 1117 045c 0746     		mov	r7, r0
 1118              	.LVL146:
 1119              		.loc 3 168 0
 1120 045e FFF7FEFF 		bl	chSysUnlock
 1121              	.LVL147:
 1122              		.loc 3 169 0
 1123 0462 B7FA87F1 		clz	r1, r7
 1124 0466 4909     		lsrs	r1, r1, #5
 1125 0468 1A20     		movs	r0, #26
 1126 046a FFF7FEFF 		bl	_test_assert
 1127              	.LVL148:
 1128 046e 0028     		cmp	r0, #0
 1129 0470 7FF4F3AD 		bne	.L17
 1130              		.loc 3 170 0
 1131 0474 D6E90231 		ldrd	r3, r1, [r6, #8]
 1132 0478 CA1A     		subs	r2, r1, r3
 1133 047a 5142     		rsbs	r1, r2, #0
 1134 047c 5141     		adcs	r1, r1, r2
 1135 047e 1B20     		movs	r0, #27
 1136 0480 FFF7FEFF 		bl	_test_assert
 1137              	.LVL149:
 1138 0484 0028     		cmp	r0, #0
 1139 0486 7FF4E8AD 		bne	.L17
 1140              		.loc 3 173 0
ARM GAS  C:\Users\pierr\AppData\Local\Temp\ccjc543f.s 			page 21


 1141 048a DFF8E482 		ldr	r8, .L47
 1142 048e 0527     		movs	r7, #5
 1143              	.LVL150:
 1144              	.L29:
 1145              	.LBB460:
 1146              	.LBB461:
 1147              	.LBB462:
 1148              	.LBB463:
 1149              	.LBB464:
 1150              		.loc 2 546 0
 1151              		.syntax unified
 1152              	@ 546 "../../lib/e-puck2_main-processor/ChibiOS//os/ext/CMSIS/include/core_cmFunc.h" 1
 1153 0490 84F31188 		MSR basepri, r4
 1154              	@ 0 "" 2
 1155              	.LVL151:
 1156              		.thumb
 1157              		.syntax unified
 1158              	.LBE464:
 1159              	.LBE463:
 1160              	.LBE462:
 1161              		.loc 1 349 0
 1162 0494 FFF7FEFF 		bl	_stats_start_measure_crit_thd
 1163              	.LVL152:
 1164              		.loc 1 350 0
 1165 0498 FFF7FEFF 		bl	_dbg_check_lock
 1166              	.LVL153:
 1167              	.LBE461:
 1168              	.LBE460:
 1169              		.loc 3 173 0
 1170 049c 6946     		mov	r1, sp
 1171 049e 4046     		mov	r0, r8
 1172 04a0 FFF7FEFF 		bl	chMBFetchI
 1173              	.LVL154:
 1174 04a4 8146     		mov	r9, r0
 1175              	.LVL155:
 1176              		.loc 3 174 0
 1177 04a6 FFF7FEFF 		bl	chSysUnlock
 1178              	.LVL156:
 1179              		.loc 3 175 0
 1180 04aa B9FA89F1 		clz	r1, r9
 1181 04ae 4909     		lsrs	r1, r1, #5
 1182 04b0 1C20     		movs	r0, #28
 1183 04b2 FFF7FEFF 		bl	_test_assert
 1184              	.LVL157:
 1185 04b6 0028     		cmp	r0, #0
 1186 04b8 7FF4CFAD 		bne	.L17
 1187              		.loc 3 176 0 discriminator 2
 1188 04bc 9DF80000 		ldrb	r0, [sp]	@ zero_extendqisi2
 1189 04c0 FFF7FEFF 		bl	test_emit_token
 1190              	.LVL158:
 1191              		.loc 3 171 0 discriminator 2
 1192 04c4 013F     		subs	r7, r7, #1
 1193              	.LVL159:
 1194 04c6 E3D1     		bne	.L29
 1195              		.loc 3 178 0
 1196 04c8 AA49     		ldr	r1, .L47+4
 1197 04ca 1D20     		movs	r0, #29
ARM GAS  C:\Users\pierr\AppData\Local\Temp\ccjc543f.s 			page 22


 1198 04cc FFF7FEFF 		bl	_test_assert_sequence
 1199              	.LVL160:
 1200 04d0 0028     		cmp	r0, #0
 1201 04d2 7FF4C2AD 		bne	.L17
 1202              	.LVL161:
 1203              	.LBB465:
 1204              	.LBB466:
 1205              	.LBB467:
 1206              	.LBB468:
 1207              	.LBB469:
 1208              		.loc 2 546 0
 1209              		.syntax unified
 1210              	@ 546 "../../lib/e-puck2_main-processor/ChibiOS//os/ext/CMSIS/include/core_cmFunc.h" 1
 1211 04d6 84F31188 		MSR basepri, r4
 1212              	@ 0 "" 2
 1213              	.LVL162:
 1214              		.thumb
 1215              		.syntax unified
 1216              	.LBE469:
 1217              	.LBE468:
 1218              	.LBE467:
 1219              		.loc 1 349 0
 1220 04da FFF7FEFF 		bl	_stats_start_measure_crit_thd
 1221              	.LVL163:
 1222              		.loc 1 350 0
 1223 04de FFF7FEFF 		bl	_dbg_check_lock
 1224              	.LVL164:
 1225              	.LBE466:
 1226              	.LBE465:
 1227              	.LBB470:
 1228              	.LBB471:
 1229              		.loc 5 160 0
 1230 04e2 FFF7FEFF 		bl	chDbgCheckClassI
 1231              	.LVL165:
 1232              	.LBB472:
 1233              	.LBB473:
 1234              		.loc 4 151 0
 1235 04e6 FFF7FEFF 		bl	chDbgCheckClassI
 1236              	.LVL166:
 1237              	.LBE473:
 1238              	.LBE472:
 1239              	.LBE471:
 1240              	.LBE470:
 1241              		.loc 3 179 0
 1242 04ea 716A     		ldr	r1, [r6, #36]
 1243 04ec 4B1F     		subs	r3, r1, #5
 1244 04ee 5942     		rsbs	r1, r3, #0
 1245 04f0 5941     		adcs	r1, r1, r3
 1246 04f2 1E20     		movs	r0, #30
 1247 04f4 FFF7FEFF 		bl	_test_assert
 1248              	.LVL167:
 1249 04f8 0028     		cmp	r0, #0
 1250 04fa 40F02B81 		bne	.L38
 1251              		.loc 3 179 0 is_stmt 0 discriminator 2
 1252 04fe FFF7FEFF 		bl	chSysUnlock
 1253              	.LVL168:
 1254              	.LBB474:
ARM GAS  C:\Users\pierr\AppData\Local\Temp\ccjc543f.s 			page 23


 1255              	.LBB475:
 1256              	.LBB476:
 1257              	.LBB477:
 1258              	.LBB478:
 1259              		.loc 2 546 0 is_stmt 1 discriminator 2
 1260              		.syntax unified
 1261              	@ 546 "../../lib/e-puck2_main-processor/ChibiOS//os/ext/CMSIS/include/core_cmFunc.h" 1
 1262 0502 84F31188 		MSR basepri, r4
 1263              	@ 0 "" 2
 1264              	.LVL169:
 1265              		.thumb
 1266              		.syntax unified
 1267              	.LBE478:
 1268              	.LBE477:
 1269              	.LBE476:
 1270              		.loc 1 349 0 discriminator 2
 1271 0506 FFF7FEFF 		bl	_stats_start_measure_crit_thd
 1272              	.LVL170:
 1273              		.loc 1 350 0 discriminator 2
 1274 050a FFF7FEFF 		bl	_dbg_check_lock
 1275              	.LVL171:
 1276              	.LBE475:
 1277              	.LBE474:
 1278              	.LBB479:
 1279              	.LBB480:
 1280              		.loc 5 179 0 discriminator 2
 1281 050e FFF7FEFF 		bl	chDbgCheckClassI
 1282              	.LVL172:
 1283              	.LBB481:
 1284              	.LBB482:
 1285              		.loc 4 151 0 discriminator 2
 1286 0512 FFF7FEFF 		bl	chDbgCheckClassI
 1287              	.LVL173:
 1288              	.LBE482:
 1289              	.LBE481:
 1290              	.LBE480:
 1291              	.LBE479:
 1292              		.loc 3 180 0 discriminator 2
 1293 0516 B169     		ldr	r1, [r6, #24]
 1294 0518 B1FA81F1 		clz	r1, r1
 1295 051c 4909     		lsrs	r1, r1, #5
 1296 051e 1F20     		movs	r0, #31
 1297 0520 FFF7FEFF 		bl	_test_assert
 1298              	.LVL174:
 1299 0524 0028     		cmp	r0, #0
 1300 0526 40F01581 		bne	.L38
 1301 052a FFF7FEFF 		bl	chSysUnlock
 1302              	.LVL175:
 1303              		.loc 3 181 0 discriminator 2
 1304 052e D6E90231 		ldrd	r3, r1, [r6, #8]
 1305 0532 A1EB0309 		sub	r9, r1, r3
 1306              	.LVL176:
 1307 0536 D9F10001 		rsbs	r1, r9, #0
 1308 053a 41EB0901 		adc	r1, r1, r9
 1309 053e 2020     		movs	r0, #32
 1310 0540 FFF7FEFF 		bl	_test_assert
 1311              	.LVL177:
ARM GAS  C:\Users\pierr\AppData\Local\Temp\ccjc543f.s 			page 24


 1312 0544 0028     		cmp	r0, #0
 1313 0546 7FF488AD 		bne	.L17
 1314              	.LVL178:
 1315              	.LBB483:
 1316              	.LBB484:
 1317              	.LBB485:
 1318              	.LBB486:
 1319              	.LBB487:
 1320              		.loc 2 546 0
 1321              		.syntax unified
 1322              	@ 546 "../../lib/e-puck2_main-processor/ChibiOS//os/ext/CMSIS/include/core_cmFunc.h" 1
 1323 054a 84F31188 		MSR basepri, r4
 1324              	@ 0 "" 2
 1325              	.LVL179:
 1326              		.thumb
 1327              		.syntax unified
 1328              	.LBE487:
 1329              	.LBE486:
 1330              	.LBE485:
 1331              		.loc 1 349 0
 1332 054e FFF7FEFF 		bl	_stats_start_measure_crit_thd
 1333              	.LVL180:
 1334              		.loc 1 350 0
 1335 0552 FFF7FEFF 		bl	_dbg_check_lock
 1336              	.LVL181:
 1337              	.LBE484:
 1338              	.LBE483:
 1339              		.loc 3 184 0
 1340 0556 4521     		movs	r1, #69
 1341 0558 8548     		ldr	r0, .L47
 1342 055a FFF7FEFF 		bl	chMBPostAheadI
 1343              	.LVL182:
 1344              		.loc 3 185 0
 1345 055e B0FA80F1 		clz	r1, r0
 1346 0562 4909     		lsrs	r1, r1, #5
 1347 0564 2120     		movs	r0, #33
 1348              	.LVL183:
 1349 0566 FFF7FEFF 		bl	_test_assert
 1350              	.LVL184:
 1351 056a 0028     		cmp	r0, #0
 1352 056c 7FF475AD 		bne	.L17
 1353              		.loc 3 186 0
 1354 0570 4421     		movs	r1, #68
 1355 0572 7F48     		ldr	r0, .L47
 1356 0574 FFF7FEFF 		bl	chMBPostAheadI
 1357              	.LVL185:
 1358              		.loc 3 187 0
 1359 0578 B0FA80F1 		clz	r1, r0
 1360 057c 4909     		lsrs	r1, r1, #5
 1361 057e 2220     		movs	r0, #34
 1362              	.LVL186:
 1363 0580 FFF7FEFF 		bl	_test_assert
 1364              	.LVL187:
 1365 0584 0028     		cmp	r0, #0
 1366 0586 7FF468AD 		bne	.L17
 1367              		.loc 3 188 0
 1368 058a 4321     		movs	r1, #67
ARM GAS  C:\Users\pierr\AppData\Local\Temp\ccjc543f.s 			page 25


 1369 058c 7848     		ldr	r0, .L47
 1370 058e FFF7FEFF 		bl	chMBPostAheadI
 1371              	.LVL188:
 1372              		.loc 3 189 0
 1373 0592 B0FA80F1 		clz	r1, r0
 1374 0596 4909     		lsrs	r1, r1, #5
 1375 0598 2320     		movs	r0, #35
 1376              	.LVL189:
 1377 059a FFF7FEFF 		bl	_test_assert
 1378              	.LVL190:
 1379 059e 0028     		cmp	r0, #0
 1380 05a0 7FF45BAD 		bne	.L17
 1381              		.loc 3 190 0
 1382 05a4 4221     		movs	r1, #66
 1383 05a6 7248     		ldr	r0, .L47
 1384 05a8 FFF7FEFF 		bl	chMBPostAheadI
 1385              	.LVL191:
 1386              		.loc 3 191 0
 1387 05ac B0FA80F1 		clz	r1, r0
 1388 05b0 4909     		lsrs	r1, r1, #5
 1389 05b2 2420     		movs	r0, #36
 1390              	.LVL192:
 1391 05b4 FFF7FEFF 		bl	_test_assert
 1392              	.LVL193:
 1393 05b8 0028     		cmp	r0, #0
 1394 05ba 7FF44EAD 		bne	.L17
 1395              		.loc 3 192 0
 1396 05be 4121     		movs	r1, #65
 1397 05c0 6B48     		ldr	r0, .L47
 1398 05c2 FFF7FEFF 		bl	chMBPostAheadI
 1399              	.LVL194:
 1400 05c6 0446     		mov	r4, r0
 1401              	.LVL195:
 1402              		.loc 3 193 0
 1403 05c8 FFF7FEFF 		bl	chSysUnlock
 1404              	.LVL196:
 1405              		.loc 3 194 0
 1406 05cc B4FA84F1 		clz	r1, r4
 1407 05d0 4909     		lsrs	r1, r1, #5
 1408 05d2 2520     		movs	r0, #37
 1409 05d4 FFF7FEFF 		bl	_test_assert
 1410              	.LVL197:
 1411 05d8 0028     		cmp	r0, #0
 1412 05da 7FF43EAD 		bne	.L17
 1413              		.loc 3 195 0
 1414 05de D6E90231 		ldrd	r3, r1, [r6, #8]
 1415 05e2 A1EB0308 		sub	r8, r1, r3
 1416 05e6 D8F10001 		rsbs	r1, r8, #0
 1417 05ea 41EB0801 		adc	r1, r1, r8
 1418 05ee 2620     		movs	r0, #38
 1419 05f0 FFF7FEFF 		bl	_test_assert
 1420              	.LVL198:
 1421 05f4 0028     		cmp	r0, #0
 1422 05f6 7FF430AD 		bne	.L17
 1423              		.loc 3 198 0
 1424 05fa DFF87481 		ldr	r8, .L47
 1425 05fe 0527     		movs	r7, #5
ARM GAS  C:\Users\pierr\AppData\Local\Temp\ccjc543f.s 			page 26


 1426              	.LVL199:
 1427              	.LBB488:
 1428              	.LBB489:
 1429              	.LBB490:
 1430              	.LBB491:
 1431              	.LBB492:
 1432              		.loc 2 546 0
 1433 0600 2024     		movs	r4, #32
 1434              	.LVL200:
 1435              	.L30:
 1436              		.syntax unified
 1437              	@ 546 "../../lib/e-puck2_main-processor/ChibiOS//os/ext/CMSIS/include/core_cmFunc.h" 1
 1438 0602 84F31188 		MSR basepri, r4
 1439              	@ 0 "" 2
 1440              	.LVL201:
 1441              		.thumb
 1442              		.syntax unified
 1443              	.LBE492:
 1444              	.LBE491:
 1445              	.LBE490:
 1446              		.loc 1 349 0
 1447 0606 FFF7FEFF 		bl	_stats_start_measure_crit_thd
 1448              	.LVL202:
 1449              		.loc 1 350 0
 1450 060a FFF7FEFF 		bl	_dbg_check_lock
 1451              	.LVL203:
 1452              	.LBE489:
 1453              	.LBE488:
 1454              		.loc 3 198 0
 1455 060e 6946     		mov	r1, sp
 1456 0610 4046     		mov	r0, r8
 1457 0612 FFF7FEFF 		bl	chMBFetchI
 1458              	.LVL204:
 1459 0616 8146     		mov	r9, r0
 1460              	.LVL205:
 1461              		.loc 3 199 0
 1462 0618 FFF7FEFF 		bl	chSysUnlock
 1463              	.LVL206:
 1464              		.loc 3 200 0
 1465 061c B9FA89F1 		clz	r1, r9
 1466 0620 4909     		lsrs	r1, r1, #5
 1467 0622 2720     		movs	r0, #39
 1468 0624 FFF7FEFF 		bl	_test_assert
 1469              	.LVL207:
 1470 0628 0028     		cmp	r0, #0
 1471 062a 7FF416AD 		bne	.L17
 1472              		.loc 3 201 0 discriminator 2
 1473 062e 9DF80000 		ldrb	r0, [sp]	@ zero_extendqisi2
 1474 0632 FFF7FEFF 		bl	test_emit_token
 1475              	.LVL208:
 1476              		.loc 3 196 0 discriminator 2
 1477 0636 013F     		subs	r7, r7, #1
 1478              	.LVL209:
 1479 0638 E3D1     		bne	.L30
 1480              		.loc 3 203 0
 1481 063a 4E49     		ldr	r1, .L47+4
 1482 063c 2820     		movs	r0, #40
ARM GAS  C:\Users\pierr\AppData\Local\Temp\ccjc543f.s 			page 27


 1483 063e FFF7FEFF 		bl	_test_assert_sequence
 1484              	.LVL210:
 1485 0642 0028     		cmp	r0, #0
 1486 0644 7FF409AD 		bne	.L17
 1487              	.LVL211:
 1488              	.LBB493:
 1489              	.LBB494:
 1490              	.LBB495:
 1491              	.LBB496:
 1492              	.LBB497:
 1493              		.loc 2 546 0
 1494              		.syntax unified
 1495              	@ 546 "../../lib/e-puck2_main-processor/ChibiOS//os/ext/CMSIS/include/core_cmFunc.h" 1
 1496 0648 84F31188 		MSR basepri, r4
 1497              	@ 0 "" 2
 1498              	.LVL212:
 1499              		.thumb
 1500              		.syntax unified
 1501              	.LBE497:
 1502              	.LBE496:
 1503              	.LBE495:
 1504              		.loc 1 349 0
 1505 064c FFF7FEFF 		bl	_stats_start_measure_crit_thd
 1506              	.LVL213:
 1507              		.loc 1 350 0
 1508 0650 FFF7FEFF 		bl	_dbg_check_lock
 1509              	.LVL214:
 1510              	.LBE494:
 1511              	.LBE493:
 1512              	.LBB498:
 1513              	.LBB499:
 1514              		.loc 5 160 0
 1515 0654 FFF7FEFF 		bl	chDbgCheckClassI
 1516              	.LVL215:
 1517              	.LBB500:
 1518              	.LBB501:
 1519              		.loc 4 151 0
 1520 0658 FFF7FEFF 		bl	chDbgCheckClassI
 1521              	.LVL216:
 1522              	.LBE501:
 1523              	.LBE500:
 1524              	.LBE499:
 1525              	.LBE498:
 1526              		.loc 3 204 0
 1527 065c 716A     		ldr	r1, [r6, #36]
 1528 065e A1F1050E 		sub	lr, r1, #5
 1529 0662 DEF10001 		rsbs	r1, lr, #0
 1530 0666 41EB0E01 		adc	r1, r1, lr
 1531 066a 2920     		movs	r0, #41
 1532 066c FFF7FEFF 		bl	_test_assert
 1533              	.LVL217:
 1534 0670 0028     		cmp	r0, #0
 1535 0672 6FD1     		bne	.L38
 1536              		.loc 3 204 0 is_stmt 0 discriminator 2
 1537 0674 FFF7FEFF 		bl	chSysUnlock
 1538              	.LVL218:
 1539              	.LBB502:
ARM GAS  C:\Users\pierr\AppData\Local\Temp\ccjc543f.s 			page 28


 1540              	.LBB503:
 1541              	.LBB504:
 1542              	.LBB505:
 1543              	.LBB506:
 1544              		.loc 2 546 0 is_stmt 1 discriminator 2
 1545              		.syntax unified
 1546              	@ 546 "../../lib/e-puck2_main-processor/ChibiOS//os/ext/CMSIS/include/core_cmFunc.h" 1
 1547 0678 84F31188 		MSR basepri, r4
 1548              	@ 0 "" 2
 1549              	.LVL219:
 1550              		.thumb
 1551              		.syntax unified
 1552              	.LBE506:
 1553              	.LBE505:
 1554              	.LBE504:
 1555              		.loc 1 349 0 discriminator 2
 1556 067c FFF7FEFF 		bl	_stats_start_measure_crit_thd
 1557              	.LVL220:
 1558              		.loc 1 350 0 discriminator 2
 1559 0680 FFF7FEFF 		bl	_dbg_check_lock
 1560              	.LVL221:
 1561              	.LBE503:
 1562              	.LBE502:
 1563              	.LBB507:
 1564              	.LBB508:
 1565              		.loc 5 179 0 discriminator 2
 1566 0684 FFF7FEFF 		bl	chDbgCheckClassI
 1567              	.LVL222:
 1568              	.LBB509:
 1569              	.LBB510:
 1570              		.loc 4 151 0 discriminator 2
 1571 0688 FFF7FEFF 		bl	chDbgCheckClassI
 1572              	.LVL223:
 1573              	.LBE510:
 1574              	.LBE509:
 1575              	.LBE508:
 1576              	.LBE507:
 1577              		.loc 3 205 0 discriminator 2
 1578 068c B169     		ldr	r1, [r6, #24]
 1579 068e B1FA81F1 		clz	r1, r1
 1580 0692 4909     		lsrs	r1, r1, #5
 1581 0694 2A20     		movs	r0, #42
 1582 0696 FFF7FEFF 		bl	_test_assert
 1583              	.LVL224:
 1584 069a 0028     		cmp	r0, #0
 1585 069c 5AD1     		bne	.L38
 1586 069e FFF7FEFF 		bl	chSysUnlock
 1587              	.LVL225:
 1588              		.loc 3 206 0 discriminator 2
 1589 06a2 D6E90231 		ldrd	r3, r1, [r6, #8]
 1590 06a6 A1EB030C 		sub	ip, r1, r3
 1591 06aa DCF10001 		rsbs	r1, ip, #0
 1592 06ae 41EB0C01 		adc	r1, r1, ip
 1593 06b2 2B20     		movs	r0, #43
 1594 06b4 FFF7FEFF 		bl	_test_assert
 1595              	.LVL226:
 1596 06b8 0028     		cmp	r0, #0
ARM GAS  C:\Users\pierr\AppData\Local\Temp\ccjc543f.s 			page 29


 1597 06ba 7FF4CEAC 		bne	.L17
 1598              		.loc 3 211 0
 1599 06be 2C48     		ldr	r0, .L47
 1600 06c0 FFF7FEFF 		bl	chMBReset
 1601              	.LVL227:
 1602              	.LBB511:
 1603              	.LBB512:
 1604              	.LBB513:
 1605              	.LBB514:
 1606              	.LBB515:
 1607              		.loc 2 546 0
 1608              		.syntax unified
 1609              	@ 546 "../../lib/e-puck2_main-processor/ChibiOS//os/ext/CMSIS/include/core_cmFunc.h" 1
 1610 06c4 84F31188 		MSR basepri, r4
 1611              	@ 0 "" 2
 1612              	.LVL228:
 1613              		.thumb
 1614              		.syntax unified
 1615              	.LBE515:
 1616              	.LBE514:
 1617              	.LBE513:
 1618              		.loc 1 349 0
 1619 06c8 FFF7FEFF 		bl	_stats_start_measure_crit_thd
 1620              	.LVL229:
 1621              		.loc 1 350 0
 1622 06cc FFF7FEFF 		bl	_dbg_check_lock
 1623              	.LVL230:
 1624              	.LBE512:
 1625              	.LBE511:
 1626              	.LBB516:
 1627              	.LBB517:
 1628              		.loc 5 160 0
 1629 06d0 FFF7FEFF 		bl	chDbgCheckClassI
 1630              	.LVL231:
 1631              	.LBB518:
 1632              	.LBB519:
 1633              		.loc 4 151 0
 1634 06d4 FFF7FEFF 		bl	chDbgCheckClassI
 1635              	.LVL232:
 1636              	.LBE519:
 1637              	.LBE518:
 1638              	.LBE517:
 1639              	.LBE516:
 1640              		.loc 3 216 0
 1641 06d8 716A     		ldr	r1, [r6, #36]
 1642 06da 4F1F     		subs	r7, r1, #5
 1643              	.LVL233:
 1644 06dc 7942     		rsbs	r1, r7, #0
 1645 06de 7941     		adcs	r1, r1, r7
 1646 06e0 2C20     		movs	r0, #44
 1647 06e2 FFF7FEFF 		bl	_test_assert
 1648              	.LVL234:
 1649 06e6 A8BB     		cbnz	r0, .L38
 1650              		.loc 3 216 0 is_stmt 0 discriminator 2
 1651 06e8 FFF7FEFF 		bl	chSysUnlock
 1652              	.LVL235:
 1653              	.LBB520:
ARM GAS  C:\Users\pierr\AppData\Local\Temp\ccjc543f.s 			page 30


 1654              	.LBB521:
 1655              	.LBB522:
 1656              	.LBB523:
 1657              	.LBB524:
 1658              		.loc 2 546 0 is_stmt 1 discriminator 2
 1659              		.syntax unified
 1660              	@ 546 "../../lib/e-puck2_main-processor/ChibiOS//os/ext/CMSIS/include/core_cmFunc.h" 1
 1661 06ec 84F31188 		MSR basepri, r4
 1662              	@ 0 "" 2
 1663              	.LVL236:
 1664              		.thumb
 1665              		.syntax unified
 1666              	.LBE524:
 1667              	.LBE523:
 1668              	.LBE522:
 1669              		.loc 1 349 0 discriminator 2
 1670 06f0 FFF7FEFF 		bl	_stats_start_measure_crit_thd
 1671              	.LVL237:
 1672              		.loc 1 350 0 discriminator 2
 1673 06f4 FFF7FEFF 		bl	_dbg_check_lock
 1674              	.LVL238:
 1675              	.LBE521:
 1676              	.LBE520:
 1677              	.LBB525:
 1678              	.LBB526:
 1679              		.loc 5 179 0 discriminator 2
 1680 06f8 FFF7FEFF 		bl	chDbgCheckClassI
 1681              	.LVL239:
 1682              	.LBB527:
 1683              	.LBB528:
 1684              		.loc 4 151 0 discriminator 2
 1685 06fc FFF7FEFF 		bl	chDbgCheckClassI
 1686              	.LVL240:
 1687              	.LBE528:
 1688              	.LBE527:
 1689              	.LBE526:
 1690              	.LBE525:
 1691              		.loc 3 217 0 discriminator 2
 1692 0700 B169     		ldr	r1, [r6, #24]
 1693 0702 B1FA81F1 		clz	r1, r1
 1694 0706 4909     		lsrs	r1, r1, #5
 1695 0708 2D20     		movs	r0, #45
 1696 070a FFF7FEFF 		bl	_test_assert
 1697              	.LVL241:
 1698 070e 08BB     		cbnz	r0, .L38
 1699 0710 FFF7FEFF 		bl	chSysUnlock
 1700              	.LVL242:
 1701              	.LBB529:
 1702              	.LBB530:
 1703              	.LBB531:
 1704              	.LBB532:
 1705              	.LBB533:
 1706              		.loc 2 546 0 discriminator 2
 1707              		.syntax unified
 1708              	@ 546 "../../lib/e-puck2_main-processor/ChibiOS//os/ext/CMSIS/include/core_cmFunc.h" 1
 1709 0714 84F31188 		MSR basepri, r4
 1710              	@ 0 "" 2
ARM GAS  C:\Users\pierr\AppData\Local\Temp\ccjc543f.s 			page 31


 1711              	.LVL243:
 1712              		.thumb
 1713              		.syntax unified
 1714              	.LBE533:
 1715              	.LBE532:
 1716              	.LBE531:
 1717              		.loc 1 349 0 discriminator 2
 1718 0718 FFF7FEFF 		bl	_stats_start_measure_crit_thd
 1719              	.LVL244:
 1720              		.loc 1 350 0 discriminator 2
 1721 071c FFF7FEFF 		bl	_dbg_check_lock
 1722              	.LVL245:
 1723              	.LBE530:
 1724              	.LBE529:
 1725              		.loc 3 218 0 discriminator 2
 1726 0720 3168     		ldr	r1, [r6]
 1727 0722 B368     		ldr	r3, [r6, #8]
 1728 0724 CA1A     		subs	r2, r1, r3
 1729 0726 5142     		rsbs	r1, r2, #0
 1730 0728 5141     		adcs	r1, r1, r2
 1731 072a 2E20     		movs	r0, #46
 1732 072c FFF7FEFF 		bl	_test_assert
 1733              	.LVL246:
 1734 0730 80B9     		cbnz	r0, .L38
 1735 0732 FFF7FEFF 		bl	chSysUnlock
 1736              	.LVL247:
 1737              	.LBB534:
 1738              	.LBB535:
 1739              	.LBB536:
 1740              	.LBB537:
 1741              	.LBB538:
 1742              		.loc 2 546 0 discriminator 2
 1743              		.syntax unified
 1744              	@ 546 "../../lib/e-puck2_main-processor/ChibiOS//os/ext/CMSIS/include/core_cmFunc.h" 1
 1745 0736 84F31188 		MSR basepri, r4
 1746              	@ 0 "" 2
 1747              	.LVL248:
 1748              		.thumb
 1749              		.syntax unified
 1750              	.LBE538:
 1751              	.LBE537:
 1752              	.LBE536:
 1753              		.loc 1 349 0 discriminator 2
 1754 073a FFF7FEFF 		bl	_stats_start_measure_crit_thd
 1755              	.LVL249:
 1756              		.loc 1 350 0 discriminator 2
 1757 073e FFF7FEFF 		bl	_dbg_check_lock
 1758              	.LVL250:
 1759              	.LBE535:
 1760              	.LBE534:
 1761              		.loc 3 219 0 discriminator 2
 1762 0742 3168     		ldr	r1, [r6]
 1763 0744 F368     		ldr	r3, [r6, #12]
 1764 0746 CB1A     		subs	r3, r1, r3
 1765 0748 5942     		rsbs	r1, r3, #0
 1766 074a 4FF02F00 		mov	r0, #47
 1767 074e 5941     		adcs	r1, r1, r3
ARM GAS  C:\Users\pierr\AppData\Local\Temp\ccjc543f.s 			page 32


 1768 0750 FFF7FEFF 		bl	_test_assert
 1769              	.LVL251:
 1770              	.L38:
 1771 0754 FFF7FEFF 		bl	chSysUnlock
 1772              	.LVL252:
 1773 0758 7FE4     		b	.L17
 1774              	.LVL253:
 1775              	.L39:
 1776              	.LBB539:
 1777              	.LBB372:
 1778              		.loc 1 367 0
 1779 075a 0748     		ldr	r0, .L47+8
 1780 075c FFF7FEFF 		bl	chSysHalt
 1781              	.LVL254:
 1782 0760 78E4     		b	.L19
 1783              	.L41:
 1784              	.LBE372:
 1785              	.LBE539:
 1786              	.LBB540:
 1787              	.LBB382:
 1788 0762 0548     		ldr	r0, .L47+8
 1789 0764 FFF7FEFF 		bl	chSysHalt
 1790              	.LVL255:
 1791 0768 97E4     		b	.L21
 1792              	.LVL256:
 1793              	.L40:
 1794              	.LBE382:
 1795              	.LBE540:
 1796              		.loc 3 220 0
 1797 076a FFF7FEFF 		bl	__stack_chk_fail
 1798              	.LVL257:
 1799              	.L48:
 1800 076e 00BF     		.align	2
 1801              	.L47:
 1802 0770 00000000 		.word	.LANCHOR1
 1803 0774 00000000 		.word	.LC0
 1804 0778 00000000 		.word	.LANCHOR0
 1805              		.cfi_endproc
 1806              	.LFE220:
 1807              		.size	mbox1_execute, .-mbox1_execute
 1808              		.global	patternmbox
 1809              		.global	testmbox1
 1810              		.section	.data.mb1,"aw",%progbits
 1811              		.align	2
 1812              		.set	.LANCHOR1,. + 0
 1813              		.type	mb1, %object
 1814              		.size	mb1, 40
 1815              	mb1:
 1816 0000 00000000 		.word	test
 1817 0004 14000000 		.word	test+20
 1818 0008 00000000 		.word	test
 1819 000c 00000000 		.word	test
 1820 0010 10000000 		.word	mb1+16
 1821 0014 10000000 		.word	mb1+16
 1822 0018 00000000 		.word	0
 1823 001c 1C000000 		.word	mb1+28
 1824 0020 1C000000 		.word	mb1+28
ARM GAS  C:\Users\pierr\AppData\Local\Temp\ccjc543f.s 			page 33


 1825 0024 05000000 		.word	5
 1826              		.section	.rodata.__func__.7153,"a",%progbits
 1827              		.align	2
 1828              		.set	.LANCHOR0,. + 0
 1829              		.type	__func__.7153, %object
 1830              		.size	__func__.7153, 12
 1831              	__func__.7153:
 1832 0000 63685379 		.ascii	"chSysUnlock\000"
 1832      73556E6C 
 1832      6F636B00 
 1833              		.section	.rodata.mbox1_execute.str1.4,"aMS",%progbits,1
 1834              		.align	2
 1835              	.LC0:
 1836 0000 41424344 		.ascii	"ABCDE\000"
 1836      4500
 1837              		.section	.rodata.patternmbox,"a",%progbits
 1838              		.align	2
 1839              		.type	patternmbox, %object
 1840              		.size	patternmbox, 8
 1841              	patternmbox:
 1842 0000 00000000 		.word	testmbox1
 1843 0004 00000000 		.word	0
 1844              		.section	.rodata.str1.4,"aMS",%progbits,1
 1845              		.align	2
 1846              	.LC1:
 1847 0000 4D61696C 		.ascii	"Mailboxes, queuing and timeouts\000"
 1847      626F7865 
 1847      732C2071 
 1847      75657569 
 1847      6E672061 
 1848              		.section	.rodata.testmbox1,"a",%progbits
 1849              		.align	2
 1850              		.type	testmbox1, %object
 1851              		.size	testmbox1, 16
 1852              	testmbox1:
 1853 0000 00000000 		.word	.LC1
 1854 0004 00000000 		.word	mbox1_setup
 1855 0008 00000000 		.word	0
 1856 000c 00000000 		.word	mbox1_execute
 1857              		.text
 1858              	.Letext0:
 1859              		.file 6 "d:\\eclipse_e-puck2_win32_29_jan_2020\\eclipse_e-puck2\\tools\\gcc-arm-none-eabi-7-2017-q
 1860              		.file 7 "d:\\eclipse_e-puck2_win32_29_jan_2020\\eclipse_e-puck2\\tools\\gcc-arm-none-eabi-7-2017-q
 1861              		.file 8 "d:\\eclipse_e-puck2_win32_29_jan_2020\\eclipse_e-puck2\\tools\\gcc-arm-none-eabi-7-2017-q
 1862              		.file 9 "../../lib/e-puck2_main-processor/ChibiOS//os/rt/ports/ARMCMx/compilers/GCC/chtypes.h"
 1863              		.file 10 "../../lib/e-puck2_main-processor/ChibiOS//os/rt/include/chsystypes.h"
 1864              		.file 11 "../../lib/e-puck2_main-processor/ChibiOS//os/rt/include/chschd.h"
 1865              		.file 12 "../../lib/e-puck2_main-processor/ChibiOS//os/ext/CMSIS/include/core_cm4.h"
 1866              		.file 13 "../../lib/e-puck2_main-processor/ChibiOS//os/ext/CMSIS/ST/system_stm32f4xx.h"
 1867              		.file 14 "../../lib/e-puck2_main-processor/ChibiOS//os/rt/ports/ARMCMx/chcore.h"
 1868              		.file 15 "../../lib/e-puck2_main-processor/ChibiOS//os/rt/ports/ARMCMx/chcore_v7m.h"
 1869              		.file 16 "../../lib/e-puck2_main-processor/ChibiOS//os/rt/include/chdebug.h"
 1870              		.file 17 "../../lib/e-puck2_main-processor/ChibiOS//os/rt/include/chtm.h"
 1871              		.file 18 "../../lib/e-puck2_main-processor/ChibiOS//os/rt/include/chstats.h"
 1872              		.file 19 "../../lib/e-puck2_main-processor/ChibiOS//os/rt/include/chmtx.h"
 1873              		.file 20 "../../lib/e-puck2_main-processor/ChibiOS//os/rt/include/chregistry.h"
 1874              		.file 21 "../../lib/e-puck2_main-processor/ChibiOS//test/rt/test.h"
ARM GAS  C:\Users\pierr\AppData\Local\Temp\ccjc543f.s 			page 34


