
build/Noisy.elf:     file format elf32-littlearm


Disassembly of section .text:

080001c0 <Reset_Handler>:
 80001c0:	b672      	cpsid	i
 80001c2:	482e      	ldr	r0, [pc, #184]	; (800027c <endfiniloop+0x4>)
 80001c4:	f380 8809 	msr	PSP, r0
 80001c8:	f240 0000 	movw	r0, #0
 80001cc:	f2cc 0000 	movt	r0, #49152	; 0xc000
 80001d0:	f64e 7134 	movw	r1, #61236	; 0xef34
 80001d4:	f2ce 0100 	movt	r1, #57344	; 0xe000
 80001d8:	6008      	str	r0, [r1, #0]
 80001da:	f240 0000 	movw	r0, #0
 80001de:	f2c0 00f0 	movt	r0, #240	; 0xf0
 80001e2:	f64e 5188 	movw	r1, #60808	; 0xed88
 80001e6:	f2ce 0100 	movt	r1, #57344	; 0xe000
 80001ea:	6008      	str	r0, [r1, #0]
 80001ec:	f04f 0000 	mov.w	r0, #0
 80001f0:	eee1 0a10 	vmsr	fpscr, r0
 80001f4:	f64e 713c 	movw	r1, #61244	; 0xef3c
 80001f8:	f2ce 0100 	movt	r1, #57344	; 0xe000
 80001fc:	6008      	str	r0, [r1, #0]
 80001fe:	2006      	movs	r0, #6
 8000200:	f380 8814 	msr	CONTROL, r0
 8000204:	f3bf 8f6f 	isb	sy
 8000208:	f00e fc6a 	bl	800eae0 <__early_init>
 800020c:	f04f 3055 	mov.w	r0, #1431655765	; 0x55555555
 8000210:	491b      	ldr	r1, [pc, #108]	; (8000280 <endfiniloop+0x8>)
 8000212:	4a1c      	ldr	r2, [pc, #112]	; (8000284 <endfiniloop+0xc>)

08000214 <msloop>:
 8000214:	4291      	cmp	r1, r2
 8000216:	bf3c      	itt	cc
 8000218:	f841 0b04 	strcc.w	r0, [r1], #4
 800021c:	e7fa      	bcc.n	8000214 <msloop>
 800021e:	491a      	ldr	r1, [pc, #104]	; (8000288 <endfiniloop+0x10>)
 8000220:	4a16      	ldr	r2, [pc, #88]	; (800027c <endfiniloop+0x4>)

08000222 <psloop>:
 8000222:	4291      	cmp	r1, r2
 8000224:	bf3c      	itt	cc
 8000226:	f841 0b04 	strcc.w	r0, [r1], #4
 800022a:	e7fa      	bcc.n	8000222 <psloop>
 800022c:	4917      	ldr	r1, [pc, #92]	; (800028c <endfiniloop+0x14>)
 800022e:	4a18      	ldr	r2, [pc, #96]	; (8000290 <endfiniloop+0x18>)
 8000230:	4b18      	ldr	r3, [pc, #96]	; (8000294 <endfiniloop+0x1c>)

08000232 <dloop>:
 8000232:	429a      	cmp	r2, r3
 8000234:	bf3e      	ittt	cc
 8000236:	f851 0b04 	ldrcc.w	r0, [r1], #4
 800023a:	f842 0b04 	strcc.w	r0, [r2], #4
 800023e:	e7f8      	bcc.n	8000232 <dloop>
 8000240:	2000      	movs	r0, #0
 8000242:	4915      	ldr	r1, [pc, #84]	; (8000298 <endfiniloop+0x20>)
 8000244:	4a15      	ldr	r2, [pc, #84]	; (800029c <endfiniloop+0x24>)

08000246 <bloop>:
 8000246:	4291      	cmp	r1, r2
 8000248:	bf3c      	itt	cc
 800024a:	f841 0b04 	strcc.w	r0, [r1], #4
 800024e:	e7fa      	bcc.n	8000246 <bloop>
 8000250:	f005 fac6 	bl	80057e0 <__late_init>
 8000254:	4c12      	ldr	r4, [pc, #72]	; (80002a0 <endfiniloop+0x28>)
 8000256:	4d13      	ldr	r5, [pc, #76]	; (80002a4 <endfiniloop+0x2c>)

08000258 <initloop>:
 8000258:	42ac      	cmp	r4, r5
 800025a:	da03      	bge.n	8000264 <endinitloop>
 800025c:	f854 1b04 	ldr.w	r1, [r4], #4
 8000260:	4788      	blx	r1
 8000262:	e7f9      	b.n	8000258 <initloop>

08000264 <endinitloop>:
 8000264:	f002 f91c 	bl	80024a0 <main>
 8000268:	4c0f      	ldr	r4, [pc, #60]	; (80002a8 <endfiniloop+0x30>)
 800026a:	4d10      	ldr	r5, [pc, #64]	; (80002ac <endfiniloop+0x34>)

0800026c <finiloop>:
 800026c:	42ac      	cmp	r4, r5
 800026e:	da03      	bge.n	8000278 <endfiniloop>
 8000270:	f854 1b04 	ldr.w	r1, [r4], #4
 8000274:	4788      	blx	r1
 8000276:	e7f9      	b.n	800026c <finiloop>

08000278 <endfiniloop>:
 8000278:	f005 bac2 	b.w	8005800 <__default_exit>
 800027c:	20000800 	.word	0x20000800
 8000280:	20000000 	.word	0x20000000
 8000284:	20000400 	.word	0x20000400
 8000288:	20000400 	.word	0x20000400
 800028c:	0801a438 	.word	0x0801a438
 8000290:	20000800 	.word	0x20000800
 8000294:	200015bc 	.word	0x200015bc
 8000298:	200015c0 	.word	0x200015c0
 800029c:	20010950 	.word	0x20010950
 80002a0:	080001c0 	.word	0x080001c0
 80002a4:	080001c0 	.word	0x080001c0
 80002a8:	080001c0 	.word	0x080001c0
 80002ac:	080001c0 	.word	0x080001c0

080002b0 <_port_switch>:
 80002b0:	e92d 4ff0 	stmdb	sp!, {r4, r5, r6, r7, r8, r9, sl, fp, lr}
 80002b4:	ed2d 8a10 	vpush	{s16-s31}
 80002b8:	f8c1 d00c 	str.w	sp, [r1, #12]
 80002bc:	f8d0 d00c 	ldr.w	sp, [r0, #12]
 80002c0:	ecbd 8a10 	vpop	{s16-s31}
 80002c4:	e8bd 8ff0 	ldmia.w	sp!, {r4, r5, r6, r7, r8, r9, sl, fp, pc}

080002c8 <_port_thread_start>:
 80002c8:	f005 fbe2 	bl	8005a90 <_dbg_check_unlock>
 80002cc:	f006 fc08 	bl	8006ae0 <_stats_stop_measure_crit_thd>
 80002d0:	2300      	movs	r3, #0
 80002d2:	f383 8811 	msr	BASEPRI, r3
 80002d6:	4628      	mov	r0, r5
 80002d8:	47a0      	blx	r4
 80002da:	2000      	movs	r0, #0
 80002dc:	f006 f968 	bl	80065b0 <chThdExit>

080002e0 <_port_switch_from_isr>:
 80002e0:	f006 fbe6 	bl	8006ab0 <_stats_start_measure_crit_thd>
 80002e4:	f005 fbb4 	bl	8005a50 <_dbg_check_lock>
 80002e8:	f005 ffd2 	bl	8006290 <chSchDoReschedule>
 80002ec:	f005 fbd0 	bl	8005a90 <_dbg_check_unlock>
 80002f0:	f006 fbf6 	bl	8006ae0 <_stats_stop_measure_crit_thd>

080002f4 <_port_exit_from_isr>:
 80002f4:	df00      	svc	0
 80002f6:	e7fe      	b.n	80002f6 <_port_exit_from_isr+0x2>
	...

08000300 <PDM_Filter_Init>:
 8000300:	e92d 43f8 	stmdb	sp!, {r3, r4, r5, r6, r7, r8, r9, lr}
 8000304:	4b54      	ldr	r3, [pc, #336]	; (8000458 <PDM_Filter_Init+0x158>)
 8000306:	4680      	mov	r8, r0
 8000308:	681a      	ldr	r2, [r3, #0]
 800030a:	4854      	ldr	r0, [pc, #336]	; (800045c <PDM_Filter_Init+0x15c>)
 800030c:	4282      	cmp	r2, r0
 800030e:	ed2d 8b02 	vpush	{d8}
 8000312:	d01b      	beq.n	800034c <PDM_Filter_Init+0x4c>
 8000314:	4952      	ldr	r1, [pc, #328]	; (8000460 <PDM_Filter_Init+0x160>)
 8000316:	680b      	ldr	r3, [r1, #0]
 8000318:	04da      	lsls	r2, r3, #19
 800031a:	d405      	bmi.n	8000328 <PDM_Filter_Init+0x28>
 800031c:	680a      	ldr	r2, [r1, #0]
 800031e:	f442 5380 	orr.w	r3, r2, #4096	; 0x1000
 8000322:	600b      	str	r3, [r1, #0]
 8000324:	2001      	movs	r0, #1
 8000326:	e000      	b.n	800032a <PDM_Filter_Init+0x2a>
 8000328:	2000      	movs	r0, #0
 800032a:	4a4e      	ldr	r2, [pc, #312]	; (8000464 <PDM_Filter_Init+0x164>)
 800032c:	494e      	ldr	r1, [pc, #312]	; (8000468 <PDM_Filter_Init+0x168>)
 800032e:	6011      	str	r1, [r2, #0]
 8000330:	6813      	ldr	r3, [r2, #0]
 8000332:	4a4a      	ldr	r2, [pc, #296]	; (800045c <PDM_Filter_Init+0x15c>)
 8000334:	4293      	cmp	r3, r2
 8000336:	d108      	bne.n	800034a <PDM_Filter_Init+0x4a>
 8000338:	4947      	ldr	r1, [pc, #284]	; (8000458 <PDM_Filter_Init+0x158>)
 800033a:	600b      	str	r3, [r1, #0]
 800033c:	b130      	cbz	r0, 800034c <PDM_Filter_Init+0x4c>
 800033e:	4848      	ldr	r0, [pc, #288]	; (8000460 <PDM_Filter_Init+0x160>)
 8000340:	6803      	ldr	r3, [r0, #0]
 8000342:	f423 5280 	bic.w	r2, r3, #4096	; 0x1000
 8000346:	6002      	str	r2, [r0, #0]
 8000348:	e000      	b.n	800034c <PDM_Filter_Init+0x4c>
 800034a:	e7fe      	b.n	800034a <PDM_Filter_Init+0x4a>
 800034c:	ed98 8a01 	vldr	s16, [r8, #4]
 8000350:	eeb5 8a40 	vcmp.f32	s16, #0.0
 8000354:	2100      	movs	r1, #0
 8000356:	eef1 fa10 	vmrs	APSR_nzcv, fpscr
 800035a:	f8c8 101c 	str.w	r1, [r8, #28]
 800035e:	f8c8 1018 	str.w	r1, [r8, #24]
 8000362:	f8c8 1014 	str.w	r1, [r8, #20]
 8000366:	f8c8 1010 	str.w	r1, [r8, #16]
 800036a:	f8c8 1028 	str.w	r1, [r8, #40]	; 0x28
 800036e:	f8c8 1024 	str.w	r1, [r8, #36]	; 0x24
 8000372:	f8c8 1020 	str.w	r1, [r8, #32]
 8000376:	d029      	beq.n	80003cc <PDM_Filter_Init+0xcc>
 8000378:	eddf 7a3c 	vldr	s15, [pc, #240]	; 800046c <PDM_Filter_Init+0x16c>
 800037c:	ee28 0a27 	vmul.f32	s0, s16, s15
 8000380:	ee10 0a10 	vmov	r0, s0
 8000384:	f001 f838 	bl	80013f8 <__aeabi_f2d>
 8000388:	4604      	mov	r4, r0
 800038a:	ee18 0a10 	vmov	r0, s16
 800038e:	460d      	mov	r5, r1
 8000390:	f001 f832 	bl	80013f8 <__aeabi_f2d>
 8000394:	4606      	mov	r6, r0
 8000396:	f8b8 0000 	ldrh.w	r0, [r8]
 800039a:	460f      	mov	r7, r1
 800039c:	f001 f81a 	bl	80013d4 <__aeabi_i2d>
 80003a0:	a32b      	add	r3, pc, #172	; (adr r3, 8000450 <PDM_Filter_Init+0x150>)
 80003a2:	e9d3 2300 	ldrd	r2, r3, [r3]
 80003a6:	f001 f9ad 	bl	8001704 <__aeabi_ddiv>
 80003aa:	4602      	mov	r2, r0
 80003ac:	460b      	mov	r3, r1
 80003ae:	4630      	mov	r0, r6
 80003b0:	4639      	mov	r1, r7
 80003b2:	f000 fec3 	bl	800113c <__adddf3>
 80003b6:	4602      	mov	r2, r0
 80003b8:	460b      	mov	r3, r1
 80003ba:	4620      	mov	r0, r4
 80003bc:	4629      	mov	r1, r5
 80003be:	f001 f9a1 	bl	8001704 <__aeabi_ddiv>
 80003c2:	f001 fb3d 	bl	8001a40 <__aeabi_d2uiz>
 80003c6:	f8a8 002c 	strh.w	r0, [r8, #44]	; 0x2c
 80003ca:	e001      	b.n	80003d0 <PDM_Filter_Init+0xd0>
 80003cc:	f8a8 102c 	strh.w	r1, [r8, #44]	; 0x2c
 80003d0:	ed98 8a02 	vldr	s16, [r8, #8]
 80003d4:	eeb5 8a40 	vcmp.f32	s16, #0.0
 80003d8:	eef1 fa10 	vmrs	APSR_nzcv, fpscr
 80003dc:	d026      	beq.n	800042c <PDM_Filter_Init+0x12c>
 80003de:	f8b8 9000 	ldrh.w	r9, [r8]
 80003e2:	ea4f 2009 	mov.w	r0, r9, lsl #8
 80003e6:	f000 fff5 	bl	80013d4 <__aeabi_i2d>
 80003ea:	4604      	mov	r4, r0
 80003ec:	ee18 0a10 	vmov	r0, s16
 80003f0:	460d      	mov	r5, r1
 80003f2:	f001 f801 	bl	80013f8 <__aeabi_f2d>
 80003f6:	a316      	add	r3, pc, #88	; (adr r3, 8000450 <PDM_Filter_Init+0x150>)
 80003f8:	e9d3 2300 	ldrd	r2, r3, [r3]
 80003fc:	f001 f858 	bl	80014b0 <__aeabi_dmul>
 8000400:	4606      	mov	r6, r0
 8000402:	4648      	mov	r0, r9
 8000404:	460f      	mov	r7, r1
 8000406:	f000 ffe5 	bl	80013d4 <__aeabi_i2d>
 800040a:	4602      	mov	r2, r0
 800040c:	460b      	mov	r3, r1
 800040e:	4630      	mov	r0, r6
 8000410:	4639      	mov	r1, r7
 8000412:	f000 fe93 	bl	800113c <__adddf3>
 8000416:	4602      	mov	r2, r0
 8000418:	460b      	mov	r3, r1
 800041a:	4620      	mov	r0, r4
 800041c:	4629      	mov	r1, r5
 800041e:	f001 f971 	bl	8001704 <__aeabi_ddiv>
 8000422:	f001 fb0d 	bl	8001a40 <__aeabi_d2uiz>
 8000426:	f8a8 002e 	strh.w	r0, [r8, #46]	; 0x2e
 800042a:	e002      	b.n	8000432 <PDM_Filter_Init+0x132>
 800042c:	2000      	movs	r0, #0
 800042e:	f8a8 002e 	strh.w	r0, [r8, #46]	; 0x2e
 8000432:	f8b8 2000 	ldrh.w	r2, [r8]
 8000436:	f44f 737a 	mov.w	r3, #1000	; 0x3e8
 800043a:	fbb2 f1f3 	udiv	r1, r2, r3
 800043e:	f8a8 1030 	strh.w	r1, [r8, #48]	; 0x30
 8000442:	ecbd 8b02 	vpop	{d8}
 8000446:	e8bd 83f8 	ldmia.w	sp!, {r3, r4, r5, r6, r7, r8, r9, pc}
 800044a:	bf00      	nop
 800044c:	f3af 8000 	nop.w
 8000450:	51eb851f 	.word	0x51eb851f
 8000454:	40191eb8 	.word	0x40191eb8
 8000458:	200015c0 	.word	0x200015c0
 800045c:	b5e8b5cd 	.word	0xb5e8b5cd
 8000460:	40023830 	.word	0x40023830
 8000464:	40023000 	.word	0x40023000
 8000468:	f407a5c2 	.word	0xf407a5c2
 800046c:	43800000 	.word	0x43800000

08000470 <PDM_Filter_64_LSB>:
 8000470:	e92d 4ff0 	stmdb	sp!, {r4, r5, r6, r7, r8, r9, sl, fp, lr}
 8000474:	b09b      	sub	sp, #108	; 0x6c
 8000476:	4683      	mov	fp, r0
 8000478:	9219      	str	r2, [sp, #100]	; 0x64
 800047a:	4aa9      	ldr	r2, [pc, #676]	; (8000720 <PDM_Filter_64_LSB+0x2b0>)
 800047c:	9118      	str	r1, [sp, #96]	; 0x60
 800047e:	48a9      	ldr	r0, [pc, #676]	; (8000724 <PDM_Filter_64_LSB+0x2b4>)
 8000480:	6811      	ldr	r1, [r2, #0]
 8000482:	4281      	cmp	r1, r0
 8000484:	d000      	beq.n	8000488 <PDM_Filter_64_LSB+0x18>
 8000486:	e7fe      	b.n	8000486 <PDM_Filter_64_LSB+0x16>
 8000488:	6a9e      	ldr	r6, [r3, #40]	; 0x28
 800048a:	f8b3 c00c 	ldrh.w	ip, [r3, #12]
 800048e:	699f      	ldr	r7, [r3, #24]
 8000490:	8d9a      	ldrh	r2, [r3, #44]	; 0x2c
 8000492:	8dd9      	ldrh	r1, [r3, #46]	; 0x2e
 8000494:	9603      	str	r6, [sp, #12]
 8000496:	2603      	movs	r6, #3
 8000498:	6a1c      	ldr	r4, [r3, #32]
 800049a:	6a5d      	ldr	r5, [r3, #36]	; 0x24
 800049c:	9705      	str	r7, [sp, #20]
 800049e:	9206      	str	r2, [sp, #24]
 80004a0:	fb06 f70c 	mul.w	r7, r6, ip
 80004a4:	ea4f 028c 	mov.w	r2, ip, lsl #2
 80004a8:	2606      	movs	r6, #6
 80004aa:	ea4f 004c 	mov.w	r0, ip, lsl #1
 80004ae:	910b      	str	r1, [sp, #44]	; 0x2c
 80004b0:	970e      	str	r7, [sp, #56]	; 0x38
 80004b2:	2105      	movs	r1, #5
 80004b4:	fb06 f70c 	mul.w	r7, r6, ip
 80004b8:	920f      	str	r2, [sp, #60]	; 0x3c
 80004ba:	2207      	movs	r2, #7
 80004bc:	9402      	str	r4, [sp, #8]
 80004be:	9504      	str	r5, [sp, #16]
 80004c0:	900d      	str	r0, [sp, #52]	; 0x34
 80004c2:	9711      	str	r7, [sp, #68]	; 0x44
 80004c4:	fb01 f00c 	mul.w	r0, r1, ip
 80004c8:	ea4f 06cc 	mov.w	r6, ip, lsl #3
 80004cc:	fb02 f10c 	mul.w	r1, r2, ip
 80004d0:	2700      	movs	r7, #0
 80004d2:	691d      	ldr	r5, [r3, #16]
 80004d4:	695c      	ldr	r4, [r3, #20]
 80004d6:	f8d3 a01c 	ldr.w	sl, [r3, #28]
 80004da:	9010      	str	r0, [sp, #64]	; 0x40
 80004dc:	9112      	str	r1, [sp, #72]	; 0x48
 80004de:	9617      	str	r6, [sp, #92]	; 0x5c
 80004e0:	9701      	str	r7, [sp, #4]
 80004e2:	8e18      	ldrh	r0, [r3, #48]	; 0x30
 80004e4:	f8dd 9004 	ldr.w	r9, [sp, #4]
 80004e8:	4581      	cmp	r9, r0
 80004ea:	f280 810a 	bge.w	8000702 <PDM_Filter_64_LSB+0x292>
 80004ee:	488e      	ldr	r0, [pc, #568]	; (8000728 <PDM_Filter_64_LSB+0x2b8>)
 80004f0:	f89b 6000 	ldrb.w	r6, [fp]
 80004f4:	f81b 700c 	ldrb.w	r7, [fp, ip]
 80004f8:	f810 9006 	ldrb.w	r9, [r0, r6]
 80004fc:	5dc2      	ldrb	r2, [r0, r7]
 80004fe:	44a1      	add	r9, r4
 8000500:	1984      	adds	r4, r0, r6
 8000502:	1951      	adds	r1, r2, r5
 8000504:	f894 8100 	ldrb.w	r8, [r4, #256]	; 0x100
 8000508:	f894 2200 	ldrb.w	r2, [r4, #512]	; 0x200
 800050c:	eb01 0848 	add.w	r8, r1, r8, lsl #1
 8000510:	f8cd 801c 	str.w	r8, [sp, #28]
 8000514:	f8dd 8034 	ldr.w	r8, [sp, #52]	; 0x34
 8000518:	f81b 6008 	ldrb.w	r6, [fp, r8]
 800051c:	5d85      	ldrb	r5, [r0, r6]
 800051e:	19c7      	adds	r7, r0, r7
 8000520:	18a9      	adds	r1, r5, r2
 8000522:	9a0e      	ldr	r2, [sp, #56]	; 0x38
 8000524:	f897 4100 	ldrb.w	r4, [r7, #256]	; 0x100
 8000528:	f81b 2002 	ldrb.w	r2, [fp, r2]
 800052c:	f897 7200 	ldrb.w	r7, [r7, #512]	; 0x200
 8000530:	eb01 0544 	add.w	r5, r1, r4, lsl #1
 8000534:	5c81      	ldrb	r1, [r0, r2]
 8000536:	9508      	str	r5, [sp, #32]
 8000538:	19cc      	adds	r4, r1, r7
 800053a:	1981      	adds	r1, r0, r6
 800053c:	9e0f      	ldr	r6, [sp, #60]	; 0x3c
 800053e:	f891 8100 	ldrb.w	r8, [r1, #256]	; 0x100
 8000542:	f891 7200 	ldrb.w	r7, [r1, #512]	; 0x200
 8000546:	eb04 0848 	add.w	r8, r4, r8, lsl #1
 800054a:	f81b 4006 	ldrb.w	r4, [fp, r6]
 800054e:	f8cd 8024 	str.w	r8, [sp, #36]	; 0x24
 8000552:	1882      	adds	r2, r0, r2
 8000554:	5d05      	ldrb	r5, [r0, r4]
 8000556:	f892 6100 	ldrb.w	r6, [r2, #256]	; 0x100
 800055a:	f892 2200 	ldrb.w	r2, [r2, #512]	; 0x200
 800055e:	19e9      	adds	r1, r5, r7
 8000560:	eb01 0546 	add.w	r5, r1, r6, lsl #1
 8000564:	eb05 0708 	add.w	r7, r5, r8
 8000568:	f8dd 8040 	ldr.w	r8, [sp, #64]	; 0x40
 800056c:	9715      	str	r7, [sp, #84]	; 0x54
 800056e:	f81b 7008 	ldrb.w	r7, [fp, r8]
 8000572:	950a      	str	r5, [sp, #40]	; 0x28
 8000574:	1904      	adds	r4, r0, r4
 8000576:	5dc1      	ldrb	r1, [r0, r7]
 8000578:	f894 5100 	ldrb.w	r5, [r4, #256]	; 0x100
 800057c:	f894 4200 	ldrb.w	r4, [r4, #512]	; 0x200
 8000580:	f8dd 801c 	ldr.w	r8, [sp, #28]
 8000584:	188e      	adds	r6, r1, r2
 8000586:	eb06 0145 	add.w	r1, r6, r5, lsl #1
 800058a:	9d11      	ldr	r5, [sp, #68]	; 0x44
 800058c:	9a08      	ldr	r2, [sp, #32]
 800058e:	f81b 5005 	ldrb.w	r5, [fp, r5]
 8000592:	188e      	adds	r6, r1, r2
 8000594:	19c7      	adds	r7, r0, r7
 8000596:	5d42      	ldrb	r2, [r0, r5]
 8000598:	9616      	str	r6, [sp, #88]	; 0x58
 800059a:	1916      	adds	r6, r2, r4
 800059c:	f897 2100 	ldrb.w	r2, [r7, #256]	; 0x100
 80005a0:	eb06 0242 	add.w	r2, r6, r2, lsl #1
 80005a4:	4490      	add	r8, r2
 80005a6:	f8cd 8050 	str.w	r8, [sp, #80]	; 0x50
 80005aa:	9c12      	ldr	r4, [sp, #72]	; 0x48
 80005ac:	f897 7200 	ldrb.w	r7, [r7, #512]	; 0x200
 80005b0:	f81b 6004 	ldrb.w	r6, [fp, r4]
 80005b4:	1945      	adds	r5, r0, r5
 80005b6:	5d84      	ldrb	r4, [r0, r6]
 80005b8:	19e4      	adds	r4, r4, r7
 80005ba:	f895 7100 	ldrb.w	r7, [r5, #256]	; 0x100
 80005be:	f895 5200 	ldrb.w	r5, [r5, #512]	; 0x200
 80005c2:	1980      	adds	r0, r0, r6
 80005c4:	eb04 0447 	add.w	r4, r4, r7, lsl #1
 80005c8:	f04f 081c 	mov.w	r8, #28
 80005cc:	eb04 0709 	add.w	r7, r4, r9
 80005d0:	f890 6100 	ldrb.w	r6, [r0, #256]	; 0x100
 80005d4:	9713      	str	r7, [sp, #76]	; 0x4c
 80005d6:	fb08 aa09 	mla	sl, r8, r9, sl
 80005da:	f8dd 801c 	ldr.w	r8, [sp, #28]
 80005de:	940c      	str	r4, [sp, #48]	; 0x30
 80005e0:	eb0a 0902 	add.w	r9, sl, r2
 80005e4:	2715      	movs	r7, #21
 80005e6:	eb05 0446 	add.w	r4, r5, r6, lsl #1
 80005ea:	f890 5200 	ldrb.w	r5, [r0, #512]	; 0x200
 80005ee:	fb07 9008 	mla	r0, r7, r8, r9
 80005f2:	9f09      	ldr	r7, [sp, #36]	; 0x24
 80005f4:	f8dd 9020 	ldr.w	r9, [sp, #32]
 80005f8:	260a      	movs	r6, #10
 80005fa:	fb06 0a07 	mla	sl, r6, r7, r0
 80005fe:	270f      	movs	r7, #15
 8000600:	fb07 a009 	mla	r0, r7, r9, sl
 8000604:	f04f 0803 	mov.w	r8, #3
 8000608:	f8dd 9028 	ldr.w	r9, [sp, #40]	; 0x28
 800060c:	fb08 0001 	mla	r0, r8, r1, r0
 8000610:	f04f 0a06 	mov.w	sl, #6
 8000614:	fb0a 0009 	mla	r0, sl, r9, r0
 8000618:	9000      	str	r0, [sp, #0]
 800061a:	9815      	ldr	r0, [sp, #84]	; 0x54
 800061c:	f04f 0930 	mov.w	r9, #48	; 0x30
 8000620:	fb09 fa00 	mul.w	sl, r9, r0
 8000624:	f8dd 9058 	ldr.w	r9, [sp, #88]	; 0x58
 8000628:	202e      	movs	r0, #46	; 0x2e
 800062a:	fb00 a009 	mla	r0, r0, r9, sl
 800062e:	4682      	mov	sl, r0
 8000630:	9805      	ldr	r0, [sp, #20]
 8000632:	4482      	add	sl, r0
 8000634:	9813      	ldr	r0, [sp, #76]	; 0x4c
 8000636:	f04f 0924 	mov.w	r9, #36	; 0x24
 800063a:	fb09 aa00 	mla	sl, r9, r0, sl
 800063e:	9814      	ldr	r0, [sp, #80]	; 0x50
 8000640:	f04f 092a 	mov.w	r9, #42	; 0x2a
 8000644:	fb09 aa00 	mla	sl, r9, r0, sl
 8000648:	9808      	ldr	r0, [sp, #32]
 800064a:	f8dd 9024 	ldr.w	r9, [sp, #36]	; 0x24
 800064e:	fb08 f800 	mul.w	r8, r8, r0
 8000652:	2006      	movs	r0, #6
 8000654:	fb00 8809 	mla	r8, r0, r9, r8
 8000658:	f8dd 901c 	ldr.w	r9, [sp, #28]
 800065c:	eb08 0009 	add.w	r0, r8, r9
 8000660:	fb07 0101 	mla	r1, r7, r1, r0
 8000664:	9f0a      	ldr	r7, [sp, #40]	; 0x28
 8000666:	980c      	ldr	r0, [sp, #48]	; 0x30
 8000668:	f8dd 9000 	ldr.w	r9, [sp]
 800066c:	fb06 1807 	mla	r8, r6, r7, r1
 8000670:	261c      	movs	r6, #28
 8000672:	fb06 8100 	mla	r1, r6, r0, r8
 8000676:	2715      	movs	r7, #21
 8000678:	980b      	ldr	r0, [sp, #44]	; 0x2c
 800067a:	fb07 1202 	mla	r2, r7, r2, r1
 800067e:	9205      	str	r2, [sp, #20]
 8000680:	f5a9 3800 	sub.w	r8, r9, #131072	; 0x20000
 8000684:	b168      	cbz	r0, 80006a2 <PDM_Filter_64_LSB+0x232>
 8000686:	9e02      	ldr	r6, [sp, #8]
 8000688:	9f04      	ldr	r7, [sp, #16]
 800068a:	f8cd 8010 	str.w	r8, [sp, #16]
 800068e:	eb06 0108 	add.w	r1, r6, r8
 8000692:	1bce      	subs	r6, r1, r7
 8000694:	4346      	muls	r6, r0
 8000696:	f44f 7280 	mov.w	r2, #256	; 0x100
 800069a:	fb96 f0f2 	sdiv	r0, r6, r2
 800069e:	9002      	str	r0, [sp, #8]
 80006a0:	4680      	mov	r8, r0
 80006a2:	9906      	ldr	r1, [sp, #24]
 80006a4:	b161      	cbz	r1, 80006c0 <PDM_Filter_64_LSB+0x250>
 80006a6:	9e03      	ldr	r6, [sp, #12]
 80006a8:	fb08 f801 	mul.w	r8, r8, r1
 80006ac:	f5c1 7780 	rsb	r7, r1, #256	; 0x100
 80006b0:	fb06 8907 	mla	r9, r6, r7, r8
 80006b4:	f44f 7280 	mov.w	r2, #256	; 0x100
 80006b8:	fb99 f0f2 	sdiv	r0, r9, r2
 80006bc:	9003      	str	r0, [sp, #12]
 80006be:	4680      	mov	r8, r0
 80006c0:	9919      	ldr	r1, [sp, #100]	; 0x64
 80006c2:	fb01 f708 	mul.w	r7, r1, r8
 80006c6:	2f00      	cmp	r7, #0
 80006c8:	dd02      	ble.n	80006d0 <PDM_Filter_64_LSB+0x260>
 80006ca:	3708      	adds	r7, #8
 80006cc:	1138      	asrs	r0, r7, #4
 80006ce:	e003      	b.n	80006d8 <PDM_Filter_64_LSB+0x268>
 80006d0:	3f08      	subs	r7, #8
 80006d2:	2610      	movs	r6, #16
 80006d4:	fb97 f0f6 	sdiv	r0, r7, r6
 80006d8:	f647 72bc 	movw	r2, #32700	; 0x7fbc
 80006dc:	9e01      	ldr	r6, [sp, #4]
 80006de:	4913      	ldr	r1, [pc, #76]	; (800072c <PDM_Filter_64_LSB+0x2bc>)
 80006e0:	9f18      	ldr	r7, [sp, #96]	; 0x60
 80006e2:	f8dd 805c 	ldr.w	r8, [sp, #92]	; 0x5c
 80006e6:	4290      	cmp	r0, r2
 80006e8:	bfa8      	it	ge
 80006ea:	4610      	movge	r0, r2
 80006ec:	89da      	ldrh	r2, [r3, #14]
 80006ee:	4372      	muls	r2, r6
 80006f0:	4288      	cmp	r0, r1
 80006f2:	bfa8      	it	ge
 80006f4:	4601      	movge	r1, r0
 80006f6:	3601      	adds	r6, #1
 80006f8:	f827 1012 	strh.w	r1, [r7, r2, lsl #1]
 80006fc:	44c3      	add	fp, r8
 80006fe:	9601      	str	r6, [sp, #4]
 8000700:	e6ef      	b.n	80004e2 <PDM_Filter_64_LSB+0x72>
 8000702:	611d      	str	r5, [r3, #16]
 8000704:	615c      	str	r4, [r3, #20]
 8000706:	9d02      	ldr	r5, [sp, #8]
 8000708:	9c05      	ldr	r4, [sp, #20]
 800070a:	621d      	str	r5, [r3, #32]
 800070c:	619c      	str	r4, [r3, #24]
 800070e:	9d03      	ldr	r5, [sp, #12]
 8000710:	9c04      	ldr	r4, [sp, #16]
 8000712:	f8c3 a01c 	str.w	sl, [r3, #28]
 8000716:	625c      	str	r4, [r3, #36]	; 0x24
 8000718:	629d      	str	r5, [r3, #40]	; 0x28
 800071a:	b01b      	add	sp, #108	; 0x6c
 800071c:	e8bd 8ff0 	ldmia.w	sp!, {r4, r5, r6, r7, r8, r9, sl, fp, pc}
 8000720:	200015c0 	.word	0x200015c0
 8000724:	b5e8b5cd 	.word	0xb5e8b5cd
 8000728:	20000800 	.word	0x20000800
 800072c:	ffff8044 	.word	0xffff8044

08000730 <PDM_Filter_80_LSB>:
 8000730:	e92d 4ff0 	stmdb	sp!, {r4, r5, r6, r7, r8, r9, sl, fp, lr}
 8000734:	b0a1      	sub	sp, #132	; 0x84
 8000736:	4cc7      	ldr	r4, [pc, #796]	; (8000a54 <PDM_Filter_80_LSB+0x324>)
 8000738:	921f      	str	r2, [sp, #124]	; 0x7c
 800073a:	4ac7      	ldr	r2, [pc, #796]	; (8000a58 <PDM_Filter_80_LSB+0x328>)
 800073c:	911e      	str	r1, [sp, #120]	; 0x78
 800073e:	6811      	ldr	r1, [r2, #0]
 8000740:	42a1      	cmp	r1, r4
 8000742:	d000      	beq.n	8000746 <PDM_Filter_80_LSB+0x16>
 8000744:	e7fe      	b.n	8000744 <PDM_Filter_80_LSB+0x14>
 8000746:	6a9f      	ldr	r7, [r3, #40]	; 0x28
 8000748:	699a      	ldr	r2, [r3, #24]
 800074a:	8d99      	ldrh	r1, [r3, #44]	; 0x2c
 800074c:	8ddc      	ldrh	r4, [r3, #46]	; 0x2e
 800074e:	9704      	str	r7, [sp, #16]
 8000750:	899f      	ldrh	r7, [r3, #12]
 8000752:	9206      	str	r2, [sp, #24]
 8000754:	9107      	str	r1, [sp, #28]
 8000756:	940f      	str	r4, [sp, #60]	; 0x3c
 8000758:	2203      	movs	r2, #3
 800075a:	2105      	movs	r1, #5
 800075c:	2406      	movs	r4, #6
 800075e:	6a1d      	ldr	r5, [r3, #32]
 8000760:	6a5e      	ldr	r6, [r3, #36]	; 0x24
 8000762:	9503      	str	r5, [sp, #12]
 8000764:	437a      	muls	r2, r7
 8000766:	4379      	muls	r1, r7
 8000768:	437c      	muls	r4, r7
 800076a:	9212      	str	r2, [sp, #72]	; 0x48
 800076c:	9114      	str	r1, [sp, #80]	; 0x50
 800076e:	9415      	str	r4, [sp, #84]	; 0x54
 8000770:	2207      	movs	r2, #7
 8000772:	2109      	movs	r1, #9
 8000774:	240a      	movs	r4, #10
 8000776:	4379      	muls	r1, r7
 8000778:	9605      	str	r6, [sp, #20]
 800077a:	ea4f 0847 	mov.w	r8, r7, lsl #1
 800077e:	ea4f 0987 	mov.w	r9, r7, lsl #2
 8000782:	437a      	muls	r2, r7
 8000784:	ea4f 0ac7 	mov.w	sl, r7, lsl #3
 8000788:	437c      	muls	r4, r7
 800078a:	691e      	ldr	r6, [r3, #16]
 800078c:	695d      	ldr	r5, [r3, #20]
 800078e:	f8d3 b01c 	ldr.w	fp, [r3, #28]
 8000792:	9118      	str	r1, [sp, #96]	; 0x60
 8000794:	f8cd 8044 	str.w	r8, [sp, #68]	; 0x44
 8000798:	f8cd 904c 	str.w	r9, [sp, #76]	; 0x4c
 800079c:	9216      	str	r2, [sp, #88]	; 0x58
 800079e:	f8cd a05c 	str.w	sl, [sp, #92]	; 0x5c
 80007a2:	941d      	str	r4, [sp, #116]	; 0x74
 80007a4:	2100      	movs	r1, #0
 80007a6:	9102      	str	r1, [sp, #8]
 80007a8:	8e1a      	ldrh	r2, [r3, #48]	; 0x30
 80007aa:	9902      	ldr	r1, [sp, #8]
 80007ac:	4291      	cmp	r1, r2
 80007ae:	f280 8159 	bge.w	8000a64 <PDM_Filter_80_LSB+0x334>
 80007b2:	4aaa      	ldr	r2, [pc, #680]	; (8000a5c <PDM_Filter_80_LSB+0x32c>)
 80007b4:	7804      	ldrb	r4, [r0, #0]
 80007b6:	f812 9004 	ldrb.w	r9, [r2, r4]
 80007ba:	44a9      	add	r9, r5
 80007bc:	5dc5      	ldrb	r5, [r0, r7]
 80007be:	1911      	adds	r1, r2, r4
 80007c0:	f812 8005 	ldrb.w	r8, [r2, r5]
 80007c4:	f891 4100 	ldrb.w	r4, [r1, #256]	; 0x100
 80007c8:	f891 a200 	ldrb.w	sl, [r1, #512]	; 0x200
 80007cc:	4446      	add	r6, r8
 80007ce:	eb06 0644 	add.w	r6, r6, r4, lsl #1
 80007d2:	9c11      	ldr	r4, [sp, #68]	; 0x44
 80007d4:	9608      	str	r6, [sp, #32]
 80007d6:	5d04      	ldrb	r4, [r0, r4]
 80007d8:	1955      	adds	r5, r2, r5
 80007da:	5d16      	ldrb	r6, [r2, r4]
 80007dc:	f895 c100 	ldrb.w	ip, [r5, #256]	; 0x100
 80007e0:	f895 5200 	ldrb.w	r5, [r5, #512]	; 0x200
 80007e4:	eb06 080a 	add.w	r8, r6, sl
 80007e8:	eb08 0a4c 	add.w	sl, r8, ip, lsl #1
 80007ec:	f8dd 8048 	ldr.w	r8, [sp, #72]	; 0x48
 80007f0:	f8cd a024 	str.w	sl, [sp, #36]	; 0x24
 80007f4:	f810 1008 	ldrb.w	r1, [r0, r8]
 80007f8:	f8dd 804c 	ldr.w	r8, [sp, #76]	; 0x4c
 80007fc:	5c56      	ldrb	r6, [r2, r1]
 80007fe:	1914      	adds	r4, r2, r4
 8000800:	eb06 0a05 	add.w	sl, r6, r5
 8000804:	f810 5008 	ldrb.w	r5, [r0, r8]
 8000808:	f894 c100 	ldrb.w	ip, [r4, #256]	; 0x100
 800080c:	5d56      	ldrb	r6, [r2, r5]
 800080e:	f894 4200 	ldrb.w	r4, [r4, #512]	; 0x200
 8000812:	1851      	adds	r1, r2, r1
 8000814:	eb0a 0c4c 	add.w	ip, sl, ip, lsl #1
 8000818:	1936      	adds	r6, r6, r4
 800081a:	f891 a100 	ldrb.w	sl, [r1, #256]	; 0x100
 800081e:	9c14      	ldr	r4, [sp, #80]	; 0x50
 8000820:	f891 1200 	ldrb.w	r1, [r1, #512]	; 0x200
 8000824:	f8cd c028 	str.w	ip, [sp, #40]	; 0x28
 8000828:	eb06 084a 	add.w	r8, r6, sl, lsl #1
 800082c:	5d06      	ldrb	r6, [r0, r4]
 800082e:	f8cd 802c 	str.w	r8, [sp, #44]	; 0x2c
 8000832:	5d94      	ldrb	r4, [r2, r6]
 8000834:	f8dd 8054 	ldr.w	r8, [sp, #84]	; 0x54
 8000838:	1955      	adds	r5, r2, r5
 800083a:	eb04 0a01 	add.w	sl, r4, r1
 800083e:	f895 4100 	ldrb.w	r4, [r5, #256]	; 0x100
 8000842:	f895 5200 	ldrb.w	r5, [r5, #512]	; 0x200
 8000846:	eb0a 0144 	add.w	r1, sl, r4, lsl #1
 800084a:	910c      	str	r1, [sp, #48]	; 0x30
 800084c:	f810 1008 	ldrb.w	r1, [r0, r8]
 8000850:	1996      	adds	r6, r2, r6
 8000852:	5c54      	ldrb	r4, [r2, r1]
 8000854:	1964      	adds	r4, r4, r5
 8000856:	f896 5100 	ldrb.w	r5, [r6, #256]	; 0x100
 800085a:	eb04 0445 	add.w	r4, r4, r5, lsl #1
 800085e:	940d      	str	r4, [sp, #52]	; 0x34
 8000860:	9d16      	ldr	r5, [sp, #88]	; 0x58
 8000862:	f896 6200 	ldrb.w	r6, [r6, #512]	; 0x200
 8000866:	f8dd a024 	ldr.w	sl, [sp, #36]	; 0x24
 800086a:	f8dd 805c 	ldr.w	r8, [sp, #92]	; 0x5c
 800086e:	44a4      	add	ip, r4
 8000870:	5d44      	ldrb	r4, [r0, r5]
 8000872:	f8cd c06c 	str.w	ip, [sp, #108]	; 0x6c
 8000876:	5d15      	ldrb	r5, [r2, r4]
 8000878:	1851      	adds	r1, r2, r1
 800087a:	19ad      	adds	r5, r5, r6
 800087c:	f891 6100 	ldrb.w	r6, [r1, #256]	; 0x100
 8000880:	f891 1200 	ldrb.w	r1, [r1, #512]	; 0x200
 8000884:	eb05 0546 	add.w	r5, r5, r6, lsl #1
 8000888:	eb05 060a 	add.w	r6, r5, sl
 800088c:	950e      	str	r5, [sp, #56]	; 0x38
 800088e:	f810 5008 	ldrb.w	r5, [r0, r8]
 8000892:	961c      	str	r6, [sp, #112]	; 0x70
 8000894:	1914      	adds	r4, r2, r4
 8000896:	5d56      	ldrb	r6, [r2, r5]
 8000898:	f8dd a060 	ldr.w	sl, [sp, #96]	; 0x60
 800089c:	1871      	adds	r1, r6, r1
 800089e:	f894 6100 	ldrb.w	r6, [r4, #256]	; 0x100
 80008a2:	f894 4200 	ldrb.w	r4, [r4, #512]	; 0x200
 80008a6:	eb01 0c46 	add.w	ip, r1, r6, lsl #1
 80008aa:	9908      	ldr	r1, [sp, #32]
 80008ac:	eb0c 0601 	add.w	r6, ip, r1
 80008b0:	961a      	str	r6, [sp, #104]	; 0x68
 80008b2:	f810 600a 	ldrb.w	r6, [r0, sl]
 80008b6:	1955      	adds	r5, r2, r5
 80008b8:	5d91      	ldrb	r1, [r2, r6]
 80008ba:	1992      	adds	r2, r2, r6
 80008bc:	1909      	adds	r1, r1, r4
 80008be:	f895 4100 	ldrb.w	r4, [r5, #256]	; 0x100
 80008c2:	f892 6100 	ldrb.w	r6, [r2, #256]	; 0x100
 80008c6:	f895 5200 	ldrb.w	r5, [r5, #512]	; 0x200
 80008ca:	eb01 0144 	add.w	r1, r1, r4, lsl #1
 80008ce:	242d      	movs	r4, #45	; 0x2d
 80008d0:	eb01 0809 	add.w	r8, r1, r9
 80008d4:	fb04 bb09 	mla	fp, r4, r9, fp
 80008d8:	9110      	str	r1, [sp, #64]	; 0x40
 80008da:	9908      	ldr	r1, [sp, #32]
 80008dc:	f8cd 8064 	str.w	r8, [sp, #100]	; 0x64
 80008e0:	eb0b 090c 	add.w	r9, fp, ip
 80008e4:	f8dd 8028 	ldr.w	r8, [sp, #40]	; 0x28
 80008e8:	eb05 0546 	add.w	r5, r5, r6, lsl #1
 80008ec:	f892 6200 	ldrb.w	r6, [r2, #512]	; 0x200
 80008f0:	2224      	movs	r2, #36	; 0x24
 80008f2:	fb02 9a01 	mla	sl, r2, r1, r9
 80008f6:	2415      	movs	r4, #21
 80008f8:	fb04 a908 	mla	r9, r4, r8, sl
 80008fc:	f8dd a024 	ldr.w	sl, [sp, #36]	; 0x24
 8000900:	990c      	ldr	r1, [sp, #48]	; 0x30
 8000902:	f04f 0b1c 	mov.w	fp, #28
 8000906:	fb0b 990a 	mla	r9, fp, sl, r9
 800090a:	f04f 080a 	mov.w	r8, #10
 800090e:	f8dd a02c 	ldr.w	sl, [sp, #44]	; 0x2c
 8000912:	fb08 9901 	mla	r9, r8, r1, r9
 8000916:	f04f 0b0f 	mov.w	fp, #15
 800091a:	990e      	ldr	r1, [sp, #56]	; 0x38
 800091c:	fb0b 990a 	mla	r9, fp, sl, r9
 8000920:	f04f 0803 	mov.w	r8, #3
 8000924:	f8dd a034 	ldr.w	sl, [sp, #52]	; 0x34
 8000928:	fb08 9901 	mla	r9, r8, r1, r9
 800092c:	f04f 0b06 	mov.w	fp, #6
 8000930:	fb0b 990a 	mla	r9, fp, sl, r9
 8000934:	f8cd 9004 	str.w	r9, [sp, #4]
 8000938:	f8dd a02c 	ldr.w	sl, [sp, #44]	; 0x2c
 800093c:	990c      	ldr	r1, [sp, #48]	; 0x30
 800093e:	f04f 0b4b 	mov.w	fp, #75	; 0x4b
 8000942:	4451      	add	r1, sl
 8000944:	fb0b f901 	mul.w	r9, fp, r1
 8000948:	991b      	ldr	r1, [sp, #108]	; 0x6c
 800094a:	f04f 0a49 	mov.w	sl, #73	; 0x49
 800094e:	fb0a 9b01 	mla	fp, sl, r1, r9
 8000952:	9906      	ldr	r1, [sp, #24]
 8000954:	f8dd 9068 	ldr.w	r9, [sp, #104]	; 0x68
 8000958:	eb0b 0a01 	add.w	sl, fp, r1
 800095c:	f04f 0b3f 	mov.w	fp, #63	; 0x3f
 8000960:	991c      	ldr	r1, [sp, #112]	; 0x70
 8000962:	fb0b aa09 	mla	sl, fp, r9, sl
 8000966:	f04f 0b45 	mov.w	fp, #69	; 0x45
 800096a:	f8dd 9064 	ldr.w	r9, [sp, #100]	; 0x64
 800096e:	fb0b aa01 	mla	sl, fp, r1, sl
 8000972:	f04f 0b37 	mov.w	fp, #55	; 0x37
 8000976:	fb0b ab09 	mla	fp, fp, r9, sl
 800097a:	f8dd a024 	ldr.w	sl, [sp, #36]	; 0x24
 800097e:	990a      	ldr	r1, [sp, #40]	; 0x28
 8000980:	fb08 f80a 	mul.w	r8, r8, sl
 8000984:	f04f 0906 	mov.w	r9, #6
 8000988:	f8dd a020 	ldr.w	sl, [sp, #32]
 800098c:	fb09 8801 	mla	r8, r9, r1, r8
 8000990:	990c      	ldr	r1, [sp, #48]	; 0x30
 8000992:	44d0      	add	r8, sl
 8000994:	f04f 090f 	mov.w	r9, #15
 8000998:	f8dd a02c 	ldr.w	sl, [sp, #44]	; 0x2c
 800099c:	fb09 8801 	mla	r8, r9, r1, r8
 80009a0:	210a      	movs	r1, #10
 80009a2:	f8dd 9038 	ldr.w	r9, [sp, #56]	; 0x38
 80009a6:	fb01 880a 	mla	r8, r1, sl, r8
 80009aa:	f04f 0a1c 	mov.w	sl, #28
 80009ae:	990d      	ldr	r1, [sp, #52]	; 0x34
 80009b0:	fb0a 8809 	mla	r8, sl, r9, r8
 80009b4:	fb04 8a01 	mla	sl, r4, r1, r8
 80009b8:	9c10      	ldr	r4, [sp, #64]	; 0x40
 80009ba:	990f      	ldr	r1, [sp, #60]	; 0x3c
 80009bc:	f04f 092d 	mov.w	r9, #45	; 0x2d
 80009c0:	fb09 a804 	mla	r8, r9, r4, sl
 80009c4:	f8dd a004 	ldr.w	sl, [sp, #4]
 80009c8:	fb02 820c 	mla	r2, r2, ip, r8
 80009cc:	9206      	str	r2, [sp, #24]
 80009ce:	f5aa 397a 	sub.w	r9, sl, #256000	; 0x3e800
 80009d2:	b171      	cbz	r1, 80009f2 <PDM_Filter_80_LSB+0x2c2>
 80009d4:	9c03      	ldr	r4, [sp, #12]
 80009d6:	9905      	ldr	r1, [sp, #20]
 80009d8:	f8cd 9014 	str.w	r9, [sp, #20]
 80009dc:	eb04 0209 	add.w	r2, r4, r9
 80009e0:	1a54      	subs	r4, r2, r1
 80009e2:	9a0f      	ldr	r2, [sp, #60]	; 0x3c
 80009e4:	f44f 7180 	mov.w	r1, #256	; 0x100
 80009e8:	4354      	muls	r4, r2
 80009ea:	fb94 f4f1 	sdiv	r4, r4, r1
 80009ee:	9403      	str	r4, [sp, #12]
 80009f0:	46a1      	mov	r9, r4
 80009f2:	9907      	ldr	r1, [sp, #28]
 80009f4:	b161      	cbz	r1, 8000a10 <PDM_Filter_80_LSB+0x2e0>
 80009f6:	9c04      	ldr	r4, [sp, #16]
 80009f8:	f5c1 7280 	rsb	r2, r1, #256	; 0x100
 80009fc:	fb09 fc01 	mul.w	ip, r9, r1
 8000a00:	fb04 c902 	mla	r9, r4, r2, ip
 8000a04:	f44f 7180 	mov.w	r1, #256	; 0x100
 8000a08:	fb99 f2f1 	sdiv	r2, r9, r1
 8000a0c:	9204      	str	r2, [sp, #16]
 8000a0e:	4691      	mov	r9, r2
 8000a10:	9c1f      	ldr	r4, [sp, #124]	; 0x7c
 8000a12:	fb04 f109 	mul.w	r1, r4, r9
 8000a16:	2900      	cmp	r1, #0
 8000a18:	dd02      	ble.n	8000a20 <PDM_Filter_80_LSB+0x2f0>
 8000a1a:	3110      	adds	r1, #16
 8000a1c:	114c      	asrs	r4, r1, #5
 8000a1e:	e003      	b.n	8000a28 <PDM_Filter_80_LSB+0x2f8>
 8000a20:	3910      	subs	r1, #16
 8000a22:	2220      	movs	r2, #32
 8000a24:	fb91 f4f2 	sdiv	r4, r1, r2
 8000a28:	f647 71bc 	movw	r1, #32700	; 0x7fbc
 8000a2c:	428c      	cmp	r4, r1
 8000a2e:	bfa8      	it	ge
 8000a30:	460c      	movge	r4, r1
 8000a32:	89da      	ldrh	r2, [r3, #14]
 8000a34:	9902      	ldr	r1, [sp, #8]
 8000a36:	f8dd 8074 	ldr.w	r8, [sp, #116]	; 0x74
 8000a3a:	434a      	muls	r2, r1
 8000a3c:	4908      	ldr	r1, [pc, #32]	; (8000a60 <PDM_Filter_80_LSB+0x330>)
 8000a3e:	428c      	cmp	r4, r1
 8000a40:	bfa8      	it	ge
 8000a42:	4621      	movge	r1, r4
 8000a44:	9c1e      	ldr	r4, [sp, #120]	; 0x78
 8000a46:	f824 1012 	strh.w	r1, [r4, r2, lsl #1]
 8000a4a:	9a02      	ldr	r2, [sp, #8]
 8000a4c:	4440      	add	r0, r8
 8000a4e:	1c51      	adds	r1, r2, #1
 8000a50:	e6a9      	b.n	80007a6 <PDM_Filter_80_LSB+0x76>
 8000a52:	bf00      	nop
 8000a54:	b5e8b5cd 	.word	0xb5e8b5cd
 8000a58:	200015c0 	.word	0x200015c0
 8000a5c:	20000800 	.word	0x20000800
 8000a60:	ffff8044 	.word	0xffff8044
 8000a64:	9805      	ldr	r0, [sp, #20]
 8000a66:	611e      	str	r6, [r3, #16]
 8000a68:	615d      	str	r5, [r3, #20]
 8000a6a:	9e03      	ldr	r6, [sp, #12]
 8000a6c:	9d06      	ldr	r5, [sp, #24]
 8000a6e:	9c04      	ldr	r4, [sp, #16]
 8000a70:	6258      	str	r0, [r3, #36]	; 0x24
 8000a72:	619d      	str	r5, [r3, #24]
 8000a74:	f8c3 b01c 	str.w	fp, [r3, #28]
 8000a78:	621e      	str	r6, [r3, #32]
 8000a7a:	629c      	str	r4, [r3, #40]	; 0x28
 8000a7c:	4610      	mov	r0, r2
 8000a7e:	b021      	add	sp, #132	; 0x84
 8000a80:	e8bd 8ff0 	ldmia.w	sp!, {r4, r5, r6, r7, r8, r9, sl, fp, pc}

08000a84 <PDM_Filter_64_MSB>:
 8000a84:	e92d 4ff0 	stmdb	sp!, {r4, r5, r6, r7, r8, r9, sl, fp, lr}
 8000a88:	b095      	sub	sp, #84	; 0x54
 8000a8a:	4c99      	ldr	r4, [pc, #612]	; (8000cf0 <PDM_Filter_64_MSB+0x26c>)
 8000a8c:	9213      	str	r2, [sp, #76]	; 0x4c
 8000a8e:	4a99      	ldr	r2, [pc, #612]	; (8000cf4 <PDM_Filter_64_MSB+0x270>)
 8000a90:	9112      	str	r1, [sp, #72]	; 0x48
 8000a92:	6811      	ldr	r1, [r2, #0]
 8000a94:	42a1      	cmp	r1, r4
 8000a96:	d000      	beq.n	8000a9a <PDM_Filter_64_MSB+0x16>
 8000a98:	e7fe      	b.n	8000a98 <PDM_Filter_64_MSB+0x14>
 8000a9a:	6a5e      	ldr	r6, [r3, #36]	; 0x24
 8000a9c:	6a1d      	ldr	r5, [r3, #32]
 8000a9e:	6a9f      	ldr	r7, [r3, #40]	; 0x28
 8000aa0:	699a      	ldr	r2, [r3, #24]
 8000aa2:	8d99      	ldrh	r1, [r3, #44]	; 0x2c
 8000aa4:	f8b3 802e 	ldrh.w	r8, [r3, #46]	; 0x2e
 8000aa8:	960c      	str	r6, [sp, #48]	; 0x30
 8000aaa:	f04f 0900 	mov.w	r9, #0
 8000aae:	f8d3 c010 	ldr.w	ip, [r3, #16]
 8000ab2:	695e      	ldr	r6, [r3, #20]
 8000ab4:	f8d3 b01c 	ldr.w	fp, [r3, #28]
 8000ab8:	9501      	str	r5, [sp, #4]
 8000aba:	9702      	str	r7, [sp, #8]
 8000abc:	9209      	str	r2, [sp, #36]	; 0x24
 8000abe:	910a      	str	r1, [sp, #40]	; 0x28
 8000ac0:	f8cd 8034 	str.w	r8, [sp, #52]	; 0x34
 8000ac4:	f8cd 900c 	str.w	r9, [sp, #12]
 8000ac8:	498b      	ldr	r1, [pc, #556]	; (8000cf8 <PDM_Filter_64_MSB+0x274>)
 8000aca:	7804      	ldrb	r4, [r0, #0]
 8000acc:	190d      	adds	r5, r1, r4
 8000ace:	5d0c      	ldrb	r4, [r1, r4]
 8000ad0:	f895 7200 	ldrb.w	r7, [r5, #512]	; 0x200
 8000ad4:	f895 8100 	ldrb.w	r8, [r5, #256]	; 0x100
 8000ad8:	eb06 0a07 	add.w	sl, r6, r7
 8000adc:	7a06      	ldrb	r6, [r0, #8]
 8000ade:	f8cd a02c 	str.w	sl, [sp, #44]	; 0x2c
 8000ae2:	198f      	adds	r7, r1, r6
 8000ae4:	5d8e      	ldrb	r6, [r1, r6]
 8000ae6:	f897 2200 	ldrb.w	r2, [r7, #512]	; 0x200
 8000aea:	eb02 0548 	add.w	r5, r2, r8, lsl #1
 8000aee:	44ac      	add	ip, r5
 8000af0:	7c05      	ldrb	r5, [r0, #16]
 8000af2:	f897 8100 	ldrb.w	r8, [r7, #256]	; 0x100
 8000af6:	f8cd c010 	str.w	ip, [sp, #16]
 8000afa:	194a      	adds	r2, r1, r5
 8000afc:	5d4d      	ldrb	r5, [r1, r5]
 8000afe:	f892 9200 	ldrb.w	r9, [r2, #512]	; 0x200
 8000b02:	f892 2100 	ldrb.w	r2, [r2, #256]	; 0x100
 8000b06:	eb09 0a04 	add.w	sl, r9, r4
 8000b0a:	eb0a 0c48 	add.w	ip, sl, r8, lsl #1
 8000b0e:	f890 a018 	ldrb.w	sl, [r0, #24]
 8000b12:	f890 9020 	ldrb.w	r9, [r0, #32]
 8000b16:	f8cd c014 	str.w	ip, [sp, #20]
 8000b1a:	eb01 040a 	add.w	r4, r1, sl
 8000b1e:	f894 7200 	ldrb.w	r7, [r4, #512]	; 0x200
 8000b22:	f894 4100 	ldrb.w	r4, [r4, #256]	; 0x100
 8000b26:	19bf      	adds	r7, r7, r6
 8000b28:	eb07 0842 	add.w	r8, r7, r2, lsl #1
 8000b2c:	eb01 0209 	add.w	r2, r1, r9
 8000b30:	f8cd 8018 	str.w	r8, [sp, #24]
 8000b34:	f892 6200 	ldrb.w	r6, [r2, #512]	; 0x200
 8000b38:	f892 2100 	ldrb.w	r2, [r2, #256]	; 0x100
 8000b3c:	1977      	adds	r7, r6, r5
 8000b3e:	eb07 0644 	add.w	r6, r7, r4, lsl #1
 8000b42:	eb06 0c08 	add.w	ip, r6, r8
 8000b46:	f890 8028 	ldrb.w	r8, [r0, #40]	; 0x28
 8000b4a:	f811 700a 	ldrb.w	r7, [r1, sl]
 8000b4e:	9607      	str	r6, [sp, #28]
 8000b50:	eb01 0508 	add.w	r5, r1, r8
 8000b54:	f8cd c040 	str.w	ip, [sp, #64]	; 0x40
 8000b58:	f895 4200 	ldrb.w	r4, [r5, #512]	; 0x200
 8000b5c:	f895 5100 	ldrb.w	r5, [r5, #256]	; 0x100
 8000b60:	19e6      	adds	r6, r4, r7
 8000b62:	9f05      	ldr	r7, [sp, #20]
 8000b64:	eb06 0442 	add.w	r4, r6, r2, lsl #1
 8000b68:	19e6      	adds	r6, r4, r7
 8000b6a:	9611      	str	r6, [sp, #68]	; 0x44
 8000b6c:	f890 6030 	ldrb.w	r6, [r0, #48]	; 0x30
 8000b70:	9408      	str	r4, [sp, #32]
 8000b72:	198c      	adds	r4, r1, r6
 8000b74:	f811 7009 	ldrb.w	r7, [r1, r9]
 8000b78:	f894 2200 	ldrb.w	r2, [r4, #512]	; 0x200
 8000b7c:	19d2      	adds	r2, r2, r7
 8000b7e:	9f04      	ldr	r7, [sp, #16]
 8000b80:	eb02 0245 	add.w	r2, r2, r5, lsl #1
 8000b84:	18bd      	adds	r5, r7, r2
 8000b86:	950f      	str	r5, [sp, #60]	; 0x3c
 8000b88:	f890 5038 	ldrb.w	r5, [r0, #56]	; 0x38
 8000b8c:	f811 9008 	ldrb.w	r9, [r1, r8]
 8000b90:	f894 4100 	ldrb.w	r4, [r4, #256]	; 0x100
 8000b94:	f8dd 802c 	ldr.w	r8, [sp, #44]	; 0x2c
 8000b98:	5d8e      	ldrb	r6, [r1, r6]
 8000b9a:	194f      	adds	r7, r1, r5
 8000b9c:	f897 a200 	ldrb.w	sl, [r7, #512]	; 0x200
 8000ba0:	f897 7100 	ldrb.w	r7, [r7, #256]	; 0x100
 8000ba4:	eb0a 0c09 	add.w	ip, sl, r9
 8000ba8:	eb0c 0444 	add.w	r4, ip, r4, lsl #1
 8000bac:	f8dd a018 	ldr.w	sl, [sp, #24]
 8000bb0:	f811 c005 	ldrb.w	ip, [r1, r5]
 8000bb4:	9400      	str	r4, [sp, #0]
 8000bb6:	251c      	movs	r5, #28
 8000bb8:	fb05 2908 	mla	r9, r5, r8, r2
 8000bbc:	4444      	add	r4, r8
 8000bbe:	210a      	movs	r1, #10
 8000bc0:	f8dd 8014 	ldr.w	r8, [sp, #20]
 8000bc4:	fb01 990a 	mla	r9, r1, sl, r9
 8000bc8:	eb06 0647 	add.w	r6, r6, r7, lsl #1
 8000bcc:	f8dd a020 	ldr.w	sl, [sp, #32]
 8000bd0:	270f      	movs	r7, #15
 8000bd2:	fb07 9908 	mla	r9, r7, r8, r9
 8000bd6:	2103      	movs	r1, #3
 8000bd8:	fb01 990a 	mla	r9, r1, sl, r9
 8000bdc:	f8dd a01c 	ldr.w	sl, [sp, #28]
 8000be0:	f04f 0806 	mov.w	r8, #6
 8000be4:	fb08 990a 	mla	r9, r8, sl, r9
 8000be8:	f8dd a010 	ldr.w	sl, [sp, #16]
 8000bec:	2115      	movs	r1, #21
 8000bee:	fb01 990a 	mla	r9, r1, sl, r9
 8000bf2:	44cb      	add	fp, r9
 8000bf4:	f8dd 9044 	ldr.w	r9, [sp, #68]	; 0x44
 8000bf8:	f8cd b02c 	str.w	fp, [sp, #44]	; 0x2c
 8000bfc:	f04f 0a2e 	mov.w	sl, #46	; 0x2e
 8000c00:	fb0a fa09 	mul.w	sl, sl, r9
 8000c04:	f8dd 9040 	ldr.w	r9, [sp, #64]	; 0x40
 8000c08:	f04f 0b30 	mov.w	fp, #48	; 0x30
 8000c0c:	fb0b aa09 	mla	sl, fp, r9, sl
 8000c10:	f04f 0b24 	mov.w	fp, #36	; 0x24
 8000c14:	fb0b a904 	mla	r9, fp, r4, sl
 8000c18:	9c0f      	ldr	r4, [sp, #60]	; 0x3c
 8000c1a:	f04f 0a2a 	mov.w	sl, #42	; 0x2a
 8000c1e:	fb0a 9b04 	mla	fp, sl, r4, r9
 8000c22:	9c09      	ldr	r4, [sp, #36]	; 0x24
 8000c24:	f8dd 9018 	ldr.w	r9, [sp, #24]
 8000c28:	f8dd a010 	ldr.w	sl, [sp, #16]
 8000c2c:	44a3      	add	fp, r4
 8000c2e:	9c05      	ldr	r4, [sp, #20]
 8000c30:	fb08 a809 	mla	r8, r8, r9, sl
 8000c34:	f8dd a020 	ldr.w	sl, [sp, #32]
 8000c38:	f04f 0903 	mov.w	r9, #3
 8000c3c:	fb09 8804 	mla	r8, r9, r4, r8
 8000c40:	9c07      	ldr	r4, [sp, #28]
 8000c42:	fb07 890a 	mla	r9, r7, sl, r8
 8000c46:	270a      	movs	r7, #10
 8000c48:	fb07 9804 	mla	r8, r7, r4, r9
 8000c4c:	f8dd 9000 	ldr.w	r9, [sp]
 8000c50:	f8dd a02c 	ldr.w	sl, [sp, #44]	; 0x2c
 8000c54:	9f0c      	ldr	r7, [sp, #48]	; 0x30
 8000c56:	fb05 8509 	mla	r5, r5, r9, r8
 8000c5a:	fb01 5202 	mla	r2, r1, r2, r5
 8000c5e:	9901      	ldr	r1, [sp, #4]
 8000c60:	9209      	str	r2, [sp, #36]	; 0x24
 8000c62:	f5aa 3200 	sub.w	r2, sl, #131072	; 0x20000
 8000c66:	188c      	adds	r4, r1, r2
 8000c68:	990d      	ldr	r1, [sp, #52]	; 0x34
 8000c6a:	f8dd 8028 	ldr.w	r8, [sp, #40]	; 0x28
 8000c6e:	1be5      	subs	r5, r4, r7
 8000c70:	434d      	muls	r5, r1
 8000c72:	f44f 7180 	mov.w	r1, #256	; 0x100
 8000c76:	fb95 f4f1 	sdiv	r4, r5, r1
 8000c7a:	9401      	str	r4, [sp, #4]
 8000c7c:	9f01      	ldr	r7, [sp, #4]
 8000c7e:	4644      	mov	r4, r8
 8000c80:	437c      	muls	r4, r7
 8000c82:	9f02      	ldr	r7, [sp, #8]
 8000c84:	ebc8 0501 	rsb	r5, r8, r1
 8000c88:	fb07 4505 	mla	r5, r7, r5, r4
 8000c8c:	fb95 f1f1 	sdiv	r1, r5, r1
 8000c90:	9102      	str	r1, [sp, #8]
 8000c92:	9c13      	ldr	r4, [sp, #76]	; 0x4c
 8000c94:	4361      	muls	r1, r4
 8000c96:	2900      	cmp	r1, #0
 8000c98:	dd02      	ble.n	8000ca0 <PDM_Filter_64_MSB+0x21c>
 8000c9a:	3108      	adds	r1, #8
 8000c9c:	1109      	asrs	r1, r1, #4
 8000c9e:	e003      	b.n	8000ca8 <PDM_Filter_64_MSB+0x224>
 8000ca0:	3908      	subs	r1, #8
 8000ca2:	2710      	movs	r7, #16
 8000ca4:	fb91 f1f7 	sdiv	r1, r1, r7
 8000ca8:	f647 75bc 	movw	r5, #32700	; 0x7fbc
 8000cac:	4c13      	ldr	r4, [pc, #76]	; (8000cfc <PDM_Filter_64_MSB+0x278>)
 8000cae:	9f12      	ldr	r7, [sp, #72]	; 0x48
 8000cb0:	920c      	str	r2, [sp, #48]	; 0x30
 8000cb2:	42a9      	cmp	r1, r5
 8000cb4:	bfa8      	it	ge
 8000cb6:	4629      	movge	r1, r5
 8000cb8:	9d03      	ldr	r5, [sp, #12]
 8000cba:	42a1      	cmp	r1, r4
 8000cbc:	bfb8      	it	lt
 8000cbe:	4621      	movlt	r1, r4
 8000cc0:	5379      	strh	r1, [r7, r5]
 8000cc2:	350c      	adds	r5, #12
 8000cc4:	3040      	adds	r0, #64	; 0x40
 8000cc6:	2dc0      	cmp	r5, #192	; 0xc0
 8000cc8:	9503      	str	r5, [sp, #12]
 8000cca:	f47f aefd 	bne.w	8000ac8 <PDM_Filter_64_MSB+0x44>
 8000cce:	9809      	ldr	r0, [sp, #36]	; 0x24
 8000cd0:	9c01      	ldr	r4, [sp, #4]
 8000cd2:	9d02      	ldr	r5, [sp, #8]
 8000cd4:	6198      	str	r0, [r3, #24]
 8000cd6:	f8c3 c010 	str.w	ip, [r3, #16]
 8000cda:	615e      	str	r6, [r3, #20]
 8000cdc:	f8c3 b01c 	str.w	fp, [r3, #28]
 8000ce0:	621c      	str	r4, [r3, #32]
 8000ce2:	625a      	str	r2, [r3, #36]	; 0x24
 8000ce4:	629d      	str	r5, [r3, #40]	; 0x28
 8000ce6:	2010      	movs	r0, #16
 8000ce8:	b015      	add	sp, #84	; 0x54
 8000cea:	e8bd 8ff0 	ldmia.w	sp!, {r4, r5, r6, r7, r8, r9, sl, fp, pc}
 8000cee:	bf00      	nop
 8000cf0:	b5e8b5cd 	.word	0xb5e8b5cd
 8000cf4:	200015c0 	.word	0x200015c0
 8000cf8:	20000800 	.word	0x20000800
 8000cfc:	ffff8044 	.word	0xffff8044

08000d00 <PDM_Filter_80_MSB>:
 8000d00:	e92d 4ff0 	stmdb	sp!, {r4, r5, r6, r7, r8, r9, sl, fp, lr}
 8000d04:	b0a1      	sub	sp, #132	; 0x84
 8000d06:	4684      	mov	ip, r0
 8000d08:	921f      	str	r2, [sp, #124]	; 0x7c
 8000d0a:	4abe      	ldr	r2, [pc, #760]	; (8001004 <PDM_Filter_80_MSB+0x304>)
 8000d0c:	911e      	str	r1, [sp, #120]	; 0x78
 8000d0e:	48be      	ldr	r0, [pc, #760]	; (8001008 <PDM_Filter_80_MSB+0x308>)
 8000d10:	6811      	ldr	r1, [r2, #0]
 8000d12:	4281      	cmp	r1, r0
 8000d14:	d000      	beq.n	8000d18 <PDM_Filter_80_MSB+0x18>
 8000d16:	e7fe      	b.n	8000d16 <PDM_Filter_80_MSB+0x16>
 8000d18:	6a9e      	ldr	r6, [r3, #40]	; 0x28
 8000d1a:	699f      	ldr	r7, [r3, #24]
 8000d1c:	9605      	str	r6, [sp, #20]
 8000d1e:	899e      	ldrh	r6, [r3, #12]
 8000d20:	8dd9      	ldrh	r1, [r3, #46]	; 0x2e
 8000d22:	9601      	str	r6, [sp, #4]
 8000d24:	0070      	lsls	r0, r6, #1
 8000d26:	9707      	str	r7, [sp, #28]
 8000d28:	2703      	movs	r7, #3
 8000d2a:	437e      	muls	r6, r7
 8000d2c:	9011      	str	r0, [sp, #68]	; 0x44
 8000d2e:	9801      	ldr	r0, [sp, #4]
 8000d30:	8d9a      	ldrh	r2, [r3, #44]	; 0x2c
 8000d32:	910f      	str	r1, [sp, #60]	; 0x3c
 8000d34:	9612      	str	r6, [sp, #72]	; 0x48
 8000d36:	2105      	movs	r1, #5
 8000d38:	9e01      	ldr	r6, [sp, #4]
 8000d3a:	9208      	str	r2, [sp, #32]
 8000d3c:	4348      	muls	r0, r1
 8000d3e:	00b2      	lsls	r2, r6, #2
 8000d40:	9014      	str	r0, [sp, #80]	; 0x50
 8000d42:	9e01      	ldr	r6, [sp, #4]
 8000d44:	9801      	ldr	r0, [sp, #4]
 8000d46:	9901      	ldr	r1, [sp, #4]
 8000d48:	9213      	str	r2, [sp, #76]	; 0x4c
 8000d4a:	2706      	movs	r7, #6
 8000d4c:	437e      	muls	r6, r7
 8000d4e:	2207      	movs	r2, #7
 8000d50:	00c7      	lsls	r7, r0, #3
 8000d52:	4351      	muls	r1, r2
 8000d54:	9615      	str	r6, [sp, #84]	; 0x54
 8000d56:	9717      	str	r7, [sp, #92]	; 0x5c
 8000d58:	9e01      	ldr	r6, [sp, #4]
 8000d5a:	9f01      	ldr	r7, [sp, #4]
 8000d5c:	6a1c      	ldr	r4, [r3, #32]
 8000d5e:	6a5d      	ldr	r5, [r3, #36]	; 0x24
 8000d60:	9116      	str	r1, [sp, #88]	; 0x58
 8000d62:	2209      	movs	r2, #9
 8000d64:	210a      	movs	r1, #10
 8000d66:	4356      	muls	r6, r2
 8000d68:	434f      	muls	r7, r1
 8000d6a:	f04f 0800 	mov.w	r8, #0
 8000d6e:	9404      	str	r4, [sp, #16]
 8000d70:	9506      	str	r5, [sp, #24]
 8000d72:	695c      	ldr	r4, [r3, #20]
 8000d74:	691d      	ldr	r5, [r3, #16]
 8000d76:	f8d3 b01c 	ldr.w	fp, [r3, #28]
 8000d7a:	9618      	str	r6, [sp, #96]	; 0x60
 8000d7c:	971d      	str	r7, [sp, #116]	; 0x74
 8000d7e:	f8cd 800c 	str.w	r8, [sp, #12]
 8000d82:	8e18      	ldrh	r0, [r3, #48]	; 0x30
 8000d84:	f8dd 900c 	ldr.w	r9, [sp, #12]
 8000d88:	4581      	cmp	r9, r0
 8000d8a:	f280 815a 	bge.w	8001042 <PDM_Filter_80_MSB+0x342>
 8000d8e:	499f      	ldr	r1, [pc, #636]	; (800100c <PDM_Filter_80_MSB+0x30c>)
 8000d90:	f89c 0000 	ldrb.w	r0, [ip]
 8000d94:	f8dd 9004 	ldr.w	r9, [sp, #4]
 8000d98:	180f      	adds	r7, r1, r0
 8000d9a:	f81c 6009 	ldrb.w	r6, [ip, r9]
 8000d9e:	f897 a200 	ldrb.w	sl, [r7, #512]	; 0x200
 8000da2:	f897 2100 	ldrb.w	r2, [r7, #256]	; 0x100
 8000da6:	5c08      	ldrb	r0, [r1, r0]
 8000da8:	44a2      	add	sl, r4
 8000daa:	198c      	adds	r4, r1, r6
 8000dac:	5d8e      	ldrb	r6, [r1, r6]
 8000dae:	f894 8200 	ldrb.w	r8, [r4, #512]	; 0x200
 8000db2:	f894 4100 	ldrb.w	r4, [r4, #256]	; 0x100
 8000db6:	4445      	add	r5, r8
 8000db8:	eb05 0742 	add.w	r7, r5, r2, lsl #1
 8000dbc:	9d11      	ldr	r5, [sp, #68]	; 0x44
 8000dbe:	9709      	str	r7, [sp, #36]	; 0x24
 8000dc0:	f81c 5005 	ldrb.w	r5, [ip, r5]
 8000dc4:	194a      	adds	r2, r1, r5
 8000dc6:	5d4d      	ldrb	r5, [r1, r5]
 8000dc8:	f892 7200 	ldrb.w	r7, [r2, #512]	; 0x200
 8000dcc:	f892 8100 	ldrb.w	r8, [r2, #256]	; 0x100
 8000dd0:	183f      	adds	r7, r7, r0
 8000dd2:	9812      	ldr	r0, [sp, #72]	; 0x48
 8000dd4:	eb07 0944 	add.w	r9, r7, r4, lsl #1
 8000dd8:	f81c 4000 	ldrb.w	r4, [ip, r0]
 8000ddc:	f8cd 9028 	str.w	r9, [sp, #40]	; 0x28
 8000de0:	1908      	adds	r0, r1, r4
 8000de2:	5d0c      	ldrb	r4, [r1, r4]
 8000de4:	f890 7200 	ldrb.w	r7, [r0, #512]	; 0x200
 8000de8:	f890 0100 	ldrb.w	r0, [r0, #256]	; 0x100
 8000dec:	19bf      	adds	r7, r7, r6
 8000dee:	eb07 0948 	add.w	r9, r7, r8, lsl #1
 8000df2:	f8dd 804c 	ldr.w	r8, [sp, #76]	; 0x4c
 8000df6:	f8cd 902c 	str.w	r9, [sp, #44]	; 0x2c
 8000dfa:	f81c 9008 	ldrb.w	r9, [ip, r8]
 8000dfe:	eb01 0209 	add.w	r2, r1, r9
 8000e02:	f8cd 9008 	str.w	r9, [sp, #8]
 8000e06:	f892 6200 	ldrb.w	r6, [r2, #512]	; 0x200
 8000e0a:	f892 2100 	ldrb.w	r2, [r2, #256]	; 0x100
 8000e0e:	1977      	adds	r7, r6, r5
 8000e10:	9e14      	ldr	r6, [sp, #80]	; 0x50
 8000e12:	f81c 9006 	ldrb.w	r9, [ip, r6]
 8000e16:	9e15      	ldr	r6, [sp, #84]	; 0x54
 8000e18:	eb07 0840 	add.w	r8, r7, r0, lsl #1
 8000e1c:	eb01 0009 	add.w	r0, r1, r9
 8000e20:	f8cd 8030 	str.w	r8, [sp, #48]	; 0x30
 8000e24:	f890 5200 	ldrb.w	r5, [r0, #512]	; 0x200
 8000e28:	f890 0100 	ldrb.w	r0, [r0, #256]	; 0x100
 8000e2c:	192f      	adds	r7, r5, r4
 8000e2e:	eb07 0842 	add.w	r8, r7, r2, lsl #1
 8000e32:	f81c 7006 	ldrb.w	r7, [ip, r6]
 8000e36:	9d02      	ldr	r5, [sp, #8]
 8000e38:	f8cd 8034 	str.w	r8, [sp, #52]	; 0x34
 8000e3c:	19ca      	adds	r2, r1, r7
 8000e3e:	5d4e      	ldrb	r6, [r1, r5]
 8000e40:	f892 4200 	ldrb.w	r4, [r2, #512]	; 0x200
 8000e44:	19a4      	adds	r4, r4, r6
 8000e46:	eb04 0540 	add.w	r5, r4, r0, lsl #1
 8000e4a:	9502      	str	r5, [sp, #8]
 8000e4c:	f8dd 802c 	ldr.w	r8, [sp, #44]	; 0x2c
 8000e50:	9e16      	ldr	r6, [sp, #88]	; 0x58
 8000e52:	f892 2100 	ldrb.w	r2, [r2, #256]	; 0x100
 8000e56:	5dcf      	ldrb	r7, [r1, r7]
 8000e58:	44a8      	add	r8, r5
 8000e5a:	f8cd 806c 	str.w	r8, [sp, #108]	; 0x6c
 8000e5e:	f81c 8006 	ldrb.w	r8, [ip, r6]
 8000e62:	f811 5009 	ldrb.w	r5, [r1, r9]
 8000e66:	f8dd 9060 	ldr.w	r9, [sp, #96]	; 0x60
 8000e6a:	eb01 0008 	add.w	r0, r1, r8
 8000e6e:	f811 8008 	ldrb.w	r8, [r1, r8]
 8000e72:	f890 4200 	ldrb.w	r4, [r0, #512]	; 0x200
 8000e76:	f890 0100 	ldrb.w	r0, [r0, #256]	; 0x100
 8000e7a:	1966      	adds	r6, r4, r5
 8000e7c:	9d0a      	ldr	r5, [sp, #40]	; 0x28
 8000e7e:	eb06 0442 	add.w	r4, r6, r2, lsl #1
 8000e82:	9a17      	ldr	r2, [sp, #92]	; 0x5c
 8000e84:	940e      	str	r4, [sp, #56]	; 0x38
 8000e86:	1966      	adds	r6, r4, r5
 8000e88:	961c      	str	r6, [sp, #112]	; 0x70
 8000e8a:	f81c 6002 	ldrb.w	r6, [ip, r2]
 8000e8e:	198c      	adds	r4, r1, r6
 8000e90:	5d8e      	ldrb	r6, [r1, r6]
 8000e92:	f894 2200 	ldrb.w	r2, [r4, #512]	; 0x200
 8000e96:	f894 4100 	ldrb.w	r4, [r4, #256]	; 0x100
 8000e9a:	19d5      	adds	r5, r2, r7
 8000e9c:	9f09      	ldr	r7, [sp, #36]	; 0x24
 8000e9e:	eb05 0240 	add.w	r2, r5, r0, lsl #1
 8000ea2:	19d5      	adds	r5, r2, r7
 8000ea4:	951a      	str	r5, [sp, #104]	; 0x68
 8000ea6:	f81c 5009 	ldrb.w	r5, [ip, r9]
 8000eaa:	194f      	adds	r7, r1, r5
 8000eac:	5d4d      	ldrb	r5, [r1, r5]
 8000eae:	f897 0200 	ldrb.w	r0, [r7, #512]	; 0x200
 8000eb2:	f897 7100 	ldrb.w	r7, [r7, #256]	; 0x100
 8000eb6:	4440      	add	r0, r8
 8000eb8:	eb00 0044 	add.w	r0, r0, r4, lsl #1
 8000ebc:	212d      	movs	r1, #45	; 0x2d
 8000ebe:	eb00 040a 	add.w	r4, r0, sl
 8000ec2:	fb01 bb0a 	mla	fp, r1, sl, fp
 8000ec6:	9010      	str	r0, [sp, #64]	; 0x40
 8000ec8:	9809      	ldr	r0, [sp, #36]	; 0x24
 8000eca:	9419      	str	r4, [sp, #100]	; 0x64
 8000ecc:	eb0b 0a02 	add.w	sl, fp, r2
 8000ed0:	eb06 0447 	add.w	r4, r6, r7, lsl #1
 8000ed4:	2124      	movs	r1, #36	; 0x24
 8000ed6:	9f0b      	ldr	r7, [sp, #44]	; 0x2c
 8000ed8:	fb01 a900 	mla	r9, r1, r0, sl
 8000edc:	f04f 0815 	mov.w	r8, #21
 8000ee0:	f8dd a028 	ldr.w	sl, [sp, #40]	; 0x28
 8000ee4:	980d      	ldr	r0, [sp, #52]	; 0x34
 8000ee6:	fb08 9607 	mla	r6, r8, r7, r9
 8000eea:	f04f 0b1c 	mov.w	fp, #28
 8000eee:	fb0b 690a 	mla	r9, fp, sl, r6
 8000ef2:	f8dd 8030 	ldr.w	r8, [sp, #48]	; 0x30
 8000ef6:	260a      	movs	r6, #10
 8000ef8:	fb06 9a00 	mla	sl, r6, r0, r9
 8000efc:	270f      	movs	r7, #15
 8000efe:	f8dd 9038 	ldr.w	r9, [sp, #56]	; 0x38
 8000f02:	fb07 ab08 	mla	fp, r7, r8, sl
 8000f06:	f04f 0803 	mov.w	r8, #3
 8000f0a:	fb08 ba09 	mla	sl, r8, r9, fp
 8000f0e:	f8dd b008 	ldr.w	fp, [sp, #8]
 8000f12:	2006      	movs	r0, #6
 8000f14:	fb00 a90b 	mla	r9, r0, fp, sl
 8000f18:	f8cd 9000 	str.w	r9, [sp]
 8000f1c:	f8dd a034 	ldr.w	sl, [sp, #52]	; 0x34
 8000f20:	f8dd b030 	ldr.w	fp, [sp, #48]	; 0x30
 8000f24:	f04f 094b 	mov.w	r9, #75	; 0x4b
 8000f28:	eb0a 000b 	add.w	r0, sl, fp
 8000f2c:	fb09 fa00 	mul.w	sl, r9, r0
 8000f30:	981b      	ldr	r0, [sp, #108]	; 0x6c
 8000f32:	f04f 0b49 	mov.w	fp, #73	; 0x49
 8000f36:	fb0b a900 	mla	r9, fp, r0, sl
 8000f3a:	9807      	ldr	r0, [sp, #28]
 8000f3c:	eb09 0a00 	add.w	sl, r9, r0
 8000f40:	f8dd 9068 	ldr.w	r9, [sp, #104]	; 0x68
 8000f44:	981c      	ldr	r0, [sp, #112]	; 0x70
 8000f46:	f04f 0b3f 	mov.w	fp, #63	; 0x3f
 8000f4a:	fb0b aa09 	mla	sl, fp, r9, sl
 8000f4e:	f04f 0b45 	mov.w	fp, #69	; 0x45
 8000f52:	f8dd 9064 	ldr.w	r9, [sp, #100]	; 0x64
 8000f56:	fb0b aa00 	mla	sl, fp, r0, sl
 8000f5a:	f04f 0b37 	mov.w	fp, #55	; 0x37
 8000f5e:	fb0b ab09 	mla	fp, fp, r9, sl
 8000f62:	f8dd a028 	ldr.w	sl, [sp, #40]	; 0x28
 8000f66:	980b      	ldr	r0, [sp, #44]	; 0x2c
 8000f68:	fb08 f80a 	mul.w	r8, r8, sl
 8000f6c:	f04f 0906 	mov.w	r9, #6
 8000f70:	f8dd a024 	ldr.w	sl, [sp, #36]	; 0x24
 8000f74:	fb09 8800 	mla	r8, r9, r0, r8
 8000f78:	980d      	ldr	r0, [sp, #52]	; 0x34
 8000f7a:	eb08 090a 	add.w	r9, r8, sl
 8000f7e:	fb07 9800 	mla	r8, r7, r0, r9
 8000f82:	9f0c      	ldr	r7, [sp, #48]	; 0x30
 8000f84:	f8dd 9038 	ldr.w	r9, [sp, #56]	; 0x38
 8000f88:	9802      	ldr	r0, [sp, #8]
 8000f8a:	fb06 8607 	mla	r6, r6, r7, r8
 8000f8e:	f04f 0a1c 	mov.w	sl, #28
 8000f92:	fb0a 6809 	mla	r8, sl, r9, r6
 8000f96:	2715      	movs	r7, #21
 8000f98:	fb07 8600 	mla	r6, r7, r0, r8
 8000f9c:	9810      	ldr	r0, [sp, #64]	; 0x40
 8000f9e:	9f0f      	ldr	r7, [sp, #60]	; 0x3c
 8000fa0:	f04f 092d 	mov.w	r9, #45	; 0x2d
 8000fa4:	fb09 6a00 	mla	sl, r9, r0, r6
 8000fa8:	fb01 a202 	mla	r2, r1, r2, sl
 8000fac:	f8dd a000 	ldr.w	sl, [sp]
 8000fb0:	9207      	str	r2, [sp, #28]
 8000fb2:	f5aa 387a 	sub.w	r8, sl, #256000	; 0x3e800
 8000fb6:	b16f      	cbz	r7, 8000fd4 <PDM_Filter_80_MSB+0x2d4>
 8000fb8:	9904      	ldr	r1, [sp, #16]
 8000fba:	9e06      	ldr	r6, [sp, #24]
 8000fbc:	f8cd 8018 	str.w	r8, [sp, #24]
 8000fc0:	eb01 0008 	add.w	r0, r1, r8
 8000fc4:	1b81      	subs	r1, r0, r6
 8000fc6:	4379      	muls	r1, r7
 8000fc8:	f44f 7280 	mov.w	r2, #256	; 0x100
 8000fcc:	fb91 f7f2 	sdiv	r7, r1, r2
 8000fd0:	9704      	str	r7, [sp, #16]
 8000fd2:	46b8      	mov	r8, r7
 8000fd4:	9808      	ldr	r0, [sp, #32]
 8000fd6:	b160      	cbz	r0, 8000ff2 <PDM_Filter_80_MSB+0x2f2>
 8000fd8:	9905      	ldr	r1, [sp, #20]
 8000fda:	fb08 f800 	mul.w	r8, r8, r0
 8000fde:	f5c0 7680 	rsb	r6, r0, #256	; 0x100
 8000fe2:	fb01 8906 	mla	r9, r1, r6, r8
 8000fe6:	f44f 7280 	mov.w	r2, #256	; 0x100
 8000fea:	fb99 f7f2 	sdiv	r7, r9, r2
 8000fee:	9705      	str	r7, [sp, #20]
 8000ff0:	46b8      	mov	r8, r7
 8000ff2:	981f      	ldr	r0, [sp, #124]	; 0x7c
 8000ff4:	fb00 f608 	mul.w	r6, r0, r8
 8000ff8:	2e00      	cmp	r6, #0
 8000ffa:	dd09      	ble.n	8001010 <PDM_Filter_80_MSB+0x310>
 8000ffc:	3610      	adds	r6, #16
 8000ffe:	1177      	asrs	r7, r6, #5
 8001000:	e00a      	b.n	8001018 <PDM_Filter_80_MSB+0x318>
 8001002:	bf00      	nop
 8001004:	200015c0 	.word	0x200015c0
 8001008:	b5e8b5cd 	.word	0xb5e8b5cd
 800100c:	20000800 	.word	0x20000800
 8001010:	3e10      	subs	r6, #16
 8001012:	2120      	movs	r1, #32
 8001014:	fb96 f7f1 	sdiv	r7, r6, r1
 8001018:	9e03      	ldr	r6, [sp, #12]
 800101a:	89d8      	ldrh	r0, [r3, #14]
 800101c:	4910      	ldr	r1, [pc, #64]	; (8001060 <PDM_Filter_80_MSB+0x360>)
 800101e:	f8dd 8074 	ldr.w	r8, [sp, #116]	; 0x74
 8001022:	f647 72bc 	movw	r2, #32700	; 0x7fbc
 8001026:	4297      	cmp	r7, r2
 8001028:	bfa8      	it	ge
 800102a:	4617      	movge	r7, r2
 800102c:	428f      	cmp	r7, r1
 800102e:	bfa8      	it	ge
 8001030:	4639      	movge	r1, r7
 8001032:	4370      	muls	r0, r6
 8001034:	9f1e      	ldr	r7, [sp, #120]	; 0x78
 8001036:	1c72      	adds	r2, r6, #1
 8001038:	f827 1010 	strh.w	r1, [r7, r0, lsl #1]
 800103c:	44c4      	add	ip, r8
 800103e:	9203      	str	r2, [sp, #12]
 8001040:	e69f      	b.n	8000d82 <PDM_Filter_80_MSB+0x82>
 8001042:	615c      	str	r4, [r3, #20]
 8001044:	9c07      	ldr	r4, [sp, #28]
 8001046:	9a04      	ldr	r2, [sp, #16]
 8001048:	619c      	str	r4, [r3, #24]
 800104a:	9e05      	ldr	r6, [sp, #20]
 800104c:	9c06      	ldr	r4, [sp, #24]
 800104e:	611d      	str	r5, [r3, #16]
 8001050:	f8c3 b01c 	str.w	fp, [r3, #28]
 8001054:	621a      	str	r2, [r3, #32]
 8001056:	625c      	str	r4, [r3, #36]	; 0x24
 8001058:	629e      	str	r6, [r3, #40]	; 0x28
 800105a:	b021      	add	sp, #132	; 0x84
 800105c:	e8bd 8ff0 	ldmia.w	sp!, {r4, r5, r6, r7, r8, r9, sl, fp, pc}
 8001060:	ffff8044 	.word	0xffff8044
 8001064:	f3af 8000 	nop.w
	...

08001070 <arm_bitreversal_32>:
 8001070:	1c4b      	adds	r3, r1, #1
 8001072:	2b01      	cmp	r3, #1
 8001074:	bf98      	it	ls
 8001076:	4770      	bxls	lr
 8001078:	e92d 03f0 	stmdb	sp!, {r4, r5, r6, r7, r8, r9}
 800107c:	1c91      	adds	r1, r2, #2
 800107e:	089b      	lsrs	r3, r3, #2

08001080 <arm_bitreversal_32_0>:
 8001080:	f8b1 8004 	ldrh.w	r8, [r1, #4]
 8001084:	f8b1 9002 	ldrh.w	r9, [r1, #2]
 8001088:	880a      	ldrh	r2, [r1, #0]
 800108a:	f831 cc02 	ldrh.w	ip, [r1, #-2]
 800108e:	4480      	add	r8, r0
 8001090:	4481      	add	r9, r0
 8001092:	4402      	add	r2, r0
 8001094:	4484      	add	ip, r0
 8001096:	f8d9 7000 	ldr.w	r7, [r9]
 800109a:	f8d8 6000 	ldr.w	r6, [r8]
 800109e:	6815      	ldr	r5, [r2, #0]
 80010a0:	f8dc 4000 	ldr.w	r4, [ip]
 80010a4:	f8c9 6000 	str.w	r6, [r9]
 80010a8:	f8c8 7000 	str.w	r7, [r8]
 80010ac:	f8cc 5000 	str.w	r5, [ip]
 80010b0:	6014      	str	r4, [r2, #0]
 80010b2:	f8d9 7004 	ldr.w	r7, [r9, #4]
 80010b6:	f8d8 6004 	ldr.w	r6, [r8, #4]
 80010ba:	6855      	ldr	r5, [r2, #4]
 80010bc:	f8dc 4004 	ldr.w	r4, [ip, #4]
 80010c0:	f8c9 6004 	str.w	r6, [r9, #4]
 80010c4:	f8c8 7004 	str.w	r7, [r8, #4]
 80010c8:	f8cc 5004 	str.w	r5, [ip, #4]
 80010cc:	6054      	str	r4, [r2, #4]
 80010ce:	3108      	adds	r1, #8
 80010d0:	3b01      	subs	r3, #1
 80010d2:	d1d5      	bne.n	8001080 <arm_bitreversal_32_0>
 80010d4:	e8bd 03f0 	ldmia.w	sp!, {r4, r5, r6, r7, r8, r9}
 80010d8:	4770      	bx	lr

080010da <arm_bitreversal_16>:
 80010da:	1c4b      	adds	r3, r1, #1
 80010dc:	2b01      	cmp	r3, #1
 80010de:	bf98      	it	ls
 80010e0:	4770      	bxls	lr
 80010e2:	e92d 03f0 	stmdb	sp!, {r4, r5, r6, r7, r8, r9}
 80010e6:	1c91      	adds	r1, r2, #2
 80010e8:	089b      	lsrs	r3, r3, #2

080010ea <arm_bitreversal_16_0>:
 80010ea:	f8b1 8004 	ldrh.w	r8, [r1, #4]
 80010ee:	f8b1 9002 	ldrh.w	r9, [r1, #2]
 80010f2:	880a      	ldrh	r2, [r1, #0]
 80010f4:	f831 cc02 	ldrh.w	ip, [r1, #-2]
 80010f8:	eb00 0858 	add.w	r8, r0, r8, lsr #1
 80010fc:	eb00 0959 	add.w	r9, r0, r9, lsr #1
 8001100:	eb00 0252 	add.w	r2, r0, r2, lsr #1
 8001104:	eb00 0c5c 	add.w	ip, r0, ip, lsr #1
 8001108:	f8d9 7000 	ldr.w	r7, [r9]
 800110c:	f8d8 6000 	ldr.w	r6, [r8]
 8001110:	6815      	ldr	r5, [r2, #0]
 8001112:	f8dc 4000 	ldr.w	r4, [ip]
 8001116:	f8c9 6000 	str.w	r6, [r9]
 800111a:	f8c8 7000 	str.w	r7, [r8]
 800111e:	f8cc 5000 	str.w	r5, [ip]
 8001122:	6014      	str	r4, [r2, #0]
 8001124:	3108      	adds	r1, #8
 8001126:	3b01      	subs	r3, #1
 8001128:	d1df      	bne.n	80010ea <arm_bitreversal_16_0>
 800112a:	e8bd 03f0 	ldmia.w	sp!, {r4, r5, r6, r7, r8, r9}
 800112e:	4770      	bx	lr

08001130 <__aeabi_drsub>:
 8001130:	f081 4100 	eor.w	r1, r1, #2147483648	; 0x80000000
 8001134:	e002      	b.n	800113c <__adddf3>
 8001136:	bf00      	nop

08001138 <__aeabi_dsub>:
 8001138:	f083 4300 	eor.w	r3, r3, #2147483648	; 0x80000000

0800113c <__adddf3>:
 800113c:	b530      	push	{r4, r5, lr}
 800113e:	ea4f 0441 	mov.w	r4, r1, lsl #1
 8001142:	ea4f 0543 	mov.w	r5, r3, lsl #1
 8001146:	ea94 0f05 	teq	r4, r5
 800114a:	bf08      	it	eq
 800114c:	ea90 0f02 	teqeq	r0, r2
 8001150:	bf1f      	itttt	ne
 8001152:	ea54 0c00 	orrsne.w	ip, r4, r0
 8001156:	ea55 0c02 	orrsne.w	ip, r5, r2
 800115a:	ea7f 5c64 	mvnsne.w	ip, r4, asr #21
 800115e:	ea7f 5c65 	mvnsne.w	ip, r5, asr #21
 8001162:	f000 80e2 	beq.w	800132a <__adddf3+0x1ee>
 8001166:	ea4f 5454 	mov.w	r4, r4, lsr #21
 800116a:	ebd4 5555 	rsbs	r5, r4, r5, lsr #21
 800116e:	bfb8      	it	lt
 8001170:	426d      	neglt	r5, r5
 8001172:	dd0c      	ble.n	800118e <__adddf3+0x52>
 8001174:	442c      	add	r4, r5
 8001176:	ea80 0202 	eor.w	r2, r0, r2
 800117a:	ea81 0303 	eor.w	r3, r1, r3
 800117e:	ea82 0000 	eor.w	r0, r2, r0
 8001182:	ea83 0101 	eor.w	r1, r3, r1
 8001186:	ea80 0202 	eor.w	r2, r0, r2
 800118a:	ea81 0303 	eor.w	r3, r1, r3
 800118e:	2d36      	cmp	r5, #54	; 0x36
 8001190:	bf88      	it	hi
 8001192:	bd30      	pophi	{r4, r5, pc}
 8001194:	f011 4f00 	tst.w	r1, #2147483648	; 0x80000000
 8001198:	ea4f 3101 	mov.w	r1, r1, lsl #12
 800119c:	f44f 1c80 	mov.w	ip, #1048576	; 0x100000
 80011a0:	ea4c 3111 	orr.w	r1, ip, r1, lsr #12
 80011a4:	d002      	beq.n	80011ac <__adddf3+0x70>
 80011a6:	4240      	negs	r0, r0
 80011a8:	eb61 0141 	sbc.w	r1, r1, r1, lsl #1
 80011ac:	f013 4f00 	tst.w	r3, #2147483648	; 0x80000000
 80011b0:	ea4f 3303 	mov.w	r3, r3, lsl #12
 80011b4:	ea4c 3313 	orr.w	r3, ip, r3, lsr #12
 80011b8:	d002      	beq.n	80011c0 <__adddf3+0x84>
 80011ba:	4252      	negs	r2, r2
 80011bc:	eb63 0343 	sbc.w	r3, r3, r3, lsl #1
 80011c0:	ea94 0f05 	teq	r4, r5
 80011c4:	f000 80a7 	beq.w	8001316 <__adddf3+0x1da>
 80011c8:	f1a4 0401 	sub.w	r4, r4, #1
 80011cc:	f1d5 0e20 	rsbs	lr, r5, #32
 80011d0:	db0d      	blt.n	80011ee <__adddf3+0xb2>
 80011d2:	fa02 fc0e 	lsl.w	ip, r2, lr
 80011d6:	fa22 f205 	lsr.w	r2, r2, r5
 80011da:	1880      	adds	r0, r0, r2
 80011dc:	f141 0100 	adc.w	r1, r1, #0
 80011e0:	fa03 f20e 	lsl.w	r2, r3, lr
 80011e4:	1880      	adds	r0, r0, r2
 80011e6:	fa43 f305 	asr.w	r3, r3, r5
 80011ea:	4159      	adcs	r1, r3
 80011ec:	e00e      	b.n	800120c <__adddf3+0xd0>
 80011ee:	f1a5 0520 	sub.w	r5, r5, #32
 80011f2:	f10e 0e20 	add.w	lr, lr, #32
 80011f6:	2a01      	cmp	r2, #1
 80011f8:	fa03 fc0e 	lsl.w	ip, r3, lr
 80011fc:	bf28      	it	cs
 80011fe:	f04c 0c02 	orrcs.w	ip, ip, #2
 8001202:	fa43 f305 	asr.w	r3, r3, r5
 8001206:	18c0      	adds	r0, r0, r3
 8001208:	eb51 71e3 	adcs.w	r1, r1, r3, asr #31
 800120c:	f001 4500 	and.w	r5, r1, #2147483648	; 0x80000000
 8001210:	d507      	bpl.n	8001222 <__adddf3+0xe6>
 8001212:	f04f 0e00 	mov.w	lr, #0
 8001216:	f1dc 0c00 	rsbs	ip, ip, #0
 800121a:	eb7e 0000 	sbcs.w	r0, lr, r0
 800121e:	eb6e 0101 	sbc.w	r1, lr, r1
 8001222:	f5b1 1f80 	cmp.w	r1, #1048576	; 0x100000
 8001226:	d31b      	bcc.n	8001260 <__adddf3+0x124>
 8001228:	f5b1 1f00 	cmp.w	r1, #2097152	; 0x200000
 800122c:	d30c      	bcc.n	8001248 <__adddf3+0x10c>
 800122e:	0849      	lsrs	r1, r1, #1
 8001230:	ea5f 0030 	movs.w	r0, r0, rrx
 8001234:	ea4f 0c3c 	mov.w	ip, ip, rrx
 8001238:	f104 0401 	add.w	r4, r4, #1
 800123c:	ea4f 5244 	mov.w	r2, r4, lsl #21
 8001240:	f512 0f80 	cmn.w	r2, #4194304	; 0x400000
 8001244:	f080 809a 	bcs.w	800137c <__adddf3+0x240>
 8001248:	f1bc 4f00 	cmp.w	ip, #2147483648	; 0x80000000
 800124c:	bf08      	it	eq
 800124e:	ea5f 0c50 	movseq.w	ip, r0, lsr #1
 8001252:	f150 0000 	adcs.w	r0, r0, #0
 8001256:	eb41 5104 	adc.w	r1, r1, r4, lsl #20
 800125a:	ea41 0105 	orr.w	r1, r1, r5
 800125e:	bd30      	pop	{r4, r5, pc}
 8001260:	ea5f 0c4c 	movs.w	ip, ip, lsl #1
 8001264:	4140      	adcs	r0, r0
 8001266:	eb41 0101 	adc.w	r1, r1, r1
 800126a:	f411 1f80 	tst.w	r1, #1048576	; 0x100000
 800126e:	f1a4 0401 	sub.w	r4, r4, #1
 8001272:	d1e9      	bne.n	8001248 <__adddf3+0x10c>
 8001274:	f091 0f00 	teq	r1, #0
 8001278:	bf04      	itt	eq
 800127a:	4601      	moveq	r1, r0
 800127c:	2000      	moveq	r0, #0
 800127e:	fab1 f381 	clz	r3, r1
 8001282:	bf08      	it	eq
 8001284:	3320      	addeq	r3, #32
 8001286:	f1a3 030b 	sub.w	r3, r3, #11
 800128a:	f1b3 0220 	subs.w	r2, r3, #32
 800128e:	da0c      	bge.n	80012aa <__adddf3+0x16e>
 8001290:	320c      	adds	r2, #12
 8001292:	dd08      	ble.n	80012a6 <__adddf3+0x16a>
 8001294:	f102 0c14 	add.w	ip, r2, #20
 8001298:	f1c2 020c 	rsb	r2, r2, #12
 800129c:	fa01 f00c 	lsl.w	r0, r1, ip
 80012a0:	fa21 f102 	lsr.w	r1, r1, r2
 80012a4:	e00c      	b.n	80012c0 <__adddf3+0x184>
 80012a6:	f102 0214 	add.w	r2, r2, #20
 80012aa:	bfd8      	it	le
 80012ac:	f1c2 0c20 	rsble	ip, r2, #32
 80012b0:	fa01 f102 	lsl.w	r1, r1, r2
 80012b4:	fa20 fc0c 	lsr.w	ip, r0, ip
 80012b8:	bfdc      	itt	le
 80012ba:	ea41 010c 	orrle.w	r1, r1, ip
 80012be:	4090      	lslle	r0, r2
 80012c0:	1ae4      	subs	r4, r4, r3
 80012c2:	bfa2      	ittt	ge
 80012c4:	eb01 5104 	addge.w	r1, r1, r4, lsl #20
 80012c8:	4329      	orrge	r1, r5
 80012ca:	bd30      	popge	{r4, r5, pc}
 80012cc:	ea6f 0404 	mvn.w	r4, r4
 80012d0:	3c1f      	subs	r4, #31
 80012d2:	da1c      	bge.n	800130e <__adddf3+0x1d2>
 80012d4:	340c      	adds	r4, #12
 80012d6:	dc0e      	bgt.n	80012f6 <__adddf3+0x1ba>
 80012d8:	f104 0414 	add.w	r4, r4, #20
 80012dc:	f1c4 0220 	rsb	r2, r4, #32
 80012e0:	fa20 f004 	lsr.w	r0, r0, r4
 80012e4:	fa01 f302 	lsl.w	r3, r1, r2
 80012e8:	ea40 0003 	orr.w	r0, r0, r3
 80012ec:	fa21 f304 	lsr.w	r3, r1, r4
 80012f0:	ea45 0103 	orr.w	r1, r5, r3
 80012f4:	bd30      	pop	{r4, r5, pc}
 80012f6:	f1c4 040c 	rsb	r4, r4, #12
 80012fa:	f1c4 0220 	rsb	r2, r4, #32
 80012fe:	fa20 f002 	lsr.w	r0, r0, r2
 8001302:	fa01 f304 	lsl.w	r3, r1, r4
 8001306:	ea40 0003 	orr.w	r0, r0, r3
 800130a:	4629      	mov	r1, r5
 800130c:	bd30      	pop	{r4, r5, pc}
 800130e:	fa21 f004 	lsr.w	r0, r1, r4
 8001312:	4629      	mov	r1, r5
 8001314:	bd30      	pop	{r4, r5, pc}
 8001316:	f094 0f00 	teq	r4, #0
 800131a:	f483 1380 	eor.w	r3, r3, #1048576	; 0x100000
 800131e:	bf06      	itte	eq
 8001320:	f481 1180 	eoreq.w	r1, r1, #1048576	; 0x100000
 8001324:	3401      	addeq	r4, #1
 8001326:	3d01      	subne	r5, #1
 8001328:	e74e      	b.n	80011c8 <__adddf3+0x8c>
 800132a:	ea7f 5c64 	mvns.w	ip, r4, asr #21
 800132e:	bf18      	it	ne
 8001330:	ea7f 5c65 	mvnsne.w	ip, r5, asr #21
 8001334:	d029      	beq.n	800138a <__adddf3+0x24e>
 8001336:	ea94 0f05 	teq	r4, r5
 800133a:	bf08      	it	eq
 800133c:	ea90 0f02 	teqeq	r0, r2
 8001340:	d005      	beq.n	800134e <__adddf3+0x212>
 8001342:	ea54 0c00 	orrs.w	ip, r4, r0
 8001346:	bf04      	itt	eq
 8001348:	4619      	moveq	r1, r3
 800134a:	4610      	moveq	r0, r2
 800134c:	bd30      	pop	{r4, r5, pc}
 800134e:	ea91 0f03 	teq	r1, r3
 8001352:	bf1e      	ittt	ne
 8001354:	2100      	movne	r1, #0
 8001356:	2000      	movne	r0, #0
 8001358:	bd30      	popne	{r4, r5, pc}
 800135a:	ea5f 5c54 	movs.w	ip, r4, lsr #21
 800135e:	d105      	bne.n	800136c <__adddf3+0x230>
 8001360:	0040      	lsls	r0, r0, #1
 8001362:	4149      	adcs	r1, r1
 8001364:	bf28      	it	cs
 8001366:	f041 4100 	orrcs.w	r1, r1, #2147483648	; 0x80000000
 800136a:	bd30      	pop	{r4, r5, pc}
 800136c:	f514 0480 	adds.w	r4, r4, #4194304	; 0x400000
 8001370:	bf3c      	itt	cc
 8001372:	f501 1180 	addcc.w	r1, r1, #1048576	; 0x100000
 8001376:	bd30      	popcc	{r4, r5, pc}
 8001378:	f001 4500 	and.w	r5, r1, #2147483648	; 0x80000000
 800137c:	f045 41fe 	orr.w	r1, r5, #2130706432	; 0x7f000000
 8001380:	f441 0170 	orr.w	r1, r1, #15728640	; 0xf00000
 8001384:	f04f 0000 	mov.w	r0, #0
 8001388:	bd30      	pop	{r4, r5, pc}
 800138a:	ea7f 5c64 	mvns.w	ip, r4, asr #21
 800138e:	bf1a      	itte	ne
 8001390:	4619      	movne	r1, r3
 8001392:	4610      	movne	r0, r2
 8001394:	ea7f 5c65 	mvnseq.w	ip, r5, asr #21
 8001398:	bf1c      	itt	ne
 800139a:	460b      	movne	r3, r1
 800139c:	4602      	movne	r2, r0
 800139e:	ea50 3401 	orrs.w	r4, r0, r1, lsl #12
 80013a2:	bf06      	itte	eq
 80013a4:	ea52 3503 	orrseq.w	r5, r2, r3, lsl #12
 80013a8:	ea91 0f03 	teqeq	r1, r3
 80013ac:	f441 2100 	orrne.w	r1, r1, #524288	; 0x80000
 80013b0:	bd30      	pop	{r4, r5, pc}
 80013b2:	bf00      	nop

080013b4 <__aeabi_ui2d>:
 80013b4:	f090 0f00 	teq	r0, #0
 80013b8:	bf04      	itt	eq
 80013ba:	2100      	moveq	r1, #0
 80013bc:	4770      	bxeq	lr
 80013be:	b530      	push	{r4, r5, lr}
 80013c0:	f44f 6480 	mov.w	r4, #1024	; 0x400
 80013c4:	f104 0432 	add.w	r4, r4, #50	; 0x32
 80013c8:	f04f 0500 	mov.w	r5, #0
 80013cc:	f04f 0100 	mov.w	r1, #0
 80013d0:	e750      	b.n	8001274 <__adddf3+0x138>
 80013d2:	bf00      	nop

080013d4 <__aeabi_i2d>:
 80013d4:	f090 0f00 	teq	r0, #0
 80013d8:	bf04      	itt	eq
 80013da:	2100      	moveq	r1, #0
 80013dc:	4770      	bxeq	lr
 80013de:	b530      	push	{r4, r5, lr}
 80013e0:	f44f 6480 	mov.w	r4, #1024	; 0x400
 80013e4:	f104 0432 	add.w	r4, r4, #50	; 0x32
 80013e8:	f010 4500 	ands.w	r5, r0, #2147483648	; 0x80000000
 80013ec:	bf48      	it	mi
 80013ee:	4240      	negmi	r0, r0
 80013f0:	f04f 0100 	mov.w	r1, #0
 80013f4:	e73e      	b.n	8001274 <__adddf3+0x138>
 80013f6:	bf00      	nop

080013f8 <__aeabi_f2d>:
 80013f8:	0042      	lsls	r2, r0, #1
 80013fa:	ea4f 01e2 	mov.w	r1, r2, asr #3
 80013fe:	ea4f 0131 	mov.w	r1, r1, rrx
 8001402:	ea4f 7002 	mov.w	r0, r2, lsl #28
 8001406:	bf1f      	itttt	ne
 8001408:	f012 437f 	andsne.w	r3, r2, #4278190080	; 0xff000000
 800140c:	f093 4f7f 	teqne	r3, #4278190080	; 0xff000000
 8001410:	f081 5160 	eorne.w	r1, r1, #939524096	; 0x38000000
 8001414:	4770      	bxne	lr
 8001416:	f032 427f 	bics.w	r2, r2, #4278190080	; 0xff000000
 800141a:	bf08      	it	eq
 800141c:	4770      	bxeq	lr
 800141e:	f093 4f7f 	teq	r3, #4278190080	; 0xff000000
 8001422:	bf04      	itt	eq
 8001424:	f441 2100 	orreq.w	r1, r1, #524288	; 0x80000
 8001428:	4770      	bxeq	lr
 800142a:	b530      	push	{r4, r5, lr}
 800142c:	f44f 7460 	mov.w	r4, #896	; 0x380
 8001430:	f001 4500 	and.w	r5, r1, #2147483648	; 0x80000000
 8001434:	f021 4100 	bic.w	r1, r1, #2147483648	; 0x80000000
 8001438:	e71c      	b.n	8001274 <__adddf3+0x138>
 800143a:	bf00      	nop

0800143c <__aeabi_ul2d>:
 800143c:	ea50 0201 	orrs.w	r2, r0, r1
 8001440:	bf08      	it	eq
 8001442:	4770      	bxeq	lr
 8001444:	b530      	push	{r4, r5, lr}
 8001446:	f04f 0500 	mov.w	r5, #0
 800144a:	e00a      	b.n	8001462 <__aeabi_l2d+0x16>

0800144c <__aeabi_l2d>:
 800144c:	ea50 0201 	orrs.w	r2, r0, r1
 8001450:	bf08      	it	eq
 8001452:	4770      	bxeq	lr
 8001454:	b530      	push	{r4, r5, lr}
 8001456:	f011 4500 	ands.w	r5, r1, #2147483648	; 0x80000000
 800145a:	d502      	bpl.n	8001462 <__aeabi_l2d+0x16>
 800145c:	4240      	negs	r0, r0
 800145e:	eb61 0141 	sbc.w	r1, r1, r1, lsl #1
 8001462:	f44f 6480 	mov.w	r4, #1024	; 0x400
 8001466:	f104 0432 	add.w	r4, r4, #50	; 0x32
 800146a:	ea5f 5c91 	movs.w	ip, r1, lsr #22
 800146e:	f43f aed8 	beq.w	8001222 <__adddf3+0xe6>
 8001472:	f04f 0203 	mov.w	r2, #3
 8001476:	ea5f 0cdc 	movs.w	ip, ip, lsr #3
 800147a:	bf18      	it	ne
 800147c:	3203      	addne	r2, #3
 800147e:	ea5f 0cdc 	movs.w	ip, ip, lsr #3
 8001482:	bf18      	it	ne
 8001484:	3203      	addne	r2, #3
 8001486:	eb02 02dc 	add.w	r2, r2, ip, lsr #3
 800148a:	f1c2 0320 	rsb	r3, r2, #32
 800148e:	fa00 fc03 	lsl.w	ip, r0, r3
 8001492:	fa20 f002 	lsr.w	r0, r0, r2
 8001496:	fa01 fe03 	lsl.w	lr, r1, r3
 800149a:	ea40 000e 	orr.w	r0, r0, lr
 800149e:	fa21 f102 	lsr.w	r1, r1, r2
 80014a2:	4414      	add	r4, r2
 80014a4:	e6bd      	b.n	8001222 <__adddf3+0xe6>
 80014a6:	bf00      	nop
	...

080014b0 <__aeabi_dmul>:
 80014b0:	b570      	push	{r4, r5, r6, lr}
 80014b2:	f04f 0cff 	mov.w	ip, #255	; 0xff
 80014b6:	f44c 6ce0 	orr.w	ip, ip, #1792	; 0x700
 80014ba:	ea1c 5411 	ands.w	r4, ip, r1, lsr #20
 80014be:	bf1d      	ittte	ne
 80014c0:	ea1c 5513 	andsne.w	r5, ip, r3, lsr #20
 80014c4:	ea94 0f0c 	teqne	r4, ip
 80014c8:	ea95 0f0c 	teqne	r5, ip
 80014cc:	f000 f8de 	bleq	800168c <__aeabi_dmul+0x1dc>
 80014d0:	442c      	add	r4, r5
 80014d2:	ea81 0603 	eor.w	r6, r1, r3
 80014d6:	ea21 514c 	bic.w	r1, r1, ip, lsl #21
 80014da:	ea23 534c 	bic.w	r3, r3, ip, lsl #21
 80014de:	ea50 3501 	orrs.w	r5, r0, r1, lsl #12
 80014e2:	bf18      	it	ne
 80014e4:	ea52 3503 	orrsne.w	r5, r2, r3, lsl #12
 80014e8:	f441 1180 	orr.w	r1, r1, #1048576	; 0x100000
 80014ec:	f443 1380 	orr.w	r3, r3, #1048576	; 0x100000
 80014f0:	d038      	beq.n	8001564 <__aeabi_dmul+0xb4>
 80014f2:	fba0 ce02 	umull	ip, lr, r0, r2
 80014f6:	f04f 0500 	mov.w	r5, #0
 80014fa:	fbe1 e502 	umlal	lr, r5, r1, r2
 80014fe:	f006 4200 	and.w	r2, r6, #2147483648	; 0x80000000
 8001502:	fbe0 e503 	umlal	lr, r5, r0, r3
 8001506:	f04f 0600 	mov.w	r6, #0
 800150a:	fbe1 5603 	umlal	r5, r6, r1, r3
 800150e:	f09c 0f00 	teq	ip, #0
 8001512:	bf18      	it	ne
 8001514:	f04e 0e01 	orrne.w	lr, lr, #1
 8001518:	f1a4 04ff 	sub.w	r4, r4, #255	; 0xff
 800151c:	f5b6 7f00 	cmp.w	r6, #512	; 0x200
 8001520:	f564 7440 	sbc.w	r4, r4, #768	; 0x300
 8001524:	d204      	bcs.n	8001530 <__aeabi_dmul+0x80>
 8001526:	ea5f 0e4e 	movs.w	lr, lr, lsl #1
 800152a:	416d      	adcs	r5, r5
 800152c:	eb46 0606 	adc.w	r6, r6, r6
 8001530:	ea42 21c6 	orr.w	r1, r2, r6, lsl #11
 8001534:	ea41 5155 	orr.w	r1, r1, r5, lsr #21
 8001538:	ea4f 20c5 	mov.w	r0, r5, lsl #11
 800153c:	ea40 505e 	orr.w	r0, r0, lr, lsr #21
 8001540:	ea4f 2ece 	mov.w	lr, lr, lsl #11
 8001544:	f1b4 0cfd 	subs.w	ip, r4, #253	; 0xfd
 8001548:	bf88      	it	hi
 800154a:	f5bc 6fe0 	cmphi.w	ip, #1792	; 0x700
 800154e:	d81e      	bhi.n	800158e <__aeabi_dmul+0xde>
 8001550:	f1be 4f00 	cmp.w	lr, #2147483648	; 0x80000000
 8001554:	bf08      	it	eq
 8001556:	ea5f 0e50 	movseq.w	lr, r0, lsr #1
 800155a:	f150 0000 	adcs.w	r0, r0, #0
 800155e:	eb41 5104 	adc.w	r1, r1, r4, lsl #20
 8001562:	bd70      	pop	{r4, r5, r6, pc}
 8001564:	f006 4600 	and.w	r6, r6, #2147483648	; 0x80000000
 8001568:	ea46 0101 	orr.w	r1, r6, r1
 800156c:	ea40 0002 	orr.w	r0, r0, r2
 8001570:	ea81 0103 	eor.w	r1, r1, r3
 8001574:	ebb4 045c 	subs.w	r4, r4, ip, lsr #1
 8001578:	bfc2      	ittt	gt
 800157a:	ebd4 050c 	rsbsgt	r5, r4, ip
 800157e:	ea41 5104 	orrgt.w	r1, r1, r4, lsl #20
 8001582:	bd70      	popgt	{r4, r5, r6, pc}
 8001584:	f441 1180 	orr.w	r1, r1, #1048576	; 0x100000
 8001588:	f04f 0e00 	mov.w	lr, #0
 800158c:	3c01      	subs	r4, #1
 800158e:	f300 80ab 	bgt.w	80016e8 <__aeabi_dmul+0x238>
 8001592:	f114 0f36 	cmn.w	r4, #54	; 0x36
 8001596:	bfde      	ittt	le
 8001598:	2000      	movle	r0, #0
 800159a:	f001 4100 	andle.w	r1, r1, #2147483648	; 0x80000000
 800159e:	bd70      	pople	{r4, r5, r6, pc}
 80015a0:	f1c4 0400 	rsb	r4, r4, #0
 80015a4:	3c20      	subs	r4, #32
 80015a6:	da35      	bge.n	8001614 <__aeabi_dmul+0x164>
 80015a8:	340c      	adds	r4, #12
 80015aa:	dc1b      	bgt.n	80015e4 <__aeabi_dmul+0x134>
 80015ac:	f104 0414 	add.w	r4, r4, #20
 80015b0:	f1c4 0520 	rsb	r5, r4, #32
 80015b4:	fa00 f305 	lsl.w	r3, r0, r5
 80015b8:	fa20 f004 	lsr.w	r0, r0, r4
 80015bc:	fa01 f205 	lsl.w	r2, r1, r5
 80015c0:	ea40 0002 	orr.w	r0, r0, r2
 80015c4:	f001 4200 	and.w	r2, r1, #2147483648	; 0x80000000
 80015c8:	f021 4100 	bic.w	r1, r1, #2147483648	; 0x80000000
 80015cc:	eb10 70d3 	adds.w	r0, r0, r3, lsr #31
 80015d0:	fa21 f604 	lsr.w	r6, r1, r4
 80015d4:	eb42 0106 	adc.w	r1, r2, r6
 80015d8:	ea5e 0e43 	orrs.w	lr, lr, r3, lsl #1
 80015dc:	bf08      	it	eq
 80015de:	ea20 70d3 	biceq.w	r0, r0, r3, lsr #31
 80015e2:	bd70      	pop	{r4, r5, r6, pc}
 80015e4:	f1c4 040c 	rsb	r4, r4, #12
 80015e8:	f1c4 0520 	rsb	r5, r4, #32
 80015ec:	fa00 f304 	lsl.w	r3, r0, r4
 80015f0:	fa20 f005 	lsr.w	r0, r0, r5
 80015f4:	fa01 f204 	lsl.w	r2, r1, r4
 80015f8:	ea40 0002 	orr.w	r0, r0, r2
 80015fc:	f001 4100 	and.w	r1, r1, #2147483648	; 0x80000000
 8001600:	eb10 70d3 	adds.w	r0, r0, r3, lsr #31
 8001604:	f141 0100 	adc.w	r1, r1, #0
 8001608:	ea5e 0e43 	orrs.w	lr, lr, r3, lsl #1
 800160c:	bf08      	it	eq
 800160e:	ea20 70d3 	biceq.w	r0, r0, r3, lsr #31
 8001612:	bd70      	pop	{r4, r5, r6, pc}
 8001614:	f1c4 0520 	rsb	r5, r4, #32
 8001618:	fa00 f205 	lsl.w	r2, r0, r5
 800161c:	ea4e 0e02 	orr.w	lr, lr, r2
 8001620:	fa20 f304 	lsr.w	r3, r0, r4
 8001624:	fa01 f205 	lsl.w	r2, r1, r5
 8001628:	ea43 0302 	orr.w	r3, r3, r2
 800162c:	fa21 f004 	lsr.w	r0, r1, r4
 8001630:	f001 4100 	and.w	r1, r1, #2147483648	; 0x80000000
 8001634:	fa21 f204 	lsr.w	r2, r1, r4
 8001638:	ea20 0002 	bic.w	r0, r0, r2
 800163c:	eb00 70d3 	add.w	r0, r0, r3, lsr #31
 8001640:	ea5e 0e43 	orrs.w	lr, lr, r3, lsl #1
 8001644:	bf08      	it	eq
 8001646:	ea20 70d3 	biceq.w	r0, r0, r3, lsr #31
 800164a:	bd70      	pop	{r4, r5, r6, pc}
 800164c:	f094 0f00 	teq	r4, #0
 8001650:	d10f      	bne.n	8001672 <__aeabi_dmul+0x1c2>
 8001652:	f001 4600 	and.w	r6, r1, #2147483648	; 0x80000000
 8001656:	0040      	lsls	r0, r0, #1
 8001658:	eb41 0101 	adc.w	r1, r1, r1
 800165c:	f411 1f80 	tst.w	r1, #1048576	; 0x100000
 8001660:	bf08      	it	eq
 8001662:	3c01      	subeq	r4, #1
 8001664:	d0f7      	beq.n	8001656 <__aeabi_dmul+0x1a6>
 8001666:	ea41 0106 	orr.w	r1, r1, r6
 800166a:	f095 0f00 	teq	r5, #0
 800166e:	bf18      	it	ne
 8001670:	4770      	bxne	lr
 8001672:	f003 4600 	and.w	r6, r3, #2147483648	; 0x80000000
 8001676:	0052      	lsls	r2, r2, #1
 8001678:	eb43 0303 	adc.w	r3, r3, r3
 800167c:	f413 1f80 	tst.w	r3, #1048576	; 0x100000
 8001680:	bf08      	it	eq
 8001682:	3d01      	subeq	r5, #1
 8001684:	d0f7      	beq.n	8001676 <__aeabi_dmul+0x1c6>
 8001686:	ea43 0306 	orr.w	r3, r3, r6
 800168a:	4770      	bx	lr
 800168c:	ea94 0f0c 	teq	r4, ip
 8001690:	ea0c 5513 	and.w	r5, ip, r3, lsr #20
 8001694:	bf18      	it	ne
 8001696:	ea95 0f0c 	teqne	r5, ip
 800169a:	d00c      	beq.n	80016b6 <__aeabi_dmul+0x206>
 800169c:	ea50 0641 	orrs.w	r6, r0, r1, lsl #1
 80016a0:	bf18      	it	ne
 80016a2:	ea52 0643 	orrsne.w	r6, r2, r3, lsl #1
 80016a6:	d1d1      	bne.n	800164c <__aeabi_dmul+0x19c>
 80016a8:	ea81 0103 	eor.w	r1, r1, r3
 80016ac:	f001 4100 	and.w	r1, r1, #2147483648	; 0x80000000
 80016b0:	f04f 0000 	mov.w	r0, #0
 80016b4:	bd70      	pop	{r4, r5, r6, pc}
 80016b6:	ea50 0641 	orrs.w	r6, r0, r1, lsl #1
 80016ba:	bf06      	itte	eq
 80016bc:	4610      	moveq	r0, r2
 80016be:	4619      	moveq	r1, r3
 80016c0:	ea52 0643 	orrsne.w	r6, r2, r3, lsl #1
 80016c4:	d019      	beq.n	80016fa <__aeabi_dmul+0x24a>
 80016c6:	ea94 0f0c 	teq	r4, ip
 80016ca:	d102      	bne.n	80016d2 <__aeabi_dmul+0x222>
 80016cc:	ea50 3601 	orrs.w	r6, r0, r1, lsl #12
 80016d0:	d113      	bne.n	80016fa <__aeabi_dmul+0x24a>
 80016d2:	ea95 0f0c 	teq	r5, ip
 80016d6:	d105      	bne.n	80016e4 <__aeabi_dmul+0x234>
 80016d8:	ea52 3603 	orrs.w	r6, r2, r3, lsl #12
 80016dc:	bf1c      	itt	ne
 80016de:	4610      	movne	r0, r2
 80016e0:	4619      	movne	r1, r3
 80016e2:	d10a      	bne.n	80016fa <__aeabi_dmul+0x24a>
 80016e4:	ea81 0103 	eor.w	r1, r1, r3
 80016e8:	f001 4100 	and.w	r1, r1, #2147483648	; 0x80000000
 80016ec:	f041 41fe 	orr.w	r1, r1, #2130706432	; 0x7f000000
 80016f0:	f441 0170 	orr.w	r1, r1, #15728640	; 0xf00000
 80016f4:	f04f 0000 	mov.w	r0, #0
 80016f8:	bd70      	pop	{r4, r5, r6, pc}
 80016fa:	f041 41fe 	orr.w	r1, r1, #2130706432	; 0x7f000000
 80016fe:	f441 0178 	orr.w	r1, r1, #16252928	; 0xf80000
 8001702:	bd70      	pop	{r4, r5, r6, pc}

08001704 <__aeabi_ddiv>:
 8001704:	b570      	push	{r4, r5, r6, lr}
 8001706:	f04f 0cff 	mov.w	ip, #255	; 0xff
 800170a:	f44c 6ce0 	orr.w	ip, ip, #1792	; 0x700
 800170e:	ea1c 5411 	ands.w	r4, ip, r1, lsr #20
 8001712:	bf1d      	ittte	ne
 8001714:	ea1c 5513 	andsne.w	r5, ip, r3, lsr #20
 8001718:	ea94 0f0c 	teqne	r4, ip
 800171c:	ea95 0f0c 	teqne	r5, ip
 8001720:	f000 f8a7 	bleq	8001872 <__aeabi_ddiv+0x16e>
 8001724:	eba4 0405 	sub.w	r4, r4, r5
 8001728:	ea81 0e03 	eor.w	lr, r1, r3
 800172c:	ea52 3503 	orrs.w	r5, r2, r3, lsl #12
 8001730:	ea4f 3101 	mov.w	r1, r1, lsl #12
 8001734:	f000 8088 	beq.w	8001848 <__aeabi_ddiv+0x144>
 8001738:	ea4f 3303 	mov.w	r3, r3, lsl #12
 800173c:	f04f 5580 	mov.w	r5, #268435456	; 0x10000000
 8001740:	ea45 1313 	orr.w	r3, r5, r3, lsr #4
 8001744:	ea43 6312 	orr.w	r3, r3, r2, lsr #24
 8001748:	ea4f 2202 	mov.w	r2, r2, lsl #8
 800174c:	ea45 1511 	orr.w	r5, r5, r1, lsr #4
 8001750:	ea45 6510 	orr.w	r5, r5, r0, lsr #24
 8001754:	ea4f 2600 	mov.w	r6, r0, lsl #8
 8001758:	f00e 4100 	and.w	r1, lr, #2147483648	; 0x80000000
 800175c:	429d      	cmp	r5, r3
 800175e:	bf08      	it	eq
 8001760:	4296      	cmpeq	r6, r2
 8001762:	f144 04fd 	adc.w	r4, r4, #253	; 0xfd
 8001766:	f504 7440 	add.w	r4, r4, #768	; 0x300
 800176a:	d202      	bcs.n	8001772 <__aeabi_ddiv+0x6e>
 800176c:	085b      	lsrs	r3, r3, #1
 800176e:	ea4f 0232 	mov.w	r2, r2, rrx
 8001772:	1ab6      	subs	r6, r6, r2
 8001774:	eb65 0503 	sbc.w	r5, r5, r3
 8001778:	085b      	lsrs	r3, r3, #1
 800177a:	ea4f 0232 	mov.w	r2, r2, rrx
 800177e:	f44f 1080 	mov.w	r0, #1048576	; 0x100000
 8001782:	f44f 2c00 	mov.w	ip, #524288	; 0x80000
 8001786:	ebb6 0e02 	subs.w	lr, r6, r2
 800178a:	eb75 0e03 	sbcs.w	lr, r5, r3
 800178e:	bf22      	ittt	cs
 8001790:	1ab6      	subcs	r6, r6, r2
 8001792:	4675      	movcs	r5, lr
 8001794:	ea40 000c 	orrcs.w	r0, r0, ip
 8001798:	085b      	lsrs	r3, r3, #1
 800179a:	ea4f 0232 	mov.w	r2, r2, rrx
 800179e:	ebb6 0e02 	subs.w	lr, r6, r2
 80017a2:	eb75 0e03 	sbcs.w	lr, r5, r3
 80017a6:	bf22      	ittt	cs
 80017a8:	1ab6      	subcs	r6, r6, r2
 80017aa:	4675      	movcs	r5, lr
 80017ac:	ea40 005c 	orrcs.w	r0, r0, ip, lsr #1
 80017b0:	085b      	lsrs	r3, r3, #1
 80017b2:	ea4f 0232 	mov.w	r2, r2, rrx
 80017b6:	ebb6 0e02 	subs.w	lr, r6, r2
 80017ba:	eb75 0e03 	sbcs.w	lr, r5, r3
 80017be:	bf22      	ittt	cs
 80017c0:	1ab6      	subcs	r6, r6, r2
 80017c2:	4675      	movcs	r5, lr
 80017c4:	ea40 009c 	orrcs.w	r0, r0, ip, lsr #2
 80017c8:	085b      	lsrs	r3, r3, #1
 80017ca:	ea4f 0232 	mov.w	r2, r2, rrx
 80017ce:	ebb6 0e02 	subs.w	lr, r6, r2
 80017d2:	eb75 0e03 	sbcs.w	lr, r5, r3
 80017d6:	bf22      	ittt	cs
 80017d8:	1ab6      	subcs	r6, r6, r2
 80017da:	4675      	movcs	r5, lr
 80017dc:	ea40 00dc 	orrcs.w	r0, r0, ip, lsr #3
 80017e0:	ea55 0e06 	orrs.w	lr, r5, r6
 80017e4:	d018      	beq.n	8001818 <__aeabi_ddiv+0x114>
 80017e6:	ea4f 1505 	mov.w	r5, r5, lsl #4
 80017ea:	ea45 7516 	orr.w	r5, r5, r6, lsr #28
 80017ee:	ea4f 1606 	mov.w	r6, r6, lsl #4
 80017f2:	ea4f 03c3 	mov.w	r3, r3, lsl #3
 80017f6:	ea43 7352 	orr.w	r3, r3, r2, lsr #29
 80017fa:	ea4f 02c2 	mov.w	r2, r2, lsl #3
 80017fe:	ea5f 1c1c 	movs.w	ip, ip, lsr #4
 8001802:	d1c0      	bne.n	8001786 <__aeabi_ddiv+0x82>
 8001804:	f411 1f80 	tst.w	r1, #1048576	; 0x100000
 8001808:	d10b      	bne.n	8001822 <__aeabi_ddiv+0x11e>
 800180a:	ea41 0100 	orr.w	r1, r1, r0
 800180e:	f04f 0000 	mov.w	r0, #0
 8001812:	f04f 4c00 	mov.w	ip, #2147483648	; 0x80000000
 8001816:	e7b6      	b.n	8001786 <__aeabi_ddiv+0x82>
 8001818:	f411 1f80 	tst.w	r1, #1048576	; 0x100000
 800181c:	bf04      	itt	eq
 800181e:	4301      	orreq	r1, r0
 8001820:	2000      	moveq	r0, #0
 8001822:	f1b4 0cfd 	subs.w	ip, r4, #253	; 0xfd
 8001826:	bf88      	it	hi
 8001828:	f5bc 6fe0 	cmphi.w	ip, #1792	; 0x700
 800182c:	f63f aeaf 	bhi.w	800158e <__aeabi_dmul+0xde>
 8001830:	ebb5 0c03 	subs.w	ip, r5, r3
 8001834:	bf04      	itt	eq
 8001836:	ebb6 0c02 	subseq.w	ip, r6, r2
 800183a:	ea5f 0c50 	movseq.w	ip, r0, lsr #1
 800183e:	f150 0000 	adcs.w	r0, r0, #0
 8001842:	eb41 5104 	adc.w	r1, r1, r4, lsl #20
 8001846:	bd70      	pop	{r4, r5, r6, pc}
 8001848:	f00e 4e00 	and.w	lr, lr, #2147483648	; 0x80000000
 800184c:	ea4e 3111 	orr.w	r1, lr, r1, lsr #12
 8001850:	eb14 045c 	adds.w	r4, r4, ip, lsr #1
 8001854:	bfc2      	ittt	gt
 8001856:	ebd4 050c 	rsbsgt	r5, r4, ip
 800185a:	ea41 5104 	orrgt.w	r1, r1, r4, lsl #20
 800185e:	bd70      	popgt	{r4, r5, r6, pc}
 8001860:	f441 1180 	orr.w	r1, r1, #1048576	; 0x100000
 8001864:	f04f 0e00 	mov.w	lr, #0
 8001868:	3c01      	subs	r4, #1
 800186a:	e690      	b.n	800158e <__aeabi_dmul+0xde>
 800186c:	ea45 0e06 	orr.w	lr, r5, r6
 8001870:	e68d      	b.n	800158e <__aeabi_dmul+0xde>
 8001872:	ea0c 5513 	and.w	r5, ip, r3, lsr #20
 8001876:	ea94 0f0c 	teq	r4, ip
 800187a:	bf08      	it	eq
 800187c:	ea95 0f0c 	teqeq	r5, ip
 8001880:	f43f af3b 	beq.w	80016fa <__aeabi_dmul+0x24a>
 8001884:	ea94 0f0c 	teq	r4, ip
 8001888:	d10a      	bne.n	80018a0 <__aeabi_ddiv+0x19c>
 800188a:	ea50 3401 	orrs.w	r4, r0, r1, lsl #12
 800188e:	f47f af34 	bne.w	80016fa <__aeabi_dmul+0x24a>
 8001892:	ea95 0f0c 	teq	r5, ip
 8001896:	f47f af25 	bne.w	80016e4 <__aeabi_dmul+0x234>
 800189a:	4610      	mov	r0, r2
 800189c:	4619      	mov	r1, r3
 800189e:	e72c      	b.n	80016fa <__aeabi_dmul+0x24a>
 80018a0:	ea95 0f0c 	teq	r5, ip
 80018a4:	d106      	bne.n	80018b4 <__aeabi_ddiv+0x1b0>
 80018a6:	ea52 3503 	orrs.w	r5, r2, r3, lsl #12
 80018aa:	f43f aefd 	beq.w	80016a8 <__aeabi_dmul+0x1f8>
 80018ae:	4610      	mov	r0, r2
 80018b0:	4619      	mov	r1, r3
 80018b2:	e722      	b.n	80016fa <__aeabi_dmul+0x24a>
 80018b4:	ea50 0641 	orrs.w	r6, r0, r1, lsl #1
 80018b8:	bf18      	it	ne
 80018ba:	ea52 0643 	orrsne.w	r6, r2, r3, lsl #1
 80018be:	f47f aec5 	bne.w	800164c <__aeabi_dmul+0x19c>
 80018c2:	ea50 0441 	orrs.w	r4, r0, r1, lsl #1
 80018c6:	f47f af0d 	bne.w	80016e4 <__aeabi_dmul+0x234>
 80018ca:	ea52 0543 	orrs.w	r5, r2, r3, lsl #1
 80018ce:	f47f aeeb 	bne.w	80016a8 <__aeabi_dmul+0x1f8>
 80018d2:	e712      	b.n	80016fa <__aeabi_dmul+0x24a>
	...

080018e0 <__gedf2>:
 80018e0:	f04f 3cff 	mov.w	ip, #4294967295
 80018e4:	e006      	b.n	80018f4 <__cmpdf2+0x4>
 80018e6:	bf00      	nop

080018e8 <__ledf2>:
 80018e8:	f04f 0c01 	mov.w	ip, #1
 80018ec:	e002      	b.n	80018f4 <__cmpdf2+0x4>
 80018ee:	bf00      	nop

080018f0 <__cmpdf2>:
 80018f0:	f04f 0c01 	mov.w	ip, #1
 80018f4:	f84d cd04 	str.w	ip, [sp, #-4]!
 80018f8:	ea4f 0c41 	mov.w	ip, r1, lsl #1
 80018fc:	ea7f 5c6c 	mvns.w	ip, ip, asr #21
 8001900:	ea4f 0c43 	mov.w	ip, r3, lsl #1
 8001904:	bf18      	it	ne
 8001906:	ea7f 5c6c 	mvnsne.w	ip, ip, asr #21
 800190a:	d01b      	beq.n	8001944 <__cmpdf2+0x54>
 800190c:	b001      	add	sp, #4
 800190e:	ea50 0c41 	orrs.w	ip, r0, r1, lsl #1
 8001912:	bf0c      	ite	eq
 8001914:	ea52 0c43 	orrseq.w	ip, r2, r3, lsl #1
 8001918:	ea91 0f03 	teqne	r1, r3
 800191c:	bf02      	ittt	eq
 800191e:	ea90 0f02 	teqeq	r0, r2
 8001922:	2000      	moveq	r0, #0
 8001924:	4770      	bxeq	lr
 8001926:	f110 0f00 	cmn.w	r0, #0
 800192a:	ea91 0f03 	teq	r1, r3
 800192e:	bf58      	it	pl
 8001930:	4299      	cmppl	r1, r3
 8001932:	bf08      	it	eq
 8001934:	4290      	cmpeq	r0, r2
 8001936:	bf2c      	ite	cs
 8001938:	17d8      	asrcs	r0, r3, #31
 800193a:	ea6f 70e3 	mvncc.w	r0, r3, asr #31
 800193e:	f040 0001 	orr.w	r0, r0, #1
 8001942:	4770      	bx	lr
 8001944:	ea4f 0c41 	mov.w	ip, r1, lsl #1
 8001948:	ea7f 5c6c 	mvns.w	ip, ip, asr #21
 800194c:	d102      	bne.n	8001954 <__cmpdf2+0x64>
 800194e:	ea50 3c01 	orrs.w	ip, r0, r1, lsl #12
 8001952:	d107      	bne.n	8001964 <__cmpdf2+0x74>
 8001954:	ea4f 0c43 	mov.w	ip, r3, lsl #1
 8001958:	ea7f 5c6c 	mvns.w	ip, ip, asr #21
 800195c:	d1d6      	bne.n	800190c <__cmpdf2+0x1c>
 800195e:	ea52 3c03 	orrs.w	ip, r2, r3, lsl #12
 8001962:	d0d3      	beq.n	800190c <__cmpdf2+0x1c>
 8001964:	f85d 0b04 	ldr.w	r0, [sp], #4
 8001968:	4770      	bx	lr
 800196a:	bf00      	nop

0800196c <__aeabi_cdrcmple>:
 800196c:	4684      	mov	ip, r0
 800196e:	4610      	mov	r0, r2
 8001970:	4662      	mov	r2, ip
 8001972:	468c      	mov	ip, r1
 8001974:	4619      	mov	r1, r3
 8001976:	4663      	mov	r3, ip
 8001978:	e000      	b.n	800197c <__aeabi_cdcmpeq>
 800197a:	bf00      	nop

0800197c <__aeabi_cdcmpeq>:
 800197c:	b501      	push	{r0, lr}
 800197e:	f7ff ffb7 	bl	80018f0 <__cmpdf2>
 8001982:	2800      	cmp	r0, #0
 8001984:	bf48      	it	mi
 8001986:	f110 0f00 	cmnmi.w	r0, #0
 800198a:	bd01      	pop	{r0, pc}

0800198c <__aeabi_dcmpeq>:
 800198c:	f84d ed08 	str.w	lr, [sp, #-8]!
 8001990:	f7ff fff4 	bl	800197c <__aeabi_cdcmpeq>
 8001994:	bf0c      	ite	eq
 8001996:	2001      	moveq	r0, #1
 8001998:	2000      	movne	r0, #0
 800199a:	f85d fb08 	ldr.w	pc, [sp], #8
 800199e:	bf00      	nop

080019a0 <__aeabi_dcmplt>:
 80019a0:	f84d ed08 	str.w	lr, [sp, #-8]!
 80019a4:	f7ff ffea 	bl	800197c <__aeabi_cdcmpeq>
 80019a8:	bf34      	ite	cc
 80019aa:	2001      	movcc	r0, #1
 80019ac:	2000      	movcs	r0, #0
 80019ae:	f85d fb08 	ldr.w	pc, [sp], #8
 80019b2:	bf00      	nop

080019b4 <__aeabi_dcmple>:
 80019b4:	f84d ed08 	str.w	lr, [sp, #-8]!
 80019b8:	f7ff ffe0 	bl	800197c <__aeabi_cdcmpeq>
 80019bc:	bf94      	ite	ls
 80019be:	2001      	movls	r0, #1
 80019c0:	2000      	movhi	r0, #0
 80019c2:	f85d fb08 	ldr.w	pc, [sp], #8
 80019c6:	bf00      	nop

080019c8 <__aeabi_dcmpge>:
 80019c8:	f84d ed08 	str.w	lr, [sp, #-8]!
 80019cc:	f7ff ffce 	bl	800196c <__aeabi_cdrcmple>
 80019d0:	bf94      	ite	ls
 80019d2:	2001      	movls	r0, #1
 80019d4:	2000      	movhi	r0, #0
 80019d6:	f85d fb08 	ldr.w	pc, [sp], #8
 80019da:	bf00      	nop

080019dc <__aeabi_dcmpgt>:
 80019dc:	f84d ed08 	str.w	lr, [sp, #-8]!
 80019e0:	f7ff ffc4 	bl	800196c <__aeabi_cdrcmple>
 80019e4:	bf34      	ite	cc
 80019e6:	2001      	movcc	r0, #1
 80019e8:	2000      	movcs	r0, #0
 80019ea:	f85d fb08 	ldr.w	pc, [sp], #8
 80019ee:	bf00      	nop

080019f0 <__aeabi_d2iz>:
 80019f0:	ea4f 0241 	mov.w	r2, r1, lsl #1
 80019f4:	f512 1200 	adds.w	r2, r2, #2097152	; 0x200000
 80019f8:	d215      	bcs.n	8001a26 <__aeabi_d2iz+0x36>
 80019fa:	d511      	bpl.n	8001a20 <__aeabi_d2iz+0x30>
 80019fc:	f46f 7378 	mvn.w	r3, #992	; 0x3e0
 8001a00:	ebb3 5262 	subs.w	r2, r3, r2, asr #21
 8001a04:	d912      	bls.n	8001a2c <__aeabi_d2iz+0x3c>
 8001a06:	ea4f 23c1 	mov.w	r3, r1, lsl #11
 8001a0a:	f043 4300 	orr.w	r3, r3, #2147483648	; 0x80000000
 8001a0e:	ea43 5350 	orr.w	r3, r3, r0, lsr #21
 8001a12:	f011 4f00 	tst.w	r1, #2147483648	; 0x80000000
 8001a16:	fa23 f002 	lsr.w	r0, r3, r2
 8001a1a:	bf18      	it	ne
 8001a1c:	4240      	negne	r0, r0
 8001a1e:	4770      	bx	lr
 8001a20:	f04f 0000 	mov.w	r0, #0
 8001a24:	4770      	bx	lr
 8001a26:	ea50 3001 	orrs.w	r0, r0, r1, lsl #12
 8001a2a:	d105      	bne.n	8001a38 <__aeabi_d2iz+0x48>
 8001a2c:	f011 4000 	ands.w	r0, r1, #2147483648	; 0x80000000
 8001a30:	bf08      	it	eq
 8001a32:	f06f 4000 	mvneq.w	r0, #2147483648	; 0x80000000
 8001a36:	4770      	bx	lr
 8001a38:	f04f 0000 	mov.w	r0, #0
 8001a3c:	4770      	bx	lr
 8001a3e:	bf00      	nop

08001a40 <__aeabi_d2uiz>:
 8001a40:	004a      	lsls	r2, r1, #1
 8001a42:	d211      	bcs.n	8001a68 <__aeabi_d2uiz+0x28>
 8001a44:	f512 1200 	adds.w	r2, r2, #2097152	; 0x200000
 8001a48:	d211      	bcs.n	8001a6e <__aeabi_d2uiz+0x2e>
 8001a4a:	d50d      	bpl.n	8001a68 <__aeabi_d2uiz+0x28>
 8001a4c:	f46f 7378 	mvn.w	r3, #992	; 0x3e0
 8001a50:	ebb3 5262 	subs.w	r2, r3, r2, asr #21
 8001a54:	d40e      	bmi.n	8001a74 <__aeabi_d2uiz+0x34>
 8001a56:	ea4f 23c1 	mov.w	r3, r1, lsl #11
 8001a5a:	f043 4300 	orr.w	r3, r3, #2147483648	; 0x80000000
 8001a5e:	ea43 5350 	orr.w	r3, r3, r0, lsr #21
 8001a62:	fa23 f002 	lsr.w	r0, r3, r2
 8001a66:	4770      	bx	lr
 8001a68:	f04f 0000 	mov.w	r0, #0
 8001a6c:	4770      	bx	lr
 8001a6e:	ea50 3001 	orrs.w	r0, r0, r1, lsl #12
 8001a72:	d102      	bne.n	8001a7a <__aeabi_d2uiz+0x3a>
 8001a74:	f04f 30ff 	mov.w	r0, #4294967295
 8001a78:	4770      	bx	lr
 8001a7a:	f04f 0000 	mov.w	r0, #0
 8001a7e:	4770      	bx	lr

08001a80 <__aeabi_d2f>:
 8001a80:	ea4f 0241 	mov.w	r2, r1, lsl #1
 8001a84:	f1b2 43e0 	subs.w	r3, r2, #1879048192	; 0x70000000
 8001a88:	bf24      	itt	cs
 8001a8a:	f5b3 1c00 	subscs.w	ip, r3, #2097152	; 0x200000
 8001a8e:	f1dc 5cfe 	rsbscs	ip, ip, #532676608	; 0x1fc00000
 8001a92:	d90d      	bls.n	8001ab0 <__aeabi_d2f+0x30>
 8001a94:	f001 4c00 	and.w	ip, r1, #2147483648	; 0x80000000
 8001a98:	ea4f 02c0 	mov.w	r2, r0, lsl #3
 8001a9c:	ea4c 7050 	orr.w	r0, ip, r0, lsr #29
 8001aa0:	f1b2 4f00 	cmp.w	r2, #2147483648	; 0x80000000
 8001aa4:	eb40 0083 	adc.w	r0, r0, r3, lsl #2
 8001aa8:	bf08      	it	eq
 8001aaa:	f020 0001 	biceq.w	r0, r0, #1
 8001aae:	4770      	bx	lr
 8001ab0:	f011 4f80 	tst.w	r1, #1073741824	; 0x40000000
 8001ab4:	d121      	bne.n	8001afa <__aeabi_d2f+0x7a>
 8001ab6:	f113 7238 	adds.w	r2, r3, #48234496	; 0x2e00000
 8001aba:	bfbc      	itt	lt
 8001abc:	f001 4000 	andlt.w	r0, r1, #2147483648	; 0x80000000
 8001ac0:	4770      	bxlt	lr
 8001ac2:	f441 1180 	orr.w	r1, r1, #1048576	; 0x100000
 8001ac6:	ea4f 5252 	mov.w	r2, r2, lsr #21
 8001aca:	f1c2 0218 	rsb	r2, r2, #24
 8001ace:	f1c2 0c20 	rsb	ip, r2, #32
 8001ad2:	fa10 f30c 	lsls.w	r3, r0, ip
 8001ad6:	fa20 f002 	lsr.w	r0, r0, r2
 8001ada:	bf18      	it	ne
 8001adc:	f040 0001 	orrne.w	r0, r0, #1
 8001ae0:	ea4f 23c1 	mov.w	r3, r1, lsl #11
 8001ae4:	ea4f 23d3 	mov.w	r3, r3, lsr #11
 8001ae8:	fa03 fc0c 	lsl.w	ip, r3, ip
 8001aec:	ea40 000c 	orr.w	r0, r0, ip
 8001af0:	fa23 f302 	lsr.w	r3, r3, r2
 8001af4:	ea4f 0343 	mov.w	r3, r3, lsl #1
 8001af8:	e7cc      	b.n	8001a94 <__aeabi_d2f+0x14>
 8001afa:	ea7f 5362 	mvns.w	r3, r2, asr #21
 8001afe:	d107      	bne.n	8001b10 <__aeabi_d2f+0x90>
 8001b00:	ea50 3301 	orrs.w	r3, r0, r1, lsl #12
 8001b04:	bf1e      	ittt	ne
 8001b06:	f04f 40fe 	movne.w	r0, #2130706432	; 0x7f000000
 8001b0a:	f440 0040 	orrne.w	r0, r0, #12582912	; 0xc00000
 8001b0e:	4770      	bxne	lr
 8001b10:	f001 4000 	and.w	r0, r1, #2147483648	; 0x80000000
 8001b14:	f040 40fe 	orr.w	r0, r0, #2130706432	; 0x7f000000
 8001b18:	f440 0000 	orr.w	r0, r0, #8388608	; 0x800000
 8001b1c:	4770      	bx	lr
 8001b1e:	bf00      	nop

08001b20 <__aeabi_uldivmod>:
 8001b20:	b953      	cbnz	r3, 8001b38 <__aeabi_uldivmod+0x18>
 8001b22:	b94a      	cbnz	r2, 8001b38 <__aeabi_uldivmod+0x18>
 8001b24:	2900      	cmp	r1, #0
 8001b26:	bf08      	it	eq
 8001b28:	2800      	cmpeq	r0, #0
 8001b2a:	bf1c      	itt	ne
 8001b2c:	f04f 31ff 	movne.w	r1, #4294967295
 8001b30:	f04f 30ff 	movne.w	r0, #4294967295
 8001b34:	f000 b974 	b.w	8001e20 <__aeabi_idiv0>
 8001b38:	f1ad 0c08 	sub.w	ip, sp, #8
 8001b3c:	e96d ce04 	strd	ip, lr, [sp, #-16]!
 8001b40:	f000 f806 	bl	8001b50 <__udivmoddi4>
 8001b44:	f8dd e004 	ldr.w	lr, [sp, #4]
 8001b48:	e9dd 2302 	ldrd	r2, r3, [sp, #8]
 8001b4c:	b004      	add	sp, #16
 8001b4e:	4770      	bx	lr

08001b50 <__udivmoddi4>:
 8001b50:	e92d 47f0 	stmdb	sp!, {r4, r5, r6, r7, r8, r9, sl, lr}
 8001b54:	9e08      	ldr	r6, [sp, #32]
 8001b56:	4604      	mov	r4, r0
 8001b58:	4688      	mov	r8, r1
 8001b5a:	2b00      	cmp	r3, #0
 8001b5c:	d14b      	bne.n	8001bf6 <__udivmoddi4+0xa6>
 8001b5e:	428a      	cmp	r2, r1
 8001b60:	4615      	mov	r5, r2
 8001b62:	d967      	bls.n	8001c34 <__udivmoddi4+0xe4>
 8001b64:	fab2 f282 	clz	r2, r2
 8001b68:	b14a      	cbz	r2, 8001b7e <__udivmoddi4+0x2e>
 8001b6a:	f1c2 0720 	rsb	r7, r2, #32
 8001b6e:	fa01 f302 	lsl.w	r3, r1, r2
 8001b72:	fa20 f707 	lsr.w	r7, r0, r7
 8001b76:	4095      	lsls	r5, r2
 8001b78:	ea47 0803 	orr.w	r8, r7, r3
 8001b7c:	4094      	lsls	r4, r2
 8001b7e:	ea4f 4e15 	mov.w	lr, r5, lsr #16
 8001b82:	0c23      	lsrs	r3, r4, #16
 8001b84:	fbb8 f7fe 	udiv	r7, r8, lr
 8001b88:	fa1f fc85 	uxth.w	ip, r5
 8001b8c:	fb0e 8817 	mls	r8, lr, r7, r8
 8001b90:	ea43 4308 	orr.w	r3, r3, r8, lsl #16
 8001b94:	fb07 f10c 	mul.w	r1, r7, ip
 8001b98:	4299      	cmp	r1, r3
 8001b9a:	d909      	bls.n	8001bb0 <__udivmoddi4+0x60>
 8001b9c:	18eb      	adds	r3, r5, r3
 8001b9e:	f107 30ff 	add.w	r0, r7, #4294967295
 8001ba2:	f080 811b 	bcs.w	8001ddc <__udivmoddi4+0x28c>
 8001ba6:	4299      	cmp	r1, r3
 8001ba8:	f240 8118 	bls.w	8001ddc <__udivmoddi4+0x28c>
 8001bac:	3f02      	subs	r7, #2
 8001bae:	442b      	add	r3, r5
 8001bb0:	1a5b      	subs	r3, r3, r1
 8001bb2:	b2a4      	uxth	r4, r4
 8001bb4:	fbb3 f0fe 	udiv	r0, r3, lr
 8001bb8:	fb0e 3310 	mls	r3, lr, r0, r3
 8001bbc:	ea44 4403 	orr.w	r4, r4, r3, lsl #16
 8001bc0:	fb00 fc0c 	mul.w	ip, r0, ip
 8001bc4:	45a4      	cmp	ip, r4
 8001bc6:	d909      	bls.n	8001bdc <__udivmoddi4+0x8c>
 8001bc8:	192c      	adds	r4, r5, r4
 8001bca:	f100 33ff 	add.w	r3, r0, #4294967295
 8001bce:	f080 8107 	bcs.w	8001de0 <__udivmoddi4+0x290>
 8001bd2:	45a4      	cmp	ip, r4
 8001bd4:	f240 8104 	bls.w	8001de0 <__udivmoddi4+0x290>
 8001bd8:	3802      	subs	r0, #2
 8001bda:	442c      	add	r4, r5
 8001bdc:	ea40 4007 	orr.w	r0, r0, r7, lsl #16
 8001be0:	eba4 040c 	sub.w	r4, r4, ip
 8001be4:	2700      	movs	r7, #0
 8001be6:	b11e      	cbz	r6, 8001bf0 <__udivmoddi4+0xa0>
 8001be8:	40d4      	lsrs	r4, r2
 8001bea:	2300      	movs	r3, #0
 8001bec:	e9c6 4300 	strd	r4, r3, [r6]
 8001bf0:	4639      	mov	r1, r7
 8001bf2:	e8bd 87f0 	ldmia.w	sp!, {r4, r5, r6, r7, r8, r9, sl, pc}
 8001bf6:	428b      	cmp	r3, r1
 8001bf8:	d909      	bls.n	8001c0e <__udivmoddi4+0xbe>
 8001bfa:	2e00      	cmp	r6, #0
 8001bfc:	f000 80eb 	beq.w	8001dd6 <__udivmoddi4+0x286>
 8001c00:	2700      	movs	r7, #0
 8001c02:	e9c6 0100 	strd	r0, r1, [r6]
 8001c06:	4638      	mov	r0, r7
 8001c08:	4639      	mov	r1, r7
 8001c0a:	e8bd 87f0 	ldmia.w	sp!, {r4, r5, r6, r7, r8, r9, sl, pc}
 8001c0e:	fab3 f783 	clz	r7, r3
 8001c12:	2f00      	cmp	r7, #0
 8001c14:	d147      	bne.n	8001ca6 <__udivmoddi4+0x156>
 8001c16:	428b      	cmp	r3, r1
 8001c18:	d302      	bcc.n	8001c20 <__udivmoddi4+0xd0>
 8001c1a:	4282      	cmp	r2, r0
 8001c1c:	f200 80fa 	bhi.w	8001e14 <__udivmoddi4+0x2c4>
 8001c20:	1a84      	subs	r4, r0, r2
 8001c22:	eb61 0303 	sbc.w	r3, r1, r3
 8001c26:	2001      	movs	r0, #1
 8001c28:	4698      	mov	r8, r3
 8001c2a:	2e00      	cmp	r6, #0
 8001c2c:	d0e0      	beq.n	8001bf0 <__udivmoddi4+0xa0>
 8001c2e:	e9c6 4800 	strd	r4, r8, [r6]
 8001c32:	e7dd      	b.n	8001bf0 <__udivmoddi4+0xa0>
 8001c34:	b902      	cbnz	r2, 8001c38 <__udivmoddi4+0xe8>
 8001c36:	deff      	udf	#255	; 0xff
 8001c38:	fab2 f282 	clz	r2, r2
 8001c3c:	2a00      	cmp	r2, #0
 8001c3e:	f040 808f 	bne.w	8001d60 <__udivmoddi4+0x210>
 8001c42:	1b49      	subs	r1, r1, r5
 8001c44:	ea4f 4e15 	mov.w	lr, r5, lsr #16
 8001c48:	fa1f f885 	uxth.w	r8, r5
 8001c4c:	2701      	movs	r7, #1
 8001c4e:	fbb1 fcfe 	udiv	ip, r1, lr
 8001c52:	0c23      	lsrs	r3, r4, #16
 8001c54:	fb0e 111c 	mls	r1, lr, ip, r1
 8001c58:	ea43 4301 	orr.w	r3, r3, r1, lsl #16
 8001c5c:	fb08 f10c 	mul.w	r1, r8, ip
 8001c60:	4299      	cmp	r1, r3
 8001c62:	d907      	bls.n	8001c74 <__udivmoddi4+0x124>
 8001c64:	18eb      	adds	r3, r5, r3
 8001c66:	f10c 30ff 	add.w	r0, ip, #4294967295
 8001c6a:	d202      	bcs.n	8001c72 <__udivmoddi4+0x122>
 8001c6c:	4299      	cmp	r1, r3
 8001c6e:	f200 80cd 	bhi.w	8001e0c <__udivmoddi4+0x2bc>
 8001c72:	4684      	mov	ip, r0
 8001c74:	1a59      	subs	r1, r3, r1
 8001c76:	b2a3      	uxth	r3, r4
 8001c78:	fbb1 f0fe 	udiv	r0, r1, lr
 8001c7c:	fb0e 1410 	mls	r4, lr, r0, r1
 8001c80:	ea43 4404 	orr.w	r4, r3, r4, lsl #16
 8001c84:	fb08 f800 	mul.w	r8, r8, r0
 8001c88:	45a0      	cmp	r8, r4
 8001c8a:	d907      	bls.n	8001c9c <__udivmoddi4+0x14c>
 8001c8c:	192c      	adds	r4, r5, r4
 8001c8e:	f100 33ff 	add.w	r3, r0, #4294967295
 8001c92:	d202      	bcs.n	8001c9a <__udivmoddi4+0x14a>
 8001c94:	45a0      	cmp	r8, r4
 8001c96:	f200 80b6 	bhi.w	8001e06 <__udivmoddi4+0x2b6>
 8001c9a:	4618      	mov	r0, r3
 8001c9c:	eba4 0408 	sub.w	r4, r4, r8
 8001ca0:	ea40 400c 	orr.w	r0, r0, ip, lsl #16
 8001ca4:	e79f      	b.n	8001be6 <__udivmoddi4+0x96>
 8001ca6:	f1c7 0c20 	rsb	ip, r7, #32
 8001caa:	40bb      	lsls	r3, r7
 8001cac:	fa22 fe0c 	lsr.w	lr, r2, ip
 8001cb0:	ea4e 0e03 	orr.w	lr, lr, r3
 8001cb4:	fa01 f407 	lsl.w	r4, r1, r7
 8001cb8:	fa20 f50c 	lsr.w	r5, r0, ip
 8001cbc:	fa21 f30c 	lsr.w	r3, r1, ip
 8001cc0:	ea4f 481e 	mov.w	r8, lr, lsr #16
 8001cc4:	4325      	orrs	r5, r4
 8001cc6:	fbb3 f9f8 	udiv	r9, r3, r8
 8001cca:	0c2c      	lsrs	r4, r5, #16
 8001ccc:	fb08 3319 	mls	r3, r8, r9, r3
 8001cd0:	fa1f fa8e 	uxth.w	sl, lr
 8001cd4:	ea44 4303 	orr.w	r3, r4, r3, lsl #16
 8001cd8:	fb09 f40a 	mul.w	r4, r9, sl
 8001cdc:	429c      	cmp	r4, r3
 8001cde:	fa02 f207 	lsl.w	r2, r2, r7
 8001ce2:	fa00 f107 	lsl.w	r1, r0, r7
 8001ce6:	d90b      	bls.n	8001d00 <__udivmoddi4+0x1b0>
 8001ce8:	eb1e 0303 	adds.w	r3, lr, r3
 8001cec:	f109 30ff 	add.w	r0, r9, #4294967295
 8001cf0:	f080 8087 	bcs.w	8001e02 <__udivmoddi4+0x2b2>
 8001cf4:	429c      	cmp	r4, r3
 8001cf6:	f240 8084 	bls.w	8001e02 <__udivmoddi4+0x2b2>
 8001cfa:	f1a9 0902 	sub.w	r9, r9, #2
 8001cfe:	4473      	add	r3, lr
 8001d00:	1b1b      	subs	r3, r3, r4
 8001d02:	b2ad      	uxth	r5, r5
 8001d04:	fbb3 f0f8 	udiv	r0, r3, r8
 8001d08:	fb08 3310 	mls	r3, r8, r0, r3
 8001d0c:	ea45 4403 	orr.w	r4, r5, r3, lsl #16
 8001d10:	fb00 fa0a 	mul.w	sl, r0, sl
 8001d14:	45a2      	cmp	sl, r4
 8001d16:	d908      	bls.n	8001d2a <__udivmoddi4+0x1da>
 8001d18:	eb1e 0404 	adds.w	r4, lr, r4
 8001d1c:	f100 33ff 	add.w	r3, r0, #4294967295
 8001d20:	d26b      	bcs.n	8001dfa <__udivmoddi4+0x2aa>
 8001d22:	45a2      	cmp	sl, r4
 8001d24:	d969      	bls.n	8001dfa <__udivmoddi4+0x2aa>
 8001d26:	3802      	subs	r0, #2
 8001d28:	4474      	add	r4, lr
 8001d2a:	ea40 4009 	orr.w	r0, r0, r9, lsl #16
 8001d2e:	fba0 8902 	umull	r8, r9, r0, r2
 8001d32:	eba4 040a 	sub.w	r4, r4, sl
 8001d36:	454c      	cmp	r4, r9
 8001d38:	46c2      	mov	sl, r8
 8001d3a:	464b      	mov	r3, r9
 8001d3c:	d354      	bcc.n	8001de8 <__udivmoddi4+0x298>
 8001d3e:	d051      	beq.n	8001de4 <__udivmoddi4+0x294>
 8001d40:	2e00      	cmp	r6, #0
 8001d42:	d069      	beq.n	8001e18 <__udivmoddi4+0x2c8>
 8001d44:	ebb1 050a 	subs.w	r5, r1, sl
 8001d48:	eb64 0403 	sbc.w	r4, r4, r3
 8001d4c:	fa04 fc0c 	lsl.w	ip, r4, ip
 8001d50:	40fd      	lsrs	r5, r7
 8001d52:	40fc      	lsrs	r4, r7
 8001d54:	ea4c 0505 	orr.w	r5, ip, r5
 8001d58:	e9c6 5400 	strd	r5, r4, [r6]
 8001d5c:	2700      	movs	r7, #0
 8001d5e:	e747      	b.n	8001bf0 <__udivmoddi4+0xa0>
 8001d60:	f1c2 0320 	rsb	r3, r2, #32
 8001d64:	fa20 f703 	lsr.w	r7, r0, r3
 8001d68:	4095      	lsls	r5, r2
 8001d6a:	fa01 f002 	lsl.w	r0, r1, r2
 8001d6e:	fa21 f303 	lsr.w	r3, r1, r3
 8001d72:	ea4f 4e15 	mov.w	lr, r5, lsr #16
 8001d76:	4338      	orrs	r0, r7
 8001d78:	0c01      	lsrs	r1, r0, #16
 8001d7a:	fbb3 f7fe 	udiv	r7, r3, lr
 8001d7e:	fa1f f885 	uxth.w	r8, r5
 8001d82:	fb0e 3317 	mls	r3, lr, r7, r3
 8001d86:	ea41 4103 	orr.w	r1, r1, r3, lsl #16
 8001d8a:	fb07 f308 	mul.w	r3, r7, r8
 8001d8e:	428b      	cmp	r3, r1
 8001d90:	fa04 f402 	lsl.w	r4, r4, r2
 8001d94:	d907      	bls.n	8001da6 <__udivmoddi4+0x256>
 8001d96:	1869      	adds	r1, r5, r1
 8001d98:	f107 3cff 	add.w	ip, r7, #4294967295
 8001d9c:	d22f      	bcs.n	8001dfe <__udivmoddi4+0x2ae>
 8001d9e:	428b      	cmp	r3, r1
 8001da0:	d92d      	bls.n	8001dfe <__udivmoddi4+0x2ae>
 8001da2:	3f02      	subs	r7, #2
 8001da4:	4429      	add	r1, r5
 8001da6:	1acb      	subs	r3, r1, r3
 8001da8:	b281      	uxth	r1, r0
 8001daa:	fbb3 f0fe 	udiv	r0, r3, lr
 8001dae:	fb0e 3310 	mls	r3, lr, r0, r3
 8001db2:	ea41 4103 	orr.w	r1, r1, r3, lsl #16
 8001db6:	fb00 f308 	mul.w	r3, r0, r8
 8001dba:	428b      	cmp	r3, r1
 8001dbc:	d907      	bls.n	8001dce <__udivmoddi4+0x27e>
 8001dbe:	1869      	adds	r1, r5, r1
 8001dc0:	f100 3cff 	add.w	ip, r0, #4294967295
 8001dc4:	d217      	bcs.n	8001df6 <__udivmoddi4+0x2a6>
 8001dc6:	428b      	cmp	r3, r1
 8001dc8:	d915      	bls.n	8001df6 <__udivmoddi4+0x2a6>
 8001dca:	3802      	subs	r0, #2
 8001dcc:	4429      	add	r1, r5
 8001dce:	1ac9      	subs	r1, r1, r3
 8001dd0:	ea40 4707 	orr.w	r7, r0, r7, lsl #16
 8001dd4:	e73b      	b.n	8001c4e <__udivmoddi4+0xfe>
 8001dd6:	4637      	mov	r7, r6
 8001dd8:	4630      	mov	r0, r6
 8001dda:	e709      	b.n	8001bf0 <__udivmoddi4+0xa0>
 8001ddc:	4607      	mov	r7, r0
 8001dde:	e6e7      	b.n	8001bb0 <__udivmoddi4+0x60>
 8001de0:	4618      	mov	r0, r3
 8001de2:	e6fb      	b.n	8001bdc <__udivmoddi4+0x8c>
 8001de4:	4541      	cmp	r1, r8
 8001de6:	d2ab      	bcs.n	8001d40 <__udivmoddi4+0x1f0>
 8001de8:	ebb8 0a02 	subs.w	sl, r8, r2
 8001dec:	eb69 020e 	sbc.w	r2, r9, lr
 8001df0:	3801      	subs	r0, #1
 8001df2:	4613      	mov	r3, r2
 8001df4:	e7a4      	b.n	8001d40 <__udivmoddi4+0x1f0>
 8001df6:	4660      	mov	r0, ip
 8001df8:	e7e9      	b.n	8001dce <__udivmoddi4+0x27e>
 8001dfa:	4618      	mov	r0, r3
 8001dfc:	e795      	b.n	8001d2a <__udivmoddi4+0x1da>
 8001dfe:	4667      	mov	r7, ip
 8001e00:	e7d1      	b.n	8001da6 <__udivmoddi4+0x256>
 8001e02:	4681      	mov	r9, r0
 8001e04:	e77c      	b.n	8001d00 <__udivmoddi4+0x1b0>
 8001e06:	3802      	subs	r0, #2
 8001e08:	442c      	add	r4, r5
 8001e0a:	e747      	b.n	8001c9c <__udivmoddi4+0x14c>
 8001e0c:	f1ac 0c02 	sub.w	ip, ip, #2
 8001e10:	442b      	add	r3, r5
 8001e12:	e72f      	b.n	8001c74 <__udivmoddi4+0x124>
 8001e14:	4638      	mov	r0, r7
 8001e16:	e708      	b.n	8001c2a <__udivmoddi4+0xda>
 8001e18:	4637      	mov	r7, r6
 8001e1a:	e6e9      	b.n	8001bf0 <__udivmoddi4+0xa0>
 8001e1c:	0000      	movs	r0, r0
	...

08001e20 <__aeabi_idiv0>:
 8001e20:	4770      	bx	lr
 8001e22:	bf00      	nop
	...

08001e30 <memcpy>:
 8001e30:	4684      	mov	ip, r0
 8001e32:	ea41 0300 	orr.w	r3, r1, r0
 8001e36:	f013 0303 	ands.w	r3, r3, #3
 8001e3a:	d16d      	bne.n	8001f18 <memcpy+0xe8>
 8001e3c:	3a40      	subs	r2, #64	; 0x40
 8001e3e:	d341      	bcc.n	8001ec4 <memcpy+0x94>
 8001e40:	f851 3b04 	ldr.w	r3, [r1], #4
 8001e44:	f840 3b04 	str.w	r3, [r0], #4
 8001e48:	f851 3b04 	ldr.w	r3, [r1], #4
 8001e4c:	f840 3b04 	str.w	r3, [r0], #4
 8001e50:	f851 3b04 	ldr.w	r3, [r1], #4
 8001e54:	f840 3b04 	str.w	r3, [r0], #4
 8001e58:	f851 3b04 	ldr.w	r3, [r1], #4
 8001e5c:	f840 3b04 	str.w	r3, [r0], #4
 8001e60:	f851 3b04 	ldr.w	r3, [r1], #4
 8001e64:	f840 3b04 	str.w	r3, [r0], #4
 8001e68:	f851 3b04 	ldr.w	r3, [r1], #4
 8001e6c:	f840 3b04 	str.w	r3, [r0], #4
 8001e70:	f851 3b04 	ldr.w	r3, [r1], #4
 8001e74:	f840 3b04 	str.w	r3, [r0], #4
 8001e78:	f851 3b04 	ldr.w	r3, [r1], #4
 8001e7c:	f840 3b04 	str.w	r3, [r0], #4
 8001e80:	f851 3b04 	ldr.w	r3, [r1], #4
 8001e84:	f840 3b04 	str.w	r3, [r0], #4
 8001e88:	f851 3b04 	ldr.w	r3, [r1], #4
 8001e8c:	f840 3b04 	str.w	r3, [r0], #4
 8001e90:	f851 3b04 	ldr.w	r3, [r1], #4
 8001e94:	f840 3b04 	str.w	r3, [r0], #4
 8001e98:	f851 3b04 	ldr.w	r3, [r1], #4
 8001e9c:	f840 3b04 	str.w	r3, [r0], #4
 8001ea0:	f851 3b04 	ldr.w	r3, [r1], #4
 8001ea4:	f840 3b04 	str.w	r3, [r0], #4
 8001ea8:	f851 3b04 	ldr.w	r3, [r1], #4
 8001eac:	f840 3b04 	str.w	r3, [r0], #4
 8001eb0:	f851 3b04 	ldr.w	r3, [r1], #4
 8001eb4:	f840 3b04 	str.w	r3, [r0], #4
 8001eb8:	f851 3b04 	ldr.w	r3, [r1], #4
 8001ebc:	f840 3b04 	str.w	r3, [r0], #4
 8001ec0:	3a40      	subs	r2, #64	; 0x40
 8001ec2:	d2bd      	bcs.n	8001e40 <memcpy+0x10>
 8001ec4:	3230      	adds	r2, #48	; 0x30
 8001ec6:	d311      	bcc.n	8001eec <memcpy+0xbc>
 8001ec8:	f851 3b04 	ldr.w	r3, [r1], #4
 8001ecc:	f840 3b04 	str.w	r3, [r0], #4
 8001ed0:	f851 3b04 	ldr.w	r3, [r1], #4
 8001ed4:	f840 3b04 	str.w	r3, [r0], #4
 8001ed8:	f851 3b04 	ldr.w	r3, [r1], #4
 8001edc:	f840 3b04 	str.w	r3, [r0], #4
 8001ee0:	f851 3b04 	ldr.w	r3, [r1], #4
 8001ee4:	f840 3b04 	str.w	r3, [r0], #4
 8001ee8:	3a10      	subs	r2, #16
 8001eea:	d2ed      	bcs.n	8001ec8 <memcpy+0x98>
 8001eec:	320c      	adds	r2, #12
 8001eee:	d305      	bcc.n	8001efc <memcpy+0xcc>
 8001ef0:	f851 3b04 	ldr.w	r3, [r1], #4
 8001ef4:	f840 3b04 	str.w	r3, [r0], #4
 8001ef8:	3a04      	subs	r2, #4
 8001efa:	d2f9      	bcs.n	8001ef0 <memcpy+0xc0>
 8001efc:	3204      	adds	r2, #4
 8001efe:	d008      	beq.n	8001f12 <memcpy+0xe2>
 8001f00:	07d2      	lsls	r2, r2, #31
 8001f02:	bf1c      	itt	ne
 8001f04:	f811 3b01 	ldrbne.w	r3, [r1], #1
 8001f08:	f800 3b01 	strbne.w	r3, [r0], #1
 8001f0c:	d301      	bcc.n	8001f12 <memcpy+0xe2>
 8001f0e:	880b      	ldrh	r3, [r1, #0]
 8001f10:	8003      	strh	r3, [r0, #0]
 8001f12:	4660      	mov	r0, ip
 8001f14:	4770      	bx	lr
 8001f16:	bf00      	nop
 8001f18:	2a08      	cmp	r2, #8
 8001f1a:	d313      	bcc.n	8001f44 <memcpy+0x114>
 8001f1c:	078b      	lsls	r3, r1, #30
 8001f1e:	d08d      	beq.n	8001e3c <memcpy+0xc>
 8001f20:	f010 0303 	ands.w	r3, r0, #3
 8001f24:	d08a      	beq.n	8001e3c <memcpy+0xc>
 8001f26:	f1c3 0304 	rsb	r3, r3, #4
 8001f2a:	1ad2      	subs	r2, r2, r3
 8001f2c:	07db      	lsls	r3, r3, #31
 8001f2e:	bf1c      	itt	ne
 8001f30:	f811 3b01 	ldrbne.w	r3, [r1], #1
 8001f34:	f800 3b01 	strbne.w	r3, [r0], #1
 8001f38:	d380      	bcc.n	8001e3c <memcpy+0xc>
 8001f3a:	f831 3b02 	ldrh.w	r3, [r1], #2
 8001f3e:	f820 3b02 	strh.w	r3, [r0], #2
 8001f42:	e77b      	b.n	8001e3c <memcpy+0xc>
 8001f44:	3a04      	subs	r2, #4
 8001f46:	d3d9      	bcc.n	8001efc <memcpy+0xcc>
 8001f48:	3a01      	subs	r2, #1
 8001f4a:	f811 3b01 	ldrb.w	r3, [r1], #1
 8001f4e:	f800 3b01 	strb.w	r3, [r0], #1
 8001f52:	d2f9      	bcs.n	8001f48 <memcpy+0x118>
 8001f54:	780b      	ldrb	r3, [r1, #0]
 8001f56:	7003      	strb	r3, [r0, #0]
 8001f58:	784b      	ldrb	r3, [r1, #1]
 8001f5a:	7043      	strb	r3, [r0, #1]
 8001f5c:	788b      	ldrb	r3, [r1, #2]
 8001f5e:	7083      	strb	r3, [r0, #2]
 8001f60:	4660      	mov	r0, ip
 8001f62:	4770      	bx	lr
	...
 8001f70:	eba2 0003 	sub.w	r0, r2, r3
 8001f74:	4770      	bx	lr
 8001f76:	bf00      	nop

08001f78 <strcmp>:
 8001f78:	7802      	ldrb	r2, [r0, #0]
 8001f7a:	780b      	ldrb	r3, [r1, #0]
 8001f7c:	2a01      	cmp	r2, #1
 8001f7e:	bf28      	it	cs
 8001f80:	429a      	cmpcs	r2, r3
 8001f82:	d1f5      	bne.n	8001f70 <memcpy+0x140>
 8001f84:	e96d 4504 	strd	r4, r5, [sp, #-16]!
 8001f88:	ea40 0401 	orr.w	r4, r0, r1
 8001f8c:	e9cd 6702 	strd	r6, r7, [sp, #8]
 8001f90:	f06f 0c00 	mvn.w	ip, #0
 8001f94:	ea4f 7244 	mov.w	r2, r4, lsl #29
 8001f98:	b312      	cbz	r2, 8001fe0 <strcmp+0x68>
 8001f9a:	ea80 0401 	eor.w	r4, r0, r1
 8001f9e:	f014 0f07 	tst.w	r4, #7
 8001fa2:	d16a      	bne.n	800207a <strcmp+0x102>
 8001fa4:	f000 0407 	and.w	r4, r0, #7
 8001fa8:	f020 0007 	bic.w	r0, r0, #7
 8001fac:	f004 0503 	and.w	r5, r4, #3
 8001fb0:	f021 0107 	bic.w	r1, r1, #7
 8001fb4:	ea4f 05c5 	mov.w	r5, r5, lsl #3
 8001fb8:	e8f0 2304 	ldrd	r2, r3, [r0], #16
 8001fbc:	f014 0f04 	tst.w	r4, #4
 8001fc0:	e8f1 6704 	ldrd	r6, r7, [r1], #16
 8001fc4:	fa0c f405 	lsl.w	r4, ip, r5
 8001fc8:	ea62 0204 	orn	r2, r2, r4
 8001fcc:	ea66 0604 	orn	r6, r6, r4
 8001fd0:	d00a      	beq.n	8001fe8 <strcmp+0x70>
 8001fd2:	ea63 0304 	orn	r3, r3, r4
 8001fd6:	4662      	mov	r2, ip
 8001fd8:	ea67 0704 	orn	r7, r7, r4
 8001fdc:	4666      	mov	r6, ip
 8001fde:	e003      	b.n	8001fe8 <strcmp+0x70>
 8001fe0:	e8f0 2304 	ldrd	r2, r3, [r0], #16
 8001fe4:	e8f1 6704 	ldrd	r6, r7, [r1], #16
 8001fe8:	fa82 f54c 	uadd8	r5, r2, ip
 8001fec:	ea82 0406 	eor.w	r4, r2, r6
 8001ff0:	faa4 f48c 	sel	r4, r4, ip
 8001ff4:	bb6c      	cbnz	r4, 8002052 <strcmp+0xda>
 8001ff6:	fa83 f54c 	uadd8	r5, r3, ip
 8001ffa:	ea83 0507 	eor.w	r5, r3, r7
 8001ffe:	faa5 f58c 	sel	r5, r5, ip
 8002002:	b995      	cbnz	r5, 800202a <strcmp+0xb2>
 8002004:	e950 2302 	ldrd	r2, r3, [r0, #-8]
 8002008:	e951 6702 	ldrd	r6, r7, [r1, #-8]
 800200c:	fa82 f54c 	uadd8	r5, r2, ip
 8002010:	ea82 0406 	eor.w	r4, r2, r6
 8002014:	faa4 f48c 	sel	r4, r4, ip
 8002018:	fa83 f54c 	uadd8	r5, r3, ip
 800201c:	ea83 0507 	eor.w	r5, r3, r7
 8002020:	faa5 f58c 	sel	r5, r5, ip
 8002024:	4325      	orrs	r5, r4
 8002026:	d0db      	beq.n	8001fe0 <strcmp+0x68>
 8002028:	b99c      	cbnz	r4, 8002052 <strcmp+0xda>
 800202a:	ba2d      	rev	r5, r5
 800202c:	fab5 f485 	clz	r4, r5
 8002030:	f024 0407 	bic.w	r4, r4, #7
 8002034:	fa27 f104 	lsr.w	r1, r7, r4
 8002038:	e9dd 6702 	ldrd	r6, r7, [sp, #8]
 800203c:	fa23 f304 	lsr.w	r3, r3, r4
 8002040:	f003 00ff 	and.w	r0, r3, #255	; 0xff
 8002044:	f001 01ff 	and.w	r1, r1, #255	; 0xff
 8002048:	e8fd 4504 	ldrd	r4, r5, [sp], #16
 800204c:	eba0 0001 	sub.w	r0, r0, r1
 8002050:	4770      	bx	lr
 8002052:	ba24      	rev	r4, r4
 8002054:	fab4 f484 	clz	r4, r4
 8002058:	f024 0407 	bic.w	r4, r4, #7
 800205c:	fa26 f104 	lsr.w	r1, r6, r4
 8002060:	e9dd 6702 	ldrd	r6, r7, [sp, #8]
 8002064:	fa22 f204 	lsr.w	r2, r2, r4
 8002068:	f002 00ff 	and.w	r0, r2, #255	; 0xff
 800206c:	f001 01ff 	and.w	r1, r1, #255	; 0xff
 8002070:	e8fd 4504 	ldrd	r4, r5, [sp], #16
 8002074:	eba0 0001 	sub.w	r0, r0, r1
 8002078:	4770      	bx	lr
 800207a:	f014 0f03 	tst.w	r4, #3
 800207e:	d13c      	bne.n	80020fa <strcmp+0x182>
 8002080:	f010 0403 	ands.w	r4, r0, #3
 8002084:	d128      	bne.n	80020d8 <strcmp+0x160>
 8002086:	f850 2b08 	ldr.w	r2, [r0], #8
 800208a:	f851 3b08 	ldr.w	r3, [r1], #8
 800208e:	fa82 f54c 	uadd8	r5, r2, ip
 8002092:	ea82 0503 	eor.w	r5, r2, r3
 8002096:	faa5 f58c 	sel	r5, r5, ip
 800209a:	b95d      	cbnz	r5, 80020b4 <strcmp+0x13c>
 800209c:	f850 2c04 	ldr.w	r2, [r0, #-4]
 80020a0:	f851 3c04 	ldr.w	r3, [r1, #-4]
 80020a4:	fa82 f54c 	uadd8	r5, r2, ip
 80020a8:	ea82 0503 	eor.w	r5, r2, r3
 80020ac:	faa5 f58c 	sel	r5, r5, ip
 80020b0:	2d00      	cmp	r5, #0
 80020b2:	d0e8      	beq.n	8002086 <strcmp+0x10e>
 80020b4:	ba2d      	rev	r5, r5
 80020b6:	fab5 f485 	clz	r4, r5
 80020ba:	f024 0407 	bic.w	r4, r4, #7
 80020be:	fa23 f104 	lsr.w	r1, r3, r4
 80020c2:	fa22 f204 	lsr.w	r2, r2, r4
 80020c6:	f002 00ff 	and.w	r0, r2, #255	; 0xff
 80020ca:	f001 01ff 	and.w	r1, r1, #255	; 0xff
 80020ce:	e8fd 4504 	ldrd	r4, r5, [sp], #16
 80020d2:	eba0 0001 	sub.w	r0, r0, r1
 80020d6:	4770      	bx	lr
 80020d8:	ea4f 04c4 	mov.w	r4, r4, lsl #3
 80020dc:	f020 0003 	bic.w	r0, r0, #3
 80020e0:	f850 2b08 	ldr.w	r2, [r0], #8
 80020e4:	f021 0103 	bic.w	r1, r1, #3
 80020e8:	f851 3b08 	ldr.w	r3, [r1], #8
 80020ec:	fa0c f404 	lsl.w	r4, ip, r4
 80020f0:	ea62 0204 	orn	r2, r2, r4
 80020f4:	ea63 0304 	orn	r3, r3, r4
 80020f8:	e7c9      	b.n	800208e <strcmp+0x116>
 80020fa:	f010 0403 	ands.w	r4, r0, #3
 80020fe:	d01a      	beq.n	8002136 <strcmp+0x1be>
 8002100:	eba1 0104 	sub.w	r1, r1, r4
 8002104:	f020 0003 	bic.w	r0, r0, #3
 8002108:	07e4      	lsls	r4, r4, #31
 800210a:	f850 2b04 	ldr.w	r2, [r0], #4
 800210e:	d006      	beq.n	800211e <strcmp+0x1a6>
 8002110:	d20f      	bcs.n	8002132 <strcmp+0x1ba>
 8002112:	788b      	ldrb	r3, [r1, #2]
 8002114:	fa5f f4a2 	uxtb.w	r4, r2, ror #16
 8002118:	1ae4      	subs	r4, r4, r3
 800211a:	d106      	bne.n	800212a <strcmp+0x1b2>
 800211c:	b12b      	cbz	r3, 800212a <strcmp+0x1b2>
 800211e:	78cb      	ldrb	r3, [r1, #3]
 8002120:	fa5f f4b2 	uxtb.w	r4, r2, ror #24
 8002124:	1ae4      	subs	r4, r4, r3
 8002126:	d100      	bne.n	800212a <strcmp+0x1b2>
 8002128:	b91b      	cbnz	r3, 8002132 <strcmp+0x1ba>
 800212a:	4620      	mov	r0, r4
 800212c:	f85d 4b10 	ldr.w	r4, [sp], #16
 8002130:	4770      	bx	lr
 8002132:	f101 0104 	add.w	r1, r1, #4
 8002136:	f850 2b04 	ldr.w	r2, [r0], #4
 800213a:	07cc      	lsls	r4, r1, #31
 800213c:	f021 0103 	bic.w	r1, r1, #3
 8002140:	f851 3b04 	ldr.w	r3, [r1], #4
 8002144:	d848      	bhi.n	80021d8 <strcmp+0x260>
 8002146:	d224      	bcs.n	8002192 <strcmp+0x21a>
 8002148:	f022 447f 	bic.w	r4, r2, #4278190080	; 0xff000000
 800214c:	fa82 f54c 	uadd8	r5, r2, ip
 8002150:	ea94 2513 	eors.w	r5, r4, r3, lsr #8
 8002154:	faa5 f58c 	sel	r5, r5, ip
 8002158:	d10a      	bne.n	8002170 <strcmp+0x1f8>
 800215a:	b965      	cbnz	r5, 8002176 <strcmp+0x1fe>
 800215c:	f851 3b04 	ldr.w	r3, [r1], #4
 8002160:	ea84 0402 	eor.w	r4, r4, r2
 8002164:	ebb4 6f03 	cmp.w	r4, r3, lsl #24
 8002168:	d10e      	bne.n	8002188 <strcmp+0x210>
 800216a:	f850 2b04 	ldr.w	r2, [r0], #4
 800216e:	e7eb      	b.n	8002148 <strcmp+0x1d0>
 8002170:	ea4f 2313 	mov.w	r3, r3, lsr #8
 8002174:	e055      	b.n	8002222 <strcmp+0x2aa>
 8002176:	f035 457f 	bics.w	r5, r5, #4278190080	; 0xff000000
 800217a:	d14d      	bne.n	8002218 <strcmp+0x2a0>
 800217c:	7808      	ldrb	r0, [r1, #0]
 800217e:	e8fd 4504 	ldrd	r4, r5, [sp], #16
 8002182:	f1c0 0000 	rsb	r0, r0, #0
 8002186:	4770      	bx	lr
 8002188:	ea4f 6212 	mov.w	r2, r2, lsr #24
 800218c:	f003 03ff 	and.w	r3, r3, #255	; 0xff
 8002190:	e047      	b.n	8002222 <strcmp+0x2aa>
 8002192:	ea02 441c 	and.w	r4, r2, ip, lsr #16
 8002196:	fa82 f54c 	uadd8	r5, r2, ip
 800219a:	ea94 4513 	eors.w	r5, r4, r3, lsr #16
 800219e:	faa5 f58c 	sel	r5, r5, ip
 80021a2:	d10a      	bne.n	80021ba <strcmp+0x242>
 80021a4:	b965      	cbnz	r5, 80021c0 <strcmp+0x248>
 80021a6:	f851 3b04 	ldr.w	r3, [r1], #4
 80021aa:	ea84 0402 	eor.w	r4, r4, r2
 80021ae:	ebb4 4f03 	cmp.w	r4, r3, lsl #16
 80021b2:	d10c      	bne.n	80021ce <strcmp+0x256>
 80021b4:	f850 2b04 	ldr.w	r2, [r0], #4
 80021b8:	e7eb      	b.n	8002192 <strcmp+0x21a>
 80021ba:	ea4f 4313 	mov.w	r3, r3, lsr #16
 80021be:	e030      	b.n	8002222 <strcmp+0x2aa>
 80021c0:	ea15 451c 	ands.w	r5, r5, ip, lsr #16
 80021c4:	d128      	bne.n	8002218 <strcmp+0x2a0>
 80021c6:	880b      	ldrh	r3, [r1, #0]
 80021c8:	ea4f 4212 	mov.w	r2, r2, lsr #16
 80021cc:	e029      	b.n	8002222 <strcmp+0x2aa>
 80021ce:	ea4f 4212 	mov.w	r2, r2, lsr #16
 80021d2:	ea03 431c 	and.w	r3, r3, ip, lsr #16
 80021d6:	e024      	b.n	8002222 <strcmp+0x2aa>
 80021d8:	f002 04ff 	and.w	r4, r2, #255	; 0xff
 80021dc:	fa82 f54c 	uadd8	r5, r2, ip
 80021e0:	ea94 6513 	eors.w	r5, r4, r3, lsr #24
 80021e4:	faa5 f58c 	sel	r5, r5, ip
 80021e8:	d10a      	bne.n	8002200 <strcmp+0x288>
 80021ea:	b965      	cbnz	r5, 8002206 <strcmp+0x28e>
 80021ec:	f851 3b04 	ldr.w	r3, [r1], #4
 80021f0:	ea84 0402 	eor.w	r4, r4, r2
 80021f4:	ebb4 2f03 	cmp.w	r4, r3, lsl #8
 80021f8:	d109      	bne.n	800220e <strcmp+0x296>
 80021fa:	f850 2b04 	ldr.w	r2, [r0], #4
 80021fe:	e7eb      	b.n	80021d8 <strcmp+0x260>
 8002200:	ea4f 6313 	mov.w	r3, r3, lsr #24
 8002204:	e00d      	b.n	8002222 <strcmp+0x2aa>
 8002206:	f015 0fff 	tst.w	r5, #255	; 0xff
 800220a:	d105      	bne.n	8002218 <strcmp+0x2a0>
 800220c:	680b      	ldr	r3, [r1, #0]
 800220e:	ea4f 2212 	mov.w	r2, r2, lsr #8
 8002212:	f023 437f 	bic.w	r3, r3, #4278190080	; 0xff000000
 8002216:	e004      	b.n	8002222 <strcmp+0x2aa>
 8002218:	f04f 0000 	mov.w	r0, #0
 800221c:	e8fd 4504 	ldrd	r4, r5, [sp], #16
 8002220:	4770      	bx	lr
 8002222:	ba12      	rev	r2, r2
 8002224:	ba1b      	rev	r3, r3
 8002226:	fa82 f44c 	uadd8	r4, r2, ip
 800222a:	ea82 0403 	eor.w	r4, r2, r3
 800222e:	faa4 f58c 	sel	r5, r4, ip
 8002232:	fab5 f485 	clz	r4, r5
 8002236:	fa02 f204 	lsl.w	r2, r2, r4
 800223a:	fa03 f304 	lsl.w	r3, r3, r4
 800223e:	ea4f 6012 	mov.w	r0, r2, lsr #24
 8002242:	e8fd 4504 	ldrd	r4, r5, [sp], #16
 8002246:	eba0 6013 	sub.w	r0, r0, r3, lsr #24
 800224a:	4770      	bx	lr
 800224c:	0000      	movs	r0, r0
	...

08002250 <strlen>:
 8002250:	f890 f000 	pld	[r0]
 8002254:	e96d 4502 	strd	r4, r5, [sp, #-8]!
 8002258:	f020 0107 	bic.w	r1, r0, #7
 800225c:	f06f 0c00 	mvn.w	ip, #0
 8002260:	f010 0407 	ands.w	r4, r0, #7
 8002264:	f891 f020 	pld	[r1, #32]
 8002268:	f040 8049 	bne.w	80022fe <strlen+0xae>
 800226c:	f04f 0400 	mov.w	r4, #0
 8002270:	f06f 0007 	mvn.w	r0, #7
 8002274:	e9d1 2300 	ldrd	r2, r3, [r1]
 8002278:	f891 f040 	pld	[r1, #64]	; 0x40
 800227c:	f100 0008 	add.w	r0, r0, #8
 8002280:	fa82 f24c 	uadd8	r2, r2, ip
 8002284:	faa4 f28c 	sel	r2, r4, ip
 8002288:	fa83 f34c 	uadd8	r3, r3, ip
 800228c:	faa2 f38c 	sel	r3, r2, ip
 8002290:	bb4b      	cbnz	r3, 80022e6 <strlen+0x96>
 8002292:	e9d1 2302 	ldrd	r2, r3, [r1, #8]
 8002296:	fa82 f24c 	uadd8	r2, r2, ip
 800229a:	f100 0008 	add.w	r0, r0, #8
 800229e:	faa4 f28c 	sel	r2, r4, ip
 80022a2:	fa83 f34c 	uadd8	r3, r3, ip
 80022a6:	faa2 f38c 	sel	r3, r2, ip
 80022aa:	b9e3      	cbnz	r3, 80022e6 <strlen+0x96>
 80022ac:	e9d1 2304 	ldrd	r2, r3, [r1, #16]
 80022b0:	fa82 f24c 	uadd8	r2, r2, ip
 80022b4:	f100 0008 	add.w	r0, r0, #8
 80022b8:	faa4 f28c 	sel	r2, r4, ip
 80022bc:	fa83 f34c 	uadd8	r3, r3, ip
 80022c0:	faa2 f38c 	sel	r3, r2, ip
 80022c4:	b97b      	cbnz	r3, 80022e6 <strlen+0x96>
 80022c6:	e9d1 2306 	ldrd	r2, r3, [r1, #24]
 80022ca:	f101 0120 	add.w	r1, r1, #32
 80022ce:	fa82 f24c 	uadd8	r2, r2, ip
 80022d2:	f100 0008 	add.w	r0, r0, #8
 80022d6:	faa4 f28c 	sel	r2, r4, ip
 80022da:	fa83 f34c 	uadd8	r3, r3, ip
 80022de:	faa2 f38c 	sel	r3, r2, ip
 80022e2:	2b00      	cmp	r3, #0
 80022e4:	d0c6      	beq.n	8002274 <strlen+0x24>
 80022e6:	2a00      	cmp	r2, #0
 80022e8:	bf04      	itt	eq
 80022ea:	3004      	addeq	r0, #4
 80022ec:	461a      	moveq	r2, r3
 80022ee:	ba12      	rev	r2, r2
 80022f0:	fab2 f282 	clz	r2, r2
 80022f4:	e8fd 4502 	ldrd	r4, r5, [sp], #8
 80022f8:	eb00 00d2 	add.w	r0, r0, r2, lsr #3
 80022fc:	4770      	bx	lr
 80022fe:	e9d1 2300 	ldrd	r2, r3, [r1]
 8002302:	f004 0503 	and.w	r5, r4, #3
 8002306:	f1c4 0000 	rsb	r0, r4, #0
 800230a:	ea4f 05c5 	mov.w	r5, r5, lsl #3
 800230e:	f014 0f04 	tst.w	r4, #4
 8002312:	f891 f040 	pld	[r1, #64]	; 0x40
 8002316:	fa0c f505 	lsl.w	r5, ip, r5
 800231a:	ea62 0205 	orn	r2, r2, r5
 800231e:	bf1c      	itt	ne
 8002320:	ea63 0305 	ornne	r3, r3, r5
 8002324:	4662      	movne	r2, ip
 8002326:	f04f 0400 	mov.w	r4, #0
 800232a:	e7a9      	b.n	8002280 <strlen+0x30>
 800232c:	0000      	movs	r0, r0
	...

08002330 <memchr>:
 8002330:	f001 01ff 	and.w	r1, r1, #255	; 0xff
 8002334:	2a10      	cmp	r2, #16
 8002336:	db2b      	blt.n	8002390 <memchr+0x60>
 8002338:	f010 0f07 	tst.w	r0, #7
 800233c:	d008      	beq.n	8002350 <memchr+0x20>
 800233e:	f810 3b01 	ldrb.w	r3, [r0], #1
 8002342:	3a01      	subs	r2, #1
 8002344:	428b      	cmp	r3, r1
 8002346:	d02d      	beq.n	80023a4 <memchr+0x74>
 8002348:	f010 0f07 	tst.w	r0, #7
 800234c:	b342      	cbz	r2, 80023a0 <memchr+0x70>
 800234e:	d1f6      	bne.n	800233e <memchr+0xe>
 8002350:	b4f0      	push	{r4, r5, r6, r7}
 8002352:	ea41 2101 	orr.w	r1, r1, r1, lsl #8
 8002356:	ea41 4101 	orr.w	r1, r1, r1, lsl #16
 800235a:	f022 0407 	bic.w	r4, r2, #7
 800235e:	f07f 0700 	mvns.w	r7, #0
 8002362:	2300      	movs	r3, #0
 8002364:	e8f0 5602 	ldrd	r5, r6, [r0], #8
 8002368:	3c08      	subs	r4, #8
 800236a:	ea85 0501 	eor.w	r5, r5, r1
 800236e:	ea86 0601 	eor.w	r6, r6, r1
 8002372:	fa85 f547 	uadd8	r5, r5, r7
 8002376:	faa3 f587 	sel	r5, r3, r7
 800237a:	fa86 f647 	uadd8	r6, r6, r7
 800237e:	faa5 f687 	sel	r6, r5, r7
 8002382:	b98e      	cbnz	r6, 80023a8 <memchr+0x78>
 8002384:	d1ee      	bne.n	8002364 <memchr+0x34>
 8002386:	bcf0      	pop	{r4, r5, r6, r7}
 8002388:	f001 01ff 	and.w	r1, r1, #255	; 0xff
 800238c:	f002 0207 	and.w	r2, r2, #7
 8002390:	b132      	cbz	r2, 80023a0 <memchr+0x70>
 8002392:	f810 3b01 	ldrb.w	r3, [r0], #1
 8002396:	3a01      	subs	r2, #1
 8002398:	ea83 0301 	eor.w	r3, r3, r1
 800239c:	b113      	cbz	r3, 80023a4 <memchr+0x74>
 800239e:	d1f8      	bne.n	8002392 <memchr+0x62>
 80023a0:	2000      	movs	r0, #0
 80023a2:	4770      	bx	lr
 80023a4:	3801      	subs	r0, #1
 80023a6:	4770      	bx	lr
 80023a8:	2d00      	cmp	r5, #0
 80023aa:	bf06      	itte	eq
 80023ac:	4635      	moveq	r5, r6
 80023ae:	3803      	subeq	r0, #3
 80023b0:	3807      	subne	r0, #7
 80023b2:	f015 0f01 	tst.w	r5, #1
 80023b6:	d107      	bne.n	80023c8 <memchr+0x98>
 80023b8:	3001      	adds	r0, #1
 80023ba:	f415 7f80 	tst.w	r5, #256	; 0x100
 80023be:	bf02      	ittt	eq
 80023c0:	3001      	addeq	r0, #1
 80023c2:	f415 3fc0 	tsteq.w	r5, #98304	; 0x18000
 80023c6:	3001      	addeq	r0, #1
 80023c8:	bcf0      	pop	{r4, r5, r6, r7}
 80023ca:	3801      	subs	r0, #1
 80023cc:	4770      	bx	lr
 80023ce:	bf00      	nop

080023d0 <__aeabi_dcmpun>:
 80023d0:	ea4f 0c41 	mov.w	ip, r1, lsl #1
 80023d4:	ea7f 5c6c 	mvns.w	ip, ip, asr #21
 80023d8:	d102      	bne.n	80023e0 <__aeabi_dcmpun+0x10>
 80023da:	ea50 3c01 	orrs.w	ip, r0, r1, lsl #12
 80023de:	d10a      	bne.n	80023f6 <__aeabi_dcmpun+0x26>
 80023e0:	ea4f 0c43 	mov.w	ip, r3, lsl #1
 80023e4:	ea7f 5c6c 	mvns.w	ip, ip, asr #21
 80023e8:	d102      	bne.n	80023f0 <__aeabi_dcmpun+0x20>
 80023ea:	ea52 3c03 	orrs.w	ip, r2, r3, lsl #12
 80023ee:	d102      	bne.n	80023f6 <__aeabi_dcmpun+0x26>
 80023f0:	f04f 0000 	mov.w	r0, #0
 80023f4:	4770      	bx	lr
 80023f6:	f04f 0001 	mov.w	r0, #1
 80023fa:	4770      	bx	lr
 80023fc:	0000      	movs	r0, r0
	...

08002400 <LancerJeu>:
 8002400:	b530      	push	{r4, r5, lr}
 8002402:	4c1f      	ldr	r4, [pc, #124]	; (8002480 <LancerJeu+0x80>)
 8002404:	b083      	sub	sp, #12
 8002406:	6823      	ldr	r3, [r4, #0]
 8002408:	9301      	str	r3, [sp, #4]
 800240a:	f000 fd51 	bl	8002eb0 <BloquerMoteurs>
 800240e:	f001 f87f 	bl	8003510 <StopperRecherche>
 8002412:	f000 fb05 	bl	8002a20 <StopperAutonome>
 8002416:	4b1b      	ldr	r3, [pc, #108]	; (8002484 <LancerJeu+0x84>)
 8002418:	2200      	movs	r2, #0
 800241a:	4611      	mov	r1, r2
 800241c:	2506      	movs	r5, #6
 800241e:	2005      	movs	r0, #5
 8002420:	701d      	strb	r5, [r3, #0]
 8002422:	f002 f84d 	bl	80044c0 <playMelody>
 8002426:	f44f 707a 	mov.w	r0, #1000	; 0x3e8
 800242a:	f004 f849 	bl	80064c0 <chThdSleep>
 800242e:	f000 fab7 	bl	80029a0 <ResetObstacle>
 8002432:	4b15      	ldr	r3, [pc, #84]	; (8002488 <LancerJeu+0x88>)
 8002434:	f04f 6180 	mov.w	r1, #67108864	; 0x4000000
 8002438:	f04f 6200 	mov.w	r2, #134217728	; 0x8000000
 800243c:	f44f 0080 	mov.w	r0, #4194304	; 0x400000
 8002440:	f44f 1500 	mov.w	r5, #2097152	; 0x200000
 8002444:	619d      	str	r5, [r3, #24]
 8002446:	6198      	str	r0, [r3, #24]
 8002448:	6199      	str	r1, [r3, #24]
 800244a:	f241 3088 	movw	r0, #5000	; 0x1388
 800244e:	619a      	str	r2, [r3, #24]
 8002450:	f004 f836 	bl	80064c0 <chThdSleep>
 8002454:	f002 f90c 	bl	8004670 <clear_leds>
 8002458:	4b0c      	ldr	r3, [pc, #48]	; (800248c <LancerJeu+0x8c>)
 800245a:	2201      	movs	r2, #1
 800245c:	701a      	strb	r2, [r3, #0]
 800245e:	f000 fc17 	bl	8002c90 <InitMouvement>
 8002462:	f002 fd2d 	bl	8004ec0 <get_selector>
 8002466:	9a01      	ldr	r2, [sp, #4]
 8002468:	6823      	ldr	r3, [r4, #0]
 800246a:	4909      	ldr	r1, [pc, #36]	; (8002490 <LancerJeu+0x90>)
 800246c:	429a      	cmp	r2, r3
 800246e:	6008      	str	r0, [r1, #0]
 8002470:	d104      	bne.n	800247c <LancerJeu+0x7c>
 8002472:	b003      	add	sp, #12
 8002474:	e8bd 4030 	ldmia.w	sp!, {r4, r5, lr}
 8002478:	f000 bd3a 	b.w	8002ef0 <DebloquerMoteurs>
 800247c:	f000 f8e8 	bl	8002650 <__stack_chk_fail>
 8002480:	20000b00 	.word	0x20000b00
 8002484:	200015d8 	.word	0x200015d8
 8002488:	40020c00 	.word	0x40020c00
 800248c:	200015c4 	.word	0x200015c4
 8002490:	200015d4 	.word	0x200015d4
	...

080024a0 <main>:
 80024a0:	e92d 47f0 	stmdb	sp!, {r4, r5, r6, r7, r8, r9, sl, lr}
 80024a4:	4b5a      	ldr	r3, [pc, #360]	; (8002610 <main+0x170>)
 80024a6:	4f5b      	ldr	r7, [pc, #364]	; (8002614 <main+0x174>)
 80024a8:	681b      	ldr	r3, [r3, #0]
 80024aa:	4d5b      	ldr	r5, [pc, #364]	; (8002618 <main+0x178>)
 80024ac:	f8df a198 	ldr.w	sl, [pc, #408]	; 8002648 <main+0x1a8>
 80024b0:	f8df 8198 	ldr.w	r8, [pc, #408]	; 800264c <main+0x1ac>
 80024b4:	b0a2      	sub	sp, #136	; 0x88
 80024b6:	9321      	str	r3, [sp, #132]	; 0x84
 80024b8:	f005 fb2a 	bl	8007b10 <halInit>
 80024bc:	f003 f9c0 	bl	8005840 <chSysInit>
 80024c0:	f002 f94e 	bl	8004760 <mpu_init>
 80024c4:	4955      	ldr	r1, [pc, #340]	; (800261c <main+0x17c>)
 80024c6:	4856      	ldr	r0, [pc, #344]	; (8002620 <main+0x180>)
 80024c8:	f006 ffd2 	bl	8009470 <sdStart>
 80024cc:	f002 ff90 	bl	80053f0 <usb_start>
 80024d0:	4954      	ldr	r1, [pc, #336]	; (8002624 <main+0x184>)
 80024d2:	4855      	ldr	r0, [pc, #340]	; (8002628 <main+0x188>)
 80024d4:	f005 fefc 	bl	80082d0 <gptStart>
 80024d8:	f64f 71ff 	movw	r1, #65535	; 0xffff
 80024dc:	4852      	ldr	r0, [pc, #328]	; (8002628 <main+0x188>)
 80024de:	f005 ffa7 	bl	8008430 <gptStartContinuous>
 80024e2:	f002 fc75 	bl	8004dd0 <motors_init>
 80024e6:	4a51      	ldr	r2, [pc, #324]	; (800262c <main+0x18c>)
 80024e8:	4951      	ldr	r1, [pc, #324]	; (8002630 <main+0x190>)
 80024ea:	4852      	ldr	r0, [pc, #328]	; (8002634 <main+0x194>)
 80024ec:	f003 f878 	bl	80055e0 <messagebus_init>
 80024f0:	f002 fe86 	bl	8005200 <proximity_start>
 80024f4:	f002 fed4 	bl	80052a0 <calibrate_ir>
 80024f8:	f001 fb82 	bl	8003c00 <dac_start>
 80024fc:	f001 ffc0 	bl	8004480 <playMelodyStart>
 8002500:	2064      	movs	r0, #100	; 0x64
 8002502:	f003 ffdd 	bl	80064c0 <chThdSleep>
 8002506:	f000 fa13 	bl	8002930 <ObstacleInit>
 800250a:	f7ff ff79 	bl	8002400 <LancerJeu>
 800250e:	484a      	ldr	r0, [pc, #296]	; (8002638 <main+0x198>)
 8002510:	f001 fc36 	bl	8003d80 <mic_start>
 8002514:	4949      	ldr	r1, [pc, #292]	; (800263c <main+0x19c>)
 8002516:	4847      	ldr	r0, [pc, #284]	; (8002634 <main+0x194>)
 8002518:	f003 f8d2 	bl	80056c0 <messagebus_find_topic_blocking>
 800251c:	4606      	mov	r6, r0
 800251e:	f04f 0900 	mov.w	r9, #0
 8002522:	2280      	movs	r2, #128	; 0x80
 8002524:	a901      	add	r1, sp, #4
 8002526:	4630      	mov	r0, r6
 8002528:	f003 f932 	bl	8005790 <messagebus_topic_wait>
 800252c:	f002 fcc8 	bl	8004ec0 <get_selector>
 8002530:	683b      	ldr	r3, [r7, #0]
 8002532:	4298      	cmp	r0, r3
 8002534:	d001      	beq.n	800253a <main+0x9a>
 8002536:	f7ff ff63 	bl	8002400 <LancerJeu>
 800253a:	f001 f801 	bl	8003540 <TestRecherche>
 800253e:	782b      	ldrb	r3, [r5, #0]
 8002540:	4604      	mov	r4, r0
 8002542:	b1b0      	cbz	r0, 8002572 <main+0xd2>
 8002544:	2b00      	cmp	r3, #0
 8002546:	d0ec      	beq.n	8002522 <main+0x82>
 8002548:	f000 fa4a 	bl	80029e0 <LancerAutonome>
 800254c:	f44f 1000 	mov.w	r0, #2097152	; 0x200000
 8002550:	f44f 0180 	mov.w	r1, #4194304	; 0x400000
 8002554:	f04f 6280 	mov.w	r2, #67108864	; 0x4000000
 8002558:	f04f 6300 	mov.w	r3, #134217728	; 0x8000000
 800255c:	f885 9000 	strb.w	r9, [r5]
 8002560:	f8c8 0018 	str.w	r0, [r8, #24]
 8002564:	f8c8 1018 	str.w	r1, [r8, #24]
 8002568:	f8c8 2018 	str.w	r2, [r8, #24]
 800256c:	f8c8 3018 	str.w	r3, [r8, #24]
 8002570:	e7d7      	b.n	8002522 <main+0x82>
 8002572:	2b00      	cmp	r3, #0
 8002574:	d0d5      	beq.n	8002522 <main+0x82>
 8002576:	f000 fc83 	bl	8002e80 <GetPosition>
 800257a:	2200      	movs	r2, #0
 800257c:	4b30      	ldr	r3, [pc, #192]	; (8002640 <main+0x1a0>)
 800257e:	ec51 0b10 	vmov	r0, r1, d0
 8002582:	f7ff fa21 	bl	80019c8 <__aeabi_dcmpge>
 8002586:	b110      	cbz	r0, 800258e <main+0xee>
 8002588:	f89a 3000 	ldrb.w	r3, [sl]
 800258c:	b9eb      	cbnz	r3, 80025ca <main+0x12a>
 800258e:	f000 f9ef 	bl	8002970 <GetObstacle>
 8002592:	2800      	cmp	r0, #0
 8002594:	d0c3      	beq.n	800251e <main+0x7e>
 8002596:	f89a 3000 	ldrb.w	r3, [sl]
 800259a:	2b00      	cmp	r3, #0
 800259c:	d0bf      	beq.n	800251e <main+0x7e>
 800259e:	3b01      	subs	r3, #1
 80025a0:	f88a 3000 	strb.w	r3, [sl]
 80025a4:	f000 f9fc 	bl	80029a0 <ResetObstacle>
 80025a8:	f89a 4000 	ldrb.w	r4, [sl]
 80025ac:	bb2c      	cbnz	r4, 80025fa <main+0x15a>
 80025ae:	f001 ffcf 	bl	8004550 <stopCurrentMelody>
 80025b2:	f001 ffe5 	bl	8004580 <waitMelodyHasFinished>
 80025b6:	4622      	mov	r2, r4
 80025b8:	4621      	mov	r1, r4
 80025ba:	2006      	movs	r0, #6
 80025bc:	f001 ff80 	bl	80044c0 <playMelody>
 80025c0:	f241 3088 	movw	r0, #5000	; 0x1388
 80025c4:	f003 ff7c 	bl	80064c0 <chThdSleep>
 80025c8:	e7a9      	b.n	800251e <main+0x7e>
 80025ca:	4622      	mov	r2, r4
 80025cc:	4621      	mov	r1, r4
 80025ce:	2007      	movs	r0, #7
 80025d0:	f001 ff76 	bl	80044c0 <playMelody>
 80025d4:	f44f 1000 	mov.w	r0, #2097152	; 0x200000
 80025d8:	f44f 0180 	mov.w	r1, #4194304	; 0x400000
 80025dc:	f04f 6280 	mov.w	r2, #67108864	; 0x4000000
 80025e0:	f04f 6300 	mov.w	r3, #134217728	; 0x8000000
 80025e4:	f8c8 0018 	str.w	r0, [r8, #24]
 80025e8:	f8c8 1018 	str.w	r1, [r8, #24]
 80025ec:	f8c8 2018 	str.w	r2, [r8, #24]
 80025f0:	f8c8 3018 	str.w	r3, [r8, #24]
 80025f4:	f88a 4000 	strb.w	r4, [sl]
 80025f8:	e7c9      	b.n	800258e <main+0xee>
 80025fa:	f001 ffa9 	bl	8004550 <stopCurrentMelody>
 80025fe:	f001 ffbf 	bl	8004580 <waitMelodyHasFinished>
 8002602:	4a10      	ldr	r2, [pc, #64]	; (8002644 <main+0x1a4>)
 8002604:	2100      	movs	r1, #0
 8002606:	200f      	movs	r0, #15
 8002608:	f001 ff5a 	bl	80044c0 <playMelody>
 800260c:	e7d8      	b.n	80025c0 <main+0x120>
 800260e:	bf00      	nop
 8002610:	20000b00 	.word	0x20000b00
 8002614:	200015d4 	.word	0x200015d4
 8002618:	200015c4 	.word	0x200015c4
 800261c:	20000b20 	.word	0x20000b20
 8002620:	200108a4 	.word	0x200108a4
 8002624:	08014c60 	.word	0x08014c60
 8002628:	20010814 	.word	0x20010814
 800262c:	20000b04 	.word	0x20000b04
 8002630:	20000b0c 	.word	0x20000b0c
 8002634:	200015c8 	.word	0x200015c8
 8002638:	08003281 	.word	0x08003281
 800263c:	08014c90 	.word	0x08014c90
 8002640:	40590000 	.word	0x40590000
 8002644:	08014ca0 	.word	0x08014ca0
 8002648:	200015d8 	.word	0x200015d8
 800264c:	40020c00 	.word	0x40020c00

08002650 <__stack_chk_fail>:
 8002650:	b500      	push	{lr}
 8002652:	4b08      	ldr	r3, [pc, #32]	; (8002674 <__stack_chk_fail+0x24>)
 8002654:	b083      	sub	sp, #12
 8002656:	681a      	ldr	r2, [r3, #0]
 8002658:	9201      	str	r2, [sp, #4]
 800265a:	9a01      	ldr	r2, [sp, #4]
 800265c:	681b      	ldr	r3, [r3, #0]
 800265e:	429a      	cmp	r2, r3
 8002660:	d105      	bne.n	800266e <__stack_chk_fail+0x1e>
 8002662:	4805      	ldr	r0, [pc, #20]	; (8002678 <__stack_chk_fail+0x28>)
 8002664:	b003      	add	sp, #12
 8002666:	f85d eb04 	ldr.w	lr, [sp], #4
 800266a:	f003 b951 	b.w	8005910 <chSysHalt>
 800266e:	f7ff ffef 	bl	8002650 <__stack_chk_fail>
 8002672:	bf00      	nop
 8002674:	20000b00 	.word	0x20000b00
 8002678:	08014c40 	.word	0x08014c40
 800267c:	00000000 	.word	0x00000000

08002680 <doFFT_optimized>:
 8002680:	b500      	push	{lr}
 8002682:	4b0d      	ldr	r3, [pc, #52]	; (80026b8 <doFFT_optimized+0x38>)
 8002684:	b083      	sub	sp, #12
 8002686:	681a      	ldr	r2, [r3, #0]
 8002688:	9201      	str	r2, [sp, #4]
 800268a:	f5b0 6f80 	cmp.w	r0, #1024	; 0x400
 800268e:	9a01      	ldr	r2, [sp, #4]
 8002690:	681b      	ldr	r3, [r3, #0]
 8002692:	d004      	beq.n	800269e <doFFT_optimized+0x1e>
 8002694:	429a      	cmp	r2, r3
 8002696:	d10c      	bne.n	80026b2 <doFFT_optimized+0x32>
 8002698:	b003      	add	sp, #12
 800269a:	f85d fb04 	ldr.w	pc, [sp], #4
 800269e:	429a      	cmp	r2, r3
 80026a0:	d107      	bne.n	80026b2 <doFFT_optimized+0x32>
 80026a2:	4806      	ldr	r0, [pc, #24]	; (80026bc <doFFT_optimized+0x3c>)
 80026a4:	2301      	movs	r3, #1
 80026a6:	2200      	movs	r2, #0
 80026a8:	b003      	add	sp, #12
 80026aa:	f85d eb04 	ldr.w	lr, [sp], #4
 80026ae:	f00e b9a7 	b.w	8010a00 <arm_cfft_f32>
 80026b2:	f7ff ffcd 	bl	8002650 <__stack_chk_fail>
 80026b6:	bf00      	nop
 80026b8:	20000b00 	.word	0x20000b00
 80026bc:	08014cb0 	.word	0x08014cb0

080026c0 <PlusProcheObstacle>:
 80026c0:	b5f0      	push	{r4, r5, r6, r7, lr}
 80026c2:	4f0f      	ldr	r7, [pc, #60]	; (8002700 <PlusProcheObstacle+0x40>)
 80026c4:	b083      	sub	sp, #12
 80026c6:	683b      	ldr	r3, [r7, #0]
 80026c8:	9301      	str	r3, [sp, #4]
 80026ca:	2400      	movs	r4, #0
 80026cc:	2608      	movs	r6, #8
 80026ce:	25c8      	movs	r5, #200	; 0xc8
 80026d0:	4620      	mov	r0, r4
 80026d2:	f002 fe05 	bl	80052e0 <get_calibrated_prox>
 80026d6:	2800      	cmp	r0, #0
 80026d8:	bfb8      	it	lt
 80026da:	4240      	neglt	r0, r0
 80026dc:	42a8      	cmp	r0, r5
 80026de:	b2e3      	uxtb	r3, r4
 80026e0:	f104 0401 	add.w	r4, r4, #1
 80026e4:	bfc4      	itt	gt
 80026e6:	461e      	movgt	r6, r3
 80026e8:	4605      	movgt	r5, r0
 80026ea:	2c08      	cmp	r4, #8
 80026ec:	d1f0      	bne.n	80026d0 <PlusProcheObstacle+0x10>
 80026ee:	9a01      	ldr	r2, [sp, #4]
 80026f0:	683b      	ldr	r3, [r7, #0]
 80026f2:	429a      	cmp	r2, r3
 80026f4:	4630      	mov	r0, r6
 80026f6:	d101      	bne.n	80026fc <PlusProcheObstacle+0x3c>
 80026f8:	b003      	add	sp, #12
 80026fa:	bdf0      	pop	{r4, r5, r6, r7, pc}
 80026fc:	f7ff ffa8 	bl	8002650 <__stack_chk_fail>
 8002700:	20000b00 	.word	0x20000b00
	...

08002710 <TestObstacle>:
 8002710:	b530      	push	{r4, r5, lr}
 8002712:	4d0d      	ldr	r5, [pc, #52]	; (8002748 <TestObstacle+0x38>)
 8002714:	b083      	sub	sp, #12
 8002716:	682b      	ldr	r3, [r5, #0]
 8002718:	9301      	str	r3, [sp, #4]
 800271a:	2400      	movs	r4, #0
 800271c:	4620      	mov	r0, r4
 800271e:	f002 fddf 	bl	80052e0 <get_calibrated_prox>
 8002722:	2800      	cmp	r0, #0
 8002724:	bfb8      	it	lt
 8002726:	4240      	neglt	r0, r0
 8002728:	28c8      	cmp	r0, #200	; 0xc8
 800272a:	dc09      	bgt.n	8002740 <TestObstacle+0x30>
 800272c:	3401      	adds	r4, #1
 800272e:	2c08      	cmp	r4, #8
 8002730:	d1f4      	bne.n	800271c <TestObstacle+0xc>
 8002732:	2000      	movs	r0, #0
 8002734:	9a01      	ldr	r2, [sp, #4]
 8002736:	682b      	ldr	r3, [r5, #0]
 8002738:	429a      	cmp	r2, r3
 800273a:	d103      	bne.n	8002744 <TestObstacle+0x34>
 800273c:	b003      	add	sp, #12
 800273e:	bd30      	pop	{r4, r5, pc}
 8002740:	2001      	movs	r0, #1
 8002742:	e7f7      	b.n	8002734 <TestObstacle+0x24>
 8002744:	f7ff ff84 	bl	8002650 <__stack_chk_fail>
 8002748:	20000b00 	.word	0x20000b00
 800274c:	00000000 	.word	0x00000000

08002750 <DeplacementAutonome>:
 8002750:	b530      	push	{r4, r5, lr}
 8002752:	4d59      	ldr	r5, [pc, #356]	; (80028b8 <DeplacementAutonome+0x168>)
 8002754:	4c59      	ldr	r4, [pc, #356]	; (80028bc <DeplacementAutonome+0x16c>)
 8002756:	f995 3000 	ldrsb.w	r3, [r5]
 800275a:	6822      	ldr	r2, [r4, #0]
 800275c:	b083      	sub	sp, #12
 800275e:	9201      	str	r2, [sp, #4]
 8002760:	2b03      	cmp	r3, #3
 8002762:	d810      	bhi.n	8002786 <DeplacementAutonome+0x36>
 8002764:	e8df f003 	tbb	[pc, r3]
 8002768:	16022d3b 	.word	0x16022d3b
 800276c:	f44f 7048 	mov.w	r0, #800	; 0x320
 8002770:	f000 fbd6 	bl	8002f20 <TestFinSteps>
 8002774:	b138      	cbz	r0, 8002786 <DeplacementAutonome+0x36>
 8002776:	4b52      	ldr	r3, [pc, #328]	; (80028c0 <DeplacementAutonome+0x170>)
 8002778:	781b      	ldrb	r3, [r3, #0]
 800277a:	2b00      	cmp	r3, #0
 800277c:	d056      	beq.n	800282c <DeplacementAutonome+0xdc>
 800277e:	f000 fb1f 	bl	8002dc0 <TournerGauche>
 8002782:	2303      	movs	r3, #3
 8002784:	702b      	strb	r3, [r5, #0]
 8002786:	9a01      	ldr	r2, [sp, #4]
 8002788:	6823      	ldr	r3, [r4, #0]
 800278a:	429a      	cmp	r2, r3
 800278c:	f040 8092 	bne.w	80028b4 <DeplacementAutonome+0x164>
 8002790:	b003      	add	sp, #12
 8002792:	bd30      	pop	{r4, r5, pc}
 8002794:	4b4b      	ldr	r3, [pc, #300]	; (80028c4 <DeplacementAutonome+0x174>)
 8002796:	781b      	ldrb	r3, [r3, #0]
 8002798:	2b00      	cmp	r3, #0
 800279a:	d03b      	beq.n	8002814 <DeplacementAutonome+0xc4>
 800279c:	f44f 70a2 	mov.w	r0, #324	; 0x144
 80027a0:	f000 fbbe 	bl	8002f20 <TestFinSteps>
 80027a4:	2800      	cmp	r0, #0
 80027a6:	d0ee      	beq.n	8002786 <DeplacementAutonome+0x36>
 80027a8:	f000 faa2 	bl	8002cf0 <AllerToutDroit>
 80027ac:	9a01      	ldr	r2, [sp, #4]
 80027ae:	6823      	ldr	r3, [r4, #0]
 80027b0:	2100      	movs	r1, #0
 80027b2:	429a      	cmp	r2, r3
 80027b4:	7029      	strb	r1, [r5, #0]
 80027b6:	d17d      	bne.n	80028b4 <DeplacementAutonome+0x164>
 80027b8:	b003      	add	sp, #12
 80027ba:	e8bd 4030 	ldmia.w	sp!, {r4, r5, lr}
 80027be:	f000 be8f 	b.w	80034e0 <DebloquerAudio>
 80027c2:	4b40      	ldr	r3, [pc, #256]	; (80028c4 <DeplacementAutonome+0x174>)
 80027c4:	781b      	ldrb	r3, [r3, #0]
 80027c6:	b35b      	cbz	r3, 8002820 <DeplacementAutonome+0xd0>
 80027c8:	f44f 70a2 	mov.w	r0, #324	; 0x144
 80027cc:	f000 fba8 	bl	8002f20 <TestFinSteps>
 80027d0:	2800      	cmp	r0, #0
 80027d2:	d0d8      	beq.n	8002786 <DeplacementAutonome+0x36>
 80027d4:	f000 fa8c 	bl	8002cf0 <AllerToutDroit>
 80027d8:	2302      	movs	r3, #2
 80027da:	702b      	strb	r3, [r5, #0]
 80027dc:	e7d3      	b.n	8002786 <DeplacementAutonome+0x36>
 80027de:	f7ff ff97 	bl	8002710 <TestObstacle>
 80027e2:	2800      	cmp	r0, #0
 80027e4:	d0cf      	beq.n	8002786 <DeplacementAutonome+0x36>
 80027e6:	f7ff ff6b 	bl	80026c0 <PlusProcheObstacle>
 80027ea:	2807      	cmp	r0, #7
 80027ec:	d8cb      	bhi.n	8002786 <DeplacementAutonome+0x36>
 80027ee:	a301      	add	r3, pc, #4	; (adr r3, 80027f4 <DeplacementAutonome+0xa4>)
 80027f0:	f853 f020 	ldr.w	pc, [r3, r0, lsl #2]
 80027f4:	08002895 	.word	0x08002895
 80027f8:	08002875 	.word	0x08002875
 80027fc:	08002787 	.word	0x08002787
 8002800:	08002787 	.word	0x08002787
 8002804:	08002787 	.word	0x08002787
 8002808:	08002787 	.word	0x08002787
 800280c:	08002855 	.word	0x08002855
 8002810:	08002837 	.word	0x08002837
 8002814:	20a2      	movs	r0, #162	; 0xa2
 8002816:	f000 fb83 	bl	8002f20 <TestFinSteps>
 800281a:	2800      	cmp	r0, #0
 800281c:	d0b3      	beq.n	8002786 <DeplacementAutonome+0x36>
 800281e:	e7c3      	b.n	80027a8 <DeplacementAutonome+0x58>
 8002820:	20a2      	movs	r0, #162	; 0xa2
 8002822:	f000 fb7d 	bl	8002f20 <TestFinSteps>
 8002826:	2800      	cmp	r0, #0
 8002828:	d0ad      	beq.n	8002786 <DeplacementAutonome+0x36>
 800282a:	e7d3      	b.n	80027d4 <DeplacementAutonome+0x84>
 800282c:	f000 faf8 	bl	8002e20 <TournerDroite>
 8002830:	2303      	movs	r3, #3
 8002832:	702b      	strb	r3, [r5, #0]
 8002834:	e7a7      	b.n	8002786 <DeplacementAutonome+0x36>
 8002836:	f44f 7016 	mov.w	r0, #600	; 0x258
 800283a:	f000 fa09 	bl	8002c50 <SetVitesse>
 800283e:	f000 fe37 	bl	80034b0 <BloquerAudio>
 8002842:	f000 faed 	bl	8002e20 <TournerDroite>
 8002846:	491e      	ldr	r1, [pc, #120]	; (80028c0 <DeplacementAutonome+0x170>)
 8002848:	4a1e      	ldr	r2, [pc, #120]	; (80028c4 <DeplacementAutonome+0x174>)
 800284a:	2301      	movs	r3, #1
 800284c:	700b      	strb	r3, [r1, #0]
 800284e:	702b      	strb	r3, [r5, #0]
 8002850:	7013      	strb	r3, [r2, #0]
 8002852:	e798      	b.n	8002786 <DeplacementAutonome+0x36>
 8002854:	f44f 7016 	mov.w	r0, #600	; 0x258
 8002858:	f000 f9fa 	bl	8002c50 <SetVitesse>
 800285c:	f000 fe28 	bl	80034b0 <BloquerAudio>
 8002860:	f000 fade 	bl	8002e20 <TournerDroite>
 8002864:	4816      	ldr	r0, [pc, #88]	; (80028c0 <DeplacementAutonome+0x170>)
 8002866:	4a17      	ldr	r2, [pc, #92]	; (80028c4 <DeplacementAutonome+0x174>)
 8002868:	2301      	movs	r3, #1
 800286a:	2100      	movs	r1, #0
 800286c:	7003      	strb	r3, [r0, #0]
 800286e:	702b      	strb	r3, [r5, #0]
 8002870:	7011      	strb	r1, [r2, #0]
 8002872:	e788      	b.n	8002786 <DeplacementAutonome+0x36>
 8002874:	f44f 7016 	mov.w	r0, #600	; 0x258
 8002878:	f000 f9ea 	bl	8002c50 <SetVitesse>
 800287c:	f000 fe18 	bl	80034b0 <BloquerAudio>
 8002880:	f000 fa9e 	bl	8002dc0 <TournerGauche>
 8002884:	480e      	ldr	r0, [pc, #56]	; (80028c0 <DeplacementAutonome+0x170>)
 8002886:	490f      	ldr	r1, [pc, #60]	; (80028c4 <DeplacementAutonome+0x174>)
 8002888:	2300      	movs	r3, #0
 800288a:	2201      	movs	r2, #1
 800288c:	7003      	strb	r3, [r0, #0]
 800288e:	700b      	strb	r3, [r1, #0]
 8002890:	702a      	strb	r2, [r5, #0]
 8002892:	e778      	b.n	8002786 <DeplacementAutonome+0x36>
 8002894:	f44f 7016 	mov.w	r0, #600	; 0x258
 8002898:	f000 f9da 	bl	8002c50 <SetVitesse>
 800289c:	f000 fe08 	bl	80034b0 <BloquerAudio>
 80028a0:	f000 fa8e 	bl	8002dc0 <TournerGauche>
 80028a4:	4906      	ldr	r1, [pc, #24]	; (80028c0 <DeplacementAutonome+0x170>)
 80028a6:	4a07      	ldr	r2, [pc, #28]	; (80028c4 <DeplacementAutonome+0x174>)
 80028a8:	2301      	movs	r3, #1
 80028aa:	2000      	movs	r0, #0
 80028ac:	7008      	strb	r0, [r1, #0]
 80028ae:	7013      	strb	r3, [r2, #0]
 80028b0:	702b      	strb	r3, [r5, #0]
 80028b2:	e768      	b.n	8002786 <DeplacementAutonome+0x36>
 80028b4:	f7ff fecc 	bl	8002650 <__stack_chk_fail>
 80028b8:	20000b2c 	.word	0x20000b2c
 80028bc:	20000b00 	.word	0x20000b00
 80028c0:	200015db 	.word	0x200015db
 80028c4:	200015dc 	.word	0x200015dc
	...

080028d0 <ObstacleThd>:
 80028d0:	b580      	push	{r7, lr}
 80028d2:	4a11      	ldr	r2, [pc, #68]	; (8002918 <ObstacleThd+0x48>)
 80028d4:	4b11      	ldr	r3, [pc, #68]	; (800291c <ObstacleThd+0x4c>)
 80028d6:	6992      	ldr	r2, [r2, #24]
 80028d8:	4911      	ldr	r1, [pc, #68]	; (8002920 <ObstacleThd+0x50>)
 80028da:	681b      	ldr	r3, [r3, #0]
 80028dc:	4d11      	ldr	r5, [pc, #68]	; (8002924 <ObstacleThd+0x54>)
 80028de:	4c12      	ldr	r4, [pc, #72]	; (8002928 <ObstacleThd+0x58>)
 80028e0:	4f12      	ldr	r7, [pc, #72]	; (800292c <ObstacleThd+0x5c>)
 80028e2:	6191      	str	r1, [r2, #24]
 80028e4:	b082      	sub	sp, #8
 80028e6:	2601      	movs	r6, #1
 80028e8:	9301      	str	r3, [sp, #4]
 80028ea:	782b      	ldrb	r3, [r5, #0]
 80028ec:	b94b      	cbnz	r3, 8002902 <ObstacleThd+0x32>
 80028ee:	7822      	ldrb	r2, [r4, #0]
 80028f0:	f241 3088 	movw	r0, #5000	; 0x1388
 80028f4:	b142      	cbz	r2, 8002908 <ObstacleThd+0x38>
 80028f6:	7023      	strb	r3, [r4, #0]
 80028f8:	f003 fde2 	bl	80064c0 <chThdSleep>
 80028fc:	782b      	ldrb	r3, [r5, #0]
 80028fe:	2b00      	cmp	r3, #0
 8002900:	d0f5      	beq.n	80028ee <ObstacleThd+0x1e>
 8002902:	f7ff ff25 	bl	8002750 <DeplacementAutonome>
 8002906:	e7f0      	b.n	80028ea <ObstacleThd+0x1a>
 8002908:	f7ff ff02 	bl	8002710 <TestObstacle>
 800290c:	2800      	cmp	r0, #0
 800290e:	bf18      	it	ne
 8002910:	4630      	movne	r0, r6
 8002912:	7038      	strb	r0, [r7, #0]
 8002914:	e7e9      	b.n	80028ea <ObstacleThd+0x1a>
 8002916:	bf00      	nop
 8002918:	2000fa70 	.word	0x2000fa70
 800291c:	20000b00 	.word	0x20000b00
 8002920:	08014cc0 	.word	0x08014cc0
 8002924:	200015d9 	.word	0x200015d9
 8002928:	200015da 	.word	0x200015da
 800292c:	200015dd 	.word	0x200015dd

08002930 <ObstacleInit>:
 8002930:	b510      	push	{r4, lr}
 8002932:	4c0a      	ldr	r4, [pc, #40]	; (800295c <ObstacleInit+0x2c>)
 8002934:	4b0a      	ldr	r3, [pc, #40]	; (8002960 <ObstacleInit+0x30>)
 8002936:	6822      	ldr	r2, [r4, #0]
 8002938:	480a      	ldr	r0, [pc, #40]	; (8002964 <ObstacleInit+0x34>)
 800293a:	b084      	sub	sp, #16
 800293c:	f44f 71fc 	mov.w	r1, #504	; 0x1f8
 8002940:	9203      	str	r2, [sp, #12]
 8002942:	2200      	movs	r2, #0
 8002944:	9200      	str	r2, [sp, #0]
 8002946:	2240      	movs	r2, #64	; 0x40
 8002948:	f003 fd62 	bl	8006410 <chThdCreateStatic>
 800294c:	9a03      	ldr	r2, [sp, #12]
 800294e:	6823      	ldr	r3, [r4, #0]
 8002950:	429a      	cmp	r2, r3
 8002952:	d101      	bne.n	8002958 <ObstacleInit+0x28>
 8002954:	b004      	add	sp, #16
 8002956:	bd10      	pop	{r4, pc}
 8002958:	f7ff fe7a 	bl	8002650 <__stack_chk_fail>
 800295c:	20000b00 	.word	0x20000b00
 8002960:	080028d1 	.word	0x080028d1
 8002964:	200015e0 	.word	0x200015e0
	...

08002970 <GetObstacle>:
 8002970:	b500      	push	{lr}
 8002972:	4b07      	ldr	r3, [pc, #28]	; (8002990 <GetObstacle+0x20>)
 8002974:	4907      	ldr	r1, [pc, #28]	; (8002994 <GetObstacle+0x24>)
 8002976:	681a      	ldr	r2, [r3, #0]
 8002978:	7808      	ldrb	r0, [r1, #0]
 800297a:	b083      	sub	sp, #12
 800297c:	9201      	str	r2, [sp, #4]
 800297e:	9a01      	ldr	r2, [sp, #4]
 8002980:	681b      	ldr	r3, [r3, #0]
 8002982:	429a      	cmp	r2, r3
 8002984:	d102      	bne.n	800298c <GetObstacle+0x1c>
 8002986:	b003      	add	sp, #12
 8002988:	f85d fb04 	ldr.w	pc, [sp], #4
 800298c:	f7ff fe60 	bl	8002650 <__stack_chk_fail>
 8002990:	20000b00 	.word	0x20000b00
 8002994:	200015dd 	.word	0x200015dd
	...

080029a0 <ResetObstacle>:
 80029a0:	b530      	push	{r4, r5, lr}
 80029a2:	4b09      	ldr	r3, [pc, #36]	; (80029c8 <ResetObstacle+0x28>)
 80029a4:	4c09      	ldr	r4, [pc, #36]	; (80029cc <ResetObstacle+0x2c>)
 80029a6:	681a      	ldr	r2, [r3, #0]
 80029a8:	4909      	ldr	r1, [pc, #36]	; (80029d0 <ResetObstacle+0x30>)
 80029aa:	b083      	sub	sp, #12
 80029ac:	2500      	movs	r5, #0
 80029ae:	9201      	str	r2, [sp, #4]
 80029b0:	9a01      	ldr	r2, [sp, #4]
 80029b2:	681b      	ldr	r3, [r3, #0]
 80029b4:	7025      	strb	r5, [r4, #0]
 80029b6:	2001      	movs	r0, #1
 80029b8:	429a      	cmp	r2, r3
 80029ba:	7008      	strb	r0, [r1, #0]
 80029bc:	d101      	bne.n	80029c2 <ResetObstacle+0x22>
 80029be:	b003      	add	sp, #12
 80029c0:	bd30      	pop	{r4, r5, pc}
 80029c2:	f7ff fe45 	bl	8002650 <__stack_chk_fail>
 80029c6:	bf00      	nop
 80029c8:	20000b00 	.word	0x20000b00
 80029cc:	200015dd 	.word	0x200015dd
 80029d0:	200015da 	.word	0x200015da
	...

080029e0 <LancerAutonome>:
 80029e0:	b530      	push	{r4, r5, lr}
 80029e2:	4b09      	ldr	r3, [pc, #36]	; (8002a08 <LancerAutonome+0x28>)
 80029e4:	4c09      	ldr	r4, [pc, #36]	; (8002a0c <LancerAutonome+0x2c>)
 80029e6:	681a      	ldr	r2, [r3, #0]
 80029e8:	4909      	ldr	r1, [pc, #36]	; (8002a10 <LancerAutonome+0x30>)
 80029ea:	b083      	sub	sp, #12
 80029ec:	2501      	movs	r5, #1
 80029ee:	9201      	str	r2, [sp, #4]
 80029f0:	9a01      	ldr	r2, [sp, #4]
 80029f2:	681b      	ldr	r3, [r3, #0]
 80029f4:	7025      	strb	r5, [r4, #0]
 80029f6:	2000      	movs	r0, #0
 80029f8:	429a      	cmp	r2, r3
 80029fa:	7008      	strb	r0, [r1, #0]
 80029fc:	d101      	bne.n	8002a02 <LancerAutonome+0x22>
 80029fe:	b003      	add	sp, #12
 8002a00:	bd30      	pop	{r4, r5, pc}
 8002a02:	f7ff fe25 	bl	8002650 <__stack_chk_fail>
 8002a06:	bf00      	nop
 8002a08:	20000b00 	.word	0x20000b00
 8002a0c:	200015d9 	.word	0x200015d9
 8002a10:	20000b2c 	.word	0x20000b2c
	...

08002a20 <StopperAutonome>:
 8002a20:	b530      	push	{r4, r5, lr}
 8002a22:	4c0a      	ldr	r4, [pc, #40]	; (8002a4c <StopperAutonome+0x2c>)
 8002a24:	4d0a      	ldr	r5, [pc, #40]	; (8002a50 <StopperAutonome+0x30>)
 8002a26:	6823      	ldr	r3, [r4, #0]
 8002a28:	b083      	sub	sp, #12
 8002a2a:	9301      	str	r3, [sp, #4]
 8002a2c:	f000 fd58 	bl	80034e0 <DebloquerAudio>
 8002a30:	f000 f8ee 	bl	8002c10 <StopperMoteurs>
 8002a34:	9901      	ldr	r1, [sp, #4]
 8002a36:	6822      	ldr	r2, [r4, #0]
 8002a38:	4806      	ldr	r0, [pc, #24]	; (8002a54 <StopperAutonome+0x34>)
 8002a3a:	2300      	movs	r3, #0
 8002a3c:	4291      	cmp	r1, r2
 8002a3e:	702b      	strb	r3, [r5, #0]
 8002a40:	7003      	strb	r3, [r0, #0]
 8002a42:	d101      	bne.n	8002a48 <StopperAutonome+0x28>
 8002a44:	b003      	add	sp, #12
 8002a46:	bd30      	pop	{r4, r5, pc}
 8002a48:	f7ff fe02 	bl	8002650 <__stack_chk_fail>
 8002a4c:	20000b00 	.word	0x20000b00
 8002a50:	20000b2c 	.word	0x20000b2c
 8002a54:	200015d9 	.word	0x200015d9
	...

08002a60 <Update>:
 8002a60:	e92d 47f0 	stmdb	sp!, {r4, r5, r6, r7, r8, r9, sl, lr}
 8002a64:	ed2d 8b02 	vpush	{d8}
 8002a68:	f8df a154 	ldr.w	sl, [pc, #340]	; 8002bc0 <Update+0x160>
 8002a6c:	4f4e      	ldr	r7, [pc, #312]	; (8002ba8 <Update+0x148>)
 8002a6e:	f8da 3000 	ldr.w	r3, [sl]
 8002a72:	b084      	sub	sp, #16
 8002a74:	9303      	str	r3, [sp, #12]
 8002a76:	f002 f963 	bl	8004d40 <right_motor_get_pos>
 8002a7a:	e9d7 4500 	ldrd	r4, r5, [r7]
 8002a7e:	4606      	mov	r6, r0
 8002a80:	a347      	add	r3, pc, #284	; (adr r3, 8002ba0 <Update+0x140>)
 8002a82:	e9d3 2300 	ldrd	r2, r3, [r3]
 8002a86:	4620      	mov	r0, r4
 8002a88:	4629      	mov	r1, r5
 8002a8a:	f7fe fd11 	bl	80014b0 <__aeabi_dmul>
 8002a8e:	ec41 0b10 	vmov	d0, r0, r1
 8002a92:	f00c f87d 	bl	800eb90 <cos>
 8002a96:	2e00      	cmp	r6, #0
 8002a98:	bfb8      	it	lt
 8002a9a:	4276      	neglt	r6, r6
 8002a9c:	ee07 6a90 	vmov	s15, r6
 8002aa0:	eeb8 8ae7 	vcvt.f32.s32	s16, s15
 8002aa4:	eddf 7a41 	vldr	s15, [pc, #260]	; 8002bac <Update+0x14c>
 8002aa8:	ee68 7a27 	vmul.f32	s15, s16, s15
 8002aac:	ec53 2b10 	vmov	r2, r3, d0
 8002ab0:	ee17 0a90 	vmov	r0, s15
 8002ab4:	e9cd 2300 	strd	r2, r3, [sp]
 8002ab8:	f7fe fc9e 	bl	80013f8 <__aeabi_f2d>
 8002abc:	e9dd 2300 	ldrd	r2, r3, [sp]
 8002ac0:	f7fe fcf6 	bl	80014b0 <__aeabi_dmul>
 8002ac4:	eddf 7a3a 	vldr	s15, [pc, #232]	; 8002bb0 <Update+0x150>
 8002ac8:	ee68 7a27 	vmul.f32	s15, s16, s15
 8002acc:	4680      	mov	r8, r0
 8002ace:	ee17 0a90 	vmov	r0, s15
 8002ad2:	4689      	mov	r9, r1
 8002ad4:	f7fe fc90 	bl	80013f8 <__aeabi_f2d>
 8002ad8:	4b36      	ldr	r3, [pc, #216]	; (8002bb4 <Update+0x154>)
 8002ada:	f993 3000 	ldrsb.w	r3, [r3]
 8002ade:	2b03      	cmp	r3, #3
 8002ae0:	d80d      	bhi.n	8002afe <Update+0x9e>
 8002ae2:	e8df f003 	tbb	[pc, r3]
 8002ae6:	3c46      	.short	0x3c46
 8002ae8:	0250      	.short	0x0250
 8002aea:	4602      	mov	r2, r0
 8002aec:	460b      	mov	r3, r1
 8002aee:	4620      	mov	r0, r4
 8002af0:	4629      	mov	r1, r5
 8002af2:	f7fe fb21 	bl	8001138 <__aeabi_dsub>
 8002af6:	4604      	mov	r4, r0
 8002af8:	460d      	mov	r5, r1
 8002afa:	e9c7 4500 	strd	r4, r5, [r7]
 8002afe:	2200      	movs	r2, #0
 8002b00:	4b2d      	ldr	r3, [pc, #180]	; (8002bb8 <Update+0x158>)
 8002b02:	4620      	mov	r0, r4
 8002b04:	4629      	mov	r1, r5
 8002b06:	f7fe ff69 	bl	80019dc <__aeabi_dcmpgt>
 8002b0a:	b148      	cbz	r0, 8002b20 <Update+0xc0>
 8002b0c:	4620      	mov	r0, r4
 8002b0e:	4629      	mov	r1, r5
 8002b10:	2200      	movs	r2, #0
 8002b12:	4b29      	ldr	r3, [pc, #164]	; (8002bb8 <Update+0x158>)
 8002b14:	f7fe fb10 	bl	8001138 <__aeabi_dsub>
 8002b18:	4604      	mov	r4, r0
 8002b1a:	460d      	mov	r5, r1
 8002b1c:	e9c7 4500 	strd	r4, r5, [r7]
 8002b20:	2200      	movs	r2, #0
 8002b22:	2300      	movs	r3, #0
 8002b24:	4620      	mov	r0, r4
 8002b26:	4629      	mov	r1, r5
 8002b28:	f7fe ff3a 	bl	80019a0 <__aeabi_dcmplt>
 8002b2c:	b138      	cbz	r0, 8002b3e <Update+0xde>
 8002b2e:	4622      	mov	r2, r4
 8002b30:	462b      	mov	r3, r5
 8002b32:	2000      	movs	r0, #0
 8002b34:	4920      	ldr	r1, [pc, #128]	; (8002bb8 <Update+0x158>)
 8002b36:	f7fe faff 	bl	8001138 <__aeabi_dsub>
 8002b3a:	e9c7 0100 	strd	r0, r1, [r7]
 8002b3e:	2000      	movs	r0, #0
 8002b40:	f002 f916 	bl	8004d70 <left_motor_set_pos>
 8002b44:	9a03      	ldr	r2, [sp, #12]
 8002b46:	f8da 3000 	ldr.w	r3, [sl]
 8002b4a:	429a      	cmp	r2, r3
 8002b4c:	d126      	bne.n	8002b9c <Update+0x13c>
 8002b4e:	2000      	movs	r0, #0
 8002b50:	b004      	add	sp, #16
 8002b52:	ecbd 8b02 	vpop	{d8}
 8002b56:	e8bd 47f0 	ldmia.w	sp!, {r4, r5, r6, r7, r8, r9, sl, lr}
 8002b5a:	f002 b921 	b.w	8004da0 <right_motor_set_pos>
 8002b5e:	4e17      	ldr	r6, [pc, #92]	; (8002bbc <Update+0x15c>)
 8002b60:	4642      	mov	r2, r8
 8002b62:	e9d6 0100 	ldrd	r0, r1, [r6]
 8002b66:	464b      	mov	r3, r9
 8002b68:	f7fe fae6 	bl	8001138 <__aeabi_dsub>
 8002b6c:	e9c6 0100 	strd	r0, r1, [r6]
 8002b70:	e7c5      	b.n	8002afe <Update+0x9e>
 8002b72:	4e12      	ldr	r6, [pc, #72]	; (8002bbc <Update+0x15c>)
 8002b74:	4642      	mov	r2, r8
 8002b76:	e9d6 0100 	ldrd	r0, r1, [r6]
 8002b7a:	464b      	mov	r3, r9
 8002b7c:	f7fe fade 	bl	800113c <__adddf3>
 8002b80:	e9c6 0100 	strd	r0, r1, [r6]
 8002b84:	e7bb      	b.n	8002afe <Update+0x9e>
 8002b86:	4602      	mov	r2, r0
 8002b88:	460b      	mov	r3, r1
 8002b8a:	4620      	mov	r0, r4
 8002b8c:	4629      	mov	r1, r5
 8002b8e:	f7fe fad5 	bl	800113c <__adddf3>
 8002b92:	4604      	mov	r4, r0
 8002b94:	460d      	mov	r5, r1
 8002b96:	e9c7 4500 	strd	r4, r5, [r7]
 8002b9a:	e7b0      	b.n	8002afe <Update+0x9e>
 8002b9c:	f7ff fd58 	bl	8002650 <__stack_chk_fail>
 8002ba0:	40000000 	.word	0x40000000
 8002ba4:	3f91d14e 	.word	0x3f91d14e
 8002ba8:	200017d8 	.word	0x200017d8
 8002bac:	3c54fdf4 	.word	0x3c54fdf4
 8002bb0:	3e8e2eb2 	.word	0x3e8e2eb2
 8002bb4:	20000b2d 	.word	0x20000b2d
 8002bb8:	40768000 	.word	0x40768000
 8002bbc:	200017e8 	.word	0x200017e8
 8002bc0:	20000b00 	.word	0x20000b00
	...

08002bd0 <StopperMoteurs.part.0>:
 8002bd0:	b510      	push	{r4, lr}
 8002bd2:	4c0c      	ldr	r4, [pc, #48]	; (8002c04 <StopperMoteurs.part.0+0x34>)
 8002bd4:	b082      	sub	sp, #8
 8002bd6:	6823      	ldr	r3, [r4, #0]
 8002bd8:	9301      	str	r3, [sp, #4]
 8002bda:	f7ff ff41 	bl	8002a60 <Update>
 8002bde:	4b0a      	ldr	r3, [pc, #40]	; (8002c08 <StopperMoteurs.part.0+0x38>)
 8002be0:	2204      	movs	r2, #4
 8002be2:	2000      	movs	r0, #0
 8002be4:	701a      	strb	r2, [r3, #0]
 8002be6:	f002 f863 	bl	8004cb0 <left_motor_set_speed>
 8002bea:	9a01      	ldr	r2, [sp, #4]
 8002bec:	6823      	ldr	r3, [r4, #0]
 8002bee:	429a      	cmp	r2, r3
 8002bf0:	d105      	bne.n	8002bfe <StopperMoteurs.part.0+0x2e>
 8002bf2:	2000      	movs	r0, #0
 8002bf4:	b002      	add	sp, #8
 8002bf6:	e8bd 4010 	ldmia.w	sp!, {r4, lr}
 8002bfa:	f002 b871 	b.w	8004ce0 <right_motor_set_speed>
 8002bfe:	f7ff fd27 	bl	8002650 <__stack_chk_fail>
 8002c02:	bf00      	nop
 8002c04:	20000b00 	.word	0x20000b00
 8002c08:	20000b2d 	.word	0x20000b2d
 8002c0c:	00000000 	.word	0x00000000

08002c10 <StopperMoteurs>:
 8002c10:	b500      	push	{lr}
 8002c12:	4a0c      	ldr	r2, [pc, #48]	; (8002c44 <StopperMoteurs+0x34>)
 8002c14:	4b0c      	ldr	r3, [pc, #48]	; (8002c48 <StopperMoteurs+0x38>)
 8002c16:	f992 2000 	ldrsb.w	r2, [r2]
 8002c1a:	6819      	ldr	r1, [r3, #0]
 8002c1c:	b083      	sub	sp, #12
 8002c1e:	2a04      	cmp	r2, #4
 8002c20:	9101      	str	r1, [sp, #4]
 8002c22:	9a01      	ldr	r2, [sp, #4]
 8002c24:	681b      	ldr	r3, [r3, #0]
 8002c26:	d006      	beq.n	8002c36 <StopperMoteurs+0x26>
 8002c28:	429a      	cmp	r2, r3
 8002c2a:	d109      	bne.n	8002c40 <StopperMoteurs+0x30>
 8002c2c:	b003      	add	sp, #12
 8002c2e:	f85d eb04 	ldr.w	lr, [sp], #4
 8002c32:	f7ff bfcd 	b.w	8002bd0 <StopperMoteurs.part.0>
 8002c36:	429a      	cmp	r2, r3
 8002c38:	d102      	bne.n	8002c40 <StopperMoteurs+0x30>
 8002c3a:	b003      	add	sp, #12
 8002c3c:	f85d fb04 	ldr.w	pc, [sp], #4
 8002c40:	f7ff fd06 	bl	8002650 <__stack_chk_fail>
 8002c44:	20000b2d 	.word	0x20000b2d
 8002c48:	20000b00 	.word	0x20000b00
 8002c4c:	00000000 	.word	0x00000000

08002c50 <SetVitesse>:
 8002c50:	b500      	push	{lr}
 8002c52:	4b0a      	ldr	r3, [pc, #40]	; (8002c7c <SetVitesse+0x2c>)
 8002c54:	b083      	sub	sp, #12
 8002c56:	681a      	ldr	r2, [r3, #0]
 8002c58:	9201      	str	r2, [sp, #4]
 8002c5a:	f5b0 7f16 	cmp.w	r0, #600	; 0x258
 8002c5e:	4a08      	ldr	r2, [pc, #32]	; (8002c80 <SetVitesse+0x30>)
 8002c60:	bfa6      	itte	ge
 8002c62:	f44f 7116 	movge.w	r1, #600	; 0x258
 8002c66:	6011      	strge	r1, [r2, #0]
 8002c68:	6010      	strlt	r0, [r2, #0]
 8002c6a:	9a01      	ldr	r2, [sp, #4]
 8002c6c:	681b      	ldr	r3, [r3, #0]
 8002c6e:	429a      	cmp	r2, r3
 8002c70:	d102      	bne.n	8002c78 <SetVitesse+0x28>
 8002c72:	b003      	add	sp, #12
 8002c74:	f85d fb04 	ldr.w	pc, [sp], #4
 8002c78:	f7ff fcea 	bl	8002650 <__stack_chk_fail>
 8002c7c:	20000b00 	.word	0x20000b00
 8002c80:	20000b30 	.word	0x20000b30
	...

08002c90 <InitMouvement>:
 8002c90:	b530      	push	{r4, r5, lr}
 8002c92:	4b10      	ldr	r3, [pc, #64]	; (8002cd4 <InitMouvement+0x44>)
 8002c94:	4910      	ldr	r1, [pc, #64]	; (8002cd8 <InitMouvement+0x48>)
 8002c96:	f993 0000 	ldrsb.w	r0, [r3]
 8002c9a:	4d10      	ldr	r5, [pc, #64]	; (8002cdc <InitMouvement+0x4c>)
 8002c9c:	680b      	ldr	r3, [r1, #0]
 8002c9e:	4c10      	ldr	r4, [pc, #64]	; (8002ce0 <InitMouvement+0x50>)
 8002ca0:	b083      	sub	sp, #12
 8002ca2:	2200      	movs	r2, #0
 8002ca4:	9301      	str	r3, [sp, #4]
 8002ca6:	2804      	cmp	r0, #4
 8002ca8:	f04f 0300 	mov.w	r3, #0
 8002cac:	e9c5 2300 	strd	r2, r3, [r5]
 8002cb0:	e9c4 2300 	strd	r2, r3, [r4]
 8002cb4:	9a01      	ldr	r2, [sp, #4]
 8002cb6:	680b      	ldr	r3, [r1, #0]
 8002cb8:	d006      	beq.n	8002cc8 <InitMouvement+0x38>
 8002cba:	429a      	cmp	r2, r3
 8002cbc:	d108      	bne.n	8002cd0 <InitMouvement+0x40>
 8002cbe:	b003      	add	sp, #12
 8002cc0:	e8bd 4030 	ldmia.w	sp!, {r4, r5, lr}
 8002cc4:	f7ff bf84 	b.w	8002bd0 <StopperMoteurs.part.0>
 8002cc8:	429a      	cmp	r2, r3
 8002cca:	d101      	bne.n	8002cd0 <InitMouvement+0x40>
 8002ccc:	b003      	add	sp, #12
 8002cce:	bd30      	pop	{r4, r5, pc}
 8002cd0:	f7ff fcbe 	bl	8002650 <__stack_chk_fail>
 8002cd4:	20000b2d 	.word	0x20000b2d
 8002cd8:	20000b00 	.word	0x20000b00
 8002cdc:	200017e8 	.word	0x200017e8
 8002ce0:	200017d8 	.word	0x200017d8
	...

08002cf0 <AllerToutDroit>:
 8002cf0:	b5f0      	push	{r4, r5, r6, r7, lr}
 8002cf2:	4b12      	ldr	r3, [pc, #72]	; (8002d3c <AllerToutDroit+0x4c>)
 8002cf4:	4c12      	ldr	r4, [pc, #72]	; (8002d40 <AllerToutDroit+0x50>)
 8002cf6:	781d      	ldrb	r5, [r3, #0]
 8002cf8:	6823      	ldr	r3, [r4, #0]
 8002cfa:	b083      	sub	sp, #12
 8002cfc:	9301      	str	r3, [sp, #4]
 8002cfe:	b91d      	cbnz	r5, 8002d08 <AllerToutDroit+0x18>
 8002d00:	4e10      	ldr	r6, [pc, #64]	; (8002d44 <AllerToutDroit+0x54>)
 8002d02:	f996 3000 	ldrsb.w	r3, [r6]
 8002d06:	b92b      	cbnz	r3, 8002d14 <AllerToutDroit+0x24>
 8002d08:	9a01      	ldr	r2, [sp, #4]
 8002d0a:	6823      	ldr	r3, [r4, #0]
 8002d0c:	429a      	cmp	r2, r3
 8002d0e:	d112      	bne.n	8002d36 <AllerToutDroit+0x46>
 8002d10:	b003      	add	sp, #12
 8002d12:	bdf0      	pop	{r4, r5, r6, r7, pc}
 8002d14:	4f0c      	ldr	r7, [pc, #48]	; (8002d48 <AllerToutDroit+0x58>)
 8002d16:	f7ff fea3 	bl	8002a60 <Update>
 8002d1a:	6838      	ldr	r0, [r7, #0]
 8002d1c:	7035      	strb	r5, [r6, #0]
 8002d1e:	f001 ffc7 	bl	8004cb0 <left_motor_set_speed>
 8002d22:	9a01      	ldr	r2, [sp, #4]
 8002d24:	6823      	ldr	r3, [r4, #0]
 8002d26:	429a      	cmp	r2, r3
 8002d28:	d105      	bne.n	8002d36 <AllerToutDroit+0x46>
 8002d2a:	6838      	ldr	r0, [r7, #0]
 8002d2c:	b003      	add	sp, #12
 8002d2e:	e8bd 40f0 	ldmia.w	sp!, {r4, r5, r6, r7, lr}
 8002d32:	f001 bfd5 	b.w	8004ce0 <right_motor_set_speed>
 8002d36:	f7ff fc8b 	bl	8002650 <__stack_chk_fail>
 8002d3a:	bf00      	nop
 8002d3c:	200017e0 	.word	0x200017e0
 8002d40:	20000b00 	.word	0x20000b00
 8002d44:	20000b2d 	.word	0x20000b2d
 8002d48:	20000b30 	.word	0x20000b30
 8002d4c:	00000000 	.word	0x00000000

08002d50 <AllerEnArriere>:
 8002d50:	b570      	push	{r4, r5, r6, lr}
 8002d52:	4b14      	ldr	r3, [pc, #80]	; (8002da4 <AllerEnArriere+0x54>)
 8002d54:	4c14      	ldr	r4, [pc, #80]	; (8002da8 <AllerEnArriere+0x58>)
 8002d56:	781b      	ldrb	r3, [r3, #0]
 8002d58:	6822      	ldr	r2, [r4, #0]
 8002d5a:	b082      	sub	sp, #8
 8002d5c:	9201      	str	r2, [sp, #4]
 8002d5e:	b9c3      	cbnz	r3, 8002d92 <AllerEnArriere+0x42>
 8002d60:	4d12      	ldr	r5, [pc, #72]	; (8002dac <AllerEnArriere+0x5c>)
 8002d62:	f995 3000 	ldrsb.w	r3, [r5]
 8002d66:	2b01      	cmp	r3, #1
 8002d68:	d013      	beq.n	8002d92 <AllerEnArriere+0x42>
 8002d6a:	4e11      	ldr	r6, [pc, #68]	; (8002db0 <AllerEnArriere+0x60>)
 8002d6c:	f7ff fe78 	bl	8002a60 <Update>
 8002d70:	6830      	ldr	r0, [r6, #0]
 8002d72:	2301      	movs	r3, #1
 8002d74:	4240      	negs	r0, r0
 8002d76:	702b      	strb	r3, [r5, #0]
 8002d78:	f001 ff9a 	bl	8004cb0 <left_motor_set_speed>
 8002d7c:	9a01      	ldr	r2, [sp, #4]
 8002d7e:	6823      	ldr	r3, [r4, #0]
 8002d80:	429a      	cmp	r2, r3
 8002d82:	d10c      	bne.n	8002d9e <AllerEnArriere+0x4e>
 8002d84:	6830      	ldr	r0, [r6, #0]
 8002d86:	4240      	negs	r0, r0
 8002d88:	b002      	add	sp, #8
 8002d8a:	e8bd 4070 	ldmia.w	sp!, {r4, r5, r6, lr}
 8002d8e:	f001 bfa7 	b.w	8004ce0 <right_motor_set_speed>
 8002d92:	9a01      	ldr	r2, [sp, #4]
 8002d94:	6823      	ldr	r3, [r4, #0]
 8002d96:	429a      	cmp	r2, r3
 8002d98:	d101      	bne.n	8002d9e <AllerEnArriere+0x4e>
 8002d9a:	b002      	add	sp, #8
 8002d9c:	bd70      	pop	{r4, r5, r6, pc}
 8002d9e:	f7ff fc57 	bl	8002650 <__stack_chk_fail>
 8002da2:	bf00      	nop
 8002da4:	200017e0 	.word	0x200017e0
 8002da8:	20000b00 	.word	0x20000b00
 8002dac:	20000b2d 	.word	0x20000b2d
 8002db0:	20000b30 	.word	0x20000b30
	...

08002dc0 <TournerGauche>:
 8002dc0:	b570      	push	{r4, r5, r6, lr}
 8002dc2:	4b13      	ldr	r3, [pc, #76]	; (8002e10 <TournerGauche+0x50>)
 8002dc4:	4c13      	ldr	r4, [pc, #76]	; (8002e14 <TournerGauche+0x54>)
 8002dc6:	781b      	ldrb	r3, [r3, #0]
 8002dc8:	6822      	ldr	r2, [r4, #0]
 8002dca:	b082      	sub	sp, #8
 8002dcc:	9201      	str	r2, [sp, #4]
 8002dce:	b9bb      	cbnz	r3, 8002e00 <TournerGauche+0x40>
 8002dd0:	4d11      	ldr	r5, [pc, #68]	; (8002e18 <TournerGauche+0x58>)
 8002dd2:	f995 3000 	ldrsb.w	r3, [r5]
 8002dd6:	2b02      	cmp	r3, #2
 8002dd8:	d012      	beq.n	8002e00 <TournerGauche+0x40>
 8002dda:	4e10      	ldr	r6, [pc, #64]	; (8002e1c <TournerGauche+0x5c>)
 8002ddc:	f7ff fe40 	bl	8002a60 <Update>
 8002de0:	6830      	ldr	r0, [r6, #0]
 8002de2:	2302      	movs	r3, #2
 8002de4:	4240      	negs	r0, r0
 8002de6:	702b      	strb	r3, [r5, #0]
 8002de8:	f001 ff62 	bl	8004cb0 <left_motor_set_speed>
 8002dec:	9a01      	ldr	r2, [sp, #4]
 8002dee:	6823      	ldr	r3, [r4, #0]
 8002df0:	429a      	cmp	r2, r3
 8002df2:	d10b      	bne.n	8002e0c <TournerGauche+0x4c>
 8002df4:	6830      	ldr	r0, [r6, #0]
 8002df6:	b002      	add	sp, #8
 8002df8:	e8bd 4070 	ldmia.w	sp!, {r4, r5, r6, lr}
 8002dfc:	f001 bf70 	b.w	8004ce0 <right_motor_set_speed>
 8002e00:	9a01      	ldr	r2, [sp, #4]
 8002e02:	6823      	ldr	r3, [r4, #0]
 8002e04:	429a      	cmp	r2, r3
 8002e06:	d101      	bne.n	8002e0c <TournerGauche+0x4c>
 8002e08:	b002      	add	sp, #8
 8002e0a:	bd70      	pop	{r4, r5, r6, pc}
 8002e0c:	f7ff fc20 	bl	8002650 <__stack_chk_fail>
 8002e10:	200017e0 	.word	0x200017e0
 8002e14:	20000b00 	.word	0x20000b00
 8002e18:	20000b2d 	.word	0x20000b2d
 8002e1c:	20000b30 	.word	0x20000b30

08002e20 <TournerDroite>:
 8002e20:	b570      	push	{r4, r5, r6, lr}
 8002e22:	4b13      	ldr	r3, [pc, #76]	; (8002e70 <TournerDroite+0x50>)
 8002e24:	4c13      	ldr	r4, [pc, #76]	; (8002e74 <TournerDroite+0x54>)
 8002e26:	781b      	ldrb	r3, [r3, #0]
 8002e28:	6822      	ldr	r2, [r4, #0]
 8002e2a:	b082      	sub	sp, #8
 8002e2c:	9201      	str	r2, [sp, #4]
 8002e2e:	b9bb      	cbnz	r3, 8002e60 <TournerDroite+0x40>
 8002e30:	4d11      	ldr	r5, [pc, #68]	; (8002e78 <TournerDroite+0x58>)
 8002e32:	f995 3000 	ldrsb.w	r3, [r5]
 8002e36:	2b03      	cmp	r3, #3
 8002e38:	d012      	beq.n	8002e60 <TournerDroite+0x40>
 8002e3a:	4e10      	ldr	r6, [pc, #64]	; (8002e7c <TournerDroite+0x5c>)
 8002e3c:	f7ff fe10 	bl	8002a60 <Update>
 8002e40:	2303      	movs	r3, #3
 8002e42:	6830      	ldr	r0, [r6, #0]
 8002e44:	702b      	strb	r3, [r5, #0]
 8002e46:	f001 ff33 	bl	8004cb0 <left_motor_set_speed>
 8002e4a:	9a01      	ldr	r2, [sp, #4]
 8002e4c:	6823      	ldr	r3, [r4, #0]
 8002e4e:	429a      	cmp	r2, r3
 8002e50:	d10c      	bne.n	8002e6c <TournerDroite+0x4c>
 8002e52:	6830      	ldr	r0, [r6, #0]
 8002e54:	4240      	negs	r0, r0
 8002e56:	b002      	add	sp, #8
 8002e58:	e8bd 4070 	ldmia.w	sp!, {r4, r5, r6, lr}
 8002e5c:	f001 bf40 	b.w	8004ce0 <right_motor_set_speed>
 8002e60:	9a01      	ldr	r2, [sp, #4]
 8002e62:	6823      	ldr	r3, [r4, #0]
 8002e64:	429a      	cmp	r2, r3
 8002e66:	d101      	bne.n	8002e6c <TournerDroite+0x4c>
 8002e68:	b002      	add	sp, #8
 8002e6a:	bd70      	pop	{r4, r5, r6, pc}
 8002e6c:	f7ff fbf0 	bl	8002650 <__stack_chk_fail>
 8002e70:	200017e0 	.word	0x200017e0
 8002e74:	20000b00 	.word	0x20000b00
 8002e78:	20000b2d 	.word	0x20000b2d
 8002e7c:	20000b30 	.word	0x20000b30

08002e80 <GetPosition>:
 8002e80:	b510      	push	{r4, lr}
 8002e82:	4c08      	ldr	r4, [pc, #32]	; (8002ea4 <GetPosition+0x24>)
 8002e84:	b082      	sub	sp, #8
 8002e86:	6823      	ldr	r3, [r4, #0]
 8002e88:	9301      	str	r3, [sp, #4]
 8002e8a:	f7ff fde9 	bl	8002a60 <Update>
 8002e8e:	9a01      	ldr	r2, [sp, #4]
 8002e90:	6823      	ldr	r3, [r4, #0]
 8002e92:	4905      	ldr	r1, [pc, #20]	; (8002ea8 <GetPosition+0x28>)
 8002e94:	429a      	cmp	r2, r3
 8002e96:	ed91 0b00 	vldr	d0, [r1]
 8002e9a:	d101      	bne.n	8002ea0 <GetPosition+0x20>
 8002e9c:	b002      	add	sp, #8
 8002e9e:	bd10      	pop	{r4, pc}
 8002ea0:	f7ff fbd6 	bl	8002650 <__stack_chk_fail>
 8002ea4:	20000b00 	.word	0x20000b00
 8002ea8:	200017e8 	.word	0x200017e8
 8002eac:	00000000 	.word	0x00000000

08002eb0 <BloquerMoteurs>:
 8002eb0:	b510      	push	{r4, lr}
 8002eb2:	4b0b      	ldr	r3, [pc, #44]	; (8002ee0 <BloquerMoteurs+0x30>)
 8002eb4:	4c0b      	ldr	r4, [pc, #44]	; (8002ee4 <BloquerMoteurs+0x34>)
 8002eb6:	f993 3000 	ldrsb.w	r3, [r3]
 8002eba:	6822      	ldr	r2, [r4, #0]
 8002ebc:	b082      	sub	sp, #8
 8002ebe:	2b04      	cmp	r3, #4
 8002ec0:	9201      	str	r2, [sp, #4]
 8002ec2:	d001      	beq.n	8002ec8 <BloquerMoteurs+0x18>
 8002ec4:	f7ff fe84 	bl	8002bd0 <StopperMoteurs.part.0>
 8002ec8:	9a01      	ldr	r2, [sp, #4]
 8002eca:	6823      	ldr	r3, [r4, #0]
 8002ecc:	4906      	ldr	r1, [pc, #24]	; (8002ee8 <BloquerMoteurs+0x38>)
 8002ece:	2001      	movs	r0, #1
 8002ed0:	429a      	cmp	r2, r3
 8002ed2:	7008      	strb	r0, [r1, #0]
 8002ed4:	d101      	bne.n	8002eda <BloquerMoteurs+0x2a>
 8002ed6:	b002      	add	sp, #8
 8002ed8:	bd10      	pop	{r4, pc}
 8002eda:	f7ff fbb9 	bl	8002650 <__stack_chk_fail>
 8002ede:	bf00      	nop
 8002ee0:	20000b2d 	.word	0x20000b2d
 8002ee4:	20000b00 	.word	0x20000b00
 8002ee8:	200017e0 	.word	0x200017e0
 8002eec:	00000000 	.word	0x00000000

08002ef0 <DebloquerMoteurs>:
 8002ef0:	b500      	push	{lr}
 8002ef2:	4b08      	ldr	r3, [pc, #32]	; (8002f14 <DebloquerMoteurs+0x24>)
 8002ef4:	4908      	ldr	r1, [pc, #32]	; (8002f18 <DebloquerMoteurs+0x28>)
 8002ef6:	681a      	ldr	r2, [r3, #0]
 8002ef8:	b083      	sub	sp, #12
 8002efa:	2000      	movs	r0, #0
 8002efc:	9201      	str	r2, [sp, #4]
 8002efe:	9a01      	ldr	r2, [sp, #4]
 8002f00:	681b      	ldr	r3, [r3, #0]
 8002f02:	7008      	strb	r0, [r1, #0]
 8002f04:	429a      	cmp	r2, r3
 8002f06:	d102      	bne.n	8002f0e <DebloquerMoteurs+0x1e>
 8002f08:	b003      	add	sp, #12
 8002f0a:	f85d fb04 	ldr.w	pc, [sp], #4
 8002f0e:	f7ff fb9f 	bl	8002650 <__stack_chk_fail>
 8002f12:	bf00      	nop
 8002f14:	20000b00 	.word	0x20000b00
 8002f18:	200017e0 	.word	0x200017e0
 8002f1c:	00000000 	.word	0x00000000

08002f20 <TestFinSteps>:
 8002f20:	b530      	push	{r4, r5, lr}
 8002f22:	4c0b      	ldr	r4, [pc, #44]	; (8002f50 <TestFinSteps+0x30>)
 8002f24:	b083      	sub	sp, #12
 8002f26:	6823      	ldr	r3, [r4, #0]
 8002f28:	9301      	str	r3, [sp, #4]
 8002f2a:	4605      	mov	r5, r0
 8002f2c:	f001 fef0 	bl	8004d10 <left_motor_get_pos>
 8002f30:	2800      	cmp	r0, #0
 8002f32:	bfb8      	it	lt
 8002f34:	4240      	neglt	r0, r0
 8002f36:	9a01      	ldr	r2, [sp, #4]
 8002f38:	6823      	ldr	r3, [r4, #0]
 8002f3a:	4285      	cmp	r5, r0
 8002f3c:	bfcc      	ite	gt
 8002f3e:	2000      	movgt	r0, #0
 8002f40:	2001      	movle	r0, #1
 8002f42:	429a      	cmp	r2, r3
 8002f44:	d101      	bne.n	8002f4a <TestFinSteps+0x2a>
 8002f46:	b003      	add	sp, #12
 8002f48:	bd30      	pop	{r4, r5, pc}
 8002f4a:	f7ff fb81 	bl	8002650 <__stack_chk_fail>
 8002f4e:	bf00      	nop
 8002f50:	20000b00 	.word	0x20000b00
	...

08002f60 <AnalyseFrequence>:
 8002f60:	b510      	push	{r4, lr}
 8002f62:	4c2c      	ldr	r4, [pc, #176]	; (8003014 <AnalyseFrequence+0xb4>)
 8002f64:	ed9f 7a2c 	vldr	s14, [pc, #176]	; 8003018 <AnalyseFrequence+0xb8>
 8002f68:	6823      	ldr	r3, [r4, #0]
 8002f6a:	b082      	sub	sp, #8
 8002f6c:	301c      	adds	r0, #28
 8002f6e:	9301      	str	r3, [sp, #4]
 8002f70:	f04f 32ff 	mov.w	r2, #4294967295
 8002f74:	2307      	movs	r3, #7
 8002f76:	ecf0 7a01 	vldmia	r0!, {s15}
 8002f7a:	eef4 7ac7 	vcmpe.f32	s15, s14
 8002f7e:	eef1 fa10 	vmrs	APSR_nzcv, fpscr
 8002f82:	bfc8      	it	gt
 8002f84:	b25a      	sxtbgt	r2, r3
 8002f86:	f103 0301 	add.w	r3, r3, #1
 8002f8a:	bfc8      	it	gt
 8002f8c:	eeb0 7a67 	vmovgt.f32	s14, s15
 8002f90:	2b20      	cmp	r3, #32
 8002f92:	d1f0      	bne.n	8002f76 <AnalyseFrequence+0x16>
 8002f94:	b2d2      	uxtb	r2, r2
 8002f96:	f1a2 030b 	sub.w	r3, r2, #11
 8002f9a:	2b02      	cmp	r3, #2
 8002f9c:	d926      	bls.n	8002fec <AnalyseFrequence+0x8c>
 8002f9e:	f1a2 0308 	sub.w	r3, r2, #8
 8002fa2:	2b02      	cmp	r3, #2
 8002fa4:	bf8c      	ite	hi
 8002fa6:	2300      	movhi	r3, #0
 8002fa8:	2301      	movls	r3, #1
 8002faa:	f1a2 010e 	sub.w	r1, r2, #14
 8002fae:	2902      	cmp	r1, #2
 8002fb0:	f1a2 0113 	sub.w	r1, r2, #19
 8002fb4:	bf98      	it	ls
 8002fb6:	2303      	movls	r3, #3
 8002fb8:	f1a2 001c 	sub.w	r0, r2, #28
 8002fbc:	2902      	cmp	r1, #2
 8002fbe:	4917      	ldr	r1, [pc, #92]	; (800301c <AnalyseFrequence+0xbc>)
 8002fc0:	bf98      	it	ls
 8002fc2:	2304      	movls	r3, #4
 8002fc4:	3a17      	subs	r2, #23
 8002fc6:	2802      	cmp	r0, #2
 8002fc8:	bf98      	it	ls
 8002fca:	2305      	movls	r3, #5
 8002fcc:	7808      	ldrb	r0, [r1, #0]
 8002fce:	2a02      	cmp	r2, #2
 8002fd0:	bf98      	it	ls
 8002fd2:	2306      	movls	r3, #6
 8002fd4:	4298      	cmp	r0, r3
 8002fd6:	d00b      	beq.n	8002ff0 <AnalyseFrequence+0x90>
 8002fd8:	4a11      	ldr	r2, [pc, #68]	; (8003020 <AnalyseFrequence+0xc0>)
 8002fda:	2000      	movs	r0, #0
 8002fdc:	7010      	strb	r0, [r2, #0]
 8002fde:	9801      	ldr	r0, [sp, #4]
 8002fe0:	6822      	ldr	r2, [r4, #0]
 8002fe2:	700b      	strb	r3, [r1, #0]
 8002fe4:	4290      	cmp	r0, r2
 8002fe6:	d112      	bne.n	800300e <AnalyseFrequence+0xae>
 8002fe8:	b002      	add	sp, #8
 8002fea:	bd10      	pop	{r4, pc}
 8002fec:	2302      	movs	r3, #2
 8002fee:	e7dc      	b.n	8002faa <AnalyseFrequence+0x4a>
 8002ff0:	480b      	ldr	r0, [pc, #44]	; (8003020 <AnalyseFrequence+0xc0>)
 8002ff2:	7802      	ldrb	r2, [r0, #0]
 8002ff4:	3201      	adds	r2, #1
 8002ff6:	b2d2      	uxtb	r2, r2
 8002ff8:	2a05      	cmp	r2, #5
 8002ffa:	7002      	strb	r2, [r0, #0]
 8002ffc:	d9ef      	bls.n	8002fde <AnalyseFrequence+0x7e>
 8002ffe:	4a09      	ldr	r2, [pc, #36]	; (8003024 <AnalyseFrequence+0xc4>)
 8003000:	2b05      	cmp	r3, #5
 8003002:	7013      	strb	r3, [r2, #0]
 8003004:	d1eb      	bne.n	8002fde <AnalyseFrequence+0x7e>
 8003006:	4a08      	ldr	r2, [pc, #32]	; (8003028 <AnalyseFrequence+0xc8>)
 8003008:	2001      	movs	r0, #1
 800300a:	7010      	strb	r0, [r2, #0]
 800300c:	e7e7      	b.n	8002fde <AnalyseFrequence+0x7e>
 800300e:	f7ff fb1f 	bl	8002650 <__stack_chk_fail>
 8003012:	bf00      	nop
 8003014:	20000b00 	.word	0x20000b00
 8003018:	461c4000 	.word	0x461c4000
 800301c:	2000d7fc 	.word	0x2000d7fc
 8003020:	200017f3 	.word	0x200017f3
 8003024:	200017f4 	.word	0x200017f4
 8003028:	200017f2 	.word	0x200017f2
 800302c:	00000000 	.word	0x00000000

08003030 <CommandeDeplacement>:
 8003030:	b500      	push	{lr}
 8003032:	4b22      	ldr	r3, [pc, #136]	; (80030bc <CommandeDeplacement+0x8c>)
 8003034:	4a22      	ldr	r2, [pc, #136]	; (80030c0 <CommandeDeplacement+0x90>)
 8003036:	781b      	ldrb	r3, [r3, #0]
 8003038:	6811      	ldr	r1, [r2, #0]
 800303a:	b083      	sub	sp, #12
 800303c:	3b01      	subs	r3, #1
 800303e:	9101      	str	r1, [sp, #4]
 8003040:	2b05      	cmp	r3, #5
 8003042:	d831      	bhi.n	80030a8 <CommandeDeplacement+0x78>
 8003044:	e8df f003 	tbb	[pc, r3]
 8003048:	271e150c 	.word	0x271e150c
 800304c:	0330      	.short	0x0330
 800304e:	9901      	ldr	r1, [sp, #4]
 8003050:	6813      	ldr	r3, [r2, #0]
 8003052:	4299      	cmp	r1, r3
 8003054:	d12f      	bne.n	80030b6 <CommandeDeplacement+0x86>
 8003056:	b003      	add	sp, #12
 8003058:	f85d eb04 	ldr.w	lr, [sp], #4
 800305c:	f7ff bdd8 	b.w	8002c10 <StopperMoteurs>
 8003060:	9901      	ldr	r1, [sp, #4]
 8003062:	6813      	ldr	r3, [r2, #0]
 8003064:	4299      	cmp	r1, r3
 8003066:	d126      	bne.n	80030b6 <CommandeDeplacement+0x86>
 8003068:	b003      	add	sp, #12
 800306a:	f85d eb04 	ldr.w	lr, [sp], #4
 800306e:	f7ff be3f 	b.w	8002cf0 <AllerToutDroit>
 8003072:	9901      	ldr	r1, [sp, #4]
 8003074:	6813      	ldr	r3, [r2, #0]
 8003076:	4299      	cmp	r1, r3
 8003078:	d11d      	bne.n	80030b6 <CommandeDeplacement+0x86>
 800307a:	b003      	add	sp, #12
 800307c:	f85d eb04 	ldr.w	lr, [sp], #4
 8003080:	f7ff be9e 	b.w	8002dc0 <TournerGauche>
 8003084:	9901      	ldr	r1, [sp, #4]
 8003086:	6813      	ldr	r3, [r2, #0]
 8003088:	4299      	cmp	r1, r3
 800308a:	d114      	bne.n	80030b6 <CommandeDeplacement+0x86>
 800308c:	b003      	add	sp, #12
 800308e:	f85d eb04 	ldr.w	lr, [sp], #4
 8003092:	f7ff bec5 	b.w	8002e20 <TournerDroite>
 8003096:	9901      	ldr	r1, [sp, #4]
 8003098:	6813      	ldr	r3, [r2, #0]
 800309a:	4299      	cmp	r1, r3
 800309c:	d10b      	bne.n	80030b6 <CommandeDeplacement+0x86>
 800309e:	b003      	add	sp, #12
 80030a0:	f85d eb04 	ldr.w	lr, [sp], #4
 80030a4:	f7ff be54 	b.w	8002d50 <AllerEnArriere>
 80030a8:	9901      	ldr	r1, [sp, #4]
 80030aa:	6813      	ldr	r3, [r2, #0]
 80030ac:	4299      	cmp	r1, r3
 80030ae:	d102      	bne.n	80030b6 <CommandeDeplacement+0x86>
 80030b0:	b003      	add	sp, #12
 80030b2:	f85d fb04 	ldr.w	pc, [sp], #4
 80030b6:	f7ff facb 	bl	8002650 <__stack_chk_fail>
 80030ba:	bf00      	nop
 80030bc:	200017f4 	.word	0x200017f4
 80030c0:	20000b00 	.word	0x20000b00
	...

080030d0 <RechercheDirection>:
 80030d0:	e92d 47f0 	stmdb	sp!, {r4, r5, r6, r7, r8, r9, sl, lr}
 80030d4:	ed2d 8b02 	vpush	{d8}
 80030d8:	4e61      	ldr	r6, [pc, #388]	; (8003260 <RechercheDirection+0x190>)
 80030da:	ed9f 7a62 	vldr	s14, [pc, #392]	; 8003264 <RechercheDirection+0x194>
 80030de:	6833      	ldr	r3, [r6, #0]
 80030e0:	b082      	sub	sp, #8
 80030e2:	e9dd 450d 	ldrd	r4, r5, [sp, #52]	; 0x34
 80030e6:	9f0c      	ldr	r7, [sp, #48]	; 0x30
 80030e8:	9301      	str	r3, [sp, #4]
 80030ea:	301c      	adds	r0, #28
 80030ec:	2307      	movs	r3, #7
 80030ee:	f04f 38ff 	mov.w	r8, #4294967295
 80030f2:	ecf0 7a01 	vldmia	r0!, {s15}
 80030f6:	eef4 7ac7 	vcmpe.f32	s15, s14
 80030fa:	eef1 fa10 	vmrs	APSR_nzcv, fpscr
 80030fe:	bfc8      	it	gt
 8003100:	fa4f f883 	sxtbgt.w	r8, r3
 8003104:	f103 0301 	add.w	r3, r3, #1
 8003108:	bfc8      	it	gt
 800310a:	eeb0 7a67 	vmovgt.f32	s14, s15
 800310e:	2b20      	cmp	r3, #32
 8003110:	d1ef      	bne.n	80030f2 <RechercheDirection+0x22>
 8003112:	ed9f 7a54 	vldr	s14, [pc, #336]	; 8003264 <RechercheDirection+0x194>
 8003116:	311c      	adds	r1, #28
 8003118:	2307      	movs	r3, #7
 800311a:	f04f 39ff 	mov.w	r9, #4294967295
 800311e:	ecf1 7a01 	vldmia	r1!, {s15}
 8003122:	eef4 7ac7 	vcmpe.f32	s15, s14
 8003126:	eef1 fa10 	vmrs	APSR_nzcv, fpscr
 800312a:	bfc8      	it	gt
 800312c:	fa4f f983 	sxtbgt.w	r9, r3
 8003130:	f103 0301 	add.w	r3, r3, #1
 8003134:	bfc8      	it	gt
 8003136:	eeb0 7a67 	vmovgt.f32	s14, s15
 800313a:	2b20      	cmp	r3, #32
 800313c:	d1ef      	bne.n	800311e <RechercheDirection+0x4e>
 800313e:	ed9f 7a49 	vldr	s14, [pc, #292]	; 8003264 <RechercheDirection+0x194>
 8003142:	321c      	adds	r2, #28
 8003144:	2307      	movs	r3, #7
 8003146:	f04f 3aff 	mov.w	sl, #4294967295
 800314a:	ecf2 7a01 	vldmia	r2!, {s15}
 800314e:	eef4 7ac7 	vcmpe.f32	s15, s14
 8003152:	eef1 fa10 	vmrs	APSR_nzcv, fpscr
 8003156:	bfc8      	it	gt
 8003158:	fa4f fa83 	sxtbgt.w	sl, r3
 800315c:	f103 0301 	add.w	r3, r3, #1
 8003160:	bfc8      	it	gt
 8003162:	eeb0 7a67 	vmovgt.f32	s14, s15
 8003166:	2b20      	cmp	r3, #32
 8003168:	d1ef      	bne.n	800314a <RechercheDirection+0x7a>
 800316a:	eb07 07c8 	add.w	r7, r7, r8, lsl #3
 800316e:	edd7 0a00 	vldr	s1, [r7]
 8003172:	ed97 0a01 	vldr	s0, [r7, #4]
 8003176:	f00b fd6b 	bl	800ec50 <atan2f>
 800317a:	eb04 03c9 	add.w	r3, r4, r9, lsl #3
 800317e:	edd3 0a00 	vldr	s1, [r3]
 8003182:	eeb0 8a40 	vmov.f32	s16, s0
 8003186:	ed93 0a01 	vldr	s0, [r3, #4]
 800318a:	f00b fd61 	bl	800ec50 <atan2f>
 800318e:	ea4f 03ca 	mov.w	r3, sl, lsl #3
 8003192:	441c      	add	r4, r3
 8003194:	441d      	add	r5, r3
 8003196:	eef0 8a40 	vmov.f32	s17, s0
 800319a:	edd4 0a00 	vldr	s1, [r4]
 800319e:	ed95 0a01 	vldr	s0, [r5, #4]
 80031a2:	f00b fd55 	bl	800ec50 <atan2f>
 80031a6:	45c8      	cmp	r8, r9
 80031a8:	d008      	beq.n	80031bc <RechercheDirection+0xec>
 80031aa:	9a01      	ldr	r2, [sp, #4]
 80031ac:	6833      	ldr	r3, [r6, #0]
 80031ae:	429a      	cmp	r2, r3
 80031b0:	d154      	bne.n	800325c <RechercheDirection+0x18c>
 80031b2:	b002      	add	sp, #8
 80031b4:	ecbd 8b02 	vpop	{d8}
 80031b8:	e8bd 87f0 	ldmia.w	sp!, {r4, r5, r6, r7, r8, r9, sl, pc}
 80031bc:	45d0      	cmp	r8, sl
 80031be:	d1f4      	bne.n	80031aa <RechercheDirection+0xda>
 80031c0:	ee78 7a68 	vsub.f32	s15, s16, s17
 80031c4:	eddf 6a28 	vldr	s13, [pc, #160]	; 8003268 <RechercheDirection+0x198>
 80031c8:	4c28      	ldr	r4, [pc, #160]	; (800326c <RechercheDirection+0x19c>)
 80031ca:	ed9f 7a29 	vldr	s14, [pc, #164]	; 8003270 <RechercheDirection+0x1a0>
 80031ce:	7823      	ldrb	r3, [r4, #0]
 80031d0:	ee67 7aa6 	vmul.f32	s15, s15, s13
 80031d4:	ee87 8a87 	vdiv.f32	s16, s15, s14
 80031d8:	b183      	cbz	r3, 80031fc <RechercheDirection+0x12c>
 80031da:	eefa 7a0e 	vmov.f32	s15, #174	; 0xc1700000 -15.0
 80031de:	eeb4 8ae7 	vcmpe.f32	s16, s15
 80031e2:	eef1 fa10 	vmrs	APSR_nzcv, fpscr
 80031e6:	d406      	bmi.n	80031f6 <RechercheDirection+0x126>
 80031e8:	eef2 7a0e 	vmov.f32	s15, #46	; 0x41700000  15.0
 80031ec:	eeb4 8ae7 	vcmpe.f32	s16, s15
 80031f0:	eef1 fa10 	vmrs	APSR_nzcv, fpscr
 80031f4:	ddd9      	ble.n	80031aa <RechercheDirection+0xda>
 80031f6:	2300      	movs	r3, #0
 80031f8:	7023      	strb	r3, [r4, #0]
 80031fa:	e7d6      	b.n	80031aa <RechercheDirection+0xda>
 80031fc:	20c8      	movs	r0, #200	; 0xc8
 80031fe:	f7ff fd27 	bl	8002c50 <SetVitesse>
 8003202:	eef9 7a04 	vmov.f32	s15, #148	; 0xc0a00000 -5.0
 8003206:	eeb4 8ae7 	vcmpe.f32	s16, s15
 800320a:	eef1 fa10 	vmrs	APSR_nzcv, fpscr
 800320e:	d41a      	bmi.n	8003246 <RechercheDirection+0x176>
 8003210:	eef1 7a04 	vmov.f32	s15, #20	; 0x40a00000  5.0
 8003214:	eeb4 8ae7 	vcmpe.f32	s16, s15
 8003218:	eef1 fa10 	vmrs	APSR_nzcv, fpscr
 800321c:	dd0a      	ble.n	8003234 <RechercheDirection+0x164>
 800321e:	9a01      	ldr	r2, [sp, #4]
 8003220:	6833      	ldr	r3, [r6, #0]
 8003222:	429a      	cmp	r2, r3
 8003224:	d11a      	bne.n	800325c <RechercheDirection+0x18c>
 8003226:	b002      	add	sp, #8
 8003228:	ecbd 8b02 	vpop	{d8}
 800322c:	e8bd 47f0 	ldmia.w	sp!, {r4, r5, r6, r7, r8, r9, sl, lr}
 8003230:	f7ff bdc6 	b.w	8002dc0 <TournerGauche>
 8003234:	f44f 7016 	mov.w	r0, #600	; 0x258
 8003238:	f7ff fd0a 	bl	8002c50 <SetVitesse>
 800323c:	f7ff fd58 	bl	8002cf0 <AllerToutDroit>
 8003240:	2301      	movs	r3, #1
 8003242:	7023      	strb	r3, [r4, #0]
 8003244:	e7b1      	b.n	80031aa <RechercheDirection+0xda>
 8003246:	9a01      	ldr	r2, [sp, #4]
 8003248:	6833      	ldr	r3, [r6, #0]
 800324a:	429a      	cmp	r2, r3
 800324c:	d106      	bne.n	800325c <RechercheDirection+0x18c>
 800324e:	b002      	add	sp, #8
 8003250:	ecbd 8b02 	vpop	{d8}
 8003254:	e8bd 47f0 	ldmia.w	sp!, {r4, r5, r6, r7, r8, r9, sl, lr}
 8003258:	f7ff bde2 	b.w	8002e20 <TournerDroite>
 800325c:	f7ff f9f8 	bl	8002650 <__stack_chk_fail>
 8003260:	20000b00 	.word	0x20000b00
 8003264:	461c4000 	.word	0x461c4000
 8003268:	43b40000 	.word	0x43b40000
 800326c:	200017f0 	.word	0x200017f0
 8003270:	40c8f5c3 	.word	0x40c8f5c3
	...

08003280 <ProcessAudio>:
 8003280:	e92d 4ff0 	stmdb	sp!, {r4, r5, r6, r7, r8, r9, sl, fp, lr}
 8003284:	4e75      	ldr	r6, [pc, #468]	; (800345c <ProcessAudio+0x1dc>)
 8003286:	4f76      	ldr	r7, [pc, #472]	; (8003460 <ProcessAudio+0x1e0>)
 8003288:	6833      	ldr	r3, [r6, #0]
 800328a:	883a      	ldrh	r2, [r7, #0]
 800328c:	b087      	sub	sp, #28
 800328e:	9305      	str	r3, [sp, #20]
 8003290:	2900      	cmp	r1, #0
 8003292:	f000 80a5 	beq.w	80033e0 <ProcessAudio+0x160>
 8003296:	f8df 91d0 	ldr.w	r9, [pc, #464]	; 8003468 <ProcessAudio+0x1e8>
 800329a:	f8df 81d4 	ldr.w	r8, [pc, #468]	; 8003470 <ProcessAudio+0x1f0>
 800329e:	f8df e1d8 	ldr.w	lr, [pc, #472]	; 8003478 <ProcessAudio+0x1f8>
 80032a2:	f8df c1d0 	ldr.w	ip, [pc, #464]	; 8003474 <ProcessAudio+0x1f4>
 80032a6:	eddf 7a6f 	vldr	s15, [pc, #444]	; 8003464 <ProcessAudio+0x1e4>
 80032aa:	2500      	movs	r5, #0
 80032ac:	e004      	b.n	80032b8 <ProcessAudio+0x38>
 80032ae:	3504      	adds	r5, #4
 80032b0:	b2ad      	uxth	r5, r5
 80032b2:	42a9      	cmp	r1, r5
 80032b4:	f240 80d0 	bls.w	8003458 <ProcessAudio+0x1d8>
 80032b8:	f930 3015 	ldrsh.w	r3, [r0, r5, lsl #1]
 80032bc:	ee07 3a10 	vmov	s14, r3
 80032c0:	0094      	lsls	r4, r2, #2
 80032c2:	eeb8 7ac7 	vcvt.f32.s32	s14, s14
 80032c6:	eb09 0a04 	add.w	sl, r9, r4
 80032ca:	eb00 0345 	add.w	r3, r0, r5, lsl #1
 80032ce:	ed8a 7a00 	vstr	s14, [sl]
 80032d2:	f9b3 a002 	ldrsh.w	sl, [r3, #2]
 80032d6:	ee07 aa10 	vmov	s14, sl
 80032da:	eeb8 7ac7 	vcvt.f32.s32	s14, s14
 80032de:	eb08 0a04 	add.w	sl, r8, r4
 80032e2:	ed8a 7a00 	vstr	s14, [sl]
 80032e6:	f9b3 a004 	ldrsh.w	sl, [r3, #4]
 80032ea:	ee07 aa10 	vmov	s14, sl
 80032ee:	eeb8 7ac7 	vcvt.f32.s32	s14, s14
 80032f2:	eb0e 0a04 	add.w	sl, lr, r4
 80032f6:	ed8a 7a00 	vstr	s14, [sl]
 80032fa:	f9b3 3006 	ldrsh.w	r3, [r3, #6]
 80032fe:	ee07 3a10 	vmov	s14, r3
 8003302:	1c53      	adds	r3, r2, #1
 8003304:	b29b      	uxth	r3, r3
 8003306:	eeb8 7ac7 	vcvt.f32.s32	s14, s14
 800330a:	3202      	adds	r2, #2
 800330c:	009b      	lsls	r3, r3, #2
 800330e:	4464      	add	r4, ip
 8003310:	b292      	uxth	r2, r2
 8003312:	ed84 7a00 	vstr	s14, [r4]
 8003316:	eb09 0b03 	add.w	fp, r9, r3
 800331a:	eb08 0a03 	add.w	sl, r8, r3
 800331e:	eb0e 0403 	add.w	r4, lr, r3
 8003322:	f5b2 6f00 	cmp.w	r2, #2048	; 0x800
 8003326:	4463      	add	r3, ip
 8003328:	edcb 7a00 	vstr	s15, [fp]
 800332c:	edca 7a00 	vstr	s15, [sl]
 8003330:	edc4 7a00 	vstr	s15, [r4]
 8003334:	edc3 7a00 	vstr	s15, [r3]
 8003338:	d3b9      	bcc.n	80032ae <ProcessAudio+0x2e>
 800333a:	803a      	strh	r2, [r7, #0]
 800333c:	494a      	ldr	r1, [pc, #296]	; (8003468 <ProcessAudio+0x1e8>)
 800333e:	4c4b      	ldr	r4, [pc, #300]	; (800346c <ProcessAudio+0x1ec>)
 8003340:	f44f 6080 	mov.w	r0, #1024	; 0x400
 8003344:	f7ff f99c 	bl	8002680 <doFFT_optimized>
 8003348:	4949      	ldr	r1, [pc, #292]	; (8003470 <ProcessAudio+0x1f0>)
 800334a:	f44f 6080 	mov.w	r0, #1024	; 0x400
 800334e:	f7ff f997 	bl	8002680 <doFFT_optimized>
 8003352:	4948      	ldr	r1, [pc, #288]	; (8003474 <ProcessAudio+0x1f4>)
 8003354:	f44f 6080 	mov.w	r0, #1024	; 0x400
 8003358:	f7ff f992 	bl	8002680 <doFFT_optimized>
 800335c:	4946      	ldr	r1, [pc, #280]	; (8003478 <ProcessAudio+0x1f8>)
 800335e:	f44f 6080 	mov.w	r0, #1024	; 0x400
 8003362:	f7ff f98d 	bl	8002680 <doFFT_optimized>
 8003366:	f44f 6280 	mov.w	r2, #1024	; 0x400
 800336a:	4944      	ldr	r1, [pc, #272]	; (800347c <ProcessAudio+0x1fc>)
 800336c:	483e      	ldr	r0, [pc, #248]	; (8003468 <ProcessAudio+0x1e8>)
 800336e:	f00d fbc7 	bl	8010b00 <arm_cmplx_mag_f32>
 8003372:	f44f 6280 	mov.w	r2, #1024	; 0x400
 8003376:	4942      	ldr	r1, [pc, #264]	; (8003480 <ProcessAudio+0x200>)
 8003378:	483d      	ldr	r0, [pc, #244]	; (8003470 <ProcessAudio+0x1f0>)
 800337a:	f00d fbc1 	bl	8010b00 <arm_cmplx_mag_f32>
 800337e:	f44f 6280 	mov.w	r2, #1024	; 0x400
 8003382:	4940      	ldr	r1, [pc, #256]	; (8003484 <ProcessAudio+0x204>)
 8003384:	483b      	ldr	r0, [pc, #236]	; (8003474 <ProcessAudio+0x1f4>)
 8003386:	f00d fbbb 	bl	8010b00 <arm_cmplx_mag_f32>
 800338a:	f44f 6280 	mov.w	r2, #1024	; 0x400
 800338e:	493e      	ldr	r1, [pc, #248]	; (8003488 <ProcessAudio+0x208>)
 8003390:	4839      	ldr	r0, [pc, #228]	; (8003478 <ProcessAudio+0x1f8>)
 8003392:	f00d fbb5 	bl	8010b00 <arm_cmplx_mag_f32>
 8003396:	7823      	ldrb	r3, [r4, #0]
 8003398:	2b08      	cmp	r3, #8
 800339a:	d82b      	bhi.n	80033f4 <ProcessAudio+0x174>
 800339c:	3301      	adds	r3, #1
 800339e:	b2db      	uxtb	r3, r3
 80033a0:	2200      	movs	r2, #0
 80033a2:	4839      	ldr	r0, [pc, #228]	; (8003488 <ProcessAudio+0x208>)
 80033a4:	7023      	strb	r3, [r4, #0]
 80033a6:	803a      	strh	r2, [r7, #0]
 80033a8:	f7ff fdda 	bl	8002f60 <AnalyseFrequence>
 80033ac:	4b37      	ldr	r3, [pc, #220]	; (800348c <ProcessAudio+0x20c>)
 80033ae:	781b      	ldrb	r3, [r3, #0]
 80033b0:	b9cb      	cbnz	r3, 80033e6 <ProcessAudio+0x166>
 80033b2:	4b37      	ldr	r3, [pc, #220]	; (8003490 <ProcessAudio+0x210>)
 80033b4:	781b      	ldrb	r3, [r3, #0]
 80033b6:	2b00      	cmp	r3, #0
 80033b8:	d040      	beq.n	800343c <ProcessAudio+0x1bc>
 80033ba:	4b36      	ldr	r3, [pc, #216]	; (8003494 <ProcessAudio+0x214>)
 80033bc:	781b      	ldrb	r3, [r3, #0]
 80033be:	2b05      	cmp	r3, #5
 80033c0:	d111      	bne.n	80033e6 <ProcessAudio+0x166>
 80033c2:	482d      	ldr	r0, [pc, #180]	; (8003478 <ProcessAudio+0x1f8>)
 80033c4:	492b      	ldr	r1, [pc, #172]	; (8003474 <ProcessAudio+0x1f4>)
 80033c6:	4a28      	ldr	r2, [pc, #160]	; (8003468 <ProcessAudio+0x1e8>)
 80033c8:	4b29      	ldr	r3, [pc, #164]	; (8003470 <ProcessAudio+0x1f0>)
 80033ca:	e9cd 1002 	strd	r1, r0, [sp, #8]
 80033ce:	e9cd 3200 	strd	r3, r2, [sp]
 80033d2:	492a      	ldr	r1, [pc, #168]	; (800347c <ProcessAudio+0x1fc>)
 80033d4:	4b2c      	ldr	r3, [pc, #176]	; (8003488 <ProcessAudio+0x208>)
 80033d6:	4a2b      	ldr	r2, [pc, #172]	; (8003484 <ProcessAudio+0x204>)
 80033d8:	4829      	ldr	r0, [pc, #164]	; (8003480 <ProcessAudio+0x200>)
 80033da:	f7ff fe79 	bl	80030d0 <RechercheDirection>
 80033de:	e002      	b.n	80033e6 <ProcessAudio+0x166>
 80033e0:	f5b2 6f00 	cmp.w	r2, #2048	; 0x800
 80033e4:	d2aa      	bcs.n	800333c <ProcessAudio+0xbc>
 80033e6:	9a05      	ldr	r2, [sp, #20]
 80033e8:	6833      	ldr	r3, [r6, #0]
 80033ea:	429a      	cmp	r2, r3
 80033ec:	d132      	bne.n	8003454 <ProcessAudio+0x1d4>
 80033ee:	b007      	add	sp, #28
 80033f0:	e8bd 8ff0 	ldmia.w	sp!, {r4, r5, r6, r7, r8, r9, sl, fp, pc}
 80033f4:	2320      	movs	r3, #32
 80033f6:	f383 8811 	msr	BASEPRI, r3
 80033fa:	f003 fb59 	bl	8006ab0 <_stats_start_measure_crit_thd>
 80033fe:	f002 fb27 	bl	8005a50 <_dbg_check_lock>
 8003402:	f002 fbf5 	bl	8005bf0 <chDbgCheckClassI>
 8003406:	4824      	ldr	r0, [pc, #144]	; (8003498 <ProcessAudio+0x218>)
 8003408:	6883      	ldr	r3, [r0, #8]
 800340a:	2b00      	cmp	r3, #0
 800340c:	dd1f      	ble.n	800344e <ProcessAudio+0x1ce>
 800340e:	f002 ff17 	bl	8006240 <chSchRescheduleS>
 8003412:	f002 fb3d 	bl	8005a90 <_dbg_check_unlock>
 8003416:	f003 fb63 	bl	8006ae0 <_stats_stop_measure_crit_thd>
 800341a:	4b20      	ldr	r3, [pc, #128]	; (800349c <ProcessAudio+0x21c>)
 800341c:	681a      	ldr	r2, [r3, #0]
 800341e:	429a      	cmp	r2, r3
 8003420:	d007      	beq.n	8003432 <ProcessAudio+0x1b2>
 8003422:	6999      	ldr	r1, [r3, #24]
 8003424:	6893      	ldr	r3, [r2, #8]
 8003426:	688a      	ldr	r2, [r1, #8]
 8003428:	429a      	cmp	r2, r3
 800342a:	d202      	bcs.n	8003432 <ProcessAudio+0x1b2>
 800342c:	481c      	ldr	r0, [pc, #112]	; (80034a0 <ProcessAudio+0x220>)
 800342e:	f002 fa6f 	bl	8005910 <chSysHalt>
 8003432:	2300      	movs	r3, #0
 8003434:	f383 8811 	msr	BASEPRI, r3
 8003438:	2301      	movs	r3, #1
 800343a:	e7b1      	b.n	80033a0 <ProcessAudio+0x120>
 800343c:	9a05      	ldr	r2, [sp, #20]
 800343e:	6833      	ldr	r3, [r6, #0]
 8003440:	429a      	cmp	r2, r3
 8003442:	d107      	bne.n	8003454 <ProcessAudio+0x1d4>
 8003444:	b007      	add	sp, #28
 8003446:	e8bd 4ff0 	ldmia.w	sp!, {r4, r5, r6, r7, r8, r9, sl, fp, lr}
 800344a:	f7ff bdf1 	b.w	8003030 <CommandeDeplacement>
 800344e:	f003 fc27 	bl	8006ca0 <chSemSignalI>
 8003452:	e7dc      	b.n	800340e <ProcessAudio+0x18e>
 8003454:	f7ff f8fc 	bl	8002650 <__stack_chk_fail>
 8003458:	803a      	strh	r2, [r7, #0]
 800345a:	e7c4      	b.n	80033e6 <ProcessAudio+0x166>
 800345c:	20000b00 	.word	0x20000b00
 8003460:	2000d7fa 	.word	0x2000d7fa
 8003464:	00000000 	.word	0x00000000
 8003468:	2000a7f8 	.word	0x2000a7f8
 800346c:	2000d7f8 	.word	0x2000d7f8
 8003470:	200077f8 	.word	0x200077f8
 8003474:	200047f8 	.word	0x200047f8
 8003478:	200017f8 	.word	0x200017f8
 800347c:	2000c7f8 	.word	0x2000c7f8
 8003480:	200097f8 	.word	0x200097f8
 8003484:	200067f8 	.word	0x200067f8
 8003488:	200037f8 	.word	0x200037f8
 800348c:	200017f1 	.word	0x200017f1
 8003490:	200017f2 	.word	0x200017f2
 8003494:	200017f4 	.word	0x200017f4
 8003498:	20000b34 	.word	0x20000b34
 800349c:	2000fa70 	.word	0x2000fa70
 80034a0:	08014cd0 	.word	0x08014cd0
	...

080034b0 <BloquerAudio>:
 80034b0:	b500      	push	{lr}
 80034b2:	4b08      	ldr	r3, [pc, #32]	; (80034d4 <BloquerAudio+0x24>)
 80034b4:	4908      	ldr	r1, [pc, #32]	; (80034d8 <BloquerAudio+0x28>)
 80034b6:	681a      	ldr	r2, [r3, #0]
 80034b8:	b083      	sub	sp, #12
 80034ba:	2001      	movs	r0, #1
 80034bc:	9201      	str	r2, [sp, #4]
 80034be:	9a01      	ldr	r2, [sp, #4]
 80034c0:	681b      	ldr	r3, [r3, #0]
 80034c2:	7008      	strb	r0, [r1, #0]
 80034c4:	429a      	cmp	r2, r3
 80034c6:	d102      	bne.n	80034ce <BloquerAudio+0x1e>
 80034c8:	b003      	add	sp, #12
 80034ca:	f85d fb04 	ldr.w	pc, [sp], #4
 80034ce:	f7ff f8bf 	bl	8002650 <__stack_chk_fail>
 80034d2:	bf00      	nop
 80034d4:	20000b00 	.word	0x20000b00
 80034d8:	200017f1 	.word	0x200017f1
 80034dc:	00000000 	.word	0x00000000

080034e0 <DebloquerAudio>:
 80034e0:	b500      	push	{lr}
 80034e2:	4b08      	ldr	r3, [pc, #32]	; (8003504 <DebloquerAudio+0x24>)
 80034e4:	4908      	ldr	r1, [pc, #32]	; (8003508 <DebloquerAudio+0x28>)
 80034e6:	681a      	ldr	r2, [r3, #0]
 80034e8:	b083      	sub	sp, #12
 80034ea:	2000      	movs	r0, #0
 80034ec:	9201      	str	r2, [sp, #4]
 80034ee:	9a01      	ldr	r2, [sp, #4]
 80034f0:	681b      	ldr	r3, [r3, #0]
 80034f2:	7008      	strb	r0, [r1, #0]
 80034f4:	429a      	cmp	r2, r3
 80034f6:	d102      	bne.n	80034fe <DebloquerAudio+0x1e>
 80034f8:	b003      	add	sp, #12
 80034fa:	f85d fb04 	ldr.w	pc, [sp], #4
 80034fe:	f7ff f8a7 	bl	8002650 <__stack_chk_fail>
 8003502:	bf00      	nop
 8003504:	20000b00 	.word	0x20000b00
 8003508:	200017f1 	.word	0x200017f1
 800350c:	00000000 	.word	0x00000000

08003510 <StopperRecherche>:
 8003510:	b500      	push	{lr}
 8003512:	4b08      	ldr	r3, [pc, #32]	; (8003534 <StopperRecherche+0x24>)
 8003514:	4908      	ldr	r1, [pc, #32]	; (8003538 <StopperRecherche+0x28>)
 8003516:	681a      	ldr	r2, [r3, #0]
 8003518:	b083      	sub	sp, #12
 800351a:	2000      	movs	r0, #0
 800351c:	9201      	str	r2, [sp, #4]
 800351e:	9a01      	ldr	r2, [sp, #4]
 8003520:	681b      	ldr	r3, [r3, #0]
 8003522:	7008      	strb	r0, [r1, #0]
 8003524:	429a      	cmp	r2, r3
 8003526:	d102      	bne.n	800352e <StopperRecherche+0x1e>
 8003528:	b003      	add	sp, #12
 800352a:	f85d fb04 	ldr.w	pc, [sp], #4
 800352e:	f7ff f88f 	bl	8002650 <__stack_chk_fail>
 8003532:	bf00      	nop
 8003534:	20000b00 	.word	0x20000b00
 8003538:	200017f2 	.word	0x200017f2
 800353c:	00000000 	.word	0x00000000

08003540 <TestRecherche>:
 8003540:	b500      	push	{lr}
 8003542:	4b07      	ldr	r3, [pc, #28]	; (8003560 <TestRecherche+0x20>)
 8003544:	4907      	ldr	r1, [pc, #28]	; (8003564 <TestRecherche+0x24>)
 8003546:	681a      	ldr	r2, [r3, #0]
 8003548:	7808      	ldrb	r0, [r1, #0]
 800354a:	b083      	sub	sp, #12
 800354c:	9201      	str	r2, [sp, #4]
 800354e:	9a01      	ldr	r2, [sp, #4]
 8003550:	681b      	ldr	r3, [r3, #0]
 8003552:	429a      	cmp	r2, r3
 8003554:	d102      	bne.n	800355c <TestRecherche+0x1c>
 8003556:	b003      	add	sp, #12
 8003558:	f85d fb04 	ldr.w	pc, [sp], #4
 800355c:	f7ff f878 	bl	8002650 <__stack_chk_fail>
 8003560:	20000b00 	.word	0x20000b00
 8003564:	200017f2 	.word	0x200017f2
	...

08003570 <spi3_slave_lld_serve_rx_interrupt.part.1>:
 8003570:	b530      	push	{r4, r5, lr}
 8003572:	6843      	ldr	r3, [r0, #4]
 8003574:	4d17      	ldr	r5, [pc, #92]	; (80035d4 <spi3_slave_lld_serve_rx_interrupt.part.1+0x64>)
 8003576:	681a      	ldr	r2, [r3, #0]
 8003578:	6829      	ldr	r1, [r5, #0]
 800357a:	b083      	sub	sp, #12
 800357c:	4604      	mov	r4, r0
 800357e:	9101      	str	r1, [sp, #4]
 8003580:	b312      	cbz	r2, 80035c8 <spi3_slave_lld_serve_rx_interrupt.part.1+0x58>
 8003582:	2204      	movs	r2, #4
 8003584:	7002      	strb	r2, [r0, #0]
 8003586:	68da      	ldr	r2, [r3, #12]
 8003588:	681b      	ldr	r3, [r3, #0]
 800358a:	0852      	lsrs	r2, r2, #1
 800358c:	4611      	mov	r1, r2
 800358e:	4798      	blx	r3
 8003590:	7823      	ldrb	r3, [r4, #0]
 8003592:	2b04      	cmp	r3, #4
 8003594:	d018      	beq.n	80035c8 <spi3_slave_lld_serve_rx_interrupt.part.1+0x58>
 8003596:	2320      	movs	r3, #32
 8003598:	f383 8811 	msr	BASEPRI, r3
 800359c:	f003 fab8 	bl	8006b10 <_stats_start_measure_crit_isr>
 80035a0:	f002 fa96 	bl	8005ad0 <_dbg_check_lock_from_isr>
 80035a4:	f104 0008 	add.w	r0, r4, #8
 80035a8:	2100      	movs	r1, #0
 80035aa:	f003 f849 	bl	8006640 <chThdResumeI>
 80035ae:	f002 faaf 	bl	8005b10 <_dbg_check_unlock_from_isr>
 80035b2:	f003 fac5 	bl	8006b40 <_stats_stop_measure_crit_isr>
 80035b6:	2300      	movs	r3, #0
 80035b8:	f383 8811 	msr	BASEPRI, r3
 80035bc:	9a01      	ldr	r2, [sp, #4]
 80035be:	682b      	ldr	r3, [r5, #0]
 80035c0:	429a      	cmp	r2, r3
 80035c2:	d104      	bne.n	80035ce <spi3_slave_lld_serve_rx_interrupt.part.1+0x5e>
 80035c4:	b003      	add	sp, #12
 80035c6:	bd30      	pop	{r4, r5, pc}
 80035c8:	2302      	movs	r3, #2
 80035ca:	7023      	strb	r3, [r4, #0]
 80035cc:	e7e3      	b.n	8003596 <spi3_slave_lld_serve_rx_interrupt.part.1+0x26>
 80035ce:	f7ff f83f 	bl	8002650 <__stack_chk_fail>
 80035d2:	bf00      	nop
 80035d4:	20000b00 	.word	0x20000b00
	...

080035e0 <spi3_slave_lld_serve_tx_interrupt>:
 80035e0:	b570      	push	{r4, r5, r6, lr}
 80035e2:	4d19      	ldr	r5, [pc, #100]	; (8003648 <spi3_slave_lld_serve_tx_interrupt+0x68>)
 80035e4:	b082      	sub	sp, #8
 80035e6:	682b      	ldr	r3, [r5, #0]
 80035e8:	9301      	str	r3, [sp, #4]
 80035ea:	f011 0f0c 	tst.w	r1, #12
 80035ee:	460c      	mov	r4, r1
 80035f0:	4606      	mov	r6, r0
 80035f2:	d122      	bne.n	800363a <spi3_slave_lld_serve_tx_interrupt+0x5a>
 80035f4:	f014 0120 	ands.w	r1, r4, #32
 80035f8:	d009      	beq.n	800360e <spi3_slave_lld_serve_tx_interrupt+0x2e>
 80035fa:	9a01      	ldr	r2, [sp, #4]
 80035fc:	682b      	ldr	r3, [r5, #0]
 80035fe:	429a      	cmp	r2, r3
 8003600:	d11f      	bne.n	8003642 <spi3_slave_lld_serve_tx_interrupt+0x62>
 8003602:	4630      	mov	r0, r6
 8003604:	b002      	add	sp, #8
 8003606:	e8bd 4070 	ldmia.w	sp!, {r4, r5, r6, lr}
 800360a:	f7ff bfb1 	b.w	8003570 <spi3_slave_lld_serve_rx_interrupt.part.1>
 800360e:	06e3      	lsls	r3, r4, #27
 8003610:	d50d      	bpl.n	800362e <spi3_slave_lld_serve_tx_interrupt+0x4e>
 8003612:	6872      	ldr	r2, [r6, #4]
 8003614:	6813      	ldr	r3, [r2, #0]
 8003616:	b153      	cbz	r3, 800362e <spi3_slave_lld_serve_tx_interrupt+0x4e>
 8003618:	9c01      	ldr	r4, [sp, #4]
 800361a:	6828      	ldr	r0, [r5, #0]
 800361c:	4284      	cmp	r4, r0
 800361e:	d110      	bne.n	8003642 <spi3_slave_lld_serve_tx_interrupt+0x62>
 8003620:	68d2      	ldr	r2, [r2, #12]
 8003622:	4630      	mov	r0, r6
 8003624:	0852      	lsrs	r2, r2, #1
 8003626:	b002      	add	sp, #8
 8003628:	e8bd 4070 	ldmia.w	sp!, {r4, r5, r6, lr}
 800362c:	4718      	bx	r3
 800362e:	9a01      	ldr	r2, [sp, #4]
 8003630:	682b      	ldr	r3, [r5, #0]
 8003632:	429a      	cmp	r2, r3
 8003634:	d105      	bne.n	8003642 <spi3_slave_lld_serve_tx_interrupt+0x62>
 8003636:	b002      	add	sp, #8
 8003638:	bd70      	pop	{r4, r5, r6, pc}
 800363a:	4804      	ldr	r0, [pc, #16]	; (800364c <spi3_slave_lld_serve_tx_interrupt+0x6c>)
 800363c:	f002 f968 	bl	8005910 <chSysHalt>
 8003640:	e7d8      	b.n	80035f4 <spi3_slave_lld_serve_tx_interrupt+0x14>
 8003642:	f7ff f805 	bl	8002650 <__stack_chk_fail>
 8003646:	bf00      	nop
 8003648:	20000b00 	.word	0x20000b00
 800364c:	08014d00 	.word	0x08014d00

08003650 <spi3_slave_lld_serve_rx_interrupt>:
 8003650:	b570      	push	{r4, r5, r6, lr}
 8003652:	4d19      	ldr	r5, [pc, #100]	; (80036b8 <spi3_slave_lld_serve_rx_interrupt+0x68>)
 8003654:	b082      	sub	sp, #8
 8003656:	682b      	ldr	r3, [r5, #0]
 8003658:	9301      	str	r3, [sp, #4]
 800365a:	f011 0f0c 	tst.w	r1, #12
 800365e:	460c      	mov	r4, r1
 8003660:	4606      	mov	r6, r0
 8003662:	d122      	bne.n	80036aa <spi3_slave_lld_serve_rx_interrupt+0x5a>
 8003664:	f014 0120 	ands.w	r1, r4, #32
 8003668:	d009      	beq.n	800367e <spi3_slave_lld_serve_rx_interrupt+0x2e>
 800366a:	9a01      	ldr	r2, [sp, #4]
 800366c:	682b      	ldr	r3, [r5, #0]
 800366e:	429a      	cmp	r2, r3
 8003670:	d11f      	bne.n	80036b2 <spi3_slave_lld_serve_rx_interrupt+0x62>
 8003672:	4630      	mov	r0, r6
 8003674:	b002      	add	sp, #8
 8003676:	e8bd 4070 	ldmia.w	sp!, {r4, r5, r6, lr}
 800367a:	f7ff bf79 	b.w	8003570 <spi3_slave_lld_serve_rx_interrupt.part.1>
 800367e:	06e3      	lsls	r3, r4, #27
 8003680:	d50d      	bpl.n	800369e <spi3_slave_lld_serve_rx_interrupt+0x4e>
 8003682:	6872      	ldr	r2, [r6, #4]
 8003684:	6813      	ldr	r3, [r2, #0]
 8003686:	b153      	cbz	r3, 800369e <spi3_slave_lld_serve_rx_interrupt+0x4e>
 8003688:	9c01      	ldr	r4, [sp, #4]
 800368a:	6828      	ldr	r0, [r5, #0]
 800368c:	4284      	cmp	r4, r0
 800368e:	d110      	bne.n	80036b2 <spi3_slave_lld_serve_rx_interrupt+0x62>
 8003690:	68d2      	ldr	r2, [r2, #12]
 8003692:	4630      	mov	r0, r6
 8003694:	0852      	lsrs	r2, r2, #1
 8003696:	b002      	add	sp, #8
 8003698:	e8bd 4070 	ldmia.w	sp!, {r4, r5, r6, lr}
 800369c:	4718      	bx	r3
 800369e:	9a01      	ldr	r2, [sp, #4]
 80036a0:	682b      	ldr	r3, [r5, #0]
 80036a2:	429a      	cmp	r2, r3
 80036a4:	d105      	bne.n	80036b2 <spi3_slave_lld_serve_rx_interrupt+0x62>
 80036a6:	b002      	add	sp, #8
 80036a8:	bd70      	pop	{r4, r5, r6, pc}
 80036aa:	4804      	ldr	r0, [pc, #16]	; (80036bc <spi3_slave_lld_serve_rx_interrupt+0x6c>)
 80036ac:	f002 f930 	bl	8005910 <chSysHalt>
 80036b0:	e7d8      	b.n	8003664 <spi3_slave_lld_serve_rx_interrupt+0x14>
 80036b2:	f7fe ffcd 	bl	8002650 <__stack_chk_fail>
 80036b6:	bf00      	nop
 80036b8:	20000b00 	.word	0x20000b00
 80036bc:	08014d00 	.word	0x08014d00

080036c0 <spi3_slave_lld_init>:
 80036c0:	b530      	push	{r4, r5, lr}
 80036c2:	4d0f      	ldr	r5, [pc, #60]	; (8003700 <spi3_slave_lld_init+0x40>)
 80036c4:	4c0f      	ldr	r4, [pc, #60]	; (8003704 <spi3_slave_lld_init+0x44>)
 80036c6:	682a      	ldr	r2, [r5, #0]
 80036c8:	4b0f      	ldr	r3, [pc, #60]	; (8003708 <spi3_slave_lld_init+0x48>)
 80036ca:	b083      	sub	sp, #12
 80036cc:	4620      	mov	r0, r4
 80036ce:	9201      	str	r2, [sp, #4]
 80036d0:	f64f 72ff 	movw	r2, #65535	; 0xffff
 80036d4:	801a      	strh	r2, [r3, #0]
 80036d6:	f000 f95b 	bl	8003990 <spi3SlaveObjectInit>
 80036da:	4b0c      	ldr	r3, [pc, #48]	; (800370c <spi3_slave_lld_init+0x4c>)
 80036dc:	9901      	ldr	r1, [sp, #4]
 80036de:	682a      	ldr	r2, [r5, #0]
 80036e0:	480b      	ldr	r0, [pc, #44]	; (8003710 <spi3_slave_lld_init+0x50>)
 80036e2:	4d0c      	ldr	r5, [pc, #48]	; (8003714 <spi3_slave_lld_init+0x54>)
 80036e4:	6225      	str	r5, [r4, #32]
 80036e6:	6263      	str	r3, [r4, #36]	; 0x24
 80036e8:	f103 0524 	add.w	r5, r3, #36	; 0x24
 80036ec:	4291      	cmp	r1, r2
 80036ee:	4b0a      	ldr	r3, [pc, #40]	; (8003718 <spi3_slave_lld_init+0x58>)
 80036f0:	6323      	str	r3, [r4, #48]	; 0x30
 80036f2:	e9c4 500a 	strd	r5, r0, [r4, #40]	; 0x28
 80036f6:	d101      	bne.n	80036fc <spi3_slave_lld_init+0x3c>
 80036f8:	b003      	add	sp, #12
 80036fa:	bd30      	pop	{r4, r5, pc}
 80036fc:	f7fe ffa8 	bl	8002650 <__stack_chk_fail>
 8003700:	20000b00 	.word	0x20000b00
 8003704:	2000d814 	.word	0x2000d814
 8003708:	2000d7fe 	.word	0x2000d7fe
 800370c:	08016e18 	.word	0x08016e18
 8003710:	0001011e 	.word	0x0001011e
 8003714:	40003c00 	.word	0x40003c00
 8003718:	00010046 	.word	0x00010046
 800371c:	00000000 	.word	0x00000000

08003720 <spi3_slave_lld_start>:
 8003720:	b570      	push	{r4, r5, r6, lr}
 8003722:	4d2c      	ldr	r5, [pc, #176]	; (80037d4 <spi3_slave_lld_start+0xb4>)
 8003724:	7803      	ldrb	r3, [r0, #0]
 8003726:	682a      	ldr	r2, [r5, #0]
 8003728:	b082      	sub	sp, #8
 800372a:	2b01      	cmp	r3, #1
 800372c:	4604      	mov	r4, r0
 800372e:	9201      	str	r2, [sp, #4]
 8003730:	d024      	beq.n	800377c <spi3_slave_lld_start+0x5c>
 8003732:	6863      	ldr	r3, [r4, #4]
 8003734:	6ae2      	ldr	r2, [r4, #44]	; 0x2c
 8003736:	8959      	ldrh	r1, [r3, #10]
 8003738:	6b23      	ldr	r3, [r4, #48]	; 0x30
 800373a:	f422 42f0 	bic.w	r2, r2, #30720	; 0x7800
 800373e:	f423 43f0 	bic.w	r3, r3, #30720	; 0x7800
 8003742:	0509      	lsls	r1, r1, #20
 8003744:	bf44      	itt	mi
 8003746:	f442 5220 	orrmi.w	r2, r2, #10240	; 0x2800
 800374a:	f443 5320 	orrmi.w	r3, r3, #10240	; 0x2800
 800374e:	e9c4 230b 	strd	r2, r3, [r4, #44]	; 0x2c
 8003752:	6a23      	ldr	r3, [r4, #32]
 8003754:	2200      	movs	r2, #0
 8003756:	601a      	str	r2, [r3, #0]
 8003758:	6862      	ldr	r2, [r4, #4]
 800375a:	6a23      	ldr	r3, [r4, #32]
 800375c:	8952      	ldrh	r2, [r2, #10]
 800375e:	601a      	str	r2, [r3, #0]
 8003760:	6a23      	ldr	r3, [r4, #32]
 8003762:	2203      	movs	r2, #3
 8003764:	605a      	str	r2, [r3, #4]
 8003766:	6a22      	ldr	r2, [r4, #32]
 8003768:	6813      	ldr	r3, [r2, #0]
 800376a:	f043 0340 	orr.w	r3, r3, #64	; 0x40
 800376e:	6013      	str	r3, [r2, #0]
 8003770:	9a01      	ldr	r2, [sp, #4]
 8003772:	682b      	ldr	r3, [r5, #0]
 8003774:	429a      	cmp	r2, r3
 8003776:	d12b      	bne.n	80037d0 <spi3_slave_lld_start+0xb0>
 8003778:	b002      	add	sp, #8
 800377a:	bd70      	pop	{r4, r5, r6, pc}
 800377c:	4e16      	ldr	r6, [pc, #88]	; (80037d8 <spi3_slave_lld_start+0xb8>)
